:020000040800F2
:104000002838002085410008F1A10008E9A1000836
:10401000EDA100082548000845BE0008000000008A
:10402000000000000000000000000000ADB5000826
:104030002948000800000000D5A20008B1B500081A
:104040009F4100089F4100089F4100089F410008D0
:104050009F4100089F4100089F4100089F410008C0
:104060009F4100089F4100089F4100089F410008B0
:104070009F4100089F4100089F4100089F410008A0
:104080009F4100089F4100089F4100089F41000890
:104090009F4100089F4100089F4100089F41000880
:1040A0009F4100089F4100089F4100089F41000870
:1040B0009F410008D5BA00089F4100089F410008B1
:1040C0009F4100089F4100089F4100089F41000850
:1040D0009F4100085DBC0008FDBC00089DBD0008B4
:1040E0002D4800089F4100089F4100080000000083
:1040F00000000000000000000000000000000000C0
:10410000000000009F4100089F41000800000000DF
:104110000DBB0008B5BB0008000000000000000057
:104120009F4100089F4100089F4100089F410008EF
:10413000000000000000000000000000000000007F
:104140000000000000000000000000009F41000887
:1041500000000000000000009F4100089F4100088F
:104160000000000000000000000000009F41000867
:10417000DFF80CD000F032F9004800476101010877
:10418000283800200648804706480047FEE7FEE73B
:10419000FEE7FEE7FEE7FEE7FEE7FEE7FEE7FEE7F7
:1041A0002DBA0008714100082DE9FE4F804681EAD2
:1041B0000300C00F0C46009021F0004123F00045A1
:1041C000B8EB0200A94105D24046214690461C4664
:1041D0000B46024623F00040104347D0270DC7F39B
:1041E0000A00C3F30A510290401A019040286BDA8A
:1041F000C3F3130040F4801B0098924620B10023C3
:10420000D2EB030A63EB0B0B01985946C0F1400255
:10421000504600F0F5F806460D4650465946019ABC
:1042200000F00DF910EB08006141002487EA1152FB
:1042300084EAE7731A4340D0009A62B3019A012AD4
:104240004FEA075215DC001B61EB02014FF0004200
:1042500002EA0752CDE90042001C41F580113246C6
:104260002B4600F00DF903B0BDE8F08F4046214623
:10427000F9E7001B61EB0201001C41F580130018F7
:104280005B412018A2F5001747EB030140EAD57007
:10429000B6196D4111E06D084FEA360645EAC07562
:1042A0004FEA0752001B61EB0201001C41F580112F
:1042B00049084FEA30000019514132462B4603B0FD
:1042C000BDE8F04F00F0CDB8009801224000002377
:1042D000D0EB020263EBE073009821464FEAE074F2
:1042E000B8EB000061EB0401E9E783F000435BE712
:1042F00081F0004158E72DE9FE4F81EA030404F004
:10430000004421F0004100944FF0000B23F00043E3
:1043100050EA01045ED052EA03045BD0C3F30A54AE
:10432000C1F30A552C44A4F2F3340194A0FB0254C7
:10433000C1F3130141F48011C3F3130343F4801359
:1043400001FB024400FB034E840A970A44EA8154AD
:1043500047EA8357A4FB076802958D0A05FB07858A
:104360004FEA932C04FB0C542705029D4FEA065894
:1043700047EA1637B5EB08056EEB070C870E920E71
:1043800047EA811742EA8312A7FB0201B6EB0B0151
:1043900064EB00042B0D43EA0C335E1844EB1C5015
:1043A000DA465146E7FB0201C5F313044FEA0B332B
:1043B00043EA14534FEA0432019C43EA0603A4F192
:1043C0000C040294009CCDE900B400F059F803B04D
:1043D000BDE8F08F00200146F9E70000064C074DCC
:1043E00006E0E06840F0010394E8070098471034C5
:1043F000AC42F6D3FFF7C0FED03F0108F03F010802
:10440000202A04DB203A00FA02F100207047914094
:10441000C2F1200320FA03F3194390407047202A89
:1044200004DB203A21FA02F00021704721FA02F35E
:10443000D040C2F120029140084319467047202A1B
:1044400006DBCB17203A41FA02F043EAE07306E0BC
:1044500041FA02F3D040C2F12002914008431946CC
:10446000704710B5141E73F1000408DA401C41F1C6
:10447000000192185B411A4301D120F0010010BDE8
:104480002DE9F04D92469B4611B1B1FA81F202E05E
:10449000B0FA80F220329046FFF7B2FF04460F4692
:1044A00040EA0A0041EA0B0153465A46084313D03A
:1044B000114653EA010019D0C8F140025046FFF7F7
:1044C000AEFF05460E46504659464246FFF798FF56
:1044D000084305D0012004E020463946BDE8F08DB0
:1044E0000020054346EAE0762C4337430A986305EB
:1044F000E40AA0EB08000022FD0A44EA47540A300F
:1045000002D500200146E9E7010510196941DDE9FE
:10451000084500196941BDE8F04DA2E7D2B201E0BB
:1045200000F8012B491EFBD270470022F6E710B5B8
:1045300013460A4604461946FFF7F0FF204610BD11
:10454000F0B480EA0102D40F4200B2EB410F02D274
:104550000246084611464A0042D0C30DDDB2C1F3FF
:10456000C752AD1A202D35DAC1F3160141F400020D
:1045700004B15242C5F1200602FA06F12A41104464
:10458000B3EBD05F23D0C4B1012DA0EBC35009DC45
:10459000F0BC4FF0004202EAC352DBB200F500006B
:1045A00000F011B9400000F1807000EBC350A0F1A1
:1045B000807040EAD170490009E0490841EAC071C1
:1045C000A0EBC35000F50000400800EBC350F0BC66
:1045D00000F0F0B86142012202EB4101001BF6E756
:1045E000F0BC704781F00041AAE780F00040A7E7E7
:1045F00080EA010210B502F00043400022D04A00D8
:104600001FD0010E01EB1261C0F35600C2F3560237
:1046100040F4000042F40002A0FB022000047F39B5
:10462000140400D0401C50EA124001D44000491E3E
:10463000C2B20C0604EBD010401C4008802A02D005
:1046400003E0002010BD20F00100002900DA002066
:10465000184310BD002801DBC0F10040002901DB38
:10466000C1F10041814201D801207047002070470C
:10467000002801DBC0F10040002901DBC1F100414D
:10468000814201D20120704700207047002801DBE1
:10469000C0F10040002901DBC1F10041814201D39A
:1046A0000120704700207047002801DBC0F1004066
:1046B000002901DBC1F10041814201D9012070478D
:1046C00000207047C10F80EAE0700844CA079623B3
:1046D000002100F078B896230022114600F073B84C
:1046E0000EB5C10F80EAE0700844CA07002140F20D
:1046F00033438DE80E000A460B46FFF7C1FE03B0B8
:1047000000BD0EB540F2334102910021CDE9001108
:104710000A460B46FFF7B4FE03B000BD20F0004090
:10472000C10DC0F3160040F400007F2901DA00201B
:104730007047962903DCC1F19601C840704796394D
:104740008840704770B5C1F30A5201F0004500245B
:10475000C1F3130140F2FF3341F480119A4201DAB0
:10476000002070BD40F233439A42A2F2334203DC90
:104770005242FFF754FE00E090402C43F1D04042FB
:1047800070BDC1F30A5210B5C1F3130140F2FF33FB
:1047900041F480119A4201DA002010BD40F2334307
:1047A0009A42A2F2334203DC5242FFF738FE10BDB8
:1047B000904010BD0029A8BF7047401C490008BFA9
:1047C00020F00100704710B4B0FA80FC00FA0CF041
:1047D00050EA010404BF10BC704749B1CCF1200479
:1047E00021FA04F411FA0CF118BF01212143084306
:1047F000A3EB0C01CB1D4FEA00614FEA102042BF32
:10480000002010BC704700EBC35010440029A4BF27
:1048100010BC7047401C490008BF20F0010010BCCC
:1048200070470000FEE70000704700002DE9F047E8
:1048300040F21440C4F201000168890440F1D283BF
:104840004FF4005140F2D4070160C2F200073888EB
:1048500042F6E06141F268168842C2F2000608D3CF
:10486000D6E94C1200203880481C42F10001C6E90C
:104870004C014FF08040016840F2340821F0010102
:10488000C4F2000801600020C8F8000096F830006B
:10489000002844D0012840F0968396F84000002874
:1048A00040F0918396F83F00002851D0012840F055
:1048B0008A8340F2D200C2F20000027896F83E10DD
:1048C0008A4218BF017096F84200002800F07B83EE
:1048D0000DF010FFB6F874100144308A716007F0D3
:1048E00059FD96F86C1086F82900032900F2C8815A
:1048F0000446DFE811F0040063017201810196F8BB
:104900003E000138042800F2BB81DFE810F005000A
:104910000B030E031103B701B6F88E0025E396F8DA
:104920002F00032856D0022879D0002840F04B836E
:1049300096F82D00002800F0AE8096F83A10002975
:1049400000F0A980012808BF012940F03C8373E0F2
:1049500040F2B81148F20002C2F20001C4F23B5228
:1049600042F200408A600022C4F201000A62CA6179
:104970004A610A61CA60C1680A2241F00701C16048
:10498000416B62F304014163816841F480018160FD
:104990000168890709D4016889075CBF01685FEA7B
:1049A000817102D401688907F2D5C06CB6F8741021
:1049B000C0F38D000844706040F2F020C2F20000A5
:1049C00000210160C8F800104FF08040016821F01C
:1049D0000101F7E242F20040C4F20100C1680A227C
:1049E00041F00701C160416B62F3040141638168DA
:1049F00041F4800181600168890709D40168890751
:104A00005CBF01685FEA817102D401688907F2D551
:104A1000C06CB6F87410C0F38D00084413E096F82B
:104A20002D00002800F0A980012840F0CC8296F8E3
:104A30003A00012840F0C7820A200AF025FDB6F8A6
:104A4000741001EB9000706040F2F020C2F20000A0
:104A500000210160C8F800104FF08040026822F089
:104A60000102026040F2B81040F2CE02C2F2000031
:104A7000C2F200020162C16141610161C160118045
:104A800046F20002C4F66A12826040F2CC00C2F222
:104A90000000017097E296F84200002800F093822F
:104AA0000DF028FE40F2D004C2F200040146B6F830
:104AB00074302088328A19449042716022D096F86E
:104AC0003C0010B1012806D1323290B207F062FCEE
:104AD000328A86F8290040F2CE00C2F2000000219E
:104AE000018040F2B81046F20003C2F20000C4F6A2
:104AF0006A13836040F2CC03C2F200031970C161F3
:104B00001046228096F83C10002900F0848001298C
:104B100040F0FB80716896F9292096F928301144FD
:104B2000CC1A00F196018C4200F2B080A0F1320262
:104B30009442C0F0AB8000F139018C424FF000018B
:104B400000F12B0288BF012194424FF0000238BFD0
:104B5000012211434FF0000200F06E8140F2B813C1
:104B600046F20005C2F20003C4F66A159D6040F2E9
:104B7000CE03C2F200031A8080E196F842000028BA
:104B800000F021820DF0B6FD40F2D009C2F200091A
:104B9000B6F87420B9F80050318A14188D42746048
:104BA00000F09C8096F83C00002800F076800128F8
:104BB00040F07B80708C0844323070E096F83E0004
:104BC000013804285CD8DFE810F00500B601B9010F
:104BD000BC015900B6F8AC00C7E196F83E000138B8
:104BE00004284DD8DFE810F00500B001B301B6018C
:104BF0004A00B6F8CA00B8E196F83E000138042829
:104C00003ED8DFE810F00500AA01AD01B0013B007D
:104C1000B6F8E800A9E1716896F9292096F92830DC
:104C20001144CC1A00F164018C4200F2A580A0F17D
:104C300064029442C0F0A08000F108018C424FF061
:104C40000001A0F1080288BF012194424FF0000248
:104C500038BF012211434FF0000200F01A8140F2E8
:104C6000B81346F20005C2F20003C4F66A159D604F
:104C700040F2CE03C2F200031A802CE10020F0873C
:104C800040F2F020C2F20000046885E18C4240F25C
:104C90008A8038880130388070E0708C084480B297
:104CA00007F078FB86F8290001E096F8290074687F
:104CB00096F92810358A44FA80F0401AA8420BD998
:104CC00040F2B81AC2F2000ADAF81C004FF07C5128
:104CD000FFF78EFCCAF81C00A9F8005096F83C00BB
:104CE000C8B1012811D196F9290096F92810728CC3
:104CF0002044441AA81800F196018C423CD8A0F137
:104D00003202944238D3323015E040F2F020C2F241
:104D100000000468F9E096F9290096F92810728CD1
:104D20002044441A501900F164018C4224D8A0F1A7
:104D30006402944220D300F10A018C424FF000013A
:104D4000A0F10A0288BF012194424FF0000238BF4F
:104D5000012211434FF0000246D040F2B81346F250
:104D60000005C2F20003C4F66A159D6040F2CE034E
:104D7000C2F200031A8055E08C4214D940F2CE00F2
:104D8000C2F200000021018040F2B81046F2000299
:104D9000C2F20000C4F66A12826040F2CC00C2F295
:104DA00000000170B7E040F2CC00C2F20000002128
:104DB000017040F2CE00C2F20000018040F2B81053
:104DC00046F20001C2F20000C4F66A11816040F2AE
:104DD000F0204AF200043988C2F20000C4F20C74D8
:104DE0000460481C3880E3E040F2CE0240F2CC037D
:104DF000C2F20002C2F2000315881B780135002BB5
:104E000018BF0025ABB2B3F5FA5F158011D30023AC
:104E1000138040F2B81248F20003C2F20002C4F25A
:104E20003B53936040F2CC0281F00101C2F20002D8
:104E30001170FFF747FC57E040F2CE0C40F2CC0374
:104E4000C2F2000CC2F20003BCF800501B7801351E
:104E5000002B18BF0025ABB241F658329342ACF894
:104E6000005012D30022ACF8002040F2B81248F2F1
:104E70000003C2F20002C4F23B53936040F2CC0242
:104E800081F00101C2F2000211703230FFF71AFC0A
:104E90002AE040F2CE0C40F2CC03C2F2000CC2F287
:104EA0000003BCF800501B780135002B18BF00250B
:104EB000ABB241F658329342ACF8005012D3002204
:104EC000ACF8002040F2B81248F20003C2F200022F
:104ED000C4F23B53936040F2CC0281F00101C2F274
:104EE00000021170FFF7F7FB05462046FFF7F3FBC2
:104EF0000146284605F07EF9044640F2F020398844
:104F0000C2F200000460481C388020460021FFF7F0
:104F1000CBFB00284CD140F2F020C2F2000000246C
:104F2000046045E0B6F894001FE0B6F89A001CE073
:104F3000B6F8A00019E0B6F8B20016E0B6F8B8006E
:104F400013E0B6F8BE0010E0B6F8D0000DE0B6F8F9
:104F5000D6000AE0B6F8DC0007E0B6F8EE0004E0A0
:104F6000B6F8F40001E0B6F8FA00FFF7B4FB054626
:104F7000706896F928102044401AFFF7ACFB0146F0
:104F8000284605F037F9044640F2F0203988C2F28D
:104F900000000460481C3880204600210025FFF7EF
:104FA00083FB28B940F2F020C2F200000560002423
:104FB0002046FFF7B3FBC8F800004FF080400168BF
:104FC00041F00101016096F82E00002808BFBDE8FD
:104FD000F0870020C8F800004FF08040016821F001
:104FE00001010160BDE8F0872DE9F0434FF08057E3
:104FF00007EAD1074FF0005606EA92064FF08045C7
:10500000384305EA5305304340EA050843F20040BF
:10501000C2F2000050E8017F7E1C40E80165002DCF
:10502000F8D142F6807C07F03F0EC2F2000C0CEB88
:105030000E1907F4707459F80C5F48EA84376C0154
:1050400066D405F0004659E8004F3E43AC4246F0B6
:10505000406607D149E8006535B9BFF35F8F012588
:1050600035B101E3BFF32F8F0025002D40F0FC8206
:1050700065014DD404F0004659E8005F3E43A54267
:1050800046F0406608D149E800643CB9BFF35F8F41
:1050900001243CB1E8E200BFBFF32F8F0024002CB5
:1050A00040F0E2826C0133D405F0004659E8004F2D
:1050B0003E43AC4246F0406608D149E800653DB940
:1050C000BFF35F8F01253DB1CEE200BFBFF32F8F4D
:1050D0000025002D40F0C882650119D404F0004677
:1050E00059E8005F3E43A54246F0406608D149E8D2
:1050F00000643CB9BFF35F8F0124002C9FD0B3E262
:10510000BFF32F8F0024002C3FF499AFACE200BF17
:1051100050E8014F671C40E80176002EF8D104F0FA
:105120003F0E0CEB0E1904F4707459F80C5F48EA4A
:1051300084376C015ED405F0004659E8004F3E43C9
:10514000AC4246F0406607D149E8006535B9BFF387
:105150005F8F012503E000BFBFF32F8F0025002DD7
:1051600040F08282650145D404F0004659E8005FB2
:105170003E43A54246F0406606D149E800642CB99A
:10518000BFF35F8F012402E0BFF32F8F0024002CB8
:1051900040F06A826C012DD405F0004659E8004FBA
:1051A0003E43AC4246F0406606D149E800652DB961
:1051B000BFF35F8F012502E0BFF32F8F0025002D85
:1051C00040F05282650115D404F0004659E8005FB2
:1051D0003E43A54246F0406606D149E800642CB93A
:1051E000BFF35F8F012402E0BFF32F8F0024002C58
:1051F0009FD039E250E8014F671C40E80176002E4D
:10520000F8D104F03F0E0CEB0E1904F4707459F849
:105210000C5F48EA84376C015ED405F0004659E81B
:10522000004F3E43AC4246F0406607D149E8006576
:1052300035B9BFF35F8F012503E000BFBFF32F8FA8
:105240000025002D40F01082650145D404F0004691
:1052500059E8005F3E43A54246F0406606D149E862
:1052600000642CB9BFF35F8F012402E0BFF32F8FDE
:105270000024002C40F0F8816C012DD405F000468C
:1052800059E8004F3E43AC4246F0406606D149E83B
:1052900000652DB9BFF35F8F012502E0BFF32F8FAB
:1052A0000025002D40F0E081650115D404F0004692
:1052B00059E8005F3E43A54246F0406606D149E802
:1052C00000642CB9BFF35F8F012402E0BFF32F8F7E
:1052D0000024002C9FD0C7E150E8014F671C40E834
:1052E0000176002EF8D104F03F0E0CEB0E1904F4F9
:1052F000707459F80C5F48EA84376C015ED405F08D
:10530000004659E8004F3E43AC4246F0406607D1A4
:1053100049E8006535B9BFF35F8F012503E000BFA1
:10532000BFF32F8F0025002D40F09E81650145D4ED
:1053300004F0004659E8005F3E43A54246F040664F
:1053400006D149E800642CB9BFF35F8F012402E065
:10535000BFF32F8F0024002C40F086816C012DD4E8
:1053600005F0004659E8004F3E43AC4246F0406627
:1053700006D149E800652DB9BFF35F8F012502E032
:10538000BFF32F8F0025002D40F06E81650115D4ED
:1053900004F0004659E8005F3E43A54246F04066EF
:1053A00006D149E800642CB9BFF35F8F012402E005
:1053B000BFF32F8F0024002C9FD055E150E8014F00
:1053C000671C40E80176002EF8D104F03F0E0CEB8C
:1053D0000E1904F4707459F80C5F48EA84376C01B4
:1053E0005ED405F0004659E8004F3E43AC4246F01B
:1053F000406606D149E800652DB9BFF35F8F0125EE
:1054000002E0BFF32F8F0025002D40F02D816501B4
:1054100046D404F0004659E8005F3E43A54246F0FA
:10542000406606D149E800642CB9BFF35F8F0124C0
:1054300002E0BFF32F8F0024002C40F015816C0197
:105440002ED405F0004659E8004F3E43AC4246F0EA
:10545000406606D149E800652DB9BFF35F8F01258D
:1054600002E0BFF32F8F0025002D40F0FD80650185
:1054700016D404F0004659E8005F3E43A54246F0CA
:10548000406606D149E800642CB9BFF35F8F012460
:1054900002E0BFF32F8F0024002CA0D0E4E000BF77
:1054A00050E8014F671C40E80176002EF8D104F067
:1054B0003F0E0CEB0E1904F4707459F80C5F48EAB7
:1054C00084376C015ED405F0004659E8004F3E4336
:1054D000AC4246F0406606D149E800652DB9BFF3FD
:1054E0005F8F012502E0BFF32F8F0025002D40F0D4
:1054F000BB80650146D404F0004659E8005F3E4396
:10550000A54246F0406606D149E800642CB9BFF3D5
:105510005F8F012402E0BFF32F8F0024002C40F0A6
:10552000A3806C012ED405F0004659E8004F3E439D
:10553000AC4246F0406606D149E800652DB9BFF39C
:105540005F8F012502E0BFF32F8F0025002D40F073
:105550008B80650116D404F0004659E8005F3E4395
:10556000A54246F0406606D149E800642CB9BFF375
:105570005F8F012402E0BFF32F8F0024002CA0D006
:1055800072E000BF50E8014F671C40E80176002E32
:10559000F8D104F03F0E0CEB0E1904F4707459F8B6
:1055A0000C7F48EA843800F10C057C0100F183800F
:1055B00007F0004659E8004F46EA0806BC4246F0AC
:1055C000406606D149E800672FB9BFF35F8F012716
:1055D00002E0BFF32F8F0027002F45D166016AD468
:1055E00004F0004659E8007F46EA0806A74246F064
:1055F000406606D149E800642CB9BFF35F8F0124EF
:1056000002E0BFF32F8F002474BB7C0153D407F05A
:10561000004659E8004F46EA0806BC4246F040669C
:1056200006D149E800672FB9BFF35F8F012702E079
:10563000BFF32F8F0027BFB966013CD404F00046AA
:1056400059E8007F46EA0806A74246F0406606D1C0
:1056500049E800642CB9BFF35F8F012402E0BFF377
:105660002F8F0024002CA0D086F0004404F00045C9
:1056700021F0004129444FEA0E174CF8071022F0A0
:10568000004123F000420CEB0E1629442A44C6E9DF
:10569000011224F08061BFF35F8FC9F8001000F1A0
:1056A0000805012055E8001F013145E80012002AD5
:1056B000F8D1BDE8F0830020F4E700002DE9F04FB9
:1056C000E3B040F2F017C2F200073878032800F286
:1056D000CC87DFE810F00400CD070F00A10740F2EF
:1056E000D320C2F200000078002801F03C840120A1
:1056F00001F035BC40F2D220C2F2000000784EF634
:105700000143C0F6010310F001024EF2000103F163
:10571000050003F10706C0F6010108BF881D08BF98
:1057200001F1080603F10905002A03F10B0408BF83
:1057300001F10A0508BF01F10C0403F1CF0B002AA7
:1057400003F10D0A08BF01F1D00B08BF01F10E0AE9
:1057500003F10F09002A03F1110803F1130708BF31
:1057600001F1100908BF01F11208002A08BF01F178
:105770001407019703F1150708BF01F116070297F7
:1057800003F11707002A08BF01F11807039703F177
:10579000190708BF01F11A07049703F11B07002A34
:1057A00008BF01F11C07059703F11D0708BF01F1B0
:1057B0001E07069703F11F07002A08BF01F1200703
:1057C000079703F1210708BF01F12207089703F1AA
:1057D0002307002A08BF01F12407099703F12507D1
:1057E00008BF01F126070A9703F12707002A08BF1F
:1057F00001F128070B9703F1290708BF01F12A07D8
:105800000C9703F12B07002A08BF01F12C070D9715
:1058100003F12D0708BF01F12E070E9703F12F07A3
:10582000002A08BF01F130070F9703F1310708BFC5
:1058300001F13207109703F13307002A08BF01F185
:105840003407119703F1350708BF01F136071297A6
:1058500003F13707002A08BF01F13807139703F156
:10586000390708BF01F13A07149703F13B07002AF3
:1058700008BF01F13C07159703F13D0708BF01F18F
:105880003E07169703F13F07002A08BF01F14007C2
:10589000179703F1410708BF01F14207189703F179
:1058A0004307002A08BF01F14407199703F1450790
:1058B00008BF01F146071A9703F14707002A08BFFE
:1058C00001F148071B9703F1490708BF01F14A0797
:1058D0001C9703F14B07002A08BF01F14C071D97E5
:1058E00003F14D0708BF01F14E071E9703F14F0763
:1058F000002A08BF01F150071F9703F1510708BFA5
:1059000001F15207209703F15307002A08BF01F164
:105910005407219703F1550708BF01F15607229755
:1059200003F15707002A08BF01F15807239703F135
:10593000590708BF01F15A07249703F15B07002AB2
:1059400008BF01F15C07259703F15D0708BF01F16E
:105950005E07269703F15F07002A08BF01F1600781
:10596000279703F1610708BF01F16207289703F148
:105970006307002A08BF01F16407299703F165074F
:1059800008BF01F166072A9703F16707002A08BFDD
:1059900001F168072B9703F1690708BF01F16A0756
:1059A0002C9703F16B07002A08BF01F16C072D97B4
:1059B00003F16D0708BF01F16E072E9703F16F0722
:1059C000002A08BF01F170072F9703F1710708BF84
:1059D00001F17207309703F17307002A08BF01F144
:1059E0007407319703F1750708BF01F17607329705
:1059F00003F17707002A08BF01F17807339703F115
:105A0000790708BF01F17A07349703F17B07002A71
:105A100008BF01F17C07359703F17D0708BF01F14D
:105A20007E07369703F17F07002A08BF01F1800740
:105A3000379703F1810708BF01F18207389703F117
:105A40008307002A08BF01F18407399703F185070E
:105A500008BF01F186073A9703F18707002A08BFBC
:105A600001F188073B9703F1890708BF01F18A0715
:105A70003C9703F18B07002A08BF01F18C073D9783
:105A800003F18D0708BF01F18E073E9703F18F07E1
:105A9000002A08BF01F190073F9703F1910708BF63
:105AA00001F19207409703F19307002A08BF01F123
:105AB0009407419703F1950708BF01F196074297B4
:105AC00003F19707002A08BF01F19807439703F1F4
:105AD000990708BF01F19A07449703F19B07002A31
:105AE00008BF01F19C07459703F19D0708BF01F12D
:105AF0009E07469703F19F07002A08BF01F1A00700
:105B0000479703F1A10708BF01F1A207489703F1E6
:105B1000A307002A08BF01F1A407499703F1A507CD
:105B200008BF01F1A6074A9703F1A707002A08BF9B
:105B300001F1A8074B9703F1A90708BF01F1AA07D4
:105B40004C9703F1AB07002A08BF01F1AC074D9752
:105B500003F1AD0708BF01F1AE074E9703F1AF07A0
:105B6000002A08BF01F1B0074F9703F1B10708BF42
:105B700001F1B207509703F1B307002A08BF01F102
:105B8000B407519703F1B50708BF01F1B607529763
:105B900003F1B707002A08BF01F1B807539703F1D3
:105BA000B90708BF01F1BA07549703F1BB07002AF0
:105BB00008BF01F1BC07559703F1BD0708BF01F10C
:105BC000BE07569703F1BF07002A08BF01F1C007BF
:105BD000579703F1C10708BF01F1C207589703F1B6
:105BE000C307002A08BF01F1C407599703F1C5078D
:105BF00008BF01F1C6075A9703F1C707002A08BF7B
:105C000001F1C8075B9703F1C90708BF01F1CA0793
:105C10005C9703F1CB07002A08BF01F1CC075D9721
:105C200003F1CD0708BF01F1CE075E97002A03F10B
:105C3000D30241F2681708BF01F1D402C2F2000793
:105C40005F9297F9282003F1D50308BF01F1D6032D
:105C500091B2609309F010FB798C304609F00CFB8F
:105C6000B98C284609F008FBB7F86E10204609F0F9
:105C700003FB97F83010584609F0FEFA97F83110F8
:105C8000504609F0F9FA97F83210484609F0F4FA4C
:105C900097F83310404609F0EFFA97F8341001985E
:105CA00009F0EAFA97F83510029809F0E5FA97F842
:105CB0003610039809F0E0FA97F83810049809F0C4
:105CC000DBFA97F83910059809F0D6FA97F83B10E7
:105CD000069809F0D1FA97F83C10079809F0CCFA29
:105CE000B7F87610089809F0C7FAB7F8781009984D
:105CF00009F0C2FAB7F87A100A9809F0BDFAB7F8B5
:105D00007C100B9809F0B8FAB7F87E100C9809F0DF
:105D1000B3FAB7F880100D9809F0AEFAB7F8821010
:105D20000E9809F0A9FAB7F884100F9809F0A4FAB0
:105D3000B7F88610109809F09FFAB7F888101198F4
:105D400009F09AFAB7F88A10129809F095FAB7F89C
:105D50008C10139809F090FAB7F88E10149809F087
:105D60008BFAB7F89010159809F086FAB7F89210E8
:105D7000169809F081FAB7F89410179809F07CFA90
:105D8000B7F89610189809F077FAB7F8981019989C
:105D900009F072FAB7F89A101A9809F06DFAB7F884
:105DA0009C101B9809F068FAB7F89E101C9809F02F
:105DB00063FAB7F8A0101D9809F05EFAB7F8A210C0
:105DC0001E9809F059FAB7F8A4101F9809F054FA70
:105DD000B7F8A610209809F04FFAB7F8A810219844
:105DE00009F04AFAB7F8AA10229809F045FAB7F86C
:105DF000AC10239809F040FAB7F8AE10249809F0D7
:105E00003BFAB7F8B010259809F036FAB7F8B21097
:105E1000269809F031FAB7F8B410279809F02CFA4F
:105E2000B7F8B610289809F027FAB7F8B8102998EB
:105E300009F022FAB7F8BA102A9809F01DFAB7F853
:105E4000BC102B9809F018FAB7F8BE102C9809F07E
:105E500013FAB7F8C0102D9809F00EFAB7F8C2106F
:105E60002E9809F009FAB7F8C4102F9809F004FA2F
:105E7000B7F8C610309809F0FFF9B7F8C810319894
:105E800009F0FAF9B7F8CA10329809F0F5F9B7F83D
:105E9000CC10339809F0F0F9B7F8CE10349809F027
:105EA000EBF9B7F8D010359809F0E6F9B7F8D21049
:105EB000369809F0E1F9B7F8D410379809F0DCF911
:105EC000B7F8D610389809F0D7F9B7F8D81039983C
:105ED00009F0D2F9B7F8DA103A9809F0CDF9B7F825
:105EE000DC103B9809F0C8F9B7F8DE103C9809F0CF
:105EF000C3F9B7F8E0103D9809F0BEF9B7F8E21021
:105F00003E9809F0B9F9B7F8E4103F9809F0B4F9F0
:105F1000B7F8E610409809F0AFF9B7F8E8104198E3
:105F200009F0AAF9B7F8EA10429809F0A5F9B7F80C
:105F3000EC10439809F0A0F9B7F8EE10449809F076
:105F40009BF9B7F8F010459809F096F9B7F8F210F8
:105F5000469809F091F9B7F8F410479809F08CF9D0
:105F6000B7F8F610489809F087F9B7F8F81049988B
:105F700009F082F9B7F8FA104A9809F07DF9B7F8F4
:105F8000FC104B9809F078F9B7F8FE104C9809F01E
:105F900073F9B7F800114D9809F06EF9B7F80211CE
:105FA0004E9809F069F9B7F804114F9809F064F9AF
:105FB000B7F80611509809F05FF9B7F80811519831
:105FC00009F05AF9B7F80A11529809F055F9B7F8DB
:105FD0000C11539809F050F9B7F80E11549809F0C4
:105FE0004BF9B7F81011559809F046F9B7F81211A6
:105FF000569809F041F9B7F81411579809F03CF98F
:10600000B7F81611589809F037F9B7F818115998D8
:1060100009F032F9B7F81A115A9809F02DF9B7F8C2
:106020001C115B9809F028F9B7F81E115C9809F06B
:1060300023F9B7F820115D9809F01EF9B7F822117D
:106040005E9809F019F9B7F828115F9809F014F96A
:10605000B7F83011609809F00FF997F9280040F26D
:10606000F811C2F200010880788C40F2FA11C2F2F5
:1060700000010880B88C40F2FC11C2F200010880D7
:10608000B7F86E0040F2FE11C2F20001088040F243
:10609000002097F83010C2F2000097F8312001700C
:1060A00040F20120C2F2000097F83230027040F254
:1060B0000220C2F2000097F83360037040F2032020
:1060C000C2F20000067097F8340040F20421C2F2D8
:1060D0000001087097F8350040F20521C2F2000176
:1060E000087040F2062097F83610C2F2000097F8C8
:1060F0003820017040F20720C2F2000097F83930D2
:10610000027040F20820C2F2000097F83B60037072
:1061100040F20920C2F20000067097F83C0040F2FD
:106120000A21C2F200010870B7F8760040F20C2193
:10613000C2F200010880B7F8780040F20E21C2F2E6
:1061400000010880B7F87A0040F21021C2F2000185
:106150000880B7F87C0040F21221C2F200010880EA
:10616000B7F87E0040F21421C2F200010880B7F8AF
:10617000800040F21621C2F200010880B7F88200C8
:1061800040F21821C2F200010880B7F8840040F202
:106190001A21C2F200010880B7F8860040F21C21E3
:1061A000C2F200010880B7F8880040F21E21C2F256
:1061B00000010880B7F88A0040F22021C2F20001F5
:1061C0000880B7F88C0040F22221C2F2000108805A
:1061D000B7F88E0040F22421C2F200010880B7F81F
:1061E000900040F22621C2F200010880B7F8920028
:1061F00040F22821C2F200010880B7F8940040F272
:106200002A21C2F200010880B7F8960040F22C2142
:10621000C2F200010880B7F8980040F22E21C2F2C5
:1062200000010880B7F89A0040F23021C2F2000164
:106230000880B7F89C0040F23221C2F200010880C9
:10624000B7F89E0040F23421C2F200010880B7F88E
:10625000A00040F23621C2F200010880B7F8A20087
:1062600040F23821C2F200010880B7F8A40040F2E1
:106270003A21C2F200010880B7F8A60040F23C21A2
:10628000C2F200010880B7F8A80040F23E21C2F235
:1062900000010880B7F8AA0040F24021C2F20001D4
:1062A0000880B7F8AC0040F24221C2F20001088039
:1062B000B7F8AE0040F24421C2F200010880B7F8FE
:1062C000B00040F24621C2F200010880B7F8B200E7
:1062D00040F24821C2F200010880B7F8B40040F251
:1062E0004A21C2F200010880B7F8B60040F24C2102
:1062F000C2F200010880B7F8B80040F24E21C2F2A5
:1063000000010880B7F8BA0040F25021C2F2000143
:106310000880B7F8BC0040F25221C2F200010880A8
:10632000B7F8BE0040F25421C2F200010880B7F86D
:10633000C00040F25621C2F200010880B7F8C20046
:1063400040F25821C2F200010880B7F8C40040F2C0
:106350005A21C2F200010880B7F8C60040F25C2161
:10636000C2F200010880B7F8C80040F25E21C2F214
:1063700000010880B7F8CA0040F26021C2F20001B3
:106380000880B7F8CC0040F26221C2F20001088018
:10639000B7F8CE0040F26421C2F200010880B7F8DD
:1063A000D00040F26621C2F200010880B7F8D200A6
:1063B00040F26821C2F200010880B7F8D40040F230
:1063C0006A21C2F200010880B7F8D60040F26C21C1
:1063D000C2F200010880B7F8D80040F26E21C2F284
:1063E00000010880B7F8DA0040F27021C2F2000123
:1063F0000880B7F8DC0040F27221C2F20001088088
:10640000B7F8DE0040F27421C2F200010880B7F84C
:10641000E00040F27621C2F200010880B7F8E20005
:1064200040F27821C2F200010880B7F8E40040F29F
:106430007A21C2F200010880B7F8E60040F27C2120
:10644000C2F200010880B7F8E80040F27E21C2F2F3
:1064500000010880B7F8EA0040F28021C2F2000192
:106460000880B7F8EC0040F28221C2F200010880F7
:10647000B7F8EE0040F28421C2F200010880B7F8BC
:10648000F00040F28621C2F200010880B7F8F20065
:1064900040F28821C2F200010880B7F8F40040F20F
:1064A0008A21C2F200010880B7F8F60040F28C2180
:1064B000C2F200010880B7F8F80040F28E21C2F263
:1064C00000010880B7F8FA0040F29021C2F2000102
:1064D0000880B7F8FC0040F29221C2F20001088067
:1064E000B7F8FE0040F29421C2F200010880B7F82C
:1064F000000140F29621C2F200010880B7F80201C3
:1065000040F29821C2F200010880B7F8040140F27D
:106510009A21C2F200010880B7F8060140F29C21DE
:10652000C2F200010880B7F8080140F29E21C2F2D1
:1065300000010880B7F80A0140F2A021C2F2000170
:106540000880B7F80C0140F2A221C2F200010880D5
:10655000B7F80E0140F2A421C2F200010880B7F89A
:10656000100140F2A621C2F200010880B7F8120122
:1065700040F2A821C2F200010880B7F8140140F2ED
:10658000AA21C2F200010880B7F8160140F2AC213E
:10659000C2F200010880B7F8180140F2AE21C2F241
:1065A00000010880B7F81A0140F2B021C2F20001E0
:1065B0000880B7F81C0140F2B221C2F20001088045
:1065C000B7F81E0140F2B421C2F200010880B7F80A
:1065D000200140F2B621C2F200010880B7F8220182
:1065E00040F2B821C2F2000107F5947308800FCB86
:1065F00040F2C027C2F20007C7E9000140F2F017DD
:10660000C2F2000740F2C8203978C2F20000C0E9A7
:106610000023481C00F0A3BC40F2D22440F2D02555
:10662000C2F20004C2F200054EF601402278298829
:10663000C0F601004EF20003D730C0F60103D207C6
:1066400008BF03F1D80008F017FE42F20400C4F2BC
:106650000200C16841F08001C160288821780130C2
:106660002880481C20700020387063B0BDE8F08F8F
:1066700040F2F21A41F2681BC2F2000AC2F2000BA9
:10668000BAF80000BBF8101040F2F41940F2F61806
:106690008842C2F20009C2F2000840F01784B9F83B
:1066A00000009BF81610884240F01084B8F80000F3
:1066B0009BF81810884240F0098440F2F810C2F2AA
:1066C000000000889BF92810884240F0FF8340F2C8
:1066D000FA10C2F200000088BBF82210884240F095
:1066E000F58340F2FC10C2F200000088BBF82410D1
:1066F000884240F0EB8340F2FE10C2F200000088B6
:10670000BBF86E10884240F0E18340F20020C2F2F4
:10671000000000789BF83010884240F0D78340F2A8
:106720000120C2F2000000789BF83110884240F04E
:10673000CD8340F20220C2F2000000789BF83210B4
:10674000884240F0C38340F20320C2F20000007888
:106750009BF83310884240F0B98340F20420C2F223
:10676000000000789BF83410884240F0AF8340F27C
:106770000520C2F2000000789BF83510884240F0F6
:10678000A58340F20620C2F2000000789BF8361084
:10679000884240F09B8340F20720C2F2000000785C
:1067A0009BF83810884240F0918340F20820C2F2F2
:1067B000000000789BF83910884240F0878340F24F
:1067C0000920C2F2000000789BF83B10884240F09C
:1067D0007D8340F20A20C2F2000000789BF83C1052
:1067E000884240F0738340F20C20C2F2000000881F
:1067F000BBF87610884240F0698340F20E20C2F266
:1068000000000088BBF87810884240F05F8340F2B7
:106810001020C2F200000088BBF87A10884240F0D5
:10682000558340F21220C2F200000088BBF87C10B1
:10683000884240F04B8340F21420C2F200000088EE
:10684000BBF87E10884240F0418340F21620C2F22D
:1068500000000088BBF88010884240F0378340F287
:106860001820C2F200000088BBF88210884240F075
:106870002D8340F21A20C2F200000088BBF8841079
:10688000884240F0238340F21C20C2F200000088BE
:10689000BBF88610884240F0198340F21E20C2F2F5
:1068A00000000088BBF88810884240F00F8340F257
:1068B0002020C2F200000088BBF88A10884240F015
:1068C000058340F22220C2F200000088BBF88C1041
:1068D000884240F0FB8240F22420C2F2000000888F
:1068E000BBF88E10884240F0F18240F22620C2F2BE
:1068F00000000088BBF89010884240F0E78240F228
:106900002820C2F200000088BBF89210884240F0B4
:10691000DD8240F22A20C2F200000088BBF8941009
:10692000884240F0D38240F22C20C2F2000000885E
:10693000BBF89610884240F0C98240F22E20C2F285
:1069400000000088BBF89810884240F0BF8240F2F7
:106950003020C2F200000088BBF89A10884240F054
:10696000B58240F23220C2F200000088BBF89C10D1
:10697000884240F0AB8240F23420C2F2000000882E
:10698000BBF89E10884240F0A18240F23620C2F24D
:1069900000000088BBF8A010884240F0978240F2C7
:1069A0003820C2F200000088BBF8A210884240F0F4
:1069B0008D8240F23A20C2F200000088BBF8A41099
:1069C000884240F0838240F23C20C2F200000088FE
:1069D000BBF8A610884240F0798240F23E20C2F215
:1069E00000000088BBF8A810884240F06F8240F297
:1069F0004020C2F200000088BBF8AA10884240F094
:106A0000658240F24220C2F200000088BBF8AC1060
:106A1000884240F05B8240F24420C2F200000088CD
:106A2000BBF8AE10884240F0518240F24620C2F2DC
:106A300000000088BBF8B010884240F0478240F266
:106A40004820C2F200000088BBF8B210884240F033
:106A50003D8240F24A20C2F200000088BBF8B41028
:106A6000884240F0338240F24C20C2F2000000889D
:106A7000BBF8B610884240F0298240F24E20C2F2A4
:106A800000000088BBF8B810884240F01F8240F236
:106A90005020C2F200000088BBF8BA10884240F0D3
:106AA000158240F25220C2F200000088BBF8BC10F0
:106AB000884240F00B8240F25420C2F2000000886D
:106AC000BBF8BE10884240F0018240F25620C2F26C
:106AD00000000088BBF8C010884240F0F78140F207
:106AE0005820C2F200000088BBF8C210884240F073
:106AF000ED8140F25A20C2F200000088BBF8C410B9
:106B0000884240F0E38140F25C20C2F2000000883D
:106B1000BBF8C610884240F0D98140F25E20C2F234
:106B200000000088BBF8C810884240F0CF8140F2D6
:106B30006020C2F200000088BBF8CA10884240F012
:106B4000C58140F26220C2F200000088BBF8CC1080
:106B5000884240F0BB8140F26420C2F2000000880D
:106B6000BBF8CE10884240F0B18140F26620C2F2FC
:106B700000000088BBF8D010884240F0A78140F2A6
:106B80006820C2F200000088BBF8D210884240F0B2
:106B90009D8140F26A20C2F200000088BBF8D41048
:106BA000884240F0938140F26C20C2F200000088DD
:106BB000BBF8D610884240F0898140F26E20C2F2C4
:106BC00000000088BBF8D810884240F07F8140F276
:106BD0007020C2F200000088BBF8DA10884240F052
:106BE000758140F27220C2F200000088BBF8DC1010
:106BF000884240F06B8140F27420C2F200000088AD
:106C0000BBF8DE10884240F0618140F27620C2F28B
:106C100000000088BBF8E010884240F0578140F245
:106C20007820C2F200000088BBF8E210884240F0F1
:106C30004D8140F27A20C2F200000088BBF8E410D7
:106C4000884240F0438140F27C20C2F2000000887C
:106C5000BBF8E610884240F0398140F27E20C2F253
:106C600000000088BBF8E810884240F02F8140F215
:106C70008020C2F200000088BBF8EA10884240F091
:106C8000258140F28220C2F200000088BBF8EC109F
:106C9000884240F01B8140F28420C2F2000000884C
:106CA000BBF8EE10884240F0118140F28620C2F21B
:106CB00000000088BBF8F010884240F0078140F2E5
:106CC0008820C2F200000088BBF8F210884240F031
:106CD000FD8040F28A20C2F200000088BBF8F41068
:106CE000884240F0F38040F28C20C2F2000000881D
:106CF000BBF8F610884240F0E98040F28E20C2F2E4
:106D000000000088BBF8F810884240F0DF8040F2B5
:106D10009020C2F200000088BBF8FA10884240F0D0
:106D2000D58040F29220C2F200000088BBF8FC102F
:106D3000884240F0CB8040F29420C2F200000088EC
:106D4000BBF8FE10884240F0C18040F29620C2F2AB
:106D500000000088BBF80011884240F0B78040F284
:106D60009820C2F200000088BBF80211884240F06F
:106D7000AD8040F29A20C2F200000088BBF80411F6
:106D8000884240F0A38040F29C20C2F200000088BC
:106D9000BBF80611884240F0998040F29E20C2F272
:106DA00000000088BBF80811884240F08F8040F254
:106DB000A020C2F200000088BBF80A11884240F00F
:106DC000858040F2A220C2F200000088BBF80C11BE
:106DD00088427BD140F2A420C2F200000088BBF8B8
:106DE0000E11884272D140F2A620C2F20000008843
:106DF000BBF81011884269D140F2A820C2F200000D
:106E00000088BBF81211884260D140F2AA20C2F279
:106E100000000088BBF81411884257D140F2AC2022
:106E2000C2F200000088BBF8161188424ED140F231
:106E3000AE20C2F200000088BBF81811884245D18C
:106E400040F2B020C2F200000088BBF81A1188425C
:106E50003CD140F2B220C2F200000088BBF81C1105
:106E6000884233D140F2B420C2F200000088BBF85F
:106E70001E1188422AD140F2B620C2F200000088DA
:106E8000BBF82011884221D140F2B820C2F20000A4
:106E90000088BBF82211884218D140F2C020C2F20B
:106EA0000000D0E90001DBE94A2359405040084383
:106EB0000CD140F2C820C2F20000D0E90001DBE9A9
:106EC0004C235940504008433FF4CFAB42F20400FA
:106ED00040F22311C4F20200C4F26751016048F687
:106EE000AB11CCF6EF51016040F2D220C2F20000AB
:106EF00000784EF2000610F001014EF60141C0F696
:106F00000101C0F6010601F1010401F1030508BF0A
:106F1000B41C08BF351D60F38A2660F3CB263046CB
:106F200008F0FEF9BBF81010304608F0A5F99BF800
:106F30001610204608F0A0F99BF81810284608F013
:106F40009BF9BBF810009BF81810AAF800009BF8FA
:106F50001600A8F80010A9F8000038780130387041
:106F600063B0BDE8F08F4EF200024FF66F604EF650
:106F70000143C0F6010200F5C870C0F60103002706
:106F800002F5406180B200BF47EA010636688DF81D
:106F9000886147EA030636688DF889619DF8896142
:106FA0009DF8885145EA0626ADF88A61BDF88A61E8
:106FB000ADF88661BDF88661864203D06B2F07F17C
:106FC0000207E1D3BDF88671874224D00027561C02
:106FD00047EA02052D688DF8885147EA06052D68B5
:106FE0008DF889519DF889519DF8884144EA05251D
:106FF000ADF88A51BDF88A51ADF88651BDF8865179
:10700000854203D06B2F07F10207E1D3BDF88671EB
:10701000874240F0FA80002747EA010636688DF87B
:10702000886147EA030636688DF889619DF88961B1
:107030009DF8885145EA0626ADF88A61BDF88A6157
:10704000ADF88661BDF88661864203D06B2F07F1EB
:107050000207E1D3BDF88611814240F00281002190
:10706000531C00BF41EA02073F688DF8887141EA6E
:1070700003073F688DF889719DF889719DF88861D3
:1070800046EA0727ADF88A71BDF88A71ADF88671B6
:10709000BDF88671874203D06B2901F10201E1D36B
:1070A000BDF88611814241F0128141F2681032220E
:1070B000C2F20000C0F23C02C0F822201E22A0F85A
:1070C0006E204FF00132C0F83220012280F83620C5
:1070D0004FF48032826340F22C12C0F22802C0F8D2
:1070E00076201E22C0F24012C0F87A202D22C0F273
:1070F0002802C0F87E2040F25E12C0F23202C0F8D0
:1071000082203222C0F27C124FF49671C0F88620A1
:10711000502201822821C0F23C021423817564218F
:10712000C0F88A2040F26E0C3C263222C8270A257D
:107130000A24C0F23C0301760021C0F2140CC0F214
:10714000C806C0F20A02C0F23207C0F2C805C0F297
:107150006E04C0F8AE30C0F8EA300A2380F8281078
:107160000186C0F88EC0C0F89260C0F89620C0F8C2
:107170009A70C0F89E50C0F8A220C0F8A670C0F85F
:10718000AA40C0F8B270C0F8B650C0F8BA20C0F833
:10719000BE70C0F8C250C0F8C620C0F8CAC0C0F85F
:1071A000CE60C0F8D220C0F8D670C0F8DA50C0F86F
:1071B000DE20C0F8E270C0F8E640C0F8EE70C0F81B
:1071C000F250C0F8F620C0F8FA70C0F8FE50C0F8CF
:1071D0000221C0F806C1C0F80A61C0F80E21C0F84B
:1071E0001271C0F81651C0F81A21C0F81E71A0F82B
:1071F0002231C0E94A11C0E94C11C8200A220A9084
:1072000032200892099002F096B8D3F8D700D3F84C
:10721000D8108DF889018DF886119DF886019DF8AA
:10722000891141EA0020ADF88A01BDF88A0140F2D7
:10723000D421C2F200010880D2F8D810D2F8D97057
:107240008DF889118DF886719DF886119DF88971E8
:1072500047EA0121ADF88A11BDF88A11884241F24E
:107260003680D2F8000C8DF8890118688DF88601F7
:107270009DF886019DF8891141EA0020ADF88A0148
:10728000BDF88A1141F26810C2F200000182D3F801
:107290000110D3F802208DF889118DF886219DF810
:1072A00086119DF8892142EA0121ADF88A11BDF8C5
:1072B0008A118175D3F803105A688DF889118DF8F9
:1072C00086219DF886119DF8892142EA0121ADF8B9
:1072D0008A11BDF88A110176D3F80510D3F806207B
:1072E0008DF889118DF886219DF886119DF88921E8
:1072F00042EA0121ADF88A11BDF88A1180F8281000
:10730000D3F807109A688DF889118DF886219DF8B9
:1073100086119DF8892142EA0121ADF88A11BDF854
:107320008A114184D3F80910D3F80A208DF8891105
:107330008DF886219DF886119DF8892142EA012168
:10734000ADF88A11BDF88A118184D3F8CF10D3F833
:10735000D0208DF889118DF886219DF886119DF831
:10736000892142EA0121ADF88A11BDF88A1180F81D
:107370003010D3F80B10DA688DF889118DF886215A
:107380009DF886119DF8892142EA0121ADF88A1104
:10739000BDF88A11A0F86E10D3F80D10D3F80E20A6
:1073A0008DF889118DF886219DF886119DF8892127
:1073B00042EA0121ADF88A11BDF88A1180F8311036
:1073C000D3F80F101A698DF889118DF886219DF870
:1073D00086119DF8892142EA0121ADF88A11BDF894
:1073E0008A1180F83210D3F81110D3F812208DF8DA
:1073F00089118DF886219DF886119DF8892142EA30
:107400000121ADF88A11BDF88A1180F83310D3F844
:1074100013105A698DF889118DF886219DF886110F
:107420009DF8892142EA0121ADF88A11BDF88A113F
:1074300080F83410D3F81510D3F816208DF8891180
:107440008DF886219DF886119DF8892142EA012157
:10745000ADF88A11BDF88A1180F83510D3F81710ED
:107460009A698DF889118DF886219DF886119DF80D
:10747000892142EA0121ADF88A11BDF88A1180F80C
:107480003610D3F81910D3F81A208DF889118DF819
:1074900086219DF886119DF8892142EA0121ADF8E7
:1074A0008A11BDF88A1180F83810D3F81B10DA69F8
:1074B0008DF889118DF886219DF886119DF8892116
:1074C00042EA0121ADF88A11BDF88A1180F839101D
:1074D000D3F81D10D3F81E208DF889118DF8862160
:1074E0009DF886119DF8892142EA0121ADF88A11A3
:1074F000BDF88A1180F83B10D3F81F101A6A8DF876
:1075000089118DF886219DF886119DF8892142EA1E
:107510000121ADF88A11BDF88A1180F83C10D3F82A
:107520002110D3F822208DF889118DF886219DF83D
:1075300086119DF8892142EA0121ADF88A11BDF832
:107540008A11A0F87610D3F823105A6A8DF88911A1
:107550008DF886219DF886119DF8892142EA012146
:10756000ADF88A11BDF88A11A0F87810D3F825106B
:10757000D3F826208DF889118DF886219DF8861183
:107580009DF8892142EA0121ADF88A11BDF88A11DE
:10759000A0F87A10D3F827109A6A8DF889118DF81F
:1075A00086219DF886119DF8892142EA0121ADF8D6
:1075B0008A11BDF88A11A0F87C10D3F82910D3F8ED
:1075C0002A208DF889118DF886219DF886119DF865
:1075D000892142EA0121ADF88A11BDF88A11A0F88B
:1075E0007E10D3F82B10DA6A8DF889118DF8862178
:1075F0009DF886119DF8892142EA0121ADF88A1192
:10760000BDF88A11A0F88010D3F82D10D3F82E20E1
:107610008DF889118DF886219DF886119DF88921B4
:1076200042EA0121ADF88A11BDF88A11A0F8821052
:10763000D3F82F101A6B8DF889118DF886219DF8DB
:1076400086119DF8892142EA0121ADF88A11BDF821
:107650008A11A0F88410D3F83110D3F832208DF8B5
:1076600089118DF886219DF886119DF8892142EABD
:107670000121ADF88A11BDF88A11A0F88610D3F85F
:1076800033105A6B8DF889118DF886219DF886117B
:107690009DF8892142EA0121ADF88A11BDF88A11CD
:1076A000A0F88810D3F83510D3F836208DF889115A
:1076B0008DF886219DF886119DF8892142EA0121E5
:1076C000ADF88A11BDF88A11A0F88A10D3F83710E6
:1076D0009A6B8DF889118DF886219DF886119DF899
:1076E000892142EA0121ADF88A11BDF88A11A0F87A
:1076F0008C10D3F83910D3F83A208DF889118DF811
:1077000086219DF886119DF8892142EA0121ADF874
:107710008A11BDF88A11A0F88E10D3F83B10DA6BED
:107720008DF889118DF886219DF886119DF88921A3
:1077300042EA0121ADF88A11BDF88A11A0F8901033
:10774000D3F83D10D3F83E208DF889118DF88621AD
:107750009DF886119DF8892142EA0121ADF88A1130
:10776000BDF88A11A0F89210D3F83F101A6C8DF86A
:1077700089118DF886219DF886119DF8892142EAAC
:107780000121ADF88A11BDF88A11A0F89410D3F840
:107790004110D3F842208DF889118DF886219DF88B
:1077A00086119DF8892142EA0121ADF88A11BDF8C0
:1077B0008A11A0F89610D3F843105A6C8DF88911ED
:1077C0008DF886219DF886119DF8892142EA0121D4
:1077D000ADF88A11BDF88A11A0F89810D3F84510B9
:1077E000D3F846208DF889118DF886219DF88611F1
:1077F0009DF8892142EA0121ADF88A11BDF88A116C
:10780000A0F89A10D3F847109A6C8DF889118DF86A
:1078100086219DF886119DF8892142EA0121ADF863
:107820008A11BDF88A11A0F89C10D3F84910D3F83A
:107830004A208DF889118DF886219DF886119DF8D2
:10784000892142EA0121ADF88A11BDF88A11A0F818
:107850009E10D3F84B10DA6C8DF889118DF88621C3
:107860009DF886119DF8892142EA0121ADF88A111F
:10787000BDF88A11A0F8A010D3F84D10D3F84E200F
:107880008DF889118DF886219DF886119DF8892142
:1078900042EA0121ADF88A11BDF88A11A0F8A210C0
:1078A000D3F84F101A6D8DF889118DF886219DF847
:1078B00086119DF8892142EA0121ADF88A11BDF8AF
:1078C0008A11A0F8A410D3F85110D3F852208DF8E3
:1078D00089118DF886219DF886119DF8892142EA4B
:1078E0000121ADF88A11BDF88A11A0F8A610D3F8CD
:1078F00053105A6D8DF889118DF886219DF88611E7
:107900009DF8892142EA0121ADF88A11BDF88A115A
:10791000A0F8A810D3F85510D3F856208DF8891187
:107920008DF886219DF886119DF8892142EA012172
:10793000ADF88A11BDF88A11A0F8AA10D3F8571033
:107940009A6D8DF889118DF886219DF886119DF824
:10795000892142EA0121ADF88A11BDF88A11A0F807
:10796000AC10D3F85910D3F85A208DF889118DF83E
:1079700086219DF886119DF8892142EA0121ADF802
:107980008A11BDF88A11A0F8AE10D3F85B10DA6D39
:107990008DF889118DF886219DF886119DF8892131
:1079A00042EA0121ADF88A11BDF88A11A0F8B010A1
:1079B000D3F85D10D3F85E208DF889118DF88621FB
:1079C0009DF886119DF8892142EA0121ADF88A11BE
:1079D000BDF88A11A0F8B210D3F85F101A6E8DF8B6
:1079E00089118DF886219DF886119DF8892142EA3A
:1079F0000121ADF88A11BDF88A11A0F8B410D3F8AE
:107A00006110D3F862208DF889118DF886219DF8D8
:107A100086119DF8892142EA0121ADF88A11BDF84D
:107A20008A11A0F8B610D3F863105A6E8DF8891138
:107A30008DF886219DF886119DF8892142EA012161
:107A4000ADF88A11BDF88A11A0F8B810D3F8651006
:107A5000D3F866208DF889118DF886219DF886115E
:107A60009DF8892142EA0121ADF88A11BDF88A11F9
:107A7000A0F8BA10D3F867109A6E8DF889118DF8B6
:107A800086219DF886119DF8892142EA0121ADF8F1
:107A90008A11BDF88A11A0F8BC10D3F86910D3F888
:107AA0006A208DF889118DF886219DF886119DF840
:107AB000892142EA0121ADF88A11BDF88A11A0F8A6
:107AC000BE10D3F86B10DA6E8DF889118DF886210F
:107AD0009DF886119DF8892142EA0121ADF88A11AD
:107AE000BDF88A11A0F8C010D3F86D10D3F86E203D
:107AF0008DF889118DF886219DF886119DF88921D0
:107B000042EA0121ADF88A11BDF88A11A0F8C2102D
:107B1000D3F86F101A6F8DF889118DF886219DF8B2
:107B200086119DF8892142EA0121ADF88A11BDF83C
:107B30008A11A0F8C410D3F87110D3F872208DF810
:107B400089118DF886219DF886119DF8892142EAD8
:107B50000121ADF88A11BDF88A11A0F8C610D3F83A
:107B600073105A6F8DF889118DF886219DF8861152
:107B70009DF8892142EA0121ADF88A11BDF88A11E8
:107B8000A0F8C81093F877108DF8891193F8782031
:107B90008DF886219DF886719DF8896146EA072750
:107BA000ADF88A71BDF88A71A0F8CA708DF8891194
:107BB0008DF886219DF886119DF8892142EA0121E0
:107BC000ADF88A11BDF88A11A0F8CC10D3F879105D
:107BD000D3F87A208DF889118DF886219DF88611C9
:107BE0009DF8892142EA0121ADF88A11BDF88A1178
:107BF000A0F8CE10D3F87B10DA6F8DF889118DF8CC
:107C000086219DF886119DF8892142EA0121ADF86F
:107C10008A11BDF88A11A0F8D010D3F87D10D3F8DE
:107C20007E208DF889118DF886219DF886119DF8AA
:107C3000892142EA0121ADF88A11BDF88A11A0F824
:107C4000D210D3F87F10D3F880208DF889118DF8E9
:107C500086219DF886119DF8892142EA0121ADF81F
:107C60008A11BDF88A11A0F8D410D3F88110D3F886
:107C700082208DF889118DF886219DF886119DF856
:107C8000892142EA0121ADF88A11BDF88A11A0F8D4
:107C9000D610D3F88310D3F884208DF889118DF88D
:107CA00086219DF886119DF8892142EA0121ADF8CF
:107CB0008A11BDF88A11A0F8D810D3F88510D3F82E
:107CC00086208DF889118DF886219DF886119DF802
:107CD000892142EA0121ADF88A11BDF88A11A0F884
:107CE000DA10D3F88710D3F888208DF889118DF831
:107CF00086219DF886119DF8892142EA0121ADF87F
:107D00008A11BDF88A11A0F8DC10D3F88910D3F8D5
:107D10008A208DF889118DF886219DF886119DF8AD
:107D2000892142EA0121ADF88A11BDF88A11A0F833
:107D3000DE10D3F88B10D3F88C208DF889118DF8D4
:107D400086219DF886119DF8892142EA0121ADF82E
:107D50008A11BDF88A11A0F8E010D3F88D10D3F87D
:107D60008E208DF889118DF886219DF886119DF859
:107D7000892142EA0121ADF88A11BDF88A11A0F8E3
:107D8000E210D3F88F10D3F890208DF889118DF878
:107D900086219DF886119DF8892142EA0121ADF8DE
:107DA0008A11BDF88A11A0F8E410D3F89110D3F825
:107DB00092208DF889118DF886219DF886119DF805
:107DC000892142EA0121ADF88A11BDF88A11A0F893
:107DD000E61093F895108DF8891193F896208DF898
:107DE00086219DF886719DF8896146EA0727ADF8DE
:107DF0008A71BDF88A71A0F8E8708DF889118DF844
:107E000086219DF886119DF8892142EA0121ADF86D
:107E10008A11BDF88A11A0F8EA10D3F89710D3F8A8
:107E200098208DF889118DF886219DF886119DF88E
:107E3000892142EA0121ADF88A11BDF88A11A0F822
:107E4000EC10D3F89910D3F89A208DF889118DF899
:107E500086219DF886119DF8892142EA0121ADF81D
:107E60008A11BDF88A11A0F8EE10D3F89B10D3F850
:107E70009C208DF889118DF886219DF886119DF83A
:107E8000892142EA0121ADF88A11BDF88A11A0F8D2
:107E9000F010D3F89D10D3F89E208DF889118DF83D
:107EA00086219DF886119DF8892142EA0121ADF8CD
:107EB0008A11BDF88A11A0F8F210D3F89F10D3F8F8
:107EC000A0208DF889118DF886219DF886119DF8E6
:107ED000892142EA0121ADF88A11BDF88A11A0F882
:107EE000F410D3F8A110D3F8A2208DF889118DF8E1
:107EF00086219DF886119DF8892142EA0121ADF87D
:107F00008A11BDF88A11A0F8F610D3F8A310D3F89F
:107F1000A4208DF889118DF886219DF886119DF891
:107F2000892142EA0121ADF88A11BDF88A11A0F831
:107F3000F810D3F8A510D3F8A6208DF889118DF884
:107F400086219DF886119DF8892142EA0121ADF82C
:107F50008A11BDF88A11A0F8FA10D3F8A710D3F847
:107F6000A8208DF889118DF886219DF886119DF83D
:107F7000892142EA0121ADF88A11BDF88A11A0F8E1
:107F8000FC10D3F8A910D3F8AA208DF889118DF828
:107F900086219DF886119DF8892142EA0121ADF8DC
:107FA0008A11BDF88A11A0F8FE10D3F8AB10D3F8EF
:107FB000AC208DF889118DF886219DF886119DF8E9
:107FC000892142EA0121ADF88A11BDF88A11A0F891
:107FD0000011D3F8AD10D3F8AE208DF889118DF8CB
:107FE00086219DF886119DF8892142EA0121ADF88C
:107FF0008A11BDF88A11A0F80211D3F8AF10D3F896
:10800000B0208DF889118DF886219DF886119DF894
:10801000892142EA0121ADF88A11BDF88A11A0F840
:10802000041193F8B3108DF8891193F8B4208DF8EA
:1080300086219DF886719DF8896146EA0727ADF88B
:108040008A71BDF88A71A0F806718DF889118DF8D2
:1080500086219DF886119DF8892142EA0121ADF81B
:108060008A11BDF88A11A0F80811D3F8B510D3F819
:10807000B6208DF889118DF886219DF886119DF81E
:10808000892142EA0121ADF88A11BDF88A11A0F8D0
:108090000A11D3F8B710D3F8B8208DF889118DF8EC
:1080A00086219DF886119DF8892142EA0121ADF8CB
:1080B0008A11BDF88A11A0F80C11D3F8B910D3F8C1
:1080C000BA208DF889118DF886219DF886119DF8CA
:1080D000892142EA0121ADF88A11BDF88A11A0F880
:1080E0000E11D3F8BB10D3F8BC208DF889118DF890
:1080F00086219DF886119DF8892142EA0121ADF87B
:108100008A11BDF88A11A0F81011D3F8BD10D3F868
:10811000BE208DF889118DF886219DF886119DF875
:10812000892142EA0121ADF88A11BDF88A11A0F82F
:108130001211D3F8BF10D3F8C0208DF889118DF833
:1081400086219DF886119DF8892142EA0121ADF82A
:108150008A11BDF88A11A0F81411D3F8C110D3F810
:10816000C2208DF889118DF886219DF886119DF821
:10817000892142EA0121ADF88A11BDF88A11A0F8DF
:108180001611D3F8C310D3F8C4208DF889118DF8D7
:1081900086219DF886119DF8892142EA0121ADF8DA
:1081A0008A11BDF88A11A0F81811D3F8C510D3F8B8
:1081B000C6208DF889118DF886219DF886119DF8CD
:1081C000892142EA0121ADF88A11BDF88A11A0F88F
:1081D0001A11D3F8C710D3F8C8208DF889118DF87B
:1081E00086219DF886119DF8892142EA0121ADF88A
:1081F0008A11BDF88A11A0F81C11D3F8C910D3F860
:10820000CA208DF889118DF886219DF886119DF878
:10821000892142EA0121ADF88A11BDF88A11A0F83E
:108220001E110A91D3F8CB10D3F8CC208DF8891108
:108230008DF886219DF886119DF8892142EA012159
:10824000ADF88A11BDF88A11A0F820110991D3F870
:10825000CD10D3F8CE208DF889118DF886219DF8A8
:1082600086119DF8892142EA0121ADF88A11BDF8F5
:108270008A11A0F822110891D3F8D310D3F8D42092
:108280008DF889118DF886219DF886119DF8892138
:1082900042EA0121ADF88A11BDF88A110022C0E935
:1082A0004A12D3F8D510D3F8D6308DF889118DF84D
:1082B00086319DF886119DF8893143EA0121ADF898
:1082C0008A11BDF88A11C0E94C1201F034B8106867
:1082D000D2F801108DF889018DF886119DF886017C
:1082E0009DF8891141EA0020ADF88A01BDF88A1194
:1082F00041F26810C2F200000182D2F80210D2F8F6
:1083000003308DF889118DF886319DF886119DF81E
:10831000893143EA0121ADF88A11BDF88A118175CE
:108320005168D2F805308DF889118DF886319DF8A5
:1083300086119DF8893143EA0121ADF88A11BDF813
:108340008A110176D2F80610D2F807308DF889111B
:108350008DF886319DF886119DF8893143EA012117
:10836000ADF88A11BDF88A1180F828109168D2F80A
:1083700009308DF889118DF886319DF886119DF8A8
:10838000893143EA0121ADF88A11BDF88A1141848F
:10839000D2F80A10D2F80B308DF889118DF8863199
:1083A0009DF886119DF8893143EA0121ADF88A11C3
:1083B000BDF88A118184D2F8D010D2F8D1308DF86E
:1083C00089118DF886319DF886119DF8893143EA2F
:1083D0000121ADF88A11BDF88A1180F83010D168FA
:1083E000D2F80D308DF889118DF886319DF88611FF
:1083F0009DF8893143EA0121ADF88A11BDF88A114F
:10840000A0F86E10D2F80E10D2F80F308DF8891146
:108410008DF886319DF886119DF8893143EA012156
:10842000ADF88A11BDF88A1180F831101169D2F8BF
:1084300011308DF889118DF886319DF886119DF8DF
:10844000893143EA0121ADF88A11BDF88A1180F81B
:108450003210D2F81210D2F813308DF889118DF83D
:1084600086319DF886119DF8893143EA0121ADF8E6
:108470008A11BDF88A1180F833105169D2F815308D
:108480008DF889118DF886319DF886119DF8893116
:1084900043EA0121ADF88A11BDF88A1180F8341041
:1084A000D2F81610D2F817308DF889118DF8863170
:1084B0009DF886119DF8893143EA0121ADF88A11B2
:1084C000BDF88A1180F835109169D2F819308DF80D
:1084D00089118DF886319DF886119DF8893143EA1E
:1084E0000121ADF88A11BDF88A1180F83610D2F852
:1084F0001A10D2F81B308DF889118DF886319DF84D
:1085000086119DF8893143EA0121ADF88A11BDF841
:108510008A1180F83810D169D2F81D308DF8891190
:108520008DF886319DF886119DF8893143EA012145
:10853000ADF88A11BDF88A1180F83910D2F81E10F2
:10854000D2F81F308DF889118DF886319DF886118B
:108550009DF8893143EA0121ADF88A11BDF88A11ED
:1085600080F83B10116AD2F821308DF889118DF80E
:1085700086319DF886119DF8893143EA0121ADF8D5
:108580008A11BDF88A1180F83C10D2F82210D2F876
:1085900023308DF889118DF886319DF886119DF86C
:1085A000893143EA0121ADF88A11BDF88A11A0F89A
:1085B0007610516AD2F825308DF889118DF8863100
:1085C0009DF886119DF8893143EA0121ADF88A11A1
:1085D000BDF88A11A0F87810D2F82610D2F827300A
:1085E0008DF889118DF886319DF886119DF88931B5
:1085F00043EA0121ADF88A11BDF88A11A0F87A107A
:10860000916AD2F829308DF889118DF886319DF85C
:1086100086119DF8893143EA0121ADF88A11BDF830
:108620008A11A0F87C10D2F82A10D2F82B308DF8DD
:1086300089118DF886319DF886119DF8893143EABC
:108640000121ADF88A11BDF88A11A0F87E10D16A17
:10865000D2F82D308DF889118DF886319DF886116C
:108660009DF8893143EA0121ADF88A11BDF88A11DC
:10867000A0F88010D2F82E10D2F82F308DF8891182
:108680008DF886319DF886119DF8893143EA0121E4
:10869000ADF88A11BDF88A11A0F88210116BD2F8DA
:1086A00031308DF889118DF886319DF886119DF84D
:1086B000893143EA0121ADF88A11BDF88A11A0F889
:1086C0008410D2F83210D2F833308DF889118DF839
:1086D00086319DF886119DF8893143EA0121ADF874
:1086E0008A11BDF88A11A0F88610516BD2F8353086
:1086F0008DF889118DF886319DF886119DF88931A4
:1087000043EA0121ADF88A11BDF88A11A0F888105A
:10871000D2F83610D2F837308DF889118DF88631BD
:108720009DF886119DF8893143EA0121ADF88A113F
:10873000BDF88A11A0F88A10916BD2F839308DF803
:1087400089118DF886319DF886119DF8893143EAAB
:108750000121ADF88A11BDF88A11A0F88C10D2F869
:108760003A10D2F83B308DF889118DF886319DF89A
:1087700086119DF8893143EA0121ADF88A11BDF8CF
:108780008A11A0F88E10D16BD2F83D308DF8891186
:108790008DF886319DF886119DF8893143EA0121D3
:1087A000ADF88A11BDF88A11A0F89010D2F83E10E9
:1087B000D2F83F308DF889118DF886319DF88611F9
:1087C0009DF8893143EA0121ADF88A11BDF88A117B
:1087D000A0F89210116CD2F841308DF889118DF803
:1087E00086319DF886119DF8893143EA0121ADF863
:1087F0008A11BDF88A11A0F89410D2F84210D2F86C
:1088000043308DF889118DF886319DF886119DF8D9
:10881000893143EA0121ADF88A11BDF88A11A0F827
:108820009610516CD2F845308DF889118DF886314B
:108830009DF886119DF8893143EA0121ADF88A112E
:10884000BDF88A11A0F89810D2F84610D2F8473037
:108850008DF889118DF886319DF886119DF8893142
:1088600043EA0121ADF88A11BDF88A11A0F89A10E7
:10887000916CD2F849308DF889118DF886319DF8C8
:1088800086119DF8893143EA0121ADF88A11BDF8BE
:108890008A11A0F89C10D2F84A10D2F84B308DF80B
:1088A00089118DF886319DF886119DF8893143EA4A
:1088B0000121ADF88A11BDF88A11A0F89E10D16C83
:1088C000D2F84D308DF889118DF886319DF88611DA
:1088D0009DF8893143EA0121ADF88A11BDF88A116A
:1088E000A0F8A010D2F84E10D2F84F308DF88911B0
:1088F0008DF886319DF886119DF8893143EA012172
:10890000ADF88A11BDF88A11A0F8A210116DD2F845
:1089100051308DF889118DF886319DF886119DF8BA
:10892000893143EA0121ADF88A11BDF88A11A0F816
:10893000A410D2F85210D2F853308DF889118DF866
:1089400086319DF886119DF8893143EA0121ADF801
:108950008A11BDF88A11A0F8A610516DD2F85530D1
:108960008DF889118DF886319DF886119DF8893131
:1089700043EA0121ADF88A11BDF88A11A0F8A810C8
:10898000D2F85610D2F857308DF889118DF886310B
:108990009DF886119DF8893143EA0121ADF88A11CD
:1089A000BDF88A11A0F8AA10916DD2F859308DF84F
:1089B00089118DF886319DF886119DF8893143EA39
:1089C0000121ADF88A11BDF88A11A0F8AC10D2F8D7
:1089D0005A10D2F85B308DF889118DF886319DF8E8
:1089E00086119DF8893143EA0121ADF88A11BDF85D
:1089F0008A11A0F8AE10D16DD2F85D308DF88911D2
:108A00008DF886319DF886119DF8893143EA012160
:108A1000ADF88A11BDF88A11A0F8B010D2F85E1036
:108A2000D2F85F308DF889118DF886319DF8861166
:108A30009DF8893143EA0121ADF88A11BDF88A1108
:108A4000A0F8B210116ED2F861308DF889118DF84E
:108A500086319DF886119DF8893143EA0121ADF8F0
:108A60008A11BDF88A11A0F8B410D2F86210D2F8B9
:108A700063308DF889118DF886319DF886119DF847
:108A8000893143EA0121ADF88A11BDF88A11A0F8B5
:108A9000B610516ED2F865308DF889118DF8863197
:108AA0009DF886119DF8893143EA0121ADF88A11BC
:108AB000BDF88A11A0F8B810D2F86610D2F8673065
:108AC0008DF889118DF886319DF886119DF88931D0
:108AD00043EA0121ADF88A11BDF88A11A0F8BA1055
:108AE000916ED2F869308DF889118DF886319DF834
:108AF00086119DF8893143EA0121ADF88A11BDF84C
:108B00008A11A0F8BC10D2F86A10D2F86B308DF838
:108B100089118DF886319DF886119DF8893143EAD7
:108B20000121ADF88A11BDF88A11A0F8BE10D16EEE
:108B3000D2F86D308DF889118DF886319DF8861147
:108B40009DF8893143EA0121ADF88A11BDF88A11F7
:108B5000A0F8C010D2F86E10D2F86F308DF88911DD
:108B60008DF886319DF886119DF8893143EA0121FF
:108B7000ADF88A11BDF88A11A0F8C210116FD2F8B1
:108B800071308DF889118DF886319DF886119DF828
:108B9000893143EA0121ADF88A11BDF88A11A0F8A4
:108BA000C410D2F87210D2F873308DF889118DF894
:108BB00086319DF886119DF8893143EA0121ADF88F
:108BC0008A11BDF88A11A0F8C610516FD2F875301D
:108BD0008DF889118DF886319DF886119DF88931BF
:108BE00043EA0121ADF88A11BDF88A11A0F8C81036
:108BF00092F878108DF8891192F879308DF88631D5
:108C00009DF886719DF8896146EA0727ADF88A715B
:108C1000BDF88A71A0F8CA708DF889118DF8863177
:108C20009DF886119DF8893143EA0121ADF88A113A
:108C3000BDF88A11A0F8CC10D2F87A10D2F87B30A7
:108C40008DF889118DF886319DF886119DF889314E
:108C500043EA0121ADF88A11BDF88A11A0F8CE10BF
:108C6000D16FD2F87D308DF889118DF886319DF85D
:108C700086119DF8893143EA0121ADF88A11BDF8CA
:108C80008A11A0F8D010D2F87E10D2F87F308DF87B
:108C900089118DF886319DF886119DF8893143EA56
:108CA0000121ADF88A11BDF88A11A0F8D210D2F8CE
:108CB0008010D2F881308DF889118DF886319DF8B9
:108CC00086119DF8893143EA0121ADF88A11BDF87A
:108CD0008A11A0F8D410D2F88210D2F883308DF81F
:108CE00089118DF886319DF886119DF8893143EA06
:108CF0000121ADF88A11BDF88A11A0F8D610D2F87A
:108D00008410D2F885308DF889118DF886319DF860
:108D100086119DF8893143EA0121ADF88A11BDF829
:108D20008A11A0F8D810D2F88610D2F887308DF8C2
:108D300089118DF886319DF886119DF8893143EAB5
:108D40000121ADF88A11BDF88A11A0F8DA10D2F825
:108D50008810D2F889308DF889118DF886319DF808
:108D600086119DF8893143EA0121ADF88A11BDF8D9
:108D70008A11A0F8DC10D2F88A10D2F88B308DF866
:108D800089118DF886319DF886119DF8893143EA65
:108D90000121ADF88A11BDF88A11A0F8DE10D2F8D1
:108DA0008C10D2F88D308DF889118DF886319DF8B0
:108DB00086119DF8893143EA0121ADF88A11BDF889
:108DC0008A11A0F8E010D2F88E10D2F88F308DF80A
:108DD00089118DF886319DF886119DF8893143EA15
:108DE0000121ADF88A11BDF88A11A0F8E210D2F87D
:108DF0009010D2F891308DF889118DF886319DF858
:108E000086119DF8893143EA0121ADF88A11BDF838
:108E10008A11A0F8E410D2F89210D2F893308DF8AD
:108E200089118DF886319DF886119DF8893143EAC4
:108E30000121ADF88A11BDF88A11A0F8E61092F868
:108E400096108DF8891192F897308DF886319DF83B
:108E500086719DF8896146EA0727ADF88A71BDF8E9
:108E60008A71A0F8E8708DF889118DF886319DF827
:108E700086119DF8893143EA0121ADF88A11BDF8C8
:108E80008A11A0F8EA10D2F89810D2F899308DF82B
:108E900089118DF886319DF886119DF8893143EA54
:108EA0000121ADF88A11BDF88A11A0F8EC10D2F8B2
:108EB0009A10D2F89B308DF889118DF886319DF883
:108EC00086119DF8893143EA0121ADF88A11BDF878
:108ED0008A11A0F8EE10D2F89C10D2F89D308DF8CF
:108EE00089118DF886319DF886119DF8893143EA04
:108EF0000121ADF88A11BDF88A11A0F8F010D2F85E
:108F00009E10D2F89F308DF889118DF886319DF82A
:108F100086119DF8893143EA0121ADF88A11BDF827
:108F20008A11A0F8F210D2F8A010D2F8A1308DF872
:108F300089118DF886319DF886119DF8893143EAB3
:108F40000121ADF88A11BDF88A11A0F8F410D2F809
:108F5000A210D2F8A3308DF889118DF886319DF8D2
:108F600086119DF8893143EA0121ADF88A11BDF8D7
:108F70008A11A0F8F610D2F8A410D2F8A5308DF816
:108F800089118DF886319DF886119DF8893143EA63
:108F90000121ADF88A11BDF88A11A0F8F810D2F8B5
:108FA000A610D2F8A7308DF889118DF886319DF87A
:108FB00086119DF8893143EA0121ADF88A11BDF887
:108FC0008A11A0F8FA10D2F8A810D2F8A9308DF8BA
:108FD00089118DF886319DF886119DF8893143EA13
:108FE0000121ADF88A11BDF88A11A0F8FC10D2F861
:108FF000AA10D2F8AB308DF889118DF886319DF822
:1090000086119DF8893143EA0121ADF88A11BDF836
:109010008A11A0F8FE10D2F8AC10D2F8AD308DF85D
:1090200089118DF886319DF886119DF8893143EAC2
:109030000121ADF88A11BDF88A11A0F80011D2F80B
:10904000AE10D2F8AF308DF889118DF886319DF8C9
:1090500086119DF8893143EA0121ADF88A11BDF8E6
:109060008A11A0F80211D2F8B010D2F8B1308DF800
:1090700089118DF886319DF886119DF8893143EA72
:109080000121ADF88A11BDF88A11A0F8041192F8F7
:10909000B4108DF8891192F8B5308DF886319DF8AD
:1090A00086719DF8896146EA0727ADF88A71BDF897
:1090B0008A71A0F806718DF889118DF886319DF8B6
:1090C00086119DF8893143EA0121ADF88A11BDF876
:1090D0008A11A0F80811D2F8B610D2F8B7308DF87E
:1090E00089118DF886319DF886119DF8893143EA02
:1090F0000121ADF88A11BDF88A11A0F80A11D2F841
:10910000B810D2F8B9308DF889118DF886319DF8F4
:1091100086119DF8893143EA0121ADF88A11BDF825
:109120008A11A0F80C11D2F8BA10D2F8BB308DF821
:1091300089118DF886319DF886119DF8893143EAB1
:109140000121ADF88A11BDF88A11A0F80E11D2F8EC
:10915000BC10D2F8BD308DF889118DF886319DF89C
:1091600086119DF8893143EA0121ADF88A11BDF8D5
:109170008A11A0F81011D2F8BE10D2F8BF308DF8C5
:1091800089118DF886319DF886119DF8893143EA61
:109190000121ADF88A11BDF88A11A0F81211D2F898
:1091A000C010D2F8C1308DF889118DF886319DF844
:1091B00086119DF8893143EA0121ADF88A11BDF885
:1091C0008A11A0F81411D2F8C210D2F8C3308DF869
:1091D00089118DF886319DF886119DF8893143EA11
:1091E0000121ADF88A11BDF88A11A0F81611D2F844
:1091F000C410D2F8C5308DF889118DF886319DF8EC
:1092000086119DF8893143EA0121ADF88A11BDF834
:109210008A11A0F81811D2F8C610D2F8C7308DF80C
:1092200089118DF886319DF886119DF8893143EAC0
:109230000121ADF88A11BDF88A11A0F81A11D2F8EF
:10924000C810D2F8C9308DF889118DF886319DF893
:1092500086119DF8893143EA0121ADF88A11BDF8E4
:109260008A11A0F81C11D2F8CA10D2F8CB308DF8B0
:1092700089118DF886319DF886119DF8893143EA70
:109280000121ADF88A11BDF88A11A0F81E110A91CA
:10929000D2F8CC10D2F8CD308DF889118DF8863106
:1092A0009DF886119DF8893143EA0121ADF88A11B4
:1092B000BDF88A11A0F820110991D2F8CE10D2F889
:1092C000CF308DF889118DF886319DF886119DF883
:1092D000893143EA0121ADF88A11BDF88A11A0F85D
:1092E00022110891D2F8D410D2F8D5308DF8891116
:1092F0008DF886319DF886119DF8893143EA012168
:10930000ADF88A11BDF88A110023C0E94A13D2F8DA
:10931000D610D2F8D7208DF889118DF886219DF8C6
:1093200086119DF8892142EA0121ADF88A11BDF824
:109330008A11C0E94C1341F26812C2F20002118A8C
:109340004FF66F63A1F2F51080B298423CBF4FF424
:109350009671118292F816804FF6194608F137007F
:10936000C0B23B289CBF4FF0280882F81680508C72
:109370004FF6194C642824BF32205084978C4E90AD
:10938000A7F2E73080B2B0429CBF3C27978492F8A6
:109390003000022824BF002082F8300092F83160AB
:1093A000022E24BF002682F8316092F832E0BEF12E
:1093B000020F24BF4FF0010E82F832E092F83340E2
:1093C000022C24BF012482F83340499492F834409F
:1093D000032C24BF012482F83440489492F835408D
:1093E000032C24BF012482F83540479492F836407C
:1093F000032C24BF012482F836404C9092F83800A8
:10940000022824BF002082F83800459092F83900E5
:1094100030B10123012082F839304FF66F6300E04C
:109420000020449092F83A00022824BF012082F8DC
:109430003A0092F83B00022824BF002082F83B004B
:10944000509192F828104390A1F16500C0B2469463
:1094500036289CBF002182F82810B2F86E40429155
:10946000A4F57A700CF1640180B289B288423CBFE5
:109470001E24A2F86E40B2F876104194A1F2F510C5
:1094800080B298423CBF4FF49671A2F87610B2F8C1
:1094900078504091A5F1C90003F1CD0180B21FFAC7
:1094A00081FA50453CBF2825A2F87850B2F87A10CE
:1094B000A1F57A7080B260453CBF1E21A2F87A10F7
:1094C0003E91B2F87C10A1F2F51080B298423CBFF8
:1094D0004FF4A071A2F87C103D91B2F87E104B962B
:1094E000A1F1C90080B2CDF83C814D9750453CBFF9
:1094F0002D21A2F87E10B2F880C04FF619476046C1
:10950000ACF57A7080B2B842CDF880C104D228247C
:1095100028206090A2F88040B2F882C03C91ACF262
:10952000F51080B298423CBF4FF4AF7CA2F882C0E5
:10953000B2F884103F95A1F1C90080B250453CBFFC
:109540003221A2F88410B2F886804FF619444046C2
:10955000A8F57A7080B2A0423A91CDF87C8104D20D
:10956000322132205F90A2F88610B2F88810A1F262
:10957000F51080B298423CBF4FF4BE71A2F888103B
:109580003991B2F88A10A1F1C90080B250453CBFB0
:109590005021A2F88A103891B2F88C10A1F57A7097
:1095A00080B2A0423CBF3C21A2F88C10B2F88E9051
:1095B00037914846A9F2F51080B29842CDF87891DB
:1095C00004D2962796205E90A2F88E70B2F8901082
:1095D0004FF61949A1F1C90080B250453CBF28217E
:1095E000A2F89010B2F892503691A5F57A7080B238
:1095F00048453CBF5A25A2F89250B2F89410CDF8D5
:1096000028E1A1F2F51080B298423CBFB421A2F843
:109610009410B2F896E034917046AEF1C90080B271
:109620005045CDF874E104D2322432205D90A2F886
:109630009640B2F898E0AEF57A7080B248453CBFEB
:109640004FF0640EA2F898E0B2F89A80A8F2F510F4
:1096500080B298423CBF4FF0F508A2F89A80B2F869
:109660009C40A4F1C90080B250453CBF6424A2F8DC
:109670009C40B2F89EB05846ABF57A7080B248452F
:10968000CDF870B104D2322132205C90A2F89E1045
:10969000B2F8A010A1F2F51080B298423CBF64214C
:1096A000A2F8A0103091B2F8A210A1F1C90080B2C6
:1096B00050453CBF8221A2F8A210B2F8A470A7F5D1
:1096C0007A7080B248453CBF7827A2F8A470B2F8FF
:1096D000A660A6F2F51080B298423CBF6426A2F8BC
:1096E000A6603194B2F8A840CDE92D67A4F1C90075
:1096F00080B2359550453CBF1424A2F8A840B2F87A
:10970000AA904FF619454846A9F57A7080B2A8424A
:109710002C94CDF86C9104D23C273C205B90A2F8AD
:10972000AA702F91B2F8AC10A1F2F51080B2984255
:109730003CBF8C21A2F8AC102B91B2F8AE10CDF842
:10974000ECC0A1F1C90080B250453CBF1E21A2F877
:10975000AE10B2F8B0C02A916046ACF57A7080B213
:10976000A842CDF868C106D278257820A2F8B0507A
:109770004FF619455A90B2F8B210A1F2F51080B226
:1097800098423CBFAA21A2F8B210B2F8B4C0299105
:10979000ACF1C90080B250453CBF4FF0280CA2F894
:1097A000B4C0B2F8B6904846A9F57A7080B2A84223
:1097B000CDF8649104D26E246E205990A2F8B64080
:1097C000B2F8B810A1F2F51080B298423CBFF02177
:1097D000A2F8B810B2F8BA902791A9F1C90080B2E6
:1097E00050453CBF4FF05009A2F8BA90B2F8BC10F7
:1097F000CDE9328EA1F57A7080B2A8423CBF282113
:10980000A2F8BC10B2F8BEE025917046AEF2F51099
:1098100080B29842CDF860E104D26421642058906F
:10982000A2F8BE10B2F8C010A1F1C90080B2504534
:109830003CBF6421A2F8C010B2F8C270A7F57A70DC
:1098400080B2A8423CBF9627A2F8C270B2F8C4E02A
:109850002397AEF2F51080B298423CBF4FF0640EF1
:10986000A2F8C4E0B2F8C6602491A6F1C90080B2A3
:1098700050453CBF1426A2F8C660B2F8C810A1F546
:109880007A7080B2A8423CBF3C21A2F8C810B2F85E
:10989000CAB05846ABF2F51080B29842CDF85CB130
:1098A00004D2822482205790A2F8CA40B2F8CC4059
:1098B000A4F1C90080B250453CBF2324A2F8CC409B
:1098C0001F94B2F8CE40A4F57A7080B2A8423CBF93
:1098D0005024A2F8CE40B2F8D0B0ABF2F51080B26E
:1098E00098423CBF4FF0A00BA2F8D0B0B2F8D280A3
:1098F0004046A8F1C90080B25045CDF8588104D245
:109900002D272D205690A2F8D270B2F8D4701E9454
:10991000A7F57A7080B2A8423CBF5A27A2F8D4704B
:10992000B2F8D640CDF89890A4F2F51080B2CDF8F8
:10993000A0C098423CBFDC24A2F8D640B2F8D8C000
:109940001B946046ACF1C90080B25045CDF854C1BB
:1099500006D25A255A20A2F8D8504FF619455590EC
:10996000B2F8DA001C97B0F57A7F24BF4620A2F83F
:10997000DA00B2F8DC701A90A7F2F51080B29842C3
:109980003CBF6427A2F8DC7020A880E84240B2F80F
:10999000DE10A1F1C90080B250453CBF7821A2F889
:1099A000DE10B2F8E0E07046AEF57A7080B2A84200
:1099B000CDF850E104D2642664205490A2F8E0600F
:1099C000B2F8E260A6F2F51080B298423CBF64267D
:1099D000A2F8E260B2F8E440A4F1C90080B25045B8
:1099E0003CBF1424A2F8E440B2F8E630A3F57A7044
:1099F00080B2A8423CBF3C23A2F8E630B2F8E8802F
:109A000016A858C0A8F2F51080B24FF66F631991EE
:109A10000B9798423CBF4FF0A008A2F8E880B2F83C
:109A2000EAC06046ACF1C90080B25045CDF84CC1E7
:109A300004D23C213C205390A2F8EA10B2F8EC107A
:109A40005F46A1F57A7080B2A8423CBF6E21A2F8B1
:109A5000EC10B2F8EEB0ABF2F51080B298423CBF19
:109A60004FF0BE0BA2F8EEB0B2F8F0E0AEF1C900D4
:109A700080B250453CBF4FF0460EA2F8F0E0B2F87D
:109A8000F2C06046ACF57A7080B2A842CDF848C109
:109A900004D2782478205290A2F8F240B2F8F490E0
:109AA0004FF66F64A9F2F51080B298423CBF4FF0B8
:109AB000FA09A2F8F490B2F8F660A6F1C90080B2F3
:109AC00050453CBF9626A2F8F660B2F8F830A3F5F0
:109AD0007A7080B2A8423CBF5023A2F8F8301491AB
