:020000040800F2
:104000005037002085410008F1720008ED72000869
:10401000EF720008B949000829F400080000000008
:1040200000000000000000000000000071E900082E
:10403000BB49000800000000F7B2000875E900085D
:104040009F4100089F4100089F4100089F410008D0
:104050009F4100089F4100089F4100089F410008C0
:104060009F4100089F4100089F4100089F410008B0
:104070009F4100089F4100089F4100089F410008A0
:104080009F4100089F4100089F4100089F41000890
:104090009F4100089F4100089F4100089F41000880
:1040A0009F4100089F4100089F4100089F41000870
:1040B00045EE000819F200089F4100089F410008E2
:1040C0009F4100089F4100089F4100089F41000850
:1040D0009F41000809F3000865F30008C1F30008D8
:1040E0002D4A00089F4100089F4100080000000081
:1040F00000000000000000000000000000000000C0
:10410000000000009F4100089F41000800000000DF
:1041100041F20008A5F200080000000000000000C5
:104120009F4100089F4100089F4100089F410008EF
:10413000000000000000000000000000000000007F
:104140000000000000000000000000009F41000887
:1041500000000000000000009F4100089F4100088F
:104160000000000000000000000000009F41000867
:10417000DFF80CD000F0A0F900480047490301081F
:10418000503700200648804706480047FEE7FEE714
:10419000FEE7FEE7FEE7FEE7FEE7FEE7FEE7FEE7F7
:1041A000D1ED0008714100082DE9FE4F804681EAFB
:1041B0000300C00F0C46009021F0004123F00045A1
:1041C000B8EB0200A94105D24046214690461C4664
:1041D0000B46024623F00040104347D0270DC7F39B
:1041E0000A00C3F30A510290401A019040286BDA8A
:1041F000C3F3130040F4801B0098924620B10023C3
:10420000D2EB030A63EB0B0B01985946C0F1400255
:10421000504600F069F906460D4650465946019A47
:1042200000F081F910EB08006141002487EA115287
:1042300084EAE7731A4340D0009A62B3019A012AD4
:104240004FEA075215DC001B61EB02014FF0004200
:1042500002EA0752CDE90042001C41F580113246C6
:104260002B4600F081F903B0BDE8F08F40462146AF
:10427000F9E7001B61EB0201001C41F580130018F7
:104280005B412018A2F5001747EB030140EAD57007
:10429000B6196D4111E06D084FEA360645EAC07562
:1042A0004FEA0752001B61EB0201001C41F580112F
:1042B00049084FEA30000019514132462B4603B0FD
:1042C000BDE8F04F00F041B9009801224000002302
:1042D000D0EB020263EBE073009821464FEAE074F2
:1042E000B8EB000061EB0401E9E783F000435BE712
:1042F00081F0004158E72DE9FE4F81EA030404F004
:10430000004421F0004100944FF0000B23F00043E3
:1043100050EA01045ED052EA03045BD0C3F30A54AE
:10432000C1F30A552C44A4F2F3340194A0FB0254C7
:10433000C1F3130141F48011C3F3130343F4801359
:1043400001FB024400FB034E840A970A44EA8154AD
:1043500047EA8357A4FB076802958D0A05FB07858A
:104360004FEA932C04FB0C542705029D4FEA065894
:1043700047EA1637B5EB08056EEB070C870E920E71
:1043800047EA811742EA8312A7FB0201B6EB0B0151
:1043900064EB00042B0D43EA0C335E1844EB1C5015
:1043A000DA465146E7FB0201C5F313044FEA0B332B
:1043B00043EA14534FEA0432019C43EA0603A4F192
:1043C0000C040294009CCDE900B400F0CDF803B0D9
:1043D000BDE8F08F00200146F9E72DE9F04D81EAB4
:1043E000030404F0004B21F0004514464FF0000A8E
:1043F00023F0004150EA050220D054EA01021DD00A
:10440000C5F30A570246C5F31303C1F31300C1F302
:104410000A5640F4801543F48013A7EB0608101BDE
:10442000D64608F2FD3873EB050002D308F1010807
:1044300001E092185B41B8F1000F03DA0020014659
:10444000BDE8F08D00204FF48011064684460EE052
:10445000171B73EB050705D3121B63EB050306431C
:104460004CEA010C49084FEA300092185B4150EACF
:104470000107EDD152EA030012D082EA040083EA78
:104480000501084305D0101BAB4106D201220023D1
:1044900006E000224FF0004302E06FF001025310EB
:1044A0001AEB06004CEB085110EB0A0041EB0B0134
:1044B000BDE8F04D00F049B81CB509480090094826
:1044C00001900546009C06E0E06840F0010394E896
:1044D000070098471034AC42F6D3FFF74DFE0000BA
:1044E00094260108B4260108202A04DB203A00FAA9
:1044F00002F1002070479140C2F1200320FA03F33B
:10450000194390407047202A04DB203A21FA02F038
:104510000021704721FA02F3D040C2F120029140FD
:10452000084319467047202A06DBCB17203A41FA88
:1045300002F043EAE07306E041FA02F3D040C2F130
:104540002002914008431946704710B5141E73F1BC
:10455000000408DA401C41F1000192185B411A4343
:1045600001D120F0010010BD2DE9F04D92469B468F
:1045700011B1B1FA81F202E0B0FA80F22032904635
:10458000FFF7B2FF04460F4640EA0A0041EA0B017A
:1045900053465A46084313D0114653EA010019D036
:1045A000C8F140025046FFF7AEFF05460E465046A2
:1045B00059464246FFF798FF084305D0012004E022
:1045C00020463946BDE8F08D0020054346EAE076F6
:1045D0002C4337430A986305E40AA0EB0800002245
:1045E000FD0A44EA47540A3002D500200146E9E7B3
:1045F000010510196941DDE9084500196941BDE867
:10460000F04DA2E7D2B201E000F8012B491EFBD227
:1046100070470022F6E710B513460A4604461946CD
:10462000FFF7F0FF204610BDF0B480EA0102D40F7E
:104630004200B2EB410F02D20246084611464A0040
:1046400042D0C30DDDB2C1F3C752AD1A202D35DA09
:10465000C1F3160141F4000204B15242C5F1200633
:1046600002FA06F12A411044B3EBD05F23D0C4B163
:10467000012DA0EBC35009DCF0BC4FF0004202EA70
:10468000C352DBB200F5000000F068B9400000F151
:10469000807000EBC350A0F1807040EAD1704900F7
:1046A00009E0490841EAC071A0EBC35000F50000E1
:1046B000400800EBC350F0BC00F047B96142012252
:1046C00002EB4101001BF6E7F0BC704781F00041AE
:1046D000AAE780F00040A7E780EA010210B502F0E7
:1046E0000043400022D04A001FD0010E01EB1261AE
:1046F000C0F35600C2F3560240F4000042F4000238
:10470000A0FB022000047F39140400D0401C50EAB2
:10471000124001D44000491EC2B20C0604EBD01076
:10472000401C4008802A02D003E0002010BD20F089
:104730000100002900DA0020184310BD30B480EADF
:10474000010202F0004530F0004221F0004013D099
:1047500090B1C30DD40DC2F31601C0F31600E41AD4
:1047600041F4000140F400027D34914201D3641C05
:1047700000E04900002C02DA30BC002070474FF402
:1047800000000023914201D3891A034340084FEAF5
:104790004101F7D151B1914202D14FF0004105E002
:1047A00002D24FF0010101E06FF0010103EBC450B0
:1047B000284430BC00F0C9B8002801DBC0F100403B
:1047C000002901DBC1F10041814201D8012070477D
:1047D00000207047002801DBC0F10040002901DB08
:1047E000C1F10041814201D2012070470020704791
:1047F000002801DBC0F10040002901DBC1F10041CC
:10480000814201D30120704700207047002801DB5E
:10481000C0F10040002901DBC1F10041814201D912
:104820000120704700207047C10F80EAE070084403
:10483000CA079623002100F091B896230022114662
:1048400000F08CB80EB5C10F80EAE0700844CA07CA
:10485000002140F233438DE80E000A460B46FFF775
:1048600083FE03B000BD0EB540F23341029100213A
:10487000CDE900110A460B46FFF776FE03B000BDF6
:1048800000F0004220F00040C10DC0F3160040F4DB
:1048900000007F2901DA00207047962903DCC1F16E
:1048A0009601C84001E096398840002AF4D0404281
:1048B000704720F00040C10DC0F3160040F4000026
:1048C0007F2901DA00207047962903DCC1F19601A7
:1048D000C840704796398840704770B5C1F30A5296
:1048E00001F000450024C1F3130140F2FF3341F40D
:1048F00080119A4201DA002070BD40F233439A429F
:10490000A2F2334203DC5242FFF7FDFD00E090408B
:104910002C43F1D0404270BDC1F30A5210B5C1F32F
:10492000130140F2FF3341F480119A4201DA002072
:1049300010BD40F233439A42A2F2334203DC5242AA
:10494000FFF7E1FD10BD904010BD0029A8BF7047E2
:10495000401C490008BF20F00100704710B4B0FAB5
:1049600080FC00FA0CF050EA010404BF10BC704750
:1049700049B1CCF1200421FA04F411FA0CF118BF6A
:10498000012121430843A3EB0C01CB1D4FEA006139
:104990004FEA102042BF002010BC704700EBC3500C
:1049A00010440029A4BF10BC7047401C490008BF38
:1049B00020F0010010BC7047FEE7704782B042F65D
:1049C0004030C2F200000190019808B9FFE72BE0E7
:1049D00001980021017001984FF22D42C0F60002AB
:1049E000C0F8042801984BF2F922C0F60002C0F882
:1049F00008280091FFE70098B0F5806F0FDAFFE715
:104A0000019800990844002180F802140198009A46
:104A100010444170FFE7009801300090EBE70198E7
:104A2000002180F80114FFE702B0704703480168D5
:104A3000890444BF4FF400510160704714040140E1
:104A40002DE9F04F99B0DFF8089A99F8070003288C
:104A500001F20980DFE810F004000C050C00DB0413
:104A600099F81400002801F00B80012000F0F9BF34
:104A7000FC4E99F81310DFF8DC49FB4ADFF8D859EF
:104A8000B01D904611F0010708BFA2F1720094F921
:104A9000281089B2A84706F10800002F08BFA8F126
:104AA0007000618CA84706F10A00002F08BFA8F12A
:104AB0006E00A18CA84706F10C00002F08BFA8F1DA
:104AC0006C00B4F86E10A84706F1D000002F08BFA4
:104AD00008F1580094F83010A84706F10E00002F96
:104AE00008BFA8F16A0094F83110A84706F1100039
:104AF000002F08BFA8F1680094F83210A84706F10B
:104B00001200002F08BFA8F1660094F83310A847E0
:104B100006F11400002F08BFA8F1640094F83410C7
:104B2000A84706F11600002F08BFA8F1620094F80C
:104B30003510A84706F11800002F08BFA8F1600043
:104B400094F83610A84706F11A00002F08BFA8F104
:104B50005E0094F83810A84706F11C00002F08BF2B
:104B6000A8F15C0094F83910A84706F11E00002F48
:104B700008BFA8F15A0094F83B10A84706F120009E
:104B8000002F08BFA8F1580094F83C10A84706F180
:104B90002200002F08BFA8F15600B4F87610A847ED
:104BA00006F12400002F08BFA8F15400B4F87810D3
:104BB000A84706F12600002F08BFA8F15200B4F85C
:104BC0007A10A84706F12800002F08BFA8F150006E
:104BD000B4F87C10A84706F12A00002F08BFA8F1FE
:104BE0004E00B4F87E10A84706F12C00002F08BF35
:104BF000A8F14C00B4F88010A84706F12E00002F51
:104C000008BFA8F14A00B4F88210A84706F13000A6
:104C1000002F08BFA8F14800B4F88410A84706F197
:104C20003200002F08BFA8F14600B4F88610A8474C
:104C300006F13400002F08BFA8F14400B4F8881032
:104C4000A84706F13600002F08BFA8F14200B4F8CB
:104C50008A10A84706F13800002F08BFA8F14000CD
:104C6000B4F88C10A84706F13A00002F08BFA8F14D
:104C70003E00B4F88E10A84706F13C00002F08BF94
:104C8000A8F13C00B4F89010A84706F13E00002FB0
:104C900008BFA8F13A00B4F89210A84706F1400006
:104CA000002F08BFA8F13800B4F89410A84706F107
:104CB0004200002F08BFA8F13600B4F89610A847AC
:104CC00006F14400002F08BFA8F13400B4F8981092
:104CD000A84706F14600002F08BFA8F13200B4F83B
:104CE0009A10A84706F14800002F08BFA8F130002D
:104CF000B4F89C10A84706F14A00002F08BFA8F19D
:104D00002E00B4F89E10A84706F14C00002F08BFF3
:104D1000A8F12C00B4F8A010A84706F14E00002F0F
:104D200008BFA8F12A00B4F8A210A84706F1500065
:104D3000002F08BFA8F12800B4F8A410A84706F176
:104D40005200002F08BFA8F12600B4F8A610A8470B
:104D500006F15400002F08BFA8F12400B4F8A810F1
:104D6000A84706F15600002F08BFA8F12200B4F8AA
:104D7000AA10A84706F15800002F08BFA8F120008C
:104D8000B4F8AC10A84706F15A00002F08BFA8F1EC
:104D90001E00B4F8AE10A84706F15C00002F08BF53
:104DA000A8F11C00B4F8B010A84706F15E00002F6F
:104DB00008BFA8F11A00B4F8B210A84706F16000C5
:104DC000002F08BFA8F11800B4F8B410A84706F1E6
:104DD0006200002F08BFA8F11600B4F8B610A8476B
:104DE00006F16400002F08BFA8F11400B4F8B81051
:104DF000A84706F16600002F08BFA8F11200B4F81A
:104E0000BA10A84706F16800002F08BFA8F11000EB
:104E1000B4F8BC10A84706F16A00002F08BFA8F13B
:104E20000E00B4F8BE10A84706F16C00002F08BFB2
:104E3000A8F10C00B4F8C010A84706F16E00002FCE
:104E400008BFA8F10A00B4F8C210A84706F1700024
:104E5000002F08BFA8F10800B4F8C410A84700F05C
:104E600005B800BF00F4010878FC010806F17200E3
:104E7000002F08BFA8F10600B4F8C610A84706F135
:104E80007400002F08BFA8F10400B4F8C810A847A8
:104E900006F17600002F08BFA8F10200B4F8CA108E
:104EA000A84706F17800002F04BF4FF67840C0F6FF
:104EB0000100B4F8CC10A84706F17A00002F08BF13
:104EC00008F10200B4F8CE10A84706F17C00002FCC
:104ED00008BF08F10400B4F8D010A84706F17E001E
:104EE000002F08BF08F10600B4F8D210A84706F159
:104EF0008000002F08BF08F10800B4F8D410A847BC
:104F000006F18200002F08BF08F10A00B4F8D6109D
:104F1000A84706F18400002F08BF08F10C00B4F880
:104F2000D810A84706F18600002F08BF08F10E0030
:104F3000B4F8DA10A84706F18800002F08BF08F17E
:104F40001000B4F8DC10A84706F18A00002F08BF53
:104F500008F11200B4F8DE10A84706F18C00002F0B
:104F600008BF08F11400B4F8E010A84706F18E005D
:104F7000002F08BF08F11600B4F8E210A84706F1A8
:104F80009000002F08BF08F11800B4F8E410A847FB
:104F900006F19200002F08BF08F11A00B4F8E610DD
:104FA000A84706F19400002F08BF08F11C00B4F8D0
:104FB000E810A84706F19600002F08BF08F11E0070
:104FC000B4F8EA10A84706F19800002F08BF08F1CE
:104FD0002000B4F8EC10A84706F19A00002F08BF93
:104FE00008F12200B4F8EE10A84706F19C00002F4B
:104FF00008BF08F12400B4F8F010A84706F19E009D
:10500000002F08BF08F12600B4F8F210A84706F1F7
:10501000A000002F08BF08F12800B4F8F410A8473A
:1050200006F1A200002F08BF08F12A00B4F8F6101C
:10503000A84706F1A400002F08BF08F12C00B4F81F
:10504000F810A84706F1A600002F08BF08F12E00AF
:10505000B4F8FA10A84706F1A800002F08BF08F11D
:105060003000B4F8FC10A84706F1AA00002F08BFD2
:1050700008F13200B4F8FE10A84706F1AC00002F8A
:1050800008BF08F13400B4F80011A84706F1AE00DB
:10509000002F08BF08F13600B4F80211A84706F146
:1050A000B000002F08BF08F13800B4F80411A84779
:1050B00006F1B200002F08BF08F13A00B4F806115B
:1050C000A84706F1B400002F08BF08F13C00B4F86F
:1050D0000811A84706F1B600002F08BF08F13E00EE
:1050E000B4F80A11A84706F1B800002F08BF08F16C
:1050F0004000B4F80C11A84706F1BA00002F08BF11
:1051000008F14200B4F80E11A84706F1BC00002FC8
:1051100008BF08F14400B4F81011A84706F1BE001A
:10512000002F08BF08F14600B4F81211A84706F195
:10513000C000002F08BF08F14800B4F81411A847B8
:1051400006F1C200002F08BF08F14A00B4F816119A
:10515000A84706F1C400002F08BF08F14C00B4F8BE
:105160001811A84706F1C600002F08BF08F14E002D
:10517000B4F81A11A84706F1C800002F08BF08F1BB
:105180005000B4F81C11A84706F1CA00002F08BF50
:1051900008F15200B4F81E11A84706F1CC00002F08
:1051A00008BF08F15400B4F82011A84706F1CE005A
:1051B000002F08BF08F15600B4F82211A84706F1E5
:1051C000D400002F08BF08F15C00B4F82811A847EC
:1051D00006F1D600002F08BF08F15E00B4F83011C8
:1051E000A84794F9280094F8311094F8322094F8E4
:1051F000333009F13C0509F1500CD4F89E60D4F825
:10520000A270A9F83400608C89F8091089F80A2086
:1052100089F80B30D4F87A10D4F87E20D4F8823094
:10522000A9F83600A08CA9F83800B4F86E00A9F8E7
:105230003A0094F8300089F8080094F8340089F8AE
:105240000C0094F8350089F80D0094F8360089F8C0
:105250000E00208FA9F80F00B4F83B00A9F8110048
:10526000D4F876000FC5B4F88600D4F88E10D4F8C0
:105270009220D4F89630D4F89A50A9F84C00B4F89B
:105280008800A9F84E00D4F88A00ACE8EF00B4F822
:10529000A60004F1A807A9F86C00EFCFC9F87210B6
:1052A000C9F87A30C9F87620B4F8C41004F59473BC
:1052B000C9F86E0069488181B4F8C610056046607F
:1052C0008760C181B4F8C8100182B4F8CA10418265
:1052D000B4F8CC108182B4F8CE10C182B4F8D010EA
:1052E0000183B4F8D2104183B4F8D4108183B4F8A8
:1052F000D610C183B4F8D8100184B4F8DA10418410
:10530000B4F8DC108184B4F8DE10C184B4F8E01085
:105310000185B4F8E2104185B4F8E4108185B4F851
:10532000E610C185B4F8E8100186B4F8EA104186A9
:10533000B4F8EC108186B4F8EE10C186B4F8F01021
:105340000187B4F8F2104187B4F8F4108187B4F8FB
:10535000F610C187B4F8F810A0F84010B4F8FA10AD
:10536000A0F84210B4F8FC10A0F84410B4F8FE10F5
:10537000A0F84610B4F80011A0F84810B4F80211D3
:10538000A0F84A10B4F80411A0F84C10B4F80611B3
:10539000A0F84E10B4F80811A0F85010B4F80A1193
:1053A000A0F85210B4F80C11A0F85410B4F80E1173
:1053B000A0F85610B4F81011A0F85810B4F8121153
:1053C000A0F85A10B4F81411A0F85C10B4F8161133
:1053D000A0F85E10B4F81811A0F86010B4F81A1113
:1053E000A0F86210B4F81C11A0F86410B4F81E11F3
:1053F000A0F86610B4F82011A0F86810B4F82211D3
:10540000174CA0F86A100FCB28340FC426E31548B8
:1054100099F81320114C1449D830D20708BF01F174
:105420006000B4F86C100AF06BFA1048C16841F0E3
:105430008001C160002089F80700B4F86C000130D9
:10544000A4F86C0099F81300013089F813000AE3FE
:1054500090000020082A002001F900080E01002019
:105460009001002000F4010878FC010804200240AB
:105470005FF82080B9F82E10B8F81000814240F093
:10548000B98298F81600B9F83010814240F0B28223
:1054900098F81800B9F83210814240F0AB8298F9C0
:1054A0002800B9F83410814240F0A482B8F82200F4
:1054B000B9F83610814240F09D82B8F82400B9F85E
:1054C0003810814240F09682B8F86E00B9F83A1070
:1054D000814240F08F8298F8300099F8081081429C
:1054E00040F0888298F8310099F80910814240F024
:1054F000818298F8320099F80A10814240F07A824D
:1055000098F8330099F80B10814240F0738298F8B4
:10551000340099F80C10814240F06C8298F8350004
:1055200099F80D10814240F0658298F8360099F89C
:105530000E10814240F05E8298F8380099F80F1002
:10554000814240F0578298F8390099F81010814252
:1055500040F0508298F83B0099F81110814240F0D9
:10556000498298F83C0099F81210814240F042823A
:10557000B8F87600B9F83C10814240F03B82B8F8A8
:105580007800B9F83E10814240F03482B8F87A00D1
:10559000B9F84010814240F02D82B8F87C00B9F88B
:1055A0004210814240F02682B8F87E00B9F84410DB
:1055B000814240F01F82B8F88000B9F8461081425D
:1055C00040F01882B8F88200B9F84810814240F0E3
:1055D0001182B8F88400B9F84A10814240F00A827A
:1055E000B8F88600B9F84C10814240F00382B8F850
:1055F0008800B9F84E10814240F0FC81B8F88A006A
:10560000B9F85010814240F0F581B8F88C00B9F833
:105610005210814240F0EE81B8F88E00B9F8541073
:10562000814240F0E781B8F89000B9F85610814205
:1056300040F0E081B8F89200B9F85810814240F08B
:10564000D981B8F89400B9F85A10814240F0D2815B
:10565000B8F89600B9F85C10814240F0CB81B8F8F8
:105660009800B9F85E10814240F0C481B8F89A0001
:10567000B9F86010814240F0BD81B8F89C00B9F8DB
:105680006210814240F0B681B8F89E00B9F864100B
:10569000814240F0AF81B8F8A000B9F866108142AD
:1056A00040F0A881B8F8A200B9F86810814240F033
:1056B000A181B8F8A400B9F86A10814240F09A813B
:1056C000B8F8A600B9F86C10814240F09381B8F8A0
:1056D000A800B9F86E10814240F08C81B8F8AA0099
:1056E000B9F87010814240F08581B8F8AC00B9F883
:1056F0007210814240F07E81B8F8AE00B9F87410A3
:10570000814240F07781B8F8B000B9F87610814254
:1057100040F07081B8F8B200B9F87810814240F0DA
:105720006981B8F8B400B9F87A10814240F062811A
:10573000B8F8B600B9F87C10814240F05B815FF8A0
:10574000E402B8F8B81002888A4240F05381B8F8F1
:10575000BA1042888A4240F04D81B8F8BC10828865
:105760008A4240F04781B8F8BE10C2888A4240F0B1
:105770004181B8F8C01002898A4240F03B81B8F8F4
:10578000C21042898A4240F03581B8F8C41082893B
:105790008A4240F02F81B8F8C610C2898A4240F090
:1057A0002981B8F8C810028A8A4240F02381B8F8EB
:1057B000CA10428A8A4240F01D81B8F8CC10828A11
:1057C0008A4240F01781B8F8CE10C28A8A4240F06F
:1057D0001181B8F8D010028B8A4240F00B81B8F8E2
:1057E000D210428B8A4240F00581B8F8D410828BE7
:1057F0008A4240F0FF80B8F8D610C28B8A4240F04F
:10580000F980B8F8D810028C8A4240F0F380B8F8DA
:10581000DA10428C8A4240F0ED80B8F8DC10828CBD
:105820008A4240F0E780B8F8DE10C28C8A4240F02D
:10583000E180B8F8E010028D8A4240F0DB80B8F8D1
:10584000E210428D8A4240F0D580B8F8E410828D93
:105850008A4240F0CF80B8F8E610C28D8A4240F00C
:10586000C980B8F8E810028E8A4240F0C380B8F8C8
:10587000EA10428E8A4240F0BD80B8F8EC10828E69
:105880008A4240F0B780B8F8EE10C28E8A4240F0EB
:10589000B180B8F8F010028F8A4240F0AB80B8F8BF
:1058A000F210428F8A4240F0A580B8F8F410828F3F
:1058B0008A4240F09F80B8F8F610C28F8A4240F0CA
:1058C0009980B8F8F810B0F840208A4240F09280F1
:1058D000B8F8FA10B0F842208A4240F08B80B8F84D
:1058E000FC10B0F844208A4240F08480B8F8FE10E2
:1058F000B0F846208A427DD1B8F80011B0F84820AF
:105900008A4277D1B8F80211B0F84A208A4271D1A0
:10591000B8F80411B0F84C208A426BD1B8F80611DF
:10592000B0F84E208A4265D1B8F80811B0F850207E
:105930008A425FD1B8F80A11B0F852208A4259D190
:10594000B8F80C11B0F854208A4253D1B8F80E11AF
:10595000B0F856208A424DD1B8F81011B0F858204E
:105960008A4247D1B8F81211B0F85A208A4241D180
:10597000B8F81411B0F85C208A423BD1B8F816117F
:10598000B0F85E208A4235D1B8F81811B0F860201E
:105990008A422FD1B8F81A11B0F862208A4229D170
:1059A000B8F81C11B0F864208A4223D1B8F81E114F
:1059B000B0F866208A421DD1B8F82011B0F86820EE
:1059C0008A4217D1B8F82211B0F86A00884211D182
:1059D0005FF87405D8E94A12D0E90A3462405940A8
:1059E000114307D1D8E94C12D0E90C035A40484082
:1059F000104338D01D481E491E4E01601E493446D2
:105A0000016099F8130010F0010708BF04F5006465
:105A1000204609F0A5FFB8F810105FF8C4552046DD
:105A2000A847B01C154C002F08BFA4F1760098F8C9
:105A30001610A847301D002F08BFA4F1740098F875
:105A40001810A847B8F8100098F81810A9F82E00F8
:105A500098F81600A9F83210A9F8300099F8070054
:105A6000013089F8070019B0BDE8F08F042002402A
:105A70002301674500F40108AB89EFCD78FC0108EC
:105A8000044F384609F034FE4FF6FF76B04200F07E
:105A9000398201E000F4010807F50065284609F0A5
:105AA00027FEB04200F02E8207F1D80009F082FFF5
:105AB000044C064604F1600009F07CFF864200F2C7
:105AC000278203E078FC0108B5F900085FF8086058
:105AD0002846B0475FF884562882A4F17600B04784
:105AE000A875A4F17400B0472876A4F17200B047FD
:105AF00085F82800A4F17000B0476884A4F16E0016
:105B0000B047A88404F15800B04785F83000A4F1EC
:105B10006C00B047A5F86E00A4F16A00B04785F8A4
:105B20003100A4F16800B04785F83200A4F16600A6
:105B3000B04785F83300A4F16400B04785F834001D
:105B4000A4F16200B04785F83500A4F16000B047C9
:105B500085F83600A4F15E00B04785F83800A4F15E
:105B60005C00B04785F83900A4F15A00B04785F8C9
:105B70003B00A4F15800B04785F83C00A4F1560062
:105B8000B047A5F87600A4F15400B047A5F8780016
:105B9000A4F15200B047A5F87A00A4F15000B04734
:105BA000A5F87C00A4F14E00B047A5F87E00A4F152
:105BB0004C00B047A5F88000A4F14A00B047A5F812
:105BC0008200A4F14800B047A5F88400A4F1460083
:105BD000B047A5F88600A4F14400B047A5F88800B6
:105BE000A4F14200B047A5F88A00A4F14000B047F4
:105BF000A5F88C00A4F13E00B047A5F88E00A4F1F2
:105C00003C00B047A5F89000A4F13A00B047A5F8D1
:105C10009200A4F13800B047A5F89400A4F1360032
:105C2000B047A5F89600A4F13400B047A5F8980055
:105C3000A4F13200B047A5F89A00A4F13000B047B3
:105C4000A5F89C00A4F12E00B047A5F89E00A4F191
:105C50002C00B047A5F8A000A4F12A00B047A5F891
:105C6000A200A4F12800B047A5F8A400A4F12600E2
:105C7000B047A5F8A600A4F12400B047A5F8A800F5
:105C8000A4F12200B047A5F8AA00A4F12000B04773
:105C9000A5F8AC00A4F11E00B047A5F8AE00A4F131
:105CA0001C00B047A5F8B000A4F11A00B047A5F851
:105CB000B200A4F11800B047A5F8B400A4F1160092
:105CC000B047A5F8B600A4F11400B047A5F8B80095
:105CD000A4F11200B047A5F8BA00A4F11000B04733
:105CE000A5F8BC00A4F10E00B047A5F8BE00A4F1D1
:105CF0000C00B047A5F8C000A4F10A00B047A5F811
:105D0000C200A4F10800B047A5F8C400A01FB04726
:105D1000A5F8C600201FB0478246A5F8C800204657
:105D2000B0470290A5F8CA002046B0471890A5F8E1
:105D3000CC00A01CB0471790A5F8CE00201DB0479E
:105D40001690A5F8D000A01DB0471490A5F8D20079
:105D500004F10800B0471390A5F8D40004F10A003C
:105D6000B0471290A5F8D60004F10C00B04711908E
:105D7000A5F8D80004F10E00B0471590A5F8DA0098
:105D800004F11000B0471090A5F8DC0004F11200F7
:105D9000B0470F90A5F8DE0004F11400B047A5F855
:105DA000E00004F11600B047A5F8E20004F1180085
:105DB000B047A5F8E40004F11A00B04704F11E074B
:105DC000A5F8E6003846B047A5F8E8003846B047E1
:105DD000A5F8EA0004F12000B047A5F8EC0004F1B2
:105DE0002200B047A5F8EE0004F12400B047A5F862
:105DF000F00004F12600B047A5F8F20004F12800F5
:105E0000B047A5F8F40004F12A00B047A5F8F60061
:105E100004F12C00B047A5F8F80004F12E00B047BB
:105E2000A5F8FA0004F13000B047A5F8FC0004F131
:105E30003200B047A5F8FE0004F13400B047A5F8E1
:105E4000000104F13600B047A5F8020104F1380062
:105E5000B04704F13C07A5F804013846B047A5F85F
:105E600006013846B047A5F8080104F13E00B047E6
:105E7000A5F80A0104F14000B047A5F80C0104F1AF
:105E80004200B047A5F80E0104F14400B047A5F860
:105E9000100104F14600B047A5F8120104F14800D2
:105EA000B047A5F8140104F14A00B047A5F816015F
:105EB00004F14C00B047A5F8180104F14E00B047BA
:105EC000A5F81A0104F15000B047A5F81C0104F12F
:105ED0005200B047A5F81E0104F15400B047A5F8E0
:105EE000200104F15600B047A5F8220104F15C003E
:105EF000B0470027C5E94A0704F15E00B047C5E98D
:105F00004C071EE2384609F0F3FBB04200F006876A
:105F10005FF84C543846A8475FF8C86A3082B81C0E
:105F2000A847B075381DA8473076B81DA84786F831
:105F3000280007F10800A847708407F10A00A84765
:105F4000B08407F1D000A84786F8300007F10C00B4
:105F5000A847A6F86E0007F10E00A84786F83100A2
:105F600007F11000A84786F8320007F11200A84791
:105F700086F8330007F11400A84786F8340007F1CB
:105F80001600A84786F8350007F11800A84786F8DC
:105F9000360007F11A00A84786F8380007F11C0000
:105FA000A84786F8390007F11E00A84786F83B008D
:105FB00007F12000A84786F83C0007F12200A84717
:105FC000A6F8760007F12400A847A6F8780007F1A4
:105FD0002600A847A6F87A0007F12800A847A6F8E7
:105FE0007C0007F12A00A847A6F87E0007F12C00E4
:105FF000A847A6F8800007F12E00A847A6F882005F
:1060000007F13000A847A6F8840007F13200A8473E
:10601000A6F8860007F13400A847A6F8880007F123
:106020003600A847A6F88A0007F13800A847A6F866
:106030008C0007F13A00A847A6F88E0007F13C0053
:10604000A847A6F8900007F13E00A847A6F89200DE
:1060500007F14000A847A6F8940007F14200A847BE
:10606000A6F8960007F14400A847A6F8980007F1A3
:106070004600A847A6F89A0007F14800A847A6F8E6
:106080009C0007F14A00A847A6F89E0007F14C00C3
:10609000A847A6F8A00007F14E00A847A6F8A2005E
:1060A00007F15000A847A6F8A40007F15200A8473E
:1060B000A6F8A60007F15400A847A6F8A80007F123
:1060C0005600A847A6F8AA0007F15800A847A6F866
:1060D000AC0007F15A00A847A6F8AE0007F15C0033
:1060E000A847A6F8B00007F15E00A847A6F8B200DE
:1060F00007F16000A847A6F8B40007F16200A847BE
:10610000A6F8B60007F16400A847A6F8B80007F1A2
:106110006600A847A6F8BA0007F16800A847A6F8E5
:10612000BC0007F16A00A847A6F8BE0007F16C00A2
:10613000A847A6F8C00007F16E00A847A6F8C2005D
:1061400007F17000A847A6F8C40007F17200A8473D
:10615000A6F8C60007F17400A84707F1780401F01B
:1061600089F901F09CF91890A6F8CC0007F17A00A3
:10617000A8471790A6F8CE0007F17C00A847169014
:10618000A6F8D00007F17E00A8471490A6F8D20028
:1061900007F18000A8471390A6F8D40007F1820009
:1061A000A8471290A6F8D60007F18400A8471190DE
:1061B000A6F8D80007F18600A8471590A6F8DA00DF
:1061C00007F18800A8471090A6F8DC0007F18A00C4
:1061D000A8470F90A6F8DE0007F18C00A847A6F8A4
:1061E000E00007F18E00A847A6F8E20007F1900052
:1061F000A847A6F8E40007F19200A84707F1960423
:10620000A6F8E6002046A847A6F8E8002046A847DA
:10621000A6F8EA0007F19800A847A6F8EC0007F1F5
:106220009A00A847A6F8EE0007F19C00A847A6F838
:10623000F00007F19E00A847A6F8F20007F1A000C1
:10624000A847A6F8F40007F1A200A847A6F8F600B0
:1062500007F1A400A847A6F8F80007F1A600A84790
:10626000A6F8FA0007F1A800A847A6F8FC0007F175
:10627000AA00A847A6F8FE0007F1AC00A847A6F8B8
:10628000000107F1AE00A847A6F8020107F1B0002F
:10629000A84707F1B404A6F804012046A847A6F8C9
:1062A00006012046A847A6F8080107F1B600A8474E
:1062B000A6F80A0107F1B800A847A6F80C0107F1F3
:1062C000BA00A847A6F80E0107F1BC00A847A6F837
:1062D000100107F1BE00A847A6F8120107F1C0009F
:1062E000A847A6F8140107F1C200A847A6F81601AE
:1062F00007F1C400A847A6F8180107F1C600A8478F
:10630000A6F81A0107F1C800A847A6F81C0107F172
:10631000CA00A847A6F81E0107F1CC00A847A6F8B6
:10632000200107F1CE00A847A6F8220107F1D4000A
:10633000A8470024C6E94A0407F1D600A847C6E9E1
:106340004C045FF8F00E018AB1F5FA7F01D8632999
:1063500002D84FF496710182817DC82901D80429A1
:1063600001D828218175418C40F2E632642924BF8E
:1063700032214184818C914200D809B93C21818429
:1063800090F83010033911F1030F9CBF012180F800
:10639000301090F83110022924BF002180F831100C
:1063A00090F83210022924BF012180F8321090F8B1
:1063B0003310022924BF012180F8331090F83410E3
:1063C000032924BF012180F8341090F835100329E7
:1063D00024BF012180F8351090F83610032924BF1E
:1063E000012180F8361090F83810022924BF0021CE
:1063F00080F8381090F8391011B1012180F8391067
:1064000090F83A10022924BF012180F83A1090F840
:106410003B10022924BF002180F83B1090F928107E
:10642000642902DC11F1650F02DC002180F82810DC
:10643000B0F86E10CA087C2A01D8642902D81E213F
:10644000A0F86E10B0F87610B1F5FA7F01D8632984
:1064500003D84FF49671A0F87610B0F87810C829D8
:1064600001D8042902D82821A0F87810B0F87A10B1
:10647000CA087C2A00D811B91E21A0F87A10B0F8F9
:106480007C10B1F5FA7F01D8632903D84FF4A071CD
:10649000A0F87C10B0F87E10C82901D8042902D8D1
:1064A0002D21A0F87E10B0F88010CA087C2A00D8F0
:1064B00011B92821A0F88010B0F88210B1F5FA7F48
:1064C00001D8632903D84FF4AF71A0F88210B0F857
:1064D0008410C82901D8042902D83221A0F88410D8
:1064E000B0F88610CA087C2A00D811B93221A0F869
:1064F0008610B0F88810B1F5FA7F01D8632903D867
:106500004FF4BE71A0F88810B0F88A10C82901D8DD
:10651000042902D85021A0F88A10B0F88C10CA08BB
:106520007C2A00D811B93C21A0F88C10B0F88E104C
:10653000B1F5FA7F01D8632902D89621A0F88E1010
:10654000B0F89010C82901D8042902D82821A0F851
:106550009010B0F89210CA087C2A00D811B95A21BC
:10656000A0F89210B0F89410B1F5FA7F01D8632921
:1065700002D8B421A0F89410B0F89610C82901D818
:10658000042902D83221A0F89610B0F89810CA0851
:106590007C2A00D811B96421A0F89810B0F89A109C
:1065A000B1F5FA7F01D8632902D8F521A0F89A1035
:1065B000B0F89C10C82901D8042902D86421A0F899
:1065C0009C10B0F89E20D1087C2900D812B9322244
:1065D000A0F89E20B0F8A010B1F5FA7F01D8632989
:1065E00002D86421A0F8A0100D91B0F8A210C8291B
:1065F00001D8042902D88221A0F8A210B0F8A44042
:106600000C91E1087C2900D814B97824A0F8A440A2
:10661000B0F8A610B1F5FA7F01D8632902D8642139
:10662000A0F8A6100B91B0F8A810C82901D8042929
:1066300002D81421A0F8A810B0F8AA500A91E908CD
:106640007C2900D815B93C25A0F8AA50B0F8AC10A8
:10665000B1F5FA7F01D8632902D88C21A0F8AC10DB
:106660000991B0F8AE10C82901D8042902D81E211A
:10667000A0F8AE10B0F8B0600891F1087C2900D8FD
:1066800016B97826A0F8B060B0F8B210B1F5FA7F6C
:1066900001D8632902D8AA21A0F8B2100791B0F856
:1066A000B410C82901D8042902D82821A0F8B410B0
:1066B000B0F8B6700691F9087C2900D817B96E2792
:1066C000A0F8B670B0F8B810B1F5FA7F01D8632918
:1066D00002D8F021A0F8B8100591B0F8BA10C82976
:1066E00001D8042902D85021A0F8BA10B0F8BC3063
:1066F0000491D9087C2900D813B92823A0F8BC300C
:10670000B0F8BE10B1F5FA7F01D8632902D8642130
:10671000A0F8BE10B0F8C0E00191BEF1C80F02D8D9
:10672000BEF1040F03D84FF0640EA0F8C0E0B0F83B
:10673000C2B003934FEADB017C2902D8BBF1000F02
:1067400003D14FF0960BA0F8C2B0B0F8C4C00299C4
:10675000BCF5FA7F02D8BCF1630F03D84FF0640C8C
:10676000A0F8C4C0B0F8C6800E92B8F1C80F02D825
:10677000B8F1040F03D84FF01408A0F8C6804FEA10
:10678000DA027C2A02D8BAF1000F02D13C22A0F82A
:10679000C820B1F5FA7F01D8632902D88222A0F877
:1067A000CA20189A179BC82A01D8042A02D8232283
:1067B000A0F8CC20DA087C2A00D813B95022A0F81F
:1067C000CE20169AB2F5FA7F01D8632A02D8A02209
:1067D000A0F8D020149A139BC82A01D8042A02D802
:1067E0002D22A0F8D220DA087C2A00D813B95A2228
:1067F000A0F8D420129AB2F5FA7F01D8632A02D801
:10680000DC22A0F8D620119AC82A01D8042A02D87E
:106810005A22A0F8D820159AB2F57A7F24BF4622D2
:10682000A0F8DA20109AB2F5FA7F01D8632A02D8CC
:106830006422A0F8DC200F9AC82A01D8042A02D8C2
:106840007822A0F8DE20B0F8E0204FEAD20ABAF1B0
:106850007C0F00D812B96422A0F8E020B0F8E22042
:10686000B2F5FA7F01D8632A02D86422A0F8E220A8
:10687000B0F8E420C82A01D8042A02D81422A0F8CB
:10688000E420B0F8E620D3087C2B00D812B93C22D3
:10689000A0F8E620B0F8E820B2F5FA7F01D8632A24
:1068A00002D8A022A0F8E820B0F8EA20C82A01D82F
:1068B000042A02D83C22A0F8EA20B0F8EC20D30841
:1068C0007C2B00D812B96E22A0F8EC20B0F8EE2094
:1068D000B2F5FA7F01D8632A02D8BE22A0F8EE20D2
:1068E000B0F8F020C82A01D8042A02D84622A0F81D
:1068F000F020B0F8F220D3087C2B00D812B978220F
:10690000A0F8F220B0F8F420B2F5FA7F01D8632A9B
:1069100002D8FA22A0F8F420B0F8F620C82A01D84C
:10692000042A02D89622A0F8F620B0F8F820D3085E
:106930007C2B00D812B95022A0F8F820B0F8FA2029
:10694000B2F5FA7F01D8632A02D86422A0F8FA20AF
:10695000B0F8FC20C82A01D8042A02D89622A0F850
:10696000FC20B0F8FE20D3087C2B00D812B9B4224A
:10697000A0F8FE20B0F80021B2F5FA7F01D8632A12
:1069800002D86422A0F80021B0F80221C82A01D858
:10699000042A02D81422A0F80221B0F80421D30856
:1069A0007C2B00D812B93C22A0F80421B0F80621B3
:1069B000B2F5FA7F01D8632A02D86422A0F8062132
:1069C000B0F80821C82A01D8042A02D81422A0F855
:1069D0000821B0F80A21D3087C2B00D812B93C2238
:1069E000A0F80A21B0F80C21B2F5FA7F01D8632A89
:1069F00002D86422A0F80C21B0F80E21C82A01D8D0
:106A0000042A02D81422A0F80E21B0F81021D308CD
:106A10007C2B00D812B93C22A0F81021B0F812212A
:106A2000B2F5FA7F01D8632A02D86422A0F81221B5
:106A3000B0F81421C82A01D8042A02D81422A0F8D8
:106A40001421B0F81621D3087C2B00D812B93C22AF
:106A5000A0F81621B0F81821B2F5FA7F01D8632A00
:106A600002D86422A0F81821B0F81A21C82A01D847
:106A7000042A02D81422A0F81A21B0F81C21D30845
:106A80007C2B00D812B93C22A0F81C21B0F81E21A2
:106A9000B246B2F5FA7F01D8632A02D86422A0F880
:106AA0001E21B0F820212E46C82A01D8042A02D877
:106AB0001422A0F82021B0F8222139462546D30817
:106AC0007C2B00D812B93C22A0F82221028A037E36
:106AD00000F17807A9F87C1009F15401A9F86A506F
:106AE000DFF8C857A9F876A0A9F87060A9F82E2099
:106AF000827DA9F832302835A9F8302090F9282075
:106B0000A9F83420D0F82220C9F83620B0F86E2039
:106B1000A9F83A20026BC9F80820828EA9F80C2047
:106B200090F8362089F80E20028FA9F80F20B0F8CF
:106B30003B20A9F81120B0F87620A9F83C209CCF82
:106B4000C9F84230C9F84640C9F84A70D0F89230C6
:106B5000D0F89640D0F89A70C9F83E20B0F8882056
:106B6000A9F84E20B0F88A20A9F85020069AA9F872
:106B70007A20079AA9F87820089AA9F87420099A27
:106B8000A9F872200A9AA9F86E200B9AA9F86C202D
:106B90000C9AA9F868200D9AA9F866200E9AA9F80F
:106BA0006420B0F88C20A9F85220D0F88E209CC127
:106BB000DFF8F026D0F8D240D0F8CE300199C2F8F4
:106BC0001A4000F59474A2F80E80A2F80CC0A2F846
:106BD0000AB0A2F808E0C2F81630D180039991807B
:106BE0000499518005991180B0F8C8101182D0F82D
:106BF000CA10C2F81210B0F8D610D183B0F8D8106D
:106C00001184B0F8DA105184B0F8DC109184B0F837
:106C1000DE10D184B0F8E0101185B0F8E210518593
:106C2000B0F8E4109185B0F8E610D185B0F8E8101E
:106C30001186B0F8EA105186B0F8EC109186B0F8E1
:106C4000EE10D186B0F8F0101187B0F8F21051872D
:106C5000B0F8F4109187B0F8F610D187B0F8F810BA
:106C6000A2F84010B0F8FA10A2F84210B0F8FC10E8
:106C7000A2F84410B0F8FE10A2F84610B0F80011C7
:106C8000A2F84810B0F80211A2F84A10B0F80411A6
:106C9000A2F84C10B0F80611A2F84E10B0F8081186
:106CA000A2F85010B0F80A11A2F85210B0F80C1166
:106CB000A2F85410B0F80E11A2F85610B0F8101146
:106CC000A2F85810B0F81211A2F85A10B0F8141126
:106CD000A2F85C10B0F81611A2F85E10B0F8181106
:106CE000A2F86010B0F81A11A2F86210B0F81C11E6
:106CF000A2F86410B0F81E11A2F86610B0F82011C6
:106D0000A2F86810B0F82211A2F86A101ECC1EC5B5
:106D1000012189F814100170FEF7A5BE07F5006483
:106D2000204608F0E5FCB04200F01C82DFF88055F8
:106D30002046A847DFF87065FC4C3082A4F176004D
:106D4000A847B075A4F17400A8473076A4F172008A
:106D5000A84786F82800A4F17000A8477084A4F121
:106D60006E00A847B08404F15800A84786F83000A8
:106D7000A4F16C00A847A6F86E00A4F16A00A84729
:106D800086F83100A4F16800A84786F83200A4F123
:106D90006600A84786F83300A4F16400A84786F887
:106DA0003400A4F16200A84786F83500A4F1600021
:106DB000A84786F83600A4F15E00A84786F8380098
:106DC000A4F15C00A84786F83900A4F15A00A8474E
:106DD00086F83B00A4F15800A84786F83C00A4F1CF
:106DE0005600A847A6F87600A4F15400A847A6F8D4
:106DF0007800A4F15200A847A6F87A00A4F1500048
:106E0000A847A6F87C00A4F14E00A847A6F87E008B
:106E1000A4F14C00A847A6F88000A4F14A00A847B6
:106E2000A6F88200A4F14800A847A6F88400A4F1BF
:106E30004600A847A6F88600A4F14400A847A6F893
:106E40008800A4F14200A847A6F88A00A4F14000F7
:106E5000A847A6F88C00A4F13E00A847A6F88E002B
:106E6000A4F13C00A847A6F89000A4F13A00A84776
:106E7000A6F89200A4F13800A847A6F89400A4F15F
:106E80003600A847A6F89600A4F13400A847A6F853
:106E90009800A4F13200A847A6F89A00A4F13000A7
:106EA000A847A6F89C00A4F12E00A847A6F89E00CB
:106EB000A4F12C00A847A6F8A000A4F12A00A84736
:106EC000A6F8A200A4F12800A847A6F8A400A4F1FF
:106ED0002600A847A6F8A600A4F12400A847A6F813
:106EE000A800A4F12200A847A6F8AA00A4F1200057
:106EF000A847A6F8AC00A4F11E00A847A6F8AE006B
:106F0000A4F11C00A847A6F8B000A4F11A00A847F5
:106F1000A6F8B200A4F11800A847A6F8B400A4F19E
:106F20001600A847A6F8B600A4F11400A847A6F8D2
:106F3000B800A4F11200A847A6F8BA00A4F1100006
:106F4000A847A6F8BC00A4F10E00A847A6F8BE000A
:106F5000A4F10C00A847A6F8C000A4F10A00A847B5
:106F6000A6F8C200A4F10800A847A6F8C400A01F14
:106F7000A847A6F8C600201FA84700F07BFA00F03B
:106F80008EFA1890A6F8CC00A01CA8471790A6F877
:106F9000CE00201DA8471690A6F8D000A01DA84737
:106FA0001490A6F8D20004F10800A8471390A6F8A0
:106FB000D40004F10A00A8471290A6F8D60004F104
:106FC0000C00A8471190A6F8D80004F10E00A847BD
:106FD0001590A6F8DA0004F11000A8471090A6F862
:106FE000DC0004F11200A8470F90A6F8DE0004F1BF
:106FF0001400A847A6F8E00004F11600A847A6F878
:10700000E20004F11800A847A6F8E40004F11A0011
:10701000A84704F11E07A6F8E6003846A847A6F8D8
:10702000E8003846A847A6F8EA0004F12000A8477F
:10703000A6F8EC0004F12200A847A6F8EE0004F13F
:107040002400A847A6F8F00004F12600A847A6F8F7
:10705000F20004F12800A847A6F8F40004F12A0081
:10706000A847A6F8F60004F12C00A847A6F8F800F7
:1070700004F12E00A847A6F8FA0004F13000A84752
:10708000A6F8FC0004F13200A847A6F8FE0004F1BF
:107090003400A847A6F8000104F13600A847A6F876
:1070A000020104F13800A84704F13C07A6F80401E6
:1070B0003846A847A6F806013846A847A6F80801AA
:1070C00004F13E00A847A6F80A0104F14000A847D1
:1070D000A6F80C0104F14200A847A6F80E0104F13D
:1070E0004400A847A6F8100104F14600A847A6F8F6
:1070F000120104F14800A847A6F8140104F14A005F
:10710000A847A6F8160104F14C00A847A6F81801F4
:1071100004F14E00A847A6F81A0104F15000A84750
:10712000A6F81C0104F1520000F002B878FC010836
:10713000A847A6F81E0104F15400A847A6F82001AC
:1071400004F15600A847A6F8220104F15C00A84704
:107150000027C6E94A0704F15E00A847C6E94C07C4
:10716000FFF7EFB80A2150486422544B544C554D58
:10717000554E564F4FF0000C4FF00A0A15915449E6
:107180000276282280F828C0C0F81A31C0F81641CB
:10719000C0F80E31C0F80A51C0F80661C0F80231DB
:1071A000C0F8FE40C0F8F630C0F8F240C0F8EA700F
:1071B000C0F8DE30C0F8DA40C0F8D230C0F8CE50A7
:1071C000C0F8CA60C0F8C630C0F8C240C0F8BA30D3
:1071D000C0F8B640C0F8AE70C0F8A230C0F89E400B
:1071E000C0F89630C0F89250C0F88E60C0E94ACC22
:1071F000C0E94CCCC0F8E610C0F8AA103549827539
:107200004FF4967202821E22C0F88A103249A0F80A
:107210006E20284AC0F886103049C0F822204FF06E
:107220000132C0F832200122C0F882102C490286B7
:1072300080F836200A22A0F822211F4AC0F87E10CA
:107240002849C0F81E21C0F81221C0F8FA20C0F861
:10725000EE20C0F8E220C0F8D620C0F8BE20C0F86A
:10726000B220C0F8A620C0F89A20C0F87A101E49B3
:10727000C0F876104FF4803181636E2002901420A4
:1072800018903C201790C820109032200F90119039
:10729000C82012900A20139032201490C820169013
:1072A000FFF74FB80E010020082A002090010020AF
:1072B000B5F9000832003C00C800320032000A0074
:1072C0000A00C8003C00C8006E00140014003C0016
:1072D0000A006E0050003C0032007C015E0132006A
:1072E0002D0028001E0040012C012800FEE7FEE7CB
:1072F0007047016841F008010160016841F0040134
:107300000160016821F400710160016821F480616D
:107310000160816821F480718160816821F40071CD
:107320008160016841F020010160016841F0400185
:107330000160016841F4005101607047010E87F857
:10734000160187F81311010C000A87F8141187F849
:107350001501704790F83E20531EDBB2042B704796
:107360000021418290F83110012970470021C17538
:1073700090F82F100329704780F86D3001828275D4
:1073800090F82C10704780F86D30A0F86E107047A0
:1073900007F5017520461022294608F001B994F836
:1073A0003E00013803287047026842F00102026083
:1073B0001520162287F81701704791F82F0003282F
:1073C00070470A6842F001020A60B97CB1EB106FA5
:1073D000704706F10C0102200A2274750BF046B8C2
:1073E0009DF807006060BCBDD0E90812013142F190
:1073F0000002C0E908127047002141640164816302
:107400004163D1600163704745F254010222D0F814
:1074100004482047C860B8F828100131A8F828109F
:10742000704721460BF022B8C7F802012846FDF745
:10743000F0B891B28282890011FA82F1A0397047C6
:10744000206820F00100206010BD91F83D20C87533
:107450004882704790F84020002A704791F83D20FC
:10746000013A012A7047BDF80C209DF80B301A44F0
:10747000824270478246A6F8C80020462847016825
:1074800041F0010101607047022180F8201070472F
:10749000818A40F2713301F13202994270470290C1
:1074A000A6F8CA0020462847BDF804200A32ADF8E5
:1074B00004209DF8072001328DF80720704790F8CE
:1074C0003D100139022970472846042108F08AB886
:1074D000012180F8201070470020488291F8310087
:1074E0000128704756F823301B88A0F87230704787
:1074F0002DE9FC41FDF7EAF82D4FB863B86B396C04
:10750000FDF792F838642B4C386C2146FDF762F990
:1075100000B93C64386C00210024FDF777F900B90C
:107520003C64D7E90986B86BBC6C796BFDF7CEF883
:10753000F8633046BD6B396CFDF7CEF801900094CE
:1075400001980099FDF738F908B900980190019861
:10755000009981F00041FDF74BF918B9009880F0CF
:107560000040019040462946FDF7B6F80199FDF725
:107570005BF80446F86ABD6BF96BFDF7ADF8214680
:10758000FDF752F878647D63786CF96CFDF714F9B7
:1075900008B9F86C7864786CF96C81F00041FDF7FB
:1075A00027F908B900207864786CBDE8FC8100BF39
:1075B0007002002000C82F47B0B542F60820C2F282
:1075C000000090F83D001A2840F06984FFE740F27F
:1075D000C420C2F200000078032800F25F84DFE8D4
:1075E00010F004008B009503E00342F60824C2F279
:1075F0000004606894F92910084494F92810401A8E
:1076000040F2C021C2F20001088042F64030C2F2CE
:107610000000D0F804C894F83F3045F2420102223D
:10762000E04794F8400000285ED1FFE740F2C02018
:10763000C2F20000427840F25A01C2F200010A731D
:107640000078487302200E220AF010FF40F2C22098
:10765000C2F2000001780131017000784AF6AB21D6
:10766000CAF6AA2148434FEAB00045F25551C1F28B
:107670005551884237D8FFE742F60820C2F2000091
:1076800090F83100012810D1FFE742F64030C2F2F5
:107690000000D0F8044842F60821C2F200010B892C
:1076A00045F23F010222A0471CE042F60820C2F248
:1076B000000090F83100A0B9FFE742F64030C2F276
:1076C0000000D0F8044842F60821C2F200014A68DE
:1076D00091F9291011448BB245F23F010222A047D3
:1076E000FFE7FFE7FFE7FFE740F2C420C2F2000038
:1076F000017801310170D1E342F60820C2F20000A6
:1077000090F83F00012840F08D82FFE742F6082004
:10771000C2F2000090F86C00002840F09980FFE76A
:1077200042F60820C2F2000090F83E0001281CD169
:10773000FFE742F64030C2F20000D0F8044842F6BB
:107740000825C2F20005B5F8903045F2400102224A
:10775000A04795F8900040F26801C2F2000148731A
:1077600002200E220AF082FE71E042F60820C2F2E8
:10777000000090F83E0002281CD1FFE742F640309E
:10778000C2F20000D0F8045842F60824C2F2000405
:10779000B4F8963045F240010222A84794F89600CA
:1077A00040F26801C2F20001487302200E220AF082
:1077B0005DFE4BE042F60820C2F2000090F83E0069
:1077C00003281CD1FFE742F64030C2F20000D0F897
:1077D000045842F60824C2F20004B4F89C3045F282
:1077E00040010222A84794F89C0040F26801C2F2CE
:1077F0000001487302200E220AF038FE25E042F60E
:107800000820C2F2000090F83E0004281CD1FFE7D7
:1078100042F64030C2F20000D0F8045842F6082484
:10782000C2F20004B4F8A23045F240010222A84797
:1078300094F8A20040F26801C2F2000148730220ED
:107840000E220AF013FEFFE7FFE7FFE7FFE7E8E19C
:1078500042F60820C2F2000090F86C00012840F0C7
:107860009980FFE742F60820C2F2000090F83E003F
:1078700001281CD1FFE742F64030C2F20000D0F8E8
:10788000045842F60824C2F20004B4F8AE3045F2BF
:1078900040010222A84794F8AE0040F26801C2F20B
:1078A0000001487302200E220AF0E0FD71E042F66A
:1078B0000820C2F2000090F83E0002281CD1FFE729
:1078C00042F64030C2F20000D0F8045842F60824D4
:1078D000C2F20004B4F8B43045F240010222A847D5
:1078E00094F8B40040F26801C2F20001487302202B
:1078F0000E220AF0BBFD4BE042F60820C2F2000067
:1079000090F83E0003281CD1FFE742F64030C2F257
:107910000000D0F8045842F60824C2F20004B4F87B
:10792000BA3045F240010222A84794F8BA0040F26A
:107930006801C2F20001487302200E220AF096FD8F
:1079400025E042F60820C2F2000090F83E0004282C
:107950001CD1FFE742F64030C2F20000D0F80458D4
:1079600042F60824C2F20004B4F8C03045F24001E7
:107970000222A84794F8C00040F26801C2F2000158
:10798000487302200E220AF071FDFFE7FFE7FFE7D0
:10799000FFE745E142F60820C2F2000090F86C00D3
:1079A000022840F09980FFE742F60820C2F200006A
:1079B00090F83E0001281CD1FFE742F64030C2F2A9
:1079C0000000D0F8045842F60824C2F20004B4F8CB
:1079D000CC3045F240010222A84794F8CC0040F296
:1079E0006801C2F20001487302200E220AF03EFD37
:1079F00071E042F60820C2F2000090F83E00022832
:107A00001CD1FFE742F64030C2F20000D0F8045823
:107A100042F60824C2F20004B4F8D23045F2400124
:107A20000222A84794F8D20040F26801C2F2000195
:107A3000487302200E220AF019FD4BE042F608209E
:107A4000C2F2000090F83E0003281CD1FFE742F686
:107A50004030C2F20000D0F8045842F60824C2F2C6
:107A60000004B4F8D83045F240010222A84794F847
:107A7000D80040F26801C2F20001487302200E22D1
:107A80000AF0F4FC25E042F60820C2F2000090F86B
:107A90003E0004281CD1FFE742F64030C2F200004D
:107AA000D0F8045842F60824C2F20004B4F8DE30DC
:107AB00045F240010222A84794F8DE0040F2680136
:107AC000C2F20001487302200E220AF0CFFCFFE749
:107AD000FFE7FFE7FFE7A2E042F60820C2F200005E
:107AE00090F86C00032840F09980FFE742F60820E8
:107AF000C2F2000090F83E0001281CD1FFE742F6D8
:107B00004030C2F20000D0F8045842F60824C2F215
:107B10000004B4F8EA3045F240010222A84794F884
:107B2000EA0040F26801C2F20001487302200E220E
:107B30000AF09CFC71E042F60820C2F2000090F8C6
:107B40003E0002281CD1FFE742F64030C2F200009E
:107B5000D0F8045842F60824C2F20004B4F8F03019
:107B600045F240010222A84794F8F00040F2680173
:107B7000C2F20001487302200E220AF077FC4BE0AB
:107B800042F60820C2F2000090F83E0003281CD103
:107B9000FFE742F64030C2F20000D0F8045842F647
:107BA0000824C2F20004B4F8F63045F24001022283
:107BB000A84794F8F60040F26801C2F20001487349
:107BC00002200E220AF052FC25E042F60820C2F202
:107BD000000090F83E0004281CD1FFE742F6403038
:107BE000C2F20000D0F8045842F60824C2F20004A1
:107BF000B4F8FC3045F240010222A84794F8FC009A
:107C000040F26801C2F20001487302200E220AF01D
:107C10002DFCFFE7FFE7FFE7FFE7FFE7FFE7FFE7F1
:107C2000FFE76BE042F60820C2F2000090F83F0048
:107C3000002862D1FFE742F60820C2F2000090F867
:107C40004000002858D1FFE740F2C320C2F20000F4
:107C500001780131017042F60820C2F2000040684C
:107C6000472832D3FFE740F2C320C2F20000007879
:107C70004AF6AB21CAF6AA2148434FEAB00045F2C2
:107C80005551C1F25551884210D8FFE742F64030B5
:107C9000C2F20000D0F8045842F60821C2F20001F6
:107CA0004B7E45F240010222A847FFE742F608203A
:107CB000C2F20000407E40F26801C2F20001487347
:107CC00002200E220AF0D2FB15E042F64030C2F24A
:107CD0000000D0F80458002445F24001022200239D
:107CE000A84740F26801C2F200014C7302200E2244
:107CF0000AF0BCFBFFE7FFE7FFE7FFE740F2C42025
:107D0000C2F20000017801310170C7E042F608209C
:107D1000C2F2000090F83F0001281BD1FFE742F6B5
:107D20004034C2F20004D4F80458204646F29301CD
:107D3000022244F25073A847D4F8045842F60820AF
:107D4000C2F20000B0F87230204645F24101022232
:107D5000A8471EE042F60820C2F2000090F83F005B
:107D6000B0B9FFE742F64034C2F20004D4F8045838
:107D7000204646F2930102224FF6FF73A847D4F83B
:107D80000458204645F2410102220023A847FFE79C
:107D9000FFE740F2C420C2F2000001780131017017
:107DA0007CE042F60820C2F2000090F83F00012873
:107DB00058D1FFE742F60820C2F2000090F83E00DA
:107DC00001280CD1FFE742F64030C2F20000D0F8A3
:107DD000045845F2430102220123A84741E042F63C
:107DE0000820C2F2000090F83E0002280CD1FFE704
:107DF00042F64030C2F20000D0F8045845F2430188
:107E000002220223A8472BE042F60820C2F200001B
:107E100090F83E0003280CD1FFE742F64030C2F252
:107E20000000D0F8045845F2430102220323A8477A
:107E300015E042F60820C2F2000090F83E00042847
:107E40000CD1FFE742F64030C2F20000D0F80458EF
:107E500045F2430102220423A847FFE7FFE7FFE7BB
:107E6000FFE714E042F60820C2F2000090F83F005D
:107E700060B9FFE742F64030C2F20000D0F8045883
:107E800045F2430102220023A847FFE7FFE740F243
:107E9000C420C2F2000000210170FFE7FFE7B0BD7F
:107EA000F0B583B042F60820C2F2000090F83D0021
:107EB000022840F07F85FFE740F2C720C2F20000B1
:107EC000007838BBFFE742F60820C2F2000000212C
:107ED000C17540F29000C2F200004177017740F294
:107EE000C820C2F20000018040F2CA20C2F20000A5
:107EF000018040F2CC20C2F20000018040F2C52097
:107F0000C2F20000017040F2C720C2F2000001215D
:107F10000170FFE740F2D220C2F20000007804288E
:107F200000F24785DFE810F005005F020704E60471
:107F30002D0542F60820C2F2000090F83C0050B136
:107F4000FFE742F60820C2F2000090F83C0001284A
:107F500040F02781FFE742F60820C2F200004168A6
:107F600090F92920114490F92820891A029190F85B
:107F70003C00012804D1FFE7029832380290FFE765
:107F800042F60820C2F2000090F8310000286FD1BC
:107F9000FFE742F60820C2F2000090F82D00012809
:107FA0000FD1FFE742F60820C2F2000090F83A0035
:107FB000012806D1FFE742F60820C2F2000040681F
:107FC00001E00298FFE740F2CE21C2F200010880F2
:107FD000B1F9000042F60821C2F20001B1F87410B4
:107FE00088420CDAFFE742F60820C2F20000B0F83F
:107FF000740040F2CE21C2F200010880FFE742F691
:108000000820C2F20000018A40F2D022C2F200022F
:10801000118090F83300012829D1FFE740F2CE20EB
:10802000C2F20000B0F9000042F60821C2F20001DD
:10803000098A143188421ADAFFE740F2CE20C2F2F0
:108040000000B0F9000042F60821C2F20001098ADE
:10805000143988420BDDFFE740F2D020C2F2000065
:10806000008840F2CE21C2F200010880FFE797E0CD
:1080700042F60820C2F2000090F83100012840F0DA
:108080008E80FFE742F60820C2F2000090F82D0033
:1080900001281AD1FFE742F60820C2F2000090F84A
:1080A0003A00012811D1FFE742F60820C2F2000091
:1080B000406800EBC0004CF6CD41CCF6CC41A0FBB3
:1080C0000101202000EB91000DE0029800EBC000C0
:1080D00046F26761C6F2666150FB01F0411001EBA8
:1080E000D0702030FFE740F2CE21C2F200010880BC
:1080F00042F60820C2F20000B0F8740000EBC000A5
:1081000043F23432C3F23332A0FB020202F1200008
:108110000190B1F900000199884207DAFFE7019860
:1081200040F2CE21C2F200010880FFE742F60820AB
:10813000C2F20000818A40F2D022C2F20002118015
:1081400090F83300012829D1FFE740F2CE20C2F297
:108150000000B0F9000042F60821C2F20001898A4D
:10816000243188421ADAFFE740F2CE20C2F2000042
:10817000B0F9000042F60821C2F20001898A2439D0
:1081800088420BDDFFE740F2D020C2F200000088F9
:1081900040F2CE21C2F200010880FFE7FFE7FFE7CF
:1081A000FFE742F60820C2F2000090F830000128F4
:1081B00040F01181FFE742F60820C2F2000090F87B
:1081C0002F0098B1FFE742F60820C2F2000090F8B5
:1081D0002F0002280AD0FFE742F60820C2F2000072
:1081E00090F82F00032840F0F580FFE742F60820C2
:1081F000C2F20000418A008A81420DD1FFE740F2BD
:10820000CC20C2F20000008842F60821C2F2000130
:10821000898A884246D0FFE742F60820C2F2000071
:10822000018A4182808A40F2CC21C2F2000108809A
:1082300040F29000C2F20000007FE0B9FFE742F692
:108240004034C2F20004D4F804580126204645F216
:10825000030102220123A847D4F80458204646F21D
:10826000C30102224FF66043A84740F29000C2F2D9
:1082700000000677FFE740F20E10C2F20000002176
:10828000A0F8741042F64030C2F20000D0F8046842
:1082900040F2D021C2F200010B8845F21001022207
:1082A000B047FFE740F29000C2F20000007F0128D3
:1082B0003AD1FFE740F20E10C2F20000B0F874109D
:1082C0000131A0F8741088B232282DDBFFE742F6A6
:1082D0004034C2F20004D4F804680025204645F278
:1082E000030102220023B047D4F80468204646F276
:1082F000C30102224FF6FF73B04740F2C820C2F21A
:108300000000058040F2C520C2F20000012101708A
:1083100040F20E10C2F20000A0F8745040F290003B
:10832000C2F20000057754E040F29000C2F2000073
:10833000007F00284CD1FFE740F2C520C2F20000C8
:108340000178013901700806002841D1FFE740F2A9
:10835000C520C2F200000821017040F2C820C2F21C
:108360000000008842F60821C2F2000149688842F4
:108370000DD1FFE740F2CA20C2F20000008842F6A9
:108380000821C2F200018968884220D0FFE742F646
:108390000820C2F20000416840F2C822C2F2000286
:1083A0001180806840F2CA21C2F20001088042F6C2
:1083B0004030C2F20000D0F8046840F2CE21C2F290
:1083C00000010B8845F210010222B047FFE7FFE7EA
:1083D000FFE7FFE7FFE740F2D220C2F2000001789A
:1083E00001310170E5E242F60820C2F2000090F887
:1083F0003000012840F05381FFE742F60820C2F226
:10840000000090F82F0050B1FFE742F60820C2F2BA
:10841000000090F82F00022840F00881FFE740F2AA
:108420009000C2F20000407F002872D1FFE742F6C0
:108430000820C2F20000817DADF8021000218DF805
:10844000011090F82C00012808D1FFE742F608201F
:10845000C2F2000090F82D0080B1FFE742F608203C
:10846000C2F2000090F83A0040B1FFE742F608205F
:10847000C2F2000090F82C0020B9FFE701208DF82F
:1084800001002CE042F60820C2F2000090F82C0017
:10849000012823D1FFE742F60820C2F2000090F83D
:1084A0002D0001281AD1FFE742F60820C2F2000091
:1084B0004068402806D8FFE742F60820C2F20000D4
:1084C000807D05E042F60820C2F20000407EFFE712
:1084D000ADF8020001208DF80100FFE7FFE79DF8ED
:1084E0000100C007A0B1FFE742F64030C2F2000031
:1084F000D0F80468BDF8023045F211010222B047FD
:108500009DF8020040F26801C2F200014873FFE7E3
:10851000FFE742F60820C2F20000817DC07D88425C
:1085200040D0FFE742F60820C2F20000817DC1750D
:1085300040F29000C2F20000407FE0B9FFE742F64F
:108540004034C2F20004D4F804680125204645F204
:10855000040102220123B047D4F80468204646F201
:10856000F301022243F67F43B04740F29000C2F28B
:1085700000004577FFE740F20E10C2F20000002134
:10858000A0F8721042F64030C2F20000D0F8046841
:1085900042F60821C2F200018B7D45F21101022250
:1085A000B047FFE740F29000C2F20000407F012890
:1085B0003BD1FFE740F20E10C2F20000B0F872109B
:1085C0000131A0F8721088B232282EDBFFE742F6A4
:1085D0004034C2F20004D4F804680025204645F275
:1085E000040102220023B047D4F80468204646F272
:1085F000F30102224FF6FF73B047D4F8046842F645
:108600000820C2F20000837D204645F211010222BB
:10861000B04740F20E10C2F20000A0F8725040F2D3
:108620009000C2F200004577FFE737E042F60820ED
:10863000C2F2000090F82F0003282ED1FFE742F687
:108640004034C2F20004D4F804680125204645F203
:10865000040102220123B047D4F80468204646F200
:10866000F301022243F67F43B047D4F8046842F690
:108670000827C2F200073B7E204645F21101022284
:10868000B047387E40F26801C2F20001487340F200
:10869000C620C2F200000570FFE7FFE7FFE742F6E1
:1086A0000820C2F2000090F82F00032824D0FFE732
:1086B00040F2C620C2F20000007801281CD1FFE77A
:1086C00040F2C620C2F200000021017042F64034A0
:1086D000C2F20004D4F80478204645F204010222D4
:1086E0000023B847D4F80478204646F2F30102226A
:1086F0004FF6FF73B847FFE742F60820C2F20000CA
:10870000C068FA2807D8FFE740F26800C2F200000C
:1087100000214173FFE740F26801C2F2000102202C
:108720000E2209F0A3FE40F2D220C2F2000001782E
:10873000013101703DE142F60820C2F2000090F8DC
:108740006D0001282CD1FFE742F60820C2F200009C
:10875000B0F87610008A814215D1FFE742F6082072
:10876000C2F20000B0F87810807D81420BD1FFE7A3
:1087700042F60820C2F20000B0F87A10B0F86E009D
:1087800081420CD0FFE742F64030C2F20000D0F840
:10879000047845F2540102220023B847FFE7A1E024
:1087A00042F60820C2F2000090F86D0002282CD199
:1087B000FFE742F60820C2F20000B0F87C10008A01
:1087C000814215D1FFE742F60820C2F20000B0F85E
:1087D0007E10807D81420BD1FFE742F60820C2F275
:1087E0000000B0F88010B0F86E0081420CD0FFE7B6
:1087F00042F64030C2F20000D0F8047845F254014D
:1088000002220023B847FFE76BE042F60820C2F2DD
:10881000000090F86D0003282CD1FFE742F60820F5
:10882000C2F20000B0F88210008A814215D1FFE741
:1088300042F60820C2F20000B0F88410807D814228
:108840000BD1FFE742F60820C2F20000B0F8861014
:10885000B0F86E0081420CD0FFE742F64030C2F221
:108860000000D0F8047845F2540102220023B847F2
:10887000FFE735E042F60820C2F2000090F86D00F4
:1088800004282CD1FFE742F60820C2F20000B0F81D
:108890008810008A814215D1FFE742F60820C2F213
:1088A0000000B0F88A10807D81420BD1FFE742F6CC
:1088B0000820C2F20000B0F88C10B0F86E008142BF
:1088C0000CD0FFE742F64030C2F20000D0F8047846
:1088D00045F2540102220023B847FFE7FFE7FFE714
:1088E000FFE7FFE740F2D220C2F200000178013139
:1088F00001705EE042F60820C2F2000090F84300EA
:10890000C007D8B1FFE742F64034C2F20004D4F801
:108910000478204646F20311022244F25073B8470D
:10892000D4F8047842F60820C2F20000B0F87030A3
:10893000204645F212010222B8471AE042F64034BE
:10894000C2F20004D4F80478204646F20311022251
:108950004FF6FF73B847D4F8047842F60820C2F205
:108960000000B0F86E30204645F212010222B847EE
:10897000FFE740F2D220C2F200000178013101701D
:1089800017E042F60820C2F2000041680A0A40F2ED
:108990005A01C2F200010A734068487302200E2295
:1089A00009F064FD40F2D220C2F200000021017003
:1089B000FFE706E040F2C720C2F20000002101708C
:1089C000FFE703B0F0BD0000F0B585B040F2E42051
:1089D000C2F2000001780131017040F2DC20C2F2E5
:1089E00000000078FBF720FF044640F29010C2F22E
:1089F0000000C0684CF20001C4F21541FBF79EFE76
:108A000001462046FBF7F4FE40B9FFE740F2DC20C8
:108A1000C2F20000017801310170FFE740F2DC2072
:108A2000C2F200000078FBF7FFFE044640F290100F
:108A3000C2F20000C0684CF20001C4F21541FBF71D
:108A40007DFE01462046FBF7B7FE40B9FFE740F246
:108A5000DC20C2F20000017801390170FFE742F624
:108A60000820C2F2000090F83D00012840F01D8768
:108A7000FFE740F2D420C2F20000007870BBFFE7AD
:108A800040F2E420C2F200000021017040F25800E0
:108A9000C2F200000822027040F29000C2F2000010
:108AA0000177417740F2DA20C2F20000018040F203
:108AB000D820C2F20000018040F2D620C2F20000AD
:108AC000018042F60820C2F200004182C17540F2E6
:108AD000D420C2F2000001210170FFE740F2E22041
:108AE000C2F200000078082800F2DE86DFE810F00D
:108AF0000900B901B104AE05E20529067106A10617
:108B0000C20642F60820C2F2000090F830000128A8
:108B100040F07181FFE742F60820C2F2000090F8B1
:108B20002F0050B1FFE742F60820C2F2000090F893
:108B30002F00022840F02481FFE740F29000C2F2AB
:108B40000000407F002840F08580FFE742F60820C3
:108B5000C2F20000817DADF8121000218DF81110D5
:108B600090F82C00012808D1FFE742F60820C2F255
:108B7000000090F82D0080B1FFE742F60820C2F215
:108B8000000090F83A0040B1FFE742F60820C2F238
:108B9000000090F82C0020B9FFE701208DF81100AB
:108BA0003BE042F60820C2F2000090F82C000128B9
:108BB00032D1FFE742F60820C2F2000090F82D0003
:108BC000012829D1FFE740F2E420C2F2000000783A
:108BD0004CF6CD41CCF6CC414843B0F1333F1AD8E6
:108BE000FFE742F60820C2F200004068402806D89D
:108BF000FFE742F60820C2F20000807D05E042F661
:108C00000820C2F20000407EFFE7ADF8120001200C
:108C10008DF81100FFE7FFE7FFE79DF81100C0079F
:108C2000B8B1FFE742F64034C2F20004D4F8045869
:108C3000BDF81230204645F20E010222A847D4F8B2
:108C40000458BDF81230204645F20C010222A84714
:108C5000FFE7FFE742F60820C2F20000817DC07DF9
:108C6000884249D0FFE742F60820C2F20000817D29
:108C7000C17540F29000C2F20000407FE0B9FFE70A
:108C800042F64034C2F20004D4F8045801262046CB
:108C900045F2040102220123A847D4F804582046D3
:108CA00046F26301022243F67F43A84740F2900058
:108CB000C2F200004677FFE740F20E10C2F2000059
:108CC0000021A0F8721042F64034C2F20004D4F839
:108CD000046842F60825C2F20005AB7D204645F245
:108CE0000E010222B047D4F80468AB7D204645F25D
:108CF0000C010222B047FFE740F29000C2F20000F0
:108D0000407F01283BD1FFE740F20E10C2F2000085
:108D1000B0F872100131A0F8721088B232282EDB40
:108D2000FFE742F64034C2F20004D4F8046800259C
:108D3000204645F2040102220023B047D4F804681B
:108D4000204646F2630102224FF6FF73B047D4F883
:108D5000046842F60820C2F20000837D204645F2F6
:108D60000E010222B04740F20E10C2F20000A0F83D
:108D7000725040F29000C2F200004577FFE739E000
:108D800042F60820C2F2000090F82F00032830D1EC
:108D9000FFE742F64034C2F20004D4F8046801252B
:108DA000204645F2040102220123B047D4F80468AA
:108DB000204646F26301022243F67F43B047D4F8CF
:108DC000046842F60827C2F200073B7E204645F2BF
:108DD0000E010222B047D4F804683B7E204645F2DB
:108DE0000C010222B04740F2D320C2F2000005700D
:108DF000FFE7FFE7FFE742F60820C2F2000090F825
:108E00002F00032824D0FFE740F2D320C2F2000055
:108E1000007801281CD1FFE740F2D320C2F2000005
:108E20000021017042F64034C2F20004D4F8047804
:108E3000204645F2040102220023B847D4F8047802
:108E4000204646F2630102224FF6FF73B847FFE760
:108E500040F2E220C2F2000001780131017000F01E
:108E600023BD42F60820C2F2000090F83C0050B149
:108E7000FFE742F60820C2F2000090F83C0001280B
:108E800040F08481FFE742F60820C2F2000041680A
:108E900090F92920114490F92820891A039190F81B
:108EA0003C00012804D1FFE7039832380390FFE724
:108EB00042F60820C2F2000090F83100002840F08D
:108EC0009E80FFE742F60820C2F2000090F82D00D5
:108ED00001280FD1FFE742F60820C2F2000090F807
:108EE0003A00012806D1FFE742F60820C2F200004E
:108EF000406801E00398FFE740F2DE21C2F2000182
:108F00000880B1F9000042F60821C2F20001B1F870
:108F1000741088420CDAFFE742F60820C2F2000023
:108F2000B0F8740040F2DE21C2F200010880FFE7D1
:108F300040F2DE20C2F20000B0F90000FBF782FC34
:108F400049F69A12C9F6991249F69913C3F6D973DC
:108F5000FBF7D1F9FBF7C1FC40F2E321C2F20001BB
:108F6000087042F60820C2F20000018A40F2E022B6
:108F7000C2F20002118090F8330001283ED1FFE7D1
:108F800040F2DE20C2F20000B0F9000042F60821F3
:108F9000C2F20001098A143188422FDAFFE740F259
:108FA000DE20C2F20000B0F9000042F60821C2F251
:108FB0000001098A1439884220DDFFE740F2E020F1
:108FC000C2F20000008840F2DE21C2F200010880F7
:108FD000B1F90000FBF736FC49F69A12C9F699126E
:108FE00049F69913C3F6D973FBF785F9FBF775FCBE
:108FF00040F2E321C2F200010870FFE7C5E042F64B
:109000000820C2F2000090F83100012840F0BC8036
:10901000FFE742F60820C2F2000090F82D00012878
:109020001AD1FFE742F60820C2F2000090F83A0099
:10903000012811D1FFE742F60820C2F20000406883
:1090400000EBC0004CF6CD41CCF6CC41A0FB0101B9
:10905000202000EB91000DE0039800EBC00046F2E9
:109060006761C6F2666150FB01F0411001EBD07000
:109070002030FFE740F2DE21C2F20001088042F614
:109080000820C2F20000B0F8740000EBC00043F208
:109090003432C3F23332A0FB020202F1200002900C
:1090A000B1F900000299884207DAFFE7029840F21E
:1090B000DE21C2F200010880FFE740F2DE20C2F2AA
:1090C0000000B0F90000FBF7BDFB47F6E122CAF64D
:1090D00014624EF24713C3F6CA73FBF70CF9FBF7A1
:1090E000FCFB40F2E321C2F20001087042F60820C6
:1090F000C2F20000818A40F2E022C2F20002118036
:1091000090F8330001283ED1FFE740F2DE20C2F2A2
:109110000000B0F9000042F60821C2F20001898A7D
:10912000243188422FDAFFE740F2DE20C2F200004D
:10913000B0F9000042F60821C2F20001898A243900
:10914000884220DDFFE740F2E020C2F20000008804
:1091500040F2DE21C2F200010880B1F90000FBF705
:1091600071FB47F6E122CAF614624EF24713C3F6CA
:10917000CA73FBF7C0F8FBF7B0FB40F2E321C2F281
:1091800000010870FFE7FFE7FFE7FFE742F608206E
:10919000C2F2000090F83000012840F05281FFE751
:1091A00042F60820C2F2000090F82F0098B1FFE7C5
:1091B00042F60820C2F2000090F82F0002280AD0E0
:1091C000FFE742F60820C2F2000090F82F000328C3
:1091D00040F03681FFE742F60820C2F20000418AE3
:1091E000008A81420ED1FFE740F2DA20C2F200008D
:1091F000008842F60821C2F20001898A884200F004
:109200008580FFE742F60820C2F20000018A418211
:10921000808A40F2DA21C2F20001088040F2900018
:10922000C2F20000007FE0B9FFE742F64034C2F22C
:109230000004D4F804780125204645F203010222F7
:109240000123B847D4F80478204646F203010222ED
:109250004FF66043B84740F29000C2F20000057735
:10926000FFE740F20E10C2F200000021A0F87410D7
:1092700042F64030C2F20000D0F8047840F2E0211B
:10928000C2F200010B8845F207010222B84742F6FC
:109290000820C2F2000090F8310090B9FFE740F2D8
:1092A000E020C2F200000088FBF7CCFA49F69A12DF
:1092B000C9F6991249F69913C3F6D973FBF71BF84F
:1092C00011E040F2E020C2F200000088FBF7BAFA99
:1092D00047F6E122CAF614624EF24713C3F6CA7388
:1092E000FBF709F8FFE7FBF7F8FA40F2E321C2F2D7
:1092F0000001087042F64030C2F20000D0F8047855
:109300000B7845F20B010222B847FFE740F29000CC
:10931000C2F20000007F01282FD1FFE740F20E10BB
:10932000C2F20000B0F874100131A0F8741088B2D5
:10933000322822DBFFE742F64034C2F20004D4F8C0
:1093400004780025204645F2030102220023B84795
:10935000D4F80478204646F2030102224FF6FF7348
:10936000B84740F20E10C2F20000A0F8745040F26C
:109370009000C2F20000057761E040F29000C2F276
:109380000000007F002859D1FFE740F25800C2F2E8
:109390000000017801390170080600284ED1FFE76E
:1093A00040F25800C2F200000821017040F2D620BD
:1093B000C2F20000008842F60821C2F200014968AA
:1093C00088420DD1FFE740F2D820C2F200000088A9
:1093D00042F60821C2F20001896888422DD0FFE7D9
:1093E00042F60820C2F20000416840F2D622C2F2E2
:1093F00000021180806840F2D821C2F2000108808A
:1094000042F64034C2F20004D4F8047840F2DE2080
:10941000C2F200000388204645F207010222B84745
:10942000D4F8047840F2E320C2F20000037820462A
:1094300045F20B010222B847FFE7FFE7FFE7FFE72E
:10944000FFE740F2E220C2F2000001780131017032
:109450002AE240F2D520C2F20000007842F608214C
:10946000C2F2000191F86D10884218D0FFE742F671
:109470000821C2F2000191F86D0040F2D522C2F23B
:109480000002107042F64030C2F20000D0F80478BA
:1094900091F86D3045F254010222B847FFE742F6D9
:1094A0000820C2F2000090F86D008DF8070000203F
:1094B0008DF806009DF80700012827D1FFE742F646
:1094C0000820C2F20000B0F87610028A0120914212
:1094D00017D1FFE742F60820C2F20000B0F878107A
:1094E000827D012091420CD1FFE742F60820C2F2B2
:1094F0000000B0F87A10B0F86E00081A18BF01200A
:10950000FFE700F001008DF8060086E09DF80700F7
:10951000022827D1FFE742F60820C2F20000B0F887
:109520007C10028A0120914217D1FFE742F6082001
:10953000C2F20000B0F87E10827D012091420CD171
:10954000FFE742F60820C2F20000B0F88010B0F841
:109550006E00081A18BF0120FFE700F001008DF827
:10956000060059E09DF80700032827D1FFE742F6DF
:109570000820C2F20000B0F88210028A0120914255
:1095800017D1FFE742F60820C2F20000B0F88410BD
:10959000827D012091420CD1FFE742F60820C2F201
:1095A0000000B0F88610B0F86E00081A18BF01204D
:1095B000FFE700F001008DF806002CE09DF80700A1
:1095C000042827D1FFE742F60820C2F20000B0F8D5
:1095D0008810028A0120914217D1FFE742F6082045
:1095E000C2F20000B0F88A10827D012091420CD1B5
:1095F000FFE742F60820C2F20000B0F88C10B0F885
:109600006E00081A18BF0120FFE700F001008DF876
:109610000600FFE7FFE7FFE7FFE79DF80600C0074A
:1096200060B1FFE742F64030C2F20000D0F80478A3
:1096300045F2540102220023B847FFE740F2E2203E
:10964000C2F200000178013101702DE140F2E42006
:10965000C2F2000000784CF6CD41CCF6CC41484334
:109660004FEAB0004CF6CC41C0F6CC41884219D844
:10967000FFE742F64034C2F20004D4F8047840F226
:10968000DC25C2F200052B78204645F209010222B2
:10969000B847D4F804782B78204645F20A01022214
:1096A000B847FFE740F2E220C2F200000178013142
:1096B0000170F9E042F60820C2F2000090F8430081
:1096C000C007D8B1FFE742F64034C2F20004D4F834
:1096D0000478204646F23301022244F25073B84720
:1096E000D4F8047842F60820C2F20000B0F87030D6
:1096F000204645F208010222B8471AE042F64034FB
:10970000C2F20004D4F80478204646F23301022263
:109710004FF6FF73B847D4F8047842F60820C2F237
:109720000000B0F86E30204645F208010222B8472A
:10973000FFE740F2E220C2F200000178013101703F
:10974000B2E042F60820C2F2000090F82F0060B9A3
:10975000FFE742F64030C2F20000D0F8047845F24C
:10976000010102220023B8472BE042F60820C2F292
:10977000000090F82F0002280CD1FFE742F640309D
:10978000C2F20000D0F8047845F201010222012360
:10979000B84715E042F60820C2F2000090F82F000A
:1097A00003280CD1FFE742F64030C2F20000D0F8A7
:1097B000047845F2010102220223B847FFE7FFE7E0
:1097C000FFE740F2E220C2F20000017801310170AF
:1097D0006AE042F60820C2F20000C068972808D369
:1097E000FFE742F60820C2F2000090F82C0060B9B2
:1097F000FFE742F64030C2F20000D0F8047845F2AC
:10980000050102220023B8470BE042F64030C2F2C5
:109810000000D0F8047845F2050102220123B84780
:10982000FFE740F2E220C2F200000178013101704E
:109830003AE042F60820C2F2000090F82E0088B10B
:10984000FFE742F64030C2F20000D0F8047842F65A
:109850000821C2F2000191F82E304FF4A0410222FB
:10986000B847FFE740F2E220C2F200000178013180
:10987000017019E042F64030C2F20000D0F80478DE
:1098800042F60821C2F2000191F82C10B1FA81F1E0
:109890004B0945F202010222B84740F2E220C2F22F
:1098A000000000210170FFE718E042F60820C2F234
:1098B000000090F83D00012808D1FFE742F608209B
:1098C000C2F2000090F82C0038B9FFE740F2D42033
:1098D000C2F2000000210170FFE7FFE742F6082016
:1098E000C2F2000090F83D00022826D1FFE740F2C6
:1098F000D520C2F20000007842F60821C2F2000131
:1099000091F86D10884218D0FFE742F60821C2F2A4
:10991000000191F86D0040F2D522C2F200021070F1
:1099200042F64030C2F20000D0F8047891F86D3071
:1099300045F254010222B847FFE705B0F0BD000030
:1099400070B540F25900C2F20000007842F60821DA
:10995000C2F2000191F83D10884213D1FFE742F6B0
:109960000820C2F2000090F83D0005280AD0FFE769
:1099700042F60820C2F2000090F83D00072841F0AE
:109980004181FFE740F2E520C2F2000000780F2895
:1099900001F23781DFE810F0100019007B00DD00D4
:1099A0003F01A101BA014F03E7047E0615086908CB
:1099B000B008F7080F09170940F2E520C2F20000CD
:1099C00001780131017001F01CB942F60820C2F2A1
:1099D000000090F8310088B9FFE742F64030C2F24B
:1099E0000000D0F8044842F60821C2F20001B1F8A4
:1099F000763045F215010222A04725E042F6082004
:109A0000C2F2000090F8310001281CD1FFE742F6B5
:109A10004030C2F20000D0F8044842F60821C2F2F9
:109A20000001B1F8761001EBC10143F23432C3F208
:109A30003332A1FB021202F120018BB245F2150173
:109A40000222A047FFE7FFE742F64034C2F20004DB
:109A5000D4F804C842F60826C2F20006B6F87830F8
:109A6000204645F216010222E047D4F80458B6F821
:109A70007A30204645F217010222A84740F2E5203D
:109A8000C2F2000001780131017001F0BAB842F66B
:109A90000820C2F2000090F8310088B9FFE742F6D2
:109AA0004030C2F20000D0F8046842F60821C2F249
:109AB0000001B1F87C3045F218010222B04725E0E0
:109AC00042F60820C2F2000090F8310001281CD1B3
:109AD000FFE742F64030C2F20000D0F8046842F6D8
