:020000040800F2
:100000008818002089010008A30200089B0200084C
:100010009F02000895020008D104000800000000BB
:10002000000000000000000000000000A70200081F
:100030009902000800000000A5020008A9020008BB
:10004000A3010008A3010008A3010008A301000800
:10005000A3010008A3010008A3010008A3010008F0
:10006000A3010008A3010008A3010008A3010008E0
:10007000A3010008A3010008A3010008A3010008D0
:10008000A3010008A3010008A3010008A3010008C0
:10009000A3010008A3010008A3010008A3010008B0
:1000A000A3010008A3010008A3010008A3010008A0
:1000B000A301000849030008A3010008A3010008E8
:1000C000A3010008A3010008A3010008A301000880
:1000D000A3010008AD030008A3010008A301000864
:1000E000A3010008A3010008A3010008000000000C
:1000F0000000000000000000000000000000000000
:1001000000000000A3010008A30100080000000097
:10011000A3010008A3010008000000000000000087
:10012000A3010008A3010008A3010008A30100081F
:1001300000000000000000000000000000000000BF
:10014000000000000000000000000000A301000803
:100150000000000000000000A3010008A301000847
:10016000000000000000000000000000A3010008E3
:10017000DFF810D000F07CF800480047211000089C
:10018000AFF30080881800200648804706480047E3
:10019000FEE7FEE7FEE7FEE7FEE7FEE7FEE7FEE737
:1001A000FEE7FEE7AD020008710100082DE9F05FEF
:1001B0000546002092469B468846064681464024D6
:1001C0001BE0284641464746224600F041F8534688
:1001D0005A46C01A914110D311461846224600F0E3
:1001E00028F82D1A67EB01084F462246012000210E
:1001F00000F01FF817EB00094E41201EA4F1010486
:10020000DFDC484631462A464346BDE8F09FD2B27D
:1002100001E000F8012B491EFBD270470022F6E7EF
:1002200010B513460A4604461946FFF7F0FF20466C
:1002300010BD202A04DB203A00FA02F100207047AA
:100240009140C2F1200320FA03F319439040704714
:10025000202A04DB203A21FA02F00021704721FA1B
:1002600002F3D040C2F12002914008431946704782
:10027000064C074D06E0E06840F0010394E80700F3
:1002800098471034AC42F6D3FFF776FF0418000805
:100290002418000800BFFEE7704700BFFEE700BF5C
:1002A000FEE7704770477047704700002248C069FA
:1002B00020F0805000F180501F49C8611F4800782D
:1002C00040F004001D49503981F850001A48C069B7
:1002D00020F080501849C8610846006820F00100ED
:1002E000401C086000BF14480068C0F340000028AC
:1002F000F9D01148406820F003000F49486000BF62
:100300000D484068C0F381000028F9D10A48006810
:100310000B490840084908600020486041F6107009
:10032000C8624FF4801008634FF41F008860C80350
:1003300004490860704700000010024050700040FF
:10034000FFFFF2FE08ED00E010B50121134801F0B7
:100350007AF8012820D10121104801F037F8002057
:1003600000F0D6F90E480078B0B10E480078401C75
:10037000C0B20C49087008B9FF200870094800781D
:10038000022801DD00F0DEF906480078052803DDCB
:100390000021054800F00EFC10BD000000040040E4
:1003A00019000020180000200400180010B50020DB
:1003B0003D49087020213D4801F0A5F9002872D080
:1003C0003A4801F039F93A49088008460078394935
:1003D000394A1288885438480088401C36490880B9
:1003E0000846008840F20C4188425CD10020324926
:1003F000088030480078D12853D12E4890F80B045B
:10040000F0284ED140F2064301222C49294800F041
:10041000D1F94FF48171294800F048FA044600F000
:1004200057FA244890F80714200E814236D121480B
:1004300090F80804C4F3074188422FD11D4890F872
:100440000904C4F30721884228D11A4890F80A0405
:10045000E1B2884222D14FF480630722154918483F
:1004600000F0F4F916491748006800F0C3FC15487D
:10047000006800F580601349086001F093F80D48AA
:10048000807804280CD11048406800F07F40B0F11B
:10049000006F05D101200D49087001E001F038F826
:1004A00001E001F035F810BD1800002000380140CF
:1004B00014000020700400201600002068000020B6
:1004C0007C08002010000020004000080C000020E4
:1004D00000BFFEE7002807DB00F01F02012191406A
:1004E000024A430942F823107047000080E200E00E
:1004F00002E008C8121F08C1002AFAD170477047ED
:10050000002001E001C1121F002AFBD1704700004A
:1005100010B504462068A0F10050B0F5004F7BD81C
:1005200000213E4800F046FB00213D4800F042FB20
:1005300000213B480C3800F03DFB0021394800F019
:1005400039FB00214FF4A01000F034FB00214FF4E0
:10055000C01000F02FFB002131480C3800F02AFBBE
:1005600000212F480B3800F025FB00212C480A38C9
:1005700000F020FB00212A48093800F01BFB002175
:100580002748C01F00F016FB00212548401F00F03F
:1005900011FB00212248801E00F00CFB00212048A6
:1005A00000F008FB00214FF4E01000F003FB0021F5
:1005B0001A4800F0FFFA00211848103000F0FAFA4B
:1005C00000211648113000F0F5FA002113481230CE
:1005D00000F0F0FA252000F061FD1D2000F05EFD26
:1005E000262000F05BFD282000F058FD2620FFF7B4
:1005F00071FF2820FFF76EFF2520FFF76BFF1D20FE
:10060000FFF768FF084960680860206880F3088881
:1006100000BF08460068804710BD000001001C00B4
:100620000E001800060014000800002010B500F0AD
:10063000C5FB002000F030F8012000F02DF802206A
:1006400000F02AF8002000F04FF8012000F04CF8EC
:10065000022000F049F800F001F810BD1CB501219E
:100660000B4800F0A7FA684600F07AFC01208DF8EC
:10067000070000208DF804008DF80600012000908E
:1006800028208DF805006946024800F074FC1CBD66
:1006900002001800000801401CB504460F4951F83B
:1006A0002400012100F086FA684600F059FC012080
:1006B0008DF8070000208DF8040010208DF806004A
:1006C000074830F81400009004208DF80500054913
:1006D00051F82400694600F04EFC1CBD300000209B
:1006E000280000201C000020022800DD7047064979
:1006F00031F8101031B1044931F81010034A52F8A2
:100700002020116100BFF1E7280000201C0000201C
:10071000022800DD7047094931F8101059B1084925
:1007200051F82010C968054A32F810205140044A97
:1007300052F82020D16000BFECE700002800002024
:100740001C00002010B5EE21124800F079FF00BF18
:100750004021104800F07DFF0028F9D0FF210D480E
:1007600000F06EFF00BF40210A4800F072FF002831
:10077000F9D0002008490870084908700849087035
:100780000849087008490860084908700849087055
:1007900010BD0000003801400000002001000020D2
:1007A00002000020030000200400002018000020A8
:1007B000190000202DE9F04F06460C461F4606B1F1
:1007C00014B90020BDE8F08FBA4201D90020F9E742
:1007D000B81A431CB1180025AC4614E0087800068E
:1007E00091F8018040EA084091F8028040EA082030
:1007F00091F8038040EA0800A8466D1C44F82800E0
:10080000091D0CF1010CBCEB930FE7D303F00300BF
:10081000D0B14FF0000803F0030900200DE011F8FB
:1008200000A04FF0180BABEBC00B0AFA0BFA4AEA28
:10083000080800F1010A0AF0FF004845EFDB2846EE
:100840006D1C44F8208000BF2846BBE72DE9F0412D
:100850000D461646A91904E011F8012B00F8012BEA
:100860005B1E01F003020AB1002BF5D1042B11D35A
:100870004FEA930C02460C46002704E054F8048B20
:1008800042F8048B7F1C6745F8D31046214603F0DD
:10089000030300BF002204E011F8014B00F8014BF4
:1008A000521C9A42F8D3BDE8F081000010B5024610
:1008B0000B46002100BF04E052F82100034C2060E9
:1008C000491C9942F8D30148006810BD003002402D
:1008D0000348806820F00100401C0149886070478F
:1008E000003002400349496860F30711014A516032
:1008F00070470000001002400349496860F30A2174
:10090000014A5160704700000010024003494968E5
:1009100060F3CD21014A5160704700000010024091
:10092000012807D10749496D21F030013031054ACE
:10093000516505E00349496D21F03001014A5165D7
:100940007047000000100240052827D2DFE800F0C1
:10095000030A11181F00134A126861F30002114BB9
:100960001A601CE00F4A126861F310420D4B1A60C6
:1009700015E00C4A126861F318620A4B1A600EE027
:10098000084A126A61F30002064B1A6207E0054A40
:10099000526A61F30002034B5A6200E000BF00BFDD
:1009A00070470000001002402DE9F04F85B004466A
:1009B0000025AA46AB460026A946002004900390D5
:1009C0000290019000F0F2F90090009820B1012807
:1009D00012D0022875D112E05648406DC0F3402075
:1009E00038B15448006BC0F3406010B152482060E9
:1009F00001E05248206067E05048206064E04D48C4
:100A00004068C0F3004B4B48C06AC00F30BB494838
:100A10004068C0F3834547484068C0F3417ABAF163
:100A2000000F01D10F2D04D14FEA0A10401C0544DC
:100A300000E0AD1CBBF1000F03D1414868432060CA
:100A40003DE03C484068C0F3404018B13C48684332
:100A5000206034E039486843206030E03548C06A9F
:100A6000C0F3031003903348C06AC0F3082002901B
:100A70003048C06A00F007000190BBF1000F02D1BE
:100A80002F48049009E02B484068C0F3404010B163
:100A90002B48049001E0294804900121019801FAB3
:100AA00000F0039900FB01FC02990498A0FB01707F
:100AB0000146624600233846FFF778FB206003E0DA
:100AC000FFE71E48206000BF00BF1A484068C0F31F
:100AD00003161C4810F80690206820FA09F06060A0
:100AE00014484068C0F30226174810F80690606862
:100AF00020FA09F0E0600F484068C0F3C2261348AE
:100B000010F80690606820FA09F0A0600948406873
:100B1000C0F3007607484068C0F3813040EA86069B
:100B20000B4810F80690A068B0FBF9F0206105B002
:100B3000BDE8F08F00100240006CDC0200127A0069
:100B400000093D00CA170008DA170008E21700087C
:100B5000EA17000810B501460020094B03EB1142CB
:100B6000126801F01F040123A3401A4001F01F0482
:100B70000123A3409A4200D000E0012010BD0000F4
:100B80000010024030B50024002500E0641C112054
:100B9000FFF7E0FF012802D0B4F5405FF6D3112043
:100BA000FFF7D8FF012801D0002500E001252846E5
:100BB00030BD000010B501290DD10E4B03EB1042E2
:100BC000126800F01F040123A3401A43094C04EBF0
:100BD00010431A600CE0074B03EB1042126800F060
:100BE0001F040123A3409A43024C04EB10431A60F4
:100BF00010BD00000010024030B502460020002366
:100C000072B9354C646824F48034334D6C603348D9
:100C10002C46246B24F0007404F100742C6319E05A
:100C20002D4C646824F4803404F580342A4D6C60C3
:100C3000012A06D12A482C46646824F400346C60EA
:100C400008E02648244C646824F4003404F5003499
:100C5000214D6C60234CA04204D9234CA04201D208
:100C6000002326E0214CA04204D9214CA04201D20D
:100C700001231EE01F4CA04204D91F4CA04201D208
:100C8000022316E01C4CA04204D91C4CA04201D205
:100C900003230EE01A4CA04204D91A4CA04201D200
:100CA000042306E0174CA04203D9174CA04200D2FF
:100CB0000523094C646861F39544074D6C600D0988
:100CC000054C646865F35E74034D6C602C46E46A01
:100CD00063F31A64EC6230BD0010024000093D006D
:100CE00000127A0060823B00404B4C0080584F005D
:100CF000105E5F0094357700101B7F0020BCBE00A3
:100D0000286BEE0030D73D01D8E9DC0116480068B9
:100D100020F00100401C1449086000BF1248006820
:100D2000C0F340000028F9D00F48406820F00300CD
:100D30000D49486000BF0C484068C0F3810000289E
:100D4000F9D10948006809490840074908600020AE
:100D5000486041F61070C8624FF4801008634FF489
:100D60001F0088607047000000100240FFFFF2FE85
:100D70000D49496860F301010B4A516000BF00BF93
:100D800000BF00BF00BF00BF00BF00BF00BF00BF6B
:100D900000BF00BF00BF00BF00BF00BF00BF00BF5B
:100DA00000BF00BF704700000010024002484068CA
:100DB000C0F38100704700000010024010B504200D
:100DC00000F0DEFA074800680749B0FBF1F0074978
:100DD0000860084600684FF47A7148430449086087
:100DE00010BD00004C00002040420F003C000020DD
:100DF000400000202DE9F04105460E4600F096F82F
:100E0000284600F073F80F480068FF2803D805F55E
:100E1000806000F06BF800240CE0315D601C305CF9
:100E200001EB002087B23946284600F00DF8AD1CD2
:100E3000A01C84B2B4F5006FEFDB00F021F8BDE830
:100E4000F0810000E0F7FF1F70B504460D46032651
:100E50000A48006920F00100401C0849086125800B
:100E60004FF4801000F030F806460448006920F086
:100E7000010002490861304670BD000000200240B8
:100E80000348006920F08000803001490861704704
:100E90000020024003200B49C96801F0010109B19B
:100EA00000200EE00749C968C1F3800109B10120A3
:100EB00007E00449C968C1F3001109B1022000E04C
:100EC000032070470020024000B502460323FFF7CD
:100ED000E1FF034603E0FFF7DDFF0346521E0BB9B7
:100EE000002AF8D102B90423184600BD30B50446E3
:100EF00003250D48006920F00200801C0A490861A2
:100F000008464461006920F0400040300861480410
:100F1000FFF7DAFF05460448006920F002000249A5
:100F20000861284630BD0000002002400248034905
:100F3000486003484860704723016745002002402D
:100F4000AB89EFCD044800680449884201D10120F3
:100F500070470020FCE7000000380008384B54417F
:100F60004FF6FF710160002181710171042141710F
:100F70000121C1717047F0B50A461588ABB2957969
:100F8000032D01D100241AE0957965B9557905F052
:100F90000F045579182D01D1036110E05579282DE2
:100FA0000DD143610BE0957905F00805167906F03F
:100FB00004063543D67906F0030645EA0604DDB299
:100FC000A5B1002110E001258D401D405DB10568EF
:100FD0008F000F26BE40B543056005688E0004FAF9
:100FE00006F635430560491C0829ECD3FF2B15DDB7
:100FF0001B12002110E001258D401D405DB14568A8
:101000008F000F26BE40B543456045688E0004FA48
:1010100006F635434560491C0829ECD3F0BD0000B5
:1010200000F0CAF8FFF702FB01211948FFF7C2FDE3
:10103000032000F0ADF8FFF785FF48B91548406878
:1010400000F07F40B0F1006F02D11248FFF760FA64
:101050004FF4E13000F004FAFFF774FF08B100F03C
:10106000A1FA00F0B7F911E00B48007870B1002048
:10107000094908700748406800F07F40B0F1006FF0
:1010800004D1FFF743FE0348FFF742FAECE7000004
:1010900006001400004000080C00002010B50146B6
:1010A000084600280BDB00F01F0301229A40054B85
:1010B000440943F82420BFF34F8FBFF36F8F00BF65
:1010C00010BD000080E100E02DE9F0470B4614461A
:1010D0004FF0000C00BF2C4A1268C2F302211D46DB
:1010E00026460A46C2F10709B9F1040F02D94FF0AA
:1010F000040901E0C2F10709C84602F10409B9F187
:10110000070F02D24FF0000901E0A2F103094F4698
:101110004FF0010909FA08F9A9F1010909EA0509DD
:1011200009FA07F94FF0010A0AFA07FAAAF1010AC7
:101130000AEA060A49EA0A09CC460146624600293B
:1011400004DB15072E0E114D6E5407E015072F0E08
:101150000D4D0C3501F00F06361FAF5500BF01468F
:1011600000290DDB00BF00BF01F01F050122AA40CE
:101170004D09AD0005F1E025C5F8002100BF00BF15
:1011800000BFBDE8F08700000CED00E000E400E0E7
:1011900000BF00F00702064B19684FF6FF03194025
:1011A000044B0B4343EA0221014B196000BF704717
:1011B0000CED00E00000FA0510B5FFF7A7FD1420C4
:1011C0001949086001210846FFF7BEFB00BFFFF781
:1011D000D9FC0028FBD023210220FFF70DFD0121BF
:1011E0000220FFF7B1FB00BF1920FFF7B3FC012875
:1011F000FAD10020FFF776FB0420FFF787FB0420DD
:10120000FFF77AFB0120FFF78BFB0220FFF7B0FD11
:1012100000BFFFF7CBFD0228FBD10020FFF780FBCA
:1012200000F004F810BD0000002002402DE9FF5F2F
:10123000002400250026A146A246A34600200390D4
:1012400002900190FFF7B2FD0090009820B10128B4
:1012500014D0022874D115E04348406DC0F34020FB
:1012600040B14148006BC0F3406018B13F4840496D
:10127000086002E03F483E49086065E03D483C495F
:10128000086061E038484068C0F300463648C06AEC
:10129000C00F20BB34484068C0F3834432484068E4
:1012A000C0F341750DB90F2C03D12801401C044433
:1012B00000E0A41C26B9304860432D4908603DE099
:1012C00029484068C0F3404020B12B48604328497A
:1012D000086033E027486043254908602EE0224833
:1012E000C06AC0F3031003901F48C06AC0F308200F
:1012F00002901D48C06A00F00700019016B9DFF89F
:1013000078B009E018484068C0F3404010B1DFF8F9
:1013100068B001E0DFF85CB00121019801FA00F04B
:10132000039900FB01FC0298ABFB0070014662468A
:1013300000233846FEF73AFF0D49086004E0FFE756
:101340000C480B49086000BF00BF07484068C0F365
:1013500003190A4810F809A00548006820FA0AF0A5
:1013600003490860BDE8FF9F00100240006CDC02EA
:101370004C00002000127A0000093D00F21700081E
:10138000042808D14FF0E021096941F004014FF031
:10139000E022116107E04FF0E021096921F004012A
:1013A0004FF0E02211617047C1628262436923F00D
:1013B00001035B1C43617047026861F3061202601F
:1013C0007047026861F3000202607047CA4302611D
:1013D0007047000010B586B0142101A8FEF71EFF6B
:1013E00001211148FFF7E6FB002201211D20FFF734
:1013F0006BFE01A8FFF7D8FA42F210710298B0FB19
:10140000F1F422460948FFF7CFFF00210748FFF714
:10141000D3FF01221146054800F00AF801210348D4
:10142000FFF7CFFF06B010BD01001C000004004014
:10143000012A03D1C3680B43C36003E012B9C36838
:101440008B43C36070470246002013690B4023B1F1
:10145000D3680B400BB1012000E000207047000072
:101460001CB5044601212648FFF7A4FB01212448AE
:101470000C38FFF79FFB6846FFF772FD01208DF8DF
:10148000070000208DF8040008208DF80600800178
:10149000009004208DF8050069461A48FFF76BFD9F
:1014A00001208DF8070000208DF804008DF806005B
:1014B0004FF48060009018208DF8050069461148AF
:1014C000FFF759FD002211462520FFF7FDFD0023FF
:1014D0001A4621460C4800F0C5F801210A4800F0E0
:1014E0006FF90121084800F066F901220749064812
:1014F00000F0EEF80121044800F0A6F81CBD000041
:101500000E001800000801400038014005000C00E2
:1015100070B50024D12020490870022048708870DE
:101520000020C870087148710A2088711820C8719D
:101530000020087248728872C872087348738873F2
:10154000C87308741023012214491348FFF732F9B5
:1015500004211248FFF7AAF90446FFF7B9F9200E53
:101560000D494874200C8874200AC8740C75F0204A
:10157000487500250DE00848415D094800F060F815
:1015800000BF4021064800F064F80028F9D0681C2C
:10159000C5B2162DEFDB70BD5000002068000020A2
:1015A0000038014070B50024D12020490870022085
:1015B000487088700020C870087148710A208871CE
:1015C0001D20C8710020087248728872C8720873A2
:1015D00048738873C8730874102301221449134890
:1015E000FFF7E8F804211248FFF760F90446FFF717
:1015F0006FF9200E0D494874200C8874200AC874B5
:101600000C75F020487500250DE00848415D09483B
:1016100000F016F800BF4021064800F01AF8002834
:10162000F9D0681CC5B2162DEFDB70BD500000204C
:1016300068000020003801400146486880B27047C9
:10164000C1F3080242607047C26861F34D32C26064
:10165000704702461068084008B10120704700201A
:10166000FCE700002DE9F04385B004460F469046A4
:1016700099466846FFF798F91448844201D1029EC2
:1016800000E0039E06EB86004000B0FBF7F50A2061
:10169000B5FBF0F100FB1150052803D20A20B5FB81
:1016A000F0F503E00A20B5FBF0F0451CA06865F3F7
:1016B0000F00A060E06868F30C30E060206969F317
:1016C0000D30206105B0BDE8F08300000038014016
:1016D00030B5012A0BD100EB11431B6801F01F0547
:1016E0000124AC40234300EB114423600AE000EBEB
:1016F00011431B6801F01F050124AC40A34300EB1C
:101700001144236030BD02460023202927D00CDC81
:10171000042939D004DC01293BD002293DD134E031
:10172000082920D0102938D12AE0402913D0802957
:101730000DD0B1F5807F06D0B1F5007F2DD1506975
:10174000C0F380232BE01069C0F3801327E0D0683A
:10175000C0F3C01323E0D068C0F380131FE0D0684B
:10176000C0F340131BE0D068C0F3401018B95069B3
:1017700000F0010008B1012000E0002003460EE067
:10178000D068C0F300130AE000BF506900F0010305
:1017900005E0D068C0F3002301E0002300BF00BFD4
:1017A000012B01D0002070471068084008B10120CB
:1017B000F9E70020F7E7C26861F38202C260704770
:1017C000C26861F3C302C2607047000000000000FD
:1017D00000000102030406070809000000000102DE
:1017E0000304000000000102030402040608020CC6
:1017F00008100000000000000000010203040607BA
:101800000809000024180008000000205000000013
:10181000F004000874180008500000203818000078
:1018200000050008000000000000000000000000AB
:101830000000000000400008000000000000000060
:101840000010014000100140001001400400080099
:101850002000000004001800040018000400180014
:101860000000000000000000000000000100000077
:0418700000127A00E8
:04000005080001717D
:00000001FF
