:020000040800F2
:10000000A81200200D020008C1030008B90300086F
:10001000BD030008B30300085906000800000000F3
:1000200000000000000000000000000005040008BF
:10003000B7030008000000000304000807040008DC
:1000400027020008270200082702000827020008EC
:1000500027020008270200082702000827020008DC
:1000600027020008270200082702000827020008CC
:1000700027020008270200082702000827020008BC
:1000800027020008270200082702000827020008AC
:10009000270200082702000827020008270200089C
:1000A000270200082702000827020008270200088C
:1000B000270200082702000827020008270200087C
:1000C000270200082702000827020008270200086C
:1000D00027020008AD0400082702000827020008D4
:1000E000270200082702000827020008000000007D
:1000F0000000000000000000000000000000000000
:10010000000000002702000827020008000000008D
:10011000270200082702000800000000000000007D
:10012000270200082702000827020008270200080B
:1001300000000000000000000000000000000000BF
:10014000000000000000000000000000270200087E
:10015000000000000000000027020008270200083D
:10016000000000000000000000000000270200085E
:1001700000F002F800F03AF80AA090E8000C82447F
:100180008344AAF10107DA4501D100F02FF8AFF25C
:10019000090EBAE80F0013F0010F18BFFB1A43F065
:1001A000010318471C1900003C190000103A24BF35
:1001B00078C878C1FAD8520724BF30C830C144BFCC
:1001C00004680C607047000000230024002500260E
:1001D000103A28BF78C1FBD8520728BF30C148BFAA
:1001E0000B6070471FB51FBD10B510BD00F0A8F81B
:1001F0001146FFF7F7FF00F053FF00F0C6F803B415
:10020000FFF7F2FF03BC00F0CDF80000094880477B
:1002100009480047FEE7FEE7FEE7FEE7FEE7FEE7E8
:10022000FEE7FEE7FEE7FEE704480549054A064B00
:10023000704700001104000871010008A80C00209C
:10024000A8120020A80E0020A80E002053EA020CDD
:1002500000F069802DE9F04B4FF00006002B1FBF26
:10026000B3FA83F503FA05F424FA05F65E4012BFEB
:100270001643B2FA82F502FA05F4C5F120051EBF55
:1002800022FA05FC44EA0C04203556EA044C4FEAF5
:10029000144418BF641C4FF000084FF0000990424E
:1002A00071EB030C39D3002919BFB1FA81F701FAB8
:1002B00007F6B0FA80F700FA07F6C7F120071EBF6D
:1002C00020FA07FC46EA0C062037B6FBF4FCA7EB45
:1002D0000507103F07F01F0BCBF120060CFA0BFBB4
:1002E0002CFA06F644BFB3460026202FA4BF5E4674
:1002F0004FF0000B5BEA060C08BF4FF0010B19EB47
:100300000B09ABFB027C48EB0608C01B06FB02CCCA
:100310000BFB03CC71EB0C01C1E70B4602464146D7
:100320004846BDE8F08B13B54FF000004FF00001D8
:10033000AFF30080BDE81C407047704770477047BE
:10034000754600F02BF8AE4605006946534620F08E
:100350000700854618B020B5FFF766FFBDE82040CE
:100360004FF000064FF000074FF000084FF0000B71
:1003700021F00701AC46ACE8C009ACE8C009ACE824
:10038000C009ACE8C0098D46704710B50446AFF30C
:1003900000802046BDE81040FFF731BF004870479D
:1003A000440C002001491820ABBEFEE726000200E5
:1003B000704700BFFEE7704700BFFEE700BFFEE7E3
:1003C0007047F0B503460C4603F00701C1F1070082
:1003D000042801D9042001E0C1F107000646081DE8
:1003E000072801D2002000E0C81E05460120B040C9
:1003F000401E2040A8400127AF407F1E17403843D1
:10040000F0BD7047704710B501F0C6FA10BD00008E
:100410002248C06920F0805000F180501F49C86117
:100420001F48007840F004001D49503981F8500001
:100430001A48C06920F080501849C8610846006811
:1004400020F00100401C086000BF14480068C0F3A1
:1004500040000028F9D01148406820F003000F49FF
:10046000486000BF0D484068C0F381000028F9D102
:100470000A4800680B4908400849086000204860A5
:1004800041F61070C8624FF4801008634FF41F00EB
:100490008860C803044908607047000000100240EB
:1004A00050700040FFFFF2FE08ED00E010B5202183
:1004B000604801F0F6F800287ED05E4801F058F858
:1004C0005D490880084600785C495D4A1288885476
:1004D0005B480088401C5A49088008460088162856
:1004E00041D1102301225749544800F06FF90421EB
:1004F000544800F0E7F9044600F0F6F94F48417C13
:10050000200E81422ED14D48807CC4F307418842A1
:1005100028D14A48C07CC4F30721884222D14748E9
:10052000007DE1B288421DD144484078012809D1BC
:1005300042488078012805D14048007910B900F080
:1005400033FF0CE03D484078022808D13B488078D2
:10055000012804D13948007908B900F0BDFF002016
:100560003749088000BF3648008840F20C41884275
:100570005ED100203249088030480078D12855D11A
:100580002E4890F80B04F02850D140F20643012287
:100590002C492A4800F01AF94FF48171294800F0DB
:1005A00091F9044600F0A0F9244890F80714200EB1
:1005B000814238D1214800E03AE090F80804C4F3C1
:1005C000074188422FD11D4890F80904C4F3072140
:1005D000884228D1194890F80A04E1B2884222D111
:1005E0004FF4806307221549174800F03BF916497C
:1005F0001648006800F018FC1448006800F5806098
:100600001249086000F068FF0C48807804280CD17B
:100610000F48406800F07F40B0F1006F05D1012025
:100620000C49087001E000F00BFF01E000F008FF4A
:1006300010BD0000003801400800002038040020F0
:100640000A000020300000204408002004000020A0
:10065000004000080000002000BFFEE7002807DB84
:1006600000F01F0201219140024A430942F8231081
:100670007047000080E200E002480068C0F30220FA
:10068000704700000CED00E010B5002804DB0A07FD
:10069000130E054A135406E00A07140E034A00F02D
:1006A0000F031B1FD45410BD00E400E018ED00E060
:1006B00010B504462068A0F10050B0F5004F7BD87B
:1006C00000213E4800F0ACFA00213D4800F0A8FAB5
:1006D00000213B480C3800F0A3FA0021394800F013
:1006E0009FFA00214FF4A01000F09AFA00214FF475
:1006F000C01000F095FA002131480C3800F090FA53
:1007000000212F480B3800F08BFA00212C480A38C2
:1007100000F086FA00212A48093800F081FA002109
:100720002748C01F00F07CFA00212548401F00F038
:1007300077FA00212248801E00F072FA002120483A
:1007400000F06EFA00214FF4E01000F069FA002189
:100750001A4800F065FA00211848103000F060FADD
:1007600000211648113000F05BFA002113481230C6
:1007700000F056FA252000F0CBFC1D2000F0C8FC4C
:10078000262000F0C5FC282000F0C2FC2620FFF740
:1007900065FF2820FFF762FF2520FFF75FFF1D2080
:1007A000FFF75CFF084960680860206880F30888EC
:1007B00000BF08460068804710BD000001001C0013
:1007C0000E00180006001400100000202DE9F04F64
:1007D00006460C461F4606B114B90020BDE8F08F4E
:1007E000BA4201D90020F9E7B81A431CB118002514
:1007F000AC4614E00878000691F8018040EA084011
:1008000091F8028040EA082091F8038040EA08004D
:10081000A8466D1C44F82800091D0CF1010CBCEB26
:10082000930FE7D303F00300D0B14FF0000803F0BB
:10083000030900200DE011F800A04FF0180BABEBFE
:10084000C00B0AFA0BFA4AEA080800F1010A0AF09A
:10085000FF004845EFDB28466D1C44F8208000BFB0
:100860002846BBE72DE9F0410D461646A91904E0DC
:1008700011F8012B00F8012B5B1E01F003020AB1F5
:10088000002BF5D1042B11D34FEA930C02460C46F2
:10089000002704E054F8048B42F8048B7F1C674562
:1008A000F8D31046214603F0030300BF002204E002
:1008B00011F8014B00F8014B521C9A42F8D3BDE8E5
:1008C000F081000010B502460B46002100BF04E095
:1008D00052F82100034C2060491C9942F8D301488A
:1008E000006810BD003002400348806820F001001D
:1008F000401C01498860704700300240014908618E
:1009000070470000003002400349896860F3C40169
:10091000014A91607047000000300240014948617F
:1009200070470000003002400349896860F34611B7
:10093000014A916070470000003002400349896815
:1009400060F3C711014A9160704700000030024017
:100950000349496860F30711014A5160704700007C
:10096000001002400349496860F30A21014A5160BE
:1009700070470000001002400349496860F3CD2130
:10098000014A51607047000000100240012807D161
:100990000749496D21F030013031054A516505E0C4
:1009A0000349496D21F03001014A5165704700004B
:1009B00000100240052827D2DFE800F0030A1118D2
:1009C0001F00134A126861F30002114B1A601CE009
:1009D0000F4A126861F310420D4B1A6015E00C4A81
:1009E000126861F318620A4B1A600EE0084A126A34
:1009F00061F30002064B1A6207E0054A526A61F38E
:100A00000002034B5A6200E000BF00BF70470000C5
:100A1000001002402DE9F04F85B004460025AA469B
:100A2000AB460026A9460020049003900290019056
:100A300000F0F2F90090009820B1012812D00228AD
:100A400075D112E05648406DC0F3402038B154488B
:100A5000006BC0F3406010B15248206001E0524882
:100A6000206067E05048206064E04D484068C0F373
:100A7000004B4B48C06AC00F30BB49484068C0F3C8
:100A8000834547484068C0F3417ABAF1000F01D16D
:100A90000F2D04D14FEA0A10401C054400E0AD1CA4
:100AA000BBF1000F03D14148684320603DE03C4862
:100AB0004068C0F3404018B13C486843206034E0CF
:100AC00039486843206030E03548C06AC0F30310FD
:100AD00003903348C06AC0F3082002903048C06ACF
:100AE00000F007000190BBF1000F02D12F480490E5
:100AF00009E02B484068C0F3404010B12B480490F7
:100B000001E0294804900121019801FA00F00399BD
:100B100000FB01FC02990498A0FB017001466246AB
:100B200000233846FFF792FB206003E0FFE71E48F2
:100B3000206000BF00BF1A484068C0F303161C487D
:100B400010F80690206820FA09F0606014484068A8
:100B5000C0F30226174810F80690606820FA09F0E2
:100B6000E0600F484068C0F3C226134810F80690B2
:100B7000606820FA09F0A06009484068C0F3007678
:100B800007484068C0F3813040EA86060B4810F8F9
:100B90000690A068B0FBF9F0206105B0BDE8F08FC9
:100BA00000100240006CDC0200127A0000093D00D7
:100BB000881A0008981A0008A01A0008A81A000845
:100BC00010B501460020094B03EB1142126801F0F9
:100BD0001F040123A3401A4001F01F040123A34076
:100BE0009A4200D000E0012010BD00000010024039
:100BF00030B50024002500E0641C1120FFF7E0FF61
:100C0000012802D0B4F5405FF6D31120FFF7D8FFDA
:100C1000012801D0002500E00125284630BD000054
:100C200010B501290DD10E4B03EB1042126800F0F4
:100C30001F040123A3401A43094C04EB10431A601C
:100C40000CE0074B03EB1042126800F01F04012375
:100C5000A3409A43024C04EB10431A6010BD0000FD
:100C60000010024030B502460020002372B9354C16
:100C7000646824F48034334D6C6033482C46246B14
:100C800024F0007404F100742C6319E02D4C6468A6
:100C900024F4803404F580342A4D6C60012A06D196
:100CA0002A482C46646824F400346C6008E0264826
:100CB000244C646824F4003404F50034214D6C6045
:100CC000234CA04204D9234CA04201D2002326E0A9
:100CD000214CA04204D9214CA04201D201231EE0A4
:100CE0001F4CA04204D91F4CA04201D2022316E09F
:100CF0001C4CA04204D91C4CA04201D203230EE09C
:100D00001A4CA04204D91A4CA04201D2042306E096
:100D1000174CA04203D9174CA04200D20523094C1E
:100D2000646861F39544074D6C600D09054C646877
:100D300065F35E74034D6C602C46E46A63F31A64D9
:100D4000EC6230BD0010024000093D0000127A0044
:100D500060823B00404B4C0080584F00105E5F00AB
:100D600094357700101B7F0020BCBE00286BEE007E
:100D700030D73D01D8E9DC011648006820F00100B9
:100D8000401C1449086000BF12480068C0F34000CE
:100D90000028F9D00F48406820F003000D49486052
:100DA00000BF0C484068C0F381000028F9D1094811
:100DB000006809490840074908600020486041F67A
:100DC0001070C8624FF4801008634FF41F008860F1
:100DD0007047000000100240FFFFF2FE0D49496815
:100DE00060F301010B4A516000BF00BF00BF00BFAC
:100DF00000BF00BF00BF00BF00BF00BF00BF00BFFB
:100E000000BF00BF00BF00BF00BF00BF00BF00BFEA
:100E1000704700000010024002484068C0F38100A3
:100E200070470000001002402DE9F04105460E46D3
:100E300000F096F8284600F073F80F480068FF2885
:100E400003D805F5806000F06BF800240CE0315DFC
:100E5000601C305C01EB002087B23946284600F068
:100E60000DF8AD1CA01C84B2B4F5006FEFDB00F0F0
:100E700021F8BDE8F0810000E0F7FF1F70B50446DF
:100E80000D4603260A48006920F00100401C08496D
:100E9000086125804FF4801000F030F806460448C1
:100EA000006920F0010002490861304670BD000071
:100EB000002002400348006920F080008030014992
:100EC000086170470020024003200B49C96801F007
:100ED000010109B100200EE00749C968C1F3800192
:100EE00009B1012007E00449C968C1F3001109B143
:100EF000022000E0032070470020024000B50246B7
:100F00000323FFF7E1FF034603E0FFF7DDFF03469E
:100F1000521E0BB9002AF8D102B90423184600BDAD
:100F200030B5044603250D48006920F00200801CFE
:100F30000A49086108464461006920F040004030D9
:100F400008614804FFF7DAFF05460448006920F00D
:100F5000020002490861284630BD0000002002401E
:100F600002480349486003484860704723016745C9
:100F700000200240AB89EFCD044800680449884254
:100F800001D1012070470020FCE700000038000874
:100F9000384B54414FF6FF7101600021817101719E
:100FA000042141710121C1717047F0B50A461588CD
:100FB000ABB29579032D01D100241AE0957965B97A
:100FC000557905F00F045579182D01D1036110E012
:100FD0005579282D0DD143610BE0957905F0080571
:100FE000167906F004063543D67906F0030645EA7D
:100FF0000604DDB2A5B1002110E001258D401D40A1
:101000005DB105688F000F26BE40B54305600568D9
:101010008E0004FA06F635430560491C0829ECD316
:10102000FF2B15DD1B12002110E001258D401D4016
:101030005DB145688F000F26BE40B54345604568E9
:101040008E0004FA06F635434560491C0829ECD3A6
:10105000F0BD0000F0B50C46104F07EB1062C0F376
:101060000741C0F30725C6B2C5F12007A7EB010C65
:101070004FF0FF3707FA0CF3C5F120077F1AFB404A
:10108000CB408B4017689F4317602CB106FA01FCD8
:10109000176847EA0C071760F0BD00000000014028
:1010A00000F02AFC00F00AFC00F09AFB00F0A0FB24
:1010B00000F07EFC00F098FC00F07CFBFFF75CFF8A
:1010C00048B91148406800F07F40B0F1006F02D18C
:1010D0000D48FFF7EDFAFFF74FFF08B100F0FCF9FC
:1010E00011E00A48007870B10020084908700648ED
:1010F000406800F07F40B0F1006F04D1FFF73CFE84
:101100000148FFF7D5FAECE7004000080000002096
:1011100010B50146084600280BDB00F01F03012232
:101120009A40054B440943F82420BFF34F8FBFF387
:101130006F8F00BF10BD000080E100E02DE9F04797
:101140000B4614464FF0000C00BF2C4A1268C2F345
:1011500002211D4626460A46C2F10709B9F1040FCD
:1011600002D94FF0040901E0C2F10709C84602F1B3
:101170000409B9F1070F02D24FF0000901E0A2F112
:1011800003094F464FF0010909FA08F9A9F10109CD
:1011900009EA050909FA07F94FF0010A0AFA07FAFC
:1011A000AAF1010A0AEA060A49EA0A09CC460146F6
:1011B0006246002904DB15072E0E114D6E5407E020
:1011C00015072F0E0D4D0C3501F00F06361FAF55CC
:1011D00000BF014600290DDB00BF00BF01F01F0565
:1011E0000122AA404D09AD0005F1E025C5F8002116
:1011F00000BF00BF00BFBDE8F08700000CED00E0BD
:1012000000E400E000BF00F00702064B19684FF64B
:10121000FF031940044B0B4343EA0221014B1960C1
:1012200000BF70470CED00E00000FA052DE9FF5FFC
:10123000002400250026A146A246A34600200390D4
:1012400002900190FFF7E8FD0090009820B101287E
:1012500014D0022874D115E04348406DC0F34020FB
:1012600040B14148006BC0F3406018B13F4840496D
:10127000086002E03F483E49086065E03D483C495F
:10128000086061E038484068C0F300463648C06AEC
:10129000C00F20BB34484068C0F3834432484068E4
:1012A000C0F341750DB90F2C03D12801401C044433
:1012B00000E0A41C26B9304860432D4908603DE099
:1012C00029484068C0F3404020B12B48604328497A
:1012D000086033E027486043254908602EE0224833
:1012E000C06AC0F3031003901F48C06AC0F308200F
:1012F00002901D48C06A00F00700019016B9DFF89F
:1013000078B009E018484068C0F3404010B1DFF8F9
:1013100068B001E0DFF85CB00121019801FA00F04B
:10132000039900FB01FC0298ABFB0070014662468A
:1013300000233846FEF78AFF0D49086004E0FFE706
:101340000C480B49086000BF00BF07484068C0F365
:1013500003190A4810F809A00548006820FA0AF0A5
:1013600003490860BDE8FF9F00100240006CDC02EA
:101370001400002000127A0000093D00B01A000895
:10138000042808D14FF0E021096941F004014FF031
:10139000E022116107E04FF0E021096921F004012A
:1013A0004FF0E0221161704770B50024D12021492F
:1013B00008700120487088700020C87001200871F2
:1013C000002048710A2088711820C8710020087216
:1013D00048728872C872087348738873C873087437
:1013E0001023012214491348FFF7F0F90421124891
:1013F000FFF768FA0446FFF777FA200E0D494874A4
:10140000200C8874200AC8740C75F02048750025DB
:101410000DE00848415D094800F0AEF800BF4021EA
:10142000064800F0B2F80028F9D0681CC5B2162DA5
:10143000EFDB70BD180000203000002000380140B4
:1014400070B50024D12021490870022048708870AE
:101450000020C87001200871002048710A2088719E
:101460000020C871087248728872C8720873487385
:101470008873C87308741023012215491348FFF7B5
:10148000A5F904211248FFF71DFA0446FFF72CFACC
:10149000200E0E494874200C8874200AC8740C75FC
:1014A000F020487500250DE00848415D094800F02E
:1014B00063F800BF4021074800F067F80028F9D022
:1014C000681CC5B2162DEFDB70BD000018000020AF
:1014D000300000200038014070B50024D12021499F
:1014E00008700220487088700020C87001200871C0
:1014F000002048710A2088711D20C87100200872E0
:1015000048728872C872087348738873C873087405
:101510001023012214491348FFF758F904211248F7
:10152000FFF7D0F90446FFF7DFF9200E0D494874A4
:10153000200C8874200AC8740C75F02048750025AA
:101540000DE00848415D094800F016F800BF402151
:10155000064800F01AF80028F9D0681CC5B2162D0C
:10156000EFDB70BD18000020300000200038014083
:101570000146486880B27047C1F308024260704774
:10158000C26861F34D32C26070470246106808407D
:1015900008B1012070470020FCE741B9426922F4FC
:1015A00080724261426922F40072426127E001299F
:1015B0000AD1426922F4807202F580724261426966
:1015C00022F4007242611AE002290AD1426922F42F
:1015D00080724261426922F4007202F50072426137
:1015E0000DE003290BD1426922F4807202F580726A
:1015F0004261426922F4007202F500724261704752
:101600002DE9F04385B004460F469046994668465A
:10161000FFF700FA1448844201D1029E00E0039EC5
:1016200006EB86004000B0FBF7F50A20B5FBF0F1B1
:1016300000FB1150052803D20A20B5FBF0F503E0AA
:101640000A20B5FBF0F0451CA06865F30F00A06010
:10165000E06868F30C30E060206969F30D302061C8
:1016600005B0BDE8F08300000038014030B5012A24
:101670000BD100EB11431B6801F01F050124AC40A6
:10168000234300EB114423600AE000EB11431B6885
:1016900001F01F050124AC40A34300EB114423607B
:1016A00030BD02460023202927D00CDC042939D084
:1016B00004DC01293BD002293DD134E0082920D0A7
:1016C000102938D12AE0402913D080290DD0B1F556
:1016D000807F06D0B1F5007F2DD15069C0F3802303
:1016E0002BE01069C0F3801327E0D068C0F3C0136B
:1016F00023E0D068C0F380131FE0D068C0F340132C
:101700001BE0D068C0F3401018B9506900F0010028
:1017100008B1012000E0002003460EE0D068C0F3CD
:1017200000130AE000BF506900F0010305E0D06833
:10173000C0F3002301E0002300BF00BF012B01D054
:10174000002070471068084008B10120F9E7002028
:10175000F7E741B9C26822F40072C260C26822F49D
:101760008062C2601AE001290AD1C26822F40072C4
:10177000C260C26822F4806202F58062C2600DE03D
:1017800002290BD1C26822F4007202F50072C26015
:10179000C26822F4806202F58062C2607047C2684B
:1017A00061F38202C2607047C26861F3C302C26023
:1017B0007047000010B54FF0FF30FFF79FF8002092
:1017C000FFF7A2F80548FFF7A9F80020FFF7ACF8EB
:1017D0000020FFF7B3F8FFF787F810BDB71DC1046D
:1017E00010B501210148FFF735FC10BD0203103090
:1017F00070B50320FFF706FDFEF73EFF0546002209
:101800001146FEF7DEFD044621466FF00B00FEF7A1
:101810003BFFFEF731FF054600221146FEF7D1FDE2
:10182000044621466FF00A00FEF72EFFFEF724FF64
:10183000054600221146FEF7C4FD044621466FF01E
:101840000900FEF721FFFEF717FF054600221146AB
:10185000FEF7B7FD044621466FF00400FEF714FFC3
:10186000FEF70AFF054600221146FEF7AAFD0446D0
:1018700021466FF00300FEF707FFFEF7FDFE054669
:1018800000221146FEF79DFD044621466FF001003F
:10189000FEF7FAFEFEF7F0FE054600220F21FEF7E6
:1018A00090FD044621464FF0FF30FEF7EDFE00228A
:1018B00011462520FFF742FC70BD000010B5012144
:1018C0000B48FFF7ADF901214FF4C010FFF7A8F95D
:1018D00001210848FFF7A4F901210648C01CFFF7C1
:1018E0009FF9012103480C30FFF79AF910BD000061
:1018F000060014000200180010B5FFF73DFA14208E
:101900002349086001210420FFF754F800BF214853
:10191000FFF756F90128FAD101210846FFF74AF8E6
:1019200000BFFFF765F90028FBD001210020FFF779
:1019300041F800BF0120FFF743F90128FAD1232124
:101940000020FFF78FF901210220FFF733F800BFD5
:101950001920FFF735F90128FAD10020FEF7F8FF2A
:101960000420FFF709F80420FEF7FCFF0120FFF731
:101970000DF80220FFF732FA00BFFFF74DFA0228F8
:10198000FBD10020FFF702F8FFF750FC10BD00006C
:10199000002002400100240010B500F001F810BD45
:1019A00002480068401C0149086070470C00002094
:1019B00010B586B0002401A8FFF72CF80298C408DF
:1019C0000020FFF7DDFC4FF47A70B4FBF0F0401E0E
:1019D0004FF0E0214861002088610846006940F02E
:1019E0000300086106B010BD1CB56846FFF7D2FAC7
:1019F00002208DF8070000208DF8040008208DF8E3
:101A000006008001009004208DF8050069461B48FF
:101A1000FFF7CBFA02208DF8070000208DF80400B4
:101A20008DF806004FF48060009004208DF80500CA
:101A300069461248FFF7B9FA00231A464FF4E1311C
:101A40000F48FFF7DDFD01210D48FFF7ADFE012135
:101A50000B48FFF7A4FE00210948FFF77AFE00219A
:101A60000748FFF79AFD012206490548FFF7FEFDEA
:101A700001210348FFF784FD1CBD00000008014060
:101A80000038014005000C000000000000000000CC
:101A90000102030406070809000000000102030414
:101AA000000000000102030402040608020C0810F2
:101AB00000000000000000000102030406070809FE
:101AC000E01A00080000002018000000AC01000827
:101AD000F81A00081800002090120000C801000841
:101AE00000000000004000080000000000000000AE
:081AF0000000000000127A0062
:04000005080001717D
:00000001FF
