:020000040800F2
:104000006838002085410008F5CF0008D9C20008B3
:10401000F1CF00081D4C0008E15D01080000000020
:104020000000000000000000000000001955010819
:10403000214C000800000000391601081D55010838
:104040009F4100089F4100089F4100089F410008D0
:104050009F4100089F4100089F4100089F410008C0
:104060009F4100089F4100089F4100089F410008B0
:104070009F4100089F4100089F4100089F410008A0
:104080009F4100089F4100089F4100089F41000890
:104090009F4100089F4100089F4100089F41000880
:1040A0009F4100089F4100089F4100089F41000870
:1040B00031570108715701089F4100089F410008CE
:1040C0009F4100089F4100089F4100089F41000850
:1040D0009F410008F5590108655B0108855C0108EE
:1040E000F96000089F4100089F410008000000009F
:1040F00000000000000000000000000000000000C0
:10410000000000009F4100089F41000800000000DF
:104110009D570108C9580108000000000000000078
:104120009F4100089F4100089F4100089F410008EF
:10413000000000000000000000000000000000007F
:104140000000000000000000000000009F41000887
:1041500000000000000000009F4100089F4100088F
:104160000000000000000000000000009F41000867
:10417000DFF80CD000F0D2F900480047DDA60108B6
:10418000683800200648804706480047FEE7FEE7FB
:10419000FEE7FEE7FEE7FEE7FEE7FEE7FEE7FEE7F7
:1041A00061560108714100082DE9F05F05460020C5
:1041B00092469B4688460646814640241BE0284698
:1041C00041464746224600F0CAF953465A46C01AAD
:1041D000914110D311461846224600F0B1F92D1A2C
:1041E00067EB01084F4622460120002100F0A8F9A4
:1041F00017EB00094E41201EA4F10104DFDC484604
:1042000031462A464346BDE8F09F2DE9FE4F8046E1
:1042100081EA0300C00F0C46009021F0004123F01A
:104220000045B8EB0200A94105D240462146904620
:104230001C460B46024623F00040104347D0270D92
:10424000C7F30A00C3F30A510290401A01904028B4
:104250006BDAC3F3130040F4801B0098924620B140
:104260000023D2EB030A63EB0B0B01985946C0F114
:104270004002504600F064F906460D465046594645
:10428000019A00F07CF910EB08006141002487EAF4
:10429000115284EAE7731A4340D0009A62B3019A3C
:1042A000012A4FEA075215DC001B61EB02014FF0B7
:1042B000004202EA0752CDE90042001C41F580119C
:1042C00032462B4600F07CF903B0BDE8F08F404643
:1042D0002146F9E7001B61EB0201001C41F5801348
:1042E00000185B412018A2F5001747EB030140EAD4
:1042F000D570B6196D4111E06D084FEA360645EAF2
:10430000C0754FEA0752001B61EB0201001C41F52A
:10431000801149084FEA30000019514132462B46BE
:1043200003B0BDE8F04F00F03CB900980122400016
:104330000023D0EB020263EBE073009821464FEAC2
:10434000E074B8EB000061EB0401E9E783F000439F
:104350005BE781F0004158E72DE9FE4F81EA030455
:1043600004F0004421F0004100944FF0000B23F0D2
:10437000004350EA01045ED052EA03045BD0C3F369
:104380000A54C1F30A552C44A4F2F3340194A0FB5F
:104390000254C1F3130141F48011C3F3130343F436
:1043A000801301FB024400FB034E840A970A44EA8F
:1043B000815447EA8357A4FB076802958D0A05FBE1
:1043C00007854FEA932C04FB0C542705029D4FEA06
:1043D000065847EA1637B5EB08056EEB070C870E53
:1043E000920E47EA811742EA8312A7FB0201B6EB5D
:1043F0000B0164EB00042B0D43EA0C335E1844EB15
:104400001C50DA465146E7FB0201C5F313044FEA9C
:104410000B3343EA14534FEA0432019C43EA060388
:10442000A4F10C040294009CCDE900B400F0C8F89B
:1044300003B0BDE8F08F00200146F9E72DE9F04D0B
:1044400081EA030404F0004B21F0004514464FF0CC
:10445000000A23F0004150EA050220D054EA01028C
:104460001DD0C5F30A570246C5F31303C1F3130069
:10447000C1F30A5640F4801543F48013A7EB0608F5
:10448000101BD64608F2FD3873EB050002D308F185
:10449000010801E092185B41B8F1000F03DA002037
:1044A0000146BDE8F08D00204FF480110646844699
:1044B0000EE0171B73EB050705D3121B63EB050317
:1044C00006434CEA010C49084FEA300092185B4160
:1044D00050EA0107EDD152EA030012D082EA04004B
:1044E00083EA0501084305D0101BAB4106D2012227
:1044F000002306E000224FF0004302E06FF00102CB
:1045000053101AEB06004CEB085110EB0A0041EB7C
:104510000B01BDE8F04D00F044B80000064C074D1B
:1045200006E0E06840F0010394E807009847103483
:10453000AC42F6D3FFF720FE18DF010838DF010890
:10454000202A04DB203A00FA02F100207047914053
:10455000C2F1200320FA03F3194390407047202A48
:1045600004DB203A21FA02F00021704721FA02F31D
:10457000D040C2F120029140084319467047202ADA
:1045800006DBCB17203A41FA02F043EAE07306E07B
:1045900041FA02F3D040C2F120029140084319468B
:1045A000704710B5141E73F1000408DA401C41F185
:1045B000000192185B411A4301D120F0010010BDA7
:1045C0002DE9F04D92469B4611B1B1FA81F202E01D
:1045D000B0FA80F220329046FFF7B2FF04460F4651
:1045E00040EA0A0041EA0B0153465A46084313D0F9
:1045F000114653EA010019D0C8F140025046FFF7B6
:10460000AEFF05460E46504659464246FFF798FF14
:10461000084305D0012004E020463946BDE8F08D6E
:104620000020054346EAE0762C4337430A986305A9
:10463000E40AA0EB08000022FD0A44EA47540A30CD
:1046400002D500200146E9E7010510196941DDE9BD
:10465000084500196941BDE8F04DA2E7D2B201E07A
:1046600000F8012B491EFBD270470022F6E710B577
:1046700013460A4604461946FFF7F0FF204610BDD0
:10468000F0B480EA0102D40F4200B2EB410F02D233
:104690000246084611464A0042D0C30DDDB2C1F3BE
:1046A000C752AD1A202D35DAC1F3160141F40002CC
:1046B00004B15242C5F1200602FA06F12A41104423
:1046C000B3EBD05F23D0C4B1012DA0EBC35009DC04
:1046D000F0BC4FF0004202EAC352DBB200F500002A
:1046E00000F04FB9400000F1807000EBC350A0F122
:1046F000807040EAD170490009E0490841EAC07180
:10470000A0EBC35000F50000400800EBC350F0BC24
:1047100000F02EB96142012202EB4101001BF6E7D5
:10472000F0BC704781F00041AAE780F00040A7E7A5
:1047300080EA010210B502F00043400022D04A0096
:104740001FD0010E01EB1261C0F35600C2F35602F6
:1047500040F4000042F40002A0FB022000047F3974
:10476000140400D0401C50EA124001D44000491EFD
:10477000C2B20C0604EBD010401C4008802A02D0C4
:1047800003E0002010BD20F00100002900DA002025
:10479000184310BD30B480EA010202F0004530F049
:1047A000004221F0004013D090B1C30DD40DC2F3EC
:1047B0001601C0F31600E41A41F4000140F40002AF
:1047C0007D34914201D3641C00E04900002C02DAE0
:1047D00030BC002070474FF400000023914201D309
:1047E000891A034340084FEA4101F7D151B1914280
:1047F00002D14FF0004105E002D24FF0010101E08B
:104800006FF0010103EBC450284430BC00F0B0B895
:10481000002801DBC0F10040002901DBC1F10041AB
:10482000814201D80120704700207047002801DB39
:10483000C0F10040002901DBC1F10041814201D2F9
:104840000120704700207047002801DBC0F10040C4
:10485000002901DBC1F10041814201D301207047F1
:1048600000207047002801DBC0F10040002901DB77
:10487000C1F10041814201D90120704700207047F9
:10488000C10F80EAE0700844CA079623002100F0B7
:1048900078B896230022114600F073B80EB5C10F08
:1048A00080EAE0700844CA07002140F233438DE8F3
:1048B0000E000A460B46FFF783FE03B000BD0EB59F
:1048C00040F2334102910021CDE900110A460B4626
:1048D000FFF776FE03B000BD20F00040C10DC0F32D
:1048E000160040F400007F2901DA00207047962965
:1048F00003DCC1F19601C840704796398840704783
:1049000070B5C1F30A5201F000450024C1F3130150
:1049100040F2FF3341F480119A4201DA002070BD69
:1049200040F233439A42A2F2334203DC5242FFF791
:1049300016FE00E090402C43F1D0404270BDC1F320
:104940000A5210B5C1F3130140F2FF3341F4801154
:104950009A4201DA002010BD40F233439A42A2F29B
:10496000334203DC5242FFF7FAFD10BD904010BD08
:104970000029A8BF7047401C490008BF20F0010073
:10498000704710B4B0FA80FC00FA0CF050EA010451
:1049900004BF10BC704749B1CCF1200421FA04F4E3
:1049A00011FA0CF118BF012121430843A3EB0C01BC
:1049B000CB1D4FEA00614FEA102042BF002010BC1F
:1049C000704700EBC35010440029A4BF10BC7047CF
:1049D000401C490008BF20F0010010BC70470000D7
:1049E000B0B541F2C424C2F2000441F2E821C2F29F
:1049F0000001204615F0FAFF04F1100041F2E861D1
:104A0000C2F2000115F0F2FF43F60000C4F201000B
:104A1000206241F6E824C2F2000441F60C31C2F2F1
:104A20000001204615F0E2FF04F1100041F60C7180
:104A3000C2F2000115F0DAFF44F20040C4F20000B7
:104A4000206242F20C34C2F2000442F23035C2F26B
:104A500000052046294615F0C9FF04F1100029463B
:104A600015F0C4FF44F60000C4F20000206242F2D8
:104A70003074C2F2000442F25475C2F200052046BE
:104A8000294615F0B3FF04F11000294615F0AEFFDA
:104A900044F60040C4F20000206242F65434C2F2F0
:104AA000000442F67835C2F200052046294615F08A
:104AB0009DFF04F11000294615F098FF45F2000013
:104AC000C4F200002062B0BD80B582B040F2840024
:104AD000C2F20000019001980078002840F0918017
:104AE000FFE740F2E410C2F200000078042800F270
:104AF0008780DFE800F00324315776000198007AC0
:104B0000012807D1FFE740F2E410C2F200000121C2
:104B1000017013E00198007A022807D1FFE740F204
:104B2000E410C2F200000221017006E040F2E4103D
:104B3000C2F2000000210170FFE7FFE760E040F2F1
:104B40008400C2F20000C068804740F2E410C2F264
:104B500000000321017053E040F28400C2F2000023
:104B6000C068804740F2E810C2F200000168426865
:104B7000013142F1000201604260B1F1140072F1B2
:104B800000000ED3FFE740F2E410C2F2000004215F
:104B9000017040F2E810C2F20000002141600160A3
:104BA000FFE72DE040F2E810C2F200000168426821
:104BB000013142F1000201604260881E72F1000082
:104BC0000ED3FFE740F2E810C2F20000002141607E
:104BD000016040F2E410C2F2000004210170FFE71E
:104BE0000EE040F28400C2F20000006980470198A4
:104BF0000021017240F2E410C2F200000170FFE7F0
:104C000009E040F28400C2F2000000698047019888
:104C100000210172FFE702B080BD0000FFE7FEE760
:104C200070470000B0B540F2D200C2F20000008828
:104C300042F6E061884216DBFFE740F2D200C2F2A2
:104C400000000021018041F28810C2F20000D0F87B
:104C50003011D0F83421013142F10002C0F8301196
:104C6000C0F83421FFE741F28810C2F2000090F84A
:104C70003000012840F03584FFE741F28810C2F28D
:104C8000000090F82F00002840F0FA81FFE741F281
:104C90008810C2F2000090F82D0050B1FFE741F2F9
:104CA0008810C2F2000090F83A00002840F0BF815E
:104CB000FFE741F28810C2F2000090F84200C007FE
:104CC000002800F0B381FFE716F06EF941F2881179
:104CD000C2F20001B1F874201044486040F2CE00E6
:104CE000C2F200000088098A88423DD0FFE741F205
:104CF0008810C2F2000090F83C0001280CD1FFE7B8
:104D000041F28814C2F20004208A323080B212F0DC
:104D100033FF84F8290012E041F28810C2F200004B
:104D200090F83C0050B9FFE741F28814C2F2000449
:104D3000208A12F021FF84F82900FFE7FFE740F204
:104D4000B814C2F20004E0694FF08041FFF722FD81
:104D5000E06141F28810C2F20000008A40F2CE0108
:104D6000C2F200010880FFE741F28810C2F20000A1
:104D700090F83C00012840F09E80FFE741F2881047
:104D8000C2F20000416890F92920114490F92820CE
:104D9000891A008A963081425CD8FFE741F2881078
:104DA000C2F20000416890F92920114490F92820AE
:104DB000891A008A323881424CD3FFE741F28810C9
:104DC000C2F20000416890F92920114490F928208E
:104DD000891A008A3730814219D8FFE741F28810DA
:104DE000C2F20000416890F92920114490F928206E
:104DF000891A008A2D30814209D3FFE740F2B810AA
:104E0000C2F200000021C4F27A518160FFE741F252
:104E10008815C2F20005288A3230FFF731FD0446BA
:104E2000686895F92910084495F92810401AFFF789
:104E300030FD0146204608F08FF940F2F821C2F219
:104E40000001086040F2D200C2F200000188013186
:104E500001802FE041F28810C2F20000416890F911
:104E60002920114490F92820891A008A963081421D
:104E70000ED9FFE740F2F820C2F2000000210160E5
:104E800040F2D200C2F2000001880131018010E03E
:104E900040F2F820C2F2000048F20001C4F23B7177
:104EA000016040F2D200C2F20000018801310180AD
:104EB000FFE7FFE79FE041F28810C2F2000090F8A0
:104EC0003C00002840F09680FFE741F28810C2F2D3
:104ED0000000416890F92920114490F92820891A8E
:104EE000008A643081425BD8FFE741F28810C2F249
:104EF0000000416890F92920114490F92820891A6E
:104F0000008A643881424BD3FFE741F28810C2F235
:104F10000000416890F92920114490F92820891A4D
:104F2000008A0530814219D8FFE741F28810C2F2A9
:104F30000000416890F92920114490F92820891A2D
:104F4000008A0538814209D3FFE740F2B810C2F267
:104F500000000021C4F27A518160FFE741F2881518
:104F6000C2F20005288AFFF794FC0446686895F9A8
:104F70002910084495F92810401AFFF78AFC0146C9
:104F8000204608F0E9F840F2F821C2F2000108607A
:104F900040F2D200C2F2000001880131018028E015
:104FA00041F28810C2F20000416890F929201144B2
:104FB00090F92820891A008A6430814207D9FFE7D6
:104FC00040F2F820C2F200000021016010E040F23F
:104FD000F820C2F2000048F20001C4F23B71016007
:104FE00040F2D200C2F20000018801310180FFE7E7
:104FF000FFE7FFE7FFE740F2F820C2F20000006899
:105000000021FFF72FFC38B9FFE740F2F820C2F289
:10501000000000210160FFE740F2B810C2F200007A
:105020004CF20001C4F2DA618160FFE727E041F24F
:105030008810C2F2000090F82D0001281ED1FFE771
:1050400041F28810C2F2000090F83A00012815D110
:10505000FFE70A2014F038F841F28811C2F200018B
:10506000B1F8742002EB9000486040F2F820C2F2E0
:1050700000000021016008F023F8FFE7FFE72FE2BE
:1050800041F28810C2F2000090F82F00032815D1D9
:10509000FFE70A2014F018F841F28811C2F200016B
:1050A000B1F8742002EB9000486040F2F820C2F2A0
:1050B00000000021016008F003F810E241F28810BE
:1050C000C2F2000090F82F00022840F00782FFE7AC
:1050D00041F28810C2F2000090F82D00002840F044
:1050E000D481FFE741F28810C2F2000090F842003C
:1050F000C007002800F0C881FFE715F055FF41F216
:105100008811C2F20001B1F874201044486040F2E6
:10511000CE00C2F200000088098A884242D0FFE730
:1051200041F28810C2F2000090F83C0001280ED134
:10513000FFE741F28814C2F20004208A618C08441F
:10514000323080B212F018FD84F8290015E041F2E7
:105150008810C2F2000090F83C0068B9FFE741F205
:105160008814C2F20004208A618C084480B212F0D4
:1051700003FD84F82900FFE7FFE740F2B814C2F20C
:105180000004E0694FF08041FFF704FBE06141F269
:105190008810C2F20000008A40F2CE01C2F2000183
:1051A0000880FFE741F28810C2F2000090F83C004E
:1051B000012840F0A380FFE741F28810C2F200000E
:1051C000416890F92920114490F92820891A028A0F
:1051D000408C10449630814264D8FFE741F2881039
:1051E000C2F20000416890F92920114490F928206A
:1051F000891A028A408C10443238814252D3FFE728
:1052000041F28810C2F20000416890F9292011444F
:1052100090F92820891A028A408C10443730814244
:105220001BD8FFE741F28810C2F20000416890F9F4
:105230002920114490F92820891A028A408C1044B0
:105240002D30814209D3FFE740F2B810C2F20000CE
:105250000021C4F27A518160FFE741F28815C2F261
:105260000005288A698C08443230FFF709FB0446A0
:10527000686895F92910084495F92810401AFFF735
:1052800008FB0146204607F067FF40F2F821C2F212
:105290000001086040F2D200C2F200000188013132
:1052A00001802AE041F28810C2F20000416890F9C2
:1052B0002920114490F92820891A028A408C104430
:1052C0009630814207D9FFE740F2F820C2F2000091
:1052D0000021016010E040F2F820C2F2000048F224
:1052E0000001C4F23B71016040F2D200C2F2000042
:1052F000018801310180FFE7FFE7ABE041F2881050
:10530000C2F2000090F83C00002840F0A280FFE7C5
:1053100041F28810C2F20000416890F9292011443E
:1053200090F92820891A028A408C10446430814206
:1053300063D8FFE741F28810C2F20000416890F99B
:105340002920114490F92820891A028A408C10449F
:105350006438814251D3FFE741F28810C2F2000065
:10536000416890F92920114490F92820891A028A6D
:10537000408C10440A3081421BD8FFE741F288106C
:10538000C2F20000416890F92920114490F92820C8
:10539000891A028A408C10440A38814209D3FFE7F7
:1053A00040F2B810C2F200000021C4F27A518160CC
:1053B000FFE741F28815C2F20005288A698C08448B
:1053C000FFF75EFA0446686895F92910084495F9D4
:1053D0002810401AFFF75DFA0146204607F0BCFE90
:1053E00040F2F821C2F20001086040F2D200C2F29D
:1053F00000000188013101802AE041F28810C2F2E8
:105400000000416890F92920114490F92820891A58
:10541000028A408C10446430814207D9FFE740F291
:10542000F820C2F200000021016010E040F2F820F4
:10543000C2F2000048F20001C4F23B71016040F288
:10544000D200C2F20000018801310180FFE7FFE7CE
:10545000FFE7FFE740F2F820C2F2000000680021F9
:10546000FFF700FA38B9FFE740F2F820C2F2000077
:1054700000210160FFE740F2B810C2F200000021F5
:10548000C4F27A518160FFE727E041F28810C2F24E
:10549000000090F82D0001281ED1FFE741F288108E
:1054A000C2F2000090F83A00012815D1FFE70A2067
:1054B00013F00AFE41F28811C2F20001B1F8742023
:1054C00002EB9000486040F2F820C2F20000002198
:1054D000016007F0F5FDFFE7FFE7FFE7FFE7FFE704
:1054E000DDE341F28810C2F2000090F8300002289B
:1054F00040F0D483FFE741F28810C2F2000090F838
:105500004000002840F0C983FFE741F28810C2F252
:10551000000090F83F00012840F09883FFE740F238
:10552000D000C2F20000007841F28811C2F20001FE
:1055300091F83E1088420CD0FFE741F28810C2F289
:10554000000090F83E0040F2D001C2F20001087065
:10555000FFE741F28810C2F2000090F84200C00755
:10556000002800F07283FFE715F01EFD41F2881459
:10557000C2F20004B4F8741008446060208A12F08B
:10558000FBFA84F8290094F86C00002840F0C980E8
:10559000FFE741F28810C2F2000090F83E000128B7
:1055A00023D1FFE741F28815C2F20005B5F88E005D
:1055B000FFF76FF90446686895F92910084495F9D2
:1055C0002810401AFFF765F90146204607F0C4FD90
:1055D00040F2F821C2F20001086040F2D200C2F2AB
:1055E00000000188013101809AE041F28810C2F286
:1055F000000090F83E00022823D1FFE741F2881511
:10560000C2F20005B5F89400FFF743F90446686854
:1056100095F92910084495F92810401AFFF739F92F
:105620000146204607F098FD40F2F821C2F2000141
:10563000086040F2D200C2F200000188013101800E
:105640006DE041F28810C2F2000090F83E0003289D
:1056500023D1FFE741F28815C2F20005B5F89A00A0
:10566000FFF717F90446686895F92910084495F979
:105670002810401AFFF70DF90146204607F06CFD8F
:1056800040F2F821C2F20001086040F2D200C2F2FA
:10569000000001880131018040E041F28810C2F22F
:1056A000000090F83E00042823D1FFE741F288155E
:1056B000C2F20005B5F8A000FFF7EBF804466868F1
:1056C00095F92910084495F92810401AFFF7E1F8D8
:1056D0000146204607F040FD40F2F821C2F20001E9
:1056E000086040F2D200C2F200000188013101805E
:1056F00013E041F28810C2F2000090F83E00052845
:105700000AD1FFE741F28810C2F20000002180F8C0
:105710003F1080F83E10FFE7FFE7FFE7FFE7FFE7F6
:1057200078E241F28810C2F2000090F86C00012883
:1057300040F0C980FFE741F28810C2F2000090F803
:105740003E00012823D1FFE741F28815C2F200058F
:10575000B5F8AC00FFF79DF80446686895F9291084
:10576000084495F92810401AFFF793F8014620469F
:1057700007F0F2FC40F2F821C2F20001086040F2AA
:10578000D200C2F200000188013101809AE041F2AA
:105790008810C2F2000090F83E00022823D1FFE7F3
:1057A00041F28815C2F20005B5F8B200FFF771F8B2
:1057B0000446686895F92910084495F92810401A9C
:1057C000FFF767F80146204607F0C6FC40F2F821D3
:1057D000C2F20001086040F2D200C2F2000001886B
:1057E000013101806DE041F28810C2F2000090F8B2
:1057F0003E00032823D1FFE741F28815C2F20005DD
:10580000B5F8B800FFF745F80446686895F929101F
:10581000084495F92810401AFFF73BF80146204646
:1058200007F09AFC40F2F821C2F20001086040F251
:10583000D200C2F2000001880131018040E041F253
:105840008810C2F2000090F83E00042823D1FFE740
:1058500041F28815C2F20005B5F8BE00FFF719F84D
:105860000446686895F92910084495F92810401AEB
:10587000FFF70FF80146204607F06EFC40F2F821D2
:10588000C2F20001086040F2D200C2F200000188BA
:105890000131018013E041F28810C2F2000090F85B
:1058A0003E0005280AD1FFE741F28810C2F200004D
:1058B000002180F83F1080F83E10FFE7FFE7FFE788
:1058C000FFE7FFE7A5E141F28810C2F2000090F87F
:1058D0006C00022840F0C980FFE741F28810C2F254
:1058E000000090F83E00012823D1FFE741F288151F
:1058F000C2F20005B5F8CA00FEF7CBFF044668689F
:1059000095F92910084495F92810401AFEF7C1FFAF
:105910000146204607F020FC40F2F821C2F20001C7
:10592000086040F2D200C2F200000188013101801B
:105930009AE041F28810C2F2000090F83E0002287E
:1059400023D1FFE741F28815C2F20005B5F8D00077
:10595000FEF79FFF0446686895F92910084495F9F9
:105960002810401AFEF795FF0146204607F0F4FB89
:1059700040F2F821C2F20001086040F2D200C2F207
:1059800000000188013101806DE041F28810C2F20F
:10599000000090F83E00032823D1FFE741F288156C
:1059A000C2F20005B5F8D600FEF773FF044668683A
:1059B00095F92910084495F92810401AFEF769FF57
:1059C0000146204607F0C8FB40F2F821C2F2000170
:1059D000086040F2D200C2F200000188013101806B
:1059E00040E041F28810C2F2000090F83E00042826
:1059F00023D1FFE741F28815C2F20005B5F8DC00BB
:105A0000FEF747FF0446686895F92910084495F9A0
:105A10002810401AFEF73DFF0146204607F09CFB88
:105A200040F2F821C2F20001086040F2D200C2F256
:105A3000000001880131018013E041F28810C2F2B8
:105A4000000090F83E0005280AD1FFE741F28810D7
:105A5000C2F20000002180F83F1080F83E10FFE7FE
:105A6000FFE7FFE7FFE7FFE7D2E041F28810C2F26D
:105A7000000090F86C00032840F0C980FFE741F275
:105A80008810C2F2000090F83E00012823D1FFE701
:105A900041F28815C2F20005B5F8E800FEF7F9FEFC
:105AA0000446686895F92910084495F92810401AA9
:105AB000FEF7EFFE0146204607F04EFB40F2F821CC
:105AC000C2F20001086040F2D200C2F20000018878
:105AD000013101809AE041F28810C2F2000090F892
:105AE0003E00022823D1FFE741F28815C2F20005EB
:105AF000B5F8EE00FEF7CDFE0446686895F929106A
:105B0000084495F92810401AFEF7C3FE01462046C6
:105B100007F022FB40F2F821C2F20001086040F2D7
:105B2000D200C2F200000188013101806DE041F233
:105B30008810C2F2000090F83E00032823D1FFE74E
:105B400041F28815C2F20005B5F8F400FEF7A1FE97
:105B50000446686895F92910084495F92810401AF8
:105B6000FEF797FE0146204607F0F6FA40F2F821CC
:105B7000C2F20001086040F2D200C2F200000188C7
:105B80000131018040E041F28810C2F2000090F83B
:105B90003E00042823D1FFE741F28815C2F2000538
:105BA000B5F8FA00FEF775FE0446686895F9291005
:105BB000084495F92810401AFEF76BFE014620466E
:105BC00007F0CAFA40F2F821C2F20001086040F280
:105BD000D200C2F2000001880131018013E041F2DD
:105BE0008810C2F2000090F83E0005280AD1FFE7B5
:105BF00041F28810C2F20000002180F83F1080F8C6
:105C00003E10FFE7FFE7FFE7FFE7FFE7FFE7FFE7FC
:105C1000FFE7FFE740F2F820C2F200000068002131
:105C2000FEF720FE38B9FFE740F2F820C2F200008C
:105C300000210160FFE740F2B810C2F200004CF210
:105C40000001C4F2DA618160FFE725E041F28810CB
:105C5000C2F2000090F83F00E8B9FFE740F2B81048
:105C6000C2F200000021C4F27A51816007F028FAE4
:105C70000A2013F029FA41F28811C2F20001B1F8AA
:105C8000742002EB9000486040F2F820C2F200005D
:105C900000210160FFE7FFE7FFE7FFE7FFE741F2D1
:105CA0008810C2F2000090F82E0038B1FFE740F2F1
:105CB000F820C2F2000000210160FFE7B0BD000043
:105CC00080B510F0D5FC41F28810C2F2000090F8C7
:105CD0003000012840F02081FFE741F28810C2F235
:105CE000000090F82C0018B1FFE7012821D012E144
:105CF00041F28810C2F2000090F82D0040B9FFE791
:105D000041F28810C2F20000012180F82C1007E057
:105D100041F28810C2F20000002180F82C10FFE749
:105D200041F28810C2F20000002180F82010C183E7
:105D3000F1E041F28810C2F2000090F82F0050B15B
:105D4000FFE741F28810C2F2000090F82F0002280D
:105D500040F0D580FFE741F28810C2F2000090F8D1
:105D60002F00022811D1FFE741F28810C2F2000093
:105D700090F82D00012808D1FFE741F28810C2F207
:105D80000000002180F82F10FFE741F28810C2F2D6
:105D9000000040682E280AD3FFE741F28810C2F2C3
:105DA0000000406840F28A21884267D3FFE741F251
:105DB0008810C2F2000090F82D0000285ED1FFE7A5
:105DC00041F28810C2F20000C18B0131C183C08B47
:105DD0004B2818DBFFE741F28810C2F20000406850
:105DE00040F28A2188420DD3FFE741F28810C2F2C7
:105DF0000000032180F82E10012180F820100021DE
:105E0000C18388E0FFE741F28810C2F20000C08B36
:105E100040F2EE21884230DBFFE741F28810C2F207
:105E2000000040682D280DD8FFE741F28810C2F22B
:105E30000000022180F82E10012180F8201000219E
:105E4000C18368E041F28810C2F20000C068952862
:105E500008D8FFE741F28810C2F20000012180F863
:105E60002E10FFE7FFE741F28810C2F20000012187
:105E700080F820100021C1834DE006E041F2881037
:105E8000C2F200000021C183FFE741F28810C2F294
:105E9000000090F82D00012830D1FFE741F2881072
:105EA000C2F2000090F83A00012827D1FFE741F242
:105EB0008810C2F20000406846281ED8FFE741F271
:105EC0008810C2F20000818B01318183808BC92848
:105ED00012DBFFE741F28810C2F20000002180F8D7
:105EE0002C10818340F28401C2F2000102220A7266
:105EF000012180F820100EE0FFE7FFE70AE041F201
:105F00008810C2F2000090F82F00032801D1FFE7AB
:105F1000FFE7FFE7FFE7B9E041F28810C2F20000B7
:105F200090F83000022840F0B080FFE741F288107E
:105F3000C2F2000090F83F00012840F0A580FFE782
:105F400041F28810C2F2000090F84000002840F0B2
:105F50009A80FFE741F28810C2F2000040682E28C4
:105F600012D3FFE741F28810C2F20000406840F20D
:105F70008921884208D8FFE741F28810C2F2000068
:105F8000C068952877D8FFE741F28810C2F2000078
:105F900090F82D0000286ED1FFE741F28810C2F280
:105FA0000000C18B0131C183C08B4B2820DBFFE790
:105FB00041F28810C2F20000406840F28A21884213
:105FC00015D3FFE741F28810C2F20000C06896289E
:105FD0000DD3FFE741F28810C2F20000032180F8E0
:105FE0002E10012180F820100021C183FFE7FFE778
:105FF00041F28810C2F20000C08B40F2EE218842CC
:1060000038DBFFE741F28810C2F2000040682D281B
:1060100015D8FFE741F28810C2F20000C068962848
:106020000DD3FFE741F28810C2F20000022180F890
:106030002E10012180F820100021C18310E041F2D0
:106040008810C2F20000C068952808D8FFE741F226
:106050008810C2F20000012180F82E10FFE7FFE750
:1060600041F28810C2F20000012180F820100021C6
:10607000C183FFE706E041F28810C2F20000002170
:10608000C183FFE7FFE7FFE7FFE7FFE780BD000011
:1060900082B00190019808B9FFE72BE00198002138
:1060A0000170019845F6E552C0F60102C0F80428D7
:1060B000019841F23D62C0F60102C0F80828009143
:1060C000FFE70098B0F5806F0FDAFFE701980099BD
:1060D0000844002180F802140198009A104441708D
:1060E000FFE7009801300090EBE70198002180F86D
:1060F0000114FFE702B0704780B512F05FF818B1E5
:10610000FFE712F04FF8FFE780BD000080B586B0D2
:1061100043F24040C2F2000080690390FFE700F0C4
:10612000F7F904900498039988422CD2FFE7EFF323
:10613000108005900598029072B643F24040C2F27A
:106140000000806901900198039988420ED1FFE711
:10615000049843F24041C2F20001886108690130AD
:106160000861BFF35F8F0120009002E000200090E3
:10617000FFE7029810B9FFE762B6FFE7009808B999
:10618000FFE701E008E0FFE7049903A810F0DAF95F
:106190000028C4D0FFE7FFE7049806B080BD0000E8
:1061A00080B58CB00A90099108920793072005905A
:1061B000FFE70598002863D0FFE706F083F8049016
:1061C000049800F03F0042F6C071C2F2000101EBFA
:1061D0000010069004984FF4700101EA803001909D
:1061E0000A980199084309994FF0805202EAD101B7
:1061F000084308994FF0005202EA910108430799B9
:106200004FF0804202EA5101084340F000600390E1
:1062100006980C30039906F0A3FE03909DF80F003A
:106220004007002827D5FFE7039880F0004003903F
:10623000039800F000400290099820F00040029975
:10624000084306990860089820F000400299084326
:1062500006994860079820F0004002990843069983
:10626000886006980C3003990FF0A2FD06F040F804
:1062700001200B9009E0FFE705980138059098E7A9
:1062800006F02CF800200B90FFE70B980CB080BDB7
:1062900087B00590049103920498FE2804D8FFE784
:1062A0000398FF2803D3FFE70020069036E0002084
:1062B00002900190FFE7019803282CD8FFE705988A
:1062C0000199C840C007F0B1FFE704980090FFE7CC
:1062D00000980399884215D8FFE7009800F007015D
:1062E000012202FA01F1029A02EBD00043F2C0321D
:1062F000C2F20002135C19431154FFE70098013009
:106300000090E5E7FFE7029820300290FFE7019850
:1063100001300190CFE701200690FFE707B07047FA
:1063200010B588B0002007900121069143F2404447
:10633000C2F20004207043F2C030C2F2000080219B
:10634000FEF793F910F0A2FFADF81200206A42F2B6
:106350006B71CEF2A51188420FD0FFE743F24040A7
:10636000C2F2000042F26B71CEF2A5110162BDF8DB
:10637000121041800121C1611CE043F24040C2F291
:1063800000004088BDF8121088420AD0FFE7BDF82F
:10639000120043F24041C2F2000148800120C8616E
:1063A00007E043F24040C2F20000C1690131C1611F
:1063B000FFE7FFE743F24040C2F20000C069012856
:1063C00012D1FFE743F24040C2F2000000214170C9
:1063D00041608160C16042F6C070C2F200004FF4BB
:1063E0008061FEF742F920E000200090FFE700986E
:1063F0003F2819D8FFE7009842F6C071C2F20001A9
:1064000001EB001005900598C07B4007002806D5D9
:10641000FFE70598C16821F04061C160FFE7FFE731
:10642000009801300090E2E7FFE743F24040C2F2FB
:106430000000C069012818D1FFE700F075F80120BD
:106440000290029820B1FFE700F068F8039002E0A4
:1064500000200390FFE7039843F24041C2F200019D
:10646000486100208861086104E000F05DF80120C7
:106470000290FFE7029830B3FFE707980021FE2261
:10648000FFF706FF0F20EF21EF22FFF701FF0420A7
:10649000FE21FE22FFF7FCFEFFF738FE0190019976
:1064A00043F24040C2F200004369C2694FF60070F7
:1064B000C0F20030FFF774FE069818B1FFE700F055
:1064C00005F8FFE7FFE708B010BD000010B582B087
:1064D00043F24040C2F20000007818B1FFE701200B
:1064E000019013E043F24040C2F200000124047026
:1064F000FFF70CFE009000994FF60170C0F20030DB
:1065000000220023FFF74CFE0194FFE702B010BD0C
:1065100041F20400CEF200000068704740F2A4008F
:10652000C2F20000006870474EF6FC50CEF2000048
:10653000016841F08071016041F20000CEF200007C
:10654000016841F0010101607047000070B581B041
:1065500041F28810C2F200000090009800230370FE
:1065600000984360009883600098C3600099C82633
:106570000E8200994B8200998B82009A322191758C
:10658000009AD375009A1176009A5376009A4FF0CC
:10659000280CA2F81AC0009A9383009AD383009A19
:1065A00082F82030009A5384009A9384009AD3840E
:1065B000009A82F82830009A82F829300098012247
:1065C00080F82C20009880F82D30009880F82E302C
:1065D000009880F82F30009880F83020009880F8DC
:1065E0003130009880F83220009880F833300098DD
:1065F00080F83420009880F83530009880F83630E4
:106600000098022480F83740009880F838300098CD
:1066100080F83930009880F83A20009880F83B30B4
:10662000009880F83C30009880F83D20009880F871
:106630003E20009880F83F30009880F84030009865
:1066400080F84130009880F84230009880F843305C
:106650000098312280F8442000982E2480F845408C
:106660000098302580F84650009880F84740009800
:1066700080F84850009880F85820009880F85940D9
:10668000009880F85A50009880F85B40009880F895
:106690005C50009880F86C30009880F86D3000985D
:1066A0000A22A0F86E200098A0F870300098A0F898
:1066B00072300098A0F8743000984FF49673A0F8E8
:1066C00076300098A0F878C000981E23A0F87A30A1
:1066D00000984FF4A073A0F87C300098A0F87E10CA
:1066E0000098A0F880C000984FF4AF73A0F88230F3
:1066F00000983C23A0F884300098A0F886100098F9
:106700004FF4BE75A0F8885000985025A0F88A5024
:106710000098A0F88C3000984FF0640CA0F88EC060
:1067200000984FF0140EA0F890E00098A0F8923076
:106730000098A0F894600098A0F896100098A0F82F
:1067400098200098A0F89A600098A0F89C100098F3
:10675000A0F89E200098A0F8A0600098A0F8A210D1
:106760000098A0F8A4200098A0F8A6600098A0F8CF
:10677000A8100098A0F8AA200098A0F8ACC0009833
:10678000A0F8AEE00098A0F8B0300098A0F8B26091
:106790000098A0F8B4100098A0F8B6200098A0F8CF
:1067A000B8600098A0F8BA100098A0F8BC20009833
:1067B000A0F8BE600098A0F8C0100098A0F8C22011
:1067C0000098A0F8C4600098A0F8C6100098A0F83F
:1067D000C8200098A0F8CAC00098A0F8CCE00098A3
:1067E000A0F8CE300098A0F8D0600098A0F8D210A1
:1067F0000098A0F8D4200098A0F8D6600098A0F8DF
:10680000D8100098A0F8DA200098A0F8DC60009872
:10681000A0F8DE100098A0F8E0200098A0F8E26050
:106820000098A0F8E4100098A0F8E6200098A0F8DE
:10683000E8C00098A0F8EAE00098A0F8EC300098D2
:10684000A0F8EE600098A0F8F0100098A0F8F220F0
:106850000098A0F8F4600098A0F8F6100098A0F84E
:10686000F8200098A0F8FA600098A0F8FC100098B2
:10687000A0F8FE200098A0F800610098A0F802118E
:106880000098A0F804210098A0F806C10098A0F88C
:1068900008E10098A0F80A310098A0F80C6100986F
:1068A000A0F80E110098A0F810210098A0F812612D
:1068B0000098A0F814110098A0F816210098A0F8EC
:1068C00018610098A0F81A110098A0F81C210098EF
:1068D000A0F81E610098A0F820110098A0F82221CD
:1068E00001B070BDB0B540F2F010C2F20000007807
:1068F000032805F2E584DFE810F00400891C322348
:10690000AC2C40F2D320C2F200000078002843F003
:106910007384FFE74EF60040C0F6010011F0FEF868
:106920004FF6FF71884200F0D986FFE74EF2000073
:10693000C0F6010011F0F2F84FF6FF71884200F046
:10694000CD86FFE74EF6D840C0F6010012F0A2FB5C
:1069500040F2D424C2F2000420804EF2D800C0F6E7
:10696000010012F097FB40F2D621C2F2000108802C
:1069700020880988884240F35883FFE74EF600409C
:10698000C0F6010012F086FB41F28815C2F2000544
:1069900028824EF60240C0F6010012F07BFBA8757B
:1069A0004EF60440C0F6010012F074FB28764EF655
:1069B0000640C0F6010012F06DFB85F828004EF687
:1069C0000840C0F6010012F065FB68844EF60A40EC
:1069D000C0F6010012F05EFBA8844EF6D040C0F66F
:1069E000010012F057FB85F830004EF60C40C0F65F
:1069F000010012F04FFBA5F86E004EF60E40C0F6F7
:106A0000010012F047FB85F831004EF61040C0F649
:106A1000010012F03FFB85F832004EF61240C0F63E
:106A2000010012F037FB85F833004EF61440C0F633
:106A3000010012F02FFB85F834004EF61640C0F628
:106A4000010012F027FB85F835004EF61840C0F61D
:106A5000010012F01FFB85F836004EF61A40C0F612
:106A6000010012F017FB85F838004EF61C40C0F606
:106A7000010012F00FFB85F839004EF61E40C0F6FB
:106A8000010012F007FB85F83B004EF62040C0F6EF
:106A9000010012F0FFFA85F83C004EF62240C0F6E5
:106AA000010012F0F7FAA5F876004EF62440C0F681
:106AB000010012F0EFFAA5F878004EF62640C0F675
:106AC000010012F0E7FAA5F87A004EF62840C0F669
:106AD000010012F0DFFAA5F87C004EF62A40C0F65D
:106AE000010012F0D7FAA5F87E004EF62C40C0F651
:106AF000010012F0CFFAA5F880004EF62E40C0F645
:106B0000010012F0C7FAA5F882004EF63040C0F638
:106B1000010012F0BFFAA5F884004EF63240C0F62C
:106B2000010012F0B7FAA5F886004EF63440C0F620
:106B3000010012F0AFFAA5F888004EF63640C0F614
:106B4000010012F0A7FAA5F88A004EF63840C0F608
:106B5000010012F09FFAA5F88C004EF63A40C0F6FC
:106B6000010012F097FAA5F88E004EF63C40C0F6F0
:106B7000010012F08FFAA5F890004EF63E40C0F6E4
:106B8000010012F087FAA5F892004EF64040C0F6D8
:106B9000010012F07FFAA5F894004EF64240C0F6CC
:106BA000010012F077FAA5F896004EF64440C0F6C0
:106BB000010012F06FFAA5F898004EF64640C0F6B4
:106BC000010012F067FAA5F89A004EF64840C0F6A8
:106BD000010012F05FFAA5F89C004EF64A40C0F69C
:106BE000010012F057FAA5F89E004EF64C40C0F690
:106BF000010012F04FFAA5F8A0004EF64E40C0F684
:106C0000010012F047FAA5F8A2004EF65040C0F677
:106C1000010012F03FFAA5F8A4004EF65240C0F66B
:106C2000010012F037FAA5F8A6004EF65440C0F65F
:106C3000010012F02FFAA5F8A8004EF65640C0F653
:106C4000010012F027FAA5F8AA004EF65840C0F647
:106C5000010012F01FFAA5F8AC004EF65A40C0F63B
:106C6000010012F017FAA5F8AE004EF65C40C0F62F
:106C7000010012F00FFAA5F8B0004EF65E40C0F623
:106C8000010012F007FAA5F8B2004EF66040C0F617
:106C9000010012F0FFF9A5F8B4004EF66240C0F60C
:106CA000010012F0F7F9A5F8B6004EF66440C0F600
:106CB000010012F0EFF9A5F8B8004EF66640C0F6F4
:106CC000010012F0E7F9A5F8BA004EF66840C0F6E8
:106CD000010012F0DFF9A5F8BC004EF66A40C0F6DC
:106CE000010012F0D7F9A5F8BE004EF66C40C0F6D0
:106CF000010012F0CFF9A5F8C0004EF66E40C0F6C4
:106D0000010012F0C7F9A5F8C2004EF67040C0F6B7
:106D1000010012F0BFF9A5F8C4004EF67240C0F6AB
:106D2000010012F0B7F9A5F8C6004EF67440C0F69F
:106D3000010012F0AFF9A5F8C8004EF67844C0F68D
:106D40000104204612F0A6F9A5F8CA00204612F068
:106D5000A1F9A5F8CC004EF67A40C0F6010012F079
:106D600099F9A5F8CE004EF67C40C0F6010012F06D
:106D700091F9A5F8D0004EF67E40C0F6010012F061
:106D800089F9A5F8D2004EF68040C0F6010012F055
:106D900081F9A5F8D4004EF68240C0F6010012F049
:106DA00079F9A5F8D6004EF68440C0F6010012F03D
:106DB00071F9A5F8D8004EF68640C0F6010012F031
:106DC00069F9A5F8DA004EF68840C0F6010012F025
:106DD00061F9A5F8DC004EF68A40C0F6010012F019
:106DE00059F9A5F8DE004EF68C40C0F6010012F00D
:106DF00051F9A5F8E0004EF68E40C0F6010012F001
:106E000049F9A5F8E2004EF69040C0F6010012F0F4
:106E100041F9A5F8E4004EF69240C0F6010012F0E8
:106E200039F9A5F8E6004EF69644C0F6010420466E
:106E300012F030F9A5F8E800204612F02BF9A5F879
:106E4000EA004EF69840C0F6010012F023F9A5F8CA
:106E5000EC004EF69A40C0F6010012F01BF9A5F8BE
:106E6000EE004EF69C40C0F6010012F013F9A5F8B2
:106E7000F0004EF69E40C0F6010012F00BF9A5F8A6
:106E8000F2004EF6A040C0F6010012F003F9A5F89A
:106E9000F4004EF6A240C0F6010012F0FBF8A5F88F
:106EA000F6004EF6A440C0F6010012F0F3F8A5F883
:106EB000F8004EF6A640C0F6010012F0EBF8A5F877
:106EC000FA004EF6A840C0F6010012F0E3F8A5F86B
:106ED000FC004EF6AA40C0F6010012F0DBF8A5F85F
:106EE000FE004EF6AC40C0F6010012F0D3F8A5F853
:106EF00000014EF6AE40C0F6010012F0CBF8A5F846
:106F000002014EF6B040C0F6010012F0C3F8A5F839
:106F100004014EF6B444C0F60104204612F0BAF85B
:106F2000A5F80601204612F0B5F8A5F808014EF6BE
:106F3000B640C0F6010012F0ADF8A5F80A014EF611
:106F4000B840C0F6010012F0A5F8A5F80C014EF605
:106F5000BA40C0F6010012F09DF8A5F80E014EF6F9
:106F6000BC40C0F6010012F095F8A5F810014EF6ED
:106F7000BE40C0F6010012F08DF8A5F812014EF6E1
:106F8000C040C0F6010012F085F8A5F814014EF6D5
:106F9000C240C0F6010012F07DF8A5F816014EF6C9
:106FA000C440C0F6010012F075F8A5F818014EF6BD
:106FB000C640C0F6010012F06DF8A5F81A014EF6B1
:106FC000C840C0F6010012F065F8A5F81C014EF6A5
:106FD000CA40C0F6010012F05DF8A5F81E014EF699
:106FE000CC40C0F6010012F055F8A5F820014EF68D
:106FF000CE40C0F6010012F04DF8A5F822014EF681
:10700000D440C0F6010012F045F80024C5F82C4128
:10701000C5F828014EF6D640C0F6010012F03AF845
:10702000C5F83441C5F8300156E34EF20000C0F611
:10703000010012F02FF841F28815C2F200052882F3
:107040004EF20200C0F6010012F024F8A8754EF2CC
:107050000400C0F6010012F01DF828764EF206007A
:10706000C0F6010012F016F885F828004EF208006C
:10707000C0F6010012F00EF868844EF20A00C0F665
:10708000010012F007F8A8844EF2D000C0F601000B
:1070900012F000F885F830004EF20C00C0F6010046
:1070A00011F0F8FFA5F86E004EF20E00C0F60100D8
:1070B00011F0F0FF85F831004EF21000C0F601002B
:1070C00011F0E8FF85F832004EF21200C0F6010020
:1070D00011F0E0FF85F833004EF21400C0F6010015
:1070E00011F0D8FF85F834004EF21600C0F601000A
:1070F00011F0D0FF85F835004EF21800C0F60100FF
:1071000011F0C8FF85F836004EF21A00C0F60100F3
:1071100011F0C0FF85F838004EF21C00C0F60100E7
:1071200011F0B8FF85F839004EF21E00C0F60100DC
:1071300011F0B0FF85F83B004EF22000C0F60100D0
:1071400011F0A8FF85F83C004EF22200C0F60100C5
:1071500011F0A0FFA5F876004EF22400C0F6010061
:1071600011F098FFA5F878004EF22600C0F6010055
:1071700011F090FFA5F87A004EF22800C0F6010049
:1071800011F088FFA5F87C004EF22A00C0F601003D
:1071900011F080FFA5F87E004EF22C00C0F6010031
:1071A00011F078FFA5F880004EF22E00C0F6010025
:1071B00011F070FFA5F882004EF23000C0F6010019
:1071C00011F068FFA5F884004EF23200C0F601000D
:1071D00011F060FFA5F886004EF23400C0F6010001
:1071E00011F058FFA5F888004EF23600C0F60100F5
:1071F00011F050FFA5F88A004EF23800C0F60100E9
:1072000011F048FFA5F88C004EF23A00C0F60100DC
:1072100011F040FFA5F88E004EF23C00C0F60100D0
:1072200011F038FFA5F890004EF23E00C0F60100C4
:1072300011F030FFA5F892004EF24000C0F60100B8
:1072400011F028FFA5F894004EF24200C0F60100AC
:1072500011F020FFA5F896004EF24400C0F60100A0
:1072600011F018FFA5F898004EF24600C0F6010094
:1072700011F010FFA5F89A004EF24800C0F6010088
:1072800011F008FFA5F89C004EF24A00C0F601007C
:1072900011F000FFA5F89E004EF24C00C0F6010070
:1072A00011F0F8FEA5F8A0004EF24E00C0F6010065
:1072B00011F0F0FEA5F8A2004EF25000C0F6010059
:1072C00011F0E8FEA5F8A4004EF25200C0F601004D
:1072D00011F0E0FEA5F8A6004EF25400C0F6010041
:1072E00011F0D8FEA5F8A8004EF25600C0F6010035
:1072F00011F0D0FEA5F8AA004EF25800C0F6010029
:1073000011F0C8FEA5F8AC004EF25A00C0F601001C
:1073100011F0C0FEA5F8AE004EF25C00C0F6010010
:1073200011F0B8FEA5F8B0004EF25E00C0F6010004
:1073300011F0B0FEA5F8B2004EF26000C0F60100F8
:1073400011F0A8FEA5F8B4004EF26200C0F60100EC
:1073500011F0A0FEA5F8B6004EF26400C0F60100E0
:1073600011F098FEA5F8B8004EF26600C0F60100D4
:1073700011F090FEA5F8BA004EF26800C0F60100C8
:1073800011F088FEA5F8BC004EF26A00C0F60100BC
:1073900011F080FEA5F8BE004EF26C00C0F60100B0
:1073A00011F078FEA5F8C0004EF26E00C0F60100A4
:1073B00011F070FEA5F8C2004EF27000C0F6010098
:1073C00011F068FEA5F8C4004EF27200C0F601008C
:1073D00011F060FEA5F8C6004EF27400C0F6010080
:1073E00011F058FEA5F8C8004EF27804C0F601046A
:1073F000204611F04FFEA5F8CA00204611F04AFEC3
:10740000A5F8CC004EF27A00C0F6010011F042FE61
:10741000A5F8CE004EF27C00C0F6010011F03AFE55
:10742000A5F8D0004EF27E00C0F6010011F032FE49
:10743000A5F8D2004EF28000C0F6010011F02AFE3D
:10744000A5F8D4004EF28200C0F6010011F022FE31
:10745000A5F8D6004EF28400C0F6010011F01AFE25
:10746000A5F8D8004EF28600C0F6010011F012FE19
:10747000A5F8DA004EF28800C0F6010011F00AFE0D
:10748000A5F8DC004EF28A00C0F6010011F002FE01
:10749000A5F8DE004EF28C00C0F6010011F0FAFDF6
:1074A000A5F8E0004EF28E00C0F6010011F0F2FDEA
:1074B000A5F8E2004EF29000C0F6010011F0EAFDDE
:1074C000A5F8E4004EF29200C0F6010011F0E2FDD2
:1074D000A5F8E6004EF29604C0F60104204611F02D
:1074E000D9FDA5F8E800204611F0D4FDA5F8EA0082
:1074F0004EF29800C0F6010011F0CCFDA5F8EC00AA
:107500004EF29A00C0F6010011F0C4FDA5F8EE009D
:107510004EF29C00C0F6010011F0BCFDA5F8F00091
:107520004EF29E00C0F6010011F0B4FDA5F8F20085
:107530004EF2A000C0F6010011F0ACFDA5F8F40079
:107540004EF2A200C0F6010011F0A4FDA5F8F6006D
:107550004EF2A400C0F6010011F09CFDA5F8F80061
:107560004EF2A600C0F6010011F094FDA5F8FA0055
:107570004EF2A800C0F6010011F08CFDA5F8FC0049
:107580004EF2AA00C0F6010011F084FDA5F8FE003D
:107590004EF2AC00C0F6010011F07CFDA5F8000130
:1075A0004EF2AE00C0F6010011F074FDA5F8020124
:1075B0004EF2B000C0F6010011F06CFDA5F8040118
:1075C0004EF2B404C0F60104204611F063FDA5F8A4
:1075D0000601204611F05EFDA5F808014EF2B60046
:1075E000C0F6010011F056FDA5F80A014EF2B800F0
:1075F000C0F6010011F04EFDA5F80C014EF2BA00E4
:10760000C0F6010011F046FDA5F80E014EF2BC00D7
:10761000C0F6010011F03EFDA5F810014EF2BE00CB
:10762000C0F6010011F036FDA5F812014EF2C000BF
:10763000C0F6010011F02EFDA5F814014EF2C200B3
:10764000C0F6010011F026FDA5F816014EF2C400A7
:10765000C0F6010011F01EFDA5F818014EF2C6009B
:10766000C0F6010011F016FDA5F81A014EF2C8008F
:10767000C0F6010011F00EFDA5F81C014EF2CA0083
:10768000C0F6010011F006FDA5F81E014EF2CC0077
:10769000C0F6010011F0FEFCA5F820014EF2CE006C
:1076A000C0F6010011F0F6FCA5F822014EF2D4005C
:1076B000C0F6010011F0EEFC0024C5F82C41C5F81D
:1076C00028014EF2D600C0F6010011F0E3FCC5F827
:1076D0003441C5F83001FFE700F0BCBF4EF6004072
:1076E000C0F6010010F01AFA4FF6FF71884200F060
:1076F0005983FFE74EF60040C0F6010011F0CAFCC6
:1077000041F28815C2F2000528824EF60240C0F60A
:10771000010011F0BFFCA8754EF60440C0F6010050
:1077200011F0B8FC28764EF60640C0F6010011F0C4
:10773000B1FC85F828004EF60840C0F6010011F0B3
:10774000A9FC68844EF60A40C0F6010011F0A2FCC4
:10775000A8844EF6D040C0F6010011F09BFC85F8DD
:1077600030004EF60C40C0F6010011F093FCA5F875
:107770006E004EF60E40C0F6010011F08BFC85F84D
:1077800031004EF61040C0F6010011F083FC85F880
:1077900032004EF61240C0F6010011F07BFC85F875
:1077A00033004EF61440C0F6010011F073FC85F86A
:1077B00034004EF61640C0F6010011F06BFC85F85F
:1077C00035004EF61840C0F6010011F063FC85F854
:1077D00036004EF61A40C0F6010011F05BFC85F849
:1077E00038004EF61C40C0F6010011F053FC85F83D
:1077F00039004EF61E40C0F6010011F04BFC85F832
:107800003B004EF62040C0F6010011F043FC85F825
:107810003C004EF62240C0F6010011F03BFCA5F8FA
:1078200076004EF62440C0F6010011F033FCA5F8B6
:1078300078004EF62640C0F6010011F02BFCA5F8AA
:107840007A004EF62840C0F6010011F023FCA5F89E
:107850007C004EF62A40C0F6010011F01BFCA5F892
:107860007E004EF62C40C0F6010011F013FCA5F886
:1078700080004EF62E40C0F6010011F00BFCA5F87A
:1078800082004EF63040C0F6010011F003FCA5F86E
:1078900084004EF63240C0F6010011F0FBFBA5F863
:1078A00086004EF63440C0F6010011F0F3FBA5F857
:1078B00088004EF63640C0F6010011F0EBFBA5F84B
:1078C0008A004EF63840C0F6010011F0E3FBA5F83F
:1078D0008C004EF63A40C0F6010011F0DBFBA5F833
:1078E0008E004EF63C40C0F6010011F0D3FBA5F827
:1078F00090004EF63E40C0F6010011F0CBFBA5F81B
:1079000092004EF64040C0F6010011F0C3FBA5F80E
:1079100094004EF64240C0F6010011F0BBFBA5F802
:1079200096004EF64440C0F6010011F0B3FBA5F8F6
:1079300098004EF64640C0F6010011F0ABFBA5F8EA
:107940009A004EF64840C0F6010011F0A3FBA5F8DE
:107950009C004EF64A40C0F6010011F09BFBA5F8D2
:107960009E004EF64C40C0F6010011F093FBA5F8C6
:10797000A0004EF64E40C0F6010011F08BFBA5F8BA
:10798000A2004EF65040C0F6010011F083FBA5F8AE
:10799000A4004EF65240C0F6010011F07BFBA5F8A2
:1079A000A6004EF65440C0F6010011F073FBA5F896
:1079B000A8004EF65640C0F6010011F06BFBA5F88A
:1079C000AA004EF65840C0F6010011F063FBA5F87E
:1079D000AC004EF65A40C0F6010011F05BFBA5F872
:1079E000AE004EF65C40C0F6010011F053FBA5F866
:1079F000B0004EF65E40C0F6010011F04BFBA5F85A
:107A0000B2004EF66040C0F6010011F043FBA5F84D
:107A1000B4004EF66240C0F6010011F03BFBA5F841
:107A2000B6004EF66440C0F6010011F033FBA5F835
:107A3000B8004EF66640C0F6010011F02BFBA5F829
:107A4000BA004EF66840C0F6010011F023FBA5F81D
:107A5000BC004EF66A40C0F6010011F01BFBA5F811
:107A6000BE004EF66C40C0F6010011F013FBA5F805
:107A7000C0004EF66E40C0F6010011F00BFBA5F8F9
:107A8000C2004EF67040C0F6010011F003FBA5F8ED
:107A9000C4004EF67240C0F6010011F0FBFAA5F8E2
:107AA000C6004EF67440C0F6010011F0F3FAA5F8D6
:107AB000C8004EF67844C0F60104204611F0EAFAF8
:107AC000A5F8CA00204611F0E5FAA5F8CC004EF65C
:107AD0007A40C0F6010011F0DDFAA5F8CE004EF6AE
:107AE0007C40C0F6010011F0D5FAA5F8D0004EF6A2
:107AF0007E40C0F6010011F0CDFAA5F8D2004EF696
:107B00008040C0F6010011F0C5FAA5F8D4004EF689
:107B10008240C0F6010011F0BDFAA5F8D6004EF67D
:107B20008440C0F6010011F0B5FAA5F8D8004EF671
:107B30008640C0F6010011F0ADFAA5F8DA004EF665
:107B40008840C0F6010011F0A5FAA5F8DC004EF659
:107B50008A40C0F6010011F09DFAA5F8DE004EF64D
:107B60008C40C0F6010011F095FAA5F8E0004EF641
:107B70008E40C0F6010011F08DFAA5F8E2004EF635
:107B80009040C0F6010011F085FAA5F8E4004EF629
:107B90009240C0F6010011F07DFAA5F8E6004EF61D
:107BA0009644C0F60104204611F074FAA5F8E800E6
:107BB000204611F06FFAA5F8EA004EF69840C0F69C
:107BC000010011F067FAA5F8EC004EF69A40C0F6F5
:107BD000010011F05FFAA5F8EE004EF69C40C0F6E9
:107BE000010011F057FAA5F8F0004EF69E40C0F6DD
:107BF000010011F04FFAA5F8F2004EF6A040C0F6D1
:107C0000010011F047FAA5F8F4004EF6A240C0F6C4
:107C1000010011F03FFAA5F8F6004EF6A440C0F6B8
:107C2000010011F037FAA5F8F8004EF6A640C0F6AC
:107C3000010011F02FFAA5F8FA004EF6A840C0F6A0
:107C4000010011F027FAA5F8FC004EF6AA40C0F694
:107C5000010011F01FFAA5F8FE004EF6AC40C0F688
:107C6000010011F017FAA5F800014EF6AE40C0F67B
:107C7000010011F00FFAA5F802014EF6B040C0F66F
:107C8000010011F007FAA5F804014EF6B444C0F65D
:107C90000104204611F0FEF9A5F80601204611F076
:107CA000F9F9A5F808014EF6B640C0F6010011F04A
:107CB000F1F9A5F80A014EF6B840C0F6010011F03E
:107CC000E9F9A5F80C014EF6BA40C0F6010011F032
:107CD000E1F9A5F80E014EF6BC40C0F6010011F026
:107CE000D9F9A5F810014EF6BE40C0F6010011F01A
:107CF000D1F9A5F812014EF6C040C0F6010011F00E
:107D0000C9F9A5F814014EF6C240C0F6010011F001
:107D1000C1F9A5F816014EF6C440C0F6010011F0F5
:107D2000B9F9A5F818014EF6C640C0F6010011F0E9
:107D3000B1F9A5F81A014EF6C840C0F6010011F0DD
:107D4000A9F9A5F81C014EF6CA40C0F6010011F0D1
:107D5000A1F9A5F81E014EF6CC40C0F6010011F0C5
:107D600099F9A5F820014EF6CE40C0F6010011F0B9
:107D700091F9A5F822014EF6D440C0F6010011F0A9
:107D800089F90024C5F82C41C5F828014EF6D640E3
:107D9000C0F6010011F07EF9C5F83441C5F8300194
:107DA00000F057BC4EF20000C0F601000FF0B6FE26
:107DB0004FF6FF71884200F05883FFE74EF2000053
:107DC000C0F6010011F066F941F28815C2F2000513
:107DD00028824EF20200C0F6010011F05BF9A8758E
:107DE0004EF20400C0F6010011F054F928764EF26C
:107DF0000600C0F6010011F04DF985F828004EF29A
:107E00000800C0F6010011F045F968844EF20A003E
:107E1000C0F6010011F03EF9A8844EF2D000C0F681
:107E2000010011F037F985F830004EF20C00C0F671
:107E3000010011F02FF9A5F86E004EF20E00C0F609
:107E4000010011F027F985F831004EF21000C0F65C
:107E5000010011F01FF985F832004EF21200C0F651
:107E6000010011F017F985F833004EF21400C0F646
:107E7000010011F00FF985F834004EF21600C0F63B
:107E8000010011F007F985F835004EF21800C0F630
:107E9000010011F0FFF885F836004EF21A00C0F626
:107EA000010011F0F7F885F838004EF21C00C0F61A
:107EB000010011F0EFF885F839004EF21E00C0F60F
:107EC000010011F0E7F885F83B004EF22000C0F603
:107ED000010011F0DFF885F83C004EF22200C0F6F8
:107EE000010011F0D7F8A5F876004EF22400C0F694
:107EF000010011F0CFF8A5F878004EF22600C0F688
:107F0000010011F0C7F8A5F87A004EF22800C0F67B
:107F1000010011F0BFF8A5F87C004EF22A00C0F66F
:107F2000010011F0B7F8A5F87E004EF22C00C0F663
:107F3000010011F0AFF8A5F880004EF22E00C0F657
:107F4000010011F0A7F8A5F882004EF23000C0F64B
:107F5000010011F09FF8A5F884004EF23200C0F63F
:107F6000010011F097F8A5F886004EF23400C0F633
:107F7000010011F08FF8A5F888004EF23600C0F627
:107F8000010011F087F8A5F88A004EF23800C0F61B
:107F9000010011F07FF8A5F88C004EF23A00C0F60F
:107FA000010011F077F8A5F88E004EF23C00C0F603
:107FB000010011F06FF8A5F890004EF23E00C0F6F7
:107FC000010011F067F8A5F892004EF24000C0F6EB
:107FD000010011F05FF8A5F894004EF24200C0F6DF
:107FE000010011F057F8A5F896004EF24400C0F6D3
:107FF000010011F04FF8A5F898004EF24600C0F6C7
:10800000010011F047F8A5F89A004EF24800C0F6BA
:10801000010011F03FF8A5F89C004EF24A00C0F6AE
:10802000010011F037F8A5F89E004EF24C00C0F6A2
:10803000010011F02FF8A5F8A0004EF24E00C0F696
:10804000010011F027F8A5F8A2004EF25000C0F68A
:10805000010011F01FF8A5F8A4004EF25200C0F67E
:10806000010011F017F8A5F8A6004EF25400C0F672
:10807000010011F00FF8A5F8A8004EF25600C0F666
:10808000010011F007F8A5F8AA004EF25800C0F65A
:10809000010010F0FFFFA5F8AC004EF25A00C0F648
:1080A000010010F0F7FFA5F8AE004EF25C00C0F63C
:1080B000010010F0EFFFA5F8B0004EF25E00C0F630
:1080C000010010F0E7FFA5F8B2004EF26000C0F624
:1080D000010010F0DFFFA5F8B4004EF26200C0F618
:1080E000010010F0D7FFA5F8B6004EF26400C0F60C
:1080F000010010F0CFFFA5F8B8004EF26600C0F600
:10810000010010F0C7FFA5F8BA004EF26800C0F6F3
:10811000010010F0BFFFA5F8BC004EF26A00C0F6E7
:10812000010010F0B7FFA5F8BE004EF26C00C0F6DB
:10813000010010F0AFFFA5F8C0004EF26E00C0F6CF
:10814000010010F0A7FFA5F8C2004EF27000C0F6C3
:10815000010010F09FFFA5F8C4004EF27200C0F6B7
:10816000010010F097FFA5F8C6004EF27400C0F6AB
:10817000010010F08FFFA5F8C8004EF27804C0F699
:108180000104204610F086FFA5F8CA00204610F032
:1081900081FFA5F8CC004EF27A00C0F6010010F085
:1081A00079FFA5F8CE004EF27C00C0F6010010F079
:1081B00071FFA5F8D0004EF27E00C0F6010010F06D
:1081C00069FFA5F8D2004EF28000C0F6010010F061
:1081D00061FFA5F8D4004EF28200C0F6010010F055
:1081E00059FFA5F8D6004EF28400C0F6010010F049
:1081F00051FFA5F8D8004EF28600C0F6010010F03D
:1082000049FFA5F8DA004EF28800C0F6010010F030
:1082100041FFA5F8DC004EF28A00C0F6010010F024
:1082200039FFA5F8DE004EF28C00C0F6010010F018
:1082300031FFA5F8E0004EF28E00C0F6010010F00C
:1082400029FFA5F8E2004EF29000C0F6010010F000
:1082500021FFA5F8E4004EF29200C0F6010010F0F4
:1082600019FFA5F8E6004EF29604C0F60104204678
:1082700010F010FFA5F8E800204610F00BFFA5F85D
:10828000EA004EF29800C0F6010010F003FFA5F8D6
:10829000EC004EF29A00C0F6010010F0FBFEA5F8CB
:1082A000EE004EF29C00C0F6010010F0F3FEA5F8BF
:1082B000F0004EF29E00C0F6010010F0EBFEA5F8B3
:1082C000F2004EF2A000C0F6010010F0E3FEA5F8A7
:1082D000F4004EF2A200C0F6010010F0DBFEA5F89B
:1082E000F6004EF2A400C0F6010010F0D3FEA5F88F
:1082F000F8004EF2A600C0F6010010F0CBFEA5F883
:10830000FA004EF2A800C0F6010010F0C3FEA5F876
:10831000FC004EF2AA00C0F6010010F0BBFEA5F86A
:10832000FE004EF2AC00C0F6010010F0B3FEA5F85E
:1083300000014EF2AE00C0F6010010F0ABFEA5F851
:1083400002014EF2B000C0F6010010F0A3FEA5F845
:1083500004014EF2B404C0F60104204610F09AFE67
:10836000A5F80601204610F095FEA5F808014EF28A
:10837000B600C0F6010010F08DFEA5F80A014EF21D
:10838000B800C0F6010010F085FEA5F80C014EF211
:10839000BA00C0F6010010F07DFEA5F80E014EF205
:1083A000BC00C0F6010010F075FEA5F810014EF2F9
:1083B000BE00C0F6010010F06DFEA5F812014EF2ED
:1083C000C000C0F6010010F065FEA5F814014EF2E1
:1083D000C200C0F6010010F05DFEA5F816014EF2D5
:1083E000C400C0F6010010F055FEA5F818014EF2C9
:1083F000C600C0F6010010F04DFEA5F81A014EF2BD
:10840000C800C0F6010010F045FEA5F81C014EF2B0
:10841000CA00C0F6010010F03DFEA5F81E014EF2A4
:10842000CC00C0F6010010F035FEA5F820014EF298
:10843000CE00C0F6010010F02DFEA5F822014EF28C
:10844000D400C0F6010010F025FE0024C5F82C4130
:10845000C5F828014EF2D600C0F6010010F01AFE51
:10846000C5F83441C5F83001F2E041F28810C2F29B
:1084700000004FF4967EA0F810E028238375642155
:108480000176002180F82810322242844FF03C0C03
:10849000A0F824C0012480F830401E25A0F86E50BA
:1084A00080F8311080F8324080F8334080F8344052
:1084B00080F8354080F8364080F8381080F8391060
:1084C00080F83A4080F83B10A0F876E0A0F87830C9
:1084D000A0F87A504FF4A075A0F87C502D25A0F894
:1084E0007E50A0F880304FF4AF73A0F88230A0F82F
:1084F0008420A0F886204FF4BE73A0F88830502363
:10850000A0F88A30A0F88CC04FF06E0EA0F88EE074
:108510001423A0F89030A0F892C0C825A0F8945079
:10852000A0F896200A24A0F89840A0F89A50A0F845
:108530009C20A0F89E40A0F8A050A0F8A220A0F88F
:10854000A440A0F8A650A0F8A820A0F8AA40A0F83F
:10855000ACE0A0F8AE30A0F8B0C0A0F8B250A0F8DF
:10856000B420A0F8B640A0F8B850A0F8BA20A0F8FF
:10857000BC40A0F8BE50A0F8C020A0F8C240A0F8AF
:10858000C450A0F8C620A0F8C840A0F8CAE0A0F8DF
:10859000CC30A0F8CEC0A0F8D050A0F8D220A0F8DF
:1085A000D440A0F8D650A0F8D820A0F8DA40A0F81F
:1085B000DC50A0F8DE20A0F8E040A0F8E250A0F8DF
:1085C000E420A0F8E640A0F8E8E0A0F8EA30A0F83F
:1085D000ECC0A0F8EE50A0F8F020A0F8F240A0F80F
:1085E000F450A0F8F620A0F8F840A0F8FA50A0F84F
:1085F000FC20A0F8FE40A0F80051A0F80221A0F84D
:108600000441A0F806E1A0F80831A0F80AC1A0F8DA
:108610000C51A0F80E21A0F81041A0F81251A0F8BA
:108620001421A0F81641A0F81851A0F81A21A0F8BA
:108630001C41A0F81E51A0F82021A0F82241C0F84A
:108640002C11C0F82811C0F83411C0F83011FFE720
:10865000FFE7FFE741F28810C2F20000008AB0F5A0
:10866000FA7F08DCFFE741F28810C2F20000008ABE
:10867000632808DCFFE741F28810C2F200004FF4E3
:1086800096710182FFE741F28810C2F20000807DFE
:10869000C82808DCFFE741F28810C2F20000807DA4
:1086A000042807DCFFE741F28810C2F2000028210D
:1086B0008175FFE741F28810C2F20000408C642807
:1086C00007DBFFE741F28810C2F20000322141844B
:1086D000FFE7FFE741F28810C2F20000808C40F211
:1086E000E731884207DBFFE741F28810C2F2000061
:1086F0003C218184FFE741F28810C2F20000808CA7
:10870000002807DCFFE741F28810C2F200003C219C
:108710008184FFE741F28810C2F2000090F8300037
:10872000012811D0FFE741F28810C2F2000090F852
:108730003000022808D0FFE741F28810C2F20000A2
:10874000012180F83010FFE741F28810C2F20000EA
:1087500090F8310088B1FFE741F28810C2F20000C2
:1087600090F83100012808D0FFE741F28810C2F2EA
:108770000000002180F83110FFE741F28810C2F2BA
:10878000000090F83200012810D0FFE741F2881075
:10879000C2F2000090F8320040B1FFE741F28810C9
:1087A000C2F20000012180F83210FFE741F2881088
:1087B000C2F2000090F8330088B1FFE741F2881060
:1087C000C2F2000090F83300012808D0FFE741F220
:1087D0008810C2F20000012180F83310FFE741F257
:1087E0008810C2F2000090F83400012819D0FFE789
:1087F00041F28810C2F2000090F8340088B1FFE71F
:1088000041F28810C2F2000090F83400022808D02B
:10881000FFE741F28810C2F20000012180F8341015
:10882000FFE741F28810C2F2000090F835000128FD
:1088300019D0FFE741F28810C2F2000090F835002D
:1088400088B1FFE741F28810C2F2000090F83500CD
:10885000022808D0FFE741F28810C2F2000001218F
:1088600080F83510FFE741F28810C2F2000090F85E
:108870003600012819D0FFE741F28810C2F200004B
:1088800090F8360088B1FFE741F28810C2F200008C
:1088900090F83600022808D0FFE741F28810C2F2B3
:1088A0000000012180F83610FFE741F28810C2F283
:1088B000000090F8380088B1FFE741F28810C2F25A
:1088C000000090F83800012808D0FFE741F2881036
:1088D000C2F20000002180F83810FFE741F2881052
:1088E000C2F2000090F8390080B1FFE741F2881031
:1088F000C2F2000090F8390040B1FFE741F2881061
:10890000C2F20000012180F83910FFE741F288101F
:10891000C2F2000090F83A0088B1FFE741F28810F7
:10892000C2F2000090F83A00012808D0FFE741F2B7
:108930008810C2F20000012180F83A10FFE741F2EE
:108940008810C2F2000090F83B0088B1FFE741F2C6
:108950008810C2F2000090F83B00012808D0FFE721
:1089600041F28810C2F20000002180F83B10FFE7BE
:1089700041F28810C2F2000090F9280064280ADC55
:10898000FFE741F28810C2F2000090F9280010F1D0
:10899000650F08DCFFE741F28810C2F200000021F9
:1089A00080F82810FFE741F28810C2F20000B0F80A
:1089B0006E00B0F57A7F09DAFFE741F28810C2F263
:1089C0000000B0F86E00642808DCFFE741F2881070
:1089D000C2F200001E21A0F86E10FFE741F28810DD
:1089E000C2F20000B0F87600B0F5FA7F09DCFFE7CC
:1089F00041F28810C2F20000B0F87600632809DC6A
:108A0000FFE741F28810C2F200004FF49671A0F81F
:108A10007610FFE741F28810C2F20000B0F878004B
:108A2000C82809DCFFE741F28810C2F20000B0F864
:108A30007800042808DCFFE741F28810C2F2000049
:108A40002821A0F87810FFE741F28810C2F2000058
:108A5000B0F87A00B0F57A7F09DAFFE741F28810C2
:108A6000C2F20000B0F87A00002808DCFFE741F20B
:108A70008810C2F200001E21A0F87A10FFE741F230
:108A80008810C2F20000B0F87C00B0F5FA7F09DC73
:108A9000FFE741F28810C2F20000B0F87C006328C2
:108AA00009DCFFE741F28810C2F200004FF4A07128
:108AB000A0F87C10FFE741F28810C2F20000B0F885
:108AC0007E00C82809DCFFE741F28810C2F20000EE
:108AD000B0F87E00042808DCFFE741F28810C2F2FB
:108AE00000002D21A0F87E10FFE741F28810C2F2AD
:108AF0000000B0F88000B0F57A7F09DAFFE741F2B4
:108B00008810C2F20000B0F88000002808DCFFE7FF
:108B100041F28810C2F200002821A0F88010FFE77F
:108B200041F28810C2F20000B0F88200B0F5FA7F7E
:108B300009DCFFE741F28810C2F20000B0F88200C1
:108B4000632809DCFFE741F28810C2F200004FF40D
:108B5000AF71A0F88210FFE741F28810C2F2000066
:108B6000B0F88400C82809DCFFE741F28810C2F29F
:108B70000000B0F88400042808DCFFE741F2881008
:108B8000C2F200003221A0F88410FFE741F2881001
:108B9000C2F20000B0F88600B0F57A7F09DAFFE78C
:108BA00041F28810C2F20000B0F88600002808DC0C
:108BB000FFE741F28810C2F200003221A0F88610CF
:108BC000FFE741F28810C2F20000B0F88800B0F56B
:108BD000FA7F09DCFFE741F28810C2F20000B0F82A
:108BE0008800632809DCFFE741F28810C2F2000028
:108BF0004FF4BE71A0F88810FFE741F28810C2F26E
:108C00000000B0F88A00C82809DCFFE741F28810AC
:108C1000C2F20000B0F88A00042808DCFFE741F245
:108C20008810C2F200005021A0F88A10FFE741F23C
:108C30008810C2F20000B0F88C00B0F57A7F09DA33
:108C4000FFE741F28810C2F20000B0F88C00002863
:108C500008DCFFE741F28810C2F200003C21A0F8D6
:108C60008C10FFE741F28810C2F20000B0F88E00CD
:108C7000B0F5FA7F09DCFFE741F28810C2F200008C
:108C8000B0F88E00632808DCFFE741F28810C2F2DA
:108C900000009621A0F88E10FFE741F28810C2F282
:108CA0000000B0F89000C82809DCFFE741F2881006
:108CB000C2F20000B0F89000042808DCFFE741F29F
:108CC0008810C2F200002821A0F89010FFE741F2BE
:108CD0008810C2F20000B0F89200B0F57A7F09DA8D
:108CE000FFE741F28810C2F20000B0F892000028BD
:108CF00008DCFFE741F28810C2F200005A21A0F818
:108D00009210FFE741F28810C2F20000B0F8940020
:108D1000B0F5FA7F09DCFFE741F28810C2F20000EB
:108D2000B0F89400632808DCFFE741F28810C2F233
:108D30000000B421A0F89410FFE741F28810C2F2BD
:108D40000000B0F89600C82809DCFFE741F288105F
:108D5000C2F20000B0F89600042808DCFFE741F2F8
:108D60008810C2F200003221A0F89610FFE741F20D
:108D70008810C2F20000B0F89800B0F57A7F09DAE6
:108D8000FFE741F28810C2F20000B0F89800002816
:108D900008DCFFE741F28810C2F200006421A0F86D
:108DA0009810FFE741F28810C2F20000B0F89A0074
:108DB000B0F5FA7F09DCFFE741F28810C2F200004B
:108DC000B0F89A00632808DCFFE741F28810C2F28D
:108DD0000000F521A0F89A10FFE741F28810C2F2D6
:108DE0000000B0F89C00C82809DCFFE741F28810B9
:108DF000C2F20000B0F89C00042808DCFFE741F252
:108E00008810C2F200006421A0F89C10FFE741F234
:108E10008810C2F20000B0F89E00B0F57A7F09DA3F
:108E2000FFE741F28810C2F20000B0F89E0000286F
:108E300008DCFFE741F28810C2F200003221A0F8FE
:108E40009E10FFE741F28810C2F20000B0F8A000C7
:108E5000B0F5FA7F09DCFFE741F28810C2F20000AA
:108E6000B0F8A000632808DCFFE741F28810C2F2E6
:108E700000006421A0F8A010FFE741F28810C2F2C0
:108E80000000B0F8A200C82809DCFFE741F2881012
:108E9000C2F20000B0F8A200042808DCFFE741F2AB
:108EA0008810C2F200008221A0F8A210FFE741F270
:108EB0008810C2F20000B0F8A400B0F57A7F09DA99
:108EC000FFE741F28810C2F20000B0F8A4000028C9
:108ED00008DCFFE741F28810C2F200007821A0F818
:108EE000A410FFE741F28810C2F20000B0F8A6001B
:108EF000B0F5FA7F09DCFFE741F28810C2F200000A
:108F0000B0F8A600632808DCFFE741F28810C2F23F
:108F100000006421A0F8A610FFE741F28810C2F219
:108F20000000B0F8A800C82809DCFFE741F288106B
:108F3000C2F20000B0F8A800042808DCFFE741F204
:108F40008810C2F200001421A0F8A810FFE741F237
:108F50008810C2F20000B0F8AA00B0F57A7F09DAF2
:108F6000FFE741F28810C2F20000B0F8AA00002822
:108F700008DCFFE741F28810C2F200003C21A0F8B3
:108F8000AA10FFE741F28810C2F20000B0F8AC006E
:108F9000B0F5FA7F09DCFFE741F28810C2F2000069
:108FA000B0F8AC00632808DCFFE741F28810C2F299
:108FB00000008C21A0F8AC10FFE741F28810C2F24B
:108FC0000000B0F8AE00C82809DCFFE741F28810C5
:108FD000C2F20000B0F8AE00042808DCFFE741F25E
:108FE0008810C2F200001E21A0F8AE10FFE741F287
:108FF0008810C2F20000B0F8B000B0F57A7F09DA4C
:10900000FFE741F28810C2F20000B0F8B00000287B
:1090100008DCFFE741F28810C2F200007821A0F8D6
:10902000B010FFE741F28810C2F20000B0F8B200C1
:10903000B0F5FA7F09DCFFE741F28810C2F20000C8
:10904000B0F8B200632808DCFFE741F28810C2F2F2
:109050000000AA21A0F8B210FFE741F28810C2F286
:109060000000B0F8B400C82809DCFFE741F288101E
:10907000C2F20000B0F8B400042808DCFFE741F2B7
:109080008810C2F200002821A0F8B410FFE741F2D6
:109090008810C2F20000B0F8B600B0F57A7F09DAA5
:1090A000FFE741F28810C2F20000B0F8B6000028D5
:1090B00008DCFFE741F28810C2F200006E21A0F840
:1090C000B610FFE741F28810C2F20000B0F8B80015
:1090D000B0F5FA7F09DCFFE741F28810C2F2000028
:1090E000B0F8B800632808DCFFE741F28810C2F24C
:1090F0000000F021A0F8B810FFE741F28810C2F29A
:109100000000B0F8BA00C82809DCFFE741F2881077
:10911000C2F20000B0F8BA00042808DCFFE741F210
:109120008810C2F200005021A0F8BA10FFE741F207
:109130008810C2F20000B0F8BC00B0F57A7F09DAFE
:10914000FFE741F28810C2F20000B0F8BC0000282E
:1091500008DCFFE741F28810C2F200002821A0F8E5
:10916000BC10FFE741F28810C2F20000B0F8BE0068
:10917000B0F5FA7F09DCFFE741F28810C2F2000087
:10918000B0F8BE00632808DCFFE741F28810C2F2A5
:1091900000006421A0F8BE10FFE741F28810C2F27F
:1091A0000000B0F8C000C82809DCFFE741F28810D1
:1091B000C2F20000B0F8C000042808DCFFE741F26A
:1091C0008810C2F200006421A0F8C010FFE741F24D
:1091D0008810C2F20000B0F8C200B0F57A7F09DA58
:1091E000FFE741F28810C2F20000B0F8C200002888
:1091F00008DCFFE741F28810C2F200009621A0F8D7
:10920000C210FFE741F28810C2F20000B0F8C400BB
:10921000B0F5FA7F09DCFFE741F28810C2F20000E6
:10922000B0F8C400632808DCFFE741F28810C2F2FE
:1092300000006421A0F8C410FFE741F28810C2F2D8
:109240000000B0F8C600C82809DCFFE741F288102A
:10925000C2F20000B0F8C600042808DCFFE741F2C3
:109260008810C2F200001421A0F8C610FFE741F2F6
:109270008810C2F20000B0F8C800B0F57A7F09DAB1
:10928000FFE741F28810C2F20000B0F8C8000028E1
:1092900008DCFFE741F28810C2F200003C21A0F890
:1092A000C810FFE741F28810C2F20000B0F8CA000F
:1092B000B0F5FA7F09DCFFE741F28810C2F2000046
:1092C000B0F8CA00632808DCFFE741F28810C2F258
:1092D00000008221A0F8CA10FFE741F28810C2F214
:1092E0000000B0F8CC00C82809DCFFE741F2881084
:1092F000C2F20000B0F8CC00042808DCFFE741F21D
:109300008810C2F200002321A0F8CC10FFE741F240
:109310008810C2F20000B0F8CE00B0F57A7F09DA0A
:10932000FFE741F28810C2F20000B0F8CE0000283A
:1093300008DCFFE741F28810C2F200005021A0F8DB
:10934000CE10FFE741F28810C2F20000B0F8D00062
:10935000B0F5FA7F09DCFFE741F28810C2F20000A5
:10936000B0F8D000632808DCFFE741F28810C2F2B1
:109370000000A021A0F8D010FFE741F28810C2F24F
:109380000000B0F8D200C82809DCFFE741F28810DD
:10939000C2F20000B0F8D200042808DCFFE741F276
:1093A0008810C2F200002D21A0F8D210FFE741F290
:1093B0008810C2F20000B0F8D400B0F57A7F09DA64
:1093C000FFE741F28810C2F20000B0F8D400002894
:1093D00008DCFFE741F28810C2F200005A21A0F831
:1093E000D410FFE741F28810C2F20000B0F8D600B6
:1093F000B0F5FA7F09DCFFE741F28810C2F2000005
:10940000B0F8D600632808DCFFE741F28810C2F20A
:109410000000DC21A0F8D610FFE741F28810C2F26C
:109420000000B0F8D800C82809DCFFE741F2881036
:10943000C2F20000B0F8D800042808DCFFE741F2CF
:109440008810C2F200005A21A0F8D810FFE741F2BC
:109450008810C2F20000B0F8DA00B0F57A7F09DABD
:10946000FFE741F28810C2F20000B0F8D4000028F3
:1094700008DCFFE741F28810C2F200004621A0F8A4
:10948000DA10FFE741F28810C2F20000B0F8DC0009
:10949000B0F5FA7F09DCFFE741F28810C2F2000064
:1094A000B0F8DC00632808DCFFE741F28810C2F264
:1094B00000006421A0F8DC10FFE741F28810C2F23E
:1094C0000000B0F8DE00C82809DCFFE741F2881090
:1094D000C2F20000B0F8DE00042808DCFFE741F229
:1094E0008810C2F200007821A0F8DE10FFE741F2F8
:1094F0008810C2F20000B0F8E000B0F57A7F09DA17
:10950000FFE741F28810C2F20000B0F8E000002846
:1095100008DCFFE741F28810C2F200006421A0F8E5
:10952000E010FFE741F28810C2F20000B0F8E2005C
:10953000B0F5FA7F09DCFFE741F28810C2F20000C3
:10954000B0F8E200632808DCFFE741F28810C2F2BD
:1095500000006421A0F8E210FFE741F28810C2F297
:109560000000B0F8E400C82809DCFFE741F28810E9
:10957000C2F20000B0F8E400042808DCFFE741F282
:109580008810C2F200001421A0F8E410FFE741F2B5
:109590008810C2F20000B0F8E600B0F57A7F09DA70
:1095A000FFE741F28810C2F20000B0F8E6000028A0
:1095B00008DCFFE741F28810C2F200003C21A0F86D
:1095C000E610FFE741F28810C2F20000B0F8E800B0
:1095D000B0F5FA7F09DCFFE741F28810C2F2000023
:1095E000B0F8E800632808DCFFE741F28810C2F217
:1095F0000000A021A0F8E810FFE741F28810C2F2B5
:109600000000B0F8EA00C82809DCFFE741F2881042
:10961000C2F20000B0F8EA00042808DCFFE741F2DB
:109620008810C2F200003C21A0F8EA10FFE741F2E6
:109630008810C2F20000B0F8EC00B0F57A7F09DAC9
:10964000FFE741F28810C2F20000B0F8EC000028F9
:1096500008DCFFE741F28810C2F200006E21A0F89A
:10966000EC10FFE741F28810C2F20000B0F8EE0003
:10967000B0F5FA7F09DCFFE741F28810C2F2000082
:10968000B0F8EE00632808DCFFE741F28810C2F270
:109690000000BE21A0F8EE10FFE741F28810C2F2F0
:1096A0000000B0F8F000C82809DCFFE741F288109C
:1096B000C2F20000B0F8F000042808DCFFE741F235
:1096C0008810C2F200004621A0F8F010FFE741F236
:1096D0008810C2F20000B0F8F200B0F57A7F09DA23
:1096E000FFE741F28810C2F20000B0F8F200002853
:1096F00008DCFFE741F28810C2F200007821A0F8F0
:10970000F210FFE741F28810C2F20000B0F8F40056
:10971000B0F5FA7F09DCFFE741F28810C2F20000E1
:10972000B0F8F400632808DCFFE741F28810C2F2C9
:109730000000FA21A0F8F410FFE741F28810C2F20D
:109740000000B0F8F600C82809DCFFE741F28810F5
:10975000C2F20000B0F8F600042808DCFFE741F28E
:109760008810C2F200009621A0F8F610FFE741F23F
:109770008810C2F20000B0F8F800B0F57A7F09DA7C
:10978000FFE741F28810C2F20000B0F8F8000028AC
:1097900008DCFFE741F28810C2F200005021A0F877
:1097A000F810FFE741F28810C2F20000B0F8FA00AA
:1097B000B0F5FA7F09DCFFE741F28810C2F2000041
:1097C000B0F8FA00632808DCFFE741F28810C2F223
:1097D00000006421A0F8FA10FFE741F28810C2F2FD
:1097E0000000B0F8FC00C82809DCFFE741F288104F
:1097F000C2F20000B0F8FC00042808DCFFE741F2E8
:109800008810C2F200009621A0F8FC10FFE741F298
:109810008810C2F20000B0F8FE00B0F57A7F09DAD5
:10982000FFE741F28810C2F20000B0F8FE00002805
:1098300008DCFFE741F28810C2F20000B421A0F872
:10984000FE10FFE741F28810C2F20000B0F80001FC
:10985000B0F5FA7F09DCFFE741F28810C2F20000A0
:10986000B0F80001632808DCFFE741F28810C2F27B
:1098700000006421A0F80011FFE741F28810C2F255
:109880000000B0F80201C82809DCFFE741F28810A7
:10989000C2F20000B0F80201042808DCFFE741F240
:1098A0008810C2F200001421A0F80211FFE741F273
:1098B0008810C2F20000B0F80401B0F57A7F09DA2E
:1098C000FFE741F28810C2F20000B0F8040100285E
:1098D00008DCFFE741F28810C2F200003C21A0F84A
:1098E0000411FFE741F28810C2F20000B0F806014F
:1098F000B0F5FA7F09DCFFE741F28810C2F2000000
:10990000B0F80601632808DCFFE741F28810C2F2D4
:1099100000006421A0F80611FFE741F28810C2F2AE
:109920000000B0F80801C82809DCFFE741F2881000
:10993000C2F20000B0F80801042808DCFFE741F299
:109940008810C2F200001421A0F80811FFE741F2CC
:109950008810C2F20000B0F80A01B0F57A7F09DA87
:10996000FFE741F28810C2F20000B0F80A010028B7
:1099700008DCFFE741F28810C2F200003C21A0F8A9
:109980000A11FFE741F28810C2F20000B0F80C01A2
:10999000B0F5FA7F09DCFFE741F28810C2F200005F
:1099A000B0F80C01632808DCFFE741F28810C2F22E
:1099B00000006421A0F80C11FFE741F28810C2F208
:1099C0000000B0F80E01C82809DCFFE741F288105A
:1099D000C2F20000B0F80E01042808DCFFE741F2F3
:1099E0008810C2F200001421A0F80E11FFE741F226
:1099F0008810C2F20000B0F81001B0F57A7F09DAE1
:109A0000FFE741F28810C2F20000B0F81001002810
:109A100008DCFFE741F28810C2F200003C21A0F808
:109A20001011FFE741F28810C2F20000B0F81201F5
:109A3000B0F5FA7F09DCFFE741F28810C2F20000BE
:109A4000B0F81201632808DCFFE741F28810C2F287
:109A500000006421A0F81211FFE741F28810C2F261
:109A60000000B0F81401C82809DCFFE741F28810B3
:109A7000C2F20000B0F81401042808DCFFE741F24C
:109A80008810C2F200001421A0F81411FFE741F27F
:109A90008810C2F20000B0F81601B0F57A7F09DA3A
:109AA000FFE741F28810C2F20000B0F8160100286A
:109AB00008DCFFE741F28810C2F200003C21A0F868
:109AC0001611FFE741F28810C2F20000B0F8180149
:109AD000B0F5FA7F09DCFFE741F28810C2F200001E
