:020000040800F2
:104000002838002085410008F5790008F17900087A
:10401000F37900087B49000885950008000000003E
:10402000000000000000000000000000318F0008C8
:104030007D49000800000000FD7E0008358F000863
:104040009F4100089F4100089F4100089F410008D0
:104050009F4100089F4100089F4100089F410008C0
:104060009F4100089F4100089F4100089F410008B0
:104070009F4100089F4100089F4100089F410008A0
:104080009F4100089F4100089F4100089F41000890
:104090009F4100089F4100089F4100089F41000880
:1040A0009F4100089F4100089F4100089F41000870
:1040B0009F410008959300089F4100089F41000818
:1040C0009F4100089F4100089F4100089F41000850
:1040D0009F41000879940008D194000821950008B8
:1040E000814900089F4100089F410008000000002E
:1040F00000000000000000000000000000000000C0
:10410000000000009F4100089F41000800000000DF
:10411000C19300081D94000800000000000000008A
:104120009F4100089F4100089F4100089F410008EF
:10413000000000000000000000000000000000007F
:104140000000000000000000000000009F41000887
:1041500000000000000000009F4100089F4100088F
:104160000000000000000000000000009F41000867
:10417000DFF80CD000F0A0F900480047BDBC0008F3
:10418000283800200648804706480047FEE7FEE73B
:10419000FEE7FEE7FEE7FEE7FEE7FEE7FEE7FEE7F7
:1041A00021930008714100082DE9FE4F804681EA05
:1041B0000300C00F0C46009021F0004123F00045A1
:1041C000B8EB0200A94105D24046214690461C4664
:1041D0000B46024623F00040104347D0270DC7F39B
:1041E0000A00C3F30A510290401A019040286BDA8A
:1041F000C3F3130040F4801B0098924620B10023C3
:10420000D2EB030A63EB0B0B01985946C0F1400255
:10421000504600F063F906460D4650465946019A4D
:1042200000F07BF910EB08006141002487EA11528D
:1042300084EAE7731A4340D0009A62B3019A012AD4
:104240004FEA075215DC001B61EB02014FF0004200
:1042500002EA0752CDE90042001C41F580113246C6
:104260002B4600F07BF903B0BDE8F08F40462146B5
:10427000F9E7001B61EB0201001C41F580130018F7
:104280005B412018A2F5001747EB030140EAD57007
:10429000B6196D4111E06D084FEA360645EAC07562
:1042A0004FEA0752001B61EB0201001C41F580112F
:1042B00049084FEA30000019514132462B4603B0FD
:1042C000BDE8F04F00F03BB9009801224000002308
:1042D000D0EB020263EBE073009821464FEAE074F2
:1042E000B8EB000061EB0401E9E783F000435BE712
:1042F00081F0004158E72DE9FE4F81EA030404F004
:10430000004421F0004100944FF0000B23F00043E3
:1043100050EA01045ED052EA03045BD0C3F30A54AE
:10432000C1F30A552C44A4F2F3340194A0FB0254C7
:10433000C1F3130141F48011C3F3130343F4801359
:1043400001FB024400FB034E840A970A44EA8154AD
:1043500047EA8357A4FB076802958D0A05FB07858A
:104360004FEA932C04FB0C542705029D4FEA065894
:1043700047EA1637B5EB08056EEB070C870E920E71
:1043800047EA811742EA8312A7FB0201B6EB0B0151
:1043900064EB00042B0D43EA0C335E1844EB1C5015
:1043A000DA465146E7FB0201C5F313044FEA0B332B
:1043B00043EA14534FEA0432019C43EA0603A4F192
:1043C0000C040294009CCDE900B400F0C7F803B0DF
:1043D000BDE8F08F00200146F9E72DE9F04D81EAB4
:1043E000030404F0004B21F0004514464FF0000A8E
:1043F00023F0004150EA050220D054EA01021DD00A
:10440000C5F30A570246C5F31303C1F31300C1F302
:104410000A5640F4801543F48013A7EB0608101BDE
:10442000D64608F2FD3873EB050002D308F1010807
:1044300001E092185B41B8F1000F03DA0020014659
:10444000BDE8F08D00204FF48011064684460EE052
:10445000171B73EB050705D3121B63EB050306431C
:104460004CEA010C49084FEA300092185B4150EACF
:104470000107EDD152EA030012D082EA040083EA78
:104480000501084305D0101BAB4106D201220023D1
:1044900006E000224FF0004302E06FF001025310EB
:1044A0001AEB06004CEB085110EB0A0041EB0B0134
:1044B000BDE8F04D00F043B8064C074D06E0E0685B
:1044C00040F0010394E8070098471034AC42F6D35B
:1044D000FFF752FE90DE0008B0DE0008202A04DB61
:1044E000203A00FA02F1002070479140C2F1200307
:1044F00020FA03F3194390407047202A04DB203A46
:1045000021FA02F00021704721FA02F3D040C2F1F3
:1045100020029140084319467047202A06DBCB173A
:10452000203A41FA02F043EAE07306E041FA02F36E
:10453000D040C2F12002914008431946704710B59F
:10454000141E73F1000408DA401C41F100019218B6
:104550005B411A4301D120F0010010BD2DE9F04D5F
:1045600092469B4611B1B1FA81F202E0B0FA80F2B4
:1045700020329046FFF7B2FF04460F4640EA0A0099
:1045800041EA0B0153465A46084313D0114653EAF9
:10459000010019D0C8F140025046FFF7AEFF0546B2
:1045A0000E46504659464246FFF798FF084305D04D
:1045B000012004E020463946BDE8F08D0020054387
:1045C00046EAE0762C4337430A986305E40AA0EBF9
:1045D00008000022FD0A44EA47540A3002D50020B0
:1045E0000146E9E7010510196941DDE908450019AF
:1045F0006941BDE8F04DA2E7D2B201E000F8012B1D
:10460000491EFBD270470022F6E710B513460A4652
:1046100004461946FFF7F0FF204610BDF0B480EACB
:104620000102D40F4200B2EB410F02D2024608460B
:1046300011464A0042D0C30DDDB2C1F3C752AD1AD4
:10464000202D35DAC1F3160141F4000204B15242C3
:10465000C5F1200602FA06F12A411044B3EBD05FFF
:1046600023D0C4B1012DA0EBC35009DCF0BC4FF046
:10467000004202EAC352DBB200F5000000F04FB97D
:10468000400000F1807000EBC350A0F1807040EA60
:10469000D170490009E0490841EAC071A0EBC3505C
:1046A00000F50000400800EBC350F0BC00F02EB94C
:1046B0006142012202EB4101001BF6E7F0BC7047AA
:1046C00081F00041AAE780F00040A7E780EA0102FC
:1046D00010B502F00043400022D04A001FD0010E66
:1046E00001EB1261C0F35600C2F3560240F4000021
:1046F00042F40002A0FB022000047F39140400D021
:10470000401C50EA124001D44000491EC2B20C06BF
:1047100004EBD010401C4008802A02D003E00020A7
:1047200010BD20F00100002900DA0020184310BD60
:1047300030B480EA010202F0004530F0004221F07E
:10474000004013D090B1C30DD40DC2F31601C0F3D5
:104750001600E41A41F4000140F400027D34914255
:1047600001D3641C00E04900002C02DA30BC0020B8
:1047700070474FF400000023914201D3891A03438C
:1047800040084FEA4101F7D151B1914202D14FF0B7
:10479000004105E002D24FF0010101E06FF001019C
:1047A00003EBC450284430BC00F0B0B8002801DB53
:1047B000C0F10040002901DBC1F10041814201D874
:1047C0000120704700207047002801DBC0F1004045
:1047D000002901DBC1F10041814201D20120704773
:1047E00000207047002801DBC0F10040002901DBF8
:1047F000C1F10041814201D3012070470020704780
:10480000002801DBC0F10040002901DBC1F10041BB
:10481000814201D90120704700207047C10F80EA12
:10482000E0700844CA079623002100F078B8962368
:104830000022114600F073B80EB5C10F80EAE07097
:104840000844CA07002140F233438DE80E000A46AF
:104850000B46FFF783FE03B000BD0EB540F23341B7
:1048600002910021CDE900110A460B46FFF776FEC2
:1048700003B000BD20F00040C10DC0F3160040F4AD
:1048800000007F2901DA00207047962903DCC1F17E
:104890009601C840704796398840704770B5C1F39B
:1048A0000A5201F000450024C1F3130140F2FF3326
:1048B00041F480119A4201DA002070BD40F2334386
:1048C0009A42A2F2334203DC5242FFF716FE00E0A6
:1048D00090402C43F1D0404270BDC1F30A5210B554
:1048E000C1F3130140F2FF3341F480119A4201DA1F
:1048F000002010BD40F233439A42A2F2334203DC5F
:104900005242FFF7FAFD10BD904010BD0029A8BF2C
:104910007047401C490008BF20F00100704710B4E8
:10492000B0FA80FC00FA0CF050EA010404BF10BC9D
:10493000704749B1CCF1200421FA04F411FA0CF1CA
:1049400018BF012121430843A3EB0C01CB1D4FEA03
:1049500000614FEA102042BF002010BC704700EBFE
:10496000C35010440029A4BF10BC7047401C49002C
:1049700008BF20F0010010BC7047FEE77047000040
:104980002DE9F047C8480168890440F171824FF46D
:104990000051DFF84055016042F6E061A88F88427F
:1049A0000AD30020A887DFF83005D0E94C12013186
:1049B00042F10002C0E94C124FF08040BB4EDFF8DC
:1049C000187503F095F80020306097F83000002843
:1049D0003FD0012840F0438297F84000002840F083
:1049E0003E8297F83F0000284AD0012840F03782E5
:1049F00097F83E00E978814218BFE87097F84200C6
:104A0000002800F02C8208F021FCB7F8741008444C
:104A10007860388A04F046FF97F86C1087F8290010
:104A2000032900F20681DFE811F00400CA00D90072
:104A3000E80003F011F900F2FC80DFE811F0050056
:104A4000AF01B401B901F80002F0FFFFB7F88E0022
:104A5000DFE197F82F00032839D002282BD0002857
:104A600040F0FD8197F82D0000284CD097F83A10BF
:104A7000002948D0012808BF012940F0F08126E034
:104A8000DFF858048A49002484664466C465846556
:104A90000165446503F032F9DFF848148C62B7F819
:104AA000741001EB9000786034604FF08040016832
:104AB00021F00101D2E197F82D00002862D00128F1
:104AC00040F0CD8197F83A00012840F0C88103F00A
:104AD00015F9DFF8101400228A62B7F8741001EBA0
:104AE0009000786032604FF0804003F001F8DFF80A
:104AF000EC03704982664266C26582652A87016559
:104B0000AA704265ABE197F84200002800F0A78147
:104B100008F09CFBB7F874100844398A7860688FF5
:104B2000884215D097F83C0010B1012806D13231E7
:104B300088B204F0B7FE398A87F82900DFF89C03B1
:104B40005C4A026500222A87AA7042660846698785
:104B500097F83C1000295FD0012940F0668003F0EF
:104B6000B4F800F196018C4240F26680524CDFF8B6
:104B70007403DFF868134F4A846200200A652887AF
:104B8000A870DEE097F84200002800F06881B24685
:104B900008F05CFBB7F874106C8F0E18388A7E60D2
:104BA000844200F0A18097F83C10002900F0738047
:104BB000012940F08380798C084432306DE003F0A5
:104BC0004BF836D8DFE811F00500F900FE000301CC
:104BD000330002F03AFFB7F8AC001AE103F03CF8FA
:104BE00027D8DFE811F00500F900FE0003012400DA
:104BF00002F02BFFB7F8CA000BE103F02DF818D82C
:104C0000DFE811F00500F900FE000301150002F0D5
:104C10001CFFB7F8E800FCE003F057F800F164016E
:104C20008C4220D9AD48B04974E0AE4879E000200C
:104C3000F887AC48846AFFE0A0F132018C4277D358
:104C400000F139018C4204D800F12B018C4280F034
:104C50002081A24AA44B002129871365A970323014
:104C6000FFF7DCFD14E0A0F164018C4260D300F199
:104C700008018C4204D8A0F108018C4280F019810F
:104C8000964A994B002129871365A970FFF7CFFD3C
:104C9000804620466CE0798C084480B204F002FE25
:104CA00087F829000CE000BF1404014034000040E4
:104CB00000803B4500EFE7490000FA4397F82900E0
:104CC0007E6897F928103C8A46FA80F0401AA04284
:104CD00009D9DFF808824FF07C51D8F86400FFF75B
:104CE000F5FCC8F864006C8797F83C0048B10128CF
:104CF00015D102F04FFF00F19601894507D83230F7
:104D000011E002F047FF00F1640189450BD97348B7
:104D100075495646016500202887A8703AE0714819
:104D20005646846A30E0A0F16401564689450CD2AB
:104D300000206D496D4C2887A87068480165694856
:104D40008462A88F0130A8877FE000F10A018945BD
:104D500004D8A0F10A01894580F08C805F4A624B3B
:104D6000002129871365A970FFF758FD8046484642
:104D7000FFF75DFD0146404603F05AF804465948E6
:104D80008462A88F0130A88720460021FFF738FDF4
:104D900000285AD153480024846256E002F055FEA0
:104DA000B7F8940035E002F050FEB7F89A0030E012
:104DB00002F04BFEB7F8A0002BE002F046FEB7F879
:104DC000B20026E002F041FEB7F8B80021E002F0A0
:104DD0003CFEB7F8BE001CE002F037FEB7F8D0008A
:104DE00017E002F032FEB7F8D60012E002F02DFE16
:104DF000B7F8DC000DE002F028FEB7F8EE0008E09E
:104E000002F023FEB7F8F40003E002F01EFEB7F84C
:104E1000FA00FFF70CFD044697F92800301A4646C1
:104E2000FFF705FD0146204603F002F804462D4831
:104E30008462A88F0130A887204600210025FFF753
:104E4000DFFC10B92748002485622046FFF712FDD9
:104E500030604FF08040016841F00101016097F837
:104E60002E0028B1002030604FF0804002F040FE5C
:104E7000BDE8F08702F094FF18BF002291B22A87A4
:104E8000B1F5FA5FFFF470AF1449154A02F08DFFD7
:104E900069E702F085FF18BF00222A8791B241F628
:104EA00058329142FFF4DBAE0C490D4A02F07DFF0F
:104EB000D4E602F075FF18BF00222A8791B241F6AE
:104EC00058329142FFF4E2AE0449054A02F06DFF08
:104ED000DBE600BF082D0020D00F0020E42E0020CC
:104EE00000803B45082E002000EFE74900A00C475A
:104EF00070B55249144A8B6910681C4698420FD20B
:104F0000EFF3108572B68B69A34205D10E698861F3
:104F100001360E61BFF35F8F05B962B6A34211D0AF
:104F200051E8063FA34208D1BFF35F8F41E8060472
:104F30002CB9BFF35F8F012402E0BFF32F8F002451
:104F4000002CD9D070BD00BF041000E02DE9FC4F4B
:104F50004FF0005401924FF00708009304EA9202C8
:104F60004FF0805404EAD104204310434FF08042B4
:104F700002EA53020243314800F10C04304BB8F10D
:104F8000000F58D050E8015F6E1C40E80167002F09
:104F9000F8D105F03F0905F4707603EB091A42EAEF
:104FA000863B554655F80CEF5FEA4E161AD40EF0C4
:104FB0000046774655E800EF46EA0B0646F04066A5
:104FC000BE4507D145E8006737B9BFF35F8F4FF0A3
:104FD000010C03E0BFF32F8F4FF0000CBCF1000F6A
:104FE000E2D002E0A8F10108C8E786F0004221F013
:104FF0000041134B4FEA091602F000442144995135
:105000000099019B21F0004123F0004321442344F7
:1050100000F108040120CAE9013122F08061BFF3E8
:105020005F8F296054E8001F013144E80012002A14
:10503000F8D1BDE8FC8F0020F4E700BF0034002069
:10504000802F00202DE9F041DFF8448000234FF04D
:10505000010E4FF0000CBCF1040F08BFBDE8F08159
:1050600020FA0CF7FF070FD00F4697420CD803EB3E
:10507000D70407F00706013718F804500EFA06F6B1
:10508000354308F80450F0E70CF1010C2033E2E757
:10509000803300202DE9F04FD3B0DFF8209A99F843
:1050A0000600032801F21580DFE810F0040018055F
:1050B0000C00E60499F81300002801F01780012085
:1050C00001F005B8FC4E99F81210DFF8F449FB4DD9
:1050D000DFF8F089A6F1720011F0010708BFA81DE2
:1050E00094F9281089B2C047A6F17000002F08BFBC
:1050F00005F10800618CC047A6F16E00002F08BFC3
:1051000005F10A00A18CC047A6F16C00002F08BF72
:1051100005F10C00B4F86E10C04706F15800002FDE
:1051200008BF05F1D00094F83010C047A6F16A001E
:10513000002F08BF05F10E0094F83110C047A6F10A
:105140006800002F08BF05F1100094F83210C04726
:10515000A6F16600002F08BF05F1120094F8331085
:10516000C047A6F16400002F08BF05F1140094F8B1
:105170003410C047A6F16200002F08BF05F11600E9
:1051800094F83510C047A6F16000002F08BF05F164
:10519000180094F83610C047A6F15E00002F08BF33
:1051A00005F11A0094F83810C047A6F15C00002FF2
:1051B00008BF05F11C0094F83910C047A6F15A0049
:1051C000002F08BF05F11E0094F83B10C047A6F160
:1051D0005800002F08BF05F1200094F83C10C0478C
:1051E000A6F15600002F08BF05F12200B4F8761092
:1051F000C047A6F15400002F08BF05F12400B4F801
:105200007810C047A6F15200002F08BF05F1260014
:10521000B4F87A10C047A6F15000002F08BF05F17E
:105220002800B4F87C10C047A6F14E00002F08BF3C
:1052300005F12A00B4F87E10C047A6F14C00002FFB
:1052400008BF05F12C00B4F88010C047A6F14A0051
:10525000002F08BF05F12E00B4F88210C047A6F158
:105260004800002F08BF05F13000B4F88410C04793
:10527000A6F14600002F08BF05F13200B4F88610F1
:10528000C047A6F14400002F08BF05F13400B4F870
:105290008810C047A6F14200002F08BF05F1360074
:1052A000B4F88A10C047A6F14000002F08BF05F1EE
:1052B0003800B4F88C10C047A6F13E00002F08BF9C
:1052C00005F13A00B4F88E10C047A6F13C00002F5B
:1052D00008BF05F13C00B4F89010C047A6F13A00B1
:1052E000002F08BF05F13E00B4F89210C047A6F1A8
:1052F0003800002F08BF05F14000B4F89410C047F3
:10530000A6F13600002F08BF05F14200B4F8961050
:10531000C047A6F13400002F08BF05F14400B4F8DF
:105320009810C047A6F13200002F08BF05F14600D3
:10533000B4F89A10C047A6F13000002F08BF05F15D
:105340004800B4F89C10C047A6F12E00002F08BFFB
:1053500005F14A00B4F89E10C047A6F12C00002FBA
:1053600008BF05F14C00B4F8A010C047A6F12A0010
:10537000002F08BF05F14E00B4F8A210C047A6F1F7
:105380002800002F08BF05F15000B4F8A410C04752
:10539000A6F12600002F08BF05F15200B4F8A610B0
:1053A000C047A6F12400002F08BF05F15400B4F84F
:1053B000A810C047A6F12200002F08BF05F1560033
:1053C000B4F8AA10C047A6F12000002F08BF05F1CD
:1053D0005800B4F8AC10C047A6F11E00002F08BF5B
:1053E00005F15A00B4F8AE10C047A6F11C00002F1A
:1053F00008BF05F15C00B4F8B010C047A6F11A0070
:10540000002F08BF05F15E00B4F8B210C047A6F146
:105410001800002F08BF05F16000B4F8B410C047B1
:10542000A6F11600002F08BF05F16200B4F8B6100F
:10543000C047A6F11400002F08BF05F16400B4F8BE
:10544000B810C047A6F11200002F08BF05F1660092
:10545000B4F8BA10C047A6F11000002F08BF05F13C
:105460006800B4F8BC10C047A6F10E00002F08BFBA
:1054700005F16A00B4F8BE10C047A6F10C00002F79
:1054800008BF05F16C00B4F8C010C047A6F10A00CF
:10549000002F08BF05F16E00B4F8C210C047A6F196
:1054A0000800002F08BF05F17000B4F8C410C04711
:1054B000B01F002F00F004B878EC010800E00108EC
:1054C00008BF05F17200B4F8C610C047301F002FA6
:1054D00008BF05F17400B4F8C810C047B01E002F13
:1054E00008BF05F17600B4F8CA10C0473046002F57
:1054F00008BF05F17800B4F8CC10C047B01C002FED
:1055000008BF05F17A00B4F8CE10C047301D002F57
:1055100008BF05F17C00B4F8D010C047B01D002FC3
:1055200008BF05F17E00B4F8D210C04706F10800AC
:10553000002F08BF05F18000B4F8D410C04706F171
:105540000A00002F08BF05F18200B4F8D610C0474A
:1055500006F10C00002F08BF05F18400B4F8D81044
:10556000C04706F10E00002F08BF05F18600B4F811
:10557000DA10C04706F11000002F08BF05F18800BF
:10558000B4F8DC10C04706F11200002F08BF05F187
:105590008A00B4F8DE10C04706F11400002F08BFDF
:1055A00005F18C00B4F8E010C04706F11600002F9A
:1055B00008BF05F18E00B4F8E210C04706F11800EC
:1055C000002F08BF05F19000B4F8E410C04706F1C1
:1055D0001A00002F08BF05F19200B4F8E610C0478A
:1055E00006F11C00002F08BF05F19400B4F8E81084
:1055F000C04706F11E00002F08BF05F19600B4F861
:10560000EA10C04706F12000002F08BF05F19800FE
:10561000B4F8EC10C04706F12200002F08BF05F1D6
:105620009A00B4F8EE10C04706F12400002F08BF1E
:1056300005F19C00B4F8F010C04706F12600002FD9
:1056400008BF05F19E00B4F8F210C04706F128002B
:10565000002F08BF05F1A000B4F8F410C04706F110
:105660002A00002F08BF05F1A200B4F8F610C047C9
:1056700006F12C00002F08BF05F1A400B4F8F810C3
:10568000C04706F12E00002F08BF05F1A600B4F8B0
:10569000FA10C04706F13000002F08BF05F1A8003E
:1056A000B4F8FC10C04706F13200002F08BF05F126
:1056B000AA00B4F8FE10C04706F13400002F08BF5E
:1056C00005F1AC00B4F80011C04706F13600002F18
:1056D00008BF05F1AE00B4F80211C04706F138006A
:1056E000002F08BF05F1B000B4F80411C04706F15F
:1056F0003A00002F08BF05F1B200B4F80611C04708
:1057000006F13C00002F08BF05F1B400B4F8081101
:10571000C04706F13E00002F08BF05F1B600B4F8FF
:105720000A11C04706F14000002F08BF05F1B8007C
:10573000B4F80C11C04706F14200002F08BF05F174
:10574000BA00B4F80E11C04706F14400002F08BF9C
:1057500005F1BC00B4F81011C04706F14600002F57
:1057600008BF05F1BE00B4F81211C04706F14800A9
:10577000002F08BF05F1C000B4F81411C04706F1AE
:105780004A00002F08BF05F1C200B4F81611C04747
:1057900006F14C00002F08BF05F1C400B4F8181141
:1057A000C04706F14E00002F08BF05F1C600B4F84F
:1057B0001A11C04706F15000002F08BF05F1C800BC
:1057C000B4F81C11C04706F15200002F08BF05F1C4
:1057D000CA00B4F81E11C04706F15400002F08BFDC
:1057E00005F1CC00B4F82011C04706F15600002F97
:1057F00008BF05F1CE00B4F82211C04706F15C00E5
:10580000002F08BF05F1D400B4F82811C04706F1F5
:105810005E00002F08BF05F1D600B4F83011C04774
:1058200094F9280094F8311094F8322094F8333029
:1058300009F14C0509F1600CD4F89E60D4F8A2700F
:10584000A9F84400608C89F8081089F8092089F8C3
:105850000A30D4F87A10D4F87E20D4F88230A9F82F
:105860004600A08CA9F84800B4F86E00A9F84A00D8
:1058700094F8300089F8070094F8340089F80B0098
:1058800094F8350089F80C0094F8360089F80D007A
:10589000208FA9F80E00B4F83B00A9F81000D4F846
:1058A00076000FC5B4F88600D4F88E10D4F8922094
:1058B000D4F89630D4F89A50A9F85C00B4F888006F
:1058C000A9F85E00D4F88A00ACE8EF00B4F8A600AE
:1058D000B4F8A810D4F8B230D4F8AE20D4F8B6504A
:1058E000A9F87C0078480180D4F8AA10C0F80A30E2
:1058F00004F59473C0F80620C0F80E50C0F80210EA
:10590000D4F8BA10C0F81210D4F8BE10C0F81610AF
:10591000D4F8C210C0F81A10B4F8C610C183B4F895
:10592000C8100184B4F8CA104184B4F8CC10818442
:10593000B4F8CE10C184B4F8D0100185B4F8D210F8
:105940004185B4F8D4108185B4F8D610C185B4F877
:10595000D8100186B4F8DA104186B4F8DC108186DC
:10596000B4F8DE10C186B4F8E0100187B4F8E21094
:105970004187B4F8E4108187B4F8E610C187B4F821
:10598000E810A0F84010B4F8EA10A0F84210B4F8FB
:10599000EC10A0F84410B4F8EE10A0F84610B4F8DB
:1059A000F010A0F84810B4F8F210A0F84A10B4F8BB
:1059B000F410A0F84C10B4F8F610A0F84E10B4F89B
:1059C000F810A0F85010B4F8FA10A0F85210B4F87B
:1059D000FC10A0F85410B4F8FE10A0F85610B4F85B
:1059E0000011A0F85810B4F80211A0F85A10B4F839
:1059F0000411A0F85C10B4F80611A0F85E10B4F819
:105A00000811A0F86010B4F80A11A0F86210B4F8F8
:105A10000C11A0F86410B4F80E11A0F86610B4F8D8
:105A20001011A0F86810B4F81211A0F86A10B4F8B8
:105A30001411A0F86C10B4F81611A0F86E10B4F898
:105A40001811A0F87010B4F81A11A0F87210B4F878
:105A50001C11A0F87410B4F81E11A0F87610B4F858
:105A60002011A0F87810B4F82211184CA0F87A1080
:105A70000FCB40340FC427E3154899F81220124C7D
:105A800014496030D20708BF01F1D800B4F87C1087
:105A900005F0F8FB1048C16841F08001C1600020AA
:105AA00089F80600B4F87C000130A4F87C0099F86D
:105AB0001200013089F812000BE300BF082D00200E
:105AC000D00F002085B20008862D0020082E00206F
:105AD00078EC010800E00108042002405FF8208013
:105AE000B9F83E10B8F81000814240F0B98298F839
:105AF0001600B9F84010814240F0B28298F81800C0
:105B0000B9F84210814240F0AB8298F92800B9F808
:105B10004410814240F0A482B8F82200B9F846103F
:105B2000814240F09D82B8F82400B9F848108142C3
:105B300040F09682B8F86E00B9F84A10814240F001
:105B40008F8298F8300099F80710814240F08882DF
:105B500098F8310099F80810814240F0818298F855
:105B6000320099F80910814240F07A8298F83300A7
:105B700099F80A10814240F0738298F8340099F83D
:105B80000B10814240F06C8298F8350099F80C10A7
:105B9000814240F0658298F8360099F80D108142F4
:105BA00040F05E8298F8380099F80E10814240F07B
:105BB000578298F8390099F80F10814240F05082CE
:105BC00098F83B0099F81010814240F0498298F80B
:105BD0003C0099F81110814240F04282B8F87600FA
:105BE000B9F84C10814240F03B82B8F87800B9F81F
:105BF0004E10814240F03482B8F87A00B9F8501063
:105C0000814240F02D82B8F87C00B9F852108142F0
:105C100040F02682B8F87E00B9F85410814240F076
:105C20001F82B8F88000B9F85610814240F01882FF
:105C3000B8F88200B9F85810814240F01182B8F8E3
:105C40008400B9F85A10814240F00A82B8F8860000
:105C5000B9F85C10814240F00382B8F88800B9F8C6
:105C60005E10814240F0FC81B8F88A00B9F86010FB
:105C7000814240F0F581B8F88C00B9F86210814299
:105C800040F0EE81B8F88E00B9F86410814240F01F
:105C9000E781B8F89000B9F86610814240F0E081E1
:105CA000B8F89200B9F86810814240F0D981B8F88C
:105CB0009400B9F86A10814240F0D281B8F8960099
:105CC000B9F86C10814240F0CB81B8F89800B9F86F
:105CD0006E10814240F0C481B8F89A00B9F8701093
:105CE000814240F0BD81B8F89C00B9F87210814241
:105CF00040F0B681B8F89E00B9F87410814240F0C7
:105D0000AF81B8F8A000B9F87610814240F0A881C0
:105D1000B8F8A200B9F87810814240F0A181B8F833
:105D2000A400B9F87A10814240F09A81B8F8A60030
:105D3000B9F87C10814240F093815FF87402B8F8A2
:105D4000A81002888A4240F08B81B8F8AA104288D5
:105D50008A4240F08581B8F8AC1082888A4240F0CF
:105D60007F81B8F8AE10C2888A4240F07981B8F8D5
:105D7000B01002898A4240F07381B8F8B2104289AB
:105D80008A4240F06D81B8F8B41082898A4240F0AE
:105D90006781B8F8B610C2898A4240F06181B8F8CC
:105DA000B810028A8A4240F05B81B8F8BA10428A81
:105DB0008A4240F05581B8F8BC10828A8A4240F08D
:105DC0004F81B8F8BE10C28A8A4240F04981B8F8C3
:105DD000C010028B8A4240F04381B8F8C210428B57
:105DE0008A4240F03D81B8F8C410828B8A4240F06C
:105DF0003781B8F8C610C28B8A4240F03181B8F8BA
:105E0000C810028C8A4240F02B81B8F8CA10428C2C
:105E10008A4240F02581B8F8CC10828C8A4240F04A
:105E20001F81B8F8CE10C28C8A4240F01981B8F8B0
:105E3000D010028D8A4240F01381B8F8D210428D02
:105E40008A4240F00D81B8F8D410828D8A4240F029
:105E50000781B8F8D610C28D8A4240F00181B8F8A7
:105E6000D810028E8A4240F0FB80B8F8DA10428ED9
:105E70008A4240F0F580B8F8DC10828E8A4240F009
:105E8000EF80B8F8DE10C28E8A4240F0E980B8F8A0
:105E9000E010028F8A4240F0E380B8F8E210428FAF
:105EA0008A4240F0DD80B8F8E410828F8A4240F0E8
:105EB000D780B8F8E610C28F8A4240F0D180B8F897
:105EC000E810B0F840208A4240F0CA80B8F8EA10E2
:105ED000B0F842208A4240F0C380B8F8EC10B0F825
:105EE00044208A4240F0BC80B8F8EE10B0F846205A
:105EF0008A4240F0B580B8F8F010B0F848208A42E5
:105F000040F0AE80B8F8F210B0F84A208A4240F073
:105F1000A780B8F8F410B0F84C208A4240F0A08076
:105F2000B8F8F610B0F84E208A4240F09980B8F8E0
:105F3000F810B0F850208A4240F09280B8F8FA1079
:105F4000B0F852208A4240F08B80B8F8FC10B0F8CC
:105F500054208A4240F08480B8F8FE10B0F85620F1
:105F60008A427DD1B8F80011B0F858208A4277D122
:105F7000B8F80211B0F85A208A4271D1B8F8041169
:105F8000B0F85C208A426BD1B8F80611B0F85E20F8
:105F90008A4265D1B8F80811B0F860208A425FD112
:105FA000B8F80A11B0F862208A4259D1B8F80C1139
:105FB000B0F864208A4253D1B8F80E11B0F86620C8
:105FC0008A424DD1B8F81011B0F868208A4247D102
:105FD000B8F81211B0F86A208A4241D1B8F8141109
:105FE000B0F86C208A423BD1B8F81611B0F86E2098
:105FF0008A4235D1B8F81811B0F870208A422FD1F2
:10600000B8F81A11B0F872208A4229D1B8F81C11D8
:10601000B0F874208A4223D1B8F81E11B0F8762067
:106020008A421DD1B8F82011B0F878208A4217D1E1
:10603000B8F82211B0F87A00884211D15FF87405DF
:10604000D8E94A12D0E9103462405940114307D1CF
:10605000D8E94C12D0E912035A404840104338D0D6
:106060001D481E491E4E01601E493446016099F8C4
:10607000127067F38A2467F3CB24204605F032F9C7
:10608000B8F810105FF8C4552046A847164C17F012
:106090000107A4F1760008BFB01C98F81610A847B5
:1060A000A4F17400002F08BF301D98F81810A847FD
:1060B000B8F8100098F81810A9F83E0098F81600E3
:1060C000A9F84210A9F8400099F80600013089F8B3
:1060D000060053B0BDE8F08F04200240230167455D
:1060E00000E00108AB89EFCD78EC0108054C04F520
:1060F0004066304603F0C0FB4FF6FF75A84200F043
:10610000308201E000E00108204603F0B5FBA84220
:1061100000F02782084D05F1600005F00DF95FF8E9
:106120005476388004F1D80005F006F939888142A8
:1061300040F2398404E000BF78EC010839B300086C
:106140005FF808703046B8475FF88C663082A5F17A
:106150007600B847B075A5F17400B8473076A5F160
:106160007200B84786F82800A5F17000B84770841F
:10617000A5F16E00B847B08405F15800B84786F81D
:106180003000A5F16C00B847A6F86E00A5F16A00D2
:10619000B84786F83100A5F16800B84786F83200A4
:1061A000A5F16600B84786F83300A5F16400B8474A
:1061B00086F83400A5F16200B84786F83500A5F1ED
:1061C0006000B84786F83600A5F15E00B84786F84B
:1061D0003800A5F15C00B84786F83900A5F15A00EF
:1061E000B84786F83B00A5F15800B84786F83C0050
:1061F000A5F15600B847A6F87600A5F15400B847B7
:10620000A6F87800A5F15200B847A6F87A00A5F1E3
:106210005000B847A6F87C00A5F14E00B847A6F894
:106220007E00A5F14C00B847A6F88000A5F14A0011
:10623000B847A6F88200A5F14800B847A6F8840040
:10624000A5F14600B847A6F88600A5F14400B84776
:10625000A6F88800A5F14200B847A6F88A00A5F183
:106260004000B847A6F88C00A5F13E00B847A6F854
:106270008E00A5F13C00B847A6F89000A5F13A00C1
:10628000B847A6F89200A5F13800B847A6F89400E0
:10629000A5F13600B847A6F89600A5F13400B84736
:1062A000A6F89800A5F13200B847A6F89A00A5F123
:1062B0003000B847A6F89C00A5F12E00B847A6F814
:1062C0009E00A5F12C00B847A6F8A000A5F12A0071
:1062D000B847A6F8A200A5F12800B847A6F8A40080
:1062E000A5F12600B847A6F8A600A5F12400B847F6
:1062F000A6F8A800A5F12200B847A6F8AA00A5F1C3
:106300002000B847A6F8AC00A5F11E00B847A6F8D3
:10631000AE00A5F11C00B847A6F8B000A5F11A0020
:10632000B847A6F8B200A5F11800B847A6F8B4001F
:10633000A5F11600B847A6F8B600A5F11400B847B5
:10634000A6F8B800A5F11200B847A6F8BA00A5F162
:106350001000B847A6F8BC00A5F10E00B847A6F893
:10636000BE00A5F10C00B847A6F8C000A5F10A00D0
:10637000B847A6F8C200A5F10800B847A6F8C400BF
:10638000A81FB847A6F8C600281FB847A6F8C80037
:106390002846B847A6F8CA002846B847A6F8CC0051
:1063A000A81CB847A6F8CE00281DB847A6F8D0000C
:1063B000A81DB847A6F8D20005F10800B847A6F80E
:1063C000D40005F10A00B847A6F8D60005F10C0084
:1063D000B847A6F8D80005F10E00B847A6F8DA00CD
:1063E00005F11000B847A6F8DC0005F11200B84727
:1063F000A6F8DE0005F11400B847A6F8E00005F1A4
:106400001600B847A6F8E20005F11800B847A6F84C
:10641000E40005F11A00B84705F11E04A6F8E600ED
:106420002046B847A6F8E8002046B847A6F8EA0094
:1064300005F12000B847A6F8EC0005F12200B847A6
:10644000A6F8EE0005F12400B847A6F8F00005F123
:106450002600B847A6F8F20005F12800B847A6F8CC
:10646000F40005F12A00B847A6F8F60005F12C0063
:10647000B847A6F8F80005F12E00B847A6F8FA00CC
:1064800005F13000B847A6F8FC0005F13200B84726
:10649000A6F8FE0005F13400B847A6F8000105F1A2
:1064A0003600B847A6F8020105F13800B84705F1F3
:1064B0003C04A6F804012046B847A6F80601204689
:1064C000B847A6F8080105F13E00B847A6F80A014A
:1064D00005F14000B847A6F80C0105F14200B847A5
:1064E000A6F80E0105F14400B847A6F8100105F121
:1064F0004600B847A6F8120105F14800B847A6F8CB
:10650000140105F14A00B847A6F8160105F14C0040
:10651000B847A6F8180105F14E00B847A6F81A01C9
:1065200005F15000B847A6F81C0105F15200B84724
:10653000A6F81E0105F15400B847A6F8200105F1A0
:106540005600B847A6F8220105F15C00B8470024C0
:10655000C6E94A0405F15E00B847C6E94C0400F0FC
:10656000BFBC304603F088F9A84200F016825FF8FD
:1065700034743046B8475FF8B86AFD4C3082A4F1F5
:106580007600B847B075A4F17400B8473076A4F12E
:106590007200B84786F82800A4F17000B8477084EC
:1065A000A4F16E00B847B08404F15800B84786F8EB
:1065B0003000A4F16C00B847A6F86E00A4F16A00A0
:1065C000B84786F83100A4F16800B84786F8320071
:1065D000A4F16600B84786F83300A4F16400B84718
:1065E00086F83400A4F16200B84786F83500A4F1BB
:1065F0006000B84786F83600A4F15E00B84786F818
:106600003800A4F15C00B84786F83900A4F15A00BC
:10661000B84786F83B00A4F15800B84786F83C001C
:10662000A4F15600B847A6F87600A4F15400B84784
:10663000A6F87800A4F15200B847A6F87A00A4F1B1
:106640005000B847A6F87C00A4F14E00B847A6F861
:106650007E00A4F14C00B847A6F88000A4F14A00DF
:10666000B847A6F88200A4F14800B847A6F884000D
:10667000A4F14600B847A6F88600A4F14400B84744
:10668000A6F88800A4F14200B847A6F88A00A4F151
:106690004000B847A6F88C00A4F13E00B847A6F821
:1066A0008E00A4F13C00B847A6F89000A4F13A008F
:1066B000B847A6F89200A4F13800B847A6F89400AD
:1066C000A4F13600B847A6F89600A4F13400B84704
:1066D000A6F89800A4F13200B847A6F89A00A4F1F1
:1066E0003000B847A6F89C00A4F12E00B847A6F8E1
:1066F0009E00A4F12C00B847A6F8A000A4F12A003F
:10670000B847A6F8A200A4F12800B847A6F8A4004C
:10671000A4F12600B847A6F8A600A4F12400B847C3
:10672000A6F8A800A4F12200B847A6F8AA00A4F190
:106730002000B847A6F8AC00A4F11E00B847A6F8A0
:10674000AE00A4F11C00B847A6F8B000A4F11A00EE
:10675000B847A6F8B200A4F11800B847A6F8B400EC
:10676000A4F11600B847A6F8B600A4F11400B84783
:10677000A6F8B800A4F11200B847A6F8BA00A4F130
:106780001000B847A6F8BC00A4F10E00B847A6F860
:10679000BE00A4F10C00B847A6F8C000A4F10A009E
:1067A000B847A6F8C200A4F10800B847A6F8C4008C
:1067B000A01FB847A6F8C600201FB847A6F8C80013
:1067C0002046B847A6F8CA002046B847A6F8CC002D
:1067D000A01CB847A6F8CE00201DB847A6F8D000E8
:1067E000A01DB847A6F8D20004F10800B847A6F8E3
:1067F000D40004F10A00B847A6F8D60004F10C0052
:10680000B847A6F8D80004F10E00B847A6F8DA0099
:1068100004F11000B847A6F8DC0004F11200B847F4
:10682000A6F8DE0004F11400B847A6F8E00004F171
:106830001600B847A6F8E20004F11800B847A6F819
:10684000E40004F11A00B84704F11E05A6F8E600BA
:106850002846B847A6F8E8002846B847A6F8EA0050
:1068600004F12000B847A6F8EC0004F12200B84774
:10687000A6F8EE0004F12400B847A6F8F00004F1F1
:106880002600B847A6F8F20004F12800B847A6F899
:10689000F40004F12A00B847A6F8F60004F12C0031
:1068A000B847A6F8F80004F12E00B847A6F8FA0099
:1068B00004F13000B847A6F8FC0004F13200B847F4
:1068C000A6F8FE0004F13400B847A6F8000104F170
:1068D0003600B847A6F8020104F13800B84704F1C1
:1068E0003C05A6F804012846B847A6F80601284644
:1068F000B847A6F8080104F13E00B847A6F80A0117
:1069000004F14000B847A6F80C0104F14200B84772
:10691000A6F80E0104F14400B847A6F8100104F1EE
:106920004600B847A6F8120104F14800B847A6F897
:10693000140104F14A00B847A6F8160104F14C000E
:10694000B847A6F8180104F14E00B847A6F81A0196
:1069500004F15000B847A6F81C0104F15200B847F2
:10696000A6F81E0104F15400B84700F003B800BFB8
:1069700078EC0108A6F8200104F15600B847A6F803
:10698000220104F15C00B8470025C6E94A0504F17C
:106990005E00B847C6E94C05A2E2204602F06CFF53
:1069A000A84200F014825FF86C682046B0475FF898
:1069B000F07E3882A01CB047B875201DB0473876ED
:1069C000A01DB04787F8280004F10800B04778847C
:1069D00004F10A00B047B88404F1D000B04787F84A
:1069E000300004F10C00B047A7F86E0004F10E006F
:1069F000B04787F8310004F11000B04787F8320043
:106A000004F11200B04787F8330004F11400B047D6
:106A100087F8340004F11600B04787F8350004F118
:106A20001800B04787F8360004F11A00B04787F81D
:106A3000380004F11C00B04787F8390004F11E004B
:106A4000B04787F83B0004F12000B04787F83C00CE
:106A500004F12200B047A7F8760004F12400B04703
:106A6000A7F8780004F12600B047A7F87A0004F1EF
:106A70002800B047A7F87C0004F12A00B047A7F827
:106A80007E0004F12C00B047A7F8800004F12E002E
:106A9000B047A7F8820004F13000B047A7F884009F
:106AA00004F13200B047A7F8860004F13400B04783
:106AB000A7F8880004F13600B047A7F88A0004F16F
:106AC0003800B047A7F88C0004F13A00B047A7F8A7
:106AD0008E0004F13C00B047A7F8900004F13E009E
:106AE000B047A7F8920004F14000B047A7F894001F
:106AF00004F14200B047A7F8960004F14400B04703
:106B0000A7F8980004F14600B047A7F89A0004F1EE
:106B10004800B047A7F89C0004F14A00B047A7F826
:106B20009E0004F14C00B047A7F8A00004F14E000D
:106B3000B047A7F8A20004F15000B047A7F8A4009E
:106B400004F15200B047A7F8A60004F15400B04782
:106B5000A7F8A80004F15600B047A7F8AA0004F16E
:106B60005800B047A7F8AC0004F15A00B047A7F8A6
:106B7000AE0004F15C00B047A7F8B00004F15E007D
:106B8000B047A7F8B20004F16000B047A7F8B4001E
:106B900004F16200B047A7F8B60004F16400B04702
:106BA000A7F8B80004F16600B047A7F8BA0004F1EE
:106BB0006800B047A7F8BC0004F16A00B047A7F826
:106BC000BE0004F16C00B047A7F8C00004F16E00ED
:106BD000B047A7F8C20004F17000B047A7F8C4009E
:106BE00004F17200B047A7F8C60004F17400B04782
:106BF00004F17805A7F8C8002846B047A7F8CA00EE
:106C00002846B047A7F8CC0004F17A00B047A7F8AF
:106C1000CE0004F17C00B047A7F8D00004F17E005C
:106C2000B047A7F8D20004F18000B047A7F8D4001D
:106C300004F18200B047A7F8D60004F18400B04701
:106C4000A7F8D80004F18600B047A7F8DA0004F1ED
:106C50008800B047A7F8DC0004F18A00B047A7F825
:106C6000DE0004F18C00B047A7F8E00004F18E00CC
:106C7000B047A7F8E20004F19000B047A7F8E4009D
:106C800004F19200B04704F19605A7F8E600284603
:106C9000B047A7F8E8002846B047A7F8EA0004F193
:106CA0009800B047A7F8EC0004F19A00B047A7F8A5
:106CB000EE0004F19C00B047A7F8F00004F19E003C
:106CC000B047A7F8F20004F1A000B047A7F8F4001D
:106CD00004F1A200B047A7F8F60004F1A400B04701
:106CE000A7F8F80004F1A600B047A7F8FA0004F1ED
:106CF000A800B047A7F8FC0004F1AA00B047A7F825
:106D0000FE0004F1AC00B047A7F8000104F1AE00AA
:106D1000B047A7F8020104F1B000B04704F1B40590
:106D2000A7F804012846B047A7F806012846B0474F
:106D3000A7F8080104F1B600B047A7F80A0104F16A
:106D4000B800B047A7F80C0104F1BA00B047A7F8A3
:106D50000E0104F1BC00B047A7F8100104F1BE0019
:106D6000B047A7F8120104F1C000B047A7F814011A
:106D700004F1C200B047A7F8160104F1C400B047FF
:106D8000A7F8180104F1C600B047A7F81A0104F1EA
:106D9000C800B047A7F81C0104F1CA00B047A7F823
:106DA0001E0104F1CC00B047A7F8200104F1CE0089
:106DB000B047A7F8220104F1D400B0470025C7E985
:106DC0004A0504F1D600B047C7E94C0588E0DFF872
:106DD000180C78496422784B784C794D794E7A4F6B
:106DE0004FF0000CC0F8E610C0F8AA107749027600
:106DF000282280F828C0A0F830C0C0F81A31C0F8A6
:106E00001641C0F80E31C0F80A51C0F80661C0F84A
:106E10000231C0F8FE40C0F8F630C0F8F240C0F8C9
:106E2000EA70C0F8DE30C0F8DA40C0F8D230C0F8FE
:106E3000CE50C0F8CA60C0F8C630C0F8C240C0F832
:106E4000BA30C0F8B640C0F8AE70C0F8A230C0F892
:106E50009E40C0F89630C0F89250C0F88E60C0E9ED
:106E60004ACCC0E94CCC82754FF49672C0F88A10B7
:106E7000574902821E22A0F86E20564AC0F886109A
:106E80005549C0F822204FF00132C0F88210534912
:106E9000C0F83220012280F836200A22C0F87E1085
:106EA0004F49A0F822214F4AC0F87A104E49C0F845
:106EB0001E21C0F81221C0F8FA20C0F8EE20C0F858
:106EC000E220C0F8D620C0F8BE20C0F8B220C0F83A
:106ED000A620C0F89A20C0F876104FF48031816364
:106EE000DFF8040B018AB1F5FA7F01D8632902D8D3
:106EF0004FF496710182827DC82A01D8042A01D8F4
:106F000028228275CDE94F21418C642924BF32218A
:106F100041844E91828C40F2E6318A4200D80AB90F
:106F20003C22828490F83010022924BF002180F88E
:106F3000301090F83130022B24BF002380F831301C
:106F40004B9390F83240022C24BF012480F8324049
:106F50004D9290F83330022B24BF012380F8333058
:106F60004A9490F83420032A24BF012280F8342068
:106F700090F83540032C24BF012480F8354090F868
:106F80003680B8F1030F24BF4FF0010880F8368037
:106F90004C9190F83810022924BF002180F8381055
:106FA0004591479490F8391001B3012480F8394095
:106FB0001DE000BF0A006E0032000A000A00C8008F
:106FC0003C00C8006E00140014003C0050003C005F
:106FD00032007C0132003C005E0132002D002800AE
:106FE0001E004001C80032002C012800002490F847
:106FF0003A10022924BF012180F83A1090F83B1082
:10700000022924BF002180F83B104391499390F955
:107010002810642902DC11F1650F02DC002180F8E0
:107020002810B0F86E304191D9087C2901D8642B22
:1070300002D81E23A0F86E30B0F87610B1F5FA7FB2
:1070400001D8632903D84FF49671A0F876104291C5
:10705000B0F87810C82901D8042902D82821A0F84E
:107060007810B0F87A604091F1087C2900D816B900
:107070001E26A0F87A60B0F87C10B1F5FA7F01D82E
:10708000632903D84FF4A071A0F87C103D91B0F8AB
:107090007E10C82901D8042902D82D21A0F87E101D
:1070A000B0F880703C91F9087C2900D817B92827DE
:1070B000A0F88070B0F88210B1F5FA7F01D863298A
:1070C00003D84FF4AF71A0F882103A91B0F8841051
:1070D000C82901D8042902D83221A0F88410B0F8B8
:1070E00086503991E9087C2900D815B93225A0F8D5
:1070F0008650B0F88810B1F5FA7F01D8632903D81B
:107100004FF4BE71A0F88810CDE93715B0F88A1099
:10711000C82901D8042902D85021A0F88A10B0F853
:107120008CC0369144944FEADC017C2902D8BCF132
:10713000000F03D14FF03C0CA0F88CC0B0F88E408B
:10714000B4F5FA7F01D8632C02D89624A0F88E40BB
:10715000B0F89010CDF8D4C0C82901D8042902D8BD
:107160002821A0F890103391B0F892105291C908DC
:107170007C2901D8529921B95A255A215291A0F857
:107180009250B0F89410B1F5FA7F01D8632902D873
:10719000B421A0F894103291B0F896104892C82902
:1071A00001D8042902D83221A0F89610B0F898A08E
:1071B00031914FEADA017C2902D8BAF1000F03D1EC
:1071C0004FF0640AA0F898A0B0F89A10B1F5FA7FD1
:1071D00001D8632902D8F521A0F89A102F91B0F8B0
:1071E0009C103F93C82901D8042902D86421A0F833
:1071F0009C10B0F89E302E91D9087C2900D813B984
:107200003223A0F89E30B0F8A010B1F5FA7F01D873
:10721000632902D86421A0F8A0102B91B0F8A21025
:107220003E96C82901D8042902D88221A0F8A210CC
:10723000B0F8A4602991F1087C2900D816B9782605
:10724000A0F8A460B0F8A6102796B1F5FA7F01D88F
:10725000632902D86421A0F8A6102591B0F8A810DF
:10726000CDF81881C82901D8042902D81421A0F822
:10727000A810B0F8AA502C91E9087C2900D815B9BB
:107280003C25A0F8AA50B0F8AC10B1F5FA7F01D8AF
:10729000632902D88C21A0F8AC102891B0F8AE1068
:1072A0002D93C82901D8042902D81E21A0F8AE10B8
:1072B000B0F8B0302691D9087C2900D813B97823CA
:1072C000A0F8B030B0F8B210B1F5FA7F01D8632958
:1072D00002D8AA21A0F8B2102391B0F8B410C8299E
:1072E00001D8042902D82821A0F8B410B0F8B6C0FB
:1072F000229134944FEADC017C2902D8BCF1000FC2
:1073000003D14FF06E0CA0F8B6C0B0F8B840B4F599
:10731000FA7F01D8632C02D8F024A0F8B840B0F866
:10732000BA103B97CDF884C0C82901D8042902D8E7
:107330005021A0F8BA10B0F8BCB01F914FEADB01A1
:107340007C2902D8BBF1000F03D14FF0280BA0F825
:10735000BCB0B0F8BE10B1F5FA7F01D8632902D8ED
:107360006421A0F8BE101D91B0F8C010C82901D842
:10737000042902D86421A0F8C010B0F8C2801C9182
:107380004FEAD8017C2902D8B8F1000F03D14FF0A1
:107390009608A0F8C280B0F8C410B1F5FA7F01D801
:1073A000632902D86421A0F8C4101A91B0F8C6105D
:1073B000C82901D8042902D81421A0F8C610B0F8B1
:1073C000C89019914FEAD9017C2902D8B9F1000F70
:1073D00003D14FF03C09A0F8C890B0F8CA10B1F53D
:1073E000FA7F01D8632902D88221A0F8CA10179128
:1073F000B0F8CC102493C82901D8042902D823213D
:10740000A0F8CC10B0F8CE301691D9087C2900D85D
:1074100013B95023A0F8CE30B0F8D010B1F5FA7FF0
:1074200001D8632902D8A021A0F8D0101491B0F897
:10743000D2102A95C82901D8042902D82D21A0F8F4
:10744000D210B0F8D4C013914FEADC017C2902D8E5
:10745000BCF1000F03D14FF05A0CA0F8D4C0B0F823
:10746000D6102094B1F5FA7F01D8632902D8DC2127
:10747000A0F8D610B0F8D840C82C01D8042C02D8F7
:107480005A24A0F8D840B0F8DA20B2F57A7F17462F
:10749000519206D346224FF0460ECDF844E1A0F8B3
:1074A000DA20B0F8DC20B2F5FA7F01D8632A02D8DE
:1074B0006422A0F8DC201191B0F8DE100F92524641
:1074C000C82901D8042902D87821A0F8DE10B0F824
:1074D000E0700E91F9087C2900D817B96427A0F84C
:1074E000E070B0F8E210B1F5FA7F01D8632902D854
:1074F0006421A0F8E2100C91B0F8E410C82901D87A
:10750000042902D81421A0F8E410B0F8E6A00B91E9
:107510004FEADA017C2902D8BAF1000F03D14FF00B
:107520003C0AA0F8E6A0B0F8E810B1F5FA7F01D85F
:10753000632902D8A021A0F8E8100991B0F8EA1058
:10754000C82901D8042902D83C21A0F8EA10B0F8D3
:10755000EC500891E9087C2900D815B96E25A0F8EF
:10756000EC50B0F8EE10B1F5FA7F01D8632902D8DB
:10757000BE21A0F8EE100691B0F8F010C82901D88D
:10758000042902D84621A0F8F010B0F8F260059165
:10759000F1087C2900D816B97826A0F8F260B0F876
:1075A000F410B1F5FA7F01D8632902D8FA21A0F8C6
:1075B000F4100391B0F8F610C82901D8042902D8B4
:1075C0009621A0F8F610B0F8F8E002914FEADE013B
:1075D0007C2902D8BEF1000F03D14FF0500EA0F865
:1075E000F8E03092B0F8FA201094CDF848C0159326
:1075F000CDF86090CDF86C80CDF878B0B2F5FA7F18
:1076000001D8632A02D86422A0F8FA20B0F8FCC09E
:10761000CDE9002EBCF1C80F02D8BCF1040F03D88D
:107620004FF0960CA0F8FCC0B0F8FE10CA087C2AF7
:1076300000D811B9B421A0F8FE10B0F800410D97A0
:10764000B4F5FA7F01D8632C02D86424A0F8004175
:10765000B0F80271C82F01D8042F02D81427A0F85F
:107660000271B0F80421D3087C2B00D812B93C2257
:10767000A0F80421B0F806E1BEF5FA7F02D8BEF109
:10768000630F03D84FF0640EA0F806E1B0F808913C
:1076900004960795CDF828A0B9F1C80F02D8B9F122
:1076A000040F03D84FF01409A0F80891B0F80AA10C
:1076B0004FEADA037C2B02D8BAF1000F03D14FF066
:1076C0003C0AA0F80AA1B0F80CB1BBF5FA7F02D8C9
:1076D000BBF1630F03D84FF0640BA0F80CB1B0F806
:1076E0000E31C82B01D8042B02D81423A0F80E3178
:1076F000B0F81051EE087C2E00D815B93C25A0F842
:107700001051B0F81251B5F5FA7F01D8632D02D8A7
:107710006425A0F81251B0F81451C82D01D8042DD9
:1077200002D81425A0F81451B0F81651EE087C2E9A
:1077300000D815B93C25A0F81651B0F81851B5F588
:10774000FA7F01D8632D02D86425A0F81851B0F84B
:107750001A51C82D01D8042D02D81425A0F81A51A9
:10776000B0F81C51EE087C2E00D815B93C25A0F8C5
:107770001C51B0F81E51B5F5FA7F01D8632D02D81F
:107780006425A0F81E51B0F82051C82D01D8042D51
:1077900002D81425A0F82051B0F82251EE087C2E12
:1077A00000D815B93C25A0F82251DFF834824F9D4E
:1077B00090F83C60A8F84050509D88F81160A8F8F7
:1077C0003E503F9DA8F84A504D9DA8F848504E9D08
:1077D000A8F84650419DA8F84450439D88F81050A1
:1077E000449D88F80F50459D88F80E50469D88F8B6
:1077F0000D50479D88F80C50489D88F80B50499DC6
:1078000088F80A504A9D88F809504B9D88F808501E
:107810004C9D88F80750057EA8F84250259DA8F891
:107820007C50279DA8F87A50299DA8F878502B9D68
:10783000A8F876502D9DA8F874502E9DA8F8725087
:107840002F9DA8F87050309DA8F86E50319DA8F873
:107850006C50329DA8F86A50529DA8F86850339D2C
:10786000A8F86650349DA8F86450359DA8F8625079
:10787000369DA8F86050379DA8F85E50389DA8F84E
:107880005C50399DA8F85A503A9DA8F858503B9D35
:10789000A8F856503C9DA8F854503D9DA8F8525069
:1078A0003E9DA8F85050409DA8F84E50429DA8F823
:1078B0004C504C4DA5F856100099A5F86630A5F827
:1078C0005C20A5F85840D0F81621D0F81A31D0F82D
:1078D0001E41A5F864B0A5F862A0A5F86090A5F8CF
:1078E0005EE0A5F85A70A5F854C0A5F852100199A9
:1078F000C5F87640C5F86E20C5F8723000F594746E
:10790000A5F850100299A5F84E100399A5F84C104F
:107910000499A5F84A100599A5F848100699A5F804
:1079200046100799A5F844100899A5F8421009993E
:10793000A5F840100A99E9870B99A9870C996987DE
:107940000D9929870E99E9860F99A986519969861B
:10795000109929861199E9851299A9851399698544
:10796000149929851599E9841699A9841799698428
:10797000189929841999E9831A99A9831B9969830C
:107980001C9929831D99E9821E99A9821F996982F0
:10799000209929822199E9812299A98123996981D4
:1079A000249929812699E9802899A9802A996980B2
:1079B0002C992980B0F81011A5F86810D0F8121190
:1079C000C5F86A10B0F82211A5F87A10074D1ECC40
:1079D00040351EC5012188F813100170FEF779BBF0
:1079E000082D0020862D0020D00F0020082E00201A
:1079F000FEE7FEE77047052100EBC000B0FBF1F0A9
:107A0000203083B270470222D0F8044820479AF809
:107A1000310001287047208940F2E731000400BAA4
:107A20008842704704F1170102200A2284F820508E
:107A300006F002B9BDF804200A32ADF804209DF822
:107A4000072001328DF8072070477968B0460E187C
:107A5000704791F84030002B70474FF0FF3252FAD8
:107A600080F00328704790F83D10013902297047D3
:107A7000BAF86E00BAF88010081AB0FA80F040091F
:107A800043007047BAF86E00BAF88C10081AB0FAC2
:107A900080F040098300704701EB81010922A03981
:107AA00091FBF2F170470021C17590F82F10032966
:107AB000704780F86D30018290F82C108275704705
:107AC000BAF86E00BAF87A10081AB0FA80F04309D2
:107AD000704702224FF6FF73284790F86C10032975
:107AE0007047D4F80468204645F22401022230474A
:107AF000016821F00101016070474DF808ED294649
:107B000001F026FE28465DF808EB01F031BE0021A9
:107B1000418290F831100129704755F8244024889B
:107B2000A1F8724070470222D4F80468204630471A
:107B300091F83E305C1EE5B2042D704797F8310095
:107B40003B8AB97D012870478275018290F82C101C
:107B5000012970470020488291F8310001287047C0
:107B60000020C87591F82F00032870479AF8160076
:107B7000BAF88410002381427047D4F80468204684
:107B80007047D4F80458204646F26301022243F6B7
:107B90007F43284797F9290097F928103044A0EB34
:107BA0000109788C2044704705F1170102200A2250
:107BB00085F8204006F040B8218990F8312009046A
:107BC00009BA012A70470222D0F804C8604701218F
:107BD00080F82C1070479AF81600BAF88A10814283
:107BE00070479AF81600BAF87810814270479AF8F0
:107BF0001600BAF87E108142704794F83E000138B2
:107C0000032870479AF92800DAF80410081A704718
:107C1000BAF81000BAF87C1081427047BAF8100028
:107C2000BAF8821081427047BAF81000BAF876109C
:107C300081427047218940F2E732090409BA914232
:107C40007047BAF81000BAF88810814270479AF865
:107C50003E0001380328704797F83E100139042987
:107C600070479AF81630D4F80458204670479AF8AE
:107C70001830D4F804582046704780F86D30A0F8CA
:107C80006E107047BAF86E00BAF8861081427047DD
:107C9000B0FBF1F101EB4101A0EB8100002870473E
:107CA000D0E90E12013142F10002C0E90E12704714
:107CB000571E84F00106B7FA87F77F093E427047E6
:107CC000B0FBF1F0203083B2704797F929107A6841
:107CD000114497F928208C1A7047B9F80C0001302C
:107CE000A9F80C0080B2322870473146CDF818B0A0
:107CF000059028465047022005F09EBF0A2003F059
:107D00002FBB0222D0F804582847B9F80E000130E2
:107D1000A9F80E0080B232287047BAF810309AF8ED
:107D2000310003F11404A24270470A6842F00102D4
:107D30000A60B17CB1EB106F70479DF8070060607E
:107D4000BCBD016841F008010160016841F0040117
:107D50000160016821F400710160016821F4806113
:107D60000160816821F480718160816821F4007173
:107D70008160016841F020010160016841F040012B
:107D80000160016841F40051016070479AF86D008C
:107D9000013803287047B0FBF1F101EB8101704716
:107DA0002A8FA9780132002970470A6500212987A6
:107DB00001217047CDF818B0059020465047CDF806
:107DC00018800590704791F83D20013A012A7047CC
:107DD00091F83D20C875488270470590304650475D
:107DE000818A40F2713301F1320299427047D4F82E
:107DF00004582046284705F12400C9B205F06DB9A2
:107E000091B28282890011FA82F1A0397047BDF8DF
:107E10000C209DF80B301A4482427047206820F0F5
:107E20000100206010BD2189090409BAC8297047E2
:107E30002DE9FC41FCF744FC2E4FF865F86D796E96
:107E4000FCF7ECFB78662C4C786E2146FCF7BCFC0A
:107E500000B97C66786E00210024FCF7D1FC00B9E3
:107E60007C66D7E91286F86DFC6EB96DFCF728FCCC
:107E700038663046FD6D796EFCF728FC0190009461
:107E800001980099FCF792FC08B9009801900198BC
:107E9000009981F00041FCF7A5FC18B9009880F02A
:107EA0000040019040462946FCF710FC0199FCF780
:107EB000B5FB0446386DFD6D396EFCF707FC2146B5
:107EC000FCF7ACFBB866BD65B86E396FFCF76EFCAD
:107ED00008B9386FB866B86E396F81F00041FCF7A9
:107EE00081FC18B9386F80F00040B866B86EBDE804
:107EF000FC8100BFE42E002000C82F47704700001F
:107F00002DE9F041451C04460220294605F076FE85
:107F100084F80104C0B2092840F0A68728785A28BE
:107F200040F09F87A078A52840F09B87A0790B3868
:107F30003B2800F29687DFE810F03C00E200F400F6
:107F40001101240194079407940744014B01610136
:107F5000790188019501AD01BC01C901E101F00180
:107F6000FD0115022402310279029702AE02C50218
:107F7000E302FA0211032F0346035D037B0392031E
:107F8000A803AE03B403BA03C003C603E203ED03C0
:107F90000F041B0421049407940767009407270427
:107FA0002D049407940794073304940746044C0463
:107FB0005204DFF87464002086F8370096F82F002A
:107FC000002840F04E87207A657A0002FCF734FCE6
:107FD000804628460F46FCF740FCF44B0022FCF795
:107FE0008AF942463B46FCF7DFF8FCF757FC642869
:107FF00098BF6420308200EBC0000521B0FBF1F097
:108000002030B08200F02DBF617ADFF81C04002917
:1080100018BF012180F8411000F023873C22E44979
:10802000E44BE54DE54EE64F4FF0000E4FF01E0CD1
:1080300082754FF4BE72A0F81AC080F831E080F863
:1080400028E0A0F86EC080F83CE002824FF00132D8
:10805000C0F822306423C0E93C76DA4EDA4FC0F82B
:108060003220DA4A0376012380F83630D84BC0E953
:108070002B76C0E93A21D749D74AC0E93E53D74BBE
:10808000D74DC0F8DE10D749C0E92D53C0F8DA103B
:10809000D549C0F8D610D549C0F8D210D449C0F897
:1080A000CE10D449C0F8CA10D349C0E92F21D34912
:1080B000D34AC0F8A210D349C0F89A20C0F89E1045
:1080C000C0F89610D049C0F89210D049C0F88E1070
:1080D000CF49C0F88A10CF49C0F88610CE49C0F801
:1080E0008210CE49C0F87E10CD49C0F87A10CD4933
:1080F000C0F876104FF48031816300F0B2BEDFF833
:10810000200D012190F82F2080F83710032A00F06D
:10811000B683002A40F0A586617A052998BF05211B
:108120002CE0DFF8FC0C0021418290F82F10002990
:1081300040F09786218909BA0A0C90F8311001297C
:1081400040F07385018A0923828201EB8101A03905
:1081500091FBF3F31146038200F070BDDFF8BC0D14
:10816000FFF7A1FC00F09083002940F07A86617A45
:10817000052998BF0521C82928BFC821817500F0AD
:1081800070BEDFF8A00D90F82C1029B9DFF8981D0B
:1081900000220A83FFF71BFDDFF8801D91F82F10E6
:1081A000002940F05E86617A0139032900F2598680
:1081B000DFE811F00400DF05E105E305012100F02F
:1081C000DDBD607ADFF8541D81F83D0000F049BE46
:1081D000607ADFF8485D012885F8300040F041867C
:1081E000DFF83C0D1A260A2280F8206000F1170102
:1081F000FFF781FD85F83D6000F033BE2089000463
:1082000001BADFF8180D90F83120A0F87610012A95
:1082100004D1FFF741FCA0F8761089B2642900F27E
:108220000E836421A0F8761000F01BBE2089DFF8D1
:10823000EC1C000400BAC82828BFC820052898BF35
:108240000520A1F8780000F00CBEFFF7E4FB38BF72
:108250000146DFF8C80C012998BF0121A0F87A1067
:1082600000F0FFBD2089000401BADFF8B00C90F8DF
:108270003120A0F87C10012A04D1FFF70DFCA0F8F2
:108280007C1089B2642900F2E2826421A0F87C109B
:1082900000F0E7BD2089DFF8841C000400BAC8287C
:1082A00028BFC820052898BF0520A1F87E0000F04F
:1082B000D8BDFFF7B0FB38BF0146DFF8600C0129DD
:1082C00098BF0121A0F8801000F0CBBD20890004E8
:1082D00001BADFF8480C90F83120A0F88210012A8A
:1082E00004D1FFF7D9FBA0F8821089B2642900F20B
:1082F000B6826421A0F8821000F0B3BD2089DFF8B7
:10830000D81F000400BAC82828BFC820052898BF75
:108310000520A1F8840000F0A4BDFFF77CFB38BF66
:108320000146DFF8B40F012998BF0121A0F886109B
:1083300000F097BD2089000401BADFF89C0F90F887
:108340003120A0F88810012A04D1FFF7A5FBA0F87E
:10835000881089B2642900F28A826421A0F888100A
:1083600000F07FBD2089DFF8701F000400BAC82824
:1083700028BFC820052898BF0520A1F88A0000F072
:1083800070BDFFF748FB38BF0146DFF84C0F0129ED
:1083900098BF0121A0F88C1000F063BD607ADFF86F
:1083A000381F81F86C0000F05CBD00BF0000044085
:1083B0006E00BE0032000A0050006400FA00960011
:1083C000460078007800AA008C001E00A0003C0047
:1083D0009600B4007800640028006400F0005000AB
:1083E00028006E0046006400DC005A002D005A0090
:1083F0005000A000820023006400960082007800F4
:10840000F5006400320064005A00B40096002800B1
:1084100050003C0032007C015E0132002D0028003B
:108420001E0040012C012800D00F0020DFF8A80E0C
:10843000FFF753FB00F21585DFE811F004003B0263
:108440004C025D02FFF7B8FBA0F88E1004D1FFF7D5
:1084500023FBA0F88E1089B2642900F20A846421FB
:10846000A0F88E1000F0FDBCDFF86C0EFFF735FBB6
:1084700000F2F784DFE811F0040050025A026402AF
:10848000FFF7D1FC28BFC821052998BF0521A0F816
:10849000901000F0E6BCDFF8400EFFF71EFB00F284
:1084A000E084DFE811F00400570261026B02FFF77D
:1084B000C1FB38BF0A46012A98BF0122A0F89220CA
:1084C00000F0CFBCDFF8100EFFF707FB00F2C98405
:1084D000DFE811F004005E026F028002FFF76CFB20
:1084E000A0F8941004D1FFF7D7FAA0F8941089B23D
:1084F000642900F2C6836421A0F8941000F0B1BC96
:10850000DFF8D40DFFF7E9FA00F2AB84DFE811F0F1
:10851000040073027D028702FFF785FC28BFC82193
:10852000052998BF0521A0F8961000F09ABCDFF845
:10853000A80DFFF7D2FA00F29484DFE811F00400EE
:108540007A0284028E02FFF775FB38BF0A46012AC1
:1085500098BF0122A0F8982000F083BCDFF8780DC6
:10856000FFF7BBFA00F27D84DFE811F0040081021E
:108570009202A302FFF720FBA0F89A1004D1FFF7A4
:108580008BFAA0F89A1089B2642900F282836421E0
:10859000A0F89A1000F065BCDFF83C0DFFF79DFADB
:1085A00000F25F84DFE811F004009602A002AA0244
:1085B000FFF739FC28BFC821052998BF0521A0F87D
:1085C0009C1000F04EBCDFF8100DFFF786FA00F2A9
:1085D0004884DFE811F004009D02A702B102FFF712
:1085E00029FB38BF0A46012A98BF0122A0F89E2025
:1085F00000F037BCDFF8E00CFFF76FFA00F23184CF
:10860000DFE811F00400A402B502C602FFF7D4FAB5
:10861000A0F8A01004D1FFF73FFAA0F8A01089B28B
:10862000642900F23E836421A0F8A01000F019BC78
:10863000DFF8A40CFFF751FA00F21384DFE811F021
:108640000400B902C302CD02FFF7EDFB28BFC82129
:10865000052998BF0521A0F8A21000F002BCDFF8A0
:10866000780CFFF73AFA00F2FC83DFE811F004001F
:10867000C002CA02D402FFF7DDFA38BF0A46012A57
:1086800098BF0122A0F8A420EBE3607ADFF8D81F9E
:1086900081F83100E5E3607ADFF8CC1F81F8320021
:1086A000DFE3607ADFF8C01F81F83300D9E3607A36
:1086B000DFF8B41F81F83400D3E3607ADFF8A81F35
:1086C00081F83600CDE3208900BA010CDFF8980F5D
:1086D00090F831204184002A00F0DF80012A40F028
:1086E000C083D42928BFD421212998BF212101EB9F
:1086F00081010922A03989B2B1FBF2F1B7E2FFF79B
:108700008AF938BF0146DFF8600F012998BF0121BF
:108710008184A6E3DFF8500F617A90F83120012AB6
:1087200008D1227A41EA0221092201EB8101A03914
:1087300091FBF2F1027C90F82830511A19444AB2A8
:10874000642AA8BF64214AB212F1640FD8BF6FF047
:10875000630180F8281084E3FFF75DF938BF014614
:10876000DFF8E00F002908BF0121A0F86E1078E3C0
:10877000607ADFF8D01F81F8390072E3607ADFF8A1
:10878000C41F81F83B006CE3607ADFF8B81F81F802
:10879000380066E3607ADFF8AC1F81F83C0060E3E4
:1087A000617ADFF8A00F002980F83F1000F07D808B
:1087B000012940F05683012180F83E10B0F8921054
:1087C000A0F872104DE3607ADFF8781F81F8350069
:1087D00047E3607ADFF86C1F81F83A0041E3DFF885
:1087E0006C5F00202883688B0130688380B20D287D
:1087F000C0F03783607A012840F03383DFF8486F98
:1088000096F82D00002840F0298396F82E000138B4
:10881000032800F21A83DFE810F00400BE02B4025D
:10882000C802DFF8207FFFF789F9A7F87630A7F8AC
:10883000781000F0C482002800F0C682C9E2B1F5C9
:10884000FA7F24BF4FF4FA71A0F8761009E3B1F56E
:10885000FA7F24BF4FF4FA71A0F87C1001E3B1F560
:10886000FA7F24BF4FF4FA71A0F88210F9E2B1F553
:10887000FA7F24BF4FF4FA71A0F88810F1E2627A0F
:10888000012A88BF114606E0617A012998BF0121BB
:10889000C82928BFC8210176E3E2002900F0E6815B
:1088A000642924BF64214184DBE2002180F83E106A
:1088B000D7E2FFF781F9A0F8AC1004D1FFF7ECF88C
:1088C000A0F8AC1089B2642900F2F3816421A0F809
:1088D000AC10C6E2FFF770F9A0F8CA1004D1FFF798
:1088E000DBF8A0F8CA1089B2642900F2EA81642199
:1088F000A0F8CA10B5E2FFF75FF9A0F8E81004D1BC
:10890000FFF7CAF8A0F8E81089B2642900F2E18103
:108910006421A0F8E810A4E2FFF785FA28BFC82177
:10892000052998BF0521A0F8AE109AE2FFF77BFA5F
:1089300028BFC821052998BF0521A0F8CC1090E2D6
:10894000FFF771FA28BFC821052998BF0521A0F8B3
:10895000EA1086E2FFF76EF938BF0A46012A98BF8F
:108960000122A0F8B0207CE2FFF764F938BF0A4684
:10897000012A98BF0122A0F8CE2072E2FFF75AF92F
:1089800038BF0A46012A98BF0122A0F8EC2068E20D
:10899000FFF712F9A0F8B21004D1FFF77DF8A0F8A4
:1089A000B21089B2642900F29C816421A0F8B2104F
:1089B00057E2FFF701F9A0F8D01004D1FFF76CF8E7
:1089C000A0F8D01089B2642900F293816421A0F844
:1089D000D01046E2FFF7F0F8A0F8EE1004D1FFF750
:1089E0005BF8A0F8EE1089B2642900F28A81642154
:1089F000A0F8EE1035E2FFF716FA28BFC8210529C6
:108A000098BF0521A0F8B4102BE2FFF70CFA28BF9D
:108A1000C821052998BF0521A0F8D21021E2FFF74F
:108A200002FA28BFC821052998BF0521A0F8F01037
:108A300017E2FFF7FFF838BF0A46012A98BF012264
:108A4000A0F8B6200DE2FFF7F5F838BF0A46012A74
:108A500098BF0122A0F8D42003E2FFF7EBF838BF5B
:108A60000A46012A98BF0122A0F8F220F9E1FFF797
:108A7000A3F8A0F8B81004D1FFF70EF8A0F8B810CA
:108A800089B2642900F245816421A0F8B810E8E1B8
:108A9000FFF792F8A0F8D61004D1FEF7FDFFA0F87A
:108AA000D61089B2642900F23C816421A0F8D61066
:108AB000D7E1FFF781F8A0F8F41004D1FEF7ECFF3E
:108AC000A0F8F41089B2642900F233816421A0F87F
:108AD000F410C6E1FFF7A7F928BFC821052998BF00
:108AE0000521A0F8BA10BCE1FFF79DF928BFC82105
:108AF000052998BF0521A0F8D810B2E1FFF793F936
:108B000028BFC821052998BF0521A0F8F610A8E1C3
:108B1000FFF790F838BF0A46012A98BF0122A0F853
:108B2000BC209EE1FFF786F838BF0A46012A98BFAD
:108B30000122A0F8DA2094E1FFF77CF838BF0A465A
:108B4000012A98BF0122A0F8F8208AE1FFF734F843
:108B5000A0F8BE1004D1FEF79FFFA0F8BE1089B2A6
:108B6000642900F2EE806421A0F8BE1079E1FFF7DD
:108B700023F8A0F8DC1004D1FEF78EFFA0F8DC107B
:108B800089B2642900F2E5806421A0F8DC1068E174
:108B9000FFF712F8A0F8FA1004D1FEF77DFFA0F855
:108BA000FA1089B2642900F2DC806421A0F8FA107E
:108BB00057E1FFF738F928BFC821052998BF0521DB
:108BC000A0F8C0104DE1FFF72EF928BFC8210529F4
:108BD00098BF0521A0F8DE1043E1FFF724F928BF74
:108BE000C821052998BF0521A0F8FC1039E1FFF73D
:108BF00021F838BF0A46012A98BF0122A0F8C220F6
:108C00002FE1FFF717F838BF0A46012A98BF012263
:108C1000A0F8E02025E1FFF70DF838BF0A46012A49
:108C200098BF0122A0F8FE201BE102EBC201052340
:108C30000282B1FBF3F11346203181829AB2652A98
:108C400001D2642204E0B2F5FA7F02D34FF4FA7243
:108C5000028289B2D42902D8D421818201E1B1F5FE
:108C6000697F24BF4FF469718182FAE00021418459
:108C7000F7E0B1F5FA7F24BF4FF4FA71A0F88E1037
:108C8000EFE0B1F5FA7F24BF4FF4FA71A0F8941029
:108C9000E7E0B1F5FA7F24BF4FF4FA71A0F89A101B
:108CA000DFE0B1F5FA7F24BF4FF4FA71A0F8A0100D
:108CB000D7E0B1F5FA7F24BF4FF4FA71A0F8AC10F9
:108CC000CFE0B1F5FA7F24BF4FF4FA71A0F8CA10D3
:108CD000C7E0B1F5FA7F24BF4FF4FA71A0F8E810AD
:108CE000BFE0B1F5FA7F24BF4FF4FA71A0F8B210DB
:108CF000B7E0B1F5FA7F24BF4FF4FA71A0F8D010B5
:108D0000AFE0B1F5FA7F24BF4FF4FA71A0F8EE108E
:108D1000A7E0B1F5FA7F24BF4FF4FA71A0F8B810BC
:108D20009FE0B1F5FA7F24BF4FF4FA71A0F8D61096
:108D300097E0B1F5FA7F24BF4FF4FA71A0F8F41070
:108D40008FE0B1F5FA7F24BF4FF4FA71A0F8BE109E
:108D500087E0B1F5FA7F24BF4FF4FA71A0F8DC1078
:108D60007FE0B1F5FA7F24BF4FF4FA71A0F8FA1052
:108D700077E0022102E0032100E0042180F82E10B8
:108D80006FE0664FFEF7DAFEA7F88230A7F884108E
:108D900025D048B32DE0614FFEF7D0FEA7F87C3018
:108DA000A7F87E102BD078B333E05C4FFEF7C6FEF9
:108DB000A7F88830A7F88A1034D0C0B33CE003EBA2
:108DC000C3000521FEF77CFF584845F21501FEF768
:108DD000FAFE5648B7F8783045F2160131E003EB59
:108DE000C3000521FEF76CFF504845F21B01FEF75A
:108DF000EAFE4E48B7F8843045F21C0121E003EB4F
:108E0000C3000521FEF75CFF484845F21801FEF754
:108E1000DAFE4648B7F87E3045F2190111E000BF8E
:108E2000D00F002003EBC3000521FEF749FF3F48A8
:108E300045F21E01FEF7C7FE3C48B7F88A3045F2FE
:108E40001F01D0F804780222B847012086F82D00CF
:108E5000022086F83400607A012802D10020B08513
:108E6000A861002084F801042E4890F82C100129F4
:108E700052D12D4A118B0131118389B2C8294BD3AC
:108E80000021118390F82D20002A43D1234A92F823
:108E90002F30002B3ED10023D375538292F83D3002
:108EA000013B012B2AD890F82E305E1E032E25D8C8
:108EB00002F17A0302F1780402F17605DFE806F0A8
:108EC0001602091002F1800302F17E0402F17C0512
:108ED0000CE002F1860302F1840402F1820505E050
:108EE00002F18C0302F18A0402F188051B882D88A7
:108EF000247815829475A2F86E30538392F831303D
:108F0000012B07D1138A052403EBC303B3FBF4F34E
:108F10002033938280F82C10BDE8F081D00F002020
:108F200048000020082D0020082E0020C407002043
:108F300070470000B0B5DFF89803C1880139C180DF
:108F400009040AD14FF47A71DFF88C33C180DFF85D
:108F500084130A6ADA6000220A62DFF87C1391F84F
:108F60002F20022A17D18289013A8281120417D157
:108F70004FF47A728281CA8C013ACA8412B2B2F179
:108F8000FF3F0DDCDFF85423022382F83430002247
:108F900081F82F2004E04FF47A7282818A8CCA848F
:108FA00091F83F209AB1012A40F0FF80DFF82C238E
:108FB0001379012B14D191F86C30032B00F2DA8075
:108FC000DFE803F0022D303391F83E3019E04FF422
:108FD0007A7200230281C14A1371A1F87230E4E071
:108FE0000123137191F86C30032BE6D8DFE803F00E
:108FF00002203549FEF79CFD03D264B2C4A5FEF7FA
:109000008CFD032B51D0022B56D0012B5BD1FEF7E8
:1090100020FD40F0AF804B68B1F88E40A0E091F8A1
:109020003E300CE091F83E301EE091F83E302FE0EB
:10903000FEF77EFD03D264B2B1A5FEF76EFD032BF1
:109040004AD0022B4FD0012B54D1FEF702FD40F045
:1090500091804B68B1F8AC4082E0FEF769FD03D225
:1090600064B2A3A5FEF759FD032B4CD0022B51D0BF
:10907000012B56D1FEF7EDFC7CD14B68B1F8CA400C
:109080006EE0FEF755FD03D264B295A5FEF745FDEF
:10909000032B4FD0022B54D0012B59D1FEF7D9FC12
:1090A00068D14B68B1F8E8405AE0FEF7D2FC61D1D4
:1090B0004B68B1F89A4053E0FEF7CBFC5AD14B68AD
:1090C000B1F894404CE0042B54D1FEF7C2FC51D1CE
:1090D0004B68B1F8A04043E0FEF7BBFC4AD14B68B7
:1090E000B1F8B8403CE0FEF7B4FC43D14B68B1F8AE
:1090F000B24035E0042B3DD1FEF7ABFC3AD14B68D2
:10910000B1F8BE402CE0FEF7A4FC33D14B68B1F8B7
:10911000D64025E0FEF79DFC2CD14B68B1F8D0403D
:109120001EE0042B26D1FEF794FC23D14B68B1F846
:10913000DC4015E0FEF78DFC1CD14B68B1F8F44023
:109140000EE0FEF786FC15D14B68B1F8EE4007E063
:10915000042B0FD1FEF77DFC0CD14B68B1F8FA401F
:10916000E51EAB4206D90334A34203D20389013B77
:10917000038100E003891B0417D14FF47A73038144
:10918000B1F87230013BA1F872301BB2B3F1FF3F6E
:109190000BDC0023137191F83E20013281F83E2050
:1091A000D2B2052A01D3CB8717E791F843203AB30F
:1091B00091F82D20012A06D1484A022382F8343042
:1091C000002281F843204289013A428112041ED1D3
:1091D000B1F87020013AA1F8702012B2B2F1FF3F4D
:1091E0000ADC0022022381F843203C4A82F8343012
:1091F000B1F86E20A1F870204FF47A71418106E039
:109200004FF47A724281B1F86E00A1F87000314CCF
:10921000A06D8047DA48417B012906D1017B11B15D
:109220000139017301E002214173017F09B1013964
:10923000017790F83110012909D190F8301019B157
:10924000013980F8301002E0022180F8311090F8E6
:10925000401011B1013980F8401090F855100129E3
:1092600009D190F8541019B1013980F8541002E076
:10927000022180F8551090F8641011B1013980F87E
:1092800064107C48417B012906D1017B11B1013971
:10929000017301E002214173017F09B101390177B6
:1092A00090F83110012909D190F8301019B1013925
:1092B00080F8301002E0022180F8311090F8401060
:1092C00011B1013980F84010606A01306062B0BDB0
:1092D00048000020082E0020D00F0020082D00207C
:1092E000BC100020C2100020C8100020CE100020AA
:1092F0009E100020A4100020AA100020B010002012
:1093000080100020861000208C1000209210002079
:1093100062100020681000206E10002074100020E1
:109320001848C16941F08051C16117490A7842F07B
:1093300004020A70C16921F08051C161016841F0E5
:109340000101016001688907FCD5416821F0030132
:109350004160416811F00C0FFBD101680B4A1140CC
:1093600001600021416041F61071C1624FF480112B
:1093700001634FF41F01816005484FF000610160F7
:10938000704700BF0010024050700040FFFFF2FE27
:1093900008ED00E00948016889070AD550F8041C67
:1093A000890706D56FF002010160E8490A6A0132B7
:1093B0000A626FF001010160704700BF10040040B5
:1093C000BCB5154DE86880060ED5286880060BD51B
:1093D0006FF02000274C28606868C1B2204603F077
:1093E0007CFE4FF48270A081E86840060FD52868A3
:1093F00040060CD51F4C6FF040000DF107012860AE
:1094000004F1100003F056FE10B100206077BCBDDF
:109410009DF807006860BCBD004C0040BCB5144C12
:10942000E06880060CD52068800609D56FF0200022
:10943000104D20606168FEF7DEFC4FF482702886D4
:10944000E068400610D5206840060DD5094D6FF044
:1094500040000DF10701206005F1340003F02AFE01
:1094600018B1002085F84100BCBDFEF766BC00BF06
:1094700000500040E42E0020BCB5144DE868800682
:109480000BD52868800608D568683D4CC1B22046D7
:1094900003F023FE4FF48270A081E86840060FD5E8
:1094A000286840060CD5364C6FF040000DF10701DE
:1094B000286004F1100003F0FDFD10B1002060777A
:1094C000BCBD9DF807006860BCBD00BF003801400E
:1094D000BCB5124CE068800609D52068800606D528
:1094E0006168274DFEF787FC4FF482702886E0689C
:1094F000400610D5206840060DD5214D6FF0400084
:109500000DF10701206005F1340003F0D3FD18B11F
:10951000002085F84100BCBDFEF70FBC00440040B0
:10952000BCB5164CE068800610D5206880060DD5C5
:109530006FF02000124D2060616805F14800C9B24B
:1095400003F0CBFD4FF48270A5F85400E0684006AC
:1095500010D5206840060DD5094D6FF040000DF183
:109560000701206005F1580003F0A4FD18B10020A8
:1095700085F86500BCBDFEF7E0BB00BF00480040B9
:10958000782E0020FEE710B580F807148224090A1F
:1095900080F809341B0A80F805444AF25A5480F8CE
:1095A0000614D11C80F80834082280F80414A0F8AE
:1095B000024400F202410220BDE8104004F03CBB2E
:1095C0000648BFF34F8F064A016801F4E06111437A
:1095D0000160BFF34F8F00BFFDE700BF0CED00E05F
:1095E0000400FA0500EB400107221E3902FA01F1DE
:1095F000044A136819431160916A21F01F0108435E
:10960000906270470C240140B0B5164C207840BBE6
:10961000FEF774FBE34D80086860102001F0A0FEA7
:10962000FBF71BF9114B4FF06632FAF764FE104B53
:109630000022FAF760FE0F4A0F4BFAF7B5FD0F4A0A
:109640000F4BFAF7CAFEFBF729F9A5F874000138A9
:1096500080B2312805D8686880087C289CBF01202A
:109660002070B0BDC0000020D00F002066660AC088
:109670000000303F295C8FC2F528F43F33E197FAB0
:10968000795371BF02484FF480510160704700BFA9
:10969000140C014002484FF480510160704700BF34
:1096A000100C0140B0B5BF4C94F83200012811D124
:1096B000254D6879042834D8DFE800F0032113250C
:1096C0001A0095F83400022829D0012814BF002080
:1096D000012025E0FFF7D6FF1B48002180F8341059
:1096E0001FE0FFF7D7FF1948FEF7DAFA14390EE04A
:1096F000FFF7C8FF0020687185F8340011E0FFF71C
:10970000C9FF03200CE01148FEF7CAFA023972F1D2
:10971000000106D30021C0E90E11042000E0022060
:10972000687194F82E0058B1074801780131017032
:10973000C9B2502904D3022180F8341000210170ED
:10974000B0BD00BFD00F0020082D0020082E002043
:1097500060B159B101300022042A07D000EB820326
:109760001B681BBA41F822300132F5E77047000050
:10977000054A0021042904D050F82130013113603A
:10978000F8E71068704700BF00300240F0B532497A
:109790000A68C2F38103314A022B08D0BBBB0B6DB0
:1097A0009B0534D5CB6A9B0148BF2E4A2FE00B683E
:1097B0008C6AC3F30043002C0BD40C680D68C5F30E
:1097C0004175C4F383440DB90F2C18D12D01013517
:1097D00016E08C6A8D6A8E6A214FC4F30314C5F3B8
:1097E000082506F007061BB10B689B0358BF1746F8
:1097F00004FA06F207FB05F3B3FBF2F207E00225D9
:109800002C4413B10B689B0300D5154A62430260D8
:10981000154C0B68C3F30313E35C144CDA4042604D
:109820000B68C3F30223E35C22FA03F3C3600B6803
:10983000C3F3C223E35C0424DA4082600B68096846
:1098400004EA9363C1F38131194409A3595CB2FB63
:10985000F1F10161F0BD00BF0410024000127A0076
:1098600000093D00006CDC0278DE000888DE00089C
:1098700002040608020C08107CB5044600204FF6CE
:10988000FF75C6B26C2E09D8301901F055FDADF840
:109890000600B01CBDF80610A942F2D1BDF80600C2
:1098A0007CBD000082B000213E4A8DF80710ADF863
:1098B00004108DF80310927D1F2A1BD38DF803101E
:1098C00081084A2936D86421ADF8041000218DF8AA
:1098D000071036499DF80720132A5BD84DF808ED8C
:1098E000FEF795FA5DF808EB54D27346FEF7A2F83E
:1098F0009E46EFE7013A0021132A4ED88DF8031057
:1099000081084A292ED86421ADF8041000218DF871
:10991000071025499DF80720132A41D84DF808ED76
:10992000FEF775FA5DF808EB34D27346FEF782F85D
:109930009E46EFE74FF49671ADF8041014218DF8B0
:1099400007101A499DF80720272A23D84DF808ED5B
:10995000FEF75DFA5DF808EB1CD27346FEF76AF875
:109960009E46EFE74FF49671ADF8041014218DF880
:1099700007100D499DF80720272A0BD84DF808ED50
:10998000FEF745FA5DF808EB04D27346FEF752F88D
:109990009E46EFE79DF80700095C48B202B07047A9
:1099A0000021FAE7D00F002025DE0008FCDD0008CA
:1099B0002DE9F84FDFF8F8AD9AF80000012818BF3C
:1099C000BDE8F88FDFF8EC8D98F8010060B9012050
:1099D000052188F80100BAF8100000EBC000B0FBC8
:1099E000F1F02030AAF814009AF8307027B1012F56
:1099F00018D1DAF804000DE09AF83C0040B10128D3
:109A000010D1FEF7FFF800EBC000A0F5E17003E015
:109A1000FEF7F8F800EBC0000521B0FBF1F02030B4
:109A2000CAF80800B8F8360005210130A8F8360059
:109A300080B2FEF7B0F9411A00F081800321B0FB3B
:109A4000F1F101EB4101401A41F0398398F81A0015
:109A500098F81F4000F1010B204688F81AB0FAF779
:109A6000E6FEDFF8549D0546CA49D9F82800FAF702
:109A70005FFE29460646FAF799FE30B90134E0B296
:109A800088F81F40FAF7D3FE054630462946FAF714
:109A9000A9FE10B9013C88F81F409AF83D00012842
:109AA00040F0898098F81B0098B9DFF8100D082164
:109AB0004FF0000BA8F81DB0A9F80AB0C9F806B01D
:109AC0008AF817B0AAF812B041704FF48070A8F865
:109AD0001A0098F81900082800F2F782DFE810F061
