:020000040800F2
:104000005837002085410008C1490008BD49000813
:10401000BF490008B9490008B57400080000000055
:10402000000000000000000000000000196A000805
:10403000BB49000800000000B15200081D6A0008DA
:104040009F4100089F4100089F4100089F410008D0
:104050009F4100089F4100089F4100089F410008C0
:104060009F4100089F4100089F4100089F410008B0
:104070009F4100089F4100089F4100089F410008A0
:104080009F4100089F4100089F4100089F41000890
:104090009F4100089F4100089F4100089F41000880
:1040A0009F4100089F4100089F4100089F41000870
:1040B000016F0008C17200089F4100089F4100087D
:1040C0009F4100089F4100089F4100089F41000850
:1040D0009F410008A1730008F97300085574000897
:1040E0009F4100089F4100089F4100080000000018
:1040F00000000000000000000000000000000000C0
:10410000000000009F4100089F41000800000000DF
:10411000E97200084573000800000000000000007C
:104120009F4100089F4100089F4100089F410008EF
:10413000000000000000000000000000000000007F
:104140000000000000000000000000009F41000887
:1041500000000000000000009F4100089F4100088F
:104160000000000000000000000000009F41000867
:10417000DFF80CD000F0A0F900480047F1BB0008C0
:10418000583700200648804706480047FEE7FEE70C
:10419000FEE7FEE7FEE7FEE7FEE7FEE7FEE7FEE7F7
:1041A0008D6E0008714100082DE9FE4F804681EABE
:1041B0000300C00F0C46009021F0004123F00045A1
:1041C000B8EB0200A94105D24046214690461C4664
:1041D0000B46024623F00040104347D0270DC7F39B
:1041E0000A00C3F30A510290401A019040286BDA8A
:1041F000C3F3130040F4801B0098924620B10023C3
:10420000D2EB030A63EB0B0B01985946C0F1400255
:10421000504600F069F906460D4650465946019A47
:1042200000F081F910EB08006141002487EA115287
:1042300084EAE7731A4340D0009A62B3019A012AD4
:104240004FEA075215DC001B61EB02014FF0004200
:1042500002EA0752CDE90042001C41F580113246C6
:104260002B4600F081F903B0BDE8F08F40462146AF
:10427000F9E7001B61EB0201001C41F580130018F7
:104280005B412018A2F5001747EB030140EAD57007
:10429000B6196D4111E06D084FEA360645EAC07562
:1042A0004FEA0752001B61EB0201001C41F580112F
:1042B00049084FEA30000019514132462B4603B0FD
:1042C000BDE8F04F00F041B9009801224000002302
:1042D000D0EB020263EBE073009821464FEAE074F2
:1042E000B8EB000061EB0401E9E783F000435BE712
:1042F00081F0004158E72DE9FE4F81EA030404F004
:10430000004421F0004100944FF0000B23F00043E3
:1043100050EA01045ED052EA03045BD0C3F30A54AE
:10432000C1F30A552C44A4F2F3340194A0FB0254C7
:10433000C1F3130141F48011C3F3130343F4801359
:1043400001FB024400FB034E840A970A44EA8154AD
:1043500047EA8357A4FB076802958D0A05FB07858A
:104360004FEA932C04FB0C542705029D4FEA065894
:1043700047EA1637B5EB08056EEB070C870E920E71
:1043800047EA811742EA8312A7FB0201B6EB0B0151
:1043900064EB00042B0D43EA0C335E1844EB1C5015
:1043A000DA465146E7FB0201C5F313044FEA0B332B
:1043B00043EA14534FEA0432019C43EA0603A4F192
:1043C0000C040294009CCDE900B400F0CDF803B0D9
:1043D000BDE8F08F00200146F9E72DE9F04D81EAB4
:1043E000030404F0004B21F0004514464FF0000A8E
:1043F00023F0004150EA050220D054EA01021DD00A
:10440000C5F30A570246C5F31303C1F31300C1F302
:104410000A5640F4801543F48013A7EB0608101BDE
:10442000D64608F2FD3873EB050002D308F1010807
:1044300001E092185B41B8F1000F03DA0020014659
:10444000BDE8F08D00204FF48011064684460EE052
:10445000171B73EB050705D3121B63EB050306431C
:104460004CEA010C49084FEA300092185B4150EACF
:104470000107EDD152EA030012D082EA040083EA78
:104480000501084305D0101BAB4106D201220023D1
:1044900006E000224FF0004302E06FF001025310EB
:1044A0001AEB06004CEB085110EB0A0041EB0B0134
:1044B000BDE8F04D00F049B81CB509480090094826
:1044C00001900546009C06E0E06840F0010394E896
:1044D000070098471034AC42F6D3FFF74DFE0000BA
:1044E0004CDE00086CDE0008202A04DB203A00FACB
:1044F00002F1002070479140C2F1200320FA03F33B
:10450000194390407047202A04DB203A21FA02F038
:104510000021704721FA02F3D040C2F120029140FD
:10452000084319467047202A06DBCB17203A41FA88
:1045300002F043EAE07306E041FA02F3D040C2F130
:104540002002914008431946704710B5141E73F1BC
:10455000000408DA401C41F1000192185B411A4343
:1045600001D120F0010010BD2DE9F04D92469B468F
:1045700011B1B1FA81F202E0B0FA80F22032904635
:10458000FFF7B2FF04460F4640EA0A0041EA0B017A
:1045900053465A46084313D0114653EA010019D036
:1045A000C8F140025046FFF7AEFF05460E465046A2
:1045B00059464246FFF798FF084305D0012004E022
:1045C00020463946BDE8F08D0020054346EAE076F6
:1045D0002C4337430A986305E40AA0EB0800002245
:1045E000FD0A44EA47540A3002D500200146E9E7B3
:1045F000010510196941DDE9084500196941BDE867
:10460000F04DA2E7D2B201E000F8012B491EFBD227
:1046100070470022F6E710B513460A4604461946CD
:10462000FFF7F0FF204610BDF0B480EA0102D40F7E
:104630004200B2EB410F02D20246084611464A0040
:1046400042D0C30DDDB2C1F3C752AD1A202D35DA09
:10465000C1F3160141F4000204B15242C5F1200633
:1046600002FA06F12A411044B3EBD05F23D0C4B163
:10467000012DA0EBC35009DCF0BC4FF0004202EA70
:10468000C352DBB200F5000000F068B9400000F151
:10469000807000EBC350A0F1807040EAD1704900F7
:1046A00009E0490841EAC071A0EBC35000F50000E1
:1046B000400800EBC350F0BC00F047B96142012252
:1046C00002EB4101001BF6E7F0BC704781F00041AE
:1046D000AAE780F00040A7E780EA010210B502F0E7
:1046E0000043400022D04A001FD0010E01EB1261AE
:1046F000C0F35600C2F3560240F4000042F4000238
:10470000A0FB022000047F39140400D0401C50EAB2
:10471000124001D44000491EC2B20C0604EBD01076
:10472000401C4008802A02D003E0002010BD20F089
:104730000100002900DA0020184310BD30B480EADF
:10474000010202F0004530F0004221F0004013D099
:1047500090B1C30DD40DC2F31601C0F31600E41AD4
:1047600041F4000140F400027D34914201D3641C05
:1047700000E04900002C02DA30BC002070474FF402
:1047800000000023914201D3891A034340084FEAF5
:104790004101F7D151B1914202D14FF0004105E002
:1047A00002D24FF0010101E06FF0010103EBC450B0
:1047B000284430BC00F0C9B8002801DBC0F100403B
:1047C000002901DBC1F10041814201D8012070477D
:1047D00000207047002801DBC0F10040002901DB08
:1047E000C1F10041814201D2012070470020704791
:1047F000002801DBC0F10040002901DBC1F10041CC
:10480000814201D30120704700207047002801DB5E
:10481000C0F10040002901DBC1F10041814201D912
:104820000120704700207047C10F80EAE070084403
:10483000CA079623002100F091B896230022114662
:1048400000F08CB80EB5C10F80EAE0700844CA07CA
:10485000002140F233438DE80E000A460B46FFF775
:1048600083FE03B000BD0EB540F23341029100213A
:10487000CDE900110A460B46FFF776FE03B000BDF6
:1048800000F0004220F00040C10DC0F3160040F4DB
:1048900000007F2901DA00207047962903DCC1F16E
:1048A0009601C84001E096398840002AF4D0404281
:1048B000704720F00040C10DC0F3160040F4000026
:1048C0007F2901DA00207047962903DCC1F19601A7
:1048D000C840704796398840704770B5C1F30A5296
:1048E00001F000450024C1F3130140F2FF3341F40D
:1048F00080119A4201DA002070BD40F233439A429F
:10490000A2F2334203DC5242FFF7FDFD00E090408B
:104910002C43F1D0404270BDC1F30A5210B5C1F32F
:10492000130140F2FF3341F480119A4201DA002072
:1049300010BD40F233439A42A2F2334203DC5242AA
:10494000FFF7E1FD10BD904010BD0029A8BF7047E2
:10495000401C490008BF20F00100704710B4B0FAB5
:1049600080FC00FA0CF050EA010404BF10BC704750
:1049700049B1CCF1200421FA04F411FA0CF118BF6A
:10498000012121430843A3EB0C01CB1D4FEA006139
:104990004FEA102042BF002010BC704700EBC3500C
:1049A00010440029A4BF10BC7047401C490008BF38
:1049B00020F0010010BC7047FEE77047FEE7FEE7FD
:1049C0007047052100EBC000B0FBF1F0203083B24E
:1049D00070470222D0F804482047D4F804582046F3
:1049E00028478865B9F848100131A9F84810704780
:1049F000A7F80C0104F132003047A7F8080104F1D0
:104A00002E003047A7F8060104F12C003047A7F824
:104A1000040104F12A003047A7F8020104F128003C
:104A20003047A7F8000104F126003047A7F8FE0040
:104A300004F124003047A7F8FC0004F122003047BD
:104A4000A7F8FA0004F1200030479AF8390001284D
:104A50007047A7F8F40004F11A003047206820F0EE
:104A60000100206010BDA7F8F20004F118003047E3
:104A7000A7F8F00004F116003047A7F8EE0004F1A3
:104A800014003047A7F8EC0004F112003047A7F8F3
:104A9000EA0004F110003047A7F8E80004F10E0026
:104AA0003047A7F8E60004F10C003047A7F8E4000F
:104AB00004F10A003047208940F2E73200BA010CC5
:104AC00091427047A7F8E20004F10800304791F8DE
:104AD0004520013A012A7047A7F8D200A4F1080046
:104AE0003047A7F8D000A4F10A003047A7F8CE005D
:104AF000A4F10C003047A7F8CC00A4F10E00304719
:104B0000A7F8CA00A4F110003047A7F8C800A4F124
:104B100012003047A7F8C600A4F1140030475146F0
:104B2000ADF811500390704706F1200102200A22CF
:104B300086F8294009F070B8A7F8C400A4F116005F
:104B40003047A7F8C200A4F118003047A7F8C0000A
:104B5000A4F11A003047A7F8BE00A4F11C003047AA
:104B6000A7F8BC00A4F11E003047A7F8BA00A4F1D2
:104B700020003047A7F8B800A4F122003047A7F87A
:104B8000B600A4F124003047A7F8B400A4F1260031
:104B90003047A7F8B200A4F128003047BDF8042040
:104BA0000A32ADF804209DF8072001328DF8072065
:104BB0007047A7F8B000A4F12A003047A7F8AE006C
:104BC000A4F12C00304790F8331000297047A7F863
:104BD000AC00A4F12E003047A7F8AA00A4F13000E1
:104BE0003047A7F8A800A4F132003047A7F8A60084
:104BF000A4F134003047A7F8A400A4F136003047F0
:104C0000A7F8A200A4F138003047A7F8A000A4F14B
:104C10003A00304700EBC000B0FBF1F020307047A5
:104C2000018B40F2713301F1320299427047A7F8CB
:104C30009E00A4F13C003047A7F89400A4F13E0088
:104C40003047A7F89200A4F140003047A7F8900041
:104C5000A4F142003047A7F88E00A4F14400304789
:104C6000A7F88C00A4F146003047214608F0D4BFD5
:104C7000A7F88A00A4F148003047A7F88800A4F1FB
:104C80004A0030470922018301EB8101A03991FBE1
:104C9000F2F17047A7F88600A4F14C003047A7F85E
:104CA0008400A4F14E003047A7F88200A4F1500020
:104CB0003047A7F88000A4F152003047A7F87E00E3
:104CC000A4F15400304787F84400A4F1560030475F
:104CD00087F84300A4F15800304787F84100A4F159
:104CE0005A00304787F84000A4F15C00304787F84D
:104CF0003E00A4F15E0030470522818201EBC10134
:104D0000B1FBF2F12031704787F83D00A4F160005B
:104D1000304787F83C00A4F16200304787F83B0039
:104D2000A4F16400304787F83A00A4F166003047E8
:104D300087F83900A4F168003047A7F87600A4F19D
:104D40006A00304787F83800A4F16C00304787F8D4
:104D50002E00A4F1700030470523218902EBC20226
:104D600049BAB2FBF3F2704795F848100029704732
:104D70000222D4F804682046304790F845100139E3
:104D80000229704702224FF6FF732847002190F84E
:104D9000302080F84B10012A70470021C17690F82E
:104DA000331003297047D4F8046820467047D4F8BC
:104DB0000468204645F224010222304790F874101E
:104DC00003297047B0FBF1F02030704728460421DA
:104DD00002F034BC0020C88291F8390001287047E5
:104DE000218940F2E73309BA0A0C9A4270472089B8
:104DF000C82200BA010CC829704753F82220128833
:104E0000A5F87A20704790F839100129704795F875
:104E100046104A1ED2B2042A7047010E87F81601C6
:104E200087F81311010C000A87F8141187F815018F
:104E30007047D4F80458204646F2F301022243F6A4
:104E40007F43284780F875308182827690F8301051
:104E500070470E2200BA000CA1F84400383102203D
:104E600008F0DABE91F84520C876C88281F84B0078
:104E7000704702220123688ED4F8046801306886E6
:104E80002046304701EB81010922A03991FBF2F164
:104E9000704745F25401D0F804582847ADF82680F1
:104EA0008DF82170CDF8224008F08CB99DF80700EC
:104EB0006060BCBD012180F840107047012180F87E
:104EC0003010704705F1200102200A2285F82940A0
:104ED00008F0A2BEBAF81410BAF8163098F83D00DF
:104EE000BAF818208B4270470222D0F8047838476D
:104EF0000222D0F804683047D4F80458204645F21E
:104F0000110102222847D0F8044820479AF84600A9
:104F10000138032870472189092209BA090C704712
:104F200080F87530A0F87610704791B28282C9007F
:104F300011FA82F17047C176C18290F8391070473A
:104F400007F5017520461022294602F055BB0522BF
:104F5000B1FBF2F12031018370479BF84600013824
:104F600004287047026842F001020260F020162215
:104F700087F817017047338B092103EB83007047D3
:104F8000218990F8392049BA012A7047B38A05214E
:104F900003EBC300704796F83900B6F876107047F7
:104FA000002185F840000120704794F84600013840
:104FB00003287047B0FBF1F101EB4101A0EB810048
:104FC00000287047D0E91A12013142F10002C0E90D
:104FD0001A127047B9F822000130A9F8220080B2F5
:104FE000322870470A6842F001020A60B97CB1EBCE
:104FF000106F704704F13C05A7F8140128463047AC
:1050000004F11E05A7F8F600284630472189C82379
:1050100009BA0A0CC82A704791F833000328704770
:10502000B9F824000130A9F8240080B23228704772
:105030000025C7E94E0504F15E00304700220A62F0
:10504000CA614A610A61CBF804007047D4F8046869
:10505000204645F20C01022270479AF92F00DAF837
:1050600004107047D4F8045820467047022180F895
:1050700040107047A7F80A0104F13000304700F1F2
:105080002A01022008F0C8BD016841F00801016052
:10509000016841F004010160016821F400710160C0
:1050A000016821F480610160816821F48071816070
:1050B000816821F400718160016841F02001016084
:1050C000016841F040010160016841F40051016054
:1050D0007047C9B208F01EB891B20283890011FA74
:1050E00082F1A0397047BDF80C209DF80B301A44AE
:1050F00082427047A7F8320104F15C003047A7F8FC
:10510000300104F156003047A7F82E0104F1540095
:105110003047A7F82C0104F152003047A7F82A01C4
:1051200004F150003047A7F8280104F14E00304741
:10513000A7F8260104F14C00304740F00800F06069
:10514000F06840F00400F060F06820F40070F06057
:10515000F06820F48060F060706920F48070706105
:10516000706920F400707061F06840F02000F06019
:10517000F06840F04000F060F06840F40050F060EB
:105180007047A7F8240104F14A003047A7F822012C
:1051900004F148003047A7F8200104F146003047E9
:1051A000A7F81E0104F144003047A7F81C0104F1E0
:1051B00042003047A7F81A0104F140003047A7F831
:1051C000180104F13E003047A7F8120104F138003D
:1051D0003047A7F8100104F136003047A7F80E0158
:1051E00004F13400304700002DE9FC41FFF76EFA6E
:1051F0002D4F78617869F969FFF716FAF8612B4C41
:10520000F8692146FFF7E6FA00B9FC61F869002168
:105210000024FFF7FBFA00B9FC61D7E90086786942
:105220007C6A3969FFF752FAB86130467D69F969DD
:10523000FFF752FA0190009401980099FFF7BCFA29
:1052400008B9009801900198009981F00041FFF79A
:10525000CFFA18B9009880F00040019040462946E6
:10526000FFF73AFA0199FFF7DFF90446B8687D695C
:10527000B969FFF731FA2146FFF7D6F938623D6187
:10528000386AB96AFFF798FA08B9B86A3862386AB2
:10529000B96A81F00041FFF7ABFA08B90020386223
:1052A000386ABDE8FC8100BF0423002000C82F47F6
:1052B000704700002DE9F041451C044602202946B4
:1052C00008F08CFC84F80104C0B2092841F0648223
:1052D00028785A2841F05D82A078A52841F05982AB
:1052E000A0790B38482801F25482DFE810F0490019
:1052F0009C0284026B021203520A520A520A7D0275
:10530000AF01C401440219022A0367015A015F0375
:1053100051025E024103EA02B703DB017D0307018C
:105320009801350126021E01EB03D4037401E2014A
:10533000AF0200023304530158032304F900CD02E5
:10534000ED00B7008B013D027603520A520A4F046A
:10535000520A0001C602520A520A520AFE02520AB8
:105360003A04F702DD00520A520A520A7300DB04C3
:1053700009049D001E039B039000C403AB03FA04C1
:10538000DFF86C6C002086F83F0096F833000028A8
:1053900041F0FF81207A657A0002FFF753FA8046D8
:1053A00028460F46FFF75FFADC4B0022FEF7A3FF0B
:1053B00042463B46FEF7F8FEFFF78FFA642898BF97
:1053C0006420B08200EBC0000521FFF7FBFC3083B6
:1053D00001F0DFB9DFF8180CFFF7F5FB41F0D981D8
:1053E0000021C182617A012901F08780002941F002
:1053F000D081FFF708FD01F0D482002941F0C98176
:10540000818A6422642988BF4A1E00F066BCDFF8E6
:10541000940EFFF7BBFC00F07484002A40F0728405
:10542000FFF74CFD00F06EBC607A012800F071843B
:10543000002841F0AE81DFF86C0E90F8331003299C
:1054400001F08180002941F0A481817E0A2987BF73
:10545000053981760521418301F09BB9DFF8440EBF
:10546000FFF7B1FB41F0958190F83920617A012A6C
:1054700008D1227A41EA0221092201EB8101A039F7
:1054800091FBF2F1027D90F82E30511A194449B285
:105490006429A8BF642111F1640FD8BF6FF06301C4
:1054A00080F82E1001F075B9607A002841F0FB8079
:1054B000DFF8F45D95F83200002800F04A87DFF845
:1054C000EC0DC08E00F04DBFFFF7F5FA38BF020CAF
:1054D000DFF8D00D012A98BF0122428501F059B9A9
:1054E000607ADFF8C01D81F83E0001F052B9607AA1
:1054F000DFF8B01D81F8400001F04BB9DFF8A40DD2
:10550000FFF75CFC01F24581DFE811F004007E0545
:1055100023057405FFF77AFD38BF0B0C052B98BFE8
:105520000523A0F8A03001F034B9DFF8780DFFF7BB
:1055300045FC01F22E81DFE811F004008C051B050B
:105540008205FFF74DFC38BF0B0C012B98BF0123E0
:10555000A0F8A83001F01DB9DFF8480DFFF72EFCC8
:1055600001F21781DFE811F0040090055A057F056C
:10557000FFF706FDA0F8A41004D1FFF783FCA0F804
:10558000A41089B2642901F204806421A0F8A41057
:1055900001F0FFB8607ADFF80C1D81F83A0001F0E5
:1055A000F8B8FFF788FA38BF020CDFF8F80C012AC8
:1055B00098BF0122A0F8882001F0EBB8FFF717FC94
:1055C00038BF020CDFF8DC0C052A98BF0522A0F8D2
:1055D000862001F0DEB8DFF8CC0CFFF7EFFB01F21C
:1055E000D880DFE811F00400800562056C05FFF744
:1055F000F7FB38BF0B0C012B98BF0123A0F8AE308E
:1056000001F0C7B8FFF757FA38BF020CDFF8940C67
:10561000002908BF0122A0F8762001F0BAB8DFF80F
:10562000840CFFF7CBFB01F2B480DFE811F004003B
:105630008B0552058105FFF7D3FB38BF0B0C012BFF
:1056400098BF0123A0F8A23001F0A3B8208900BAC6
:10565000000C022800F06684012800F0598400281C
:1056600041F09780DFF83C0C012180F8381080F879
:10567000441001F08EB8DFF82C0C90F83910002996
:1056800000F05A83012940F06A83FFF744FCA0F838
:10569000961001EB8101A03991FBF2F1A0F87E1088
:1056A00089B25EE3607ADFF8FC1B81F8740001F0D8
:1056B00070B8DFF8F00BFFF781FB01F26A80DFE8DA
:1056C00011F0040066051C054B05FFF759FCA0F816
:1056D000B01004D1FFF7D6FBA0F8B01089B264294E
:1056E00000F277876421A0F8B01001F052B8DFF81B
:1056F000B40BFFF763FB01F24C80DFE811F004000C
:1057000059050F053E05FFF76BFB38BF0B0C012B4E
:1057100098BF0123A0F8B43001F03BB8000004406A
:10572000FFF7C9F938BF020CDFF8780B012A98BFE0
:105730000122A0F8822001F02CB8DFF8680BFFF7F7
:105740003DFB01F22680DFE811F0040051053D0524
:105750004705FFF75BFC38BF0B0C052B98BF0523F3
:10576000A0F8A63001F015B8607ADFF8381B81F890
:10577000410001F00EB8FFF73AFB38BF020CDFF82A
:10578000240B052A98BF0522A0F8802001F001B85B
:10579000FFF72DFB38BF020CDFF8080B052A98BF76
:1057A0000522A0F88C2000F0F4BFFFF784F938BF81
:1057B000020CDFF8F00A012A98BF0122A0F88E201F
:1057C00000F0E7BFDFF8DC0AFFF7E7FA00F0BE827F
:1057D000002940F0DE87617A052998BF0521C82994
:1057E00028BFC82100F0CFBF607ADFF8B81A81F86F
:1057F000450000F0CEBFDFF8AC0A0021C182FFF700
:10580000E2F940F0C687218909BA0A0CFFF7FBFAD2
:1058100040F0CB8502EB82010923A03991FBF3F321
:10582000114600F0C9BDDFF87C0A012190F8332051
:1058300080F83F10032A00F0B182002A40F0A987C7
:10584000617A052998BF052100F09DBFDFF8540A51
:10585000FFF7B4FA00F29D87DFE811F00400E604D8
:10586000D204DC04FFF7D2FB38BF0B0C052B98BF2A
:105870000523A0F8B23000F08CBF607ADFF8241A5C
:1058800081F8440000F085BF208900BA010CDFF8E0
:10589000140A90F83920C184002A00F08582012A78
:1058A00040F07787D42928BFD421212998BF21210E
:1058B00001EB81010922A03989B2B1FBF2F100F0BC
:1058C0002CBEFFF794FA38BF020CDFF8D809052A7E
:1058D00098BF0522A0F8922000F05BBF607ADFF845
:1058E000C41981F8420000F054BF617ADFF8B409AE
:1058F000002980F8471000F06082012940F04987B4
:10590000012180F84610B0F8A210A0F87A1000F03B
:1059100040BFDFF89009FFF739FA00F05382002A00
:1059200040F05182FFF7CAFA4DE2DFF87809FFF73D
:105930002DFA00F04F82002A40F04D82FFF7BEFAA8
:1059400049E2DFF8600990F83910002900F04A8236
:10595000012940F06582FFF7DEFAA0F8981001EB0C
:105960008101A03991FBF2F1A0F8841089B259E2CB
:10597000DFF8300990F83910002900F03D82012944
:1059800040F06D82FFF7C7FAA0F89C1001EB81018F
:10599000A03991FBF2F1A0F8901089B261E2607A2F
:1059A000DFF8001981F83B0000F0F3BEDFF8F408DF
:1059B00090F83910002900F02982012940F0768200
:1059C000FFF7A9FAA0F89A1001EB8101A03991FB29
:1059D000F2F1A0F88A1089B26AE2607ADFF8C4189E
:1059E00081F8430000F0D5BEDFF8B808FFF7E6F90C
:1059F00000F2CF86DFE811F00400440422043304EF
:105A0000FFF7BEFAA0F89E1004D1FFF73BFAA0F80A
:105A10009E1089B2642900F2FC856421A0F89E10D2
:105A200000F0B7BE607A002840F06086DFF8785852
:105A300095F83400002800F0D984DFF87008408F12
:105A400000F0DCBCDFF85C08FFF7A0F900F026826C
:105A5000002A40F02482FFF731FA20E2FFF72BF80A
:105A600038BF020CDFF83C08012A98BF0122A0F8D9
:105A7000942000F08EBE607A002840F05886DFF84F
:105A8000285895F83600002800F0DC84DFF81C0860
:105A9000C08F00F0DFBCDFF80C08FFF78FF900F2D1
:105AA0007886DFE811F004003B0405042004FFF7CA
:105AB000ADFA38BF0B0C052B98BF0523A0F8AC300E
:105AC00000F067BEDFF8DC07FFF778F900F26186C7
:105AD000DFE811F004002E04F8031304FFF750FA76
:105AE000A0F8AA1004D1FFF7CDF9A0F8AA1089B246
:105AF000642900F2AE856421A0F8AA1000F049BE26
:105B0000607A012800F0F181002840F04286DFF839
:105B1000940790F83310032900F01F85002940F006
:105B200038860021C176817E05298CBF0139052187
:105B300000F029BEDFF87027607ADFF8681792F866
:105B4000393081F83C00834200F02386002382F83C
:105B5000390015E0607ADFF84C1781F8390000F061
:105B600018BEDFF84427607ADFF8381792F83A3029
:105B700081F83D00834200F00C86002382F83A0051
:105B800081F8333081F84B3000F003BE617ADFF8E2
:105B9000780E002918BF012180F8491000F0F9851E
:105BA0003C211E234FF4BE720A2500F1BC0EEF4EBD
:105BB000ED4F4FF0000C81764FF43371C383A0F8A2
:105BC00076304FF480338282A0F89020EE4A4585EB
:105BD000322580F839C080F82EC080F844C080F8A3
:105BE00075C001834FF0013103644FF4A073C58485
:105BF0006425C0F83A10E549A0F88430E44BC0F8B9
:105C00009220E44A0577012580F83E50E24DC0F825
:105C1000D010E249C0F88030E14BC0F89E20E14A44
:105C2000C0F896504FF49675C0F8DA10DE49C0F807
:105C30009A304FF4AF73C0F8A220DC4AA0F87E502F
:105C4000DB4DA0F88A30DB4BC0F8DE10DA49C0F833
:105C5000A620C0F8AE20D94AC0F886304FF03213E3
:105C6000C0F8E210D649C0F88C30D64BC0F8B2204C
:105C7000D54AC0F8E610D549C0F8AA30D44BAEE8F2
:105C8000EC00D44AD44DD54ED54F00F1F80ED54B8B
:105C9000C0F8EA10D449C0F8EE10D449AEE8EE00DE
:105CA00000F077BDDFF8600DFEF78DFF40F07185E5
:105CB0000021C182617A012900F03184002940F07D
:105CC0006885FFF7A0F800F07D86002940F0618527
:105CD000818A4A1F6A2938BF6422FFF726F900F03B
:105CE0002FBC607A002840F04385DFF8205D95F8EE
:105CF0003800002800F0D283DFF8140DB0F842001D
:105D0000D6E30184DFF8040D012180F8351000F09E
:105D100040BDDFF8F40C90F83310032900F018842C
:105D2000002940F036850021C176817EC32980F0AC
:105D3000EC80053100F027BDB0F89620FFF70CF895
:105D4000A0F87E102032A0F896200AE0617A01299E
:105D500098BF0121C82928BFC82100F019BDB0F89B
:105D60007E10652901D2642104E0B1F5FA7F03D3E6
:105D70004FF4FA71A0F87E10B0F89610D42904D828
:105D8000D421A0F8961000F004BDB1F5697F24BFBE
:105D90004FF46971A0F8961000F0FBBC627A012AFA
:105DA00088BF114600F0F4BC002900F0B5836429D7
:105DB00024BF6421C18400F0ECBC002180F84610AF
:105DC00000F0E7BC0184DFF8440C012180F83110B9
:105DD00000F0DFBC0184DFF8340C012180F83310BF
:105DE00000F0D7BCB0F89820FEF7B6FFA0F88410FA
:105DF0002032A0F8982015E0B0F89C20FEF7ACFF08
:105E0000A0F890102032A0F89C202AE0B0F89A2048
:105E1000FEF7A2FFA0F88A102032A0F89A2047E0EF
:105E2000B0F88410652901D2642104E0B1F5FA7F4D
:105E300003D34FF4FA71A0F88410B0F89810D42965
:105E400004D8D421A0F8981000F0A3BCB1F5697F64
:105E500024BF4FF46971A0F8981000F09ABCB0F814
:105E60009010652901D2642104E0B1F5FA7F03D3D3
:105E70004FF4FA71A0F89010B0F89C10D42904D80F
:105E8000D421A0F89C1000F084BCB1F5697F24BF38
:105E90004FF46971A0F89C1000F07BBC0184DFF81E
:105EA000A00F012180F8371000F073BCB0F88A1001
:105EB000652901D2642104E0B1F5FA7F03D34FF4E0
:105EC000FA71A0F88A10B0F89A10D42904D8D42115
:105ED000A0F89A1000F05DBCB1F5697F24BF4FF4C3
:105EE0006971A0F89A1000F054BCDFF8500F90F8D8
:105EF0003310032900F03783002940F04A84002141
:105F0000C176817EC829C0F03D84C82100F03BBC29
:105F1000DFF8280F002180F84410012180F83810A4
:105F200000F037BCDFF8145F00201A260A2285F83B
:105F30004400022085F83800DFF8F80E80F8296068
:105F400000F12001022007F067FE85F8456000F0AF
:105F500020BCFFF75BF838BF0B0C052B98BF05235F
:105F6000A0F8DC3000F015BC28006400F000500000
:105F7000FEF736FF38BF0B0C012B98BF0123A0F8AA
:105F8000E43000F006BC00BF50003C006400960006
:105F900028001E00960028003C02600282002300B8
:105FA0009602CC025A00B4005000A00032006400F7
:105FB00028006E002D0028002D005A008200780075
:105FC000DC005A00F50064008C001E0046006400EE
:105FD0007800AA006E00BE00FA009600500064002F
:105FE0009600B4004600780078006400A0003C00F1
:105FF000002A0020FFF70AF838BF0B0C052B98BFCA
:106000000523A0F8FA30C4E3FFF700F838BF0B0C03
:10601000052B98BF0523A0F8BE30BAE3FEF7B0FF0A
:10602000A0F8E01004D1FEF72DFFA0F8E01089B22F
:10603000642900F29E826421A0F8E010A9E3FEF733
:10604000CFFE38BF0B0C012B98BF0123A0F8023103
:106050009FE3FEF7C5FE38BF0B0C012B98BF012351
:10606000A0F8C63095E3FEF78BFFA0F8FE1004D130
:10607000FEF708FFA0F8FE1089B2642900F28182C1
:106080006421A0F8FE1084E3FEF77AFFA0F8C210A6
:1060900004D1FEF7F7FEA0F8C21089B2642900F21D
:1060A00080826421A0F8C21073E3FEF799FE38BF26
:1060B0000B0C012B98BF0123A0F8EA3069E3FEF72F
:1060C0008FFE38BF0B0C012B98BF0123A0F80831BD
:1060D0005FE3FEF785FE38BF0B0C012B98BF012351
:1060E000A0F8DE3055E3FEF77BFE38BF0B0C012B2A
:1060F00098BF0123A0F8CC304BE3FEF741FFA0F896
:10610000EC1004D1FEF7BEFEA0F8EC1089B26429B1
:1061100000F24F826421A0F8EC103AE3FEF760FE33
:1061200038BF0B0C012B98BF0123A0F8F03030E3EF
:10613000FEF756FE38BF0B0C012B98BF0123A0F8C9
:10614000FC3026E3FEF74CFE38BF0B0C012B98BF4A
:106150000123A0F8C0301CE3FEF712FFA0F80A11DB
:1061600004D1FEF78FFEA0F80A1189B2642900F26B
:1061700028826421A0F80A110BE3FEF731FE38BF34
:106180000B0C012B98BF0123A0F80E3101E3FEF7A1
:10619000F7FEA0F8CE1004D1FEF774FEA0F8CE10E2
:1061A00089B2642900F21D826421A0F8CE10F0E2C9
:1061B000FEF716FE38BF0B0C012B98BF0123A0F889
:1061C000D230E6E2FEF722FF38BF0B0C052B98BF5A
:1061D0000523A0F8E230DCE2FEF718FF38BF0B0C15
:1061E000052B98BF0523A0F80031D2E2FEF70EFF81
:1061F00038BF0B0C052B98BF0523A0F8C430C8E2AC
:10620000FEF704FF38BF0B0C052B98BF0523A0F841
:10621000EE30BEE2FEF7FAFE38BF0B0C052B98BF3E
:106220000523A0F80C31B4E2FEF7F0FE38BF0B0CEA
:10623000052B98BF0523A0F8D030AAE2FEF7A0FEF8
:10624000A0F8DA1004D1FEF71DFEA0F8DA1089B22A
:10625000642900F2CE816421A0F8DA1099E2FEF7F9
:106260008FFEA0F8F81004D1FEF70CFEA0F8F8108D
:1062700089B2642900F2C5816421A0F8F81088E28F
:10628000FEF77EFEA0F8BC1004D1FEF7FBFDA0F8DF
:10629000BC1089B2642900F2C4816421A0F8BC104A
:1062A00077E200BF002A002090000020900100202B
:1062B000FEF7ACFE38BF0B0C052B98BF0523A0F8EA
:1062C000E83066E2FEF75CFEA0F8E61004D1FEF7C7
:1062D000D9FDA0F8E61089B2642900F2AA816421F0
:1062E000A0F8E61055E2FEF791FE38BF0B0C052B27
:1062F00098BF0523A0F806314BE2FEF741FEA0F857
:10630000041104D1FEF7BEFDA0F8041189B264297E
:1063100000F297816421A0F804113AE2FEF776FEBC
:1063200038BF0B0C052B98BF0523A0F8CA3030E20C
:10633000FEF726FEA0F8C81004D1FEF7A3FDA0F8D2
:10634000C81089B2642900F28C816421A0F8C810B9
:106350001FE2DFF8901F002085F83100C88E013061
:10636000C88680B20A28C0F014820220DFF83C6F91
:10637000FEF716FE85F83200DFF8680FB37EC1869F
:10638000FEF709FEA6F880300128A6F8821000F07A
:106390007081002840F07E81FEF7F8FDA6F87E307F
:1063A000FEF710FDA6F896006CE102EBC201052392
:1063B000B1FBF3F1134620319AB201838382652A3F
:1063C00001D2642204E0B2F5FA7F02D34FF4FA72EC
:1063D000828289B2D42902D8D4210183D9E1B1F5CE
:1063E000697F24BF4FF469710183D2E1DFF8F41EA5
:1063F000002085F83300488F0130488780B20A2892
:10640000C0F0C7810220DFF8A46EFEF7C9FD85F851
:106410003400DFF8D00EB37E4187FEF7BCFDA6F84E
:1064200086300128A6F8881000F04881002840F046
:106430005581FEF7ABFDA6F88430FEF7C3FCA6F845
:10644000980044E1DFF89C1E002085F83500C88FD5
:106450000130C88780B20A28C0F09B810220DFF893
:106460004C6EFEF79DFD85F83600DFF8780EB37EA2
:10647000C187FEF790FDA6F88C300128A6F88E1093
:1064800000F03D81002840F04A81FEF77FFDA6F82C
:106490008A30FEF797FCA6F89A0039E1DFF8441E2F
:1064A000002085F83700B1F842000130A1F8420021
:1064B00080B20A28C0F06D810220DFF8F06DFEF78F
:1064C0006FFD85F83800DFF81C0EB37EA0F842108F
:1064D000FEF761FDA6F892300128A6F8941000F0AE
:1064E0002F81002840F03C81FEF750FDA6F8903047
:1064F000FEF768FCA6F89C002BE1FEF784FC00F098
:106500005682002940F04581818A4FF4FA72B1F534
:10651000FA7F38BF4A1C10E00021C18439E1FEF740
:1065200072FC00F05F82002940F03381818A4A1DAD
:10653000B1F5F77F88BF4FF4FA7202EBC201828295
:10654000FEF705FD25E1017F0A290AD905391FE17A
:10655000017FC8290BD205311AE1017F052900F21C
:106560001481052114E1017FC829C0F01081C821E0
:106570000EE1B1F5FA7F24BF4FF4FA71A0F8E010F4
:1065800007E1B1F5FA7F24BF4FF4FA71A0F8FE10CD
:10659000FFE0B1F5FA7F24BF4FF4FA71A0F8A41020
:1065A000F7E0B1F5FA7F24BF4FF4FA71A0F8C210FA
:1065B000EFE0B1F5FA7F24BF4FF4FA71A0F8EC10C8
:1065C000E7E0B1F5FA7F24BF4FF4FA71A0F80A11A1
:1065D000DFE0B1F5FA7F24BF4FF4FA71A0F8B010F4
:1065E000D7E0B1F5FA7F24BF4FF4FA71A0F8CE10CE
:1065F000CFE0B1F5FA7F24BF4FF4FA71A0F8DA10BA
:10660000C7E0B1F5FA7F24BF4FF4FA71A0F8F81093
:10661000BFE0B1F5FA7F24BF4FF4FA71A0F89E10E5
:10662000B7E0B1F5FA7F24BF4FF4FA71A0F8BC10BF
:10663000AFE0B1F5FA7F24BF4FF4FA71A0F8E6108D
:10664000A7E0B1F5FA7F24BF4FF4FA71A0F8041166
:106650009FE0B1F5FA7F24BF4FF4FA71A0F8AA10B9
:1066600097E0B1F5FA7F24BF4FF4FA71A0F8C81093
:106670008FE0FEF780FCA6F89630A03890FBF1F092
:10668000A6F87E00DFF88C0345F21501FEF72CFC1E
:10669000B6F88030DFF87C0345F21601FEF728FCDF
:1066A0000120A876607A012873D1DFF8440F002119
:1066B00080F83210DFF83C0FC1866AE0FEF75BFC21
:1066C000A6F89830A03890FBF1F0A6F88400D148E5
:1066D00045F21801FEF708FCB6F88630CD4845F2C1
:1066E0001901FEF705FC0120A876607A012850D137
:1066F000C648002180F83410C548418749E0FEF7BC
:106700003AFCA6F89A30A03890FBF1F0A6F88A007F
:10671000C04845F21B01FEF7E7FBB6F88C30BD48D8
:1067200045F21C01FEF7E4FB0120A876607A0128FF
:106730002FD1B648002180F83610B548C18728E02F
:10674000FEF719FCA6F89C30A03890FBF1F0A6F8F3
:106750009000B04845F21E01FEF7C6FBB6F8923035
:10676000AC4845F21F01FEF7C3FB0120A876607A12
:1067700001280ED1A548002180F83810A448A0F8BF
:10678000421006E00131817603E0013900E0013179
:106790000177002084F801049C4C94F83100012812
:1067A00039D194F8320018B199480021818632E03D
:1067B0009748818E0131818689B2C9292BD3002166
:1067C0008186914884F8311090F833201ABBFEF787
:1067D000B2FB012280F8752049B101290ED1B0F831
:1067E0009610FEF74FFAA0F87E10818206E0B0F80E
:1067F0007E10FEF781FAA0F89610018390F88010C1
:10680000022201238176B0F88210A0F87610C183AD
:106810008048FEF73EFB94F83300012839D194F804
:10682000340018B17A480021018732E07848018F9E
:106830000131018789B2C9292BD300210187724810
:1068400084F8331090F833201ABBFEF774FB022251
:1068500080F8752049B101290ED1B0F89810FEF7E3
:1068600011FAA0F88410818206E0B0F88410FEF7D7
:1068700043FAA0F89810018390F8861002220223B0
:106880008176B0F88810A0F87610C1836148FEF7D1
:1068900000FB94F83500012839D194F8360018B17E
:1068A0005B480021818732E05948818F013181871F
:1068B00089B2C9292BD300218187534884F8351028
:1068C00090F833201ABBFEF736FB032280F87520C0
:1068D00049B101290ED1B0F89A10FEF7D3F9A0F80A
:1068E0008A10818206E0B0F88A10FEF705FAA0F857
:1068F0009A10018390F88C10022203238176B0F85D
:106900008E10A0F87610C1834248FEF7C2FA94F8C0
:10691000370001281AD194F8380028B13C480021EA
:10692000A0F84010BDE8F0813948B0F840100131BE
:10693000A0F8401089B2C92908D30021A0F840105E
:10694000314884F8371090F833200AB1BDE8F0815F
:10695000FEF7F1FA042280F8752049B101290ED121
:10696000B0F89C10FEF78EF9A0F89010818206E036
:10697000B0F89010FEF7C0F9A0F89C10018390F8D1
:106980009210022204238176B0F89410A0F87610B9
:10699000C183204845F25401D0F804C8BDE8F04155
:1069A0006047018BD422D42988BF4A1E10E0018B96
:1069B0004FF46972B1F5697F38BF4A1C028302EB5C
:1069C00082010AE0018BA1F12602FB2938BFD42203
:1069D00091B20283890011FA82F1A039092291FB58
:1069E000F2F10FE0018B40F27D3301F12602994272
:1069F00088BF4FF4697202EB82010283A039092239
:106A0000B1FBF2F18182C4E6002A00209000002050
:106A100090010020482B00207047000070B5DFF87F
:106A20001444E0880138E08000040AD14FF47A7001
:106A3000DFF80824E080DFF80004016D1161002117
:106A40000165DFF8FC63DFF8F453B07890BB287879
:106A500001282FD10A2004F015FA80086860102060
:106A600004F010FAA6F84400B6F84400FDF7FBFE67
:106A7000C54AC64BFDF73FFCC54B0022FDF73BFC6A
:106A8000C44AC54BFDF790FBC44AC54BFDF7A5FCB6
:106A9000C44B0022FDF788FBFDF71FFFA5F87C0023
:106AA000013880B2312805D8686880087C289CBFEE
:106AB0000120B07095F83300022815D1A089013863
:106AC000A081000415D14FF47A70A081A88D0138FF
:106AD000A88500B2B0F1FF3F0BDC022086F8400031
:106AE000002085F8330004E04FF47A70A081688DAF
:106AF000A88595F84700B8B1012840F0F38095F9D2
:106B00002F0069687279084495F92E10401A95F89B
:106B100074108AB1032900F2C680DFE801F0025543
:106B20002A4095F8461016E04FF47A702081002034
:106B30007071A5F87A00D5E001220329727100F284
:106B4000B280DFE801F00244192FFEF760F902D2AB
:106B5000C8A3FEF752F9032977D002295BD0012997
:106B600040F08780FEF700F940F09D80B5F89E1058
:106B70008EE095F8461005E0FEF749F902D2B5A37C
:106B8000FEF73BF903293AD0022932D0012948D136
:106B9000FEF7EAF840F08780B5F8DA1078E095F86B
:106BA000461005E0FEF733F902D2A6A3FEF725F959
:106BB000032944D0022928D001294CD1FEF7D4F86A
:106BC00071D1B5F8F81063E095F8461005E0FEF7CE
:106BD0001EF902D2A3A3FEF710F9032943D002291C
:106BE00027D001294DD1FEF7BFF85CD1B5F8BC1014
:106BF0004EE0FEF7B9F856D1B5F8E01048E0FEF7E0
:106C0000B3F850D1B5F8E61042E0FEF7ADF84AD13E
:106C1000B5F8FE103CE0FEF7A7F844D1B5F8A41093
:106C200036E004293FD1FEF79FF83CD1B5F8EC10CF
:106C30002EE0FEF799F836D1B5F8C21028E0FEF73D
:106C400093F830D1B5F8041122E0FEF78DF82AD17F
:106C5000B5F8AA101CE0042925D1FEF785F822D149
:106C6000B5F80A1114E0FEF77FF81CD1B5F8C8108A
:106C70000EE0042917D1FEF777F814D1B5F8B0105B
:106C800006E004290FD1FEF76FF80CD1B5F8CE104D
:106C900080B2CA1E824222DA033181421FD9208982
:106CA0000138208100E0208900041BD14FF47A7064
:106CB0002081B5F87A000138A5F87A0000B2B0F169
:106CC000FF3F0FDC95F8461000207071013185F808
:106CD0004610C9B2052905D3A5F8460029E74FF4A7
:106CE0007A70208195F84B0028B395F8310001287F
:106CF00005D1022086F84000002085F84B0060890D
:106D00000138608100041DD1B5F878000138A5F87C
:106D1000780000B2B0F1FF3F09DC002085F84B009D
:106D2000022086F84000B5F87600A5F878004FF408
:106D30007A70608106E04FF47A706081B5F8760071
:106D4000A5F878004F4CA068804794F82D000128E2
:106D500009D194F82C0018B1013884F82C0002E015
:106D6000022084F82D0094F83C0010B1013884F81A
:106D70003C0094F85100012819D194F8500098B1C2
:106D8000013884F8500012E052B81E85EB510A40D9
:106D90000000303F295C8FC2F528F4BF33E197FA39
:106DA0007953713F00002E40022084F8510094F87E
:106DB000600010B1013884F860003348417B01293C
:106DC00006D1017B11B10139017301E00221417348
:106DD000017F09B10139017790F83110012909D1FA
:106DE00090F8301019B1013980F8301002E002211A
:106DF00080F8311090F8401011B1013980F840103E
:106E000090F85510012909D190F8541019B10139A1
:106E100080F8541002E0022180F8551090F86410B8
:106E200011B1013980F864100348416D01314165A9
:106E300070BD00BF0000002090010020002A00204B
:106E400090000020FC2A0020022B0020082B0020AC
:106E50000E2B0020DE2A0020E42A0020EA2A00204F
:106E6000F02A0020C02A0020C62A0020CC2A0020B8
:106E7000D22A0020A22A0020A82A0020AE2A002020
:106E8000B42A002008020020700200201848C169BE
:106E900041F08051C16117490A7842F004020A703A
:106EA000C16921F08051C161016841F001010160B7
:106EB00001688907FCD5416821F003014160416800
:106EC00011F00C0FFBD101680B4A11400160002149
:106ED000416041F61071C1624FF4801101634FF4BB
:106EE0001F01816005484FF000610160704700BFDD
:106EF0000010024050700040FFFFF2FE08ED00E07D
:106F00002DE9F84FC64F3868C00700F04081DFF820
:106F100064B99BF80000012840F02281DFF8D09688
:106F2000C04E99F804003546012808D1DFF88003E7
:106F3000BD4D846829462046FDF768FC18B9DFF886
:106F400070032C468560B9F8485042F6E0608542EF
:106F500009D3DBE950010025A9F84850013041F17F
:106F60000001CBE950019BF83800022812D001281B
:106F700040F0F3809BF84400002850D0012840F0F6
:106F800073809BF83300022860D000286CD1BBF8D6
:106F9000140060E0DFF81853C348A860BBF8140081
:106FA000A9F84A009BF84800002840F0D6809BF8DA
:106FB000470000283BD0012840F0CF809BF84600D6
:106FC00099F80310814218BF89F803009BF84A0022
:106FD000002800F0C28006F0C3F89BF87410CBF8CC
:106FE0000400032900F216819BF92F2010449BF91D
:106FF0002E20A0EB0208DFE811F00400FF00E900FA
:10700000F400FDF7AAFF00F20581DFE810F00500AB
:107010002D011E0127010001BBF89E4026E19BF8CF
:107020003300022819D0F8B9BBF814001AE006F0B2
:1070300097F800212962E96169612961CBF80400B0
:107040009C48A860A7488165E96086E0BBF82600F7
:10705000BBF814100844323004E0BBF81400BBF84D
:1070600026100844A9F84A009BF8310078B19BF833
:10707000421061B1012808BF012962D106F070F801
:107080008B49FDF7DBFF97488265CA6059E09BF8A2
:107090004A00002855D006F063F89BF92F10CBF872
:1070A0000400BBF8146008449BF92E10A0EB010A01
:1070B000B9F84A00B9F846100FFA80F8B14208D082
:1070C00000F058FB8BF82F0079480021C161A9F826
:1070D00046600FFA8AFA08F16400504506DA681C27
:1070E000A9F848007F48002181652AE0A8F16400E2
:1070F000504506DD7B4871498165681CA9F8480048
:107100001FE008F10500504503DBA8F105005045DC
:107110003FDD0020A9F84C0089F804004046FDF747
:1071200083FB04465046FDF77FFB01462046FEF7F1
:107130005BF86C49FDF755FC0021FDF767FB002863
:10714000D0D09BF83300032807D106F009F858493E
:10715000FDF774FF63488265CA609BF8320030B95E
:1071600060480021846D2046FDF750FB10B95D4852
:10717000002484652046FDF79CFB78624FF0804038
:10718000016841F0010101606FF001003860BDE865
:10719000F88FB9F84C000130A9F84C0080B23C28B7
:1071A000BCD30120444989F804000020A9F84C0010
:1071B0002046FDF739FA3F4D04462946FDF726FBE8
:1071C00000283B4814BF84608560A7E7FDF7C5FE33
:1071D00020D8DFE800F0032E34221C00BBF8DA4090
:1071E00044E0FDF7BAFE15D8DFE800F0032C3520A7
:1071F0001100BBF8F84039E0FDF7AFFE0AD8DFE830
:1072000000F00327301B0600BBF8BC402EE0002036
:10721000ABF84600F748806D3CE0BBF8EC4025E059
:107220001000004000204B4700401C46BBF80A41BC
:107230001CE0BBF8E04019E0BBF8CE4016E0BBF81C
:10724000E64013E0BBF8FE4010E0BBF8AA400DE0BA
:10725000BBF8C2400AE0BBF8044107E0BBF8B0400D
:1072600004E0BBF8C84001E0BBF8A440204600F0B1
:1072700081FA8BF82F002046FDF7DFFA04460FFA5B
:1072800088F0FDF7D1FA01462046FDF7ADFFD94958
:10729000FDF7A7FB00210024FDF7B8FA08B9D5488F
:1072A0008465AE6059E700BF00C0DA46002A0020BE
:1072B0000423002000401C460000FAC4007F3B4726
:1072C00007484168890709D50168890706D5C94972
:1072D0000A6D01320A656FF002014160704700BF1C
:1072E0000C04004090010020BCB5154C2068E068FB
:1072F00080060DD5206880060AD520686068616820
:107300006B4D05F12400FDF7E4FE4FF482702886F2
:10731000E068400610D5206840060DD5644D6FF03A
:1073200040000DF10701206005F1340005F0DFFE9B
:1073300018B1002085F84100BCBDFDF7B7BD00BF06
:10734000004C0040BCB5154C2068E06880060ED5A6
:10735000206880060BD5206860686168544D05F18F
:107360004800FDF7B6FE4FF48270A5F85400E068BF
:10737000400610D5206840060DD54D4D6FF04000F9
:107380000DF10701206005F1580005F0B0FE18B1BD
:10739000002085F86500BCBDFDF788BD00500040A9
:1073A000BCB5144C2068E06880060BD520688006C8
:1073B00008D56168264D05F12000FDF78AFE4FF4DF
:1073C0008270A885E068400610D5206840060DD57B
:1073D0001F4D6FF040000DF10701206005F13000F6
:1073E00005F085FE18B1002085F83D00BCBDFDF715
:1073F0005DBD00BF00380140BCB5144C2068E0689A
:1074000080060CD52068800609D56168104D05F10D
:107410004400FDF75EFE4FF48270A5F85000E0686E
:10742000400610D5206840060DD5094D6FF040008C
:107430000DF10701206005F1540005F058FE18B168
:10744000002085F86100BCBDFDF730BD0044004060
:1074500008020020BCB5154D2868E86880060DD5E7
:10746000286880060AD528686868114C6868C1B227
:10747000204605F04FFE4FF48270A081E868400678
:107480000FD5286840060CD5094C6FF040000DF16F
:107490000701286004F1100005F029FE10B100205A
:1074A0006077BCBD9DF807006860BCBD0048004027
:1074B00070020020FEE710B580F807148224090A44
:1074C00080F809341B0A80F805444AF25A5480F8BF
:1074D0000614D11C80F80834082280F80414A0F89F
:1074E000024400F202410220BDE8104006F094BBC5
:1074F0000648BFF34F8F064A016801F4E06111436B
:107500000160BFF34F8F00BFFDE700BF0CED00E04F
:107510000400FA0500EB400107221E3902FA01F1CE
:10752000044A136819431160916A21F01F0108434E
:10753000906270470C24014002484FF48051016072
:10754000704700BF140C014002484FF480510160A5
:10755000704700BF100C0140B0B5C64C94F83A001B
:1075600001280FD1224DA879DFE800F0032D1A2160
:10757000130095F84000022829D0012814BF0020EC
:10758000012025E0FFF7D8FF1948002180F84010BE
:107590001FE0FFF7D1FF0020A87185F8400018E038
:1075A000FFF7D2FF1348FDF70DFD143903E0114832
:1075B000FDF708FD023972F100010AD30021C0E98C
:1075C0001A11042004E0FFF7BFFF032000E00220AF
:1075D000A87194F8320050B105480178013101706A
:1075E000C9B2502903D3FDF741FD00210170B0BDA0
:1075F0009000002090010020F0B1E9B1F0B59308AF
:1076000001300D461C462CB150F8046B013C36BAD3
:1076100040C5F8E712F003020CD00024182500261C
:10762000A24205D0075D0134AF40083D3E43F7E775
:1076300041F82360BDE8F04070470000034A19B1EB
:1076400008C801391360FAE710687047003002403B
:10765000F0B532490A68C2F38103314A022B08D0DF
:10766000ABBB0B6D9B0532D5CB6A9B0148BF2E4A45
:107670002DE00B688C6A1B0C002C13D40C680D6871
:10768000C5F34175C4F383440DB90F2C43D12D01CB
:1076900001352C44DB0702D00B689B0300D5214A3F
:1076A000624314E08C6A8D6A8E6ADB071D4BC4F35B
:1076B0000314C5F3082506F0070603D00F68BF03BF
:1076C00058BF134604FA06F26B43B3FBF2F20260B2
:1076D00016A40B68C3F30313E35C184CDA40426052
:1076E0000B68C3F30223E35C22FA03F3C3600B6865
:1076F000C3F3C223E35C0424DA4082600B680968A8
:1077000004EA9363C1F3813119440DA3595CB2FBC0
:10771000F1F10161F0BD0225BBE700BF041002409A
:1077200000127A0000093D00006CDC02000000003D
:10773000000000000102030406070809F0DD00084C
:1077400002040608020C08107CB5044600204FF61F
:10775000FF75C6B26C2E09D8301903F07FFBADF867
:107760000600B01CBDF80610A942F2D1BDF8060013
:107770007CBD000082B000213E4A8DF80710ADF8B4
:1077800004108DF80310927E1F2A1BD38DF803106E
:1077900081084A2935D86421ADF8041000218DF8FC
:1077A000071036499DF80720132A5AD84DF808EDDE
:1077B000FDF799FC5DF808EB53D27346FDF7EEF93F
:1077C0009E46EFE7013A132A4ED88DF80310810840
:1077D0004A292ED86421ADF8041000218DF8071035
:1077E00025499DF80720132A41D84DF808EDFDF7EB
:1077F0007AFC5DF808EB34D27346FDF7CFF99E466C
:10780000EFE74FF49671ADF8041014218DF80710CE
:107810001A499DF80720272A23D84DF808EDFDF7CF
:1078200062FC5DF808EB1CD27346FDF7B7F99E4683
:10783000EFE74FF49671ADF8041014218DF807109E
:107840000D499DF80720272A0BD84DF808EDFDF7C4
:107850004AFC5DF808EB04D27346FDF79FF99E469B
:10786000EFE79DF80700095C48B202B070470021BD
:10787000FAE700BF002A002021DE0008F8DD00083A
:107880002DE9F84FDFF8E0AC9AF80000012818BFA6
:10789000BDE8F88FDFF8D48C98F8010038BB0120E0
:1078A000052188F80100BAF81400FDF7B3F9AAF829
:1078B0001800BAF82600FDF7ADF9AAF82800BAF8C2
:1078C0007E00FDF7A7F9AAF89600BAF88400FDF744
:1078D000A1F9AAF89800BAF88A00FDF79BF9AAF86E
:1078E0009A00BAF89000FDF795F9AAF89C009AF86A
:1078F0003870012F04D0022F1DD1DAF8040013E0F4
:107900009AF8440058B1012815D19AF92E00DAF8F6
:107910000410081A00EBC000A0F5E17006E09AF927
:107920002E00DAF80410081A00EBC0000521FDF75C
:1079300049FACAF80C00B8F8420005210130A8F84D
:10794000420080B2B0FBF1F101EB8101411A70D02D
:107950000321B0FBF1F101EB4101401A41F0B78383
:1079600098F81C0098F8204000F1010B204688F898
:107970001CB0FCF762FFDFF88C9D0546CB49D9F8B7
:107980005800FCF7DBFE29460646FCF715FF30B928
:107990000134E0B288F82040FCF74FFF054630463E
:1079A0002946FCF725FF10B9013C88F820409AF8D9
:1079B0004500012840F06B8098F81D0098B9DFF869
:1079C000480D08214FF0000BA8F83DB0A9F81CB0F5
:1079D000C9F818B08AF81BB0AAF816B041704FF475
:1079E0008070A8F81C0098F81B00082800F2DA81C3
:1079F000DFE810F009005E01140142010101A90154
:107A0000B6015101C801012F40F0C5879AF8330033
:107A100028B1032800F09484022840F0C08798F829
:107A20003E009AF81A30002800F0AD84012000F0E2
:107A300061BFDFF8D45C9AF84510A878884204D179
:107A400040F00202072A40F0DE8598F826200F2A2F
:107A500000F2CE800120DFE812F0D20510005600BF
:107A60006E002C008E009C007800B5004000AB003A
:107A70002200360095001F006000FCF7E6FF00F0D2
:107A8000F281002840F0F981BAF87E30EFE1002160
:107A900088F81D1000F0A2BF0F2000F0B0BDFCF769
:107AA000D4FF00F08281002840F0A685BAF87E302D
:107AB0007FE1FCF7CAFF00F08181002840F0888157
:107AC000BAF890307EE1FCF7C0FF00F09181002809
:107AD00040F09285BAF890308EE19AF8740003284D
:107AE00000F28A85DFE810F00400240210021A0276
:107AF000FCF7ABFF00F09984002840F0A084BAF8AE
:107B0000B03000F096BCFCF7A0FF00F07A810028AE
:107B100040F08181BAF8843077E1DFF8F00B9AF811
:107B2000443045F23E01FCF754FF9AF84500A87036
:107B3000002000F064BDFCF788FF00F07B81002886
:107B400040F08281BAF88A3078E19AF8740003280C
:107B500000F25285DFE810F004000A02F60100028C
:107B6000FCF773FF00F0B984002840F0C084BAF835
:107B7000A43000F0B6BCDFF8940B9AF83A3045F226
:107B80002F0199E1DFF8840B9AF8393045F22E0184
:107B900092E19AF87400002840F07682FCF755FFD5
:107BA00000F05A82002840F06182BAF89E3057E215
:107BB000FCF74BFF00F07081002840F07781BAF8A5
:107BC00026306DE19AF87400032800F21585DFE88D
:107BD00010F00400EB01D701E101FCF736FF00F0E3
:107BE000DC84002840F0E384BAF8AA3000F0D9BC65
:107BF000084600F008BDDFF8144B9AF84B00D4F8A3
:107C00000458002800F05D81204646F2330102222C
:107C100044F25073A847BAF8783059E19AF87530B1
:107C200098F81F0098420AD0DFF8E00A45F25401A4
:107C3000022288F81F30FDF766F99AF875000138BE
:107C4000032800F2C486DFE810F00400E901C70150
:107C5000D801BAF81400BAF87E10814240F0F181E0
:107C60009AF81A00BAF88010814240F0EA81BAF816
:107C70007600BAF88210E1E15FFA8BF01421B0FBD4
:107C8000F1F101EB8101A0EB8100002800F02781D8
:107C9000042000F09FBE9AF83230002B00F03181B2
:107CA000DFF8680A4FF4A0418FE100BF00C015441F
:107CB0009AF84420012A00F2A282FDF7CEF99AF93F
:107CC0002E300844C01A012A08BF32389AF83920E9
:107CD000012A00F04482002A40F091829AF8312073
:107CE0009AF84230BAF814609AF83B5083F00103D6
:107CF00082F00102A9F81E601A4308BF084601B2CB
:107D0000BAF87C209142B8BF104604B2A9F820000E
:107D10002046FCF797FDE14AE14BFCF7ECFAFCF753
:107D2000DCFD012D88F8210040F0698206F1140085
:107D3000A04240F36482A6F11400A04280F25F8268
:107D4000D74CD64D4CE29AF83300002800F0388129
:107D5000032800F03381022840F03B81012330E109
:107D6000DAF810000021962888BF01219AF8300027
:107D7000002818BF012001EA000345F20501DFF8E1
:107D80008C0922E19AF83010DFF880090222B1FA5A
:107D900081F1D0F804484B0945F20201A0470020C8
:107DA00000F018BE012000F085BEBAF87E00FCF796
:107DB00008FEDFF8580945F215017DE0BAF8900099
:107DC000FCF7FFFDDFF8440945F21E01FCF701FE58
:107DD000DFF83849BAF8923045F21F01FCF7C8FFC6
:107DE000BAF89430FCF7DFFF45F2200100F002BC46
:107DF000BAF89000FCF7E5FDDFF8100945F21E0126
:107E00005AE0BAF88400FCF7DCFDDFF8000945F21F
:107E10001801FCF7DEFDDFF8F448BAF8863045F2C9
:107E20001901FCF7A5FFBAF88830FCF7BCFF45F252
:107E30001A01DFE3BAF88A00FCF7C3FDDFF8CC08CB
:107E400045F21B01FCF7C5FDDFF8C048BAF88C30DD
:107E500045F21C01FCF78CFFBAF88E30FCF7A3FF4B
:107E600045F21D01C6E3BAF87E00FCF7AAFDDFF873
:107E70009C0845F21501FCF7ACFDDFF89048BAF814
:107E8000803045F21601FCF773FFBAF88230FCF738
:107E90008AFF45F21701ADE3BAF82600FCF791FD21
:107EA000DFF8680845F23301FCF793FDDFF85C0862
:107EB000BAF82A3045F23401D0F804480222A0472B
:107EC0009AE3204646F23301FCF75CFFBAF87630BD
:107ED000FDF7C8F845F20801022200F077BDDFF88F
:107EE0002C58E3B245F209010222D5F8046828466D
:107EF000B04798F82030D5F80448284645F20A01E2
:107F000065E0082000F066BDFCF79FFD00F065828B
:107F1000002840F06B82BAF8EC3062E2FCF795FD85
:107F200000F06E82002840F07582BAF80A316BE2E8
:107F3000FCF78BFD00F08E82002840F09582BAF8A5
:107F4000CE308BE2FCF781FD00F09D82002840F0EE
:107F5000A482BAF8E0309AE2FCF777FD00F0A8823C
:107F6000002840F0AF82BAF8FE30A5E2FCF76DFDC4
:107F700000F0C882002840F0CF82BAF8C230C5E2D3
:107F8000FCF763FD00F0D782002840F0DE82BAF8EB
:107F9000E630D4E2FCF759FD00F0EA82002840F018
:107FA000F182BAF80431E7E2FCF74FFD00F00A83F2
:107FB000002840F01183BAF8C83007E3022300E03C
:107FC0000023DFF8480745F20101D0F804480222F7
:107FD0003FE0052000F0FDBCBAF81400BAF88A10A2
:107FE00081422ED19AF81A00BAF88C10814228D119
:107FF000BAF87600BAF88E1020E0BAF81400BAF891
:10800000901081421DD19AF81A00BAF8921081425C
:1080100017D1BAF87600BAF894100FE0BAF8140045
:10802000BAF8841081420CD19AF81A00BAF8861076
:10803000814206D1BAF87600BAF88810814200F081
:10804000C684DFF8C80645F2540102220023D0F8A6
:108050000448A04700F0BBBCBAF89E00FCF7B1FC96
:10806000DFF8A80645F22201FCF7B3FCDFF89C46D6
:10807000BAF8A03045F22301FCF77AFEBAF8A23034
:10808000FCF795FE9AF87400012823D1FCF7DDFC7B
:1080900008D088B9BAF8BC3008E000BF9A9999991D
:1080A0009999D93FBAF8BC00FCF78BFCDFF85C0665
:1080B00045F22201FCF78DFCDFF85046BAF8BE30DD
:1080C00045F22301FCF754FEBAF8C030FCF76FFE0E
:1080D0009AF8740002281ED1FCF7B7FC03D060B9EF
:1080E000BAF8DA3003E0BAF8DA00FCF76AFCDFF835
:1080F0001C0645F22201FCF76CFCDFF81046BAF8CA
:10810000DC3045F22301FCF733FEBAF8DE30FCF731
:108110004EFE9AF87400032840F06E82FCF795FC3E
:1081200003D060B9BAF8F83003E0BAF8F800FCF709
:1081300048FCDFF8D80545F22201FCF74AFCDFF8DD
:10814000CC45BAF8FA3045F22301FCF711FEBAF833
:10815000FC30D4F80468204645F224014AE29AF83B
:1081600031309AF84240052200EBC00001EBC1011A
:1081700090FBF2F084F0010483F00103234308BF75
:10818000B1FBF2F0BAF87C10203001EBC10103B270
:10819000A9F82000B1FBF2F120319942C4BFA9F83F
:1081A0002010084604B2BAF818602046A9F81E60EC
:1081B000FCF748FBEA4AEB4BFCF79DF8FCF78DFB1C
:1081C00088F821009AF83B00012818D106F1240014
:1081D000A04214DDA6F12400A04210DAE14CE04DEB
:1081E00030B2A9F82060FCF72DFB02460B4628466A
:1081F0002146FCF780F8FCF770FB88F82100012F7E
:1082000040F0E5839AF83300032800F2E083012868
:1082100000F0DD83FCF75EFE03D1B9F8183093421D
:1082200049D0A9F81820AAF8161098B9DFF8DC444C
:1082300045F20301022201230126FCF7CEFBD4F80C
:108240000458204646F2030102224FF66043A84735
:1082500088F83D60DFF8B4440020B9F81E3045F2DC
:1082600007010222A9F82400FCF7B7FBB9F81E00A9
:108270009AF83950FCF7F7FA02460B46B848B94964
:10828000002D04BF49F69A10C9F6991004BF49F6AB
:108290009911C3F6D971FCF72EF8FCF71EFBD4F840
:1082A0000458034688F82100204645F20B010222BB
:1082B000A84798F83D00C0B1FCF7B2FEC0F0878334
:1082C000DFF8484445F20301022200230026FCF7B0
:1082D00084FBD4F80458204646F20301FCF752FD13
:1082E00088F83D60A9F8246071E3DFF81C04417848
:1082F00001394170090640F06A830821B9F81C2051
:108300004170DAF80400DAF80C10904204D1B9F8A0
:108310001A20914200F05B83DFF8F043B9F8203077
:10832000A9F81A10A9F81C0045F207010222FCF76F
:1083300054FB98F82130FCF795FE45F20B01CBE594
:10834000DFF8C84345F20401022201230125D4F8D5
:1083500004682046B047FCF726FD46F2630102227E
:1083600043F67F43B0479AF81C30FCF71CFD45F2FA
:108370000E010222B0479AF81C30FCF767FEB047A6
:1083800088F81E5007E39AF830209AF83110012A35
:1083900008BF002900F09A829AF84200002800F0F5
:1083A0009582002A00F092820020012A08BF01294C
:1083B00040F0A0825FFA8BF10522B1FBF2F202EBF2
:1083C0008202891A090640F09582DAF804109AF8B8
:1083D0001D00412938BF184679E2BAF8EC00FCF7D5
:1083E000F0FACA4845F22B01FCF7F3FAC74CBAF889
:1083F000EE3045F22C01FCF7BBFCBAF8F0303DE062
:10840000BAF80A01FCF7DDFADFF8C80D45F22B01D6
:10841000FCF7DFFADFF8BC4DBAF80C3145F22C015D
:10842000FCF7A6FCBAF80E3128E0BAF8B000FCF769
:10843000C8FADFF8A00D45F22B01FCF7CAFADFF805
:10844000944DBAF8B23045F22C01FCF791FCBAF821
:10845000B43013E0BAF8CE00FCF7B3FADFF8740DCD
:1084600045F22B01FCF7B5FADFF8684DBAF8D030C9
:1084700045F22C01FCF77CFCBAF8D230FCF793FCF7
:1084800045F22D01B6E0BAF8E000FCF79AFADFF801
:10849000440D45F22501FCF79CFADFF8384DBAF897
:1084A000E23045F22601FCF763FCBAF8E4303DE027
:1084B000BAF8FE00FCF785FADFF8180D45F2250141
:1084C000FCF787FADFF80C4DBAF8003145F22601C7
:1084D000FCF74EFCBAF8023128E0BAF8A400FCF729
:1084E00070FADFF8F00C45F22501FCF772FADFF8BC
:1084F000E44CBAF8A63045F22601FCF739FCBAF88C
:10850000A83013E0BAF8C200FCF75BFADFF8C40C3D
:1085100045F22501FCF75DFADFF8B84CBAF8C43033
:1085200045F22601FCF724FCBAF8C630FCF73BFC08
:1085300045F227015EE0BAF8E600FCF742FADFF800
:10854000940C45F22801FCF744FADFF8884CBAF89D
:10855000E83045F22901FCF70BFCBAF8EA3045E0B7
:10856000E17A14AE47E1CA3F002A002090000020C3
:10857000BAF80401FCF725FADFF8580C45F2280197
:10858000FCF727FADFF84C4CBAF8063145F229011E
:10859000FCF7EEFBBAF8083128E0BAF8AA00FCF7BD
:1085A00010FADFF8300C45F22801FCF712FADFF878
:1085B000244CBAF8AC3045F22901FCF7D9FBBAF8E3
:1085C000AE3013E0BAF8C800FCF7FBF9DFF8040C92
:1085D00045F22801FCF7FDF9DFF8F84BBAF8CA308C
:1085E00045F22901FCF7C4FBBAF8CC30FCF7DBFB01
:1085F00045F22A010222B04798F82600013088F897
:1086000026009AF845000338012813D898F8270067
:108610000B2800F2CC80DFE800F0065E49502B65A5
:108620007B578E4282219AF83800022840F09680CB
:108630000223A0E098F82910002088F828000029DB
:1086400040F0B580A875012405F10E010220092231
:10865000AC8205F0E1FA88F82940A8E0DFF8740B55
:108660009AF8403045F23801FCF7B3F900209CE05D
:10867000DFF8604B9AF83C3045F23101FCF778FBAB
:108680009AF83D30FCF78FFB45F244010222B047D7
:108690009AF83E30FCF787FB45F2320159E00020A2
:1086A00005F10E01A8750120A8823FE0DFF8240B38
:1086B0009AF83A3045F22F0170E0DFF8180B9AF87B
:1086C0003B3045F2300169E0DFF8080B9AF84130A1
:1086D00045F2370162E0DFF8FC0A9AF8393045F2DA
:1086E0002E015BE098F82800B0BB012088F8280034
:1086F0009AF8390000284AD001282DD10AF1180033
:1087000047E000BF9001002000000020482B00201F
:10871000DFF8C00ABAF8763045F236013EE00020B4
:1087200005F11701E8770120A5F81D0002200922B4
:1087300005F072FA36E0DFF89C4A9AF8433045F2C9
:108740003801FCF715FB9AF84230FCF72CFB45F298
:1087500045010222B04725E0062026E09AF84410A1
:10876000012808BF012905D00123012808BF0029DD
:108770000AD100E00023DFF85C0A45F21401FCF79F
:1087800028F998F82700431C88F827300FE00AF1F1
:1087900014000388DFF83C0A45F23501D0F804489C
:1087A0000222A04798F82700013088F8270098F89F
:1087B0002D0048B19AF83800012814D19AF84500E4
:1087C00028281BD1012415E09AF83840012088F8A8
:1087D0002D00012C02D0022C47D11A24FCF772FB89
:1087E0008AF8454060E0022808D19AF84500282818
:1087F00004D11A24FCF766FB8AF845409AF8490030
:10880000B8B1DFF8C859DFF8CC4945F23C01FCF7B4
:1088100030FB688EB0F5C87F0BD3002045F23C01D9
:10882000022200236886D4F804588AF849002046BA
:10883000A84798F81A00012817D1DFF89059DFF8F7
:10884000944945F24901FCF714FB688EB0F5C87FE6
:108850000BD3002045F24901022200236886D4F898
:10886000045888F81A002046A8479AF845000E28B0
:108870001AD19AF83300022804D09AF8441001293A
:1088800040F0258498F82E10002940F02084012122
:1088900088F83000002088F82E109AF844108AF8E2
:1088A000330088F82F100DE098F82E00012840F0D2
:1088B0000E84002098F8301088F82E0098F82F00C9
:1088C0008AF833108AF8440000F001BC1846DFF83B
:1088D0000449C5B245F20E0102222B46D4F80468C1
:1088E0002046B047FCF7B2FB2B46B04798F83E0055
:1088F0009AF81A309AF81B1099422CD08AF81B303B
:10890000A8B9DFF8D04845F204010222012301266C
:10891000FCF763F8D4F80458204646F263010222BB
:1089200043F67F43A8479AF81A3088F83E60DFF88C
:10893000A448002045F20E010222A9F82200FCF70B
:108940004CF89AF81A30FCF78DFB45F20C01022224
:10895000A84798F83E00F0B1FCF73CFB1BD3DFF8CA
:10896000744845F20401022200230026FCF735F882
:10897000D4F80458204646F26301FCF703FA9AF84B
:108980001A30FCF76FFB45F20E010222A84788F867
:108990003E60A9F822609AF83300032817D098F8AF
:1089A0001E00012813D1DFF82C48002045F20401F5
:1089B0000222002388F81E00FCF70FF8D4F80458B0
:1089C000204646F2630102224FF6FF73A84798F84B
:1089D0001B00013088F81B009AF84500022869D175
:1089E0009AF8753098F81F0098420CD0DFF8E40729
:1089F00045F25401022288F81F30FCF784FA9AF8F5
:108A00004500022856D198F8230068B900208AF85A
:108A10001B00A8F83D00A9F82A00C9F8260088F82C
:108A20002500012088F8230098F82200042800F28D
:108A30003D82DFE800F003774B6643009AF844007C
:108A4000012800F209819AF92F10DAF804209AF926
:108A50002E301144C91A012808BF3239FBF7F5FF3F
:108A600000F0C480002840F0F7809AF831309AF87E
:108A70004250BAF814009AF83B4085F0010583F0A3
:108A80000103A9F82C002B4308BF11460AB2BAF81B
:108A90007C309A42B8BF1946A9F82E10012C40F03C
:108AA000DB8009B200F114028A4240F3D580A0F1C4
:108AB0001402CDE0002188F82310F9E1BAF804008F
:108AC000DFF80C17FCF7C5F90020EDE19AF8750006
:108AD0000138032800F27F80DFE800F0026B495A7A
:108AE000BAF81400BAF87E10814276D19AF81A00CA
:108AF000BAF88010814270D1BAF87600BAF88210C4
:108B000067E0DFF8D0469AF84B00D4F8045800B379
:108B1000204646F20311022244F25073A847BAF8E5
:108B200078301DE09AF83800012840F092819AF8D8
:108B3000330028B1032800F00B81022840F08D811A
:108B400098F83E009AF81A30002800F019810120A8
:108B500041E1204646F20311FCF714F9BAF87630E9
:108B6000FCF780FA45F212010222A84799E1BAF80F
:108B70001400BAF88A1081422FD19AF81A00BAF874
:108B80008C10814229D1BAF87600BAF88E1020E014
:108B9000BAF81400BAF8901081421ED19AF81A005F
:108BA000BAF89210814218D1BAF87600BAF8941047
:108BB0000FE0BAF81400BAF8841081420DD19AF887
:108BC0001A00BAF88610814207D1BAF87600BAF8CE
:108BD0008810814201D1022065E1DFF8F80545F2F5
:108BE000540102220023FCF78EF95AE19AF8313041
:108BF0009AF8424002EBC200052201EBC10191FB51
:108C0000F2F184F0010483F00103234308BFB0FBB9
:108C1000F2F1BAF87C00203100EBC0000BB2A9F8E9
:108C20002E10B0FBF2F020309842C4BFA9F82E00FD
:108C300001469AF83B20BAF81800012AA9F82C003E
:108C40000AD109B200F124028A4205DDA0F1240212
:108C50008A42B8BFA9F82E009AF83800012840F0DF
:108C600020819AF83300032800F21B81012800F0CC
:108C70001881FCF72FF903D1B9F82A30934226D096
:108C8000A9F82A20AAF8161098B9DFF8484545F245
:108C90000301022201230126FBF79FFED4F80458AA
:108CA000204646F2C30102224FF66043A84788F8E7
:108CB0003D600020B9F82C3045F210010222A9F8DD
:108CC0002400DFF81005FCF71EF998F83D00D8B134
:108CD000FCF7A6F9C0F0E580DFF8F84445F203019F
:108CE000022200230026FBF778FED4F80458204621
:108CF00046F2C301FCF746F80120C9F8246088F861
:108D00003D6088F82500CCE098F82500013888F807
:108D10002500000640F0C5800820B9F82620DAF8C2
:108D20000C1088F82500DAF80400904204D1B9F854
:108D30002820914200F0B580A9F82600DFF89404BD
:108D4000B9F82E30A9F8281045F2100102224AE79E
:108D5000DFF8804445F20401022201230126FBF7DB
:108D60003CFEFCF766F89AF81C30FCF7C5F89AF858
:108D70001C00DFF85C1488F8246081F8370068E094
:108D80009AF830209AF83110012A08BF002910D033
:108D90009AF8420068B162B10020012A08BF012997
:108DA00019D1DAF804009AF81D40412838BF1C4652
:108DB00000E01C46DFF81C04E3B245F21101022278
:108DC000D0F80458A847DFF808049AF81A3080F859
:108DD000374098F83E009AF81B1099421DD08AF847
:108DE0001B3070B9DFF8EC4345F204010222012385
:108DF0000126FBF7F2FDFCF71CF89AF81A3088F808
:108E00003E60002045F211010222A9F82200DFF89D
:108E1000C403FCF778F898F83E00D0B1FCF7DAF814
:108E200017D3DFF8B04345F20401022200230026E5
:108E3000FBF7D3FDD4F80458204646F2F301FBF7C4
:108E4000A1FF9AF81A30FCF757F888F83E60A9F8A5
:108E500022609AF83300032815D098F824000128DE
:108E600011D1DFF87043002045F2040102220023F3
:108E700088F82400FBF7B1FDD4F80458204646F2E8
:108E8000F301FBF77FFFDAF81000FA2804D8DFF8C7
:108E90004003002180F83710DFF834030E22FCF77E
:108EA000EEF898F82200013088F822009AF8450080
:108EB0001A2840F00C8198F82A00032800F2078154
:108EC000DFE800F0025E344BFCF7C7F8C14C9AF8BB
:108ED0004730022208449AF92E10D4F80458401A58
:108EE00045F24201A9F830002046A8479AF8480008
:108EF000002840F0E780B9F83000B549FBF7A9FF3A
:108F000098F82B000C21013088F82B00C0B2FCF738
:108F100051F840F0D7809AF83900002800F0C78057
:108F2000012840F0CF80DAF80C00C3E09AF847003F
:108F3000002867D0012840F0C580A64C46F2930176
:108F4000022244F25073FBF748FDBAF87A30D4F8A5
:108F50000458204645F24101B2E09AF84700002348
:108F600038B1012840F0B1809AF84630581E0328E5
:108F700004D8984845F24301FBF72BFD0023A4E0F9
:108F80009AF8470001281CD19AF87400032800F2CF
:108F90008C80DFE800F002795768FBF7B7FF00F23A
:108FA0008480DFE810F00400FE00B800E00089488B
:108FB000BAF8A03045F24001FBF70BFD9AF8A0404B
:108FC00039E00223002840F080809AF84800002809
:108FD00040F07B8098F82C00DAF804100130472923
:108FE00088F82C001ED3C0B20C21FBF7E3FF06D19A
:108FF00078489AF81D3045F24001FBF7EAFC9AF8F0
:109000001D4018E0734C46F2930102224FF6FF73A5
:10901000FBF7E3FCD4F80458204645F24101022254
:1090200000234EE06B4845F2400102220023002459
:10903000D0F80458A84766480E2280F83740FCF75D
:109040001EF83FE0FBF762FF2FD8DFE800F0026E6A
:1090500046506048BAF8DC3045F24001FBF7B9FCF5
:109060009AF8DC40E7E7FBF751FF1ED8DFE800F095
:10907000028549715748BAF8FA3045F24001FBF7CA
:10908000A8FC9AF8FA40D6E7FBF740FF0DD8DFE8D6
:1090900000F00292567E4F48BAF8BE3045F24001C9
:1090A000FBF797FC9AF8BE40C5E702230DE0FBF7FB
:1090B000D4FF0844D4F8045883B2204645F23F0157
:1090C0000222A84798F82A00431C88F82A30414811
:1090D000D0F80818BDE8F84F08473E48BAF8E8301D
:1090E00045F24001FBF775FC9AF8E840A3E73948E0
:1090F000BAF8EE3045F24001FBF76BFC9AF8EE400F
:1091000099E73448BAF8063145F24001FBF761FCB3
:109110009AF806418FE72F48BAF8AC3045F2400183
:10912000FBF757FC9AF8AC4085E72A48BAF8E230DA
:1091300045F24001FBF74DFC9AF8E2407BE72548F9
:10914000BAF8CA3045F24001FBF743FC9AF8CA402E
:1091500071E72048BAF80C3145F24001FBF739FCC1
:109160009AF80C4167E71B48BAF8B23045F2400163
:10917000FBF72FFC9AF8B2405DE71648BAF80031C9
:1091800045F24001FBF725FC9AF8004153E71148EE
:10919000BAF8D03045F24001FBF71BFC9AF8D040FA
:1091A00049E70C48BAF8A63045F24001FBF711FC3C
:1091B0009AF8A6403FE70748BAF8C43045F24001A4
:1091C000FBF707FC9AF8C44035E700BF9001002088
:1091D00000000020482B00200448017809B9012133
:1091E000017003484AF6AA2101607047312300202C
:1091F0000030004010B5214C226842F0010222608C
:1092000001804FF4801000F017F8FBF727BC00BF77
:1092100008480168C9071CBF00207047016849075A
:1092200044BF012070470068C0064FF0020058BFDD
:10923000032070470C200240B0B50446FFF7E8FF5A
:109240000025013C45F1000118B911B1FFF7E0FF1D
:10925000F7E7B0BD10B5094C216841F0020121606B
:109260006060206840F0400020604FF08040FFF7D1
:10927000E3FF206820F00200206010BD10200240B3
:109280002DE9F04F8FB0DFF8148A98F80700032813
:1092900001F20980DFE810F0040012050C00E3047D
:1092A00098F81400002801F00180012000F0F9BFB7
:1092B000FB49DFF8EC49FB4FDFF8E859881D894688
:1092C00098F8131011F0010608BFA7F1D20094F925
:1092D0002E1089B2A84709F10800002E08BFA7F197
:1092E000D000E18CA84709F10A00002E08BFA7F1C1
:1092F000CE00618DA84709F10C00002E08BFA7F130
:10930000CC00B4F87610A84709F1D000002E08BFB1
:10931000A7F1080094F83810A84709F10E00002EB4
:1093200008BFA7F1CA0094F83910A84709F1100046
:10933000002E08BFA7F1C80094F83A10A84709F119
:109340001200002E08BFA7F1C60094F83B10A847F2
:1093500009F11400002E08BFA7F1C40094F83C10D6
:10936000A84709F11600002E08BFA7F1C20094F823
:109370003D10A84709F11800002E08BFA7F1C00052
:1093800094F83E10A84709F11A00002E08BFA7F173
:10939000BE0094F84010A84709F11C00002E08BF39
:1093A000A7F1BC0094F84110A84709F11E00002E57
:1093B00008BFA7F1BA0094F84310A84709F12000AC
:1093C000002E08BFA7F1B80094F84410A84709F18F
:1093D0002200002E08BFA7F1B600B4F87E10A847FF
:1093E00009F12400002E08BFA7F1B400B4F88010E2
:1093F000A84709F12600002E08BFA7F1B200B4F873
:109400008210A84709F12800002E08BFA7F1B0007C
:10941000B4F88410A84709F12A00002E08BFA7F16C
:10942000AE00B4F88610A84709F12C00002E08BF42
:10943000A7F1AC00B4F88810A84709F12E00002E5F
:1094400008BFA7F1AA00B4F88A10A84709F13000B4
:10945000002E08BFA7F1A800B4F88C10A84709F1A6
:109460003200002E08BFA7F1A600B4F88E10A8475E
:1094700009F13400002E08BFA7F1A400B4F8901041
:10948000A84709F13600002E08BFA7F1A200B4F8E2
:109490009210A84709F13800002E08BFA7F1A000DC
:1094A000B4F89410A84709F13A00002E08BFA7F1BC
:1094B0009E00B4F89E10A84709F13C00002E08BF9A
:1094C000A7F19C00B4F8A010A84709F13E00002EB7
:1094D00008BFA7F19A00B4F8A210A84709F140000C
:1094E000002E08BFA7F19800B4F8A410A84709F10E
:1094F0004200002E08BFA7F19600B4F8A610A847B6
:1095000009F14400002E08BFA7F19400B4F8A81098
:10951000A84709F14600002E08BFA7F19200B4F851
:10952000AA10A84709F14800002E08BFA7F1900033
:10953000B4F8AC10A84709F14A00002E08BFA7F103
:109540008E00B4F8AE10A84709F14C00002E08BFF9
:10955000A7F18C00B4F8B010A84709F14E00002E16
:1095600008BFA7F18A00B4F8B210A84709F150006B
:10957000002E08BFA7F18800B4F8B410A84709F17D
:109580005200002E08BFA7F18600B4F8B610A84715
:1095900009F15400002E08BFA7F18400B4F8B810F8
:1095A000A84709F15600002E08BFA7F18200B4F8C1
:1095B000BA10A84709F15800002E08BFA7F1800093
:1095C000B4F8BC10A84709F15A00002E08BFA7F153
:1095D0007E00B4F8BE10A84709F15C00002E08BF59
:1095E000A7F17C00B4F8C010A84709F15E00002E76
:1095F00008BFA7F17A00B4F8C210A84709F16000CB
:10960000002E08BFA7F17800B4F8C410A84709F1EC
:109610006200002E08BFA7F17600B4F8C610A84774
:1096200009F16400002E08BFA7F17400B4F8C81057
:10963000A84709F16600002E08BFA7F17200B4F830
:10964000CA10A84709F16800002E08BFA7F17000F2
:10965000B4F8CC10A84709F16A00002E08BFA7F1A2
:109660006E00B4F8CE10A84709F16C00002E08BFB8
:10967000A7F16C00B4F8D010A84709F16E00002ED5
:1096800008BFA7F16A00B4F8D210A84709F170002A
:10969000002E08BFA7F16800B4F8D41000F004B899
:1096A00000F40108D8FC0108A84709F17200002E57
:1096B00008BFA7F16600B4F8D610A84709F17400F6
:1096C000002E08BFA7F16400B4F8D810A84709F12C
:1096D0007600002E08BFA7F16200B4F8DA10A847A0
:1096E00009F17800002E08BFA7F16000B4F8DC1083
:1096F000A84709F17A00002E08BFA7F15E00B4F870
:10970000DE10A84709F17C00002E08BFA7F15C001D
:10971000B4F8E010A84709F17E00002E08BFA7F1B9
:109720005A00B4F8E210A84709F18000002E08BFE3
:10973000A7F15800B4F8E410A84709F18200002E00
:1097400008BFA7F15600B4F8E610A84709F1840055
:10975000002E08BFA7F15400B4F8E810A84709F19B
:109760008600002E08BFA7F15200B4F8EA10A847FF
:1097700009F18800002E08BFA7F15000B4F8EC10E2
:10978000A84709F18A00002E08BFA7F14E00B4F8DF
:10979000EE10A84709F18C00002E08BFA7F14C007D
:1097A000B4F8F010A84709F18E00002E08BFA7F109
:1097B0004A00B4F8F210A84709F19000002E08BF43
:1097C000A7F14800B4F8F410A84709F19200002E60
:1097D00008BFA7F14600B4F8F610A84709F19400B5
:1097E000002E08BFA7F14400B4F8F810A84709F10B
:1097F0009600002E08BFA7F14200B4F8FA10A8475F
:1098000009F19800002E08BFA7F14000B4F8FC1041
:10981000A84709F19A00002E08BFA7F13E00B4F84E
:10982000FE10A84709F19C00002E08BFA7F13C00DC
:10983000B4F80011A84709F19E00002E08BFA7F157
:109840003A00B4F80211A84709F1A000002E08BFA1
:10985000A7F13800B4F80411A84709F1A200002EBE
:1098600008BFA7F13600B4F80611A84709F1A40013
:10987000002E08BFA7F13400B4F80811A84709F179
:10988000A600002E08BFA7F13200B4F80A11A847BD
:1098900009F1A800002E08BFA7F13000B4F80C11A0
:1098A000A84709F1AA00002E08BFA7F12E00B4F8BE
:1098B0000E11A84709F1AC00002E08BFA7F12C003B
:1098C000B4F81011A84709F1AE00002E08BFA7F1A7
:1098D0002A00B4F81211A84709F1B000002E08BF01
:1098E000A7F12800B4F81411A84709F1B200002E1E
:1098F00008BFA7F12600B4F81611A84709F1B40073
:10990000002E08BFA7F12400B4F81811A84709F1E8
:10991000B600002E08BFA7F12200B4F81A11A8471C
:1099200009F1B800002E08BFA7F12000B4F81C11FF
:10993000A84709F1BA00002E08BFA7F11E00B4F82D
:109940001E11A84709F1BC00002E08BFA7F11C009A
:10995000B4F82011A84709F1BE00002E08BFA7F1F6
:109960001A00B4F82211A84709F1C000002E08BF60
:10997000A7F11800B4F82411A84709F1C200002E7D
:1099800008BFA7F11600B4F82611A84709F1C400D2
:10999000002E08BFA7F11400B4F82811A84709F158
:1099A000C600002E08BFA7F11200B4F82A11A8477C
:1099B00009F1C800002E08BFA7F11000B4F82C115F
:1099C000A84709F1CA00002E08BFA7F10E00B4F89D
:1099D0002E11A84709F1CC00002E08BFA7F10C00FA
:1099E000B4F83011A84709F1CE00002E08BFA7F146
:1099F0000A00B4F83211A84709F1D400002E08BFBC
:109A0000381FB4F83811A84709F1D600002E08BF56
:109A1000B81EB4F84011A84794F92E0094F83910F4
:109A200094F83A2094F83B3008F15C0504F1A00664
:109A300004F1B80CA8F85400E08C88F8091088F8F4
:109A40000A2088F80B30D4F88210D4F88620D4F895
:109A50008A30A8F85600608DA8F85800B4F876004F
:109A6000A8F85A0094F8380088F8080094F83C00E8
:109A700088F80C0094F83D0088F80D0094F83E003A
:109A800088F80E00B4F84000A8F80F00B4F84300BE
:109A9000A8F81100D4F87E000FC5B4F88E006ECE81
:109AA000C8F87A20A8F86C00B4F89000C8F87610CE
:109AB000B4F8B410A8F86E00D4F89200C8F870009A
:109AC000B4F89E00A8F8740077488181B4F8B61005
:109AD000036045608660C1819CE8EE10426183614D
