:020000040800F2
:10400000283C00208541000831A3000829A30008AE
:104010002DA30008754800087DBF000800000000BF
:10402000000000000000000000000000E5B60008ED
:10403000794800080000000015A40008E9B600084F
:104040009F4100089F4100089F4100089F410008D0
:104050009F4100089F4100089F4100089F410008C0
:104060009F4100089F4100089F4100089F410008B0
:104070009F4100089F4100089F4100089F410008A0
:104080009F4100089F4100089F4100089F41000890
:104090009F4100089F4100089F4100089F41000880
:1040A0009F4100089F4100089F4100089F41000870
:1040B0009F4100080DBC00089F4100089F41000877
:1040C0009F4100089F4100089F4100089F41000850
:1040D0009F41000895BD000835BE0008D5BE000808
:1040E0007D4800089F4100089F4100080000000033
:1040F00000000000000000000000000000000000C0
:10410000000000009F4100089F41000800000000DF
:1041100045BC0008EDBC00080000000000000000E5
:104120009F4100089F4100089F4100089F410008EF
:10413000000000000000000000000000000000007F
:104140000000000000000000000000009F41000887
:1041500000000000000000009F4100089F4100088F
:104160000000000000000000000000009F41000867
:10417000DFF80CD000F048F900480047350201088C
:10418000283C00200648804706480047FEE7FEE737
:10419000FEE7FEE7FEE7FEE7FEE7FEE7FEE7FEE7F7
:1041A00065BB00087141000830B50B460146002090
:1041B0002022012409E021FA02F59D4205D303FAE9
:1041C00002F5491B04FA02F52844151EA2F101026A
:1041D000F1DC30BD2DE9FE4F804681EA0300C00FBF
:1041E0000C46009021F0004123F00045B8EB02009E
:1041F000A94105D24046214690461C460B46024640
:1042000023F00040104347D0270DC7F30A00C3F343
:104210000A510290401A019040286BDAC3F3130050
:1042200040F4801B0098924620B10023D2EB030A91
:1042300063EB0B0B01985946C0F14002504600F069
:10424000F5F806460D4650465946019A00F00DF91C
:1042500010EB08006141002487EA115284EAE773F9
:104260001A4340D0009A62B3019A012A4FEA0752DA
:1042700015DC001B61EB02014FF0004202EA07521D
:10428000CDE90042001C41F5801132462B4600F07A
:104290000DF903B0BDE8F08F40462146F9E7001B59
:1042A00061EB0201001C41F5801300185B412018EE
:1042B000A2F5001747EB030140EAD570B6196D412E
:1042C00011E06D084FEA360645EAC0754FEA07521D
:1042D000001B61EB0201001C41F5801149084FEA07
:1042E00030000019514132462B4603B0BDE8F04F73
:1042F00000F0CDB80098012240000023D0EB02026C
:1043000063EBE073009821464FEAE074B8EB0000DD
:1043100061EB0401E9E783F000435BE781F00041D2
:1043200058E72DE9FE4F81EA030404F0004421F030
:10433000004100944FF0000B23F0004350EA0104C9
:104340005ED052EA03045BD0C3F30A54C1F30A55AA
:104350002C44A4F2F3340194A0FB0254C1F31301E2
:1043600041F48011C3F3130343F4801301FB0244AF
:1043700000FB034E840A970A44EA815447EA8357B4
:10438000A4FB076802958D0A05FB07854FEA932C6D
:1043900004FB0C542705029D4FEA065847EA1637DE
:1043A000B5EB08056EEB070C870E920E47EA8117F6
:1043B00042EA8312A7FB0201B6EB0B0164EB000497
:1043C0002B0D43EA0C335E1844EB1C50DA46514681
:1043D000E7FB0201C5F313044FEA0B3343EA14531E
:1043E0004FEA0432019C43EA0603A4F10C04029450
:1043F000009CCDE900B400F059F803B0BDE8F08F9F
:1044000000200146F9E70000064C074D06E0E06891
:1044100040F0010394E8070098471034AC42F6D30B
:10442000FFF7AAFED4430108F4430108202A04DB65
:10443000203A00FA02F1002070479140C2F12003B7
:1044400020FA03F3194390407047202A04DB203AF6
:1044500021FA02F00021704721FA02F3D040C2F1A4
:1044600020029140084319467047202A06DBCB17EB
:10447000203A41FA02F043EAE07306E041FA02F31F
:10448000D040C2F12002914008431946704710B550
:10449000141E73F1000408DA401C41F10001921867
:1044A0005B411A4301D120F0010010BD2DE9F04D10
:1044B00092469B4611B1B1FA81F202E0B0FA80F265
:1044C00020329046FFF7B2FF04460F4640EA0A004A
:1044D00041EA0B0153465A46084313D0114653EAAA
:1044E000010019D0C8F140025046FFF7AEFF054663
:1044F0000E46504659464246FFF798FF084305D0FE
:10450000012004E020463946BDE8F08D0020054337
:1045100046EAE0762C4337430A986305E40AA0EBA9
:1045200008000022FD0A44EA47540A3002D5002060
:104530000146E9E7010510196941DDE9084500195F
:104540006941BDE8F04DA2E740EA01039B0703D0B3
:1045500009E008C9121F08C0042AFAD203E011F8C2
:10456000013B00F8013B521EF9D27047D2B201E084
:1045700000F8012B491EFBD270470022F6E710B568
:1045800013460A4604461946FFF7F0FF204610BDC1
:10459000F0B480EA0102D40F4200B2EB410F02D224
:1045A0000246084611464A0042D0C30DDDB2C1F3AF
:1045B000C752AD1A202D35DAC1F3160141F40002BD
:1045C00004B15242C5F1200602FA06F12A41104414
:1045D000B3EBD05F23D0C4B1012DA0EBC35009DCF5
:1045E000F0BC4FF0004202EAC352DBB200F500001B
:1045F00000F011B9400000F1807000EBC350A0F151
:10460000807040EAD170490009E0490841EAC07170
:10461000A0EBC35000F50000400800EBC350F0BC15
:1046200000F0F0B86142012202EB4101001BF6E705
:10463000F0BC704781F00041AAE780F00040A7E796
:1046400080EA010210B502F00043400022D04A0087
:104650001FD0010E01EB1261C0F35600C2F35602E7
:1046600040F4000042F40002A0FB022000047F3965
:10467000140400D0401C50EA124001D44000491EEE
:10468000C2B20C0604EBD010401C4008802A02D0B5
:1046900003E0002010BD20F00100002900DA002016
:1046A000184310BD002801DBC0F10040002901DBE8
:1046B000C1F10041814201D80120704700207047BC
:1046C000002801DBC0F10040002901DBC1F10041FD
:1046D000814201D20120704700207047002801DB91
:1046E000C0F10040002901DBC1F10041814201D34A
:1046F0000120704700207047002801DBC0F1004016
:10470000002901DBC1F10041814201D9012070473C
:1047100000207047C10F80EAE0700844CA07962362
:10472000002100F078B896230022114600F073B8FB
:104730000EB5C10F80EAE0700844CA07002140F2BC
:1047400033438DE80E000A460B46FFF7AFFE03B079
:1047500000BD0EB540F2334102910021CDE90011B8
:104760000A460B46FFF7A2FE03B000BD20F0004052
:10477000C10DC0F3160040F400007F2901DA0020CB
:104780007047962903DCC1F19601C84070479639FD
:104790008840704770B5C1F30A5201F0004500240B
:1047A000C1F3130140F2FF3341F480119A4201DA60
:1047B000002070BD40F233439A42A2F2334203DC40
:1047C0005242FFF742FE00E090402C43F1D04042BD
:1047D00070BDC1F30A5210B5C1F3130140F2FF33AB
:1047E00041F480119A4201DA002010BD40F23343B7
:1047F0009A42A2F2334203DC5242FFF726FE10BD7A
:10480000904010BD0029A8BF7047401C490008BF58
:1048100020F00100704710B4B0FA80FC00FA0CF0F0
:1048200050EA010404BF10BC704749B1CCF1200428
:1048300021FA04F411FA0CF118BF012121430843B5
:10484000A3EB0C01CB1D4FEA00614FEA102042BFE1
:10485000002010BC704700EBC35010440029A4BFD7
:1048600010BC7047401C490008BF20F0010010BC7C
:1048700070470000FEE70000704700002DE9F04798
:1048800040F21440C4F201000168890440F1BF8382
:104890004FF4005141F270160160C2F200067068D8
:1048A00096F9291096F928200844801AFFF73BFF53
:1048B00040F2CC01C2F2000140F2D8070860C2F217
:1048C0000007388842F6E061884208D3D6E94C12E6
:1048D00000203880481C42F10001C6E94C014FF02D
:1048E0008040016840F2340821F00101C4F2000860
:1048F00001600020C8F8000096F8300000284ED073
:10490000012840F0758396F84000002840F070833D
:1049100096F83F00002863D0012840F0698340F2F8
:10492000D600C2F20000027896F83E108A420AD001
:10493000017040F2BC10C2F2000000210162C161AE
:1049400041610161C16096F84200002800F0508387
:104950000DF044FFB6F874100144308A716007F01E
:10496000B5FD96F86C1086F82900032900F25781EE
:104970000446DFE811F0040025013401430196F8F4
:104980003E000138042800F24A81DFE810F00500FB
:10499000E002E302E6024601B6F88E00FAE296F87B
:1049A0002F00032859D0022800F0A380002840F0EF
:1049B0001F8396F82D00002800F0C38096F83A1067
:1049C000002900F0BE80012808BF012940F01083B3
:1049D0000A200AF009FEB6F8741001EB900060E0BE
:1049E00040F2BC1142F20040C2F200010022C4F2C7
:1049F00001000A62CA614A610A61CA60C1680A228A
:104A000041F00701C160416B62F3040141638168B9
:104A100041F4800181600168890709D40168890730
:104A20005CBF01685FEA817102D401688907F2D531
:104A3000C06CB6F87410C0F38D000844706040F28A
:104A4000F820C2F2000000210160C8F800104FF009
:104A50008040016821F00101C9E242F20040C4F245
:104A60000100C1680A2241F00701C160416B62F395
:104A700004014163816841F4800181600168890714
:104A800009D4016889075CBF01685FEA817102D4BB
:104A900001688907F2D5C06CB6F87410C0F38D00B8
:104AA0000844706040F2F820C2F20000002101606A
:104AB000C8F800104FF08040026822F00102026046
:104AC00040F2BC1040F2D202C2F20000C2F2000278
:104AD0000162C16141610161C16011804BF6000258
:104AE000C4F28872826040F2D000C2F2000001700D
:104AF0007EE296F82D00012842D0002840F078820E
:104B000096F84200002800F073820DF067FE40F234
:104B1000D409C2F20009B6F87420B9F80050318AFD
:104B200014188D42746000F04A8196F83C00002809
:104B300000F02481012840F02981708C0844323033
:104B40001EE196F84200002800F052820DF046FE69
:104B500040F2D404C2F200040246B6F87430208851
:104B6000318A1A448842726000F08C8096F83C00CA
:104B700000285AD001285FD101F1320080B255E0FF
:104B80000A200AF031FDB6F8741001EB9000706055
:104B900040F2F820C2F2000000210160C8F80010C5
:104BA0004FF08040026822F00102026040F2BC1027
:104BB000C2F200000162C16141610161C16017E29E
:104BC00096F83E000138042829D8DFE810F00500E7
:104BD000C901CC01CF012600B6F8AC00DAE196F8A5
:104BE0003E00013804281AD8DFE810F00500C301A0
:104BF000C601C9011700B6F8CA00CBE196F83E001D
:104C0000013804280BD8DFE810F00500BD01C00111
:104C1000C3010800B6F8E800BCE10020F08740F2CC
:104C2000F820C2F200000468CBE1084607F04EFC11
:104C3000014686F8290001E096F82910726896F975
:104C40002830308A42FA81F1C91A814204D90FF220
:104C5000C4300FF06BFB308A40F2D201C2F2000187
:104C600000220A8040F2BC114BF60003C2F20001A0
:104C7000C4F288738B6040F2D003C2F200031A7052
:104C8000CA61208096F83C1031B3012940F0298197
:104C9000716896F9292096F928301144CC1A00F150
:104CA00096018C4240D8A0F1320294423CD332307B
:104CB000FFF730FD05462046FFF735FD0146284643
:104CC00005F038FB044640F2F8203988C2F20000B3
:104CD0000460481C388009E1716896F9292096F92A
:104CE00028301144CC1A00F164018C4223D8A0F181
:104CF000640294421FD300F10A018C424FF000017C
:104D0000A0F10A0288BF012194424FF0000238BF8F
:104D1000012211434FF0000200F0AA8040F2D203BA
:104D2000C2F200031A80C0E08C4240F2038138884E
:104D300001303880E0E08C4240F2E580C0A00FF006
:104D4000F5FA40F2F820C2F200000021016040F2C2
:104D5000BC104BF60002C2F20000C4F288728260FE
:104D600040F2D2003A88C2F200000180501C388024
:104D700040F2D000C2F200000170B2E0708C084432
:104D800080B207F0A3FB86F8290001E096F829001D
:104D9000746896F92810358A44FA80F0401AA842BF
:104DA0000BD940F2BC1AC2F2000ADAF81C004FF02C
:104DB0007C51FFF745FCCAF81C00A9F8005096F892
:104DC0003C0098B1012835D196F9290096F92810B0
:104DD000728C2044441AA81800F196018C4235D8F0
:104DE000A0F13202944231D332300FE096F929001B
:104DF00096F92810728C2044441A501900F164016D
:104E00008C4223D8A0F1640294421FD3FFF782FCA6
:104E100005462046FFF787FC0146284605F08AFA3A
:104E2000044640F2F8203988C2F200000460481CB1
:104E3000388004E040F2F820C2F200000468204606
:104E400000210025FFF758FC58B1C6E08C4201D97B
:104E5000002506E038884AF200050130C4F20C75DE
:104E6000388040F2F820C2F2000005602C46B4E021
:104E700040F2D20240F2D003C2F20002C2F20003BA
:104E800015881B780135002B18BF0025ABB2B3F590
:104E9000967F158010D30023138040F2BC120023AC
:104EA000C2F20002C4F27A53936040F2D00281F061
:104EB0000101C2F200021170FFF735FC05462046E1
:104EC000FFF731FC0146284605F034FA40F2F8219C
:104ED0003A88C2F200010860501C388050A00FF0E0
:104EE00025FA40F2F820C2F20000046820460021B2
:104EF000FFF702FC002870D140F2F820C2F2000057
:104F00000024046069E049A00FF010FA40F2D000DC
:104F1000C2F200000021017040F2D200C2F2000093
:104F2000018040F2BC104BF60001C2F20000C4F256
:104F30008871816040F2F8204AF200043988C2F298
:104F40000000C4F20C740460481C388045E0B6F8D8
:104F500094001FE0B6F89A001CE0B6F8A00019E033
:104F6000B6F8B20016E0B6F8B80013E0B6F8BE0026
:104F700010E0B6F8D0000DE0B6F8D6000AE0B6F8BA
:104F8000DC0007E0B6F8EE0004E0B6F8F40001E05B
:104F9000B6F8FA00FFF7C7FB0546706896F92810C7
:104FA0002044401AFFF7BFFB0146284605F0C2F92E
:104FB000044640F2F8203988C2F200000460481C20
:104FC0003880204600210025FFF796FB28B940F2E3
:104FD000F820C2F20000056000242046FFF7C6FB5F
:104FE000C8F800004FF08040016841F00101016005
:104FF00096F82E00002808BFBDE8F0870020C8F80A
:1050000000004FF08040016821F001010160BDE81F
:10501000F08700BF636C65616E20690D00000000C1
:10502000706964206F75747075740D0066756C6CB2
:1050300020706F776572206F75747075740D000045
:10504000636C6F7365206F75747075740D0000006C
:105050002DE9F0434FF0805707EAD1074FF0005693
:1050600006EA92064FF08045384305EA530530437F
:1050700040EA050843F20040C2F2000050E8017F18
:105080007E1C40E80165002DF8D142F6807C07F0D7
:105090003F0EC2F2000C0CEB0E1907F4707459F8B5
:1050A0000C5F48EA84376C0166D405F0004659E885
:1050B000004F3E43AC4246F0406607D149E80065E8
:1050C00035B9BFF35F8F012535B101E3BFF32F8FF2
:1050D0000025002D40F0FC8265014DD404F000460F
:1050E00059E8005F3E43A54246F0406608D149E8D2
:1050F00000643CB9BFF35F8F01243CB1E8E200BF1C
:10510000BFF32F8F0024002C40F0E2826C0133D4D7
:1051100005F0004659E8004F3E43AC4246F0406679
:1051200008D149E800653DB9BFF35F8F01253DB166
:10513000CEE200BFBFF32F8F0025002D40F0C882C4
:10514000650119D404F0004659E8005F3E43A542CA
:1051500046F0406608D149E800643CB9BFF35F8F70
:105160000124002C9FD0B3E2BFF32F8F0024002C2A
:105170003FF499AFACE200BF50E8014F671C40E834
:105180000176002EF8D104F03F0E0CEB0E1904F45A
:10519000707459F80C5F48EA84376C015ED405F0EE
:1051A000004659E8004F3E43AC4246F0406607D106
:1051B00049E8006535B9BFF35F8F012503E000BF03
:1051C000BFF32F8F0025002D40F08282650145D46A
:1051D00004F0004659E8005F3E43A54246F04066B1
:1051E00006D149E800642CB9BFF35F8F012402E0C7
:1051F000BFF32F8F0024002C40F06A826C012DD465
:1052000005F0004659E8004F3E43AC4246F0406688
:1052100006D149E800652DB9BFF35F8F012502E093
:10522000BFF32F8F0025002D40F05282650115D469
:1052300004F0004659E8005F3E43A54246F0406650
:1052400006D149E800642CB9BFF35F8F012402E066
:10525000BFF32F8F0024002C9FD039E250E8014F7C
:10526000671C40E80176002EF8D104F03F0E0CEBED
:105270000E1904F4707459F80C5F48EA84376C0115
:105280005ED405F0004659E8004F3E43AC4246F07C
:10529000406607D149E8006535B9BFF35F8F012546
:1052A00003E000BFBFF32F8F0025002D40F01082D8
:1052B000650145D404F0004659E8005F3E43A5422D
:1052C00046F0406606D149E800642CB9BFF35F8F11
:1052D000012402E0BFF32F8F0024002C40F0F8815E
:1052E0006C012DD405F0004659E8004F3E43AC4216
:1052F00046F0406606D149E800652DB9BFF35F8FDF
:10530000012502E0BFF32F8F0025002D40F0E08142
:10531000650115D404F0004659E8005F3E43A542FC
:1053200046F0406606D149E800642CB9BFF35F8FB0
:10533000012402E0BFF32F8F0024002C9FD0C7E18F
:1053400050E8014F671C40E80176002EF8D104F0C8
:105350003F0E0CEB0E1904F4707459F80C5F48EA18
:1053600084376C015ED405F0004659E8004F3E4397
:10537000AC4246F0406607D149E8006535B9BFF355
:105380005F8F012503E000BFBFF32F8F0025002DA5
:1053900040F09E81650145D404F0004659E8005F65
:1053A0003E43A54246F0406606D149E800642CB968
:1053B000BFF35F8F012402E0BFF32F8F0024002C86
:1053C00040F086816C012DD405F0004659E8004F6D
:1053D0003E43AC4246F0406606D149E800652DB92F
:1053E000BFF35F8F012502E0BFF32F8F0025002D53
:1053F00040F06E81650115D404F0004659E8005F65
:105400003E43A54246F0406606D149E800642CB907
:10541000BFF35F8F012402E0BFF32F8F0024002C25
:105420009FD055E150E8014F671C40E80176002EFF
:10543000F8D104F03F0E0CEB0E1904F4707459F817
:105440000C5F48EA84376C015ED405F0004659E8E9
:10545000004F3E43AC4246F0406606D149E8006545
:105460002DB9BFF35F8F012502E0BFF32F8F002519
:10547000002D40F02D81650146D404F0004659E826
:10548000005F3E43A54246F0406606D149E800640D
:105490002CB9BFF35F8F012402E0BFF32F8F0024EC
:1054A000002C40F015816C012ED405F0004659E81F
:1054B000004F3E43AC4246F0406606D149E80065E5
:1054C0002DB9BFF35F8F012502E0BFF32F8F0025B9
:1054D000002D40F0FD80650116D404F0004659E827
:1054E000005F3E43A54246F0406606D149E80064AD
:1054F0002CB9BFF35F8F012402E0BFF32F8F00248C
:10550000002CA0D0E4E000BF50E8014F671C40E849
:105510000176002EF8D104F03F0E0CEB0E1904F4C6
:10552000707459F80C5F48EA84376C015ED405F05A
:10553000004659E8004F3E43AC4246F0406606D173
:1055400049E800652DB9BFF35F8F012502E0BFF385
:105550002F8F0025002D40F0BB80650146D404F05C
:10556000004659E8005F3E43A54246F0406606D13A
:1055700049E800642CB9BFF35F8F012402E0BFF358
:105580002F8F0024002C40F0A3806C012ED405F056
:10559000004659E8004F3E43AC4246F0406606D113
:1055A00049E800652DB9BFF35F8F012502E0BFF325
:1055B0002F8F0025002D40F08B80650116D404F05C
:1055C000004659E8005F3E43A54246F0406606D1DA
:1055D00049E800642CB9BFF35F8F012402E0BFF3F8
:1055E0002F8F0024002CA0D072E000BF50E8014FA4
:1055F000671C40E80176002EF8D104F03F0E0CEB5A
:105600000E1904F4707459F80C7F48EA843800F1DC
:105610000C057C0100F1838007F0004659E8004F3B
:1056200046EA0806BC4246F0406606D149E80067F3
:105630002FB9BFF35F8F012702E0BFF32F8F002741
:10564000002F45D166016AD404F0004659E8007F76
:1056500046EA0806A74246F0406606D149E80064DB
:105660002CB9BFF35F8F012402E0BFF32F8F00241A
:1056700074BB7C0153D407F0004659E8004F46EA5A
:105680000806BC4246F0406606D149E800672FB9DB
:10569000BFF35F8F012702E0BFF32F8F0027BFB951
:1056A00066013CD404F0004659E8007F46EA08064B
:1056B000A74246F0406606D149E800642CB9BFF322
:1056C0005F8F012402E0BFF32F8F0024002CA0D0B5
:1056D00086F0004404F0004521F0004129444FEADF
:1056E0000E174CF8071022F0004123F000420CEB9B
:1056F0000E1629442A44C6E9011224F08061BFF342
:105700005F8FC9F8001000F10805012055E8001F5F
:10571000013145E80012002AF8D1BDE8F0830020ED
:10572000F4E700002DE9F04FE3B040F2F817C2F2C1
:1057300000073878032800F2E387DFE810F0040060
:10574000E4070F00B80740F2DB20C2F20000007847
:10575000002801F05D84012001F056BC40F2DA20FF
:10576000C2F2000000784EF60143C0F6010310F0CB
:1057700001014EF2000203F1050003F10707C0F634
:10578000010208BF901D08BF02F1080703F10906D6
:10579000002903F10B0508BF02F10A0608BF02F158
:1057A0000C0503F1D109002903F10D0B03F10F0AD8
:1057B00003F1110408BF02F1D20908BF02F10E0B78
:1057C000002908BF02F1100A08BF02F11204009478
:1057D00003F11304002908BF02F11404019403F13A
:1057E000150408BF02F11604029403F117040029FE
:1057F00008BF02F11804039403F1190408BF02F171
:105800001A04049403F11B04002908BF02F11C04CC
:10581000059403F11D0408BF02F11E04069403F170
:105820001F04002908BF02F12004079403F121049A
:1058300008BF02F12204089403F12304002908BFE1
:1058400002F12404099403F1250408BF02F126049F
:105850000A9403F12704002908BF02F128040B94DD
:1058600003F1290408BF02F12A040C9403F12B046C
:10587000002908BF02F12C040D9403F12D0408BF88
:1058800002F12E040E9403F12F04002908BF02F147
:1058900030040F9403F1310408BF02F13204109474
:1058A00003F13304002908BF02F13404119403F119
:1058B000350408BF02F13604129403F137040029BD
:1058C00008BF02F13804139403F1390408BF02F150
:1058D0003A04149403F13B04002908BF02F13C048C
:1058E000159403F13D0408BF02F13E04169403F140
:1058F0003F04002908BF02F14004179403F141045A
:1059000008BF02F14204189403F14304002908BFC0
:1059100002F14404199403F1450408BF02F146045E
:105920001A9403F14704002908BF02F148041B94AC
:1059300003F1490408BF02F14A041C9403F14B042B
:10594000002908BF02F14C041D9403F14D0408BF67
:1059500002F14E041E9403F14F04002908BF02F126
:1059600050041F9403F1510408BF02F15204209423
:1059700003F15304002908BF02F15404219403F1F8
:10598000550408BF02F15604229403F1570400297C
:1059900008BF02F15804239403F1590408BF02F12F
:1059A0005A04249403F15B04002908BF02F15C044B
:1059B000259403F15D0408BF02F15E04269403F10F
:1059C0005F04002908BF02F16004279403F1610419
:1059D00008BF02F16204289403F16304002908BFA0
:1059E00002F16404299403F1650408BF02F166041E
:1059F0002A9403F16704002908BF02F168042B947C
:105A000003F1690408BF02F16A042C9403F16B04EA
:105A1000002908BF02F16C042D9403F16D0408BF46
:105A200002F16E042E9403F16F04002908BF02F105
:105A300070042F9403F1710408BF02F172043094D2
:105A400003F17304002908BF02F17404319403F1D7
:105A5000750408BF02F17604329403F1770400293B
:105A600008BF02F17804339403F1790408BF02F10E
:105A70007A04349403F17B04002908BF02F17C040A
:105A8000359403F17D0408BF02F17E04369403F1DE
:105A90007F04002908BF02F18004379403F18104D8
:105AA00008BF02F18204389403F18304002908BF7F
:105AB00002F18404399403F1850408BF02F18604DD
:105AC0003A9403F18704002908BF02F188043B944B
:105AD00003F1890408BF02F18A043C9403F18B04AA
:105AE000002908BF02F18C043D9403F18D0408BF26
:105AF00002F18E043E9403F18F04002908BF02F1E5
:105B000090043F9403F1910408BF02F19204409481
:105B100003F19304002908BF02F19404419403F1B6
:105B2000950408BF02F19604429403F197040029FA
:105B300008BF02F19804439403F1990408BF02F1ED
:105B40009A04449403F19B04002908BF02F19C04C9
:105B5000459403F19D0408BF02F19E04469403F1AD
:105B60009F04002908BF02F1A004479403F1A10497
:105B700008BF02F1A204489403F1A304002908BF5E
:105B800002F1A404499403F1A50408BF02F1A6049C
:105B90004A9403F1A704002908BF02F1A8044B941A
:105BA00003F1A90408BF02F1AA044C9403F1AB0469
:105BB000002908BF02F1AC044D9403F1AD0408BF05
:105BC00002F1AE044E9403F1AF04002908BF02F1C4
:105BD000B0044F9403F1B10408BF02F1B204509431
:105BE00003F1B304002908BF02F1B404519403F196
:105BF000B50408BF02F1B604529403F1B7040029BA
:105C000008BF02F1B804539403F1B90408BF02F1CC
:105C1000BA04549403F1BB04002908BF02F1BC0488
:105C2000559403F1BD0408BF02F1BE04569403F17C
:105C3000BF04002908BF02F1C004579403F1C10456
:105C400008BF02F1C204589403F1C304002908BF3D
:105C500002F1C404599403F1C50408BF02F1C6045B
:105C60005A9403F1C704002908BF02F1C8045B94E9
:105C700003F1C90408BF02F1CA045C9403F1CB0428
:105C8000002908BF02F1CC045D9403F1CD0408BFE4
:105C900002F1CE045E9403F1CF04002908BF02F1A3
:105CA000D00441F270185F9403F1D504C2F20008E9
:105CB00008BF02F1D604002998F92810609403F176
:105CC000D70489B208BF02F1D80409F0F7FAB8F88E
:105CD0002210384609F0F2FAB8F82410304609F0DC
:105CE000EDFAB8F86E10284609F0E8FA98F8301086
:105CF000484609F0E3FA98F83110584609F0DEFA00
:105D000098F83210504609F0D9FA98F833100098F4
:105D100009F0D4FA98F83410019809F0CFFA98F8FD
:105D20003510029809F0CAFA98F83610039809F06D
:105D3000C5FA98F83810049809F0C0FA98F83910A4
:105D4000059809F0BBFA98F83A10069809F0B6FAE7
:105D500098F83B10079809F0B1FA98F83C100898A9
:105D600009F0ACFAB8F87610099809F0A7FAB8F873
:105D700078100A9809F0A2FAB8F87A100B9809F08E
:105D80009DFAB8F87C100C9809F098FAB8F87E10D3
:105D90000D9809F093FAB8F880100E9809F08EFA71
:105DA000B8F882100F9809F089FAB8F884101098A2
:105DB00009F084FAB8F88610119809F07FFAB8F85B
:105DC0008810129809F07AFAB8F88A10139809F036
:105DD00075FAB8F88C10149809F070FAB8F88E10AB
:105DE000159809F06BFAB8F89010169809F066FA51
:105DF000B8F89210179809F061FAB8F8941018984A
:105E000009F05CFAB8F89610199809F057FAB8F842
:105E100098101A9809F052FAB8F89A101B9809F0DD
:105E20004DFAB8F89C101C9809F048FAB8F89E1082
:105E30001D9809F043FAB8F8A0101E9809F03EFA30
:105E4000B8F8A2101F9809F039FAB8F8A4102098F1
:105E500009F034FAB8F8A610219809F02FFAB8F82A
:105E6000A810229809F02AFAB8F8AA10239809F085
:105E700025FAB8F8AC10249809F020FAB8F8AE105A
:105E8000259809F01BFAB8F8B010269809F016FA10
:105E9000B8F8B210279809F011FAB8F8B410289899
:105EA00009F00CFAB8F8B610299809F007FAB8F812
:105EB000B8102A9809F002FAB8F8BA102B9809F02D
:105EC000FDF9B8F8BC102C9809F0F8F9B8F8BE1034
:105ED0002D9809F0F3F9B8F8C0102E9809F0EEF9F2
:105EE000B8F8C2102F9809F0E9F9B8F8C410309842
:105EF00009F0E4F9B8F8C610319809F0DFF9B8F8FC
:105F0000C810329809F0DAF9B8F8CA10339809F0D5
:105F1000D5F9B8F8CC10349809F0D0F9B8F8CE100B
:105F2000359809F0CBF9B8F8D010369809F0C6F9D1
:105F3000B8F8D210379809F0C1F9B8F8D4103898E9
:105F400009F0BCF9B8F8D610399809F0B7F9B8F8E3
:105F5000D8103A9809F0B2F9B8F8DA103B9809F07D
:105F6000ADF9B8F8DC103C9809F0A8F9B8F8DE10E3
:105F70003D9809F0A3F9B8F8E0103E9809F09EF9B1
:105F8000B8F8E2103F9809F099F9B8F8E410409891
:105F900009F094F9B8F8E610419809F08FF9B8F8CB
:105FA000E810429809F08AF9B8F8EA10439809F025
:105FB00085F9B8F8EC10449809F080F9B8F8EE10BB
:105FC000459809F07BF9B8F8F010469809F076F991
:105FD000B8F8F210479809F071F9B8F8F410489839
:105FE00009F06CF9B8F8F610499809F067F9B8F8B3
:105FF000F8104A9809F062F9B8F8FA104B9809F0CD
:106000005DF9B8F8FC104C9809F058F9B8F8FE1092
:106010004D9809F053F9B8F800114E9809F04EF96F
:10602000B8F802114F9809F049F9B8F804115098DE
:1060300009F044F9B8F80611519809F03FF9B8F899
:106040000811529809F03AF9B8F80A11539809F072
:1060500035F9B8F80C11549809F030F9B8F80E1168
:10606000559809F02BF9B8F81011569809F026F94F
:10607000B8F81211579809F021F9B8F81411589886
:1060800009F01CF9B8F81611599809F017F9B8F881
:1060900018115A9809F012F9B8F81A115B9809F01A
:1060A0000DF9B8F81C115C9809F008F9B8F81E1140
:1060B0005D9809F003F9B8F820115E9809F0FEF830
:1060C000B8F822115F9809F0F9F8B8F8281160982B
:1060D00009F0F4F8B8F83011204609F0EFF898F913
:1060E000280040F20021C2F200010880B8F8220026
:1060F00040F20221C2F200010880B8F8240040F208
:106100000421C2F200010880B8F86E0040F20621B6
:10611000C2F20001088040F2082098F83010C2F264
:10612000000098F83120017040F20920C2F200000E
:1061300098F83230027040F20A20C2F2000098F85B
:106140003370037040F20B20C2F20000077098F821
:10615000340040F20C21C2F20001087098F83500BA
:1061600040F20D21C2F20001087040F20E2098F8B2
:106170003610C2F2000098F83820017040F20F206B
:10618000C2F2000098F83930027040F21020C2F2DA
:10619000000098F83A70037040F21120C2F200003B
:1061A000077098F83B0040F21221C2F2000108701B
:1061B00098F83C0040F21321C2F200010870B8F8D0
:1061C000760040F21421C2F200010880B8F878008D
:1061D00040F21621C2F200010880B8F87A0040F2BD
:1061E0001821C2F200010880B8F87C0040F21A21A0
:1061F000C2F200010880B8F87E0040F21C21C2F211
:1062000000010880B8F8800040F21E21C2F20001AF
:106210000880B8F8820040F22021C2F20001088014
:10622000B8F8840040F22221C2F200010880B8F8D8
:10623000860040F22421C2F200010880B8F88800EC
:1062400040F22621C2F200010880B8F88A0040F22C
:106250002821C2F200010880B8F88C0040F22A21FF
:10626000C2F200010880B8F88E0040F22C21C2F280
:1062700000010880B8F8900040F22E21C2F200011F
:106280000880B8F8920040F23021C2F20001088084
:10629000B8F8940040F23221C2F200010880B8F848
:1062A000960040F23421C2F200010880B8F898004C
:1062B00040F23621C2F200010880B8F89A0040F29C
:1062C0003821C2F200010880B8F89C0040F23A215F
:1062D000C2F200010880B8F89E0040F23C21C2F2F0
:1062E00000010880B8F8A00040F23E21C2F200018F
:1062F0000880B8F8A20040F24021C2F200010880F4
:10630000B8F8A40040F24221C2F200010880B8F8B7
:10631000A60040F24421C2F200010880B8F8A800AB
:1063200040F24621C2F200010880B8F8AA0040F20B
:106330004821C2F200010880B8F8AC0040F24A21BE
:10634000C2F200010880B8F8AE0040F24C21C2F25F
:1063500000010880B8F8B00040F24E21C2F20001FE
:106360000880B8F8B20040F25021C2F20001088063
:10637000B8F8B40040F25221C2F200010880B8F827
:10638000B60040F25421C2F200010880B8F8B8000B
:1063900040F25621C2F200010880B8F8BA0040F27B
:1063A0005821C2F200010880B8F8BC0040F25A211E
:1063B000C2F200010880B8F8BE0040F25C21C2F2CF
:1063C00000010880B8F8C00040F25E21C2F200016E
:1063D0000880B8F8C20040F26021C2F200010880D3
:1063E000B8F8C40040F26221C2F200010880B8F897
:1063F000C60040F26421C2F200010880B8F8C8006B
:1064000040F26621C2F200010880B8F8CA0040F2EA
:106410006821C2F200010880B8F8CC0040F26A217D
:10642000C2F200010880B8F8CE0040F26C21C2F23E
:1064300000010880B8F8D00040F26E21C2F20001DD
:106440000880B8F8D20040F27021C2F20001088042
:10645000B8F8D40040F27221C2F200010880B8F806
:10646000D60040F27421C2F200010880B8F8D800CA
:1064700040F27621C2F200010880B8F8DA0040F25A
:106480007821C2F200010880B8F8DC0040F27A21DD
:10649000C2F200010880B8F8DE0040F27C21C2F2AE
:1064A00000010880B8F8E00040F27E21C2F200014D
:1064B0000880B8F8E20040F28021C2F200010880B2
:1064C000B8F8E40040F28221C2F200010880B8F876
:1064D000E60040F28421C2F200010880B8F8E8002A
:1064E00040F28621C2F200010880B8F8EA0040F2CA
:1064F0008821C2F200010880B8F8EC0040F28A213D
:10650000C2F200010880B8F8EE0040F28C21C2F21D
:1065100000010880B8F8F00040F28E21C2F20001BC
:106520000880B8F8F20040F29021C2F20001088021
:10653000B8F8F40040F29221C2F200010880B8F8E5
:10654000F60040F29421C2F200010880B8F8F80089
:1065500040F29621C2F200010880B8F8FA0040F239
:106560009821C2F200010880B8F8FC0040F29A219C
:10657000C2F200010880B8F8FE0040F29C21C2F28D
:1065800000010880B8F8000140F29E21C2F200012B
:106590000880B8F8020140F2A021C2F20001088090
:1065A000B8F8040140F2A221C2F200010880B8F854
:1065B000060140F2A421C2F200010880B8F80801E7
:1065C00040F2A621C2F200010880B8F80A0140F2A8
:1065D000A821C2F200010880B8F80C0140F2AA21FB
:1065E000C2F200010880B8F80E0140F2AC21C2F2FC
:1065F00000010880B8F8100140F2AE21C2F200019B
:106600000880B8F8120140F2B021C2F200010880FF
:10661000B8F8140140F2B221C2F200010880B8F8C3
:10662000160140F2B421C2F200010880B8F8180146
:1066300040F2B621C2F200010880B8F81A0140F217
:10664000B821C2F200010880B8F81C0140F2BA215A
:10665000C2F200010880B8F81E0140F2BC21C2F26B
:1066600000010880B8F8200140F2BE21C2F200010A
:106670000880B8F8220140F2C021C2F2000108F5FA
:10668000947308800FCB40F2C827C2F20007C7E915
:10669000000140F2F817C2F2000740F2D02039782A
:1066A000C2F20000C0E90023481C00F0ADBC40F27B
:1066B000DA2440F2D825C2F20004C2F200054EF6F8
:1066C000014022782988C0F601004EF20003D9303B
:1066D000C0F60103D20708BF03F1DA0008F0EEFDAF
:1066E00042F20400C4F20200C16841F08001C160BE
:1066F0002888217801302880481C207000203870BC
:1067000063B0BDE8F08F40F2FA1A41F2701BC2F29A
:10671000000AC2F2000BBAF80000BBF8101040F2F9
:10672000FC1940F2FE188842C2F20009C2F20008C9
:1067300040F02184B9F800009BF81610884240F020
:106740001A84B8F800009BF81810884240F01384AF
:1067500040F20020C2F2000000889BF92810884215
:1067600040F0098440F20220C2F200000088BBF829
:106770002210884240F0FF8340F20420C2F2000061
:106780000088BBF82410884240F0F58340F20620D0
:10679000C2F200000088BBF86E10884240F0EB8324
:1067A00040F20820C2F2000000789BF830108842C6
:1067B00040F0E18340F20920C2F2000000789BF82B
:1067C0003110884240F0D78340F20A20C2F2000024
:1067D00000789BF83210884240F0CD8340F20B20C5
:1067E000C2F2000000789BF83310884240F0C38367
:1067F00040F20C20C2F2000000789BF8341088426E
:1068000040F0B98340F20D20C2F2000000789BF8FE
:106810003510884240F0AF8340F20E20C2F20000F3
:1068200000789BF83610884240F0A58340F20F2094
:10683000C2F2000000789BF83810884240F09B8339
:1068400040F21020C2F2000000789BF83910884214
:1068500040F0918340F21120C2F2000000789BF8D2
:106860003A10884240F0878340F21220C2F20000C2
:1068700000789BF83B10884240F07D8340F2132063
:10688000C2F2000000789BF83C10884240F073830D
:1068900040F21420C2F200000088BBF87610884253
:1068A00040F0698340F21620C2F200000088BBF875
:1068B0007810884240F05F8340F21820C2F2000056
:1068C0000088BBF87A10884240F0558340F21A20C5
:1068D000C2F200000088BBF87C10884240F04B8375
:1068E00040F21C20C2F200000088BBF87E108842F3
:1068F00040F0418340F21E20C2F200000088BBF845
:106900008010884240F0378340F22020C2F200001D
:106910000088BBF88210884240F02D8340F222208C
:10692000C2F200000088BBF88410884240F0238344
:1069300040F22420C2F200000088BBF88610884292
:1069400040F0198340F22620C2F200000088BBF814
:106950008810884240F00F8340F22820C2F20000E5
:106960000088BBF88A10884240F0058340F22A2054
:10697000C2F200000088BBF88C10884240F0FB8215
:1069800040F22C20C2F200000088BBF88E10884232
:1069900040F0F18240F22E20C2F200000088BBF8E5
:1069A0009010884240F0E78240F23020C2F20000AE
:1069B0000088BBF89210884240F0DD8240F232201D
:1069C000C2F200000088BBF89410884240F0D382E5
:1069D00040F23420C2F200000088BBF896108842D2
:1069E00040F0C98240F23620C2F200000088BBF8B5
:1069F0009810884240F0BF8240F23820C2F2000076
:106A00000088BBF89A10884240F0B58240F23A20E4
:106A1000C2F200000088BBF89C10884240F0AB82B4
:106A200040F23C20C2F200000088BBF89E10884271
:106A300040F0A18240F23E20C2F200000088BBF884
:106A4000A010884240F0978240F24020C2F200003D
:106A50000088BBF8A210884240F08D8240F24220AC
:106A6000C2F200000088BBF8A410884240F0838284
:106A700040F24420C2F200000088BBF8A610884211
:106A800040F0798240F24620C2F200000088BBF854
:106A9000A810884240F06F8240F24820C2F2000005
:106AA0000088BBF8AA10884240F0658240F24A2074
:106AB000C2F200000088BBF8AC10884240F05B8254
:106AC00040F24C20C2F200000088BBF8AE108842B1
:106AD00040F0518240F24E20C2F200000088BBF824
:106AE000B010884240F0478240F25020C2F20000CD
:106AF0000088BBF8B210884240F03D8240F252203C
:106B0000C2F200000088BBF8B410884240F0338223
:106B100040F25420C2F200000088BBF8B610884250
:106B200040F0298240F25620C2F200000088BBF8F3
:106B3000B810884240F01F8240F25820C2F2000094
:106B40000088BBF8BA10884240F0158240F25A2003
:106B5000C2F200000088BBF8BC10884240F00B82F3
:106B600040F25C20C2F200000088BBF8BE108842F0
:106B700040F0018240F25E20C2F200000088BBF8C3
:106B8000C010884240F0F78140F26020C2F200005D
:106B90000088BBF8C210884240F0ED8140F26220CC
:106BA000C2F200000088BBF8C410884240F0E381C4
:106BB00040F26420C2F200000088BBF8C610884290
:106BC00040F0D98140F26620C2F200000088BBF894
:106BD000C810884240F0CF8140F26820C2F2000025
:106BE0000088BBF8CA10884240F0C58140F26A2094
:106BF000C2F200000088BBF8CC10884240F0BB8194
:106C000040F26C20C2F200000088BBF8CE1088422F
:106C100040F0B18140F26E20C2F200000088BBF863
:106C2000D010884240F0A78140F27020C2F20000EC
:106C30000088BBF8D210884240F09D8140F272205B
:106C4000C2F200000088BBF8D410884240F0938163
:106C500040F27420C2F200000088BBF8D6108842CF
:106C600040F0898140F27620C2F200000088BBF833
:106C7000D810884240F07F8140F27820C2F20000B4
:106C80000088BBF8DA10884240F0758140F27A2023
:106C9000C2F200000088BBF8DC10884240F06B8133
:106CA00040F27C20C2F200000088BBF8DE1088426F
:106CB00040F0618140F27E20C2F200000088BBF803
:106CC000E010884240F0578140F28020C2F200007C
:106CD0000088BBF8E210884240F04D8140F28220EB
:106CE000C2F200000088BBF8E410884240F0438103
:106CF00040F28420C2F200000088BBF8E61088420F
:106D000040F0398140F28620C2F200000088BBF8D2
:106D1000E810884240F02F8140F28820C2F2000043
:106D20000088BBF8EA10884240F0258140F28A20B2
:106D3000C2F200000088BBF8EC10884240F01B81D2
:106D400040F28C20C2F200000088BBF8EE108842AE
:106D500040F0118140F28E20C2F200000088BBF8A2
:106D6000F010884240F0078140F29020C2F200000B
:106D70000088BBF8F210884240F0FD8040F292207B
:106D8000C2F200000088BBF8F410884240F0F380A3
:106D900040F29420C2F200000088BBF8F61088424E
:106DA00040F0E98040F29620C2F200000088BBF873
:106DB000F810884240F0DF8040F29820C2F20000D4
:106DC0000088BBF8FA10884240F0D58040F29A2043
:106DD000C2F200000088BBF8FC10884240F0CB8073
:106DE00040F29C20C2F200000088BBF8FE108842EE
:106DF00040F0C18040F29E20C2F200000088BBF843
:106E00000011884240F0B78040F2A020C2F200009A
:106E10000088BBF80211884240F0AD8040F2A22009
:106E2000C2F200000088BBF80411884240F0A38041
:106E300040F2A420C2F200000088BBF8061188428C
:106E400040F0998040F2A620C2F200000088BBF812
:106E50000811884240F08F8040F2A820C2F2000062
:106E60000088BBF80A11884240F0858040F2AA20D1
:106E7000C2F200000088BBF80C1188427BD140F2BE
:106E8000AC20C2F200000088BBF80E11884272D11B
:106E900040F2AE20C2F200000088BBF81011884218
:106EA00069D140F2B020C2F200000088BBF8121194
:106EB000884260D140F2B220C2F200000088BBF8E4
:106EC0001411884257D140F2B420C2F20000008869
:106ED000BBF8161188424ED140F2B620C2F2000033
:106EE0000088BBF81811884245D140F2B820C2F2A0
:106EF00000000088BBF81A1188423CD140F2BA2049
:106F0000C2F200000088BBF81C11884233D140F265
:106F1000BC20C2F200000088BBF81E1188422AD1B2
:106F200040F2BE20C2F200000088BBF82011884267
:106F300021D140F2C020C2F200000088BBF822112B
:106F4000884218D140F2C820C2F20000D0E9000106
:106F5000DBE94A235940504008430CD140F2D0208D
:106F6000C2F20000D0E90001DBE94C235940504057
:106F700008433FF4C5AB42F2040040F22311C4F2CF
:106F80000200C4F26751016048F6AB11CCF6EF5134
:106F9000016040F2DA20C2F2000000784EF20006F2
:106FA00010F001014EF60141C0F60101C0F60106E4
:106FB00001F1010401F1030508BFB41C08BF351D30
:106FC00060F38A2660F3CB26304608F0CBF9BBF895
:106FD0001010304608F072F99BF81610204608F0A1
:106FE0006DF99BF81810284608F068F9BBF81000F6
:106FF0009BF81810AAF800009BF81600A8F80010DB
:10700000A9F8000038780130387063B0BDE8F08F1F
:107010004EF200024FF66F644EF60143C0F60102D5
:1070200004F5C870C0F60103002702F5406180B284
:1070300047EA010636688DF8886147EA0306366834
:107040008DF889619DF889619DF8885145EA062689
:10705000ADF88A61BDF88A61ADF88661BDF88661D8
:10706000864203D06C2F07F10207E1D3BDF8867189
:10707000874226D00027561C47EA02052D688DF866
:10708000885147EA06052D688DF889519DF8895188
:107090009DF8884144EA0525ADF88A51BDF88A512A
:1070A000ADF88651BDF88651854203D06C2F07F1AB
:1070B0000207E1D3BDF886714FF66F64874240F056
:1070C000FB80002747EA010636688DF8886147EAA9
:1070D000030636688DF889619DF889619DF88851AD
:1070E00045EA0626ADF88A61BDF88A61ADF8866189
:1070F000BDF88661864203D06C2F07F10207E1D309
:10710000BDF88611814240F003810021531C00BF6D
:1071100041EA02073F688DF8887141EA03073F683A
:107120008DF889719DF889719DF8886146EA072775
:10713000ADF88A71BDF88A71ADF88671BDF88671B7
:10714000874203D06C2901F10201E1D3BDF8861119
:10715000814241F0278141F270103222C2F20000D8
:10716000C0F23C02C0F822201422A0F86E204FF09A
:107170000132C0F83220012280F836204FF48032EC
:10718000826340F22C12C0F22802C0F876201E2240
:10719000C0F24012C0F87A203222C0F22802C0F8B1
:1071A0007E2040F25E12C0F23C02C0F88220322201
:1071B000C0F27C12DC21C0F88620502201823C21E2
:1071C000C0F23C02142381756421C0F88A2040F289
:1071D0006E0C3C263222C8270A250A24C0F23C0342
:1071E00001760021C0F2140CC0F2C806C0F20A02F7
:1071F000C0F23207C0F2C805C0F26E04C0F8AE306B
:10720000C0F8EA300A2380F828100186C0F88EC042
:10721000C0F89260C0F89620C0F89A70C0F89E50EE
:10722000C0F8A220C0F8A670C0F8AA40C0F8B2709A
:10723000C0F8B650C0F8BA20C0F8BE70C0F8C2504E
:10724000C0F8C620C0F8CAC0C0F8CE60C0F8D220CE
:10725000C0F8D670C0F8DA50C0F8DE20C0F8E2708E
:10726000C0F8E640C0F8EE70C0F8F250C0F8F62062
:10727000C0F8FA70C0F8FE50C0F80221C0F806C18C
:10728000C0F80A61C0F80E21C0F81271C0F816519A
:10729000C0F81A21C0F81E71A0F82231C0E94A11C5
:1072A000C0E94C11C8204FF66F640A2209903220C1
:1072B0000792089002F0BEB8D3F8D900D3F8DA10DC
:1072C0008DF889018DF886119DF886019DF8891148
:1072D00041EA0020ADF88A01BDF88A0140F2DC21C4
:1072E000C2F200010880D2F8DA10D2F8DB708DF813
:1072F00089118DF886719DF886119DF8897147EA8C
:107300000121ADF88A11BDF88A11884241F24A8004
:10731000D2F8000C8DF8890118688DF886019DF867
:1073200086019DF8891141EA0020ADF88A01BDF877
:107330008A1141F27010C2F200000182D3F80110EC
:10734000D3F802208DF889118DF886219DF88611D9
:107350009DF8892142EA0121ADF88A11BDF88A1110
:107360008175D3F803105A688DF889118DF886213C
:107370009DF886119DF8892142EA0121ADF88A1114
:10738000BDF88A110176D3F80510D3F806208DF8E0
:1073900089118DF886219DF886119DF8892142EA90
:1073A0000121ADF88A11BDF88A1180F82810D3F8B0
:1073B00007109A688DF889118DF886219DF886113D
:1073C0009DF8892142EA0121ADF88A11BDF88A11A0
:1073D0004184D3F80910D3F80A208DF889118DF86B
:1073E00086219DF886119DF8892142EA0121ADF898
:1073F0008A11BDF88A118184D3F8D110D3F8D22034
:107400008DF889118DF886219DF886119DF88921C6
:1074100042EA0121ADF88A11BDF88A1180F83010D6
:10742000D3F80B10DA688DF889118DF886219DF854
:1074300086119DF8892142EA0121ADF88A11BDF833
:107440008A11A0F86E10D3F80D10D3F80E208DF825
:1074500089118DF886219DF886119DF8892142EACF
:107460000121ADF88A11BDF88A1180F83110D3F8E6
:107470000F101A698DF889118DF886219DF88611F3
:107480009DF8892142EA0121ADF88A11BDF88A11DF
:1074900080F83210D3F81110D3F812208DF889112A
:1074A0008DF886219DF886119DF8892142EA0121F7
:1074B000ADF88A11BDF88A1180F83310D3F8131093
:1074C0005A698DF889118DF886219DF886119DF8ED
:1074D000892142EA0121ADF88A11BDF88A1180F8AC
:1074E0003410D3F81510D3F816208DF889118DF8C3
:1074F00086219DF886119DF8892142EA0121ADF887
:107500008A11BDF88A1180F83510D3F817109A69DE
:107510008DF889118DF886219DF886119DF88921B5
:1075200042EA0121ADF88A11BDF88A1180F83610BF
:10753000D3F81910D3F81A208DF889118DF8862107
:107540009DF886119DF8892142EA0121ADF88A1142
:10755000BDF88A1180F83810D3F81B10DA698DF85D
:1075600089118DF886219DF886119DF8892142EABE
:107570000121ADF88A11BDF88A1180F83910D3F8CD
:107580001D10D3F81E208DF889118DF886219DF8E5
:1075900086119DF8892142EA0121ADF88A11BDF8D2
:1075A0008A1180F83A10D3F81F101A6A8DF88911E1
:1075B0008DF886219DF886119DF8892142EA0121E6
:1075C000ADF88A11BDF88A1180F83B10D3F821106C
:1075D000D3F822208DF889118DF886219DF8861127
:1075E0009DF8892142EA0121ADF88A11BDF88A117E
:1075F00080F83C10D3F823105A6A8DF889118DF861
:1076000086219DF886119DF8892142EA0121ADF875
:107610008A11BDF88A11A0F87610D3F82510D3F896
:1076200026208DF889118DF886219DF886119DF808
:10763000892142EA0121ADF88A11BDF88A11A0F82A
:107640007810D3F827109A6A8DF889118DF8862161
:107650009DF886119DF8892142EA0121ADF88A1131
:10766000BDF88A11A0F87A10D3F82910D3F82A208F
:107670008DF889118DF886219DF886119DF8892154
:1076800042EA0121ADF88A11BDF88A11A0F87C10F8
:10769000D3F82B10DA6A8DF889118DF886219DF8C0
:1076A00086119DF8892142EA0121ADF88A11BDF8C1
:1076B0008A11A0F87E10D3F82D10D3F82E208DF863
:1076C00089118DF886219DF886119DF8892142EA5D
:1076D0000121ADF88A11BDF88A11A0F88010D3F805
:1076E0002F101A6B8DF889118DF886219DF886115F
:1076F0009DF8892142EA0121ADF88A11BDF88A116D
:10770000A0F88210D3F83110D3F832208DF8891107
:107710008DF886219DF886119DF8892142EA012184
:10772000ADF88A11BDF88A11A0F88410D3F833108F
:107730005A6B8DF889118DF886219DF886119DF878
:10774000892142EA0121ADF88A11BDF88A11A0F819
:107750008610D3F83510D3F836208DF889118DF8BE
:1077600086219DF886119DF8892142EA0121ADF814
:107770008A11BDF88A11A0F88810D3F837109A6BD7
:107780008DF889118DF886219DF886119DF8892143
:1077900042EA0121ADF88A11BDF88A11A0F88A10D9
:1077A000D3F83910D3F83A208DF889118DF8862155
:1077B0009DF886119DF8892142EA0121ADF88A11D0
:1077C000BDF88A11A0F88C10D3F83B10DA6B8DF855
:1077D00089118DF886219DF886119DF8892142EA4C
:1077E0000121ADF88A11BDF88A11A0F88E10D3F8E6
:1077F0003D10D3F83E208DF889118DF886219DF833
:1078000086119DF8892142EA0121ADF88A11BDF85F
:107810008A11A0F89010D3F83F101A6C8DF88911D6
:107820008DF886219DF886119DF8892142EA012173
:10783000ADF88A11BDF88A11A0F89210D3F8411062
:10784000D3F842208DF889118DF886219DF8861194
:107850009DF8892142EA0121ADF88A11BDF88A110B
:10786000A0F89410D3F843105A6C8DF889118DF854
:1078700086219DF886119DF8892142EA0121ADF803
:107880008A11BDF88A11A0F89610D3F84510D3F8E4
:1078900046208DF889118DF886219DF886119DF876
:1078A000892142EA0121ADF88A11BDF88A11A0F8B8
:1078B0009810D3F847109A6C8DF889118DF88621AD
:1078C0009DF886119DF8892142EA0121ADF88A11BF
:1078D000BDF88A11A0F89A10D3F84910D3F84A20BD
:1078E0008DF889118DF886219DF886119DF88921E2
:1078F00042EA0121ADF88A11BDF88A11A0F89C1066
:10790000D3F84B10DA6C8DF889118DF886219DF82B
:1079100086119DF8892142EA0121ADF88A11BDF84E
:107920008A11A0F89E10D3F84D10D3F84E208DF890
:1079300089118DF886219DF886119DF8892142EAEA
:107940000121ADF88A11BDF88A11A0F8A010D3F872
:107950004F101A6D8DF889118DF886219DF88611CA
:107960009DF8892142EA0121ADF88A11BDF88A11FA
:10797000A0F8A210D3F85110D3F852208DF8891135
:107980008DF886219DF886119DF8892142EA012112
:10799000ADF88A11BDF88A11A0F8A410D3F85310DD
:1079A0005A6D8DF889118DF886219DF886119DF804
:1079B000892142EA0121ADF88A11BDF88A11A0F8A7
:1079C000A610D3F85510D3F856208DF889118DF8EC
:1079D00086219DF886119DF8892142EA0121ADF8A2
:1079E0008A11BDF88A11A0F8A810D3F857109A6D23
:1079F0008DF889118DF886219DF886119DF88921D1
:107A000042EA0121ADF88A11BDF88A11A0F8AA1046
:107A1000D3F85910D3F85A208DF889118DF88621A2
:107A20009DF886119DF8892142EA0121ADF88A115D
:107A3000BDF88A11A0F8AC10D3F85B10DA6D8DF8A0
:107A400089118DF886219DF886119DF8892142EAD9
:107A50000121ADF88A11BDF88A11A0F8AE10D3F853
:107A60005D10D3F85E208DF889118DF886219DF880
:107A700086119DF8892142EA0121ADF88A11BDF8ED
:107A80008A11A0F8B010D3F85F101A6E8DF8891122
:107A90008DF886219DF886119DF8892142EA012101
:107AA000ADF88A11BDF88A11A0F8B210D3F86110B0
:107AB000D3F862208DF889118DF886219DF8861102
:107AC0009DF8892142EA0121ADF88A11BDF88A1199
:107AD000A0F8B410D3F863105A6E8DF889118DF8A0
:107AE00086219DF886119DF8892142EA0121ADF891
:107AF0008A11BDF88A11A0F8B610D3F86510D3F832
:107B000066208DF889118DF886219DF886119DF8E3
:107B1000892142EA0121ADF88A11BDF88A11A0F845
:107B2000B810D3F867109A6E8DF889118DF88621F8
:107B30009DF886119DF8892142EA0121ADF88A114C
:107B4000BDF88A11A0F8BA10D3F86910D3F86A20EA
:107B50008DF889118DF886219DF886119DF889216F
:107B600042EA0121ADF88A11BDF88A11A0F8BC10D3
:107B7000D3F86B10DA6E8DF889118DF886219DF897
:107B800086119DF8892142EA0121ADF88A11BDF8DC
:107B90008A11A0F8BE10D3F86D10D3F86E208DF8BE
:107BA00089118DF886219DF886119DF8892142EA78
:107BB0000121ADF88A11BDF88A11A0F8C010D3F8E0
:107BC0006F101A6F8DF889118DF886219DF8861136
:107BD0009DF8892142EA0121ADF88A11BDF88A1188
:107BE000A0F8C210D3F87110D3F872208DF8891163
:107BF0008DF886219DF886119DF8892142EA0121A0
:107C0000ADF88A11BDF88A11A0F8C410D3F873102A
:107C10005A6F8DF889118DF886219DF886119DF88F
:107C2000892142EA0121ADF88A11BDF88A11A0F834
:107C3000C610D3F87510D3F876208DF889118DF819
:107C400086219DF886119DF8892142EA0121ADF82F
:107C50008A11BDF88A11A0F8C81093F879108DF830
:107C6000891193F87A208DF886219DF886719DF808
:107C7000896146EA0727ADF88A71BDF88A71A0F8D4
:107C8000CA708DF889118DF886219DF886119DF8AE
:107C9000892142EA0121ADF88A11BDF88A11A0F8C4
:107CA000CC10D3F87B10DA6F8DF889118DF886210E
:107CB0009DF886119DF8892142EA0121ADF88A11CB
:107CC000BDF88A11A0F8CE10D3F87D10D3F87E202D
:107CD0008DF889118DF886219DF886119DF88921EE
:107CE00042EA0121ADF88A11BDF88A11A0F8D0103E
:107CF000D3F87F10D3F880208DF889118DF8862174
:107D00009DF886119DF8892142EA0121ADF88A117A
:107D1000BDF88A11A0F8D210D3F88110D3F88220D0
:107D20008DF889118DF886219DF886119DF889219D
:107D300042EA0121ADF88A11BDF88A11A0F8D410E9
:107D4000D3F88310D3F884208DF889118DF886211B
:107D50009DF886119DF8892142EA0121ADF88A112A
:107D6000BDF88A11A0F8D610D3F88510D3F8862074
:107D70008DF889118DF886219DF886119DF889214D
:107D800042EA0121ADF88A11BDF88A11A0F8D81095
:107D9000D3F88710D3F888208DF889118DF88621C3
:107DA0009DF886119DF8892142EA0121ADF88A11DA
:107DB000BDF88A11A0F8DA10D3F88910D3F88A2018
:107DC0008DF889118DF886219DF886119DF88921FD
:107DD00042EA0121ADF88A11BDF88A11A0F8DC1041
:107DE000D3F88B10D3F88C208DF889118DF886216B
:107DF0009DF886119DF8892142EA0121ADF88A118A
:107E0000BDF88A11A0F8DE10D3F88D10D3F88E20BB
:107E10008DF889118DF886219DF886119DF88921AC
:107E200042EA0121ADF88A11BDF88A11A0F8E010EC
:107E3000D3F88F10D3F890208DF889118DF8862112
:107E40009DF886119DF8892142EA0121ADF88A1139
:107E5000BDF88A11A0F8E210D3F89110D3F892205F
:107E60008DF889118DF886219DF886119DF889215C
:107E700042EA0121ADF88A11BDF88A11A0F8E41098
:107E8000D3F89310D3F894208DF889118DF88621BA
:107E90009DF886119DF8892142EA0121ADF88A11E9
:107EA000BDF88A11A0F8E61093F897108DF88911A3
:107EB00093F898208DF886219DF886719DF8896148
:107EC00046EA0727ADF88A71BDF88A71A0F8E87014
:107ED0008DF889118DF886219DF886119DF88921EC
:107EE00042EA0121ADF88A11BDF88A11A0F8EA1022
:107EF000D3F89910D3F89A208DF889118DF886213E
:107F00009DF886119DF8892142EA0121ADF88A1178
:107F1000BDF88A11A0F8EC10D3F89B10D3F89C2080
:107F20008DF889118DF886219DF886119DF889219B
:107F300042EA0121ADF88A11BDF88A11A0F8EE10CD
:107F4000D3F89D10D3F89E208DF889118DF88621E5
:107F50009DF886119DF8892142EA0121ADF88A1128
:107F6000BDF88A11A0F8F010D3F89F10D3F8A02024
:107F70008DF889118DF886219DF886119DF889214B
:107F800042EA0121ADF88A11BDF88A11A0F8F21079
:107F9000D3F8A110D3F8A2208DF889118DF886218D
:107FA0009DF886119DF8892142EA0121ADF88A11D8
:107FB000BDF88A11A0F8F410D3F8A310D3F8A420C8
:107FC0008DF889118DF886219DF886119DF88921FB
:107FD00042EA0121ADF88A11BDF88A11A0F8F61025
:107FE000D3F8A510D3F8A6208DF889118DF8862135
:107FF0009DF886119DF8892142EA0121ADF88A1188
:10800000BDF88A11A0F8F810D3F8A710D3F8A8206B
:108010008DF889118DF886219DF886119DF88921AA
:1080200042EA0121ADF88A11BDF88A11A0F8FA10D0
:10803000D3F8A910D3F8AA208DF889118DF88621DC
:108040009DF886119DF8892142EA0121ADF88A1137
:10805000BDF88A11A0F8FC10D3F8AB10D3F8AC200F
:108060008DF889118DF886219DF886119DF889215A
:1080700042EA0121ADF88A11BDF88A11A0F8FE107C
:10808000D3F8AD10D3F8AE208DF889118DF8862184
:108090009DF886119DF8892142EA0121ADF88A11E7
:1080A000BDF88A11A0F80011D3F8AF10D3F8B020B2
:1080B0008DF889118DF886219DF886119DF889210A
:1080C00042EA0121ADF88A11BDF88A11A0F8021127
:1080D000D3F8B110D3F8B2208DF889118DF886212C
:1080E0009DF886119DF8892142EA0121ADF88A1197
:1080F000BDF88A11A0F8041193F8B5108DF8891114
:1081000093F8B6208DF886219DF886719DF88961D7
:1081100046EA0727ADF88A71BDF88A71A0F80671A2
:108120008DF889118DF886219DF886119DF8892199
:1081300042EA0121ADF88A11BDF88A11A0F80811B0
:10814000D3F8B710D3F8B8208DF889118DF88621AF
:108150009DF886119DF8892142EA0121ADF88A1126
:10816000BDF88A11A0F80A11D3F8B910D3F8BA20D3
:108170008DF889118DF886219DF886119DF8892149
:1081800042EA0121ADF88A11BDF88A11A0F80C115C
:10819000D3F8BB10D3F8BC208DF889118DF8862157
:1081A0009DF886119DF8892142EA0121ADF88A11D6
:1081B000BDF88A11A0F80E11D3F8BD10D3F8BE2077
:1081C0008DF889118DF886219DF886119DF88921F9
:1081D00042EA0121ADF88A11BDF88A11A0F8101108
:1081E000D3F8BF10D3F8C0208DF889118DF88621FF
:1081F0009DF886119DF8892142EA0121ADF88A1186
:10820000BDF88A11A0F81211D3F8C110D3F8C2201A
:108210008DF889118DF886219DF886119DF88921A8
:1082200042EA0121ADF88A11BDF88A11A0F81411B3
:10823000D3F8C310D3F8C4208DF889118DF88621A6
:108240009DF886119DF8892142EA0121ADF88A1135
:10825000BDF88A11A0F81611D3F8C510D3F8C620BE
:108260008DF889118DF886219DF886119DF8892158
:1082700042EA0121ADF88A11BDF88A11A0F818115F
:10828000D3F8C710D3F8C8208DF889118DF886214E
:108290009DF886119DF8892142EA0121ADF88A11E5
:1082A000BDF88A11A0F81A11D3F8C910D3F8CA2062
:1082B0008DF889118DF886219DF886119DF8892108
:1082C00042EA0121ADF88A11BDF88A11A0F81C110B
:1082D000D3F8CB10D3F8CC208DF889118DF88621F6
:1082E0009DF886119DF8892142EA0121ADF88A1195
:1082F000BDF88A11A0F81E110991D3F8CD10D3F85A
:10830000CE208DF889118DF886219DF886119DF873
:10831000892142EA0121ADF88A11BDF88A11A0F83D
:1083200020110891D3F8CF10D3F8D0208DF88911FF
:108330008DF886219DF886119DF8892142EA012158
:10834000ADF88A11BDF88A11A0F822110791D3F86F
:10835000D510D3F8D6208DF889118DF886219DF897
:1083600086119DF8892142EA0121ADF88A11BDF8F4
:108370008A110022C0E94A12D3F8D710D3F8D830B6
:108380008DF889118DF886319DF886119DF8893117
:1083900043EA0121ADF88A11BDF88A11C0E94C12F7
:1083A00001F048B81068D2F801108DF889018DF8F5
:1083B00086119DF886019DF8891141EA0020ADF8EB
:1083C0008A01BDF88A1141F27010C2F200000182E8
:1083D000D2F80210D2F803308DF889118DF8863169
:1083E0009DF886119DF8893143EA0121ADF88A1183
:1083F000BDF88A1181755168D2F805308DF8891160
:108400008DF886319DF886119DF8893143EA012166
:10841000ADF88A11BDF88A110176D2F80610D2F8AB
:1084200007308DF889118DF886319DF886119DF8F9
:10843000893143EA0121ADF88A11BDF88A1180F82B
:1084400028109168D2F809308DF889118DF886319D
:108450009DF886119DF8893143EA0121ADF88A1112
:10846000BDF88A114184D2F80A10D2F80B308DF889
:1084700089118DF886319DF886119DF8893143EA7E
:108480000121ADF88A11BDF88A118184D2F8D21089
:10849000D2F8D3308DF889118DF886319DF8861188
:1084A0009DF8893143EA0121ADF88A11BDF88A119E
:1084B00080F83010D168D2F80D308DF889118DF820
:1084C00086319DF886119DF8893143EA0121ADF886
:1084D0008A11BDF88A11A0F86E10D2F80E10D2F8E9
:1084E0000F308DF889118DF886319DF886119DF831
:1084F000893143EA0121ADF88A11BDF88A1180F86B
:1085000031101169D2F811308DF889118DF886314A
:108510009DF886119DF8893143EA0121ADF88A1151
:10852000BDF88A1180F83210D2F81210D2F8133048
:108530008DF889118DF886319DF886119DF8893165
:1085400043EA0121ADF88A11BDF88A1180F8331091
:108550005169D2F815308DF889118DF886319DF862
:1085600086119DF8893143EA0121ADF88A11BDF8E1
:108570008A1180F83410D2F81610D2F817308DF81E
:1085800089118DF886319DF886119DF8893143EA6D
:108590000121ADF88A11BDF88A1180F83510916972
:1085A000D2F819308DF889118DF886319DF8861131
:1085B0009DF8893143EA0121ADF88A11BDF88A118D
:1085C00080F83610D2F81A10D2F81B308DF88911C5
:1085D0008DF886319DF886119DF8893143EA012195
:1085E000ADF88A11BDF88A1180F83810D169D2F837
:1085F0001D308DF889118DF886319DF886119DF812
:10860000893143EA0121ADF88A11BDF88A1180F859
:108610003910D2F81E10D2F81F308DF889118DF85C
:1086200086319DF886119DF8893143EA0121ADF824
:108630008A11BDF88A1180F83A10116AD2F82130F7
:108640008DF889118DF886319DF886119DF8893154
:1086500043EA0121ADF88A11BDF88A1180F83B1078
:10866000D2F82210D2F823308DF889118DF8863196
:108670009DF886119DF8893143EA0121ADF88A11F0
:10868000BDF88A1180F83C10516AD2F825308DF877
:1086900089118DF886319DF886119DF8893143EA5C
:1086A0000121ADF88A11BDF88A11A0F87610D2F830
:1086B0002610D2F827308DF889118DF886319DF873
:1086C00086119DF8893143EA0121ADF88A11BDF880
:1086D0008A11A0F87810916AD2F829308DF88911A2
:1086E0008DF886319DF886119DF8893143EA012184
:1086F000ADF88A11BDF88A11A0F87A10D2F82A10C4
:10870000D2F82B308DF889118DF886319DF88611BD
:108710009DF8893143EA0121ADF88A11BDF88A112B
:10872000A0F87C10D16AD2F82D308DF889118DF81F
:1087300086319DF886119DF8893143EA0121ADF813
:108740008A11BDF88A11A0F87E10D2F82E10D2F846
:108750002F308DF889118DF886319DF886119DF89E
:10876000893143EA0121ADF88A11BDF88A11A0F8D8
:108770008010116BD2F831308DF889118DF8863167
:108780009DF886119DF8893143EA0121ADF88A11DF
:10879000BDF88A11A0F88210D2F83210D2F8333026
:1087A0008DF889118DF886319DF886119DF88931F3
:1087B00043EA0121ADF88A11BDF88A11A0F88410AE
:1087C000516BD2F835308DF889118DF886319DF8CE
:1087D00086119DF8893143EA0121ADF88A11BDF86F
:1087E0008A11A0F88610D2F83610D2F837308DF8FA
:1087F00089118DF886319DF886119DF8893143EAFB
:108800000121ADF88A11BDF88A11A0F88810916B8A
:10881000D2F839308DF889118DF886319DF886119E
:108820009DF8893143EA0121ADF88A11BDF88A111A
:10883000A0F88A10D2F83A10D2F83B308DF889119E
:108840008DF886319DF886119DF8893143EA012122
:10885000ADF88A11BDF88A11A0F88C10D16BD2F84E
:108860003D308DF889118DF886319DF886119DF87F
:10887000893143EA0121ADF88A11BDF88A11A0F8C7
:108880008E10D2F83E10D2F83F308DF889118DF855
:1088900086319DF886119DF8893143EA0121ADF8B2
:1088A0008A11BDF88A11A0F89010116CD2F84130ED
:1088B0008DF889118DF886319DF886119DF88931E2
:1088C00043EA0121ADF88A11BDF88A11A0F892108F
:1088D000D2F84210D2F843308DF889118DF88631E4
:1088E0009DF886119DF8893143EA0121ADF88A117E
:1088F000BDF88A11A0F89410516CD2F845308DF86B
:1089000089118DF886319DF886119DF8893143EAE9
:108910000121ADF88A11BDF88A11A0F89610D2F89D
:108920004610D2F847308DF889118DF886319DF8C0
:1089300086119DF8893143EA0121ADF88A11BDF80D
:108940008A11A0F89810916CD2F849308DF88911ED
:108950008DF886319DF886119DF8893143EA012111
:10896000ADF88A11BDF88A11A0F89A10D2F84A1011
:10897000D2F84B308DF889118DF886319DF886112B
:108980009DF8893143EA0121ADF88A11BDF88A11B9
:10899000A0F89C10D16CD2F84D308DF889118DF86B
:1089A00086319DF886119DF8893143EA0121ADF8A1
:1089B0008A11BDF88A11A0F89E10D2F84E10D2F894
:1089C0004F308DF889118DF886319DF886119DF80C
:1089D000893143EA0121ADF88A11BDF88A11A0F866
:1089E000A010116DD2F851308DF889118DF88631B3
:1089F0009DF886119DF8893143EA0121ADF88A116D
:108A0000BDF88A11A0F8A210D2F85210D2F8533053
:108A10008DF889118DF886319DF886119DF8893180
:108A200043EA0121ADF88A11BDF88A11A0F8A4101B
:108A3000516DD2F855308DF889118DF886319DF839
:108A400086119DF8893143EA0121ADF88A11BDF8FC
:108A50008A11A0F8A610D2F85610D2F857308DF827
:108A600089118DF886319DF886119DF8893143EA88
:108A70000121ADF88A11BDF88A11A0F8A810916DF6
:108A8000D2F859308DF889118DF886319DF886110C
:108A90009DF8893143EA0121ADF88A11BDF88A11A8
:108AA000A0F8AA10D2F85A10D2F85B308DF88911CC
:108AB0008DF886319DF886119DF8893143EA0121B0
:108AC000ADF88A11BDF88A11A0F8AC10D16DD2F8BA
:108AD0005D308DF889118DF886319DF886119DF8ED
:108AE000893143EA0121ADF88A11BDF88A11A0F855
:108AF000AE10D2F85E10D2F85F308DF889118DF883
:108B000086319DF886119DF8893143EA0121ADF83F
:108B10008A11BDF88A11A0F8B010116ED2F8613038
:108B20008DF889118DF886319DF886119DF889316F
:108B300043EA0121ADF88A11BDF88A11A0F8B210FC
:108B4000D2F86210D2F863308DF889118DF8863131
:108B50009DF886119DF8893143EA0121ADF88A110B
:108B6000BDF88A11A0F8B410516ED2F865308DF8B6
:108B700089118DF886319DF886119DF8893143EA77
:108B80000121ADF88A11BDF88A11A0F8B610D2F80B
:108B90006610D2F867308DF889118DF886319DF80E
:108BA00086119DF8893143EA0121ADF88A11BDF89B
:108BB0008A11A0F8B810916ED2F869308DF8891139
:108BC0008DF886319DF886119DF8893143EA01219F
:108BD000ADF88A11BDF88A11A0F8BA10D2F86A105F
:108BE000D2F86B308DF889118DF886319DF8861199
:108BF0009DF8893143EA0121ADF88A11BDF88A1147
:108C0000A0F8BC10D16ED2F86D308DF889118DF8B6
:108C100086319DF886119DF8893143EA0121ADF82E
:108C20008A11BDF88A11A0F8BE10D2F86E10D2F8E1
:108C30006F308DF889118DF886319DF886119DF879
:108C4000893143EA0121ADF88A11BDF88A11A0F8F3
:108C5000C010116FD2F871308DF889118DF88631FE
:108C60009DF886119DF8893143EA0121ADF88A11FA
:108C7000BDF88A11A0F8C210D2F87210D2F8733081
:108C80008DF889118DF886319DF886119DF889310E
:108C900043EA0121ADF88A11BDF88A11A0F8C41089
:108CA000516FD2F875308DF889118DF886319DF8A5
:108CB00086119DF8893143EA0121ADF88A11BDF88A
:108CC0008A11A0F8C610D2F87610D2F877308DF855
:108CD00089118DF886319DF886119DF8893143EA16
:108CE0000121ADF88A11BDF88A11A0F8C81092F8D8
:108CF0007A108DF8891192F87B308DF886319DF8C5
:108D000086719DF8896146EA0727ADF88A71BDF83A
:108D10008A71A0F8CA708DF889118DF886319DF896
:108D200086119DF8893143EA0121ADF88A11BDF819
:108D30008A11A0F8CC10D16FD2F87D308DF889114E
:108D40008DF886319DF886119DF8893143EA01211D
:108D5000ADF88A11BDF88A11A0F8CE10D2F87E10B5
:108D6000D2F87F308DF889118DF886319DF8861103
:108D70009DF8893143EA0121ADF88A11BDF88A11C5
:108D8000A0F8D010D2F88010D2F881308DF8891177
:108D90008DF886319DF886119DF8893143EA0121CD
:108DA000ADF88A11BDF88A11A0F8D210D2F882105D
:108DB000D2F883308DF889118DF886319DF88611AF
:108DC0009DF8893143EA0121ADF88A11BDF88A1175
:108DD000A0F8D410D2F88410D2F885308DF889111B
:108DE0008DF886319DF886119DF8893143EA01217D
:108DF000ADF88A11BDF88A11A0F8D610D2F8861005
:108E0000D2F887308DF889118DF886319DF886115A
:108E10009DF8893143EA0121ADF88A11BDF88A1124
:108E2000A0F8D810D2F88810D2F889308DF88911BE
:108E30008DF886319DF886119DF8893143EA01212C
:108E4000ADF88A11BDF88A11A0F8DA10D2F88A10AC
:108E5000D2F88B308DF889118DF886319DF8861106
:108E60009DF8893143EA0121ADF88A11BDF88A11D4
:108E7000A0F8DC10D2F88C10D2F88D308DF8891162
:108E80008DF886319DF886119DF8893143EA0121DC
:108E9000ADF88A11BDF88A11A0F8DE10D2F88E1054
:108EA000D2F88F308DF889118DF886319DF88611B2
:108EB0009DF8893143EA0121ADF88A11BDF88A1184
:108EC000A0F8E010D2F89010D2F891308DF8891106
:108ED0008DF886319DF886119DF8893143EA01218C
:108EE000ADF88A11BDF88A11A0F8E210D2F89210FC
:108EF000D2F893308DF889118DF886319DF886115E
:108F00009DF8893143EA0121ADF88A11BDF88A1133
:108F1000A0F8E410D2F89410D2F895308DF88911A9
:108F20008DF886319DF886119DF8893143EA01213B
:108F3000ADF88A11BDF88A11A0F8E61092F89810E1
:108F40008DF8891192F899308DF886319DF88671E7
:108F50009DF8896146EA0727ADF88A71BDF88A71E4
:108F6000A0F8E8708DF889118DF886319DF886118A
:108F70009DF8893143EA0121ADF88A11BDF88A11C3
:108F8000A0F8EA10D2F89A10D2F89B308DF8891127
:108F90008DF886319DF886119DF8893143EA0121CB
:108FA000ADF88A11BDF88A11A0F8EC10D2F89C1027
:108FB000D2F89D308DF889118DF886319DF8861193
:108FC0009DF8893143EA0121ADF88A11BDF88A1173
:108FD000A0F8EE10D2F89E10D2F89F308DF88911CB
:108FE0008DF886319DF886119DF8893143EA01217B
:108FF000ADF88A11BDF88A11A0F8F010D2F8A010CF
:10900000D2F8A1308DF889118DF886319DF886113E
:109010009DF8893143EA0121ADF88A11BDF88A1122
:10902000A0F8F210D2F8A210D2F8A3308DF889116E
:109030008DF886319DF886119DF8893143EA01212A
:10904000ADF88A11BDF88A11A0F8F410D2F8A41076
:10905000D2F8A5308DF889118DF886319DF88611EA
:109060009DF8893143EA0121ADF88A11BDF88A11D2
:10907000A0F8F610D2F8A610D2F8A7308DF8891112
:109080008DF886319DF886119DF8893143EA0121DA
:10909000ADF88A11BDF88A11A0F8F810D2F8A8101E
:1090A000D2F8A9308DF889118DF886319DF8861196
:1090B0009DF8893143EA0121ADF88A11BDF88A1182
:1090C000A0F8FA10D2F8AA10D2F8AB308DF88911B6
:1090D0008DF886319DF886119DF8893143EA01218A
:1090E000ADF88A11BDF88A11A0F8FC10D2F8AC10C6
:1090F000D2F8AD308DF889118DF886319DF8861142
:109100009DF8893143EA0121ADF88A11BDF88A1131
:10911000A0F8FE10D2F8AE10D2F8AF308DF8891159
:109120008DF886319DF886119DF8893143EA012139
:10913000ADF88A11BDF88A11A0F80011D2F8B0106C
:10914000D2F8B1308DF889118DF886319DF88611ED
:109150009DF8893143EA0121ADF88A11BDF88A11E1
:10916000A0F80211D2F8B210D2F8B3308DF88911FC
:109170008DF886319DF886119DF8893143EA0121E9
:10918000ADF88A11BDF88A11A0F8041192F8B61052
:109190008DF8891192F8B7308DF886319DF8867177
:1091A0009DF8896146EA0727ADF88A71BDF88A7192
:1091B000A0F806718DF889118DF886319DF8861119
:1091C0009DF8893143EA0121ADF88A11BDF88A1171
:1091D000A0F80811D2F8B810D2F8B9308DF889117A
:1091E0008DF886319DF886119DF8893143EA012179
:1091F000ADF88A11BDF88A11A0F80A11D2F8BA1098
:10920000D2F8BB308DF889118DF886319DF8861122
:109210009DF8893143EA0121ADF88A11BDF88A1120
:10922000A0F80C11D2F8BC10D2F8BD308DF889111D
:109230008DF886319DF886119DF8893143EA012128
:10924000ADF88A11BDF88A11A0F80E11D2F8BE103F
:10925000D2F8BF308DF889118DF886319DF88611CE
:109260009DF8893143EA0121ADF88A11BDF88A11D0
:10927000A0F81011D2F8C010D2F8C1308DF88911C1
:109280008DF886319DF886119DF8893143EA0121D8
:10929000ADF88A11BDF88A11A0F81211D2F8C210E7
:1092A000D2F8C3308DF889118DF886319DF886117A
:1092B0009DF8893143EA0121ADF88A11BDF88A1180
:1092C000A0F81411D2F8C410D2F8C5308DF8891165
:1092D0008DF886319DF886119DF8893143EA012188
:1092E000ADF88A11BDF88A11A0F81611D2F8C6108F
:1092F000D2F8C7308DF889118DF886319DF8861126
:109300009DF8893143EA0121ADF88A11BDF88A112F
:10931000A0F81811D2F8C810D2F8C9308DF8891108
:109320008DF886319DF886119DF8893143EA012137
:10933000ADF88A11BDF88A11A0F81A11D2F8CA1036
:10934000D2F8CB308DF889118DF886319DF88611D1
:109350009DF8893143EA0121ADF88A11BDF88A11DF
:10936000A0F81C11D2F8CC10D2F8CD308DF88911AC
:109370008DF886319DF886119DF8893143EA0121E7
:10938000ADF88A11BDF88A11A0F81E110991D2F822
:10939000CE10D2F8CF308DF889118DF886319DF836
:1093A00086119DF8893143EA0121ADF88A11BDF893
:1093B0008A11A0F820110891D2F8D010D2F8D1303B
:1093C0008DF889118DF886319DF886119DF88931C7
:1093D00043EA0121ADF88A11BDF88A11A0F82211E3
:1093E0000791D2F8D610D2F8D7308DF889118DF8C0
:1093F00086319DF886119DF8893143EA0121ADF847
:109400008A11BDF88A110023C0E94A13D2F8D81096
:10941000D2F8D9208DF889118DF886219DF8861112
:109420009DF8892142EA0121ADF88A11BDF88A111F
:10943000C0E94C1341F27012C2F20002118A4FF6D9
:109440001947A1F2F51080B2A0423CBF4FF49671CB
:109450001182937D4FF6194E03F13700C0B23B28BD
:109460009CBF50239375508C4993642824BF3220AD
:109470005084938C4890A3F2E73080B2B8429CBFEE
:109480003C23938492F830004FF66F6C022824BF7F
:10949000002082F8300092F83160022E24BF0026AE
:1094A00082F8316092F83240022C24BF012482F805
:1094B000324092F83350022D24BF012582F83350F8
:1094C00092F834704395032F24BF012782F834703B
:1094D00092F83550032D24BF012582F8355041956F
:1094E00092F83650032D24BF012582F8365046905D
:1094F00092F83800022824BF002082F838003F90FC
:1095000092F83900479328B1012301203E9082F858
:10951000393001E000203E9092F83A00022824BF42
:10952000012082F83A003D9092F83B00022824BFC7
:10953000002082F83B004A9192F828103C90A1F15B
:109540006500C0B236289CBF002182F82810B2F80E
:109550006E303B91A3F57A700EF1640180B289B24E
:1095600088423CBF1423A2F86E30B2F87610A1F204
:10957000F51080B260453CBF4FF49671A2F87610AA
:109580003991B2F8781008466091A1F1C9000CF148
:10959000CD0180B21FFA81FB584504D250215020E2
:1095A0006090A2F87810B2F87A10CDE94446A1F59F
:1095B0007A7080B24FF6194440954297A0423CBF62
:1095C0001E21A2F87A10B2F87CC04FF66F6E60468A
:1095D000ACF2F51080B270453891CDF87CC106D25E
:1095E0004FF496764FF496705F90A2F87C60B2F8D4
:1095F0007E10A1F1C90080B258453CBF5021A2F8AD
:109600007E10B2F88060A6F57A7080B2A0423CBFAE
:109610001E26A2F88060B2F882904846A9F2F510A2
:1096200080B27045CDF8789106D24FF496754FF41C
:1096300096705E90A2F88250B2F884504FF6194CA2
:10964000A5F1C90080B258453CBF5025A2F884500E
:10965000B2F886403A93A4F57A7080B260453CBF78
:109660001E24A2F88640B2F888804046A8F2F51081
:1096700080B27045CDF8748106D24FF496774FF4DE
:1096800096705D90A2F88870B2F88A30A3F1C90094
:1096900080B258453CBF5023A2F88A30B2F88C8083
:1096A000A8F57A7080B260453CBF4FF01E08A2F862
:1096B0008C80B2F88EA033935046AAF2F51080B297
:1096C0007045CDF870A104D2642364205C90A2F8A8
:1096D0008E30B2F890304FF61947A3F1C90080B22E
:1096E00058453CBF1423A2F890303193B2F8923021
:1096F00034A870C0A3F57A7080B2B8423CBF3C2356
:10970000A2F89230B2F894C030936046ACF2F510F3
:1097100080B27045CDF86CC104D2642664205B90A1
:10972000A2F89460B2F896C04FF61943ACF1C900A4
:1097300080B258453CBF4FF0140CA2F896C0379148
:10974000B2F89810A1F57A7080B298423CBF3C21E3
:10975000A2F898102E91B2F89A100846A1F2F510CE
:1097600080B270455A9104D2642164205A90A2F8C4
:109770009A10B2F89C10A1F1C90080B258453CBFC4
:109780001421A2F89C10B2F89E502D912846A5F500
:109790007A7080B29842599504D23C253C20599069
:1097A000A2F89E50B2F8A010A1F2F51080B2704558
:1097B0003CBF6421A2F8A010B2F8A2904846A9F1DB
:1097C000C90080B25845CDF8609104D21427142006
:1097D0005890A2F8A270B2F8A440A4F57A7080B2B2
:1097E00098423CBF3C24A2F8A440B2F8A670A7F26D
:1097F000F51080B270453CBF6427A2F8A670B2F89D
:10980000A850CDF8C880A5F1C90080B258453CBF2A
:109810001425A2F8A850B2F8AA804046A8F57A709C
:1098200080B29842CDF85C8106D23C233C20A2F85D
:10983000AA304FF619435790B2F8AC60A6F2F51073
:1098400080B270453CBF6426A2F8AC602C91B2F89F
:10985000AE10CDE928650846A1F1C90080B258458F
:10986000CDE92A74CDF8BCC0569104D2142114203D
:109870005690A2F8AE10B2F8B0C06046ACF57A705F
:1098800080B29842CDF854C104D23C263C20559079
:10989000A2F8B060B2F8B2C0ACF2F51080B2704578
:1098A0003CBF4FF0640CA2F8B2C0B2F8B410A1F102
:1098B000C90080B258453CBF1421A2F8B410B2F8D8
:1098C000B6A026915046AAF57A7080B29842CDF89B
:1098D00050A104D23C213C205490A2F8B610B2F81A
:1098E000B810A1F2F51080B270453CBF6421A2F817
:1098F000B810B2F8BA80A8F1C90080B258453CBF90
:109900004FF01408A2F8BA80B2F8BC904846A9F506
:109910007A7080B29842CDF84C9104D23C253C201C
:109920005390A2F8BC50B2F8BE40A4F2F51080B239
:1099300070453CBF6424A2F8BE40B2F8C0502591E7
:10994000A5F1C90080B258453CBF1425A2F8C0500B
:10995000B2F8C210A1F57A7080B298423CBF3C21A7
:10996000A2F8C210B2F8C470A7F2F51080B2704528
:109970003CBF6427A2F8C470B2F8C660A6F1C90063
:1099800080B258453CBF1426A2F8C660B2F8C8A001
:1099900021965046AAF57A7080B29842CDF848A137
:1099A00004D23C263C205290A2F8C860B2F8CA907B
:1099B000A9F2F51080B270453CBF4FF06409A2F8DF
:1099C000CA901F91B2F8CC10CDE92274A1F1C90060
:1099D00080B21C95CDF89CC058453CBF1421A2F81C
:1099E000CC10B2F8CEC06046ACF57A7080B2984226
:1099F000CDF844C104D23C273C205190A2F8CE704F
:109A0000B2F8D070A7F2F51080B270453CBF642761
:109A1000A2F8D070B2F8D240A4F1C90080B2584583
:109A20003CBF1424A2F8D2400A91B2F8D410CDF869
:109A30009080A1F57A7080B298423CBF3C21A2F898
:109A4000D410B2F8D6801B914046A8F2F51080B22F
:109A50007045CDF8408104D2642164205090A2F872
:109A6000D610B2F8D8E04FF66F65AEF1C90080B2FB
:109A700058453CBF4FF0140EA2F8D8E0B2F8DA0017
:109A8000B0F57A7F24BF3C20A2F8DA00B2F8DC10EF
:109A90001990A1F2F51080B2A8423CBF6421A2F84F
:109AA000DC10B2F8DE60A6F1C90080B258453CBFB8
:109AB0001426A2F8DE60B2F8E080A8F57A7080B2D1
:109AC00098423CBF4FF03C08A2F8E080B2F8E25068
:109AD0002846A5F2F5104F9580B24FF66F65A84263
