:020000040800F2
:10400000681900208541000849CD000811C000084A
:1040100045CD0008614C0008B933010800000000DC
:10402000000000000000000000000000A5300108B2
:10403000654C0008000000005D140108A93001086B
:104040009F4100089F4100089F4100089F410008D0
:104050009F4100089F4100089F4100089F410008C0
:104060009F4100089F4100089F4100089F410008B0
:104070009F4100089F4100089F4100089F410008A0
:104080009F4100089F4100089F4100089F41000890
:104090009F4100089F4100089F4100089F41000880
:1040A0009F4100089F4100089F4100089F41000870
:1040B0009F410008D93101089F4100089F41000835
:1040C0009F4100089F4100089F4100089F41000850
:1040D0009F410008013201089F4100088132010818
:1040E000995F00089F4100089F4100080000000000
:1040F00000000000000000000000000000000000C0
:10410000000000009F4100089F41000800000000DF
:104110009F4100089F4100080000000000000000CF
:104120009F4100089F4100089F4100089F410008EF
:10413000000000000000000000000000000000007F
:104140000000000000000000000000009F41000887
:1041500000000000000000009F4100089F4100088F
:104160000000000000000000000000009F41000867
:10417000DFF80CD000F018FA0048004789780108F1
:10418000681900200648804706480047FEE7FEE71A
:10419000FEE7FEE7FEE7FEE7FEE7FEE7FEE7FEE7F7
:1041A000093101087141000830B50B460146002075
:1041B0002022012409E021FA02F59D4205D303FAE9
:1041C00002F5491B04FA02F52844151EA2F101026A
:1041D000F1DC30BD2DE9F05F0546002092469B469C
:1041E00088460646814640241BE02846414647460D
:1041F000224600F0FAF953465A46C01A914110D3AC
:1042000011461846224600F0E1F92D1A67EB010825
:104210004F4622460120002100F0D8F917EB000993
:104220004E41201EA4F10104DFDC484631462A46F7
:104230004346BDE8F09F2DE9FE4F804681EA03002A
:10424000C00F0C46009021F0004123F00045B8EB70
:104250000200A94105D24046214690461C460B4625
:10426000024623F00040104347D0270DC7F30A0051
:10427000C3F30A510290401A019040286BDAC3F34D
:10428000130040F4801B0098924620B10023D2EB2B
:10429000030A63EB0B0B01985946C0F140025046EC
:1042A00000F094F906460D4650465946019A00F032
:1042B000ACF910EB08006141002487EA115284EA4E
:1042C000E7731A4340D0009A62B3019A012A4FEA79
:1042D000075215DC001B61EB02014FF0004202EABD
:1042E0000752CDE90042001C41F5801132462B46B1
:1042F00000F0ACF903B0BDE8F08F40462146F9E785
:10430000001B61EB0201001C41F5801300185B41AA
:104310002018A2F5001747EB030140EAD570B61943
:104320006D4111E06D084FEA360645EAC0754FEA67
:104330000752001B61EB0201001C41F58011490886
:104340004FEA30000019514132462B4603B0BDE818
:10435000F04F00F06CB90098012240000023D0EB30
:10436000020263EBE073009821464FEAE074B8EB79
:10437000000061EB0401E9E783F000435BE781F0B3
:10438000004158E72DE9FE4F81EA030404F00044A0
:1043900021F0004100944FF0000B23F0004350EA5D
:1043A00001045ED052EA03045BD0C3F30A54C1F3A4
:1043B0000A552C44A4F2F3340194A0FB0254C1F337
:1043C000130141F48011C3F3130343F4801301FB81
:1043D000024400FB034E840A970A44EA815447EAE8
:1043E0008357A4FB076802958D0A05FB07854FEAF2
:1043F000932C04FB0C542705029D4FEA065847EA0C
:104400001637B5EB08056EEB070C870E920E47EAE0
:10441000811742EA8312A7FB0201B6EB0B0164EBA2
:1044200000042B0D43EA0C335E1844EB1C50DA46B3
:104430005146E7FB0201C5F313044FEA0B3343EA8D
:1044400014534FEA0432019C43EA0603A4F10C041E
:104450000294009CCDE900B400F0F8F803B0BDE888
:10446000F08F00200146F9E72DE9F04D81EA0304C1
:1044700004F0004B21F0004514464FF0000A23F0F1
:10448000004150EA050220D054EA01021DD0C5F3D4
:104490000A570246C5F31303C1F31300C1F30A56CA
:1044A00040F4801543F48013A7EB0608101BD64692
:1044B00008F2FD3873EB050002D308F1010801E0B2
:1044C00092185B41B8F1000F03DA00200146BDE805
:1044D000F08D00204FF48011064684460EE0171B35
:1044E00073EB050705D3121B63EB050306434CEA88
:1044F000010C49084FEA300092185B4150EA01076D
:10450000EDD152EA030012D082EA040083EA0501E9
:10451000084305D0101BAB4106D20122002306E060
:1045200000224FF0004302E06FF0010253101AEB3B
:1045300006004CEB085110EB0A0041EB0B01BDE803
:10454000F04D00F074B8C1F30A52C1F3130140F208
:10455000FF3341F480119A4202DA0020014670478D
:1045600040F233439A42A2F2334202DC524200F05C
:104570003CB800F02BB8000030B5041E71F1000407
:1045800004DB4FF00044404264EB0101141E73F160
:10459000000405DB1C464FF00043524263EB04036A
:1045A000994208BF904230BD064C074D06E0E068D6
:1045B00040F0010394E8070098471034AC42F6D36A
:1045C000FFF7DAFDACA90108CCA90108202A04DB19
:1045D000203A00FA02F1002070479140C2F1200316
:1045E00020FA03F3194390407047202A04DB203A55
:1045F00021FA02F00021704721FA02F3D040C2F103
:1046000020029140084319467047202A06DBCB1749
:10461000203A41FA02F043EAE07306E041FA02F37D
:10462000D040C2F12002914008431946704710B5AE
:10463000141E73F1000408DA401C41F100019218C5
:104640005B411A4301D120F0010010BD2DE9F04D6E
:1046500092469B4611B1B1FA81F202E0B0FA80F2C3
:1046600020329046FFF7B2FF04460F4640EA0A00A8
:1046700041EA0B0153465A46084313D0114653EA08
:10468000010019D0C8F140025046FFF7AEFF0546C1
:104690000E46504659464246FFF798FF084305D05C
:1046A000012004E020463946BDE8F08D0020054396
:1046B00046EAE0762C4337430A986305E40AA0EB08
:1046C00008000022FD0A44EA47540A3002D50020BF
:1046D0000146E9E7010510196941DDE908450019BE
:1046E0006941BDE8F04DA2E740EA01039B0703D012
:1046F00009E008C9121F08C0042AFAD203E011F821
:10470000013B00F8013B521EF9D27047D2B201E0E2
:1047100000F8012B491EFBD270470022F6E710B5C6
:1047200013460A4604461946FFF7F0FF204610BD1F
:10473000F0B480EA0102D40F4200B2EB410F02D282
:104740000246084611464A0042D0C30DDDB2C1F30D
:10475000C752AD1A202D35DAC1F3160141F400021B
:1047600004B15242C5F1200602FA06F12A41104472
:10477000B3EBD05F23D0C4B1012DA0EBC35009DC53
:10478000F0BC4FF0004202EAC352DBB200F5000079
:1047900000F07BB9400000F1807000EBC350A0F145
:1047A000807040EAD170490009E0490841EAC071CF
:1047B000A0EBC35000F50000400800EBC350F0BC74
:1047C00000F05AB96142012202EB4101001BF6E7F9
:1047D000F0BC704781F00041AAE780F00040A7E7F5
:1047E00080EA010210B502F00043400022D04A00E6
:1047F0001FD0010E01EB1261C0F35600C2F3560246
:1048000040F4000042F40002A0FB022000047F39C3
:10481000140400D0401C50EA124001D44000491E4C
:10482000C2B20C0604EBD010401C4008802A02D013
:1048300003E0002010BD20F00100002900DA002074
:10484000184310BD30B480EA010202F0004530F098
:10485000004221F0004013D090B1C30DD40DC2F33B
:104860001601C0F31600E41A41F4000140F40002FE
:104870007D34914201D3641C00E04900002C02DA2F
:1048800030BC002070474FF400000023914201D358
:10489000891A034340084FEA4101F7D151B19142CF
:1048A00002D14FF0004105E002D24FF0010101E0DA
:1048B0006FF0010103EBC450284430BC00F0DCB8B9
:1048C000002801DBC0F10040002901DBC1F10041FB
:1048D000814201D80120704700207047002801DB89
:1048E000C0F10040002901DBC1F10041814201D249
:1048F0000120704700207047002801DBC0F1004014
:10490000002901DBC1F10041814201D30120704740
:1049100000207047002801DBC0F10040002901DBC6
:10492000C1F10041814201D9012070470020704748
:10493000C10F80EAE0700844CA079623002100F006
:10494000A4B896230022114600F09FB80EB5C10FFF
:1049500080EAE0700844CA07002140F233438DE842
:104960000E000A460B46FFF771FE03B000BD0EB500
:1049700040F2334102910021CDE900110A460B4675
:10498000FFF764FE03B000BD00F0004220F00040DD
:10499000C10DC0F3160040F400007F2901DA0020A9
:1049A0007047962903DCC1F19601C84001E09639B1
:1049B0008840002AF4D04042704720F00040C10DEA
:1049C000C0F3160040F400007F2901DA0020704790
:1049D000962903DCC1F19601C8407047963988409A
:1049E000704770B5C1F30A5201F000450024C1F3CD
:1049F000130140F2FF3341F480119A4201DA0020A2
:104A000070BD40F233439A42A2F2334203DC524279
:104A1000FFF7EBFD00E090402C43F1D0404270BD29
:104A2000C1F30A5210B5C1F3130140F2FF3341F450
:104A300080119A4201DA002010BD40F233439A42BD
:104A4000A2F2334203DC5242FFF7CFFD10BD90408B
:104A500010BD00F0004230F000400AD0C10D01F559
:104A60006071C0F3160042EA0151C20840071143C9
:104A700070470020014670470029A8BF7047401CBE
:104A8000490008BF20F00100704710B4B0FA80FC64
:104A900000FA0CF050EA010404BF10BC704749B1A1
:104AA000CCF1200421FA04F411FA0CF118BF012111
:104AB00021430843A3EB0C01CB1D4FEA00614FEAF1
:104AC000102042BF002010BC704700EBC3501044C0
:104AD0000029A4BF10BC7047401C490008BF20F04B
:104AE000010010BC7047000010B540F62444C2F22B
:104AF0000004204612F0AEFF04F1100012F0AAFFED
:104B000044F60000C4F20000206210BD80B582B0FF
:104B100040F25000C2F20000019001980078002895
:104B200040F09180FFE740F2B410C2F2000000783C
:104B3000042800F28780DFE800F003243157760074
:104B40000198007A012807D1FFE740F2B410C2F2C1
:104B500000000121017013E00198007A022807D1BA
:104B6000FFE740F2B410C2F200000221017006E03B
:104B700040F2B410C2F2000000210170FFE7FFE72D
:104B800060E040F25000C2F20000C068804740F28E
:104B9000B410C2F200000321017053E040F2500053
:104BA000C2F20000C068804740F2B810C2F20000B4
:104BB00001684268013142F1000201604260B1F1D6
:104BC000140072F100000ED3FFE740F2B410C2F2FD
:104BD00000000421017040F2B810C2F20000002170
:104BE00041600160FFE72DE040F2B810C2F2000022
:104BF00001684268013142F1000201604260881E92
:104C000072F100000ED3FFE740F2B810C2F20000CC
:104C100000214160016040F2B410C2F200000421A2
:104C20000170FFE70EE040F25000C2F200000069A0
:104C3000804701980021017240F2B410C2F20000D6
:104C40000170FFE709E040F25000C2F20000006985
:104C50008047019800210172FFE702B080BD00008B
:104C6000FFE7FEE770470000B0B540F2D400C2F2A3
:104C70000000008842F6E061884216DBFFE740F260
:104C8000D400C2F200000021018040F6E820C2F208
:104C90000000D0F83011D0F83421013142F1000287
:104CA000C0F83011C0F83421FFE740F6E820C2F226
:104CB000000090F83000002840F07783FFE740F6CE
:104CC000E820C2F2000090F82F00002840F0DB81BD
:104CD000FFE740F6E820C2F2000090F82D0000281F
:104CE00040F0A681FFE740F6E820C2F2000090F80D
:104CF0004100C007002800F09A81FFE740F2CC0095
:104D0000C2F20000007838B9FFE740F2CC00C2F2EE
:104D1000000001210170FFE713F0BEFA40F6E82120
:104D2000C2F20001B1F874201044486040F2CE0095
:104D3000C2F200000088098A884235D0FFE740F6B9
:104D4000E825C2F20005288AFFF7FBFD044640F281
:104D5000CE00C2F200000088FFF7F3FD01462046B6
:104D6000FFF738FDFFF775FE21F00041FFF739FE30
:104D700040F2D204C2F200042080288A10F072F8B7
:104D800085F82A0020880A2803DBFFE708F042F8AC
:104D9000FFE740F6E820C2F20000008A40F2CE01B0
:104DA000C2F200010880FFE740F6E820C2F20000EE
:104DB000416890F92A201144B0F92820891A008A04
:104DC0006430814261D8FFE740F6E820C2F200007B
:104DD000416890F92A201144B0F92820891A008AE4
:104DE0006438814251D3FFE740F6E820C2F2000068
:104DF00090F83B0001281CD1FFE740F6E825C2F2FD
:104E00000005288AFFF79DFD0446686895F92A1079
:104E10000844B5F92810401A3238FFF792FD0146D0
:104E2000204608F03DF840F6CC21C2F200010860AF
:104E300023E040F6E820C2F2000090F83B00D8B929
:104E4000FFE740F6E825C2F20005288AFFF779FD62
:104E50000446686895F92A100844B5F92810401AE4
:104E6000FFF76FFD0146204608F01AF840F6CC2106
:104E7000C2F200010860FFE7FFE740F2D400C2F28F
:104E80000000018801310180ADE040F6E820C2F267
:104E90000000416890F92A201144B0F92820891AAD
:104EA000008A643081424DD9FFE740F6E820C2F223
:104EB000000090F83B00012817D1FFE740F6E825F5
:104EC000C2F20005288AFFF73CFD0446686895F9A0
:104ED0002A100844B5F92810401A3238FFF731FD7E
:104EE0000146204607F0DCFF1EE040F6E820C2F253
:104EF000000090F83B00B0B9FFE740F6E825C2F2A9
:104F00000005288AFFF71DFD0446686895F92A10F8
:104F10000844B5F92810401AFFF713FD0146204652
:104F200007F0BEFFFFE7FFE740F6CC20C2F200002B
:104F30000021016040F2D400C2F20000018801317A
:104F400001804FE040F6E820C2F2000090F83B00FC
:104F5000012817D1FFE740F6E825C2F20005288AAC
:104F6000FFF7EFFC0446686895F92A100844B5F984
:104F70002810401A3238FFF7E4FC0146204607F0BB
:104F80008FFF1EE040F6E820C2F2000090F83B00E0
:104F9000B0B9FFE740F6E825C2F20005288AFFF71E
:104FA000D0FC0446686895F92A100844B5F9281021
:104FB000401AFFF7C6FC0146204607F071FFFFE7E5
:104FC000FFE740F6CC20C2F2000044F20001C4F238
:104FD0009C61016040F2D400C2F2000001880131FE
:104FE0000180FFE7FFE740F6CC20C2F20000006836
:104FF0000021FFF78FFC38B9FFE740F6CC20C2F262
:10500000000000210160FFE740F6CC20C2F2000062
:105010000068FFF7D2FC02464FF08040002113F0F9
:1050200059F94FF08040012113F09EF9FFE729E084
:1050300040F6E820C2F2000090F82D00012820D1AF
:10504000FFE70A2011F03EF940F6E821C2F2000124
:10505000B1F8742002EB9000486040F2CC00C2F23C
:1050600000000021017040F6CC20C2F20000016077
:105070004FF080400021002213F02CF907F0CAFE07
:10508000FFE7FFE790E140F6E820C2F2000090F869
:105090002F00032820D1FFE70A2011F013F940F672
:1050A000E821C2F20001B1F8742002EB90004860E0
:1050B00040F2CC00C2F200000021017040F6CC208A
:1050C000C2F2000001604FF080400021002213F086
:1050D00001F907F09FFE66E140F6E820C2F2000009
:1050E00090F82F00022840F05D81FFE740F6E820AD
:1050F000C2F2000090F82D00002840F02881FFE760
:1051000040F6E820C2F2000090F84100C0070028F5
:1051100000F01C81FFE740F2CC00C2F200000078F2
:1051200038B9FFE740F2CC00C2F200000121017063
:10513000FFE713F0B1F840F6E821C2F20001B1F840
:1051400074201044486040F2CE00C2F20000008893
:10515000098A884235D0FFE740F6E825C2F200050B
:10516000288AFFF7EEFB044640F2CE00C2F20000B0
:105170000088FFF7E6FB01462046FFF72BFBFFF711
:1051800068FC21F00041FFF72CFC40F2D204C2F28F
:1051900000042080288A0FF065FE85F82A00208808
:1051A0000A2803DBFFE707F035FEFFE740F6E820BB
:1051B000C2F20000008A40F2CE01C2F20001088073
:1051C000FFE740F6E820C2F20000416890F92A208B
:1051D0001144B0F92820891A028A408C10446430A6
:1051E000814236D8FFE740F6E820C2F2000041686D
:1051F00090F92A201144B0F92820891A028A408C9B
:1052000010446438814224D3FFE740F6E825C2F217
:105210000005288A698C0844FFF78AFB0446686801
:1052200095F92A100844B5F92810401AFFF789FBB0
:105230000146204607F034FE40F6CC21C2F20001C0
:10524000086040F2D400C2F2000001880131018000
:1052500058E040F6E820C2F20000416890F92A20A8
:105260001144B0F92820891A028A408C1044643015
:1052700081421ED9FFE740F6E825C2F20005288AE0
:10528000698C0844FFF754FB0446686895F92A10B6
:105290000844B5F92810401AFFF753FB0146204691
:1052A00007F0FEFD40F6CC20C2F2000000210160B4
:1052B00027E040F6E825C2F20005288A698C0844F8
:1052C000FFF736FB0446686895F92A100844B5F9DB
:1052D0002810401AFFF735FB0146204607F0E0FD95
:1052E00040F2D400C2F2000001880131018040F692
:1052F000CC20C2F2000044F20001C4F29C610160C3
:10530000FFE7FFE740F6CC20C2F200000068002172
:10531000FFF700FB38B9FFE740F6CC20C2F20000EF
:1053200000210160FFE740F6CC20C2F200000068D7
:10533000FFF743FB02464FF08040002112F0CAFF06
:105340004FF08040012113F00FF8FFE729E040F60D
:10535000E820C2F2000090F82D00012820D1FFE7DC
:105360000A2010F0AFFF40F6E821C2F20001B1F8C8
:10537000742002EB9000486040F2CC00C2F20000C2
:105380000021017040F6CC20C2F2000001604FF015
:1053900080400021002212F09DFF07F03BFDFFE757
:1053A000FFE7FFE7FFE7FFE7E6E340F6E820C2F2AA
:1053B000000090F83000012840F0DD83FFE740F660
:1053C000E820C2F2000090F83F00002840F0D283AD
:1053D000FFE740F6E820C2F2000090F83E00012806
:1053E00040F0A383FFE740F2D000C2F20000007853
:1053F00040F6E821C2F2000191F83D1088420ED03B
:10540000FFE740F6E820C2F2000090F83D0040F2CD
:10541000D001C2F20001087007F0FCFCFFE740F683
:10542000E820C2F2000090F84100C007002800F018
:105430007B83FFE712F030FF40F6E824C2F200045D
:10544000B4F8741008446060208A0FF00BFD84F8F3
:105450002A0094F86B00002840F0C980FFE740F66E
:10546000E820C2F2000090F83D00012823D1FFE7B8
:1054700040F6E825C2F20005B5F88E00FFF761FAA4
:105480000446686895F92A100844B5F92810401AAE
:10549000FFF757FA0146204607F002FD40F6CC21FF
:1054A000C2F20001086040F2D400C2F2000001889C
:1054B000013101809AE040F6E820C2F2000090F845
:1054C0003D00022823D1FFE740F6E825C2F200059F
:1054D000B5F89400FFF735FA0446686895F92A1084
:1054E0000844B5F92810401AFFF72BFA0146204668
:1054F00007F0D6FC40F6CC21C2F20001086040F271
:10550000D400C2F200000188013101806DE040F654
:10551000E820C2F2000090F83D00032823D1FFE705
:1055200040F6E825C2F20005B5F89A00FFF709FA3F
:105530000446686895F92A100844B5F92810401AFD
:10554000FFF7FFF90146204607F0AAFC40F6CC2100
:10555000C2F20001086040F2D400C2F200000188EB
:105560000131018040E040F6E820C2F2000090F8EE
:105570003D00042823D1FFE740F6E825C2F20005EC
:10558000B5F8A000FFF7DDF90446686895F92A1020
:105590000844B5F92810401AFFF7D3F90146204610
:1055A00007F07EFC40F6CC21C2F20001086040F218
:1055B000D400C2F2000001880131018013E040F6FE
:1055C000E820C2F2000090F83D0005280AD1FFE76C
:1055D00040F6E820C2F20000002180F83E1080F87A
:1055E0003D10FFE7FFE7FFE7FFE7FFE778E240F660
:1055F000E820C2F2000090F86B00012840F0C9805A
:10560000FFE740F6E820C2F2000090F83D000128D4
:1056100023D1FFE740F6E825C2F20005B5F8AC005B
:10562000FFF78FF90446686895F92A100844B5F920
:105630002810401AFFF785F90146204607F030FC94
:1056400040F6CC21C2F20001086040F2D400C2F260
:1056500000000188013101809AE040F6E820C2F2A2
:10566000000090F83D00022823D1FFE740F6E8252E
:10567000C2F20005B5F8B200FFF763F904466868A6
:1056800095F92A100844B5F92810401AFFF759F97E
:105690000146204607F004FC40F6CC21C2F200018E
:1056A000086040F2D400C2F200000188013101809C
:1056B0006DE040F6E820C2F2000090F83D000328BB
:1056C00023D1FFE740F6E825C2F20005B5F8B8009F
:1056D000FFF737F90446686895F92A100844B5F9C8
:1056E0002810401AFFF72DF90146204607F0D8FB95
:1056F00040F6CC21C2F20001086040F2D400C2F2B0
:10570000000001880131018040E040F6E820C2F24B
:10571000000090F83D00042823D1FFE740F6E8257B
:10572000C2F20005B5F8BE00FFF70BF90446686841
:1057300095F92A100844B5F92810401AFFF701F925
:105740000146204607F0ACFB40F6CC21C2F2000136
:10575000086040F2D400C2F20000018801310180EB
:1057600013E040F6E820C2F2000090F83D00052862
:105770000AD1FFE740F6E820C2F20000002180F8DD
:105780003E1080F83D10FFE7FFE7FFE7FFE7FFE788
:10579000A5E140F6E820C2F2000090F86B00022874
:1057A00040F0C980FFE740F6E820C2F2000090F820
:1057B0003D00012823D1FFE740F6E825C2F20005AD
:1057C000B5F8CA00FFF7BDF80446686895F92A10D5
:1057D0000844B5F92810401AFFF7B3F801462046EF
:1057E00007F05EFB40F6CC21C2F20001086040F2F7
:1057F000D400C2F200000188013101809AE040F635
:10580000E820C2F2000090F83D00022823D1FFE713
:1058100040F6E825C2F20005B5F8D000FFF791F890
:105820000446686895F92A100844B5F92810401A0A
:10583000FFF787F80146204607F032FB40F6CC21FF
:10584000C2F20001086040F2D400C2F200000188F8
:10585000013101806DE040F6E820C2F2000090F8CE
:105860003D00032823D1FFE740F6E825C2F20005FA
:10587000B5F8D600FFF765F80446686895F92A1070
:105880000844B5F92810401AFFF75BF80146204696
:1058900007F006FB40F6CC21C2F20001086040F29E
:1058A000D400C2F2000001880131018040E040F6DE
:1058B000E820C2F2000090F83D00042823D1FFE761
:1058C00040F6E825C2F20005B5F8DC00FFF739F82C
:1058D0000446686895F92A100844B5F92810401A5A
:1058E000FFF72FF80146204607F0DAFA40F6CC2100
:1058F000C2F20001086040F2D400C2F20000018848
:105900000131018013E040F6E820C2F2000090F877
:105910003D0005280AD1FFE740F6E820C2F200006A
:10592000002180F83E1080F83D10FFE7FFE7FFE719
:10593000FFE7FFE7D2E040F6E820C2F2000090F86F
:105940006B00032840F0C980FFE740F6E820C2F270
:10595000000090F83D00012823D1FFE740F6E8253C
:10596000C2F20005B5F8E800FEF7EBFF04466868F0
:1059700095F92A100844B5F92810401AFEF7E1FFFE
:105980000146204607F08CFA40F6CC21C2F2000115
:10599000086040F2D400C2F20000018801310180A9
:1059A0009AE040F6E820C2F2000090F83D0002289C
:1059B00023D1FFE740F6E825C2F20005B5F8EE0076
:1059C000FEF7BFFF0446686895F92A100844B5F948
:1059D0002810401AFEF7B5FF0146204607F060FA8E
:1059E00040F6CC21C2F20001086040F2D400C2F2BD
:1059F00000000188013101806DE040F6E820C2F22C
:105A0000000090F83D00032823D1FFE740F6E82589
:105A1000C2F20005B5F8F400FEF793FF044668688B
:105A200095F92A100844B5F92810401AFEF789FFA5
:105A30000146204607F034FA40F6CC21C2F20001BC
:105A4000086040F2D400C2F20000018801310180F8
:105A500040E040F6E820C2F2000090F83D00042843
:105A600023D1FFE740F6E825C2F20005B5F8FA00B9
:105A7000FEF767FF0446686895F92A100844B5F9EF
:105A80002810401AFEF75DFF0146204607F008FA8D
:105A900040F6CC21C2F20001086040F2D400C2F20C
:105AA000000001880131018013E040F6E820C2F2D5
:105AB000000090F83D0005280AD1FFE740F6E820F5
:105AC000C2F20000002180F83E1080F83D10FFE790
:105AD000FFE7FFE7FFE7FFE7FFE7FFE7FFE7FFE796
:105AE00040F6CC20C2F2000000680021FEF712FF51
:105AF00038B9FFE740F6CC20C2F200000021016077
:105B0000FFE740F6CC20C2F200000068FEF755FF28
:105B100002464FF08040002112F0DCFB4FF0804045
:105B2000012112F021FCFFE723E040F6E820C2F259
:105B3000000090F83E00D8B9FFE707F06BF90A20A3
:105B400010F0C0FB40F6E821C2F20001B1F8742069
:105B500002EB9000486040F6CC20C2F20000002129
:105B600001604FF080400021002212F0B3FBFFE7FC
:105B7000FFE7FFE7FFE7FFE7B0BD000080B50EF0ED
:105B80000FF840F6E820C2F2000090F8300000283C
:105B900040F01581FFE740F6E820C2F2000090F8DF
:105BA0002C0018B1FFE7012821D007E140F6E820DA
:105BB000C2F2000090F82D0040B9FFE740F6E8205F
:105BC000C2F20000012180F82C1007E040F6E82026
:105BD000C2F20000002180F82C10FFE740F6E82018
:105BE000C2F20000002180F82010C183E6E040F6F8
:105BF000E820C2F2000090F82F0050B1FFE740F615
:105C0000E820C2F2000090F82F00022840F0CA807D
:105C1000FFE740F6E820C2F2000090F82F000228CB
:105C200011D1FFE740F6E820C2F2000090F82D0005
:105C3000012808D1FFE740F6E820C2F20000002169
:105C400080F82F10FFE740F6E820C2F2000040681D
:105C50002E280AD3FFE740F6E820C2F20000406891
:105C600040F28A21884265D3FFE740F6E820C2F27D
:105C7000000090F82D0000285CD1FFE740F6E820F6
:105C8000C2F20000C18B0131C183C08B4B2818DBED
:105C9000FFE740F6E820C2F20000406840F28A21A7
:105CA00088420DD3FFE740F6E820C2F2000003214E
:105CB00080F82E10012180F820100021C1837DE0A2
:105CC000FFE740F6E820C2F20000C08B962830DBE8
:105CD000FFE740F6E820C2F2000040682D280DD80A
:105CE000FFE740F6E820C2F20000022180F82E1003
:105CF000012180F820100021C1835FE040F6E820F8
:105D0000C2F20000C068952808D8FFE740F6E820F6
:105D1000C2F20000012180F82E10FFE7FFE740F6F5
:105D2000E820C2F20000012180F820100021C18388
:105D300044E006E040F6E820C2F200000021C18302
:105D4000FFE740F6E820C2F2000090F82D0001289D
:105D500027D1FFE740F6E820C2F20000406846285D
:105D60001ED8FFE740F6E820C2F20000818B013127
:105D70008183808B652812DBFFE740F6E820C2F2C2
:105D80000000002180F82C10818340F25001C2F203
:105D9000000102220A72012180F820100EE0FFE7C4
:105DA000FFE70AE040F6E820C2F2000090F82F007A
:105DB000032801D1FFE7FFE7FFE7FFE7B7E040F681
:105DC000E820C2F2000090F83000012840F0AE80D8
:105DD000FFE740F6E820C2F2000090F83E000128FC
:105DE00040F0A380FFE740F6E820C2F2000090F800
:105DF0003F00002840F09880FFE740F6E820C2F21C
:105E0000000040682E2812D3FFE740F6E820C2F2D7
:105E10000000406840F28921884208D8FFE740F638
:105E2000E820C2F20000C068952875D8FFE740F668
:105E3000E820C2F2000090F82D0000286CD1FFE7A6
:105E400040F6E820C2F20000C18B0131C183C08B53
:105E50004B2820DBFFE740F6E820C2F20000406854
:105E600040F28A21884215D3FFE740F6E820C2F2CB
:105E70000000C06896280DD3FFE740F6E820C2F284
:105E80000000032180F82E10012180F8201000214D
:105E9000C183FFE7FFE740F6E820C2F20000C08BB5
:105EA000962838DBFFE740F6E820C2F200004068A1
:105EB0002D2815D8FFE740F6E820C2F20000C068A0
:105EC00096280DD3FFE740F6E820C2F20000022139
:105ED00080F82E10012180F820100021C18310E0ED
:105EE00040F6E820C2F20000C068952808D8FFE715
:105EF00040F6E820C2F20000012180F82E10FFE7F2
:105F0000FFE740F6E820C2F20000012180F82010EF
:105F10000021C183FFE706E040F6E820C2F200005E
:105F20000021C183FFE7FFE7FFE7FFE7FFE780BD51
:105F300082B00190019808B9FFE72BE00198002199
:105F40000170019843F2BD32C0F60102C0F8042886
:105F5000019841F26142C0F60102C0F808280091A0
:105F6000FFE70098B0F5806F0FDAFFE7019800991E
:105F70000844002180F802140198009A10444170EE
:105F8000FFE7009801300090EBE70198002180F8CE
:105F90000114FFE702B0704780B50FF085FA28B111
:105FA000FFE70FF075FAFEF75FFEFFE780BD000028
:105FB00082B0019041F24050C2F20000007818B95E
:105FC000FFE7002000900FE00198C0F3C62141F2E6
:105FD000C042C2F20002515CC0F3022021FA00F07C
:105FE00000F001000090FFE7009802B07047000049
:105FF00080B586B041F24050C2F200008069039043
:10600000FFE700F0BFFA04900498039988422CD26D
:10601000FFE7EFF3108005900598029072B641F209
:106020004050C2F2000080690190019803998842B3
:106030000ED1FFE7049841F24051C2F2000188619D
:10604000086901300861BFF35F8F0120009002E012
:1060500000200090FFE7029810B9FFE762B6FFE763
:10606000009808B9FFE701E008E0FFE7049903A8FA
:106070000DF0FEFC0028C4D0FFE7FFE7049806B04F
:1060800080BD000080B58CB04FF60061C0F2020107
:10609000099141F2B801C2F20001089107900898F5
:1060A00020B1FFE70798812803D3FFE700200A907B
:1060B000AEE00998FFF77CFF18B9FFE701200A90CE
:1060C000A6E0FFF795FF0590BDF824000990EFF3D7
:1060D00005800B900B98099941F40022002818BF05
:1060E0001146099108980690079850B9FFE709985A
:1060F00005990022002300F08DF8019001980A9084
:1061000086E0079808281BD8FFE70020029003903C
:106110000699079A02A8FEF7E7FA079800F0070029
:10612000099941EA00400990099840F040700599AA
:10613000029A039B00F06EF8019001980A9067E0C4
:1061400005F058FF4FF4E02101EA00400490069862
:1061500001684068039002910698083006900798FD
:10616000083807900498099908430990099840F065
:1061700080700599029A039B00F04CF801900198F9
:1061800018B9FFE700200A9042E004984FF6017129
:1061900008430990FFE7079809281CD3FFE70698F2
:1061A00001684068039002910698083006900798AD
:1061B0000838079009980599029A039B00F02AF87D
:1061C0000190099801300990019818B9FFE7002063
:1061D0000A901DE0DFE70020029003900699079ADD
:1061E00002A8FEF781FA099820F47F4009900798E9
:1061F000099941EA00200990099840F0007005993A
:10620000029A039B00F006F8019001980A90FFE7BC
:106210000CB080BD80B58CB00A90099108920793AC
:1062200007200590FFE70598002863D0FFE705F0F9
:10623000E5FE0490049800F03F0041F2C001C2F274
:10624000000101EB0010069004984FF4700101EA80
:10625000803001900A980199084309994FF08052C3
:1062600002EAD101084308994FF0005202EA910175
:10627000084307994FF0804202EA5101084340F079
:106280000060039006980C30039906F013FD03900C
:106290009DF80F004007002827D5FFE7039880F0FE
:1062A00000400390039800F000400290099820F00D
:1062B00000400299084306990860089820F00040C1
:1062C0000299084306994860079820F00040029917
:1062D00008430699886006980C3003990DF054F82D
:1062E00005F0A2FE01200B9009E0FFE705980138B8
:1062F000059098E705F08EFE00200B90FFE70B98C5
:106300000CB080BD87B00590049103920498FE28DC
:1063100004D8FFE70398FF2803D3FFE70020069087
:1063200036E0002002900190FFE7019803282CD866
:10633000FFE705980199C840C007F0B1FFE704984E
:106340000090FFE700980399884215D8FFE700986E
:1063500000F00701012202FA01F1029A02EBD000DB
:1063600041F2C042C2F20002135C19431154FFE72C
:10637000009801300090E5E7FFE702982030029096
:10638000FFE7019801300190CFE701200690FFE779
:1063900007B0704710B588B0002007900121069122
:1063A00041F24054C2F20004207041F2C040C2F2F7
:1063B00000008021FEF7B1F90EF08EF9ADF8120061
:1063C000206A42F26B71CEF2A51188420FD0FFE72E
:1063D00041F24050C2F2000042F26B71CEF2A511C0
:1063E0000162BDF8121041800121C1611CE041F23F
:1063F0004050C2F200004088BDF8121088420AD016
:10640000FFE7BDF8120041F24051C2F2000148809E
:106410000120C86107E041F24050C2F20000C169AA
:106420000131C161FFE7FFE741F24050C2F20000D5
:10643000C069012812D1FFE741F24050C2F20000CA
:106440000021417041608160C16041F2C000C2F230
:1064500000004FF48061FEF760F920E0002000901A
:10646000FFE700983F2819D8FFE7009841F2C001E4
:10647000C2F2000101EB001005900598C07B4007B7
:10648000002806D5FFE70598C16821F04061C1608A
:10649000FFE7FFE7009801300090E2E7FFE741F2F5
:1064A0004050C2F20000C069012818D1FFE700F097
:1064B00075F801200290029820B1FFE700F068F81B
:1064C000039002E000200390FFE7039841F240515F
:1064D000C2F20001486100208861086104E000F018
:1064E0005DF801200290FFE7029830B3FFE70798BC
:1064F0000021FE22FFF706FF0F20EF21EF22FFF71A
:1065000001FF0420FE21FE22FFF7FCFEFFF770FDD5
:106510000190019941F24050C2F200004369C26902
:106520004FF60070C0F20030FFF774FE069818B105
:10653000FFE700F005F8FFE7FFE708B010BD000037
:1065400010B582B041F24050C2F20000007818B19C
:10655000FFE70120019013E041F24050C2F2000039
:1065600001240470FFF744FD009000994FF601707C
:10657000C0F2003000220023FFF74CFE0194FFE739
:1065800002B010BD41F20400CEF200000068704776
:1065900040F29C00C2F20000006870474EF6FC50CA
:1065A000CEF20000016841F08071016041F200000C
:1065B000CEF20000016841F0010101607047000067
:1065C00070B581B040F6E820C2F20000009000985B
:1065D00000220270009842600098C2600099C820B2
:1065E0000882009B32219975009B1976009B4FF021
:1065F000280EA3F81AE0009B9A83009BDA83009B85
:1066000083F82020009B012483F82C40009B83F812
:106610002D20009B83F82E20009B5984009B4FF077
:106620003C0CA3F824C0009BDA84009B83F83C4018
:10663000009B83F83D40009B83F83020009B83F84B
:106640003120009B83F83240009B83F83320009B6D
:1066500083F83440009B83F83520009B022483F8A4
:106660003740009B83F83820009B83F83920009B3B
:1066700083F83A20009B83F84020009B83F8412058
:10668000009B83F84220009B312483F84340009B09
:106690002E2583F84450009B302683F84560009BEC
:1066A00083F84650009B83F84760009B83F857406F
:1066B000009B83F85850009B83F85960009B83F837
:1066C0005A50009B83F85B60009B83F86B20009B13
:1066D00083F86C20009C0A23A4F86E30009CA4F878
:1066E0007420009A4FF49674A2F87640009AA2F8AB
:1066F00078E0009A1E24A2F87A40009A4FF4A07421
:10670000A2F87C40009AA2F87E10009AA2F880E0DD
:10671000009A4FF4AF76A2F88260009AA2F884C083
:10672000009AA2F88610009A4FF4BE76A2F888600C
:10673000009A5026A2F88A60009AA2F88CC0009AAB
:106740004FF0640EA2F88EE0009C1422A4F8902072
:10675000009CA4F892C0009CA4F89400009CA4F8AB
:106760009610009CA4F89830009CA4F89A00009C15
:10677000A4F89C10009CA4F89E30009CA4F8A000F3
:10678000009CA4F8A210009CA4F8A430009CA4F8DB
:10679000A600009CA4F8A810009CA4F8AA30009CB5
:1067A000A4F8ACE0009CA4F8AE20009CA4F8B0C013
:1067B000009CA4F8B200009CA4F8B410009CA4F8BB
:1067C000B630009CA4F8B800009CA4F8BA10009C55
:1067D000A4F8BC30009CA4F8BE00009CA4F8C01033
:1067E000009CA4F8C230009CA4F8C400009CA4F84B
:1067F000C610009CA4F8C830009CA4F8CAE0009C15
:10680000A4F8CC20009CA4F8CEC0009CA4F8D00032
:10681000009CA4F8D210009CA4F8D430009CA4F8EA
:10682000D600009CA4F8D810009CA4F8DA30009C94
:10683000A4F8DC00009CA4F8DE10009CA4F8E03072
:10684000009CA4F8E200009CA4F8E410009CA4F8CA
:10685000E630009CA4F8E8E0009CA4F8EA20009C44
:10686000A4F8ECC0009CA4F8EE00009CA4F8F01082
:10687000009CA4F8F230009CA4F8F400009CA4F85A
:10688000F610009CA4F8F830009CA4F8FA00009CD4
:10689000A4F8FC10009CA4F8FE30009CA4F80001B1
:1068A000009CA4F80211009CA4F80431009CA4F8F8
:1068B00006E1009EA6F80821009AA2F80AC1009AF3
:1068C000A2F80C01009AA2F80E11009AA2F8103159
:1068D000009AA2F81201009AA2F81411009AA2F8E4
:1068E0001631009AA2F81801009AA2F81A11009A1B
:1068F000A2F81C31009AA2F81E010098A0F82011FD
:106900000098A0F8223101B070BD0000B0B540F28F
:10691000C010C2F200000078032805F26983DFE8A6
:1069200010F004003A1BD421302B40F29B20C2F21D
:1069300000000078002843F02483FFE74FF2004076
:10694000C0F601000EF060FA4FF6FF71884200F0C9
:10695000C586FFE74FF60000C0F601000EF054FABE
:106960004FF6FF71884200F0B986FFE74FF2D4403E
:10697000C0F601000FF074FC40F29C24C2F2000447
:1069800020804FF6D600C0F601000FF069FC40F2FF
:106990009E21C2F20001088020880988884240F3C5
:1069A0004D83FFE74FF20040C0F601000FF058FCA6
:1069B00040F6E825C2F2000528824FF20240C0F6F8
:1069C00001000FF04DFCA8754FF20440C0F6010025
:1069D0000FF046FC28764FF20640C0F601000FF09B
:1069E0003FFC28854FF20840C0F601000FF038FC4C
:1069F00068844FF20A40C0F601000FF031FCA88411
:106A00004FF2CC40C0F601000FF02AFC85F83000B0
:106A10004FF20C44C0F6010420460FF021FCA5F80B
:106A20006E0020460FF01CFC85F831004FF20E403E
:106A3000C0F601000FF014FC85F832004FF2104050
:106A4000C0F601000FF00CFC85F833004FF2124045
:106A5000C0F601000FF004FC85F834004FF214403A
:106A6000C0F601000FF0FCFB85F835004FF2164030
:106A7000C0F601000FF0F4FB85F836004FF2184025
:106A8000C0F601000FF0ECFB85F838004FF21A4019
:106A9000C0F601000FF0E4FB85F839004FF21C400E
:106AA000C0F601000FF0DCFB85F83A004FF21E4003
:106AB000C0F601000FF0D4FBA5F876004FF220409D
:106AC000C0F601000FF0CCFBA5F878004FF2224091
:106AD000C0F601000FF0C4FBA5F87A004FF2244085
:106AE000C0F601000FF0BCFBA5F87C004FF2264079
:106AF000C0F601000FF0B4FBA5F87E004FF228406D
:106B0000C0F601000FF0ACFBA5F880004FF22A4060
:106B1000C0F601000FF0A4FBA5F882004FF22C4054
:106B2000C0F601000FF09CFBA5F884004FF22E4048
:106B3000C0F601000FF094FBA5F886004FF230403C
:106B4000C0F601000FF08CFBA5F888004FF2324030
:106B5000C0F601000FF084FBA5F88A004FF2344024
:106B6000C0F601000FF07CFBA5F88C004FF2364018
:106B7000C0F601000FF074FBA5F88E004FF238400C
:106B8000C0F601000FF06CFBA5F890004FF23A4000
:106B9000C0F601000FF064FBA5F892004FF23C40F4
:106BA000C0F601000FF05CFBA5F894004FF23E40E8
:106BB000C0F601000FF054FBA5F896004FF24040DC
:106BC000C0F601000FF04CFBA5F898004FF24240D0
:106BD000C0F601000FF044FBA5F89A004FF24440C4
:106BE000C0F601000FF03CFBA5F89C004FF24640B8
:106BF000C0F601000FF034FBA5F89E004FF24840AC
:106C0000C0F601000FF02CFBA5F8A0004FF24A409F
:106C1000C0F601000FF024FBA5F8A2004FF24C4093
:106C2000C0F601000FF01CFBA5F8A4004FF24E4087
:106C3000C0F601000FF014FBA5F8A6004FF250407B
:106C4000C0F601000FF00CFBA5F8A8004FF252406F
:106C5000C0F601000FF004FBA5F8AA004FF2544063
:106C6000C0F601000FF0FCFAA5F8AC004FF2564058
:106C7000C0F601000FF0F4FAA5F8AE004FF258404C
:106C8000C0F601000FF0ECFAA5F8B0004FF25A4040
:106C9000C0F601000FF0E4FAA5F8B2004FF25C4034
:106CA000C0F601000FF0DCFAA5F8B4004FF25E4028
:106CB000C0F601000FF0D4FAA5F8B6004FF260401C
:106CC000C0F601000FF0CCFAA5F8B8004FF2624010
:106CD000C0F601000FF0C4FAA5F8BA004FF2644004
:106CE000C0F601000FF0BCFAA5F8BC004FF26640F8
:106CF000C0F601000FF0B4FAA5F8BE004FF26840EC
:106D0000C0F601000FF0ACFAA5F8C0004FF26A40DF
:106D1000C0F601000FF0A4FAA5F8C2004FF26C40D3
:106D2000C0F601000FF09CFAA5F8C4004FF26E40C7
:106D3000C0F601000FF094FAA5F8C6004FF27040BB
:106D4000C0F601000FF08CFAA5F8C8004FF27444A9
:106D5000C0F6010420460FF083FAA5F8CA002046C9
:106D60000FF07EFAA5F8CC004FF27640C0F6010095
:106D70000FF076FAA5F8CE004FF27840C0F6010089
:106D80000FF06EFAA5F8D0004FF27A40C0F601007D
:106D90000FF066FAA5F8D2004FF27C40C0F6010071
:106DA0000FF05EFAA5F8D4004FF27E40C0F6010065
:106DB0000FF056FAA5F8D6004FF28040C0F6010059
:106DC0000FF04EFAA5F8D8004FF28240C0F601004D
:106DD0000FF046FAA5F8DA004FF28440C0F6010041
:106DE0000FF03EFAA5F8DC004FF28640C0F6010035
:106DF0000FF036FAA5F8DE004FF28840C0F6010029
:106E00000FF02EFAA5F8E0004FF28A40C0F601001C
:106E10000FF026FAA5F8E2004FF28C40C0F6010010
:106E20000FF01EFAA5F8E4004FF28E40C0F6010004
:106E30000FF016FAA5F8E6004FF29244C0F60104EE
:106E400020460FF00DFAA5F8E80020460FF008FAEA
:106E5000A5F8EA004FF29440C0F601000FF000FAE6
:106E6000A5F8EC004FF29640C0F601000FF0F8F9DB
:106E7000A5F8EE004FF29840C0F601000FF0F0F9CF
:106E8000A5F8F0004FF29A40C0F601000FF0E8F9C3
:106E9000A5F8F2004FF29C40C0F601000FF0E0F9B7
:106EA000A5F8F4004FF29E40C0F601000FF0D8F9AB
:106EB000A5F8F6004FF2A040C0F601000FF0D0F99F
:106EC000A5F8F8004FF2A240C0F601000FF0C8F993
:106ED000A5F8FA004FF2A440C0F601000FF0C0F987
:106EE000A5F8FC004FF2A640C0F601000FF0B8F97B
:106EF000A5F8FE004FF2A840C0F601000FF0B0F96F
:106F0000A5F800014FF2AA40C0F601000FF0A8F961
:106F1000A5F802014FF2AC40C0F601000FF0A0F955
:106F2000A5F804014FF2B044C0F6010420460FF06A
:106F300097F9A5F8060120460FF092F9A5F8080187
:106F40004FF2B240C0F601000FF08AF9A5F80A012D
:106F50004FF2B440C0F601000FF082F9A5F80C0121
:106F60004FF2B640C0F601000FF07AF9A5F80E0115
:106F70004FF2B840C0F601000FF072F9A5F8100109
:106F80004FF2BA40C0F601000FF06AF9A5F81201FD
:106F90004FF2BC40C0F601000FF062F9A5F81401F1
:106FA0004FF2BE40C0F601000FF05AF9A5F81601E5
:106FB0004FF2C040C0F601000FF052F9A5F81801D9
:106FC0004FF2C240C0F601000FF04AF9A5F81A01CD
:106FD0004FF2C440C0F601000FF042F9A5F81C01C1
:106FE0004FF2C640C0F601000FF03AF9A5F81E01B5
:106FF0004FF2C840C0F601000FF032F9A5F82001A9
:107000004FF2CA40C0F601000FF02AF9A5F822019C
:107010004FF2D040C0F601000FF022F90024C5F86D
:107020002C41C5F828014FF2D240C0F601000FF004
:1070300017F9C5F83441C5F830014DE34FF60000AB
:10704000C0F601000FF00CF940F6E825C2F2000589
:1070500028824FF60200C0F601000FF001F9A87572
:107060004FF60400C0F601000FF0FAF828764FF64C
:107070000600C0F601000FF0F3F828854FF608006F
:10708000C0F601000FF0ECF868844FF60A00C0F675
:1070900001000FF0E5F8A8844FF6CE00C0F601001D
:1070A0000FF0DEF885F830004FF60C00C0F6010056
:1070B0000FF0D6F8A5F86E004FF60E00C0F60100EE
:1070C0000FF0CEF885F831004FF61000C0F6010041
:1070D0000FF0C6F885F832004FF61200C0F6010036
:1070E0000FF0BEF885F833004FF61400C0F601002B
:1070F0000FF0B6F885F834004FF61600C0F6010020
:107100000FF0AEF885F835004FF61800C0F6010014
:107110000FF0A6F885F836004FF61A00C0F6010009
:107120000FF09EF885F838004FF61C00C0F60100FD
:107130000FF096F885F839004FF61E00C0F60100F2
:107140000FF08EF885F83A004FF62000C0F60100E7
:107150000FF086F8A5F876004FF62200C0F6010081
:107160000FF07EF8A5F878004FF62400C0F6010075
:107170000FF076F8A5F87A004FF62600C0F6010069
:107180000FF06EF8A5F87C004FF62800C0F601005D
:107190000FF066F8A5F87E004FF62A00C0F6010051
:1071A0000FF05EF8A5F880004FF62C00C0F6010045
:1071B0000FF056F8A5F882004FF62E00C0F6010039
:1071C0000FF04EF8A5F884004FF63000C0F601002D
:1071D0000FF046F8A5F886004FF63200C0F6010021
:1071E0000FF03EF8A5F888004FF63400C0F6010015
:1071F0000FF036F8A5F88A004FF63600C0F6010009
:107200000FF02EF8A5F88C004FF63800C0F60100FC
:107210000FF026F8A5F88E004FF63A00C0F60100F0
:107220000FF01EF8A5F890004FF63C00C0F60100E4
:107230000FF016F8A5F892004FF63E00C0F60100D8
:107240000FF00EF8A5F894004FF64000C0F60100CC
:107250000FF006F8A5F896004FF64200C0F60100C0
:107260000EF0FEFFA5F898004FF64400C0F60100AE
:107270000EF0F6FFA5F89A004FF64600C0F60100A2
:107280000EF0EEFFA5F89C004FF64800C0F6010096
:107290000EF0E6FFA5F89E004FF64A00C0F601008A
:1072A0000EF0DEFFA5F8A0004FF64C00C0F601007E
:1072B0000EF0D6FFA5F8A2004FF64E00C0F6010072
:1072C0000EF0CEFFA5F8A4004FF65000C0F6010066
:1072D0000EF0C6FFA5F8A6004FF65200C0F601005A
:1072E0000EF0BEFFA5F8A8004FF65400C0F601004E
:1072F0000EF0B6FFA5F8AA004FF65600C0F6010042
:107300000EF0AEFFA5F8AC004FF65800C0F6010035
:107310000EF0A6FFA5F8AE004FF65A00C0F6010029
:107320000EF09EFFA5F8B0004FF65C00C0F601001D
:107330000EF096FFA5F8B2004FF65E00C0F6010011
:107340000EF08EFFA5F8B4004FF66000C0F6010005
:107350000EF086FFA5F8B6004FF66200C0F60100F9
:107360000EF07EFFA5F8B8004FF66400C0F60100ED
:107370000EF076FFA5F8BA004FF66600C0F60100E1
:107380000EF06EFFA5F8BC004FF66800C0F60100D5
:107390000EF066FFA5F8BE004FF66A00C0F60100C9
:1073A0000EF05EFFA5F8C0004FF66C00C0F60100BD
:1073B0000EF056FFA5F8C2004FF66E00C0F60100B1
:1073C0000EF04EFFA5F8C4004FF67000C0F60100A5
:1073D0000EF046FFA5F8C6004FF67200C0F6010099
:1073E0000EF03EFFA5F8C8004FF67604C0F6010483
:1073F00020460EF035FFA5F8CA0020460EF030FFFB
:10740000A5F8CC004FF67800C0F601000EF028FF7A
:10741000A5F8CE004FF67A00C0F601000EF020FF6E
:10742000A5F8D0004FF67C00C0F601000EF018FF62
:10743000A5F8D2004FF67E00C0F601000EF010FF56
:10744000A5F8D4004FF68000C0F601000EF008FF4A
:10745000A5F8D6004FF68200C0F601000EF000FF3E
:10746000A5F8D8004FF68400C0F601000EF0F8FE33
:10747000A5F8DA004FF68600C0F601000EF0F0FE27
:10748000A5F8DC004FF68800C0F601000EF0E8FE1B
:10749000A5F8DE004FF68A00C0F601000EF0E0FE0F
:1074A000A5F8E0004FF68C00C0F601000EF0D8FE03
:1074B000A5F8E2004FF68E00C0F601000EF0D0FEF7
:1074C000A5F8E4004FF69000C0F601000EF0C8FEEB
:1074D000A5F8E6004FF69404C0F6010420460EF02D
:1074E000BFFEA5F8E80020460EF0BAFEA5F8EA00B7
:1074F0004FF69600C0F601000EF0B2FEA5F8EC00C3
:107500004FF69800C0F601000EF0AAFEA5F8EE00B6
:107510004FF69A00C0F601000EF0A2FEA5F8F000AA
:107520004FF69C00C0F601000EF09AFEA5F8F2009E
:107530004FF69E00C0F601000EF092FEA5F8F40092
:107540004FF6A000C0F601000EF08AFEA5F8F60086
:107550004FF6A200C0F601000EF082FEA5F8F8007A
:107560004FF6A400C0F601000EF07AFEA5F8FA006E
:107570004FF6A600C0F601000EF072FEA5F8FC0062
:107580004FF6A800C0F601000EF06AFEA5F8FE0056
:107590004FF6AA00C0F601000EF062FEA5F8000149
:1075A0004FF6AC00C0F601000EF05AFEA5F802013D
:1075B0004FF6AE00C0F601000EF052FEA5F8040131
:1075C0004FF6B204C0F6010420460EF049FEA5F8BD
:1075D000060120460EF044FEA5F808014FF6B4005F
:1075E000C0F601000EF03CFEA5F80A014FF6B60009
:1075F000C0F601000EF034FEA5F80C014FF6B800FD
:10760000C0F601000EF02CFEA5F80E014FF6BA00F0
:10761000C0F601000EF024FEA5F810014FF6BC00E4
:10762000C0F601000EF01CFEA5F812014FF6BE00D8
:10763000C0F601000EF014FEA5F814014FF6C000CC
:10764000C0F601000EF00CFEA5F816014FF6C200C0
:10765000C0F601000EF004FEA5F818014FF6C400B4
:10766000C0F601000EF0FCFDA5F81A014FF6C600A9
:10767000C0F601000EF0F4FDA5F81C014FF6C8009D
:10768000C0F601000EF0ECFDA5F81E014FF6CA0091
:10769000C0F601000EF0E4FDA5F820014FF6CC0085
:1076A000C0F601000EF0DCFDA5F822014FF6D20075
:1076B000C0F601000EF0D4FD0024C5F82C41C5F839
:1076C00028014FF6D400C0F601000EF0C9FDC5F840
:1076D0003441C5F83001FFE700F0A3BF4FF200408E
:1076E000C0F601000DF090FB4FF6FF71884200F0EC
:1076F0004E83FFE74FF20040C0F601000EF0B0FDF0
:1077000040F6E825C2F2000528824FF20240C0F69A
:1077100001000EF0A5FDA8754FF20440C0F601006F
:107720000EF09EFD28764FF20640C0F601000EF0E6
:1077300097FD28854FF20840C0F601000EF090FD3D
:1077400068844FF20A40C0F601000EF089FDA8845B
:107750004FF2CC40C0F601000EF082FD85F83000FB
:107760004FF20C44C0F6010420460EF079FDA5F856
:107770006E0020460EF074FD85F831004FF20E4089
:10778000C0F601000EF06CFD85F832004FF210409B
:10779000C0F601000EF064FD85F833004FF2124090
:1077A000C0F601000EF05CFD85F834004FF2144085
:1077B000C0F601000EF054FD85F835004FF216407A
:1077C000C0F601000EF04CFD85F836004FF218406F
:1077D000C0F601000EF044FD85F838004FF21A4063
:1077E000C0F601000EF03CFD85F839004FF21C4058
:1077F000C0F601000EF034FD85F83A004FF21E404D
:10780000C0F601000EF02CFDA5F876004FF22040E6
:10781000C0F601000EF024FDA5F878004FF22240DA
:10782000C0F601000EF01CFDA5F87A004FF22440CE
:10783000C0F601000EF014FDA5F87C004FF22640C2
:10784000C0F601000EF00CFDA5F87E004FF22840B6
:10785000C0F601000EF004FDA5F880004FF22A40AA
:10786000C0F601000EF0FCFCA5F882004FF22C409F
:10787000C0F601000EF0F4FCA5F884004FF22E4093
:10788000C0F601000EF0ECFCA5F886004FF2304087
:10789000C0F601000EF0E4FCA5F888004FF232407B
:1078A000C0F601000EF0DCFCA5F88A004FF234406F
:1078B000C0F601000EF0D4FCA5F88C004FF2364063
:1078C000C0F601000EF0CCFCA5F88E004FF2384057
:1078D000C0F601000EF0C4FCA5F890004FF23A404B
:1078E000C0F601000EF0BCFCA5F892004FF23C403F
:1078F000C0F601000EF0B4FCA5F894004FF23E4033
:10790000C0F601000EF0ACFCA5F896004FF2404026
:10791000C0F601000EF0A4FCA5F898004FF242401A
:10792000C0F601000EF09CFCA5F89A004FF244400E
:10793000C0F601000EF094FCA5F89C004FF2464002
:10794000C0F601000EF08CFCA5F89E004FF24840F6
:10795000C0F601000EF084FCA5F8A0004FF24A40EA
:10796000C0F601000EF07CFCA5F8A2004FF24C40DE
:10797000C0F601000EF074FCA5F8A4004FF24E40D2
:10798000C0F601000EF06CFCA5F8A6004FF25040C6
:10799000C0F601000EF064FCA5F8A8004FF25240BA
:1079A000C0F601000EF05CFCA5F8AA004FF25440AE
:1079B000C0F601000EF054FCA5F8AC004FF25640A2
:1079C000C0F601000EF04CFCA5F8AE004FF2584096
:1079D000C0F601000EF044FCA5F8B0004FF25A408A
:1079E000C0F601000EF03CFCA5F8B2004FF25C407E
:1079F000C0F601000EF034FCA5F8B4004FF25E4072
:107A0000C0F601000EF02CFCA5F8B6004FF2604065
:107A1000C0F601000EF024FCA5F8B8004FF2624059
:107A2000C0F601000EF01CFCA5F8BA004FF264404D
:107A3000C0F601000EF014FCA5F8BC004FF2664041
:107A4000C0F601000EF00CFCA5F8BE004FF2684035
:107A5000C0F601000EF004FCA5F8C0004FF26A4029
:107A6000C0F601000EF0FCFBA5F8C2004FF26C401E
:107A7000C0F601000EF0F4FBA5F8C4004FF26E4012
:107A8000C0F601000EF0ECFBA5F8C6004FF2704006
:107A9000C0F601000EF0E4FBA5F8C8004FF27444F4
:107AA000C0F6010420460EF0DBFBA5F8CA00204614
:107AB0000EF0D6FBA5F8CC004FF27640C0F60100E0
:107AC0000EF0CEFBA5F8CE004FF27840C0F60100D4
:107AD0000EF0C6FBA5F8D0004FF27A40C0F60100C8
:107AE0000EF0BEFBA5F8D2004FF27C40C0F60100BC
:107AF0000EF0B6FBA5F8D4004FF27E40C0F60100B0
:107B00000EF0AEFBA5F8D6004FF28040C0F60100A3
:107B10000EF0A6FBA5F8D8004FF28240C0F6010097
:107B20000EF09EFBA5F8DA004FF28440C0F601008B
:107B30000EF096FBA5F8DC004FF28640C0F601007F
:107B40000EF08EFBA5F8DE004FF28840C0F6010073
:107B50000EF086FBA5F8E0004FF28A40C0F6010067
:107B60000EF07EFBA5F8E2004FF28C40C0F601005B
:107B70000EF076FBA5F8E4004FF28E40C0F601004F
:107B80000EF06EFBA5F8E6004FF29244C0F6010439
:107B900020460EF065FBA5F8E80020460EF060FBDD
:107BA000A5F8EA004FF29440C0F601000EF058FB31
:107BB000A5F8EC004FF29640C0F601000EF050FB25
:107BC000A5F8EE004FF29840C0F601000EF048FB19
:107BD000A5F8F0004FF29A40C0F601000EF040FB0D
:107BE000A5F8F2004FF29C40C0F601000EF038FB01
:107BF000A5F8F4004FF29E40C0F601000EF030FBF5
:107C0000A5F8F6004FF2A040C0F601000EF028FBE8
:107C1000A5F8F8004FF2A240C0F601000EF020FBDC
:107C2000A5F8FA004FF2A440C0F601000EF018FBD0
:107C3000A5F8FC004FF2A640C0F601000EF010FBC4
:107C4000A5F8FE004FF2A840C0F601000EF008FBB8
:107C5000A5F800014FF2AA40C0F601000EF000FBAB
:107C6000A5F802014FF2AC40C0F601000EF0F8FAA0
:107C7000A5F804014FF2B044C0F6010420460EF00E
:107C8000EFFAA5F8060120460EF0EAFAA5F8080179
:107C90004FF2B240C0F601000EF0E2FAA5F80A0178
:107CA0004FF2B440C0F601000EF0DAFAA5F80C016C
:107CB0004FF2B640C0F601000EF0D2FAA5F80E0160
:107CC0004FF2B840C0F601000EF0CAFAA5F8100154
:107CD0004FF2BA40C0F601000EF0C2FAA5F8120148
:107CE0004FF2BC40C0F601000EF0BAFAA5F814013C
:107CF0004FF2BE40C0F601000EF0B2FAA5F8160130
:107D00004FF2C040C0F601000EF0AAFAA5F8180123
:107D10004FF2C240C0F601000EF0A2FAA5F81A0117
:107D20004FF2C440C0F601000EF09AFAA5F81C010B
:107D30004FF2C640C0F601000EF092FAA5F81E01FF
:107D40004FF2C840C0F601000EF08AFAA5F82001F3
:107D50004FF2CA40C0F601000EF082FAA5F82201E7
:107D60004FF2D040C0F601000EF07AFA0024C5F8B8
:107D70002C41C5F828014FF2D240C0F601000EF0A8
:107D80006FFAC5F83441C5F8300100F049BC4FF630
:107D90000000C0F601000DF037F84FF6FF71884281
:107DA00000F04F83FFE74FF60000C0F601000EF031
:107DB00057FA40F6E825C2F2000528824FF6020085
:107DC000C0F601000EF04CFAA8754FF60400C0F69C
:107DD00001000EF045FA28764FF60600C0F60100C5
:107DE0000EF03EFA28854FF60800C0F601000EF0AE
:107DF00037FA68844FF60A00C0F601000EF030FA38
:107E0000A8844FF6CE00C0F601000EF029FA85F8DE
:107E100030004FF60C00C0F601000EF021FAA5F874
:107E20006E004FF60E00C0F601000EF019FA85F84C
:107E300031004FF61000C0F601000EF011FA85F87F
:107E400032004FF61200C0F601000EF009FA85F874
:107E500033004FF61400C0F601000EF001FA85F869
:107E600034004FF61600C0F601000EF0F9F985F85F
:107E700035004FF61800C0F601000EF0F1F985F854
:107E800036004FF61A00C0F601000EF0E9F985F849
:107E900038004FF61C00C0F601000EF0E1F985F83D
:107EA00039004FF61E00C0F601000EF0D9F985F832
:107EB0003A004FF62000C0F601000EF0D1F9A5F807
:107EC00076004FF62200C0F601000EF0C9F9A5F8C1
:107ED00078004FF62400C0F601000EF0C1F9A5F8B5
:107EE0007A004FF62600C0F601000EF0B9F9A5F8A9
:107EF0007C004FF62800C0F601000EF0B1F9A5F89D
:107F00007E004FF62A00C0F601000EF0A9F9A5F890
:107F100080004FF62C00C0F601000EF0A1F9A5F884
:107F200082004FF62E00C0F601000EF099F9A5F878
:107F300084004FF63000C0F601000EF091F9A5F86C
:107F400086004FF63200C0F601000EF089F9A5F860
:107F500088004FF63400C0F601000EF081F9A5F854
:107F60008A004FF63600C0F601000EF079F9A5F848
:107F70008C004FF63800C0F601000EF071F9A5F83C
:107F80008E004FF63A00C0F601000EF069F9A5F830
:107F900090004FF63C00C0F601000EF061F9A5F824
:107FA00092004FF63E00C0F601000EF059F9A5F818
:107FB00094004FF64000C0F601000EF051F9A5F80C
:107FC00096004FF64200C0F601000EF049F9A5F800
:107FD00098004FF64400C0F601000EF041F9A5F8F4
:107FE0009A004FF64600C0F601000EF039F9A5F8E8
:107FF0009C004FF64800C0F601000EF031F9A5F8DC
:108000009E004FF64A00C0F601000EF029F9A5F8CF
:10801000A0004FF64C00C0F601000EF021F9A5F8C3
:10802000A2004FF64E00C0F601000EF019F9A5F8B7
:10803000A4004FF65000C0F601000EF011F9A5F8AB
:10804000A6004FF65200C0F601000EF009F9A5F89F
:10805000A8004FF65400C0F601000EF001F9A5F893
:10806000AA004FF65600C0F601000EF0F9F8A5F888
:10807000AC004FF65800C0F601000EF0F1F8A5F87C
:10808000AE004FF65A00C0F601000EF0E9F8A5F870
:10809000B0004FF65C00C0F601000EF0E1F8A5F864
:1080A000B2004FF65E00C0F601000EF0D9F8A5F858
:1080B000B4004FF66000C0F601000EF0D1F8A5F84C
:1080C000B6004FF66200C0F601000EF0C9F8A5F840
:1080D000B8004FF66400C0F601000EF0C1F8A5F834
:1080E000BA004FF66600C0F601000EF0B9F8A5F828
:1080F000BC004FF66800C0F601000EF0B1F8A5F81C
:10810000BE004FF66A00C0F601000EF0A9F8A5F80F
:10811000C0004FF66C00C0F601000EF0A1F8A5F803
:10812000C2004FF66E00C0F601000EF099F8A5F8F7
:10813000C4004FF67000C0F601000EF091F8A5F8EB
:10814000C6004FF67200C0F601000EF089F8A5F8DF
:10815000C8004FF67604C0F6010420460EF080F801
:10816000A5F8CA0020460EF07BF8A5F8CC004FF623
:108170007800C0F601000EF073F8A5F8CE004FF6B7
:108180007A00C0F601000EF06BF8A5F8D0004FF6AB
:108190007C00C0F601000EF063F8A5F8D2004FF69F
:1081A0007E00C0F601000EF05BF8A5F8D4004FF693
:1081B0008000C0F601000EF053F8A5F8D6004FF687
:1081C0008200C0F601000EF04BF8A5F8D8004FF67B
:1081D0008400C0F601000EF043F8A5F8DA004FF66F
:1081E0008600C0F601000EF03BF8A5F8DC004FF663
:1081F0008800C0F601000EF033F8A5F8DE004FF657
:108200008A00C0F601000EF02BF8A5F8E0004FF64A
:108210008C00C0F601000EF023F8A5F8E2004FF63E
:108220008E00C0F601000EF01BF8A5F8E4004FF632
:108230009000C0F601000EF013F8A5F8E6004FF626
:108240009404C0F6010420460EF00AF8A5F8E800F0
:1082500020460EF005F8A5F8EA004FF69600C0F6A5
:1082600001000DF0FDFFA5F8EC004FF69800C0F6F8
:1082700001000DF0F5FFA5F8EE004FF69A00C0F6EC
:1082800001000DF0EDFFA5F8F0004FF69C00C0F6E0
:1082900001000DF0E5FFA5F8F2004FF69E00C0F6D4
:1082A00001000DF0DDFFA5F8F4004FF6A000C0F6C8
:1082B00001000DF0D5FFA5F8F6004FF6A200C0F6BC
:1082C00001000DF0CDFFA5F8F8004FF6A400C0F6B0
:1082D00001000DF0C5FFA5F8FA004FF6A600C0F6A4
:1082E00001000DF0BDFFA5F8FC004FF6A800C0F698
:1082F00001000DF0B5FFA5F8FE004FF6AA00C0F68C
:1083000001000DF0ADFFA5F800014FF6AC00C0F67E
:1083100001000DF0A5FFA5F802014FF6AE00C0F672
:1083200001000DF09DFFA5F804014FF6B204C0F660
:10833000010420460DF094FFA5F8060120460DF03B
:108340008FFFA5F808014FF6B400C0F601000DF04C
:1083500087FFA5F80A014FF6B600C0F601000DF040
:108360007FFFA5F80C014FF6B800C0F601000DF034
:1083700077FFA5F80E014FF6BA00C0F601000DF028
:108380006FFFA5F810014FF6BC00C0F601000DF01C
:1083900067FFA5F812014FF6BE00C0F601000DF010
:1083A0005FFFA5F814014FF6C000C0F601000DF004
:1083B00057FFA5F816014FF6C200C0F601000DF0F8
:1083C0004FFFA5F818014FF6C400C0F601000DF0EC
:1083D00047FFA5F81A014FF6C600C0F601000DF0E0
:1083E0003FFFA5F81C014FF6C800C0F601000DF0D4
:1083F00037FFA5F81E014FF6CA00C0F601000DF0C8
:108400002FFFA5F820014FF6CC00C0F601000DF0BB
:1084100027FFA5F822014FF6D200C0F601000DF0AB
:108420001FFF0024C5F82C41C5F828014FF6D400E1
:10843000C0F601000DF014FFC5F83441C5F8300155
:10844000EDE040F6E820C2F20000DC2101823C238E
:108450008375642101760021018532224284838460
:1084600080F830104FF0140CA0F86EC080F8311076
:10847000012580F8325080F8335080F8345080F86D
:10848000355080F8365080F8381080F8391080F870
:108490003A104FF49675A0F876502825A0F8785039
:1084A0001E24A0F87A404FF4A074A0F87C40A0F8F5
:1084B0007E20A0F880504FF4AF75A0F88250A0F84D
:1084C0008430A0F886204FF4BE75A0F8885050255F
:1084D000A0F88A50A0F88C304FF06E0EA0F88EE015
:1084E000A0F890C0A0F89230C824A0F89440A0F85A
:1084F00096200A25A0F89850A0F89A40A0F89C2051
:10850000A0F89E50A0F8A040A0F8A220A0F8A45087
:10851000A0F8A640A0F8A820A0F8AA50A0F8ACE0C7
:10852000A0F8AEC0A0F8B030A0F8B240A0F8B420D7
:10853000A0F8B650A0F8B840A0F8BA20A0F8BC50F7
:10854000A0F8BE40A0F8C020A0F8C250A0F8C440D7
:10855000A0F8C620A0F8C850A0F8CAE0A0F8CCC087
:10856000A0F8CE30A0F8D040A0F8D220A0F8D45087
:10857000A0F8D640A0F8D820A0F8DA50A0F8DC4047
:10858000A0F8DE20A0F8E050A0F8E240A0F8E42037
:10859000A0F8E650A0F8E8E0A0F8EAC0A0F8EC30B7
:1085A000A0F8EE40A0F8F020A0F8F250A0F8F440B7
:1085B000A0F8F620A0F8F850A0F8FA40A0F8FC20A7
:1085C000A0F8FE50A0F80041A0F80221A0F8045144
:1085D000A0F806E1A0F808C1A0F80A31A0F80C4103
:1085E000A0F80E21A0F81051A0F81241A0F8142113
:1085F000A0F81651A0F81841A0F81A21A0F81C51B3
:10860000A0F81E41A0F82021A0F82251C0F82C119A
:10861000C0F82811C0F83411C0F83011FFE7FFE7A7
:10862000FFE740F6E820C2F20000008AB0F5FA7FCA
:1086300008DCFFE740F6E820C2F20000008A632869
:1086400008DCFFE740F6E820C2F200004FF4967124
:108650000182FFE740F6E820C2F20000807DC828D2
:1086600008DCFFE740F6E820C2F20000807D002829
:1086700007DCFFE740F6E820C2F2000050218175D8
:10868000FFE740F6E820C2F20000408C642807DBD8
:10869000FFE740F6E820C2F2000032214184FFE704
:1086A000FFE740F6E820C2F20000808C40F2E7319C
:1086B000884207DBFFE740F6E820C2F200003C21D9
:1086C0008184FFE7FFE740F6E820C2F2000090F85F
:1086D000300088B1FFE740F6E820C2F2000090F8D1
:1086E0003000012808D0FFE740F6E820C2F2000081
:1086F000002180F83010FFE740F6E820C2F20000C9
:1087000090F8310088B1FFE740F6E820C2F200009F
:1087100090F83100012808D0FFE740F6E820C2F2C7
:108720000000002180F83110FFE740F6E820C2F297
:10873000000090F83200012810D0FFE740F6E82052
:10874000C2F2000090F8320040B1FFE740F6E820A6
:10875000C2F20000012180F83210FFE740F6E82065
:10876000C2F2000090F8330088B1FFE740F6E8203D
:10877000C2F2000090F83300012808D0FFE740F66D
:10878000E820C2F20000012180F83310FFE740F634
:10879000E820C2F2000090F83400012819D0FFE769
:1087A00040F6E820C2F2000090F8340088B1FFE7FC
:1087B00040F6E820C2F2000090F83400022808D009
:1087C000FFE740F6E820C2F20000012180F83410F3
:1087D000FFE740F6E820C2F2000090F835000128DB
:1087E00019D0FFE740F6E820C2F2000090F835000B
:1087F00088B1FFE740F6E820C2F2000090F83500AB
:10880000022808D0FFE740F6E820C2F2000001216C
:1088100080F83510FFE740F6E820C2F2000090F83B
:108820003600012819D0FFE740F6E820C2F2000028
:1088300090F8360088B1FFE740F6E820C2F2000069
:1088400090F83600022808D0FFE740F6E820C2F290
:108850000000012180F83610FFE740F6E820C2F260
:10886000000090F8380088B1FFE740F6E820C2F237
:10887000000090F83800012808D0FFE740F6E82013
:10888000C2F20000002180F83810FFE740F6E8202F
:10889000C2F2000090F8390080B1FFE740F6E8200E
:1088A000C2F2000090F8390040B1FFE740F6E8203E
:1088B000C2F20000012180F83910FFE740F6E820FD
:1088C000C2F2000090F83A0080B1FFE740F6E820DD
:1088D000C2F2000090F83A0040B1FFE740F6E8200D
:1088E000C2F20000002180F83A10FFE740F6E820CD
:1088F000C2F20000B0F9280032280ADCFFE740F697
:10890000E820C2F20000B0F9280010F1330F07DCB4
:10891000FFE740F6E820C2F2000000210185FFE7F2
:1089200040F6E820C2F20000B0F86E00B0F57A7FA1
:1089300001DAFFE707E040F6E820C2F20000142168
:10894000A0F86E10FFE740F6E820C2F20000B0F891
:108950007600B0F5FA7F09DCFFE740F6E820C2F2C6
:108960000000B0F87600632809DCFFE740F6E82055
:10897000C2F200004FF49671A0F87610FFE740F6BF
:10898000E820C2F20000B0F87800C82809DCFFE750
:1089900040F6E820C2F20000B0F87800002808DCB9
:1089A000FFE740F6E820C2F200005021A0F878105E
:1089B000FFE740F6E820C2F20000B0F87A00B0F518
:1089C0007A7F01DAFFE707E040F6E820C2F2000014
:1089D0001E21A0F87A10FFE740F6E820C2F200005E
:1089E000B0F87C00B0F5FA7F09DCFFE740F6E8203C
:1089F000C2F20000B0F87C00632809DCFFE740F613
:108A0000E820C2F200004FF49671A0F87C10FFE756
:108A100040F6E820C2F20000B0F87E00C82809DC69
:108A2000FFE740F6E820C2F20000B0F87E00002820
:108A300008DCFFE740F6E820C2F200005021A0F871
:108A40007E10FFE740F6E820C2F20000B0F8800098
:108A5000B0F57A7F01DAFFE707E040F6E820C2F2DE
:108A600000001E21A0F88010FFE740F6E820C2F2C7
:108A70000000B0F88200B0F5FA7F09DCFFE740F6AD
:108A8000E820C2F20000B0F88200632809DCFFE7AA
:108A900040F6E820C2F200004FF49671A0F8821070
:108AA000FFE740F6E820C2F20000B0F88400C828D2
:108AB00009DCFFE740F6E820C2F20000B0F88400CD
:108AC000002808DCFFE740F6E820C2F20000502151
:108AD000A0F88410FFE740F6E820C2F20000B0F8EA
:108AE0008600B0F57A7F01DAFFE707E040F6E8207C
:108AF000C2F200001E21A0F88610FFE740F6E82031
:108B0000C2F20000B0F88800B0F5FA7F09DCFFE798
:108B100040F6E820C2F20000B0F88800632809DCC3
:108B2000FFE740F6E820C2F200004FF49671A0F88B
:108B30008810FFE740F6E820C2F20000B0F88A0093
:108B4000C82809DCFFE740F6E820C2F20000B0F8D0
:108B50008A00002808DCFFE740F6E820C2F20000A7
:108B60005021A0F88A10FFE740F6E820C2F200008A
:108B7000B0F88C00B0F57A7F01DAFFE707E040F645
:108B8000E820C2F200001E21A0F88C10FFE740F69A
:108B9000E820C2F20000B0F88E00B0F5FA7F09DCE0
:108BA000FFE740F6E820C2F20000B0F88E0063282C
:108BB00008DCFFE740F6E820C2F200006421A0F8DC
:108BC0008E10FFE740F6E820C2F20000B0F89000F7
:108BD000C82809DCFFE740F6E820C2F20000B0F840
:108BE0009000002808DCFFE740F6E820C2F2000011
:108BF0001421A0F89010FFE740F6E820C2F2000030
:108C0000B0F89200B0F57A7F01DAFFE707E040F6AE
:108C1000E820C2F200003C21A0F89210FFE740F6E5
:108C2000E820C2F20000B0F89400B0F5FA7F09DC49
:108C3000FFE740F6E820C2F20000B0F89400632895
:108C400008DCFFE740F6E820C2F200006421A0F84B
:108C50009410FFE740F6E820C2F20000B0F896005A
:108C6000C82809DCFFE740F6E820C2F20000B0F8AF
:108C70009600002808DCFFE740F6E820C2F200007A
:108C80001421A0F89610FFE740F6E820C2F2000099
:108C9000B0F89800B0F57A7F01DAFFE707E040F618
:108CA000E820C2F200003C21A0F89810FFE740F64F
:108CB000E820C2F20000B0F89A00B0F5FA7F09DCB3
:108CC000FFE740F6E820C2F20000B0F89A006328FF
:108CD00008DCFFE740F6E820C2F200006421A0F8BB
:108CE0009A10FFE740F6E820C2F20000B0F89C00BE
:108CF000C82809DCFFE740F6E820C2F20000B0F81F
:108D00009C00002808DCFFE740F6E820C2F20000E3
:108D10001421A0F89C10FFE740F6E820C2F2000002
:108D2000B0F89E00B0F57A7F01DAFFE707E040F681
:108D3000E820C2F200003C21A0F89E10FFE740F6B8
:108D4000E820C2F20000B0F8A000B0F5FA7F09DC1C
:108D5000FFE740F6E820C2F20000B0F8A000632868
:108D600008DCFFE740F6E820C2F200006421A0F82A
:108D7000A010FFE740F6E820C2F20000B0F8A20021
:108D8000C82809DCFFE740F6E820C2F20000B0F88E
:108D9000A200002808DCFFE740F6E820C2F200004D
:108DA0001421A0F8A210FFE740F6E820C2F200006C
:108DB000B0F8A400B0F57A7F01DAFFE707E040F6EB
:108DC000E820C2F200003C21A0F8A410FFE740F622
:108DD000E820C2F20000B0F8A600B0F5FA7F09DC86
:108DE000FFE740F6E820C2F20000B0F8A6006328D2
:108DF00008DCFFE740F6E820C2F200006421A0F89A
:108E0000A610FFE740F6E820C2F20000B0F8A80084
:108E1000C82809DCFFE740F6E820C2F20000B0F8FD
:108E2000A800002808DCFFE740F6E820C2F20000B6
:108E30001421A0F8A810FFE740F6E820C2F20000D5
:108E4000B0F8AA00B0F57A7F01DAFFE707E040F654
:108E5000E820C2F200003C21A0F8AA10FFE740F68B
:108E6000E820C2F20000B0F8AC00B0F5FA7F09DCEF
:108E7000FFE740F6E820C2F20000B0F8AC0063283B
:108E800008DCFFE740F6E820C2F200006421A0F809
:108E9000AC10FFE740F6E820C2F20000B0F8AE00E8
:108EA000C82809DCFFE740F6E820C2F20000B0F86D
:108EB000AE00002808DCFFE740F6E820C2F2000020
:108EC0001421A0F8AE10FFE740F6E820C2F200003F
:108ED000B0F8B000B0F57A7F01DAFFE707E040F6BE
:108EE000E820C2F200003C21A0F8B010FFE740F6F5
:108EF000E820C2F20000B0F8B200B0F5FA7F09DC59
:108F0000FFE740F6E820C2F20000B0F8B2006328A4
:108F100008DCFFE740F6E820C2F200006421A0F878
:108F2000B210FFE740F6E820C2F20000B0F8B4004B
:108F3000C82809DCFFE740F6E820C2F20000B0F8DC
:108F4000B400002808DCFFE740F6E820C2F2000089
:108F50001421A0F8B410FFE740F6E820C2F20000A8
:108F6000B0F8B600B0F57A7F01DAFFE707E040F627
:108F7000E820C2F200003C21A0F8B610FFE740F65E
:108F8000E820C2F20000B0F8B800B0F5FA7F09DCC2
:108F9000FFE740F6E820C2F20000B0F8B80063280E
:108FA00008DCFFE740F6E820C2F200006421A0F8E8
:108FB000B810FFE740F6E820C2F20000B0F8BA00AF
:108FC000C82809DCFFE740F6E820C2F20000B0F84C
:108FD000BA00002808DCFFE740F6E820C2F20000F3
:108FE0001421A0F8BA10FFE740F6E820C2F2000012
:108FF000B0F8BC00B0F57A7F01DAFFE707E040F691
:10900000E820C2F200003C21A0F8BC10FFE740F6C7
:10901000E820C2F20000B0F8BE00B0F5FA7F09DC2B
:10902000FFE740F6E820C2F20000B0F8BE00632877
:1090300008DCFFE740F6E820C2F200006421A0F857
:10904000BE10FFE740F6E820C2F20000B0F8C00012
:10905000C82809DCFFE740F6E820C2F20000B0F8BB
:10906000C000002808DCFFE740F6E820C2F200005C
:109070001421A0F8C010FFE740F6E820C2F200007B
:10908000B0F8C200B0F57A7F01DAFFE707E040F6FA
:10909000E820C2F200003C21A0F8C210FFE740F631
:1090A000E820C2F20000B0F8C400B0F5FA7F09DC95
:1090B000FFE740F6E820C2F20000B0F8C4006328E1
:1090C00008DCFFE740F6E820C2F200006421A0F8C7
:1090D000C410FFE740F6E820C2F20000B0F8C60076
:1090E000C82809DCFFE740F6E820C2F20000B0F82B
:1090F000C600002808DCFFE740F6E820C2F20000C6
:109100001421A0F8C610FFE740F6E820C2F20000E4
:10911000B0F8C800B0F57A7F01DAFFE707E040F663
:10912000E820C2F200003C21A0F8C810FFE740F69A
:10913000E820C2F20000B0F8CA00B0F5FA7F09DCFE
:10914000FFE740F6E820C2F20000B0F8CA0063284A
:1091500008DCFFE740F6E820C2F200006421A0F836
:10916000CA10FFE740F6E820C2F20000B0F8CC00D9
:10917000C82809DCFFE740F6E820C2F20000B0F89A
:10918000CC00002808DCFFE740F6E820C2F200002F
:109190001421A0F8CC10FFE740F6E820C2F200004E
:1091A000B0F8CE00B0F57A7F01DAFFE707E040F6CD
:1091B000E820C2F200003C21A0F8CE10FFE740F604
:1091C000E820C2F20000B0F8D000B0F5FA7F09DC68
:1091D000FFE740F6E820C2F20000B0F8D0006328B4
:1091E00008DCFFE740F6E820C2F200006421A0F8A6
:1091F000D010FFE740F6E820C2F20000B0F8D2003D
:10920000C82809DCFFE740F6E820C2F20000B0F809
:10921000D200002808DCFFE740F6E820C2F2000098
:109220001421A0F8D210FFE740F6E820C2F20000B7
:10923000B0F8D400B0F57A7F01DAFFE707E040F636
:10924000E820C2F200003C21A0F8D410FFE740F66D
:10925000E820C2F20000B0F8D600B0F5FA7F09DCD1
:10926000FFE740F6E820C2F20000B0F8D60063281D
:1092700008DCFFE740F6E820C2F200006421A0F815
:10928000D610FFE740F6E820C2F20000B0F8D800A0
:10929000C82809DCFFE740F6E820C2F20000B0F879
:1092A000D800002808DCFFE740F6E820C2F2000002
:1092B0001421A0F8D810FFE740F6E820C2F2000021
:1092C000B0F8DA00B0F57A7F01DAFFE707E040F6A0
:1092D000E820C2F200003C21A0F8DA10FFE740F6D7
:1092E000E820C2F20000B0F8DC00B0F5FA7F09DC3B
:1092F000FFE740F6E820C2F20000B0F8DC00632887
:1093000008DCFFE740F6E820C2F200006421A0F884
:10931000DC10FFE740F6E820C2F20000B0F8DE0003
:10932000C82809DCFFE740F6E820C2F20000B0F8E8
:10933000DE00002808DCFFE740F6E820C2F200006B
:109340001421A0F8DE10FFE740F6E820C2F200008A
:10935000B0F8E000B0F57A7F01DAFFE707E040F609
:10936000E820C2F200003C21A0F8E010FFE740F640
:10937000E820C2F20000B0F8E200B0F5FA7F09DCA4
:10938000FFE740F6E820C2F20000B0F8E2006328F0
:1093900008DCFFE740F6E820C2F200006421A0F8F4
:1093A000E210FFE740F6E820C2F20000B0F8E40067
:1093B000C82809DCFFE740F6E820C2F20000B0F858
:1093C000E400002808DCFFE740F6E820C2F20000D5
:1093D0001421A0F8E410FFE740F6E820C2F20000F4
:1093E000B0F8E600B0F57A7F01DAFFE707E040F673
:1093F000E820C2F200003C21A0F8E610FFE740F6AA
:10940000E820C2F20000B0F8E800B0F5FA7F09DC0D
:10941000FFE740F6E820C2F20000B0F8E800632859
:1094200008DCFFE740F6E820C2F200006421A0F863
:10943000E810FFE740F6E820C2F20000B0F8EA00CA
:10944000C82809DCFFE740F6E820C2F20000B0F8C7
:10945000EA00002808DCFFE740F6E820C2F200003E
:109460001421A0F8EA10FFE740F6E820C2F200005D
:10947000B0F8EC00B0F57A7F01DAFFE707E040F6DC
:10948000E820C2F200003C21A0F8EC10FFE740F613
:10949000E820C2F20000B0F8EE00B0F5FA7F09DC77
:1094A000FFE740F6E820C2F20000B0F8EE006328C3
:1094B00008DCFFE740F6E820C2F200006421A0F8D3
:1094C000EE10FFE740F6E820C2F20000B0F8F0002E
:1094D000C82809DCFFE740F6E820C2F20000B0F837
:1094E000F000002808DCFFE740F6E820C2F20000A8
:1094F0001421A0F8F010FFE740F6E820C2F20000C7
:10950000B0F8F200B0F57A7F01DAFFE707E040F645
:10951000E820C2F200003C21A0F8F210FFE740F67C
:10952000E820C2F20000B0F8F400B0F5FA7F09DCE0
:10953000FFE740F6E820C2F20000B0F8F40063282C
:1095400008DCFFE740F6E820C2F200006421A0F842
:10955000F410FFE740F6E820C2F20000B0F8F60091
:10956000C82809DCFFE740F6E820C2F20000B0F8A6
:10957000F600002808DCFFE740F6E820C2F2000011
:109580001421A0F8F610FFE740F6E820C2F2000030
:10959000B0F8F800B0F57A7F01DAFFE707E040F6AF
:1095A000E820C2F200003C21A0F8F810FFE740F6E6
:1095B000E820C2F20000B0F8FA00B0F5FA7F09DC4A
:1095C000FFE740F6E820C2F20000B0F8FA00632896
:1095D00008DCFFE740F6E820C2F200006421A0F8B2
:1095E000FA10FFE740F6E820C2F20000B0F8FC00F5
:1095F000C82809DCFFE740F6E820C2F20000B0F816
:10960000FC00002808DCFFE740F6E820C2F200007A
:109610001421A0F8FC10FFE740F6E820C2F2000099
:10962000B0F8FE00B0F57A7F01DAFFE707E040F618
:10963000E820C2F200003C21A0F8FE10FFE740F64F
:10964000E820C2F20000B0F80001B0F5FA7F09DCB2
:10965000FFE740F6E820C2F20000B0F800016328FE
:1096600008DCFFE740F6E820C2F200006421A0F821
:109670000011FFE740F6E820C2F20000B0F8020156
:10968000C82809DCFFE740F6E820C2F20000B0F885
:109690000201002808DCFFE740F6E820C2F20000E3
:1096A0001421A0F80211FFE740F6E820C2F2000002
:1096B000B0F80401B0F57A7F01DAFFE707E040F681
:1096C000E820C2F200003C21A0F80411FFE740F6B8
:1096D000E820C2F20000B0F80601B0F5FA7F09DC1C
:1096E000FFE740F6E820C2F20000B0F80601632868
:1096F00008DCFFE740F6E820C2F200006421A0F891
:109700000611FFE740F6E820C2F20000B0F80801B9
:10971000C82809DCFFE740F6E820C2F20000B0F8F4
:109720000801002808DCFFE740F6E820C2F200004C
:109730001421A0F80811FFE740F6E820C2F200006B
:10974000B0F80A01B0F57A7F01DAFFE707E040F6EA
:10975000E820C2F200003C21A0F80A11FFE740F621
:10976000E820C2F20000B0F80C01B0F5FA7F09DC85
:10977000FFE740F6E820C2F20000B0F80C016328D1
:1097800008DCFFE740F6E820C2F200006421A0F800
:109790000C11FFE740F6E820C2F20000B0F80E011D
:1097A000C82809DCFFE740F6E820C2F20000B0F864
:1097B0000E01002808DCFFE740F6E820C2F20000B6
:1097C0001421A0F80E11FFE740F6E820C2F20000D5
:1097D000B0F81001B0F57A7F01DAFFE707E040F654
:1097E000E820C2F200003C21A0F81011FFE740F68B
:1097F000E820C2F20000B0F81201B0F5FA7F09DCEF
:10980000FFE740F6E820C2F20000B0F8120163283A
:1098100008DCFFE740F6E820C2F200006421A0F86F
:109820001211FFE740F6E820C2F20000B0F8140180
:10983000C82809DCFFE740F6E820C2F20000B0F8D3
:109840001401002808DCFFE740F6E820C2F200001F
:109850001421A0F81411FFE740F6E820C2F200003E
:10986000B0F81601B0F57A7F01DAFFE707E040F6BD
:10987000E820C2F200003C21A0F81611FFE740F6F4
:10988000E820C2F20000B0F81801B0F5FA7F09DC58
:10989000FFE740F6E820C2F20000B0F818016328A4
:1098A00008DCFFE740F6E820C2F200006421A0F8DF
:1098B0001811FFE740F6E820C2F20000B0F81A01E4
:1098C000C82809DCFFE740F6E820C2F20000B0F843
:1098D0001A01002808DCFFE740F6E820C2F2000089
:1098E0001421A0F81A11FFE740F6E820C2F20000A8
:1098F000B0F81C01B0F57A7F01DAFFE707E040F627
:10990000E820C2F200003C21A0F81C11FFE740F65D
:10991000E820C2F20000B0F81E01B0F5FA7F09DCC1
:10992000FFE740F6E820C2F20000B0F81E0163280D
:1099300008DCFFE740F6E820C2F200006421A0F84E
:109940001E11FFE740F6E820C2F20000B0F8200147
:10995000C82809DCFFE740F6E820C2F20000B0F8B2
:109960002001002808DCFFE740F6E820C2F20000F2
:109970001421A0F82011FFE740F6E820C2F2000011
:10998000B0F82201B0F57A7F01DAFFE707E040F690
:10999000E820C2F200003C21A0F82211FFE740F6C7
:1099A000E820C2F20000018A40F2C212C2F20002B4
:1099B0001180817D40F2C412C2F200021180017E4A
:1099C00040F2C612C2F200021180018D40F2C812AC
:1099D000C2F200021180418C40F2CA12C2F20002AF
:1099E0001180818C40F2CC12C2F200021180B0F8DA
:1099F0006E1040F2CE12C2F20002118090F83010C8
:109A000040F2D012C2F20002117090F8311040F210
:109A1000D112C2F20002117090F8321040F2D2124C
:109A2000C2F20002117090F8331040F2D312C2F269
:109A30000002117090F8341040F2D412C2F2000209
:109A4000117090F8351040F2D512C2F20002117078
:109A500090F8361040F2D612C2F20002117090F85F
:109A6000381040F2D712C2F20002117090F839108B
:109A700040F2D812C2F20002117090F83A1040F28F
:109A8000D912C2F200021170B0F8761040F2DA1268
:109A9000C2F200021180B0F8781040F2DC12C2F27B
:109AA00000021180B0F87A1040F2DE12C2F2000219
:109AB0001180B0F87C1040F2E012C2F20002118076
:109AC000B0F87E1040F2E212C2F200021180B0F84B
:109AD000801040F2E412C2F200021180B0F882104D
