:020000040800F2
:10400000E8370020854100083D7A0008397A000829
:104010003B7A0008FD490008B19300080000000049
:104020000000000000000000000000005D8D00089E
:10403000FF49000800000000217F0008618D000892
:104040009F4100089F4100089F4100089F410008D0
:104050009F4100089F4100089F4100089F410008C0
:104060009F4100089F4100089F4100089F410008B0
:104070009F4100089F4100089F4100089F410008A0
:104080009F4100089F4100089F4100089F41000890
:104090009F4100089F4100089F4100089F41000880
:1040A0009F4100089F4100089F4100089F41000870
:1040B0009F410008C19100089F4100089F410008EE
:1040C0009F4100089F4100089F4100089F41000850
:1040D0009F410008A5920008FD9200084D9300083A
:1040E000014A00089F4100089F41000800000000AD
:1040F00000000000000000000000000000000000C0
:10410000000000009F4100089F41000800000000DF
:10411000ED91000849920008000000000000000036
:104120009F4100089F4100089F4100089F410008EF
:10413000000000000000000000000000000000007F
:104140000000000000000000000000009F41000887
:1041500000000000000000009F4100089F4100088F
:104160000000000000000000000000009F41000867
:10417000DFF80CD000F0B6F90048004725BB000876
:10418000E83700200648804706480047FEE7FEE77C
:10419000FEE7FEE7FEE7FEE7FEE7FEE7FEE7FEE7F7
:1041A0004D9100087141000830B50B4601460020D2
:1041B0002022012409E021FA02F59D4205D303FAE9
:1041C00002F5491B04FA02F52844151EA2F101026A
:1041D000F1DC30BD2DE9FE4F804681EA0300C00FBF
:1041E0000C46009021F0004123F00045B8EB02009E
:1041F000A94105D24046214690461C460B46024640
:1042000023F00040104347D0270DC7F30A00C3F343
:104210000A510290401A019040286BDAC3F3130050
:1042200040F4801B0098924620B10023D2EB030A91
:1042300063EB0B0B01985946C0F14002504600F069
:1042400063F906460D4650465946019A00F07BF93F
:1042500010EB08006141002487EA115284EAE773F9
:104260001A4340D0009A62B3019A012A4FEA0752DA
:1042700015DC001B61EB02014FF0004202EA07521D
:10428000CDE90042001C41F5801132462B4600F07A
:104290007BF903B0BDE8F08F40462146F9E7001BEB
:1042A00061EB0201001C41F5801300185B412018EE
:1042B000A2F5001747EB030140EAD570B6196D412E
:1042C00011E06D084FEA360645EAC0754FEA07521D
:1042D000001B61EB0201001C41F5801149084FEA07
:1042E00030000019514132462B4603B0BDE8F04F73
:1042F00000F03BB90098012240000023D0EB0202FD
:1043000063EBE073009821464FEAE074B8EB0000DD
:1043100061EB0401E9E783F000435BE781F00041D2
:1043200058E72DE9FE4F81EA030404F0004421F030
:10433000004100944FF0000B23F0004350EA0104C9
:104340005ED052EA03045BD0C3F30A54C1F30A55AA
:104350002C44A4F2F3340194A0FB0254C1F31301E2
:1043600041F48011C3F3130343F4801301FB0244AF
:1043700000FB034E840A970A44EA815447EA8357B4
:10438000A4FB076802958D0A05FB07854FEA932C6D
:1043900004FB0C542705029D4FEA065847EA1637DE
:1043A000B5EB08056EEB070C870E920E47EA8117F6
:1043B00042EA8312A7FB0201B6EB0B0164EB000497
:1043C0002B0D43EA0C335E1844EB1C50DA46514681
:1043D000E7FB0201C5F313044FEA0B3343EA14531E
:1043E0004FEA0432019C43EA0603A4F10C04029450
:1043F000009CCDE900B400F0C7F803B0BDE8F08F31
:1044000000200146F9E72DE9F04D81EA030404F0AC
:10441000004B21F0004514464FF0000A23F0004104
:1044200050EA050220D054EA01021DD0C5F30A5714
:104430000246C5F31303C1F31300C1F30A5640F457
:10444000801543F48013A7EB0608101BD64608F22C
:10445000FD3873EB050002D308F1010801E0921862
:104460005B41B8F1000F03DA00200146BDE8F08D92
:1044700000204FF48011064684460EE0171B73EBB4
:10448000050705D3121B63EB050306434CEA010C39
:1044900049084FEA300092185B4150EA0107EDD11C
:1044A00052EA030012D082EA040083EA05010843BD
:1044B00005D0101BAB4106D20122002306E00022EA
:1044C0004FF0004302E06FF0010253101AEB0600B8
:1044D0004CEB085110EB0A0041EB0B01BDE8F04D2D
:1044E00000F043B8064C074D06E0E06840F00103D9
:1044F00094E8070098471034AC42F6D3FFF73CFE2F
:104500000CDF00082CDF0008202A04DB203A00FA28
:1045100002F1002070479140C2F1200320FA03F31A
:10452000194390407047202A04DB203A21FA02F018
:104530000021704721FA02F3D040C2F120029140DD
:10454000084319467047202A06DBCB17203A41FA68
:1045500002F043EAE07306E041FA02F3D040C2F110
:104560002002914008431946704710B5141E73F19C
:10457000000408DA401C41F1000192185B411A4323
:1045800001D120F0010010BD2DE9F04D92469B466F
:1045900011B1B1FA81F202E0B0FA80F22032904615
:1045A000FFF7B2FF04460F4640EA0A0041EA0B015A
:1045B00053465A46084313D0114653EA010019D016
:1045C000C8F140025046FFF7AEFF05460E46504682
:1045D00059464246FFF798FF084305D0012004E002
:1045E00020463946BDE8F08D0020054346EAE076D6
:1045F0002C4337430A986305E40AA0EB0800002225
:10460000FD0A44EA47540A3002D500200146E9E792
:10461000010510196941DDE9084500196941BDE846
:10462000F04DA2E740EA01039B0703D009E008C967
:10463000121F08C0042AFAD203E011F8013B00F867
:10464000013B521EF9D27047D2B201E000F8012BB3
:10465000491EFBD270470022F6E710B513460A4602
:1046600004461946FFF7F0FF204610BDF0B480EA7B
:104670000102D40F4200B2EB410F02D202460846BB
:1046800011464A0042D0C30DDDB2C1F3C752AD1A84
:10469000202D35DAC1F3160141F4000204B1524273
:1046A000C5F1200602FA06F12A411044B3EBD05FAF
:1046B00023D0C4B1012DA0EBC35009DCF0BC4FF0F6
:1046C000004202EAC352DBB200F5000000F068B914
:1046D000400000F1807000EBC350A0F1807040EA10
:1046E000D170490009E0490841EAC071A0EBC3500C
:1046F00000F50000400800EBC350F0BC00F047B9E3
:104700006142012202EB4101001BF6E7F0BC704759
:1047100081F00041AAE780F00040A7E780EA0102AB
:1047200010B502F00043400022D04A001FD0010E15
:1047300001EB1261C0F35600C2F3560240F40000D0
:1047400042F40002A0FB022000047F39140400D0D0
:10475000401C50EA124001D44000491EC2B20C066F
:1047600004EBD010401C4008802A02D003E0002057
:1047700010BD20F00100002900DA0020184310BD10
:1047800030B480EA010202F0004530F0004221F02E
:10479000004013D090B1C30DD40DC2F31601C0F385
:1047A0001600E41A41F4000140F400027D34914205
:1047B00001D3641C00E04900002C02DA30BC002068
:1047C00070474FF400000023914201D3891A03433C
:1047D00040084FEA4101F7D151B1914202D14FF067
:1047E000004105E002D24FF0010101E06FF001014C
:1047F00003EBC450284430BC00F0C9B8002801DBEA
:10480000C0F10040002901DBC1F10041814201D823
:104810000120704700207047002801DBC0F10040F4
:10482000002901DBC1F10041814201D20120704722
:1048300000207047002801DBC0F10040002901DBA7
:10484000C1F10041814201D301207047002070472F
:10485000002801DBC0F10040002901DBC1F100416B
:10486000814201D90120704700207047C10F80EAC2
:10487000E0700844CA079623002100F091B89623FF
:104880000022114600F08CB80EB5C10F80EAE0702E
:104890000844CA07002140F233438DE80E000A465F
:1048A0000B46FFF771FE03B000BD0EB540F2334179
:1048B00002910021CDE900110A460B46FFF764FE84
:1048C00003B000BD00F0004220F00040C10DC0F375
:1048D000160040F400007F2901DA00207047962975
:1048E00003DCC1F19601C84001E096398840002AF6
:1048F000F4D04042704720F00040C10DC0F31600D4
:1049000040F400007F2901DA00207047962903DC7B
:10491000C1F19601C840704796398840704770B51C
:10492000C1F30A5201F000450024C1F3130140F223
:10493000FF3341F480119A4201DA002070BD40F249
:1049400033439A42A2F2334203DC5242FFF7EBFDBB
:1049500000E090402C43F1D0404270BDC1F30A52B8
:1049600010B5C1F3130140F2FF3341F480119A42B4
:1049700001DA002010BD40F233439A42A2F23342E2
:1049800003DC5242FFF7CFFD10BD904010BD00295F
:10499000A8BF7047401C490008BF20F001007047C5
:1049A00010B4B0FA80FC00FA0CF050EA010404BF25
:1049B00010BC704749B1CCF1200421FA04F411FA7B
:1049C0000CF118BF012121430843A3EB0C01CB1DBF
:1049D0004FEA00614FEA102042BF002010BC704730
:1049E00000EBC35010440029A4BF10BC7047401C0A
:1049F000490008BF20F0010010BC7047FEE7704777
:104A00002DE9F843CB480168890440F116824FF440
:104A10000051DFF85854016042F6E061688E884228
:104A20000AD300206886DFF84804D0E94C1201312F
:104A300042F10002C0E94C124FF08040BE4EDFF858
:104A40003074016821F0010101600020306097F8A6
:104A50003000002845D0012840F0E88197F83F0059
:104A6000002840F0E38197F83E00002865D0012837
:104A700040F0DC8197F83D00A978814208D0DFF84A
:104A8000F41300228A664A66CA658A65A8704A6578
:104A900097F84100002800F0C98108F0E5FAB7F85E
:104AA000741008447860388A04F012FE97F86B108E
:104AB00087F82A00032900F2BC80DFE801F0028EAB
:104AC0009DAA03F0C8F800F2B480DFE811F00500F9
:104AD00056015B016001AF0079680C18B7F88E00D1
:104AE00086E197F82F00032863D002283DD00028E4
:104AF00040F09C8197F82D0001285AD0002840F002
:104B0000958197F84100002800F0908108F0ACFAF8
:104B1000B7F874100844398A7860288E884200F00B
:104B2000B08097F83B00002800F08680012840F014
:104B3000918001F1320080B27FE0DFF83803002479
:104B400084664466C4658465446503F0CFF8CA4949
:104B5000CC61B7F8741001EB9000786034604FF0CE
:104B60008040016821F001015FE197F82D000128E4
:104B70001FD0002840F05A8197F84100002800F02B
:104B8000558108F071FAB7F874102C8E01EB00080B
:104B9000388AC7F80480844200F0B78097F83B1049
:104BA00000294FD0012940F09980798C0844323097
:104BB0004AE003F09BF8B0490022CA61B7F87410CC
:104BC00001EB90007860326002F0DEFFA948826657
:104BD0004266C2658265426528E103F03CF828D848
:104BE000DFE811F00500DA00DF00E4002400796856
:104BF0000C18B7F8AC00FBE003F02DF819D8DFE88B
:104C000001F003DADFE4150079680C18B7F8CA0080
:104C1000EEE003F020F80CD8DFE801F003DCE1E679
:104C2000080079680C18B7F8E800E1E00020A7F860
:104C30003D009148C469E9E0084604F049FD87F861
:104C40002A0009E0798C084480B204F041FD87F81D
:104C50002A0045E097F82A00796841FA80F0B7F910
:104C60002810411A388A81420AD9824C4FF07C516F
:104C7000606EFFF753FD606681A009F0EBF8388A9B
:104C8000288697F83B1079B1012917D103F018F85D
:104C900000F196018C420DD8A0F132018C4218D35C
:104CA0003230FFF7E3FDCCE003F00AF800F16401D5
:104CB0008C4206D9688E01306886D2E06E48C4699D
:104CC000C9E0A0F164018C4280F0B9806FA009F0C6
:104CD000C1F86948694C02F0B9FF9DE097F82A00D5
:104CE000D7F80480B7F928103C8A48FA80F0401AB7
:104CF000A04209D9DFF87C914FF07C51D9F86400CB
:104D0000FFF70CFDC9F864002C8697F83B0048B10A
:104D100001281CD102F05AFF00F19601894507D8FD
:104D200032300BE002F052FF00F16401894505D9F1
:104D300000251FE01404014034000040A0F164018C
:104D4000894507D2688E013068864C4D12E04A488A
:104D5000C4690BE0FFF78AFD80464846FFF78FFDE8
:104D600002F087FF0446444802F070FF03F00DF89C
:104D7000002851D140482C464DE079680C18B7F80E
:104D8000940035E079680C18B7F89A0030E079683B
:104D90000C18B7F8A0002BE079680C18B7F8B2002F
:104DA00026E079680C18B7F8B80021E079680C188B
:104DB000B7F8BE001CE079680C18B7F8D00017E00F
:104DC00079680C18B7F8D60012E079680C18B7F8B3
:104DD000DC000DE079680C18B7F8EE0008E079689F
:104DE0000C18B7F8F40003E079680C18B7F8FA006B
:104DF000FFF745FD8046B7F92800201AFFF73FFD71
:104E000002F037FF04461C4802F020FF02F0BDFF0D
:104E100010B919480024C5612046FFF76CFD3060C9
:104E20004FF08040016841F00101016097F82E00C9
:104E300018B10020306002F0A7FEBDE8F883FFF74C
:104E40001EFD80462046FFF71AFD02F012FF0446C1
:104E5000094802F0FBFE20460021FFF7F9FC00287C
:104E6000DAD105480024C461D6E700BF002D002038
:104E7000C80F0020CC2E0020002E002000A00C47E0
:104E8000636C65616E20690D000000006F757470C1
:104E900075742066756C6C0D0000000070B56A4971
:104EA000144A8B6910681C4698420FD2EFF31085A4
:104EB00072B68B69A34205D10E69886101360E6115
:104EC000BFF35F8F05B962B6A34211D051E8063F28
:104ED000A34208D1BFF35F8F41E806042CB9BFF3AA
:104EE0005F8F012402E0BFF32F8F0024002CD9D064
:104EF00070BD00BF041000E07CB504465248007845
:104F000020B1664890F85F00400600D47CBDFFF7F2
:104F1000C5FF05460020EFF305862246CDE90000D7
:104F20000B4800F140016846FFF77CFB0948002E62
:104F3000294608BF4FF47E40DDE9002364F31240A8
:104F400000F1407002B0BDE8704000F005B800BF4D
:104F5000002E002000FE08002DE9FC4F4FF0005409
:104F600001924FF00708009304EA92024FF0805438
:104F700004EAD104204310434FF0804202EA530276
:104F80000243314800F10C04304BB8F1000F58D007
:104F900050E8015F6E1C40E80167002FF8D105F072
:104FA0003F0905F4707603EB091A42EA863B554641
:104FB00055F80CEF5FEA4E161AD40EF0004677460D
:104FC00055E800EF46EA0B0646F04066BE4507D1BD
:104FD00045E8006737B9BFF35F8F4FF0010C03E07E
:104FE000BFF32F8F4FF0000CBCF1000FE2D002E0B6
:104FF000A8F10108C8E786F0004221F00041134BF8
:105000004FEA091602F00044214499510099019B8E
:1050100021F0004123F000432144234400F108041F
:105020000120CAE9013122F08061BFF35F8F29605E
:1050300054E8001F013144E80012002AF8D1BDE80D
:10504000FC8F0020F4E700BFC0330020402F002079
:105050002DE9F041DFF8448000234FF0010E4FF0BE
:10506000000CBCF1040F08BFBDE8F08120FA0CF77A
:10507000FF070FD00F4697420CD803EBD70407F079
:105080000706013718F804500EFA06F6354308F8FB
:105090000450F0E70CF1010C2033E2E7403300202C
:1050A0002DE9F04FD5B0DFF8209A99F805000328D4
:1050B00001F21880DFE810F0040018050C00E60487
:1050C00099F81200002801F01B80012001F008B8B7
:1050D000FC4E99F81110DFF8F449FB4ADFF8F0793B
:1050E000B01F904611F0010508BFA2F17200218D9A
:1050F000B847301F002D08BFA8F17000618CB84779
:10510000B01E002D08BFA8F16E00A18CB847304634
:10511000002D08BFA8F16C00B4F86E10B84706F176
:10512000C200002D08BF08F1580094F83010B847AD
:105130003046002D08BFA8F16A0094F83110B84736
:10514000B01C002D08BFA8F1680094F83210B847D1
:10515000301D002D08BFA8F1660094F83310B84741
:10516000B01D002D08BFA8F1640094F83410B847B2
:1051700006F10800002D08BFA8F1620094F8351070
:10518000B84706F10A00002D08BFA8F1600094F8A6
:105190003610B84706F10C00002D08BFA8F15E00DC
:1051A00094F83810B84706F10E00002D08BFA8F19A
:1051B0005C0094F83910B84706F11000002D08BFC4
:1051C000A8F15A0094F83A10B84706F11200002DE1
:1051D00008BFA8F1580094F83B10B84706F1140036
:1051E000002D08BFA8F15600B4F87610B84706F1B4
:1051F0001600002D08BFA8F15400B4F87810B84785
:1052000006F11800002D08BFA8F15200B4F87A107A
:10521000B84706F11A00002D08BFA8F15000B4F8F5
:105220007C10B84706F11C00002D08BFA8F14E0005
:10523000B4F87E10B84706F11E00002D08BFA8F193
:105240004C00B4F88010B84706F12000002D08BFCC
:10525000A8F14A00B4F88210B84706F12200002DE8
:1052600008BFA8F14800B4F88410B84706F124003C
:10527000002D08BFA8F14600B4F88610B84706F123
:105280002600002D08BFA8F14400B4F88810B847E4
:1052900006F12800002D08BFA8F14200B4F88A10DA
:1052A000B84706F12A00002D08BFA8F14000B4F865
:1052B0008C10B84706F12C00002D08BFA8F13E0065
:1052C000B4F88E10B84706F12E00002D08BFA8F1E3
:1052D0003C00B4F89010B84706F13000002D08BF2C
:1052E000A8F13A00B4F89210B84706F13200002D48
:1052F00008BFA8F13800B4F89410B84706F134009C
:10530000002D08BFA8F13600B4F89610B84706F192
:105310003600002D08BFA8F13400B4F89810B84743
:1053200006F13800002D08BFA8F13200B4F89A1039
:10533000B84706F13A00002D08BFA8F13000B4F8D4
:105340009C10B84706F13C00002D08BFA8F12E00C4
:10535000B4F89E10B84706F13E00002D08BFA8F132
:105360002C00B4F8A010B84706F14000002D08BF8B
:10537000A8F12A00B4F8A210B84706F14200002DA7
:1053800008BFA8F12800B4F8A410B84706F14400FB
:10539000002D08BFA8F12600B4F8A610B84706F102
:1053A0004600002D08BFA8F12400B4F8A810B847A3
:1053B00006F14800002D08BFA8F12200B4F8AA1099
:1053C000B84706F14A00002D08BFA8F12000B4F844
:1053D000AC10B84706F14C00002D08BFA8F11E0024
:1053E000B4F8AE10B84706F14E00002D08BFA8F182
:1053F0001C00B4F8B010B84706F15000002D08BFEB
:10540000A8F11A00B4F8B210B84706F15200002D06
:1054100008BFA8F11800B4F8B410B84706F154005A
:10542000002D08BFA8F11600B4F8B610B84706F171
:105430005600002D08BFA8F11400B4F8B810B84702
:1054400006F15800002D08BFA8F11200B4F8BA10F8
:10545000B84706F15A00002D08BFA8F11000B4F8B3
:10546000BC10B84706F15C00002D08BFA8F10E0083
:10547000B4F8BE10B84706F15E00002D08BFA8F1D1
:105480000C00B4F8C010B84706F16000002D08BF4A
:10549000A8F10A00B4F8C210B84706F16200002D66
:1054A00008BFA8F10800B4F8C410B84706F16400BA
:1054B000002D08BFA8F10600B4F8C610B84700F0E8
:1054C00005B800BF0CF4010878F8010806F1660081
:1054D000002D08BFA8F10400B4F8C810B84706F1C1
:1054E0006800002D08BFA8F10200B4F8CA10B84740
:1054F00006F16A00002D04BF4FF67800C0F60100E7
:10550000B4F8CC10B84706F16C00002D08BF08F1C4
:105510000200B4F8CE10B84706F16E00002D08BFA7
:1055200008F10400B4F8D010B84706F17000002D5F
:1055300008BF08F10600B4F8D210B84706F17200AF
:10554000002D08BF08F10800B4F8D410B84706F1E0
:105550007400002D08BF08F10A00B4F8D610B8474F
:1055600006F17600002D08BF08F10C00B4F8D81041
:10557000B84706F17800002D08BF08F10E00B4F816
:10558000DA10B84706F17A00002D08BF08F11000C4
:10559000B4F8DC10B84706F17C00002D08BF08F114
:1055A0001200B4F8DE10B84706F17E00002D08BFE7
:1055B00008F11400B4F8E010B84706F18000002D9F
:1055C00008BF08F11600B4F8E210B84706F18200EF
:1055D000002D08BF08F11800B4F8E410B84706F130
:1055E0008400002D08BF08F11A00B4F8E610B8478F
:1055F00006F18600002D08BF08F11C00B4F8E81081
:10560000B84706F18800002D08BF08F11E00B4F865
:10561000EA10B84706F18A00002D08BF08F1200003
:10562000B4F8EC10B84706F18C00002D08BF08F163
:105630002200B4F8EE10B84706F18E00002D08BF26
:1056400008F12400B4F8F010B84706F19000002DDE
:1056500008BF08F12600B4F8F210B84706F192002E
:10566000002D08BF08F12800B4F8F410B84706F17F
:105670009400002D08BF08F12A00B4F8F610B847CE
:1056800006F19600002D08BF08F12C00B4F8F810C0
:10569000B84706F19800002D08BF08F12E00B4F8B5
:1056A000FA10B84706F19A00002D08BF08F1300043
:1056B000B4F8FC10B84706F19C00002D08BF08F1B3
:1056C0003200B4F8FE10B84706F19E00002D08BF66
:1056D00008F13400B4F80011B84706F1A000002D1D
:1056E00008BF08F13600B4F80211B84706F1A2006D
:1056F000002D08BF08F13800B4F80411B84706F1CE
:10570000A400002D08BF08F13A00B4F80611B8470C
:1057100006F1A600002D08BF08F13C00B4F80811FE
:10572000B84706F1A800002D08BF08F13E00B4F804
:105730000A11B84706F1AA00002D08BF08F1400081
:10574000B4F80C11B84706F1AC00002D08BF08F101
:105750004200B4F80E11B84706F1AE00002D08BFA4
:1057600008F14400B4F81011B84706F1B000002D5C
:1057700008BF08F14600B4F81211B84706F1B200AC
:10578000002D08BF08F14800B4F81411B84706F11D
:10579000B400002D08BF08F14A00B4F81611B8474C
:1057A00006F1B600002D08BF08F14C00B4F818113E
:1057B000B84706F1B800002D08BF08F14E00B4F854
:1057C0001A11B84706F1BA00002D08BF08F15000C1
:1057D000B4F81C11B84706F1BC00002D08BF08F151
:1057E0005200B4F81E11B84706F1BE00002D08BFE4
:1057F00008F15400B4F82011B84706F1C000002D9C
:1058000008BF08F15600B4F82211B84706F1C600E7
:10581000002D08BF08F15C00B4F82811B84706F164
:10582000C800002D08BF08F15E00B4F83011B84779
:10583000208D94F8311094F8333094F83220A9F880
:105840003A00608C89F80710D4F8921089F8093072
:10585000D4F89A3089F80820D4F89620A9F83C00AA
:10586000A08CC9F85E10D4F8B210C9F86630D4F82C
:10587000BA30C9F86220D4F8B620A9F83E00B4F8CE
:105880006E00A9F8400094F8300089F8060094F8FA
:10589000340089F80A0094F8350089F80B0094F870
:1058A000360089F80C00A06BC9F80D00D4F876001A
:1058B000C9F84200D4F87A00C9F84600D4F87E004E
:1058C000C9F84A00D4F88200C9F84E00D4F886001E
:1058D000C9F85200B4F88A00A9F85600B4F88C0050
:1058E000A9F85800D4F88E00C9F85A00D4F89E00E0
:1058F000C9F86A00D4F8A200C9F86E00D4F8A6006E
:10590000C9F87200B4F8AA00A9F87600B4F8AC009F
:10591000A9F87800D4F8AE00C9F87A006D480160A3
:10592000D4F8BE10836004F594734260C160D4F86B
:10593000C2100161D4F8C6104161B4F8CA100183E5
:10594000B4F8CC104183B4F8CE108183B4F8D010F1
:10595000C183B4F8D2100184B4F8D4104184B4F8EF
:10596000D6108184B4F8D810C184B4F8DA10018557
:10597000B4F8DC104185B4F8DE108185B4F8E0108D
:10598000C185B4F8E2100186B4F8E4104186B4F899
:10599000E6108186B4F8E810C186B4F8EA100187F1
:1059A000B4F8EC104187B4F8EE108187B4F8F01029
:1059B000C187B4F8F210A0F84010B4F8F410A0F8C1
:1059C0004210B4F8F610A0F84410B4F8F810A0F89B
:1059D0004610B4F8FA10A0F84810B4F8FC10A0F87B
:1059E0004A10B4F8FE10A0F84C10B4F80011A0F85A
:1059F0004E10B4F80211A0F85010B4F80411A0F839
:105A00005210B4F80611A0F85410B4F80811A0F818
:105A10005610B4F80A11A0F85810B4F80C11A0F8F8
:105A20005A10B4F80E11A0F85C10B4F81011A0F8D8
:105A30005E10B4F81211A0F86010B4F81411A0F8B8
:105A40006210B4F81611A0F86410B4F81811A0F898
:105A50006610B4F81A11A0F86810B4F81C11A0F878
:105A60006A10B4F81E11A0F86C10B4F82011A0F858
:105A70006E10B4F82211184CA0F870100FCB30340F
:105A80000FC42AE3154899F81120124C1449CA3062
:105A9000D20708BF01F16000B4F8721005F00CFBEA
:105AA0001048C16841F08001C160012089F80500FB
:105AB000B4F872000130A4F8720099F811000130B6
:105AC00089F811000EE300BF002D0020C80F002050
:105AD000B9B000087E2D0020002E00200CF4010833
:105AE00078F80108042002405FF82080B9F83410EB
:105AF000B8F81000814240F0B98298F81600B9F861
:105B00003610814240F0B28298F81800B9F8381087
:105B1000814240F0AB82B8F92800B9F83A108142CE
:105B200040F0A482B8F82200B9F83C10814240F05D
:105B30009D82B8F82400B9F83E10814240F0968268
:105B4000B8F86E00B9F84010814240F08F8298F8A2
:105B5000300099F80610814240F0888298F83100B0
:105B600099F80710814240F0818298F8320099F844
:105B70000810814240F07A8298F8330099F80910B1
:105B8000814240F0738298F8340099F80A108142FB
:105B900040F06C8298F8350099F80B10814240F083
:105BA000658298F8360099F80C10814240F05E82C8
:105BB00098F8380099F80D10814240F0578298F813
:105BC000390099F80E10814240F0508298F83A005E
:105BD00099F80F10814240F0498298F83B0099F8FB
:105BE0001010814240F04282B8F87600B9F84210B5
:105BF000814240F03B82B8F87800B9F84410814205
:105C000040F03482B8F87A00B9F84610814240F08A
:105C10002D82B8F87C00B9F84810814240F0268205
:105C2000B8F87E00B9F84A10814240F01F82B8F8F7
:105C30008000B9F84C10814240F01882B8F8820018
:105C4000B9F84E10814240F01182B8F88400B9F8DA
:105C50005010814240F00A82B8F88600B9F852101C
:105C6000814240F00382B8F88800B9F854108142AC
:105C700040F0FC81B8F88A00B9F85610814240F033
:105C8000F581B8F88C00B9F85810814240F0EE81E7
:105C9000B8F88E00B9F85A10814240F0E781B8F8A0
:105CA0009000B9F85C10814240F0E081B8F89200B1
:105CB000B9F85E10814240F0D981B8F89400B9F883
:105CC0006010814240F0D281B8F89600B9F86210B5
:105CD000814240F0CB81B8F89800B9F86410814255
:105CE00040F0C481B8F89A00B9F86610814240F0DB
:105CF000BD81B8F89C00B9F86810814240F0B681C7
:105D0000B8F89E00B9F86A10814240F0AF81B8F847
:105D1000A000B9F86C10814240F0A881B8F8A20048
:105D2000B9F86E10814240F0A181B8F8A400B9F82A
:105D30007010814240F09A81B8F8A600B9F872104C
:105D4000814240F09381B8F8A800B9F874108142FC
:105D500040F08C81B8F8AA00B9F87610814240F082
:105D60008581B8F8AC00B9F87810814240F07E81A6
:105D7000B8F8AE00B9F87A10814240F07781B8F8EF
:105D8000B000B9F87C10814240F070815FF8BC022D
:105D9000B8F8B21002888A4240F06881B8F8B410AE
:105DA00042888A4240F06281B8F8B61082888A42FE
:105DB00040F05C81B8F8B810C2888A4240F0568141
:105DC000B8F8BA1002898A4240F05081B8F8BC1085
:105DD00042898A4240F04A81B8F8BE1082898A42DC
:105DE00040F04481B8F8C010C2898A4240F03E8138
:105DF000B8F8C210028A8A4240F03881B8F8C4105C
:105E0000428A8A4240F03281B8F8C610828A8A42B9
:105E100040F02C81B8F8C810C28A8A4240F026812E
:105E2000B8F8CA10028B8A4240F02081B8F8CC1032
:105E3000428B8A4240F01A81B8F8CE10828B8A4297
:105E400040F01481B8F8D010C28B8A4240F00E8125
:105E5000B8F8D210028C8A4240F00881B8F8D41009
:105E6000428C8A4240F00281B8F8D610828C8A4275
:105E700040F0FC80B8F8D810C28C8A4240F0F6801E
:105E8000B8F8DA10028D8A4240F0F080B8F8DC10E1
:105E9000428D8A4240F0EA80B8F8DE10828D8A4254
:105EA00040F0E480B8F8E010C28D8A4240F0DE8015
:105EB000B8F8E210028E8A4240F0D880B8F8E410B8
:105EC000428E8A4240F0D280B8F8E610828E8A4232
:105ED00040F0CC80B8F8E810C28E8A4240F0C6800C
:105EE000B8F8EA10028F8A4240F0C080B8F8EC108F
:105EF000428F8A4240F0BA80B8F8EE10828F8A4210
:105F000040F0B480B8F8F010C28F8A4240F0AE8002
:105F1000B8F8F210B0F840208A4240F0A780B8F8F4
:105F2000F410B0F842208A4240F0A080B8F8F61091
:105F3000B0F844208A4240F09980B8F8F810B0F8E0
:105F400046208A4240F09280B8F8FA10B0F8482013
:105F50008A4240F08B80B8F8FC10B0F84A208A42A0
:105F600040F08480B8F8FE10B0F84C208A427DD111
:105F7000B8F80011B0F84E208A4277D1B8F8021173
:105F8000B0F850208A4271D1B8F80411B0F852200C
:105F90008A426BD1B8F80611B0F854208A4265D114
:105FA000B8F80811B0F856208A425FD1B8F80A1143
:105FB000B0F858208A4259D1B8F80C11B0F85A20DC
:105FC0008A4253D1B8F80E11B0F85C208A424DD104
:105FD000B8F81011B0F85E208A4247D1B8F8121113
:105FE000B0F860208A4241D1B8F81411B0F86220AC
:105FF0008A423BD1B8F81611B0F864208A4235D1F4
:10600000B8F81811B0F866208A422FD1B8F81A11E2
:10601000B0F868208A4229D1B8F81C11B0F86A207B
:106020008A4223D1B8F81E11B0F86C208A421DD1E3
:10603000B8F82011B0F86E208A4217D1B8F82211B2
:10604000B0F87000884211D15FF87405D8E94A129F
:10605000D0E90C3462405940114307D1D8E94C12C1
:10606000D0E90E035A40484010433BD01F48204916
:10607000204E01602049A6F10C04016099F811003E
:1060800010F0010708BF06F57D74204605F044F8BE
:10609000B8F810105FF8C8552046A847A6F10A00C6
:1060A000164C002F08BFA4F1760098F81610A847E8
:1060B000A6F10800002F08BFA4F1740098F818108A
:1060C000A847B8F8100098F81810A9F8340098F804
:1060D0001600A9F83810A9F8360099F80500013023
:1060E00089F8050055B0BDE8F08F00BF04200240DC
:1060F000230167450CF40108AB89EFCD78F801085E
:10610000054CA4F10C06304603F0CCFA4FF6FF75AF
:10611000A84200F0388201E00CF4010804F57D7714
:10612000384603F0BFFAA84200F02D8204F1CA00FD
:1061300005F01CF85FF86456A5F874000548804621
:10614000603005F013F8B5F87410814200F2218236
:1061500004E000BF78F801086DB100085FF808603E
:106160003846B0475FF89C7645463882A8F17600FD
:10617000B047B875A8F17400B0473876A8F172003E
:10618000B0473885A8F17000B0477884A8F16E0058
:10619000B047B88408F15800B04787F83000A8F13C
:1061A0006C00B047A7F86E00A8F16A00B04787F806
:1061B0003100A8F16800B04787F83200A8F1660006
:1061C000B04787F83300A8F16400B04787F834007F
:1061D000A8F16200B04787F83500A8F16000B04729
:1061E00087F83600A8F15E00B04787F83800A8F1BC
:1061F0005C00B04787F83900A8F15A00B04787F82B
:106200003A00A8F15800B04787F83B00A8F15600C3
:10621000B047A7F87600A8F15400B047A7F8780077
:10622000A8F15200B047A7F87A00A8F15000B04793
:10623000A7F87C00A8F14E00B047A7F87E00A8F1AF
:106240004C00B047A7F88000A8F14A00B047A7F873
:106250008200A8F14800B047A7F88400A8F14600E2
:10626000B047A7F88600A8F14400B047A7F8880017
:10627000A8F14200B047A7F88A00A8F14000B04753
:10628000A7F88C00A8F13E00B047A7F88E00A8F14F
:106290003C00B047A7F89000A8F13A00B047A7F833
:1062A0009200A8F13800B047A7F89400A8F1360092
:1062B000B047A7F89600A8F13400B047A7F89800B7
:1062C000A8F13200B047A7F89A00A8F13000B04713
:1062D000A7F89C00A8F12E00B047A7F89E00A8F1EF
:1062E0002C00B047A7F8A000A8F12A00B047A7F8F3
:1062F000A200A8F12800B047A7F8A400A8F1260042
:10630000B047A7F8A600A8F12400B047A7F8A80056
:10631000A8F12200B047A7F8AA00A8F12000B047D2
:10632000A7F8AC00A8F11E00B047A7F8AE00A8F18E
:106330001C00B047A7F8B000A8F11A00B047A7F8B2
:10634000B200A8F11800B047A7F8B400A8F11600F1
:10635000B047A7F8B600A8F11400B047A7F8B800F6
:10636000A8F11200B047A7F8BA00A8F11000B04792
:10637000A7F8BC00A8F10E00B047A7F8BE00A8F12E
:106380000C00B047A7F8C000A8F10A00B047A7F872
:10639000C200A8F10800B047A7F8C400A8F10600A1
:1063A000B047A7F8C600A8F10400B047A7F8C80096
:1063B0004046B047A7F8CA004046B047A7F8CC000F
:1063C00008F10200B047A7F8CE0008F10400B0477A
:1063D000A7F8D00008F10600B047A7F8D20008F1EE
:1063E0000800B047A7F8D40008F10A00B047A7F8A2
:1063F000D60008F10C00B047A7F8D80008F10E004D
:10640000B047A7F8DA0008F11000B047A7F8DC00A1
:1064100008F11200B047A7F8DE0008F11400B047F9
:10642000A7F8E00008F11600B047A7F8E20008F16D
:106430001800B047A7F8E40008F11A00B04708F1C7
:106440001E04A7F8E6002046B047A7F8E80020465B
:10645000B047A7F8EA0008F12000B047A7F8EC0021
:1064600008F12200B047A7F8EE0008F12400B04779
:10647000A7F8F00008F12600B047A7F8F20008F1ED
:106480002800B047A7F8F40008F12A00B047A7F8A1
:10649000F60008F12C00B047A7F8F80008F12E002C
:1064A000B047A7F8FA0008F13000B047A7F8FC00A1
:1064B00008F13200B047A7F8FE0008F13400B047F9
:1064C000A7F8000108F13600B047A7F8020108F16B
:1064D0003800B04708F13C04A7F804012046B04753
:1064E000A7F806012046B047A7F8080108F13E00CA
:1064F000B047A7F80A0108F14000B047A7F80C011F
:1065000008F14200B047A7F80E0108F14400B04777
:10651000A7F8100108F14600B047A7F8120108F1EA
:106520004800B047A7F8140108F14A00B047A7F89F
:10653000160108F14C00B047A7F8180108F14E0009
:10654000B047A7F81A0108F15000B047A7F81C019E
:1065500008F15200B047A7F81E0108F15400B047F7
:10656000A7F8200108F15600B047A7F8220108F16A
:106570005C00B0470024C7E94A0408F15E00B04758
:10658000C7E94C0412E2304603F08CF8A84200F050
:1065900089875FF83C743046B8475FF8D06A30822C
:1065A000A4F10A00B847B075A4F10800B8473076E6
:1065B000A01FB8473085201FB8477084A01EB84779
:1065C000B08404F1C200B84786F830002046B847CE
:1065D000A6F86E002046B84786F83100A01CB847E0
:1065E00086F83200201DB84786F83300A01DB84752
:1065F00086F8340004F10800B84786F8350004F145
:106600000A00B84786F8360004F10C00B84786F84F
:10661000380004F10E00B84786F8390004F1100084
:10662000B84786F83A0004F11200B84786F83B00F4
:1066300004F11400B847A6F8760004F11600B84734
:10664000A6F8780004F11800B847A6F87A0004F11B
:106650001A00B847A6F87C0004F11C00B847A6F859
:106660007E0004F11E00B847A6F8800004F1200067
:10667000B847A6F8820004F12200B847A6F88400C3
:1066800004F12400B847A6F8860004F12600B847B4
:10669000A6F8880004F12800B847A6F88A0004F19B
:1066A0002A00B847A6F88C0004F12C00B847A6F8D9
:1066B0008E0004F12E00B847A6F8900004F13000D7
:1066C000B847A6F8920004F13200B847A6F8940043
:1066D00004F13400B847A6F8960004F13600B84734
:1066E000A6F8980004F13800B847A6F89A0004F11B
:1066F0003A00B847A6F89C0004F13C00B847A6F859
:106700009E0004F13E00B847A6F8A00004F1400046
:10671000B847A6F8A20004F14200B847A6F8A400C2
:1067200004F14400B847A6F8A60004F14600B847B3
:10673000A6F8A80004F14800B847A6F8AA0004F19A
:106740004A00B847A6F8AC0004F14C00B847A6F8D8
:10675000AE0004F14E00B847A6F8B00004F15000B6
:10676000B847A6F8B20004F15200B847A6F8B40042
:1067700004F15400B847A6F8B60004F15600B84733
:10678000A6F8B80004F15800B847A6F8BA0004F11A
:106790005A00B847A6F8BC0004F15C00B847A6F858
:1067A000BE0004F15E00B847A6F8C00004F1600026
:1067B000B847A6F8C20004F16200B847A6F8C400C2
:1067C00004F16400B847A6F8C60004F16600B847B3
:1067D00004F16A05A6F8C8002846B847A6F8CA001A
:1067E0002846B847A6F8CC0004F16C00B847A6F8D4
:1067F000CE0004F16E00B847A6F8D00004F1700096
:10680000B847A6F8D20004F17200B847A6F8D40041
:1068100004F17400B847A6F8D60004F17600B84732
:10682000A6F8D80004F17800B847A6F8DA0004F119
:106830007A00B847A6F8DC0004F17C00B847A6F857
:10684000DE0004F17E00B847A6F8E00004F1800005
:10685000B847A6F8E20004F18200B847A6F8E400C1
:1068600004F18400B84704F18805A6F8E60028463C
:10687000B847A6F8E8002846B847A6F8EA0004F1A9
:106880008A00B847A6F8EC0004F18C00B847A6F8D7
:10689000EE0004F18E00B847A6F8F00004F1900075
:1068A000B847A6F8F20004F19200B847A6F8F40041
:1068B00004F19400B847A6F8F60004F19600B84732
:1068C000A6F8F80004F19800B847A6F8FA0004F119
:1068D0009A00B847A6F8FC0004F19C00B847A6F857
:1068E000FE0004F19E00B847A6F8000104F1A000E4
:1068F000B847A6F8020104F1A200B84704F1A605C2
:10690000A6F804012846B847A6F806012846B84765
:10691000A6F8080104F1A800B847A6F80A0104F196
:10692000AA00B847A6F80C0104F1AC00B847A6F8D5
:106930000E0104F1AE00B847A6F8100104F1B00052
:10694000B847A6F8120104F1B200B847A6F814013E
:1069500004F1B400B847A6F8160104F1B600B84730
:10696000A6F8180104F1B800B847A6F81A0104F116
:10697000BA00B847A6F81C0104F1BC00B847A6F855
:106980001E0104F1BE00B847A6F8200104F1C000C2
:10699000B847A6F8220104F1C600B8470025C6E9A9
:1069A0004A0504F1C800B847C6E94C055FF8E40E93
:1069B000018AB1F5FA7F01D8632902D84FF49671A4
:1069C0000182827DC82A01D8042A01D8502282750A
:1069D0005491418C5292642924BF322141845391B5
:1069E000828C40F2E6318A4200D80AB93C22828485
:1069F00090F830104FF6FF77022924BF002180F86D
:106A0000301090F83140022C24BF002480F831402F
:106A100090F83250022D24BF012580F83250449561
:106A200090F83350022D24BF012580F833504E9545
:106A3000509490F83450032D24BF012580F8345031
:106A400090F83540032C24BF012480F835404C9445
:106A500090F83640032C24BF012480F83640519131
:106A600090F83810022924BF002180F838104A918C
:106A700090F8391019B1012680F8396000E000263D
:106A800090F83A1011B1002180F83A10B0F928308E
:106A9000322B04DCA7F1310109B28B4201DA002369
:106AA0000385B0F86E804FEAD8017C2902D8B8F18E
:106AB000640F03D84FF01408A0F86E80B0F8761079
:106AC000B1F5FA7F01D8632903D84FF49671A0F885
:106AD00076104891B0F878104D95C82901D804294E
:106AE00002D85021A0F87810B0F87AA046914FEA69
:106AF000DA017C2902D8BAF1000F03D14FF01E0A47
:106B0000A0F87AA0B0F87C10B1F5FA7F01D863291B
:106B100003D84FF49671A0F87C104291B0F87E1023
:106B20004996C82901D8042902D85021A0F87E101E
:106B3000B0F880E041914FEADE017C2902D8BEF135
:106B4000000F03D14FF01E0EA0F880E0B0F8826075
:106B5000B6F5FA7F01D8632E03D84FF49676A0F8E5
:106B60008260B0F88410CDF800E1C82901D804296A
:106B700002D85021A0F88410B0F886503E91E90860
:106B80007C2900D815B91E25A0F88650B0F88810C9
:106B9000B1F5FA7F01D8632903D84FF49671A0F8B4
:106BA00088103C91B0F88A10C82901D8042902D86D
:106BB0005021A0F88A10B0F88C703B91F9087C291C
:106BC00000D817B91E27A0F88C70B0F88E10B1F558
:106BD000FA7F01D8632902D86421A0F88E10399178
:106BE000B0F890103F96C82901D8042902D8142182
:106BF000A0F89010B0F892603891F1087C2900D884
:106C000016B93C26A0F89260B0F89410B1F5FA7F5E
:106C100001D8632902D86421A0F894103691B0F805
:106C200096103A973D95C82901D8042902D8142115
:106C3000A0F89610B0F898C035914FEADC017C2995
:106C400002D8BCF1000F03D14FF03C0CA0F898C063
:106C5000B0F89A10CDF8D0C0B1F5FA7F01D8632909
:106C600002D86421A0F89A103391B0F89C10479391
:106C7000C82901D8042902D81421A0F89C10B0F822
:106C80009E3032914F92D9087C2900D813B93C2309
:106C9000A0F89E30B0F8A010B1F5FA7F01D86329B2
:106CA00002D86421A0F8A0103091B0F8A2104B9443
:106CB000C82901D8042902D81421A0F8A210B0F8DC
:106CC000A4202F91D1087C2900D812B93C22A0F829
:106CD000A420B0F8A610B1F5FA7F01D8632902D834
:106CE0006421A0F8A6102D91B0F8A810C82901D8E9
:106CF000042902D81421A0F8A810B0F8AAC02C9139
:106D0000CDF814814FEADC017C2902D8BCF1000FD8
:106D100003D14FF03C0CA0F8AAC0B0F8AC50B5F5C8
:106D2000FA7F01D8632D02D86425A0F8AC50B0F8E2
:106D3000AE103193CDF8A8C0C82901D8042902D8D3
:106D40001421A0F8AE10B0F8B0302691D9087C29F3
:106D500000D813B93C23A0F8B030B0F8B210249397
:106D6000B1F5FA7F01D8632902D86421A0F8B210E6
:106D70002B91B0F8B410CDF80CA1C82901D8042982
:106D800002D81421A0F8B410B0F8B6302991D9086F
:106D90007C2900D813B93C23A0F8B630B0F8B8105D
:106DA000B1F5FA7F01D8632902D86421A0F8B810A0
:106DB0002591B0F8BA102793C82901D8042902D820
:106DC0001421A0F8BA10B0F8BC302391D9087C295E
:106DD00000D813B93C23A0F8BC30B0F8BE10B1F510
:106DE000FA7F01D8632902D86421A0F8BE1021914E
:106DF000B0F8C010C82901D8042902D81421A0F87D
:106E0000C010B0F8C2C020914FEADC017C2902D842
:106E1000BCF1000F03D14FF03C0CA0F8C2C0B0F899
:106E2000C4702E92B7F5FA7F01D8632F02D8642779
:106E3000A0F8C470B0F8C6103246CDF87CC0C8299E
:106E400001D8042902D81421A0F8C610B0F8C860EF
:106E50001D91F1087C2900D816B93C26A0F8C8601D
:106E6000B0F8CA10B1F5FA7F01D8632902D86421BD
:106E7000A0F8CA101B91B0F8CC10C82901D8042979
:106E800002D81421A0F8CC10B0F8CEA01A914FEA85
:106E9000DA017C2902D8BAF1000F03D14FF03C0A85
:106EA000A0F8CEA0B0F8D010B1F5FA7F01D86329D0
:106EB00002D86421A0F8D0101891B0F8D210C829D7
:106EC00001D8042902D81421A0F8D210B0F8D4B007
:106ED00017911C9628954FEADB017C2903D8594667
:106EE000BBF1000F02D13C21A0F8D410B0F8D6C0FD
:106EF0001E973792BCF5FA7F02D8BCF1630F03D816
:106F00004FF0640CA0F8D6C0B0F8D880B8F1C80F24
:106F100002D8B8F1040F03D84FF01408A0F8D880B5
:106F2000B0F8DAB0BBF57A7F24BF4FF03C0BA0F885
:106F3000DAB0B0F8DCE0BEF5FA7F02D8BEF1630F3C
:106F400003D84FF0640EA0F8DCE01691B0F8DE1024
:106F5000CDF848E0C82901D8042902D81421A0F8A6
:106F6000DE10B0F8E0E011914FEADE017C2902D892
:106F7000BEF1000F03D14FF03C0EA0F8E0E0B0F8F6
:106F8000E210B1F5FA7F01D8632902D86421A0F894
:106F9000E2100F91B0F8E410C82901D8042902D8F2
:106FA0001421A0F8E410B0F8E6700E91F9087C29DD
:106FB00000D817B93C27A0F8E670B0F8E810B1F592
:106FC000FA7F01D8632902D86421A0F8E8100C9157
:106FD000B0F8EA10C82901D8042902D81421A0F871
:106FE000EA10B0F8EC200B91D1087C2900D812B936
:106FF0003C22A0F8EC20B0F8EE10B1F5FA7F01D8F1
:10700000632902D86421A0F8EE100991B0F8F010BD
:10701000C82901D8042902D81421A0F8F010B0F82A
:10702000F2400891E1087C2900D814B93C24A0F86A
:10703000F240B0F8F410B1F5FA7F01D8632902D814
:107040006421A0F8F4100691B0F8F610C82901D810
:10705000042902D81421A0F8F610B0F8F8500591D0
:10706000E9087C2900D815B93C25A0F8F850B0F8FB
:10707000FA10B1F5FA7F01D8632902D86421A0F88B
:10708000FA100A92B0F8FC20C82A01D8042A02D8C3
:107090001422A0F8FC20B0F8FE600292F2087C2ACC
:1070A00000D816B93C26A0F8FE60B0F80021019681
:1070B000B2F5FA7F01D8632A02D86422A0F8002131
:1070C0000092B0F802212293C82A01D8042A02D8DB
:1070D0001422A0F80221B0F804310391DE087C2EBE
:1070E00000D813B93C23A0F80431B0F80611049578
:1070F00007940D97CDF840E0B1F5FA7F01D86329E8
:1071000002D86421A0F80611B0F808E1CDE913B85F
:10711000CDF854C0BEF1C80F02D8BEF1040F03D899
:107120004FF0140EA0F808E1B0F80AB14FEADB0600
:107130007C2E02D8BBF1000F03D14FF03C0BA0F81E
:107140000AB1CDF864A0B0F80CA1BAF5FA7F02D864
:10715000BAF1630F03D84FF0640AA0F80CA1B0F89D
:107160000E61349CCC46C82E01D8042E02D81426B9
:10717000A0F80E61B0F81091DDF810814FEAD90740
:107180007C2F02D8B9F1000F03D14FF03C09A0F8D1
:107190001091B0F81271B7F5FA7F01D8632F02D8B9
:1071A0006427A0F81271B0F81471C82F01D8042F09
:1071B00002D81427A0F81471B0F81671FD087C2DC0
:1071C00000D817B93C25A0F81651B0F81871B7F5DA
:1071D000FA7F01D8632F02D86425A0F81851B0F8BF
:1071E0001A71C82F01D8042F02D81425A0F81A51FB
:1071F000B0F81C71FD087C2D00D817B93C25A0F80B
:107200001C51B0F81E71B7F5FA7F01D8632F02D870
:107210006425A0F81E51B0F82071C82F01D8042FA2
:1072200002D81425A0F82051B0F82271FD087C2D59
:1072300000D817B93C25A0F822518CF80880DFF857
:10724000B087529DACF86440359C90F83B70A8F82C
:1072500054100099ACF83650549DACF86240369CFE
:10726000A8F85230A8F850208CF81070A8F85E905A
:10727000A8F85C60A8F85AA0A8F858B0A8F856E09A
:10728000A8F84E100199ACF83450459DACF8604018
:10729000379CA8F84C100299ACF840504F9DACF8C0
:1072A0005E40389CA8F84A100399ACF83E50539DB4
:1072B000ACF85C40399CA8F848100499ACF83C50F4
:1072C000479DACF85A403A9CA8F846100599ACF88E
:1072D0003A500025ACF858403B9C8CF80F50499D23
:1072E000A8F844100699ACF856403C9C8CF80E5017
:1072F0004A9DA8F842100799ACF8544000F58A74EA
:107300008CF80D504B9DA8F8401008998CF80C5043
:107310004C9DA8F83E1009998CF80B504D9DA8F88B
:107320003C100A998CF80A504E9DA8F83A100B9917
:107330008CF80950509DA8F838100C998CF807501B
:10734000519DA8F836100D998CF80650057EA8F8C6
:1073500034100E99ACF83850249DA8F832100F99CB
:10736000ACF87C50269DA8F830101099ACF87A50F3
:10737000289DA8F82E101199ACF878502A9DA8F8ED
:107380002C101299ACF876502C9DA8F82A1013995D
:10739000ACF874502D9DA8F828101499ACF87250D0
:1073A0002E9DA8F826101599ACF870502F9DA8F8BE
:1073B00024101699ACF86E50309DA8F82210179939
:1073C000ACF86C50319DA8F820101899ACF86A50B0
:1073D000329DA8F81E101999ACF86850339DA8F892
:1073E0001C101A99ACF866503D9DA8F81A101B990C
:1073F000ACF852503E9DA8F818101C99ACF85050AB
:107400003F9DA8F816101D99ACF84E50409DA8F865
:1074100014101E99ACF84C50419DA8F812101F99F9
:10742000ACF84A50429DA8F810102099ACF848508A
:10743000439DA8F80E102199ACF84650469DA8F837
:107440000C102299ACF84450489DA8F80A102399D2
:10745000ACF84250DFF8A055A8F80810259930354F
:10746000A8F806102799A8F804102999A8F802107E
:107470002B99A8F80010B0F81211A8F860101ECCD3
:10748000C8F86E40C8F86620C8F86A3000F59474F1
:10749000C8F862101ECC1EC5012101708CF81210B4
:1074A000FEF720BE04F57D74204602F0FBF8A842EA
:1074B00000F01682DFF844652046B047DFF83475E7
:1074C000FC4C3882A4F17600B047B875A4F1740082
:1074D000B0473876A4F17200B0473885A4F1700047
:1074E000B0477884A4F16E00B047B88404F1580026
:1074F000B04787F83000A4F16C00B047A7F86E00E1
:10750000A4F16A00B04787F83100A4F16800B047E1
:1075100087F83200A4F16600B04787F83300A4F181
:107520006400B04787F83400A4F16200B04787F8E0
:107530003500A4F16000B04787F83600A4F15E0082
:10754000B04787F83800A4F15C00B04787F83900ED
:10755000A4F15A00B04787F83A00A4F15800B047A8
:1075600087F83B00A4F15600B047A7F87600A4F1D5
:107570005400B047A7F87800A4F15200B047A7F82C
:107580007A00A4F15000B047A7F87C00A4F14E00A7
:10759000B047A7F87E00A4F14C00B047A7F88000E0
:1075A000A4F14A00B047A7F88200A4F14800B04710
:1075B000A7F88400A4F14600B047A7F88600A4F11C
:1075C0004400B047A7F88800A4F14200B047A7F8EC
:1075D0008A00A4F14000B047A7F88C00A4F13E0057
:1075E000B047A7F88E00A4F13C00B047A7F8900080
:1075F000A4F13A00B047A7F89200A4F13800B047D0
:10760000A7F89400A4F13600B047A7F89600A4F1BB
:107610003400B047A7F89800A4F13200B047A7F8AB
:107620009A00A4F13000B047A7F89C00A4F12E0006
:10763000B047A7F89E00A4F12C00B047A7F8A0001F
:10764000A4F12A00B047A7F8A200A4F12800B0478F
:10765000A7F8A400A4F12600B047A7F8A600A4F15B
:107660002400B047A7F8A800A4F12200B047A7F86B
:10767000AA00A4F12000B047A7F8AC00A4F11E00B6
:10768000B047A7F8AE00A4F11C00B047A7F8B000BF
:10769000A4F11A00B047A7F8B200A4F11800B0474F
:1076A000A7F8B400A4F11600B047A7F8B600A4F1FB
:1076B0001400B047A7F8B800A4F11200B047A7F82B
:1076C000BA00A4F11000B047A7F8BC00A4F10E0066
:1076D000B047A7F8BE00A4F10C00B047A7F8C0005F
:1076E000A4F10A00B047A7F8C200A4F10800B0470F
:1076F000A7F8C400A01FB047A7F8C600201FB047D6
:10770000A7F8C8002046B047A7F8CA002046B047EF
:10771000A7F8CC00A01CB047A7F8CE00201DB047AA
:10772000A7F8D000A01DB047A7F8D20004F10800C8
:10773000B047A7F8D40004F10A00B047A7F8D60074
:1077400004F10C00B047A7F8D80004F10E00B047D0
:10775000A7F8DA0004F11000B047A7F8DC0004F144
:107760001200B047A7F8DE0004F11400B047A7F8F4
:10777000E00004F11600B047A7F8E20004F1180099
:10778000B047A7F8E40004F11A00B04704F11E0561
:10779000A7F8E6002846B047A7F8E8002846B04713
:1077A000A7F8EA0004F12000B047A7F8EC0004F1C4
:1077B0002200B047A7F8EE0004F12400B047A7F874
:1077C000F00004F12600B047A7F8F20004F1280009
:1077D000B047A7F8F40004F12A00B047A7F8F60074
:1077E00004F12C00B047A7F8F80004F12E00B047D0
:1077F000A7F8FA0004F13000B047A7F8FC0004F144
:107800003200B047A7F8FE0004F13400B047A7F8F3
:10781000000104F13600B047A7F8020104F1380076
:10782000B04704F13C05A7F804012846B047A7F883
:1078300006012846B047A7F8080104F13E00B0470A
:10784000A7F80A0104F14000B047A7F80C0104F1C1
:107850004200B047A7F80E0104F14400B047A7F872
:10786000100104F14600B047A7F8120104F14800E6
:10787000B047A7F8140104F14A00B047A7F8160171
:1078800004F14C00B047A7F8180104F14E00B047CE
:10789000A7F81A0104F15000B047A7F81C0104F141
:1078A0005200B047A7F81E0104F15400B04700F0A1
:1078B00003B800BF78F80108A7F8200104F15600CA
:1078C000B047A7F8220104F15C00B0470025C7E9E2
:1078D0004A0504F15E00B047C7E94C05FFF766B8FA
:1078E000444864224A4D484B484C4A4E4A4F002176
:1078F00002763C22AC46C0F80A51484D018501860B
:10790000C0F81A31C0F81641C0F80E31C0F806614F
:10791000C0F80231C0F8FE40C0F8F630C0F8F240BE
:10792000C0F8EA70C0F8DE30C0F8DA40C0F8D230F3
:10793000C0F8CA60C0F8C630C0F8C240C0F8BA305B
:10794000C0F8B640C0F8AE70C0F8A230C0F89E4093
:10795000C0F89630C0F88E6080F83A100187C0E910
:107960004A11C0E94C118275DC22C0F8CEC0C0F8C3
:1079700092C002821422C0F8E650C0F8AA50A0F8C3
:107980006E201F4AC0F822204FF00132C0F832208A
:10799000012280F836200A22A0F82221194AC0F8D4
:1079A0001E21C0F81221C0F8FA20C0F8EE20C0F85D
:1079B000E220C0F8D620C0F8BE20C0F8B220C0F83F
:1079C000A620C0F89A20164AC0F88A20154AC0F8A6
:1079D0008620154AC0F88220144AC0F87E20144A36
:1079E000C0F87A20134AC0F87620FEF7DFBF00BF48
:1079F0007E2D0020C80F0020002E00206DB1000851
:107A000032003C00C800320032000A000A00C80000
:107A10003C00C8006E00140014003C000A006E0018
:107A200050003C0032007C015E013C003200280026
:107A30001E0040012C012800FEE7FEE770470521EB
:107A400000EBC000B0FBF1F0203083B2704702229F
:107A5000D0F804482047208940F2E731000400BAFA
:107A60008842704704F1190102200A2284F822504A
:107A700005F060BFBDF804200A32ADF804209DF87F
:107A8000072001328DF80720704790F83C1001392B
:107A9000012970474FF0FF3151FA80F003287047F9
:107AA00091F83F30002B7047B7F86E00B7F88010A0
:107AB000081AB0FA80F0400943007047B7F86E002A
:107AC000B7F88C10081AB0FA80F0400983007047AC
:107AD000B7F86E00B7F87A10081AB0FA80F04309C8
:107AE0007047B0F8761090F8782080F86C500182DA
:107AF00090F82C108275B0F87A20012942837047E3
:107B000001EB81010922A03991FBF2F17047D4F811
:107B1000045820467047D4F80458204645F2240102
:107B20000222284790F86B10032970474DF808EDA2
:107B3000294601F023FD28465DF808EB01F02EBD33
:107B400002224FF6FF73284755F824402488A1F8F5
:107B50007240704791F83D305C1EE5B2042D7047CD
:107B6000D4F80458204646F26301022243F67F43CC
:107B70002847032190F8842080F86C10B0F8821018
:107B80008275B0F8862070474FF08040016821F080
:107B90000101016070470222D4F8045820462847AA
:107BA000042190F88A2080F86C10B0F88810827553
:107BB000B0F88C207047022190F87E2080F86C107D
:107BC000B0F87C108275B0F88020704797F92A00D1
:107BD000B7F928104044A0EB0109788C2044704785
:107BE00008F1190102200A2288F8224005F0A2BEFD
:107BF00090F8311001297047D4F80458204645F216
:107C00000E0102222847D4F80458204645F21101FB
:107C100002222847D4F80458204645F20C010222DB
:107C2000284794F83D00013803287047B7F86E00E4
:107C3000B7F8861081427047D4F804582046284788
:107C4000B87DB7F88410002381427047C461688E04
:107C500001306886704797F83D1001390429704754
:107C600094F82F000328704797F83D000138032847
:107C700070470146404600F0EFB8B0FBF1F101EB70
:107C80004101A0EB8100002870479DF8070060606B
:107C9000BCBDD0E90A12013142F10002C0E90A126A
:107CA0007047B8F802000130A8F8020080B232280C
:107CB0007047218940F2E732090409BA91427047BE
:107CC00097F92A107A681144B7F928208C1A70475E
:107CD0004F1E83F00106B7FA87F77F093E427047CF
:107CE0003146CDF818B00590284650470A2003F0D9
:107CF00073BA0A6842F001020A60B17CB1EB106FFE
:107D00007047D4F80458204646F203010222704717
:107D1000B87DB7F8781081427047B87DB7F87E100B
:107D200081427047B87DB7F88A108142704797F852
:107D30006C00013803287047218990F8312009042C
:107D400009BA012A7047BDF80C209DF80B301A447F
:107D500082427047388AB7F87C1081427047388A6F
:107D6000B7F8821081427047388AB7F8761081429E
:107D70007047388AB7F888108142704797F83140C9
:107D800000EB020CB7F9282070472046002100259F
:107D9000FCF75EBDCDF818B0059020465047CDF8F1
:107DA000188005907047022005F0C4BD016841F0BD
:107DB00008010160016841F004010160016821F4DB
:107DC00000710160016821F480610160816821F423
:107DD00080718160816821F400718160016841F0E7
:107DE00020010160016841F040010160016841F437
:107DF00000510160704705903046504794F83C10A0
:107E000001390129704794F83C10E0756082704791
:107E100045F2030102220023704705F12400C9B294
:107E200005F069B890F82F10032970478AB2818253
:107E3000920012FA81F1A0397047206820F0010009
:107E4000206010BD2189090409BAC829704797F834
:107E500031000128704700002DE9FC41FCF758FC77
:107E60002D4FF865F86D796EFCF700FC78662B4CA9
:107E7000786E2146FCF7D0FC00B97C66786E002154
:107E80000024FCF7E5FC00B97C66D7E91286F86DA2
:107E9000FC6EB96DFCF73CFC38663046FD6D796EC2
:107EA000FCF73CFC0190009401980099FCF7A6FCBB
:107EB00008B9009801900198009981F00041FCF701
:107EC000B9FC18B9009880F000400190404629465E
:107ED000FCF724FC0199FCF7C9FB0446386DFD6DE5
:107EE000396EFCF71BFC2146FCF7C0FBB866BD658C
:107EF000B86E396FFCF782FC08B9386FB866B86E97
:107F0000396F81F00041FCF795FC08B90020B86694
:107F1000B86EBDE8FC8100BFCC2E002000C82F4702
:107F2000704700002DE9F041451C04460220294617
:107F300005F0E2FC84F80104C0B2092840F00A8789
:107F400028785A2840F00387A078A52840F0FF86BB
:107F5000A0790B38392800F2FA86DFE810F03A00F1
:107F6000650077009100A400F806F806F806CB003B
:107F7000D200E80000010F011C013401430150014F
:107F80006801770184019C01AB01B801BF01DD01EB
:107F9000F4010B022B024202590277028E02A50263
:107FA000C302DA02F102F802FE0204030A0310031C
:107FB0002C033703560362036803F806F8066E03C2
:107FC000F806DD03E303F806F806F806E903F80609
:107FD000FB03DFF8846D002086F8370096F82F0049
:107FE000002840F0B486207A657A0002FCF74CFC49
:107FF000804628460F46FCF758FCE44B0022FCF76D
:1080000090F942463B46FCF7E5F8FCF788FC64280B
:1080100098BF6420308200EBC0000521B0FBF1F076
:108020002030B08200F093BEDFF82C0D012190F8D3
:108030002F2080F83710032A00F0B283002A40F086
:108040008686617A052998BF052129E0DFF8080DA9
:1080500090F82F10002940F07A86218909BA0A0C7D
:10806000FFF7C6FD40F0B085018A0923828201EB4B
:108070008101A03991FBF3F31146038200F0ADBDFD
:10808000DFF8D40CFFF7CEFE00F08F83002940F01C
:108090005E86617A052998BF0521C82928BFC821B5
:1080A000817500F054BEDFF8B00C90F82F10002955
:1080B00040F04D86617A80F86C10FFF7E6FC00F224
:1080C0003B86617A4D1E032D00F2368600F17A015F
:1080D00000F1780200F17603DFE815F026060400CF
:1080E0001906200600F1800100F17E0200F17C03F8
:1080F00000F01ABE607ADFF8601C81F83C0000F0E6
:1081000026BE607ADFF8505C012885F8300040F028
:108110001E86DFF8E80F1A260A2280F8226000F196
:108120001901FFF740FE85F83C6000F010BE208981
:10813000000401BADFF8CC0F90F83120A0F87610D7
:10814000012A04D1FFF7DCFCA0F8761089B264297B
:1081500000F206836421A0F8761000F0F8BD2089B3
:10816000DFF8A01F000400BAC82828BFC8200528CF
:1081700098BF0520A1F8780000F0E9BDFFF76BFC7F
:1081800038BF0146DFF87C0F012998BF0121A0F814
:108190007A1000F0DCBD2089000401BADFF8640F1A
:1081A00090F83120A0F87C10012A04D1FFF7A8FC38
:1081B000A0F87C1089B2642900F2DA826421A0F868
:1081C0007C1000F0C4BD2089DFF8381F000400BA1D
:1081D000C82828BFC820052898BF0520A1F87E0020
:1081E00000F0B5BDFFF737FC38BF0146DFF8140FCC
:1081F000012998BF0121A0F8801000F0A8BD2089B6
:10820000000401BADFF8FC0E90F83120A0F88210CB
:10821000012A04D1FFF774FCA0F8821089B2642906
:1082200000F2AE826421A0F8821000F090BD208997
:10823000DFF8D01E000400BAC82828BFC8200528CF
:1082400098BF0520A1F8840000F081BDFFF703FC72
:1082500038BF0146DFF8AC0E012998BF0121A0F814
:10826000861000F074BD2089000401BADFF8940E76
:1082700090F83120A0F88810012A04D1FFF740FCC3
:10828000A0F8881089B2642900F282826421A0F8E3
:10829000881000F05CBD2089DFF8681E000400BA79
:1082A000C82828BFC820052898BF0520A1F88A0043
:1082B00000F04DBDFFF7CFFB38BF0146DFF8440E9D
:1082C000012998BF0121A0F88C1000F040BD607A10
:1082D000DFF8301E81F86B0000F039BDDFF8240EA6
:1082E000FFF720FC00F23385DFE811F00400740290
:1082F00085029602FFF720FDA0F88E1004D1FFF74B
:10830000FFFBA0F88E1089B2642900F280846421FA
:10831000A0F88E1000F01BBDDFF8E80DFFF702FC9F
:1083200000F21585DFE811F00400890293029D0236
:10833000FFF788FD28BFC821052998BF0521A0F8AF
:10834000901000F004BDDFF8BC0DFFF7EBFB00F26E
:10835000FE84DFE811F0040090029A02A402FFF705
:10836000A8FC38BF0A46012A98BF0122A0F8922033
:1083700000F0EDBCDFF88C0DFFF7D4FB00F2E784D2
:10838000DFE811F006009702A802B90200000440DD
:10839000FFF7D2FCA0F8941004D1FFF7B1FBA0F8CE
:1083A000941089B2642900F23A846421A0F89410F0
:1083B00000F0CDBCDFF84C0DFFF7B4FB00F2C78432
:1083C000DFE811F00400AA02B402BE02FFF73AFD92
:1083D00028BFC821052998BF0521A0F8961000F0F4
:1083E000B6BCDFF8200DFFF79DFB00F2B084DFE89C
:1083F00011F00400B102BB02C502FFF75AFC38BFFE
:108400000A46012A98BF0122A0F8982000F09FBCDC
:10841000DFF8F00CFFF786FB00F29984DFE811F03B
:108420000400B802C9021803FFF786FCA0F89A10EE
:1084300004D1FFF765FBA0F89A1089B2642900F215
:10844000F6836421A0F89A1000F081BCDFF8B40C28
:10845000FFF768FB00F27B84DFE811F004000B03F8
:1084600015031F03FFF7EEFC28BFC821052998BF9D
:108470000521A0F89C1000F06ABCDFF8880CFFF71B
:1084800051FB00F26484DFE811F0040012031C03C6
:108490002603FFF70EFC38BF0A46012A98BF0122C7
:1084A000A0F89E2000F053BCDFF8580CFFF73AFB11
:1084B00000F24D84DFE811F0040019032A033B03A6
:1084C000FFF73AFCA0F8A01004D1FFF719FBA0F8C1
:1084D000A01089B2642900F2B2836421A0F8A01030
:1084E00000F035BCDFF8AC0FFFF71CFB00F22F8467
:1084F000DFE811F004002E0338034203FFF7A2FC6B
:1085000028BFC821052998BF0521A0F8A21000F0B6
:108510001EBCDFF8800FFFF705FB00F21884DFE8D0
:1085200011F0040035033F034903FFF7C2FB38BFD6
:108530000A46012A98BF0122A0F8A42000F007BC37
:10854000607ADFF8501F81F8310000F000BC607ADB
:10855000DFF8401F81F83200F9E3607ADFF8341F5A
:1085600081F83300F3E3607ADFF8281F81F83400E4
:10857000EDE3607ADFF81C1F81F83600E7E320891D
:1085800000BA010CDFF80C0F90F831204184002A6A
:1085900000F01481012A40F0DA83D42928BFD421C5
:1085A000212998BF212101EB81010922A03989B23B
:1085B000B1FBF2F129E3FFF74EFA38BF0146DFF8CD
:1085C000B00F012998BF01218184C0E32089DFF821
:1085D000A03F092200BA93F83150000C00EB800153
:1085E000A039012D08BF91FBF2F0198A081A198DE4
:1085F000084401B26429A8BF642001B211F1640FDC
:10860000D8BF6FF063001885A1E3FFF724FA38BFE5
:108610000146DFF85C0F002908BF0121A0F86E10A9
:1086200095E3607ADFF8481F81F839008FE3607ABC
:10863000DFF83C1F81F83A0089E3617ADFF8300FF8
:10864000002918BF012180F8401000F08083E14F1D
:10865000E1493C22E14BE24DE24E4FF01E0C8275A7
:108660004FF4BE72A0F81AC0A0F86EC0C0E93A1765
:10867000DD490282DD4AC0E93C65DD4DDD4EDE4F5D
:10868000C0F8DE10DD49C0E93E32DD4ADD4BC0E90D
:108690002B76C0F8DA10DC49C0E92D53C0F8D610AB
:1086A000DA49C0F8D210DA49C0F8CE10D949C0F87A
:1086B000CA10D949C0E92F21D849D94AC0F8A21017
:1086C000D849C0F89A20D84AC0F89E10C0F8961031
:1086D000D649C0F83120C0F89210D549C0F88E10A4
:1086E000D449C0F88A10D449C0F88610D349C0F8DC
:1086F0008210D349C0F87E10D249C0F87A10D2490E
:10870000C0F876100021816380F835100185CF49CB
:10871000C0F8221064214FE0607ADFF8541E81F81F
:10872000380014E3607ADFF8481E81F83B000EE35E
:10873000617ADFF83C0E002980F83E1046D001290E
:1087400040F00583012180F83D10B0F89210A0F8A8
:108750007210FCE2607ADFF8181E81F83500F6E24C
:10876000B1F5FA7F24BF4FF4FA71A0F87610EEE26B
:10877000B1F5FA7F24BF4FF4FA71A0F87C10E6E25D
:10878000B1F5FA7F24BF4FF4FA71A0F88210DEE24F
:10879000B1F5FA7F24BF4FF4FA71A0F88810D6E241
:1087A000627A012A88BF114606E0617A012998BFE2
:1087B0000121C82928BFC8210176C8E2002900F09C
:1087C0002382642924BF64214184C0E2002180F80F
:1087D0003D10BCE2FFF7B0FAA0F8AC1004D1FFF7EF
:1087E0008FF9A0F8AC1089B2642900F230826421BC
:1087F000A0F8AC10ABE2FFF79FFAA0F8CA1004D1C2
:10880000FFF77EF9A0F8CA1089B2642900F2278226
:108810006421A0F8CA109AE2FFF78EFAA0F8E810D7
:1088200004D1FFF76DF9A0F8E81089B2642900F2CD
:108830001E826421A0F8E81089E2FFF703FB28BF3D
:10884000C821052998BF0521A0F8AE107FE2FFF7E7
:10885000F9FA28BFC821052998BF0521A0F8CC1036
:1088600075E2FFF7EFFA28BFC821052998BF052157
:10887000A0F8EA106BE2FFF71CFA38BF0A46012A9B
:1088800098BF0122A0F8B02061E2FFF712FA38BFCA
:108890000A46012A98BF0122A0F8CE2057E2FFF72E
:1088A00008FA38BF0A46012A98BF0122A0F8EC2036
:1088B0004DE2FFF741FAA0F8B21004D1FFF720F91A
:1088C000A0F8B21089B2642900F2D9816421A0F81D
:1088D000B2103CE2FFF730FAA0F8D01004D1FFF755
:1088E0000FF9A0F8D01089B2642900F2D081642178
:1088F000A0F8D0102BE2FFF71FFAA0F8EE1004D179
:10890000FFF7FEF8A0F8EE1089B2642900F2C781E3
:108910006421A0F8EE101AE2FFF794FA28BFC821EC
:10892000052998BF0521A0F8B41010E2FFF78AFAD4
:1089300028BFC821052998BF0521A0F8D21006E25A
:10894000FFF780FA28BFC821052998BF0521A0F8A4
:10895000F010FCE1FFF7ADF938BF0A46012A98BFD5
:108960000122A0F8B620F2E1FFF7A3F938BF0A46CA
:10897000012A98BF0122A0F8D420E8E1FFF799F975
:1089800038BF0A46012A98BF0122A0F8F220DEE192
:10899000FFF7D2F9A0F8B81004D1FFF7B1F8A0F8AA
:1089A000B81089B2642900F282816421A0F8B8105D
:1089B000CDE1FFF7C1F9A0F8D61004D1FFF7A0F878
:1089C000A0F8D61089B2642900F279816421A0F858
:1089D000D610BCE16E00BE00A0003C005000640058
:1089E000FA00960046007800780064009600B40013
:1089F00028006E007800AA008C001E00460064006B
:108A000028006400F0005000DC005A002D005A00DD
:108A10005000A000820023006400960082007800CD
:108A2000F500640032006400000101005A00B40047
:108A30009600280050003C0032007C015E013C00A2
:108A4000320028001E0040012C01280032000A00DC
:108A5000FFF772F9A0F8F41004D1FFF751F8A0F86D
:108A6000F41089B2642900F232816421A0F8F41074
:108A70006DE1FFF7E7F928BFC821052998BF052157
:108A8000A0F8BA1063E1FFF7DDF928BFC821052976
:108A900098BF0521A0F8D81059E1FFF7D3F928BFF6
:108AA000C821052998BF0521A0F8F6104FE1FFF76E
:108AB00000F938BF0A46012A98BF0122A0F8BC205D
:108AC00045E1FFF7F6F838BF0A46012A98BF0122B0
:108AD000A0F8DA203BE1FFF7ECF838BF0A46012A9C
:108AE00098BF0122A0F8F82031E1FFF725F9A0F89E
:108AF000BE1004D1FFF704F8A0F8BE1089B26429B3
:108B000000F2ED806421A0F8BE1020E1FFF714F917
:108B1000A0F8DC1004D1FEF7F3FFA0F8DC1089B256
:108B2000642900F2E4806421A0F8DC100FE1FFF773
:108B300003F9A0F8FA1004D1FEF7E2FFA0F8FA104A
:108B400089B2642900F2DB806421A0F8FA10FEE00B
:108B5000FFF778F928BFC821052998BF0521A0F89B
:108B6000C010F4E0FFF76EF928BFC821052998BFAF
:108B70000521A0F8DE10EAE0FFF764F928BFC8215C
:108B8000052998BF0521A0F8FC10E0E0FFF791F857
:108B900038BF0A46012A98BF0122A0F8C220D6E0B9
:108BA000FFF787F838BF0A46012A98BF0122A0F8CC
:108BB000E020CCE0FFF77DF838BF0A46012A98BFD5
:108BC0000122A0F8FE20C2E002EBC20105230282CE
:108BD000B1FBF3F11346203181829AB2652A01D2AA
:108BE000642204E0B2F5FA7F02D34FF4FA720282F3
:108BF00089B2D42901D8D421A8E0B1F5697F24BF76
:108C00004FF469718182A2E0002141849FE0B1F5B7
:108C1000FA7F24BF4FF4FA71A0F88E1097E0B1F5F7
:108C2000FA7F24BF4FF4FA71A0F894108FE0B1F5E9
:108C3000FA7F24BF4FF4FA71A0F89A1087E0B1F5DB
:108C4000FA7F24BF4FF4FA71A0F8A0107FE0B1F5CD
:108C5000FA7F24BF4FF4FA71A0F8AC1077E0B1F5B9
:108C6000FA7F24BF4FF4FA71A0F8CA106FE0B1F593
:108C7000FA7F24BF4FF4FA71A0F8E81067E0B1F56D
:108C8000FA7F24BF4FF4FA71A0F8B2105FE0B1F59B
:108C9000FA7F24BF4FF4FA71A0F8D01057E0B1F575
:108CA000FA7F24BF4FF4FA71A0F8EE104FE0B1F54F
:108CB000FA7F24BF4FF4FA71A0F8B81047E0B1F57D
:108CC000FA7F24BF4FF4FA71A0F8D6103FE0B1F557
:108CD000FA7F24BF4FF4FA71A0F8F41037E0B1F531
:108CE000FA7F24BF4FF4FA71A0F8BE102FE0B1F55F
:108CF000FA7F24BF4FF4FA71A0F8DC1027E0B1F539
:108D0000FA7F24BF4FF4FA71A0F8FA101FE000F1C7
:108D1000860100F1840200F1820305E000F18C017C
:108D200000F18A0200F1880309881B881278038207
:108D30008275A0F86E104183FEF75AFF07D1018AB1
:108D4000052201EBC101B1FBF2F12031818200204B
:108D500084F80104BDE8F081C80F002070470000CE
:108D6000B0B5DFF89803C1880139C18009040AD180
:108D70004FF47A71DFF88C33C180DFF884134A69CD
:108D8000DA6000224A61DFF87C1391F82F20022A72
:108D900017D18289013A8281120417D14FF47A7275
:108DA0008281CA8C013ACA8412B2B2F1FF3F0DDC53
:108DB000DFF85423022382F82C30002281F82F2080
:108DC00004E04FF47A7282818A8CCA8491F83E2042
:108DD0009AB1012A40F00081DFF82C23D378012BCF
:108DE00014D191F86B30032B00F2DA80DFE803F046
:108DF000022D303391F83D3019E04FF47A720023A0
:108E00000281C14AD370A1F87230E5E00123D3702A
:108E100091F86B30032BE6D8DFE803F002203549E8
:108E2000FEF798FE03D264B2C4A5FEF78DFE032BB5
:108E300051D0022B56D0012B5BD1FEF731FE40F012
:108E4000AF804B68B1F88E40A0E091F83D300CE067
:108E500091F83D301EE091F83D302FE0FEF77AFEAC
:108E600003D264B2B1A5FEF76FFE032B4AD0022BEA
:108E70004FD0012B54D1FEF713FE40F091804B6888
:108E8000B1F8AC4082E0FEF765FE03D264B2A3A560
:108E9000FEF75AFE032B4CD0022B51D0012B56D19A
:108EA000FEF7FEFD7CD14B68B1F8CA406EE0FEF7DC
:108EB00051FE03D264B295A5FEF746FE032B4FD0B8
:108EC000022B54D0012B59D1FEF7EAFD68D14B6833
:108ED000B1F8E8405AE0FEF7E3FD61D14B68B1F824
:108EE0009A4053E0FEF7DCFD5AD14B68B1F894404C
:108EF0004CE0042B54D1FEF7D3FD51D14B68B1F8AF
:108F0000A04043E0FEF7CCFD4AD14B68B1F8B84031
:108F10003CE0FEF7C5FD43D14B68B1F8B24035E007
:108F2000042B3DD1FEF7BCFD3AD14B68B1F8BE40F1
:108F30002CE0FEF7B5FD33D14B68B1F8D64025E003
:108F4000FEF7AEFD2CD14B68B1F8D0401EE0042BEB
:108F500026D1FEF7A5FD23D14B68B1F8DC4015E022
:108F6000FEF79EFD1CD14B68B1F8F4400EE0FEF711
:108F700097FD15D14B68B1F8EE4007E0042B0FD1F7
:108F8000FEF78EFD0CD14B68B1F8FA40E51EAB42FE
:108F900006D90334A34203D20389013B038100E0D5
:108FA00003891B0418D14FF47A730381B1F872302E
:108FB000013BA1F872301BB2B3F1FF3F0CDC002380
:108FC000D37091F83D20013281F83D20D2B2052ABC
:108FD00002D3A1F83D3016E791F842203AB391F858
:108FE0002D20012A06D1484A022382F82C30002283
:108FF00081F842204289013A428112041ED1B1F81F
:109000007020013AA1F8702012B2B2F1FF3F0ADCE1
:109010000022022381F842203B4A82F82C30B1F82A
:109020006E20A1F870204FF47A71418106E04FF470
:109030007A724281B1F86E00A1F87000304CA06CD9
:109040008047DA48417B012906D1017B11B1013902
:10905000017301E002214173017F09B101390177F8
:10906000FEF7C6FD09D190F8301019B1013980F82A
:10907000301002E0022180F8311090F8401011B158
:10908000013980F8401090F85510012909D190F865
:10909000541019B1013980F8541002E0022180F80F
:1090A000551090F8641011B1013980F864107C48B3
:1090B000417B012906D1017B11B10139017301E026
:1090C00002214173017F09B101390177FEF790FD5B
:1090D00009D190F8301019B1013980F8301002E050
:1090E000022180F8311090F8401011B1013980F858
:1090F0004010A0690130A061B0BD00BF4C0000204D
:10910000002E0020C80F0020002D0020B4100020E9
:10911000BA100020C0100020C610002096100020B9
:109120009C100020A2100020A81000207810002021
:109130007E100020841000208A1000205A10002089
:1091400060100020661000206C1000201848C169D3
:1091500041F08051C16117490A7842F004020A7057
:10916000C16921F08051C161016841F001010160D4
:1091700001688907FCD5416821F00301416041681D
:1091800011F00C0FFBD101680B4A11400160002166
:10919000416041F61071C1624FF4801101634FF4D8
:1091A0001F01816005484FF000610160704700BFFA
:1091B0000010024050700040FFFFF2FE08ED00E09A
:1091C0000948016889070AD550F8041C890706D5A3
:1091D0006FF002010160E8494A6901324A616FF0AB
:1091E00001010160704700BF10040040BCB5154D7F
:1091F000E86880060ED5286880060BD56FF0200041
:10920000274C28606868C1B2204603F074FE4FF412
:109210008270A081E86840060FD5286840060CD50A
:109220001F4C6FF040000DF10701286004F11000A1
:1092300003F04EFE10B100206077BCBD9DF8070022
:109240006860BCBD004C0040BCB5144CE0688006B2
:109250000CD52068800609D56FF02000104D2060E5
:109260006168FEF7DAFD4FF482702886E0684006F8
:1092700010D5206840060DD5094D6FF040000DF166
:109280000701206005F1340003F022FE18B1002030
:1092900085F84100BCBDFEF7F8BC00BF005000409F
:1092A000CC2E0020BCB5144DE86880060BD528688C
:1092B000800608D568683D4CC1B2204603F01BFE0D
:1092C0004FF48270A081E86840060FD528684006F8
:1092D0000CD5364C6FF040000DF10701286004F109
:1092E000100003F0F5FD10B100206077BCBD9DF8C3
:1092F00007006860BCBD00BF00380140BCB5124C1F
:10930000E068800609D52068800606D56168274D8B
:10931000FEF783FD4FF482702886E068400610D582
:10932000206840060DD5214D6FF040000DF107017A
:10933000206005F1340003F0CBFD18B1002085F862
:109340004100BCBDFEF7A1BC00440040BCB5164CBA
:10935000E068800610D5206880060DD56FF02000EB
:10936000124D2060616805F14800C9B203F0C3FDE9
:109370004FF48270A5F85400E068400610D52068CC
:1093800040060DD5094D6FF040000DF1070120603A
:1093900005F1580003F09CFD18B1002085F8650028
:1093A000BCBDFEF772BC00BF00480040602E00202C
:1093B000FEE710B580F807148224090A80F8093402
:1093C0001B0A80F805444AF25A5480F80614D11C4E
:1093D00080F80834082280F80414A0F8024400F24F
:1093E00002410220BDE8104004F0A4BA0648BFF3D1
:1093F0004F8F064A016801F4E06111430160BFF339
:109400004F8F00BFFDE700BF0CED00E00400FA0540
:1094100000EB400107221E3902FA01F1044A1368E9
:1094200019431160916A21F01F010843906270474F
:109430000C240140B0B5164C207840BBFEF756FC1A
:10944000E34D80086860102001F0C6FEFBF72DFA9E
:10945000114B4FF06632FAF764FF104B0022FAF717
:1094600060FF0F4A0F4BFAF7B5FE0F4A0F4BFAF7A2
:10947000CAFFFBF754FAA5F87400013880B231280E
:1094800005D8686880087C289CBF01202070B0BD8A
:10949000C0000020C80F002066660AC00000303FF0
:1094A000295C8FC2F528F43F33E197FA795371BFF5
:1094B00002484FF480510160704700BF140C014016
:1094C00002484FF480510160704700BF100C01400A
:1094D000B0B5BF4C94F83200012811D1254D287940
:1094E000042834D8DFE800F0032113251A0095F88A
:1094F0002C00022829D0012814BF0020012025E0DB
:10950000FFF7D6FF1B48002180F82C101FE0FFF763
:10951000D7FF1948FEF7BDFB14390EE0FFF7C8FF6F
:109520000020287185F82C0011E0FFF7C9FF032007
:109530000CE01148FEF7ADFB023972F1000106D3D1
:109540000021C0E90A11042000E00220287194F8EB
:109550002E0058B10748017801310170C9B2502975
:1095600004D3022180F82C1000210170B0BD00BF8F
:10957000C80F0020002D0020002E002060B159B13E
:1095800001300022042A07D000EB82031B681BBABB
:1095900041F822300132F5E770470000054A00210A
:1095A000042904D050F8213001311360F8E7106825
:1095B000704700BF00300240F0B532490A68C2F37C
:1095C0008103314A022B08D0BBBB0B6D9B0534D500
:1095D000CB6A9B0148BF2E4A2FE00B688C6AC3F30D
:1095E0000043002C0BD40C680D68C5F34175C4F31F
:1095F00083440DB90F2C18D12D01013516E08C6A6A
:109600008D6A8E6A214FC4F30314C5F3082506F052
:1096100007061BB10B689B0358BF174604FA06F2F6
:1096200007FB05F3B3FBF2F207E002252C4413B16C
:109630000B689B0300D5154A62430260154C0B680A
:10964000C3F30313E35C144CDA4042600B68C3F3CA
:109650000223E35C22FA03F3C3600B68C3F3C22363
:10966000E35C0424DA4082600B68096804EA9363CF
:10967000C1F38131194409A3595CB2FBF1F10161D5
:10968000F0BD00BF0410024000127A0000093D0046
:10969000006CDC02F4DE000804DF000802040608A7
:1096A000020C08107CB5044600204FF6FF75C6B2C8
:1096B0006C2E09D8301901F059FDADF80600B01C28
:1096C000BDF80610A942F2D1BDF806007CBD00002D
:1096D00082B000213E4A8DF80710ADF804108DF8D5
:1096E0000310927D1F2A1BD38DF8031081084A298D
:1096F00036D86421ADF8041000218DF807103649E2
:109700009DF80720132A5BD84DF808EDFEF71BFBE8
:109710005DF808EB54D27346FEF7ACF99E46EFE7CE
:10972000013A0021132A4ED88DF8031081084A29E6
:109730002ED86421ADF8041000218DF807102549BA
:109740009DF80720132A41D84DF808EDFEF7FBFAE3
:109750005DF808EB34D27346FEF78CF99E46EFE7CE
:109760004FF49671ADF8041014218DF807101A49C2
:109770009DF80720272A23D84DF808EDFEF7E3FAD5
:109780005DF808EB1CD27346FEF774F99E46EFE7CE
:109790004FF49671ADF8041014218DF807100D499F
:1097A0009DF80720272A0BD84DF808EDFEF7CBFAD5
:1097B0005DF808EB04D27346FEF75CF99E46EFE7CE
:1097C0009DF80700095C48B202B070470021FAE733
:1097D000C80F0020A1DE000878DE00082DE9F04760
:1097E000DFF8E47D3878012818BFBDE8F087DFF89E
:1097F000DC6D707848B9012005217070388A00EB63
:10980000C000B0FBF1F02030B88297F8300018B1FA
:1098100001281AD1796811E097F83B1051B101295C
:1098200013D1B7F928107A68511A01EBC101A1F5DB
:10983000E17105E0B7F928107A68511A01EBC1010E
:109840000522B1FBF2F12031B960F18D0522013121
:10985000F18589B2B1FBF2F202EB82028A1A58D08A
:109860000322B1FBF2F202EB4202891A41F08B8033
:10987000717E97F83C200131012A717640F0858095
:10988000B27E92B9DFF8481D06224A70DFF8442DF7
:109890000021B183F9757982C2F87A10DFF8382D8A
:1098A00011804FF48072A6F81920327E082A00F247
:1098B0000783DFE812F00900260143015801650122
:1098C000780185019601A001002840F0F68297F802
:1098D0002F0028B1032800F0E887022840F0ED822D
:1098E000707F002841F0508297F82C0097F82D20C7
:1098F00007F11608012808BF002A01F03A82012862
:1099000008BF012A01F02882002841F03D8201F0C1
:1099100030BADFF8BC8C97F83C1098F80200884207
:1099200004D140F00202072A40F0E686B27F0F2AF7
:109930002ED80F20DFE812F010002F00390043006E
:109940004D0057005F006F0085009B00B100BA001A
:10995000C400CE00DD06D600012940F05B81FEF791
:10996000E6F900F25781DFE810F004001705200542
:109970002B05FEF7F9F940F02C85FEF7C9F940F008
:109980002885FEF7A5F800F025BD0020B07697E207
:10999000084600F0B1BEFEF75AFA00F03E810028FA
:1099A00040F04581B7F876303BE1FEF750FA00F021
:1099B0004E81002840F05581B7F87C304BE1FEF72E
:1099C00046FA00F05E81002840F06581B7F88230E9
:1099D0005BE1FEF73CFA00F06E81002840F07581F3
:1099E000B7F888306BE1DFF8F40B97F8323045F2C6
:1099F0002F0100F0F3BC97F86B00002840F0508472
:109A0000FEF725FA00F03484002840F03B84B7F8D4
:109A10008E3000F031BC97F86B00032800F26786A7
:109A2000DFE810F00400B601C101CC01FEF70FFA27
:109A300000F04785002840F04E85B7F8943000F0DC
:109A400044BD97F86B00032800F25186DFE810F060
:109A50000400C101CC01D701FEF7F9F900F04685F9
:109A6000002840F04D85B7F89A3000F043BD97F8D4
:109A70006B00032800F23B86DFE810F00400CC0105
:109A8000D701E201FEF7E3F900F04585002840F038
:109A90004C85B7F8A03000F042BDFEF7D8F900F0D1
:109AA0002481002840F02A817B8C21E1FEF7CFF948
:109AB00000F02A81002840F01A86B7F8763027E1B6
:109AC000FEF7C5F900F02981002840F01086B7F8AC
:109AD000883026E1DFF8040B97F8313045F22E018B
