:020000040800F2
:10400000A819002085410008BDD0000885C300081C
:10401000B9D00008614C00083943010800000000D5
:104020000000000000000000000000001540010832
:10403000654C0008000000008118010819400108C3
:104040009F4100089F4100089F4100089F410008D0
:104050009F4100089F4100089F4100089F410008C0
:104060009F4100089F4100089F4100089F410008B0
:104070009F4100089F4100089F4100089F410008A0
:104080009F4100089F4100089F4100089F41000890
:104090009F4100089F4100089F4100089F41000880
:1040A0009F4100089F4100089F4100089F41000870
:1040B0009F410008494101089F4100089F410008B5
:1040C0009F4100089F4100089F4100089F41000850
:1040D0009F410008714101089F410008F14101081A
:1040E000796000089F4100089F410008000000001F
:1040F00000000000000000000000000000000000C0
:10410000000000009F4100089F41000800000000DF
:104110009F4100089F4100080000000000000000CF
:104120009F4100089F4100089F4100089F410008EF
:10413000000000000000000000000000000000007F
:104140000000000000000000000000009F41000887
:1041500000000000000000009F4100089F4100088F
:104160000000000000000000000000009F41000867
:10417000DFF80CD000F018FA004800478D870108DE
:10418000A81900200648804706480047FEE7FEE7DA
:10419000FEE7FEE7FEE7FEE7FEE7FEE7FEE7FEE7F7
:1041A000794001087141000830B50B4601460020F6
:1041B0002022012409E021FA02F59D4205D303FAE9
:1041C00002F5491B04FA02F52844151EA2F101026A
:1041D000F1DC30BD2DE9F05F0546002092469B469C
:1041E00088460646814640241BE02846414647460D
:1041F000224600F0FAF953465A46C01A914110D3AC
:1042000011461846224600F0E1F92D1A67EB010825
:104210004F4622460120002100F0D8F917EB000993
:104220004E41201EA4F10104DFDC484631462A46F7
:104230004346BDE8F09F2DE9FE4F804681EA03002A
:10424000C00F0C46009021F0004123F00045B8EB70
:104250000200A94105D24046214690461C460B4625
:10426000024623F00040104347D0270DC7F30A0051
:10427000C3F30A510290401A019040286BDAC3F34D
:10428000130040F4801B0098924620B10023D2EB2B
:10429000030A63EB0B0B01985946C0F140025046EC
:1042A00000F094F906460D4650465946019A00F032
:1042B000ACF910EB08006141002487EA115284EA4E
:1042C000E7731A4340D0009A62B3019A012A4FEA79
:1042D000075215DC001B61EB02014FF0004202EABD
:1042E0000752CDE90042001C41F5801132462B46B1
:1042F00000F0ACF903B0BDE8F08F40462146F9E785
:10430000001B61EB0201001C41F5801300185B41AA
:104310002018A2F5001747EB030140EAD570B61943
:104320006D4111E06D084FEA360645EAC0754FEA67
:104330000752001B61EB0201001C41F58011490886
:104340004FEA30000019514132462B4603B0BDE818
:10435000F04F00F06CB90098012240000023D0EB30
:10436000020263EBE073009821464FEAE074B8EB79
:10437000000061EB0401E9E783F000435BE781F0B3
:10438000004158E72DE9FE4F81EA030404F00044A0
:1043900021F0004100944FF0000B23F0004350EA5D
:1043A00001045ED052EA03045BD0C3F30A54C1F3A4
:1043B0000A552C44A4F2F3340194A0FB0254C1F337
:1043C000130141F48011C3F3130343F4801301FB81
:1043D000024400FB034E840A970A44EA815447EAE8
:1043E0008357A4FB076802958D0A05FB07854FEAF2
:1043F000932C04FB0C542705029D4FEA065847EA0C
:104400001637B5EB08056EEB070C870E920E47EAE0
:10441000811742EA8312A7FB0201B6EB0B0164EBA2
:1044200000042B0D43EA0C335E1844EB1C50DA46B3
:104430005146E7FB0201C5F313044FEA0B3343EA8D
:1044400014534FEA0432019C43EA0603A4F10C041E
:104450000294009CCDE900B400F0F8F803B0BDE888
:10446000F08F00200146F9E72DE9F04D81EA0304C1
:1044700004F0004B21F0004514464FF0000A23F0F1
:10448000004150EA050220D054EA01021DD0C5F3D4
:104490000A570246C5F31303C1F31300C1F30A56CA
:1044A00040F4801543F48013A7EB0608101BD64692
:1044B00008F2FD3873EB050002D308F1010801E0B2
:1044C00092185B41B8F1000F03DA00200146BDE805
:1044D000F08D00204FF48011064684460EE0171B35
:1044E00073EB050705D3121B63EB050306434CEA88
:1044F000010C49084FEA300092185B4150EA01076D
:10450000EDD152EA030012D082EA040083EA0501E9
:10451000084305D0101BAB4106D20122002306E060
:1045200000224FF0004302E06FF0010253101AEB3B
:1045300006004CEB085110EB0A0041EB0B01BDE803
:10454000F04D00F074B8C1F30A52C1F3130140F208
:10455000FF3341F480119A4202DA0020014670478D
:1045600040F233439A42A2F2334202DC524200F05C
:104570003CB800F02BB8000030B5041E71F1000407
:1045800004DB4FF00044404264EB0101141E73F160
:10459000000405DB1C464FF00043524263EB04036A
:1045A000994208BF904230BD064C074D06E0E068D6
:1045B00040F0010394E8070098471034AC42F6D36A
:1045C000FFF7DAFD8CB90108ACB90108202A04DB39
:1045D000203A00FA02F1002070479140C2F1200316
:1045E00020FA03F3194390407047202A04DB203A55
:1045F00021FA02F00021704721FA02F3D040C2F103
:1046000020029140084319467047202A06DBCB1749
:10461000203A41FA02F043EAE07306E041FA02F37D
:10462000D040C2F12002914008431946704710B5AE
:10463000141E73F1000408DA401C41F100019218C5
:104640005B411A4301D120F0010010BD2DE9F04D6E
:1046500092469B4611B1B1FA81F202E0B0FA80F2C3
:1046600020329046FFF7B2FF04460F4640EA0A00A8
:1046700041EA0B0153465A46084313D0114653EA08
:10468000010019D0C8F140025046FFF7AEFF0546C1
:104690000E46504659464246FFF798FF084305D05C
:1046A000012004E020463946BDE8F08D0020054396
:1046B00046EAE0762C4337430A986305E40AA0EB08
:1046C00008000022FD0A44EA47540A3002D50020BF
:1046D0000146E9E7010510196941DDE908450019BE
:1046E0006941BDE8F04DA2E740EA01039B0703D012
:1046F00009E008C9121F08C0042AFAD203E011F821
:10470000013B00F8013B521EF9D27047D2B201E0E2
:1047100000F8012B491EFBD270470022F6E710B5C6
:1047200013460A4604461946FFF7F0FF204610BD1F
:10473000F0B480EA0102D40F4200B2EB410F02D282
:104740000246084611464A0042D0C30DDDB2C1F30D
:10475000C752AD1A202D35DAC1F3160141F400021B
:1047600004B15242C5F1200602FA06F12A41104472
:10477000B3EBD05F23D0C4B1012DA0EBC35009DC53
:10478000F0BC4FF0004202EAC352DBB200F5000079
:1047900000F07BB9400000F1807000EBC350A0F145
:1047A000807040EAD170490009E0490841EAC071CF
:1047B000A0EBC35000F50000400800EBC350F0BC74
:1047C00000F05AB96142012202EB4101001BF6E7F9
:1047D000F0BC704781F00041AAE780F00040A7E7F5
:1047E00080EA010210B502F00043400022D04A00E6
:1047F0001FD0010E01EB1261C0F35600C2F3560246
:1048000040F4000042F40002A0FB022000047F39C3
:10481000140400D0401C50EA124001D44000491E4C
:10482000C2B20C0604EBD010401C4008802A02D013
:1048300003E0002010BD20F00100002900DA002074
:10484000184310BD30B480EA010202F0004530F098
:10485000004221F0004013D090B1C30DD40DC2F33B
:104860001601C0F31600E41A41F4000140F40002FE
:104870007D34914201D3641C00E04900002C02DA2F
:1048800030BC002070474FF400000023914201D358
:10489000891A034340084FEA4101F7D151B19142CF
:1048A00002D14FF0004105E002D24FF0010101E0DA
:1048B0006FF0010103EBC450284430BC00F0DCB8B9
:1048C000002801DBC0F10040002901DBC1F10041FB
:1048D000814201D80120704700207047002801DB89
:1048E000C0F10040002901DBC1F10041814201D249
:1048F0000120704700207047002801DBC0F1004014
:10490000002901DBC1F10041814201D30120704740
:1049100000207047002801DBC0F10040002901DBC6
:10492000C1F10041814201D9012070470020704748
:10493000C10F80EAE0700844CA079623002100F006
:10494000A4B896230022114600F09FB80EB5C10FFF
:1049500080EAE0700844CA07002140F233438DE842
:104960000E000A460B46FFF771FE03B000BD0EB500
:1049700040F2334102910021CDE900110A460B4675
:10498000FFF764FE03B000BD00F0004220F00040DD
:10499000C10DC0F3160040F400007F2901DA0020A9
:1049A0007047962903DCC1F19601C84001E09639B1
:1049B0008840002AF4D04042704720F00040C10DEA
:1049C000C0F3160040F400007F2901DA0020704790
:1049D000962903DCC1F19601C8407047963988409A
:1049E000704770B5C1F30A5201F000450024C1F3CD
:1049F000130140F2FF3341F480119A4201DA0020A2
:104A000070BD40F233439A42A2F2334203DC524279
:104A1000FFF7EBFD00E090402C43F1D0404270BD29
:104A2000C1F30A5210B5C1F3130140F2FF3341F450
:104A300080119A4201DA002010BD40F233439A42BD
:104A4000A2F2334203DC5242FFF7CFFD10BD90408B
:104A500010BD00F0004230F000400AD0C10D01F559
:104A60006071C0F3160042EA0151C20840071143C9
:104A700070470020014670470029A8BF7047401CBE
:104A8000490008BF20F00100704710B4B0FA80FC64
:104A900000FA0CF050EA010404BF10BC704749B1A1
:104AA000CCF1200421FA04F411FA0CF118BF012111
:104AB00021430843A3EB0C01CB1D4FEA00614FEAF1
:104AC000102042BF002010BC704700EBC3501044C0
:104AD0000029A4BF10BC7047401C490008BF20F04B
:104AE000010010BC7047000010B540F62C44C2F223
:104AF0000004204613F092FF04F1100013F08EFF23
:104B000044F60000C4F20000206210BD80B582B0FF
:104B100040F25000C2F20000019001980078002895
:104B200040F09180FFE740F2B410C2F2000000783C
:104B3000042800F28780DFE800F003243157760074
:104B40000198007A012807D1FFE740F2B410C2F2C1
:104B500000000121017013E00198007A022807D1BA
:104B6000FFE740F2B410C2F200000221017006E03B
:104B700040F2B410C2F2000000210170FFE7FFE72D
:104B800060E040F25000C2F20000C068804740F28E
:104B9000B410C2F200000321017053E040F2500053
:104BA000C2F20000C068804740F2B810C2F20000B4
:104BB00001684268013142F1000201604260B1F1D6
:104BC000140072F100000ED3FFE740F2B410C2F2FD
:104BD00000000421017040F2B810C2F20000002170
:104BE00041600160FFE72DE040F2B810C2F2000022
:104BF00001684268013142F1000201604260881E92
:104C000072F100000ED3FFE740F2B810C2F20000CC
:104C100000214160016040F2B410C2F200000421A2
:104C20000170FFE70EE040F25000C2F200000069A0
:104C3000804701980021017240F2B410C2F20000D6
:104C40000170FFE709E040F25000C2F20000006985
:104C50008047019800210172FFE702B080BD00008B
:104C6000FFE7FEE770470000B0B540F2D200C2F2A5
:104C70000000008842F6E061884216DBFFE740F260
:104C8000D200C2F200000021018040F6F020C2F202
:104C90000000D0F83011D0F83421013142F1000287
:104CA000C0F83011C0F83421FFE740F60040C4F2EC
:104CB0000000002114F054FB4FF08040002100223E
:104CC00014F004FB40F6F020C2F2000090F830002F
:104CD000002840F0C283FFE740F6F020C2F2000057
:104CE00090F82F00002840F0BB81FFE740F6F0204D
:104CF000C2F2000090F82D00002840F08B81FFE701
:104D000040F6F020C2F2000090F84100C0070028F1
:104D100000F07F81FFE714F0A3FA40F6F021C2F221
:104D20000001B1F874201044486040F2CC00C2F297
:104D300000000088098A88424DD0FFE740F6F02045
:104D4000C2F2000090F83B0001280CD1FFE740F6CA
:104D5000F024C2F20004208A323080B211F062F8EE
:104D600084F82A0012E040F6F020C2F2000090F829
:104D70003B0050B9FFE740F6F024C2F20004208A5D
:104D800011F050F884F82A00FFE7FFE740F6F02022
:104D9000C2F20000018A426890F92A301A44B0F940
:104DA0002800101A81420BD2FFE740F28814C2F2A9
:104DB0000004E0694FF08041FFF744FDE061FFE748
:104DC00040F6F020C2F20000008A40F2CC01C2F2AC
:104DD00000010880FFE740F6F020C2F2000090F8E2
:104DE0003B00012874D1FFE740F6F020C2F200003A
:104DF000416890F92A201144B0F92820891A008AC4
:104E00009630814233D8FFE740F6F020C2F200002E
:104E1000416890F92A201144B0F92820891A008AA3
:104E20003238814223D3FFE740F6F025C2F2000575
:104E3000288A3230FFF77CFD0446686895F92A100D
:104E40000844B5F92810401AFFF77BFD01462046BB
:104E500008F0E2F940F6D421C2F20001086040F205
:104E6000D200C2F200000188013101802FE040F63B
:104E7000F020C2F20000416890F92A201144B0F9F4
:104E80002820891A008A963081420ED9FFE740F621
:104E9000D420C2F200000021016040F2D200C2F230
:104EA000000001880131018010E040F6D420C2F2F8
:104EB000000048F20001C4F23B71016040F2D200F0
:104EC000C2F20000018801310180FFE7FFE77CE0CA
:104ED00040F6F020C2F2000090F83B00002873D1A9
:104EE000FFE740F6F020C2F20000416890F92A2066
:104EF0001144B0F92820891A008A6430814232D8DE
:104F0000FFE740F6F020C2F20000416890F92A2045
:104F10001144B0F92820891A008A6438814222D3CA
:104F2000FFE740F6F025C2F20005288AFFF709FDE9
:104F30000446686895F92A100844B5F92810401A03
:104F4000FFF7FFFC0146204608F066F940F6D42141
:104F5000C2F20001086040F2D200C2F200000188F3
:104F6000013101802FE040F6F020C2F200004168DC
:104F700090F92A201144B0F92820891A008A643057
:104F800081420ED9FFE740F6D420C2F20000002192
:104F9000016040F2D200C2F20000018801310180BC
:104FA00010E040F6D420C2F2000048F20001C4F242
:104FB0003B71016040F2D200C2F200000188013171
:104FC0000180FFE7FFE7FFE7FFE740F6D420C2F2EA
:104FD000000000680021FFF79DFC38B9FFE740F6AC
:104FE000D420C2F2000000210160FFE740F6D42087
:104FF000C2F200000068FFF7E0FC02464FF080407C
:10500000002114F063F94FF08040012114F0A8F959
:10501000FFE724E040F6F020C2F2000090F82D00F7
:1050200001281BD1FFE70A2012F02AF940F6F021EF
:10503000C2F20001B1F8742002EB9000486040F623
:10504000D420C2F20000002101604FF08040002116
:10505000002214F03BF908F097F8FFE7FFE7FBE1C7
:1050600040F6F020C2F2000090F82F0003281BD178
:10507000FFE70A2012F004F940F6F021C2F2000125
:10508000B1F8742002EB9000486040F6D420C2F2E0
:105090000000002101604FF080400021002214F048
:1050A00015F908F071F8D6E140F6F020C2F20000E0
:1050B00090F82F00022840F0CD81FFE740F6F02065
:1050C000C2F2000090F82D00002840F09D81FFE71B
:1050D00040F6F020C2F2000090F84100C00700281E
:1050E00000F09181FFE714F0BBF840F6F021C2F226
:1050F0000001B1F874201044486040F2CC00C2F2C4
:1051000000000088098A88425DD0FFE740F6F0255C
:10511000C2F20005288AFFF714FC044640F2CC00D6
:10512000C2F200000088FFF70CFC01462046FFF7A2
:1051300051FBFFF78EFC21F00041FFF752FC40F2DB
:10514000D001C2F20001088095F83B0001280ED181
:10515000FFE740F6F024C2F20004208A618C084484
:10516000323080B210F05EFE84F82A0015E040F67E
:10517000F020C2F2000090F83B0068B9FFE740F66B
:10518000F024C2F20004208A618C084480B210F03E
:1051900049FE84F82A00FFE7FFE740F2D000C2F2A0
:1051A000000000880A2803DBFFE707F0EDFFFFE7B8
:1051B00040F6F020C2F20000008A40F2CC01C2F2B8
:1051C00000010880FFE740F6F020C2F2000090F8EE
:1051D0003B00012875D1FFE740F6F020C2F2000045
:1051E000416890F92A201144B0F92820891A028ACE
:1051F000408C10449630814237D8FFE740F6F020CB
:10520000C2F20000416890F92A201144B0F9282028
:10521000891A028A408C10443238814225D3FFE734
:1052200040F6F025C2F20005288A698C0844323025
:10523000FFF77EFB0446686895F92A100844B5F923
:105240002810401AFFF77DFB0146204607F0E4FFD7
:1052500040F6D421C2F20001086040F2D200C2F24E
:1052600000000188013101802AE040F6F020C2F2FE
:105270000000416890F92A201144B0F92820891AC9
:10528000028A408C10449630814207D9FFE740F6ED
:10529000D420C2F200000021016010E040F2D200F0
:1052A000C2F2000001880131018040F6D420C2F230
:1052B000000048F20001C4F23B710160FFE7FFE724
:1052C0007DE040F6F020C2F2000090F83B0000289C
:1052D00074D1FFE740F6F020C2F20000416890F977
:1052E0002A201144B0F92820891A028A408C1044DF
:1052F0006430814236D8FFE740F6F020C2F2000069
:10530000416890F92A201144B0F92820891A028AAC
:10531000408C10446438814224D3FFE740F6F025E6
:10532000C2F20005288A698C0844FFF701FB044695
:10533000686895F92A100844B5F92810401AFFF753
:1053400000FB0146204607F067FF40F6D421C2F279
:105350000001086040F2D200C2F200000188013171
:1053600001802AE040F6F020C2F20000416890F986
:105370002A201144B0F92820891A028A408C10444E
:105380006430814207D9FFE740F6D420C2F2000022
:105390000021016010E040F2D200C2F2000001885A
:1053A0000131018040F6D420C2F2000048F2000131
:1053B000C4F23B710160FFE7FFE7FFE7FFE740F65C
:1053C000D420C2F2000000680021FFF7A3FA38B928
:1053D000FFE740F6D420C2F2000000210160FFE7A1
:1053E00040F6D420C2F200000068FFF7E6FA024659
:1053F0004FF08040002113F069FF4FF08040012101
:1054000013F0AEFFFFE724E040F6F020C2F2000008
:1054100090F82D0001281BD1FFE70A2011F030FF82
:1054200040F6F021C2F20001B1F8742002EB9000C6
:10543000486040F6D420C2F20000002101604FF025
:1054400080400021002213F041FF07F09DFEFFE79E
:10545000FFE7FFE7FFE7FFE7E6E340F6F020C2F2F1
:10546000000090F83000012840F0DD83FFE740F6AF
:10547000F020C2F2000090F83F00002840F0D283F4
:10548000FFE740F6F020C2F2000090F83E0001284D
:1054900040F0A383FFE740F2CE00C2F200000078A4
:1054A00040F6F021C2F2000191F83D1088420ED082
:1054B000FFE740F6F020C2F2000090F83D0040F215
:1054C000CE01C2F20001087007F05EFEFFE740F671
:1054D000F020C2F2000090F84100C007002800F060
:1054E0007B83FFE713F0BCFE40F6F024C2F2000419
:1054F000B4F8741008446060208A10F093FC84F8BB
:105500002A0094F86B00002840F0C980FFE740F6BD
:10551000F020C2F2000090F83D00012823D1FFE7FF
:1055200040F6F025C2F20005B5F88E00FFF709FA43
:105530000446686895F92A100844B5F92810401AFD
:10554000FFF7FFF90146204607F066FE40F6D4213A
:10555000C2F20001086040F2D200C2F200000188ED
:10556000013101809AE040F6F020C2F2000090F88C
:105570003D00022823D1FFE740F6F025C2F20005E6
:10558000B5F89400FFF7DDF90446686895F92A102C
:105590000844B5F92810401AFFF7D3F90146204610
:1055A00007F03AFE40F6D421C2F20001086040F252
:1055B000D200C2F200000188013101806DE040F6A6
:1055C000F020C2F2000090F83D00032823D1FFE74D
:1055D00040F6F025C2F20005B5F89A00FFF7B1F9E0
:1055E0000446686895F92A100844B5F92810401A4D
:1055F000FFF7A7F90146204607F00EFE40F6D4213A
:10560000C2F20001086040F2D200C2F2000001883C
:105610000131018040E040F6F020C2F2000090F835
:105620003D00042823D1FFE740F6F025C2F2000533
:10563000B5F8A000FFF785F90446686895F92A10C7
:105640000844B5F92810401AFFF77BF901462046B7
:1056500007F0E2FD40F6D421C2F20001086040F2FA
:10566000D200C2F2000001880131018013E040F64F
:10567000F020C2F2000090F83D0005280AD1FFE7B3
:1056800040F6F020C2F20000002180F83E1080F8C1
:105690003D10FFE7FFE7FFE7FFE7FFE778E240F6AF
:1056A000F020C2F2000090F86B00012840F0C980A1
:1056B000FFE740F6F020C2F2000090F83D0001281C
:1056C00023D1FFE740F6F025C2F20005B5F8AC00A3
:1056D000FFF737F90446686895F92A100844B5F9C8
:1056E0002810401AFFF72DF90146204607F094FDD7
:1056F00040F6D421C2F20001086040F2D200C2F2AA
:1057000000000188013101809AE040F6F020C2F2E9
:10571000000090F83D00022823D1FFE740F6F02575
:10572000C2F20005B5F8B200FFF70BF9044668684D
:1057300095F92A100844B5F92810401AFFF701F925
:105740000146204607F068FD40F6D421C2F2000170
:10575000086040F2D200C2F20000018801310180ED
:105760006DE040F6F020C2F2000090F83D00032802
:1057700023D1FFE740F6F025C2F20005B5F8B800E6
:10578000FFF7DFF80446686895F92A100844B5F970
:105790002810401AFFF7D5F80146204607F03CFDD7
:1057A00040F6D421C2F20001086040F2D200C2F2F9
:1057B000000001880131018040E040F6F020C2F293
:1057C000000090F83D00042823D1FFE740F6F025C3
:1057D000C2F20005B5F8BE00FFF7B3F804466868EA
:1057E00095F92A100844B5F92810401AFFF7A9F8CE
:1057F0000146204607F010FD40F6D421C2F2000118
:10580000086040F2D200C2F200000188013101803C
:1058100013E040F6F020C2F2000090F83D000528A9
:105820000AD1FFE740F6F020C2F20000002180F824
:105830003E1080F83D10FFE7FFE7FFE7FFE7FFE7D7
:10584000A5E140F6F020C2F2000090F86B000228BB
:1058500040F0C980FFE740F6F020C2F2000090F867
:105860003D00012823D1FFE740F6F025C2F20005F4
:10587000B5F8CA00FFF765F80446686895F92A107C
:105880000844B5F92810401AFFF75BF80146204696
:1058900007F0C2FC40F6D421C2F20001086040F2D9
:1058A000D200C2F200000188013101809AE040F686
:1058B000F020C2F2000090F83D00022823D1FFE75B
:1058C00040F6F025C2F20005B5F8D000FFF739F830
:1058D0000446686895F92A100844B5F92810401A5A
:1058E000FFF72FF80146204607F096FC40F6D4213A
:1058F000C2F20001086040F2D200C2F2000001884A
:10590000013101806DE040F6F020C2F2000090F815
:105910003D00032823D1FFE740F6F025C2F2000541
:10592000B5F8D600FFF70DF80446686895F92A1017
:105930000844B5F92810401AFFF703F8014620463D
:1059400007F06AFC40F6D421C2F20001086040F280
:10595000D200C2F2000001880131018040E040F62F
:10596000F020C2F2000090F83D00042823D1FFE7A8
:1059700040F6F025C2F20005B5F8DC00FEF7E1FFC5
:105980000446686895F92A100844B5F92810401AA9
:10599000FEF7D7FF0146204607F03EFC40F6D42133
:1059A000C2F20001086040F2D200C2F20000018899
:1059B0000131018013E040F6F020C2F2000090F8BF
:1059C0003D0005280AD1FFE740F6F020C2F20000B2
:1059D000002180F83E1080F83D10FFE7FFE7FFE769
:1059E000FFE7FFE7D2E040F6F020C2F2000090F8B7
:1059F0006B00032840F0C980FFE740F6F020C2F2B8
:105A0000000090F83D00012823D1FFE740F6F02583
:105A1000C2F20005B5F8E800FEF793FF0446686897
:105A200095F92A100844B5F92810401AFEF789FFA5
:105A30000146204607F0F0FB40F6D421C2F20001F7
:105A4000086040F2D200C2F20000018801310180FA
:105A50009AE040F6F020C2F2000090F83D000228E3
:105A600023D1FFE740F6F025C2F20005B5F8EE00BD
:105A7000FEF767FF0446686895F92A100844B5F9EF
:105A80002810401AFEF75DFF0146204607F0C4FBD0
:105A900040F6D421C2F20001086040F2D200C2F206
:105AA00000000188013101806DE040F6F020C2F273
:105AB000000090F83D00032823D1FFE740F6F025D1
:105AC000C2F20005B5F8F400FEF73BFF0446686833
:105AD00095F92A100844B5F92810401AFEF731FF4D
:105AE0000146204607F098FB40F6D421C2F200019F
:105AF000086040F2D200C2F200000188013101804A
:105B000040E040F6F020C2F2000090F83D0004288A
:105B100023D1FFE740F6F025C2F20005B5F8FA0000
:105B2000FEF70FFF0446686895F92A100844B5F996
:105B30002810401AFEF705FF0146204607F06CFBCF
:105B400040F6D421C2F20001086040F2D200C2F255
:105B5000000001880131018013E040F6F020C2F21C
:105B6000000090F83D0005280AD1FFE740F6F0203C
:105B7000C2F20000002180F83E1080F83D10FFE7DF
:105B8000FFE7FFE7FFE7FFE7FFE7FFE7FFE7FFE7E5
:105B900040F6D420C2F2000000680021FEF7BAFEF1
:105BA00038B9FFE740F6D420C2F2000000210160BE
:105BB000FFE740F6D420C2F200000068FEF7FDFEC9
:105BC00002464FF08040002113F080FB4FF08040F0
:105BD000012113F0C5FBFFE723E040F6F020C2F2FD
:105BE000000090F83E00D8B9FFE707F0CDFA0A2090
:105BF00011F046FB40F6F021C2F20001B1F874202A
:105C000002EB9000486040F6D420C2F20000002170
:105C100001604FF080400021002213F057FBFFE7A6
:105C2000FFE7FFE7FFE7FFE740F6F020C2F20000E2
:105C300090F82E0060B1FFE74FF080400021002275
:105C400013F044FB4FF08040002113F089FBFFE785
:105C5000B0BD000080B50EF083FF40F6F020C2F228
:105C6000000090F83000002840F01781FFE740F670
:105C7000F020C2F2000090F82C0018B1FFE70128D4
:105C800021D009E140F6F020C2F2000090F82D008A
:105C900040B9FFE740F6F020C2F20000012180F891
:105CA0002C1007E040F6F020C2F20000002180F83E
:105CB0002C10FFE740F6F020C2F20000002180F82F
:105CC0002010C183E8E040F6F020C2F2000090F816
:105CD0002F0050B1FFE740F6F020C2F2000090F82C
:105CE0002F00022840F0CC80FFE740F6F020C2F2FF
:105CF000000090F82F00022811D1FFE740F6F020B5
:105D0000C2F2000090F82D00012808D1FFE740F60C
:105D1000F020C2F20000002180F82F10FFE740F6CB
:105D2000F020C2F2000040682E280AD3FFE740F6B8
:105D3000F020C2F20000406840F28A21884267D316
:105D4000FFE740F6F020C2F2000090F82D00002896
:105D50005ED1FFE740F6F020C2F20000C18B0131B6
:105D6000C183C08B4B2818DBFFE740F6F020C2F25E
:105D70000000406840F28A2188420DD3FFE740F6D8
:105D8000F020C2F20000032180F82E10012180F8DB
:105D900020100021C1837FE0FFE740F6F020C2F22F
:105DA0000000C08B40F2EE21884230DBFFE740F676
:105DB000F020C2F2000040682D280DD8FFE740F621
:105DC000F020C2F20000022180F82E10012180F89C
:105DD00020100021C1835FE040F6F020C2F20000F5
:105DE000C068952808D8FFE740F6F020C2F200000E
:105DF000012180F82E10FFE7FFE740F6F020C2F205
:105E00000000012180F820100021C18344E006E059
:105E100040F6F020C2F200000021C183FFE740F607
:105E2000F020C2F2000090F82D00012827D1FFE7F2
:105E300040F6F020C2F20000406846281ED8FFE776
:105E400040F6F020C2F20000818B01318183808B0B
:105E5000652812DBFFE740F6F020C2F200000021C7
:105E600080F82C10818340F25001C2F2000102221E
:105E70000A72012180F820100EE0FFE7FFE70AE038
:105E800040F6F020C2F2000090F82F00032801D164
:105E9000FFE7FFE7FFE7FFE7B9E040F6F020C2F2D7
:105EA000000090F83000012840F0B080FFE740F695
:105EB000F020C2F2000090F83E00012840F0A580DA
:105EC000FFE740F6F020C2F2000090F83F00002803
:105ED00040F09A80FFE740F6F020C2F200004068F0
:105EE0002E2812D3FFE740F6F020C2F200004068EF
:105EF00040F28921884208D8FFE740F6F020C2F23C
:105F00000000C068952877D8FFE740F6F020C2F27D
:105F1000000090F82D0000286ED1FFE740F6F02039
:105F2000C2F20000C18B0131C183C08B4B2820DB42
:105F3000FFE740F6F020C2F20000406840F28A21FC
:105F4000884215D3FFE740F6F020C2F20000C06897
:105F500096280DD3FFE740F6F020C2F2000003219F
:105F600080F82E10012180F820100021C183FFE766
:105F7000FFE740F6F020C2F20000C08B40F2EE21B5
:105F8000884238DBFFE740F6F020C2F200004068AC
:105F90002D2815D8FFE740F6F020C2F20000C068B7
:105FA00096280DD3FFE740F6F020C2F20000022150
:105FB00080F82E10012180F820100021C18310E00C
:105FC00040F6F020C2F20000C068952808D8FFE72C
:105FD00040F6F020C2F20000012180F82E10FFE709
:105FE000FFE740F6F020C2F20000012180F8201007
:105FF0000021C183FFE706E040F6F020C2F2000076
:106000000021C183FFE7FFE7FFE7FFE7FFE780BD70
:1060100082B00190019808B9FFE72BE001980021B8
:106020000170019844F23D32C0F60102C0F8042824
:10603000019841F68502C0F60102C0F808280091D7
:10604000FFE70098B0F5806F0FDAFFE7019800993D
:106050000844002180F802140198009A104441700D
:10606000FFE7009801300090EBE70198002180F8ED
:106070000114FFE702B0704780B510F0F5F928B1C0
:10608000FFE710F0E5F9FEF7EFFDFFE780BD000048
:1060900082B0019041F28050C2F20000007818B93D
:1060A000FFE7002000900FE00198C0F3C62141F205
:1060B0000052C2F20002515CC0F3022021FA00F04B
:1060C00000F001000090FFE7009802B07047000068
:1060D00080B586B041F28050C2F200008069039022
:1060E000FFE700F0BFFA04900498039988422CD28D
:1060F000FFE7EFF3108005900598029072B641F229
:106100008050C2F200008069019001980399884292
:106110000ED1FFE7049841F28051C2F2000188617C
:10612000086901300861BFF35F8F0120009002E031
:1061300000200090FFE7029810B9FFE762B6FFE782
:10614000009808B9FFE701E008E0FFE7049903A819
:106150000EF04EFC0028C4D0FFE7FFE7049806B01D
:1061600080BD000080B58CB04FF60061C0F2020126
:10617000099141F2D801C2F20001089107900898F4
:1061800020B1FFE70798812803D3FFE700200A909A
:10619000AEE00998FFF77CFF18B9FFE701200A90ED
:1061A000A6E0FFF795FF0590BDF824000990EFF3F6
:1061B00005800B900B98099941F40022002818BF24
:1061C0001146099108980690079850B9FFE7099879
:1061D00005990022002300F08DF8019001980A90A3
:1061E00086E0079808281BD8FFE70020029003905C
:1061F0000699079A02A8FEF777FA079800F00700B9
:10620000099941EA00400990099840F040700599C9
:10621000029A039B00F06EF8019001980A9067E0E3
:1062200006F0A2F84FF4E02101EA0040049006983D
:10623000016840680390029106980830069007981C
:10624000083807900498099908430990099840F084
:1062500080700599029A039B00F04CF80190019818
:1062600018B9FFE700200A9042E004984FF6017148
:1062700008430990FFE7079809281CD3FFE7069811
:1062800001684068039002910698083006900798CC
:106290000838079009980599029A039B00F02AF89C
:1062A0000190099801300990019818B9FFE7002082
:1062B0000A901DE0DFE70020029003900699079AFC
:1062C00002A8FEF711FA099820F47F400990079878
:1062D000099941EA00200990099840F00070059959
:1062E000029A039B00F006F8019001980A90FFE7DC
:1062F0000CB080BD80B58CB00A90099108920793CC
:1063000007200590FFE70598002863D0FFE706F017
:106310002FF80490049800F03F0041F20011C2F2FF
:10632000000101EB0010069004984FF4700101EA9F
:10633000803001900A980199084309994FF08052E2
:1063400002EAD101084308994FF0005202EA910194
:10635000084307994FF0804202EA5101084340F098
:106360000060039006980C30039906F05DFE0390E0
:106370009DF80F004007002827D5FFE7039880F01D
:1063800000400390039800F000400290099820F02C
:1063900000400299084306990860089820F00040E0
:1063A0000299084306994860079820F00040029936
:1063B00008430699886006980C3003990DF0A4FFF5
:1063C00005F0ECFF01200B9009E0FFE7059801388C
:1063D000059098E705F0D8FF00200B90FFE70B9899
:1063E0000CB080BD87B00590049103920498FE28FC
:1063F00004D8FFE70398FF2803D3FFE700200690A7
:1064000036E0002002900190FFE7019803282CD885
:10641000FFE705980199C840C007F0B1FFE704986D
:106420000090FFE700980399884215D8FFE700988D
:1064300000F00701012202FA01F1029A02EBD000FA
:1064400041F20052C2F20002135C19431154FFE7FB
:10645000009801300090E5E7FFE7029820300290B5
:10646000FFE7019801300190CFE701200690FFE798
:1064700007B0704710B588B0002007900121069141
:1064800041F28054C2F20004207041F20050C2F286
:1064900000008021FEF741F90FF0FEF8ADF8120080
:1064A000206A42F26B71CEF2A51188420FD0FFE74D
:1064B00041F28050C2F2000042F26B71CEF2A5119F
:1064C0000162BDF8121041800121C1611CE041F25E
:1064D0008050C2F200004088BDF8121088420AD0F5
:1064E000FFE7BDF8120041F28051C2F2000148807E
:1064F0000120C86107E041F28050C2F20000C1698A
:106500000131C161FFE7FFE741F28050C2F20000B4
:10651000C069012812D1FFE741F28050C2F20000A9
:106520000021417041608160C16041F20010C2F2FF
:1065300000004FF48061FEF7F0F820E000200090AA
:10654000FFE700983F2819D8FFE7009841F20011B3
:10655000C2F2000101EB001005900598C07B4007D6
:10656000002806D5FFE70598C16821F04061C160A9
:10657000FFE7FFE7009801300090E2E7FFE741F214
:106580008050C2F20000C069012818D1FFE700F076
:1065900075F801200290029820B1FFE700F068F83A
:1065A000039002E000200390FFE7039841F280513E
:1065B000C2F20001486100208861086104E000F037
:1065C0005DF801200290FFE7029830B3FFE70798DB
:1065D0000021FE22FFF706FF0F20EF21EF22FFF739
:1065E00001FF0420FE21FE22FFF7FCFEFFF770FDF5
:1065F0000190019941F28050C2F200004369C269E2
:106600004FF60070C0F20030FFF774FE069818B124
:10661000FFE700F005F8FFE7FFE708B010BD000056
:1066200010B582B041F28050C2F20000007818B17B
:10663000FFE70120019013E041F28050C2F2000018
:1066400001240470FFF744FD009000994FF601709B
:10665000C0F2003000220023FFF74CFE0194FFE758
:1066600002B010BD41F20400CEF200000068704795
:1066700040F29C00C2F20000006870474EF6FC50E9
:10668000CEF20000016841F08071016041F200002B
:10669000CEF20000016841F0010101607047000086
:1066A00070B581B040F6F020C2F200000090009872
:1066B00000220270009842600098C2600099C820D1
:1066C0000882009B32219975009B1976009B4FF040
:1066D000280EA3F81AE0009B9A83009BDA83009BA4
:1066E00083F82020009B012483F82C40009B83F832
:1066F0002D20009B83F82E20009B5984009B4FF097
:106700003C0CA3F824C0009BDA84009B83F83C4037
:10671000009B83F83D40009B83F83020009B83F86A
:106720003120009B83F83240009B83F83320009B8C
:1067300083F83440009B83F83520009B022483F8C3
:106740003740009B83F83820009B83F83920009B5A
:1067500083F83A20009B83F84020009B83F8412077
:10676000009B83F84220009B312483F84340009B28
:106770002E2583F84450009B302683F84560009B0B
:1067800083F84650009B83F84760009B83F857408E
:10679000009B83F85850009B83F85960009B83F856
:1067A0005A50009B83F85B60009B83F86B20009B32
:1067B00083F86C20009C0A23A4F86E30009CA4F897
:1067C0007420009A4FF49674A2F87640009AA2F8CA
:1067D00078E0009A1E24A2F87A40009A4FF4A07440
:1067E000A2F87C40009AA2F87E10009AA2F880E0FD
:1067F000009A4FF4AF76A2F88260009AA2F884C0A3
:10680000009AA2F88610009A4FF4BE76A2F888602B
:10681000009A5026A2F88A60009AA2F88CC0009ACA
:106820004FF0640EA2F88EE0009C1422A4F8902091
:10683000009CA4F892C0009CA4F89400009CA4F8CA
:106840009610009CA4F89830009CA4F89A00009C34
:10685000A4F89C10009CA4F89E30009CA4F8A00012
:10686000009CA4F8A210009CA4F8A430009CA4F8FA
:10687000A600009CA4F8A810009CA4F8AA30009CD4
:10688000A4F8ACE0009CA4F8AE20009CA4F8B0C032
:10689000009CA4F8B200009CA4F8B410009CA4F8DA
:1068A000B630009CA4F8B800009CA4F8BA10009C74
:1068B000A4F8BC30009CA4F8BE00009CA4F8C01052
:1068C000009CA4F8C230009CA4F8C400009CA4F86A
:1068D000C610009CA4F8C830009CA4F8CAE0009C34
:1068E000A4F8CC20009CA4F8CEC0009CA4F8D00052
:1068F000009CA4F8D210009CA4F8D430009CA4F80A
:10690000D600009CA4F8D810009CA4F8DA30009CB3
:10691000A4F8DC00009CA4F8DE10009CA4F8E03091
:10692000009CA4F8E200009CA4F8E410009CA4F8E9
:10693000E630009CA4F8E8E0009CA4F8EA20009C63
:10694000A4F8ECC0009CA4F8EE00009CA4F8F010A1
:10695000009CA4F8F230009CA4F8F400009CA4F879
:10696000F610009CA4F8F830009CA4F8FA00009CF3
:10697000A4F8FC10009CA4F8FE30009CA4F80001D0
:10698000009CA4F80211009CA4F80431009CA4F817
:1069900006E1009EA6F80821009AA2F80AC1009A12
:1069A000A2F80C01009AA2F80E11009AA2F8103178
:1069B000009AA2F81201009AA2F81411009AA2F803
:1069C0001631009AA2F81801009AA2F81A11009A3A
:1069D000A2F81C31009AA2F81E010098A0F820111C
:1069E0000098A0F8223101B070BD0000B0B540F2AF
:1069F000C010C2F200000078032805F2B484DFE87A
:106A000010F004005F1C08237B2C40F2A320C2F28C
:106A100000000078002843F04984FFE74FF200406F
:106A2000C0F601000FF0D0F94FF6FF71884200F078
:106A3000D586FFE74FF60000C0F601000FF0C4F95D
:106A40004FF6FF71884200F0C986FFE74FF2D6404B
:106A5000C0F6010010F0E2FB40F2A424C2F20004F0
:106A600020804FF6D800C0F6010010F0D7FB40F2AE
:106A7000A621C2F20001088020880988884240F3DC
:106A80005583FFE74FF20040C0F6010010F0C6FB4F
:106A900040F6F025C2F2000528824FF20240C0F60F
:106AA000010010F0BBFBA8754FF20440C0F60100D6
:106AB00010F0B4FB28764FF20640C0F6010010F04B
:106AC000ADFB28854FF20840C0F6010010F0A6FB90
:106AD00068844FF20A40C0F6010010F09FFBA884C2
:106AE0004FF2CE40C0F6010010F098FB85F8300060
:106AF0004FF20C44C0F60104204610F08FFBA5F8BD
:106B00006E00204610F08AFB85F831004FF20E40EF
:106B1000C0F6010010F082FB85F832004FF2104001
:106B2000C0F6010010F07AFB85F833004FF21240F6
:106B3000C0F6010010F072FB85F834004FF21440EB
:106B4000C0F6010010F06AFB85F835004FF21640E0
:106B5000C0F6010010F062FB85F836004FF21840D5
:106B6000C0F6010010F05AFB85F838004FF21A40C9
:106B7000C0F6010010F052FB85F839004FF21C40BE
:106B8000C0F6010010F04AFB85F83A004FF21E40B3
:106B9000C0F6010010F042FB85F83B004FF22040A8
:106BA000C0F6010010F03AFBA5F876004FF2224043
:106BB000C0F6010010F032FBA5F878004FF2244037
:106BC000C0F6010010F02AFBA5F87A004FF226402B
:106BD000C0F6010010F022FBA5F87C004FF228401F
:106BE000C0F6010010F01AFBA5F87E004FF22A4013
:106BF000C0F6010010F012FBA5F880004FF22C4007
:106C0000C0F6010010F00AFBA5F882004FF22E40FA
:106C1000C0F6010010F002FBA5F884004FF23040EE
:106C2000C0F6010010F0FAFAA5F886004FF23240E3
:106C3000C0F6010010F0F2FAA5F888004FF23440D7
:106C4000C0F6010010F0EAFAA5F88A004FF23640CB
:106C5000C0F6010010F0E2FAA5F88C004FF23840BF
:106C6000C0F6010010F0DAFAA5F88E004FF23A40B3
:106C7000C0F6010010F0D2FAA5F890004FF23C40A7
:106C8000C0F6010010F0CAFAA5F892004FF23E409B
:106C9000C0F6010010F0C2FAA5F894004FF240408F
:106CA000C0F6010010F0BAFAA5F896004FF2424083
:106CB000C0F6010010F0B2FAA5F898004FF2444077
:106CC000C0F6010010F0AAFAA5F89A004FF246406B
:106CD000C0F6010010F0A2FAA5F89C004FF248405F
:106CE000C0F6010010F09AFAA5F89E004FF24A4053
:106CF000C0F6010010F092FAA5F8A0004FF24C4047
:106D0000C0F6010010F08AFAA5F8A2004FF24E403A
:106D1000C0F6010010F082FAA5F8A4004FF250402E
:106D2000C0F6010010F07AFAA5F8A6004FF2524022
:106D3000C0F6010010F072FAA5F8A8004FF2544016
:106D4000C0F6010010F06AFAA5F8AA004FF256400A
:106D5000C0F6010010F062FAA5F8AC004FF25840FE
:106D6000C0F6010010F05AFAA5F8AE004FF25A40F2
:106D7000C0F6010010F052FAA5F8B0004FF25C40E6
:106D8000C0F6010010F04AFAA5F8B2004FF25E40DA
:106D9000C0F6010010F042FAA5F8B4004FF26040CE
:106DA000C0F6010010F03AFAA5F8B6004FF26240C2
:106DB000C0F6010010F032FAA5F8B8004FF26440B6
:106DC000C0F6010010F02AFAA5F8BA004FF26640AA
:106DD000C0F6010010F022FAA5F8BC004FF268409E
:106DE000C0F6010010F01AFAA5F8BE004FF26A4092
:106DF000C0F6010010F012FAA5F8C0004FF26C4086
:106E0000C0F6010010F00AFAA5F8C2004FF26E4079
:106E1000C0F6010010F002FAA5F8C4004FF270406D
:106E2000C0F6010010F0FAF9A5F8C6004FF2724062
:106E3000C0F6010010F0F2F9A5F8C8004FF2764450
:106E4000C0F60104204610F0E9F9A5F8CA00204672
:106E500010F0E4F9A5F8CC004FF27840C0F601003C
:106E600010F0DCF9A5F8CE004FF27A40C0F6010030
:106E700010F0D4F9A5F8D0004FF27C40C0F6010024
:106E800010F0CCF9A5F8D2004FF27E40C0F6010018
:106E900010F0C4F9A5F8D4004FF28040C0F601000C
:106EA00010F0BCF9A5F8D6004FF28240C0F6010000
:106EB00010F0B4F9A5F8D8004FF28440C0F60100F4
:106EC00010F0ACF9A5F8DA004FF28640C0F60100E8
:106ED00010F0A4F9A5F8DC004FF28840C0F60100DC
:106EE00010F09CF9A5F8DE004FF28A40C0F60100D0
:106EF00010F094F9A5F8E0004FF28C40C0F60100C4
:106F000010F08CF9A5F8E2004FF28E40C0F60100B7
:106F100010F084F9A5F8E4004FF29040C0F60100AB
:106F200010F07CF9A5F8E6004FF29444C0F6010495
:106F3000204610F073F9A5F8E800204610F06EF92D
:106F4000A5F8EA004FF29640C0F6010010F066F98D
:106F5000A5F8EC004FF29840C0F6010010F05EF981
:106F6000A5F8EE004FF29A40C0F6010010F056F975
:106F7000A5F8F0004FF29C40C0F6010010F04EF969
:106F8000A5F8F2004FF29E40C0F6010010F046F95D
:106F9000A5F8F4004FF2A040C0F6010010F03EF951
:106FA000A5F8F6004FF2A240C0F6010010F036F945
:106FB000A5F8F8004FF2A440C0F6010010F02EF939
:106FC000A5F8FA004FF2A640C0F6010010F026F92D
:106FD000A5F8FC004FF2A840C0F6010010F01EF921
:106FE000A5F8FE004FF2AA40C0F6010010F016F915
:106FF000A5F800014FF2AC40C0F6010010F00EF908
:10700000A5F802014FF2AE40C0F6010010F006F9FB
:10701000A5F804014FF2B244C0F60104204610F076
:10702000FDF8A5F80601204610F0F8F8A5F80801CB
:107030004FF2B440C0F6010010F0F0F8A5F80A01D4
:107040004FF2B640C0F6010010F0E8F8A5F80C01C8
:107050004FF2B840C0F6010010F0E0F8A5F80E01BC
:107060004FF2BA40C0F6010010F0D8F8A5F81001B0
:107070004FF2BC40C0F6010010F0D0F8A5F81201A4
:107080004FF2BE40C0F6010010F0C8F8A5F8140198
:107090004FF2C040C0F6010010F0C0F8A5F816018C
:1070A0004FF2C240C0F6010010F0B8F8A5F8180180
:1070B0004FF2C440C0F6010010F0B0F8A5F81A0174
:1070C0004FF2C640C0F6010010F0A8F8A5F81C0168
:1070D0004FF2C840C0F6010010F0A0F8A5F81E015C
:1070E0004FF2CA40C0F6010010F098F8A5F8200150
:1070F0004FF2CC40C0F6010010F090F8A5F8220144
:107100004FF2D240C0F6010010F088F80024C5F814
:107110002C41C5F828014FF2D440C0F6010010F010
:107120007DF8C5F83441C5F8300155E34FF600004D
:10713000C0F6010010F072F840F6F025C2F200052A
:1071400028824FF60200C0F6010010F067F8A8751B
:107150004FF60400C0F6010010F060F828764FF6F4
:107160000600C0F6010010F059F828854FF6080017
:10717000C0F6010010F052F868844FF60A00C0F61D
:10718000010010F04BF8A8844FF6D000C0F60100C3
:1071900010F044F885F830004FF60C00C0F60100FE
:1071A00010F03CF8A5F86E004FF60E00C0F6010096
:1071B00010F034F885F831004FF61000C0F60100E9
:1071C00010F02CF885F832004FF61200C0F60100DE
:1071D00010F024F885F833004FF61400C0F60100D3
:1071E00010F01CF885F834004FF61600C0F60100C8
:1071F00010F014F885F835004FF61800C0F60100BD
:1072000010F00CF885F836004FF61A00C0F60100B1
:1072100010F004F885F838004FF61C00C0F60100A5
:107220000FF0FCFF85F839004FF61E00C0F6010094
:107230000FF0F4FF85F83A004FF62000C0F6010089
:107240000FF0ECFF85F83B004FF62200C0F601007E
:107250000FF0E4FFA5F876004FF62400C0F6010019
:107260000FF0DCFFA5F878004FF62600C0F601000D
:107270000FF0D4FFA5F87A004FF62800C0F6010001
:107280000FF0CCFFA5F87C004FF62A00C0F60100F5
:107290000FF0C4FFA5F87E004FF62C00C0F60100E9
:1072A0000FF0BCFFA5F880004FF62E00C0F60100DD
:1072B0000FF0B4FFA5F882004FF63000C0F60100D1
:1072C0000FF0ACFFA5F884004FF63200C0F60100C5
:1072D0000FF0A4FFA5F886004FF63400C0F60100B9
:1072E0000FF09CFFA5F888004FF63600C0F60100AD
:1072F0000FF094FFA5F88A004FF63800C0F60100A1
:107300000FF08CFFA5F88C004FF63A00C0F6010094
:107310000FF084FFA5F88E004FF63C00C0F6010088
:107320000FF07CFFA5F890004FF63E00C0F601007C
:107330000FF074FFA5F892004FF64000C0F6010070
:107340000FF06CFFA5F894004FF64200C0F6010064
:107350000FF064FFA5F896004FF64400C0F6010058
:107360000FF05CFFA5F898004FF64600C0F601004C
:107370000FF054FFA5F89A004FF64800C0F6010040
:107380000FF04CFFA5F89C004FF64A00C0F6010034
:107390000FF044FFA5F89E004FF64C00C0F6010028
:1073A0000FF03CFFA5F8A0004FF64E00C0F601001C
:1073B0000FF034FFA5F8A2004FF65000C0F6010010
:1073C0000FF02CFFA5F8A4004FF65200C0F6010004
:1073D0000FF024FFA5F8A6004FF65400C0F60100F8
:1073E0000FF01CFFA5F8A8004FF65600C0F60100EC
:1073F0000FF014FFA5F8AA004FF65800C0F60100E0
:107400000FF00CFFA5F8AC004FF65A00C0F60100D3
:107410000FF004FFA5F8AE004FF65C00C0F60100C7
:107420000FF0FCFEA5F8B0004FF65E00C0F60100BC
:107430000FF0F4FEA5F8B2004FF66000C0F60100B0
:107440000FF0ECFEA5F8B4004FF66200C0F60100A4
:107450000FF0E4FEA5F8B6004FF66400C0F6010098
:107460000FF0DCFEA5F8B8004FF66600C0F601008C
:107470000FF0D4FEA5F8BA004FF66800C0F6010080
:107480000FF0CCFEA5F8BC004FF66A00C0F6010074
:107490000FF0C4FEA5F8BE004FF66C00C0F6010068
:1074A0000FF0BCFEA5F8C0004FF66E00C0F601005C
:1074B0000FF0B4FEA5F8C2004FF67000C0F6010050
:1074C0000FF0ACFEA5F8C4004FF67200C0F6010044
:1074D0000FF0A4FEA5F8C6004FF67400C0F6010038
:1074E0000FF09CFEA5F8C8004FF67804C0F6010422
:1074F00020460FF093FEA5F8CA0020460FF08EFE3E
:10750000A5F8CC004FF67A00C0F601000FF086FE19
:10751000A5F8CE004FF67C00C0F601000FF07EFE0D
:10752000A5F8D0004FF67E00C0F601000FF076FE01
:10753000A5F8D2004FF68000C0F601000FF06EFEF5
:10754000A5F8D4004FF68200C0F601000FF066FEE9
:10755000A5F8D6004FF68400C0F601000FF05EFEDD
:10756000A5F8D8004FF68600C0F601000FF056FED1
:10757000A5F8DA004FF68800C0F601000FF04EFEC5
:10758000A5F8DC004FF68A00C0F601000FF046FEB9
:10759000A5F8DE004FF68C00C0F601000FF03EFEAD
:1075A000A5F8E0004FF68E00C0F601000FF036FEA1
:1075B000A5F8E2004FF69000C0F601000FF02EFE95
:1075C000A5F8E4004FF69200C0F601000FF026FE89
:1075D000A5F8E6004FF69604C0F6010420460FF029
:1075E0001DFEA5F8E80020460FF018FEA5F8EA00F9
:1075F0004FF69800C0F601000FF010FEA5F8EC0061
:107600004FF69A00C0F601000FF008FEA5F8EE0054
:107610004FF69C00C0F601000FF000FEA5F8F00048
:107620004FF69E00C0F601000FF0F8FDA5F8F2003D
:107630004FF6A000C0F601000FF0F0FDA5F8F40031
:107640004FF6A200C0F601000FF0E8FDA5F8F60025
:107650004FF6A400C0F601000FF0E0FDA5F8F80019
:107660004FF6A600C0F601000FF0D8FDA5F8FA000D
:107670004FF6A800C0F601000FF0D0FDA5F8FC0001
:107680004FF6AA00C0F601000FF0C8FDA5F8FE00F5
:107690004FF6AC00C0F601000FF0C0FDA5F80001E8
:1076A0004FF6AE00C0F601000FF0B8FDA5F80201DC
:1076B0004FF6B000C0F601000FF0B0FDA5F80401D0
:1076C0004FF6B404C0F6010420460FF0A7FDA5F85C
:1076D000060120460FF0A2FDA5F808014FF6B600FE
:1076E000C0F601000FF09AFDA5F80A014FF6B800A8
:1076F000C0F601000FF092FDA5F80C014FF6BA009C
:10770000C0F601000FF08AFDA5F80E014FF6BC008F
:10771000C0F601000FF082FDA5F810014FF6BE0083
:10772000C0F601000FF07AFDA5F812014FF6C00077
:10773000C0F601000FF072FDA5F814014FF6C2006B
:10774000C0F601000FF06AFDA5F816014FF6C4005F
:10775000C0F601000FF062FDA5F818014FF6C60053
:10776000C0F601000FF05AFDA5F81A014FF6C80047
:10777000C0F601000FF052FDA5F81C014FF6CA003B
:10778000C0F601000FF04AFDA5F81E014FF6CC002F
:10779000C0F601000FF042FDA5F820014FF6CE0023
:1077A000C0F601000FF03AFDA5F822014FF6D40013
:1077B000C0F601000FF032FD0024C5F82C41C5F8D9
:1077C00028014FF6D600C0F601000FF027FDC5F8DE
:1077D0003441C5F83001FFE700F0B3BF4FF200407D
:1077E000C0F601000EF0F0FA4FF6FF71884200F08B
:1077F0005683FFE74FF20040C0F601000FF00EFD88
:1078000040F6F025C2F2000528824FF20240C0F691
:1078100001000FF003FDA8754FF20440C0F601000F
:107820000FF0FCFC28764FF20640C0F601000FF086
:10783000F5FC28854FF20840C0F601000FF0EEFC81
:1078400068844FF20A40C0F601000FF0E7FCA884FC
:107850004FF2CE40C0F601000FF0E0FC85F830009A
:107860004FF20C44C0F6010420460FF0D7FCA5F8F7
:107870006E0020460FF0D2FC85F831004FF20E402A
:10788000C0F601000FF0CAFC85F832004FF210403C
:10789000C0F601000FF0C2FC85F833004FF2124031
:1078A000C0F601000FF0BAFC85F834004FF2144026
:1078B000C0F601000FF0B2FC85F835004FF216401B
:1078C000C0F601000FF0AAFC85F836004FF2184010
:1078D000C0F601000FF0A2FC85F838004FF21A4004
:1078E000C0F601000FF09AFC85F839004FF21C40F9
:1078F000C0F601000FF092FC85F83A004FF21E40EE
:10790000C0F601000FF08AFC85F83B004FF22040E2
:10791000C0F601000FF082FCA5F876004FF222407D
:10792000C0F601000FF07AFCA5F878004FF2244071
:10793000C0F601000FF072FCA5F87A004FF2264065
:10794000C0F601000FF06AFCA5F87C004FF2284059
:10795000C0F601000FF062FCA5F87E004FF22A404D
:10796000C0F601000FF05AFCA5F880004FF22C4041
:10797000C0F601000FF052FCA5F882004FF22E4035
:10798000C0F601000FF04AFCA5F884004FF2304029
:10799000C0F601000FF042FCA5F886004FF232401D
:1079A000C0F601000FF03AFCA5F888004FF2344011
:1079B000C0F601000FF032FCA5F88A004FF2364005
:1079C000C0F601000FF02AFCA5F88C004FF23840F9
:1079D000C0F601000FF022FCA5F88E004FF23A40ED
:1079E000C0F601000FF01AFCA5F890004FF23C40E1
:1079F000C0F601000FF012FCA5F892004FF23E40D5
:107A0000C0F601000FF00AFCA5F894004FF24040C8
:107A1000C0F601000FF002FCA5F896004FF24240BC
:107A2000C0F601000FF0FAFBA5F898004FF24440B1
:107A3000C0F601000FF0F2FBA5F89A004FF24640A5
:107A4000C0F601000FF0EAFBA5F89C004FF2484099
:107A5000C0F601000FF0E2FBA5F89E004FF24A408D
:107A6000C0F601000FF0DAFBA5F8A0004FF24C4081
:107A7000C0F601000FF0D2FBA5F8A2004FF24E4075
:107A8000C0F601000FF0CAFBA5F8A4004FF2504069
:107A9000C0F601000FF0C2FBA5F8A6004FF252405D
:107AA000C0F601000FF0BAFBA5F8A8004FF2544051
:107AB000C0F601000FF0B2FBA5F8AA004FF2564045
:107AC000C0F601000FF0AAFBA5F8AC004FF2584039
:107AD000C0F601000FF0A2FBA5F8AE004FF25A402D
:107AE000C0F601000FF09AFBA5F8B0004FF25C4021
:107AF000C0F601000FF092FBA5F8B2004FF25E4015
:107B0000C0F601000FF08AFBA5F8B4004FF2604008
:107B1000C0F601000FF082FBA5F8B6004FF26240FC
:107B2000C0F601000FF07AFBA5F8B8004FF26440F0
:107B3000C0F601000FF072FBA5F8BA004FF26640E4
:107B4000C0F601000FF06AFBA5F8BC004FF26840D8
:107B5000C0F601000FF062FBA5F8BE004FF26A40CC
:107B6000C0F601000FF05AFBA5F8C0004FF26C40C0
:107B7000C0F601000FF052FBA5F8C2004FF26E40B4
:107B8000C0F601000FF04AFBA5F8C4004FF27040A8
:107B9000C0F601000FF042FBA5F8C6004FF272409C
:107BA000C0F601000FF03AFBA5F8C8004FF276448A
:107BB000C0F6010420460FF031FBA5F8CA002046AC
:107BC0000FF02CFBA5F8CC004FF27840C0F6010076
:107BD0000FF024FBA5F8CE004FF27A40C0F601006A
:107BE0000FF01CFBA5F8D0004FF27C40C0F601005E
:107BF0000FF014FBA5F8D2004FF27E40C0F6010052
:107C00000FF00CFBA5F8D4004FF28040C0F6010045
:107C10000FF004FBA5F8D6004FF28240C0F6010039
:107C20000FF0FCFAA5F8D8004FF28440C0F601002E
:107C30000FF0F4FAA5F8DA004FF28640C0F6010022
:107C40000FF0ECFAA5F8DC004FF28840C0F6010016
:107C50000FF0E4FAA5F8DE004FF28A40C0F601000A
:107C60000FF0DCFAA5F8E0004FF28C40C0F60100FE
:107C70000FF0D4FAA5F8E2004FF28E40C0F60100F2
:107C80000FF0CCFAA5F8E4004FF29040C0F60100E6
:107C90000FF0C4FAA5F8E6004FF29444C0F60104D0
:107CA00020460FF0BBFAA5F8E80020460FF0B6FA20
:107CB000A5F8EA004FF29640C0F601000FF0AEFAC8
:107CC000A5F8EC004FF29840C0F601000FF0A6FABC
:107CD000A5F8EE004FF29A40C0F601000FF09EFAB0
:107CE000A5F8F0004FF29C40C0F601000FF096FAA4
:107CF000A5F8F2004FF29E40C0F601000FF08EFA98
:107D0000A5F8F4004FF2A040C0F601000FF086FA8B
:107D1000A5F8F6004FF2A240C0F601000FF07EFA7F
:107D2000A5F8F8004FF2A440C0F601000FF076FA73
:107D3000A5F8FA004FF2A640C0F601000FF06EFA67
:107D4000A5F8FC004FF2A840C0F601000FF066FA5B
:107D5000A5F8FE004FF2AA40C0F601000FF05EFA4F
:107D6000A5F800014FF2AC40C0F601000FF056FA42
:107D7000A5F802014FF2AE40C0F601000FF04EFA36
:107D8000A5F804014FF2B244C0F6010420460FF0FA
:107D900045FAA5F8060120460FF040FAA5F80801BB
:107DA0004FF2B440C0F601000FF038FAA5F80A010E
:107DB0004FF2B640C0F601000FF030FAA5F80C0102
:107DC0004FF2B840C0F601000FF028FAA5F80E01F6
:107DD0004FF2BA40C0F601000FF020FAA5F81001EA
:107DE0004FF2BC40C0F601000FF018FAA5F81201DE
:107DF0004FF2BE40C0F601000FF010FAA5F81401D2
:107E00004FF2C040C0F601000FF008FAA5F81601C5
:107E10004FF2C240C0F601000FF000FAA5F81801B9
:107E20004FF2C440C0F601000FF0F8F9A5F81A01AE
:107E30004FF2C640C0F601000FF0F0F9A5F81C01A2
:107E40004FF2C840C0F601000FF0E8F9A5F81E0196
:107E50004FF2CA40C0F601000FF0E0F9A5F820018A
:107E60004FF2CC40C0F601000FF0D8F9A5F822017E
:107E70004FF2D240C0F601000FF0D0F90024C5F84F
:107E80002C41C5F828014FF2D440C0F601000FF094
:107E9000C5F9C5F83441C5F8300100F051BC4FF6C2
:107EA0000000C0F601000DF08FFF4FF6FF71884211
:107EB00000F05783FFE74FF60000C0F601000FF017
:107EC000ADF940F6F025C2F2000528824FF6020017
:107ED000C0F601000FF0A2F9A8754FF60400C0F635
:107EE00001000FF09BF928764FF60600C0F601005E
:107EF0000FF094F928854FF60800C0F601000FF046
:107F00008DF968844FF60A00C0F601000FF086F97B
:107F1000A8844FF6D000C0F601000FF07FF985F875
:107F200030004FF60C00C0F601000FF077F9A5F80D
:107F30006E004FF60E00C0F601000FF06FF985F8E5
:107F400031004FF61000C0F601000FF067F985F818
:107F500032004FF61200C0F601000FF05FF985F80D
:107F600033004FF61400C0F601000FF057F985F802
:107F700034004FF61600C0F601000FF04FF985F8F7
:107F800035004FF61800C0F601000FF047F985F8EC
:107F900036004FF61A00C0F601000FF03FF985F8E1
:107FA00038004FF61C00C0F601000FF037F985F8D5
:107FB00039004FF61E00C0F601000FF02FF985F8CA
:107FC0003A004FF62000C0F601000FF027F985F8BF
:107FD0003B004FF62200C0F601000FF01FF9A5F894
:107FE00076004FF62400C0F601000FF017F9A5F84F
:107FF00078004FF62600C0F601000FF00FF9A5F843
:108000007A004FF62800C0F601000FF007F9A5F836
:108010007C004FF62A00C0F601000FF0FFF8A5F82B
:108020007E004FF62C00C0F601000FF0F7F8A5F81F
:1080300080004FF62E00C0F601000FF0EFF8A5F813
:1080400082004FF63000C0F601000FF0E7F8A5F807
:1080500084004FF63200C0F601000FF0DFF8A5F8FB
:1080600086004FF63400C0F601000FF0D7F8A5F8EF
:1080700088004FF63600C0F601000FF0CFF8A5F8E3
:108080008A004FF63800C0F601000FF0C7F8A5F8D7
:108090008C004FF63A00C0F601000FF0BFF8A5F8CB
:1080A0008E004FF63C00C0F601000FF0B7F8A5F8BF
:1080B00090004FF63E00C0F601000FF0AFF8A5F8B3
:1080C00092004FF64000C0F601000FF0A7F8A5F8A7
:1080D00094004FF64200C0F601000FF09FF8A5F89B
:1080E00096004FF64400C0F601000FF097F8A5F88F
:1080F00098004FF64600C0F601000FF08FF8A5F883
:108100009A004FF64800C0F601000FF087F8A5F876
:108110009C004FF64A00C0F601000FF07FF8A5F86A
:108120009E004FF64C00C0F601000FF077F8A5F85E
:10813000A0004FF64E00C0F601000FF06FF8A5F852
:10814000A2004FF65000C0F601000FF067F8A5F846
:10815000A4004FF65200C0F601000FF05FF8A5F83A
:10816000A6004FF65400C0F601000FF057F8A5F82E
:10817000A8004FF65600C0F601000FF04FF8A5F822
:10818000AA004FF65800C0F601000FF047F8A5F816
:10819000AC004FF65A00C0F601000FF03FF8A5F80A
:1081A000AE004FF65C00C0F601000FF037F8A5F8FE
:1081B000B0004FF65E00C0F601000FF02FF8A5F8F2
:1081C000B2004FF66000C0F601000FF027F8A5F8E6
:1081D000B4004FF66200C0F601000FF01FF8A5F8DA
:1081E000B6004FF66400C0F601000FF017F8A5F8CE
:1081F000B8004FF66600C0F601000FF00FF8A5F8C2
:10820000BA004FF66800C0F601000FF007F8A5F8B5
:10821000BC004FF66A00C0F601000EF0FFFFA5F8A3
:10822000BE004FF66C00C0F601000EF0F7FFA5F897
:10823000C0004FF66E00C0F601000EF0EFFFA5F88B
:10824000C2004FF67000C0F601000EF0E7FFA5F87F
:10825000C4004FF67200C0F601000EF0DFFFA5F873
:10826000C6004FF67400C0F601000EF0D7FFA5F867
:10827000C8004FF67804C0F6010420460EF0CEFF89
:10828000A5F8CA0020460EF0C9FFA5F8CC004FF6AD
:108290007A00C0F601000EF0C1FFA5F8CE004FF63F
:1082A0007C00C0F601000EF0B9FFA5F8D0004FF633
:1082B0007E00C0F601000EF0B1FFA5F8D2004FF627
:1082C0008000C0F601000EF0A9FFA5F8D4004FF61B
:1082D0008200C0F601000EF0A1FFA5F8D6004FF60F
:1082E0008400C0F601000EF099FFA5F8D8004FF603
:1082F0008600C0F601000EF091FFA5F8DA004FF6F7
:108300008800C0F601000EF089FFA5F8DC004FF6EA
:108310008A00C0F601000EF081FFA5F8DE004FF6DE
:108320008C00C0F601000EF079FFA5F8E0004FF6D2
:108330008E00C0F601000EF071FFA5F8E2004FF6C6
:108340009000C0F601000EF069FFA5F8E4004FF6BA
:108350009200C0F601000EF061FFA5F8E6004FF6AE
:108360009604C0F6010420460EF058FFA5F8E80078
:1083700020460EF053FFA5F8EA004FF69800C0F62D
:1083800001000EF04BFFA5F8EC004FF69A00C0F686
:1083900001000EF043FFA5F8EE004FF69C00C0F67A
:1083A00001000EF03BFFA5F8F0004FF69E00C0F66E
:1083B00001000EF033FFA5F8F2004FF6A000C0F662
:1083C00001000EF02BFFA5F8F4004FF6A200C0F656
:1083D00001000EF023FFA5F8F6004FF6A400C0F64A
:1083E00001000EF01BFFA5F8F8004FF6A600C0F63E
:1083F00001000EF013FFA5F8FA004FF6A800C0F632
:1084000001000EF00BFFA5F8FC004FF6AA00C0F625
:1084100001000EF003FFA5F8FE004FF6AC00C0F619
:1084200001000EF0FBFEA5F800014FF6AE00C0F60D
:1084300001000EF0F3FEA5F802014FF6B000C0F601
:1084400001000EF0EBFEA5F804014FF6B404C0F6EF
:10845000010420460EF0E2FEA5F8060120460EF0CB
:10846000DDFEA5F808014FF6B600C0F601000EF0DB
:10847000D5FEA5F80A014FF6B800C0F601000EF0CF
:10848000CDFEA5F80C014FF6BA00C0F601000EF0C3
:10849000C5FEA5F80E014FF6BC00C0F601000EF0B7
:1084A000BDFEA5F810014FF6BE00C0F601000EF0AB
:1084B000B5FEA5F812014FF6C000C0F601000EF09F
:1084C000ADFEA5F814014FF6C200C0F601000EF093
:1084D000A5FEA5F816014FF6C400C0F601000EF087
:1084E0009DFEA5F818014FF6C600C0F601000EF07B
:1084F00095FEA5F81A014FF6C800C0F601000EF06F
:108500008DFEA5F81C014FF6CA00C0F601000EF062
:1085100085FEA5F81E014FF6CC00C0F601000EF056
:108520007DFEA5F820014FF6CE00C0F601000EF04A
:1085300075FEA5F822014FF6D400C0F601000EF03A
:108540006DFE0024C5F82C41C5F828014FF6D60071
:10855000C0F601000EF062FEC5F83441C5F83001E6
:10856000EDE040F6F020C2F20000DC2101823C2365
:10857000837564210176002101853222428483843F
:1085800080F830104FF0140CA0F86EC080F8311055
:10859000012580F8325080F8335080F8345080F84C
:1085A000355080F8365080F8381080F8391080F84F
:1085B0003A104FF49675A0F876502825A0F8785018
:1085C0001E24A0F87A404FF4A074A0F87C40A0F8D4
:1085D0007E20A0F880504FF4AF75A0F88250A0F82C
:1085E0008430A0F886204FF4BE75A0F8885050253E
:1085F000A0F88A50A0F88C304FF06E0EA0F88EE0F4
:10860000A0F890C0A0F89230C824A0F89440A0F838
:1086100096200A25A0F89850A0F89A40A0F89C202F
:10862000A0F89E50A0F8A040A0F8A220A0F8A45066
:10863000A0F8A640A0F8A820A0F8AA50A0F8ACE0A6
:10864000A0F8AEC0A0F8B030A0F8B240A0F8B420B6
:10865000A0F8B650A0F8B840A0F8BA20A0F8BC50D6
:10866000A0F8BE40A0F8C020A0F8C250A0F8C440B6
:10867000A0F8C620A0F8C850A0F8CAE0A0F8CCC066
:10868000A0F8CE30A0F8D040A0F8D220A0F8D45066
:10869000A0F8D640A0F8D820A0F8DA50A0F8DC4026
:1086A000A0F8DE20A0F8E050A0F8E240A0F8E42016
:1086B000A0F8E650A0F8E8E0A0F8EAC0A0F8EC3096
:1086C000A0F8EE40A0F8F020A0F8F250A0F8F44096
:1086D000A0F8F620A0F8F850A0F8FA40A0F8FC2086
:1086E000A0F8FE50A0F80041A0F80221A0F8045123
:1086F000A0F806E1A0F808C1A0F80A31A0F80C41E2
:10870000A0F80E21A0F81051A0F81241A0F81421F1
:10871000A0F81651A0F81841A0F81A21A0F81C5191
:10872000A0F81E41A0F82021A0F82251C0F82C1179
:10873000C0F82811C0F83411C0F83011FFE7FFE786
:10874000FFE740F6F020C2F20000008AB0F5FA7FA1
:1087500008DCFFE740F6F020C2F20000008A632840
:1087600008DCFFE740F6F020C2F200004FF49671FB
:108770000182FFE740F6F020C2F20000807DC828A9
:1087800008DCFFE740F6F020C2F20000807D0428FC
:1087900007DCFFE740F6F020C2F2000050218175AF
:1087A000FFE740F6F020C2F20000408C642807DBAF
:1087B000FFE740F6F020C2F2000032214184FFE7DB
:1087C000FFE740F6F020C2F20000808C40F2E73173
:1087D000884207DBFFE740F6F020C2F200003C21B0
:1087E0008184FFE740F6F020C2F20000808C002870
:1087F00007DCFFE740F6F020C2F200003C21818454
:10880000FFE740F6F020C2F2000090F8300088B197
:10881000FFE740F6F020C2F2000090F83000012897
:1088200008D0FFE740F6F020C2F20000002180F8F7
:108830003010FFE740F6F020C2F2000090F831005F
:1088400088B1FFE740F6F020C2F2000090F8310056
:10885000012808D0FFE740F6F020C2F20000002116
:1088600080F83110FFE740F6F020C2F2000090F8E7
:108870003200012810D0FFE740F6F020C2F20000DD
:1088800090F8320040B1FFE740F6F020C2F200005D
:10889000012180F83210FFE740F6F020C2F200001C
:1088A00090F8330088B1FFE740F6F020C2F20000F4
:1088B00090F83300012808D0FFE740F6F020C2F21C
:1088C0000000012180F83310FFE740F6F020C2F2EB
:1088D000000090F83400012819D0FFE740F6F0209E
:1088E000C2F2000090F8340088B1FFE740F6F020B3
:1088F000C2F2000090F83400022808D0FFE740F6EA
:10890000F020C2F20000012180F83410FFE740F6A9
:10891000F020C2F2000090F83500012819D0FFE7DE
:1089200040F6F020C2F2000090F8350088B1FFE771
:1089300040F6F020C2F2000090F83500022808D07E
:10894000FFE740F6F020C2F20000012180F8351068
:10895000FFE740F6F020C2F2000090F83600012850
:1089600019D0FFE740F6F020C2F2000090F8360080
:1089700088B1FFE740F6F020C2F2000090F8360020
:10898000022808D0FFE740F6F020C2F200000121E3
:1089900080F83610FFE740F6F020C2F2000090F8B1
:1089A000380088B1FFE740F6F020C2F2000090F8EE
:1089B0003800012808D0FFE740F6F020C2F200009E
:1089C000002180F83810FFE740F6F020C2F20000E6
:1089D00090F8390080B1FFE740F6F020C2F20000C5
:1089E00090F8390040B1FFE740F6F020C2F20000F5
:1089F000012180F83910FFE740F6F020C2F20000B4
:108A000090F83A0080B1FFE740F6F020C2F2000093
:108A100090F83A0040B1FFE740F6F020C2F20000C3
:108A2000002180F83A10FFE740F6F020C2F2000083
:108A3000B0F9280032280ADCFFE740F6F020C2F245
:108A40000000B0F9280010F1330F07DCFFE740F613
:108A5000F020C2F2000000210185FFE740F6F0207F
:108A6000C2F20000B0F86E00B0F57A7F09DAFFE7D5
:108A700040F6F020C2F20000B0F86E00642808DC76
:108A8000FFE740F6F020C2F200001421A0F86E10BB
:108A9000FFE740F6F020C2F20000B0F87600B0F533
:108AA000FA7F09DCFFE740F6F020C2F20000B0F8E0
:108AB0007600632809DCFFE740F6F020C2F20000F0
:108AC0004FF49671A0F87610FFE740F6F020C2F25E
:108AD0000000B0F87800C82809DCFFE740F6F02075
:108AE000C2F20000B0F87800042808DCFFE740F686
:108AF000F020C2F200005021A0F87810FFE740F605
:108B0000F020C2F20000B0F87A00B0F57A7F09DAFE
:108B1000FFE740F6F020C2F20000B0F87A0000282B
:108B200008DCFFE740F6F020C2F200001E21A0F8AA
:108B30007A10FFE740F6F020C2F20000B0F87C00A7
:108B4000B0F5FA7F09DCFFE740F6F020C2F2000042
:108B5000B0F87C00632809DCFFE740F6F020C2F2A1
:108B600000004FF49671A0F87C10FFE740F6F0206B
:108B7000C2F20000B0F87E00C82809DCFFE740F62A
:108B8000F020C2F20000B0F87E00042808DCFFE705
:108B900040F6F020C2F200005021A0F87E10FFE75E
:108BA00040F6F020C2F20000B0F88000B0F57A7F05
:108BB00009DAFFE740F6F020C2F20000B0F88000CA
:108BC000002808DCFFE740F6F020C2F200001E217A
:108BD000A0F88010FFE740F6F020C2F20000B0F8E5
:108BE0008200B0F5FA7F09DCFFE740F6F020C2F220
:108BF0000000B0F88200632809DCFFE740F6F020AF
:108C0000C2F200004FF49671A0F88210FFE740F620
:108C1000F020C2F20000B0F88400C82809DCFFE7A9
:108C200040F6F020C2F20000B0F88400042808DC0E
:108C3000FFE740F6F020C2F200005021A0F88410B7
:108C4000FFE740F6F020C2F20000B0F88600B0F571
:108C50007A7F09DAFFE740F6F020C2F20000B0F8B0
:108C60008600002808DCFFE740F6F020C2F2000092
:108C70001E21A0F88610FFE740F6F020C2F20000A7
:108C8000B0F88800B0F5FA7F09DCFFE740F6F02085
:108C9000C2F20000B0F88800632809DCFFE740F664
:108CA000F020C2F200004FF49671A0F88810FFE7A0
:108CB00040F6F020C2F20000B0F88A00C82809DCB3
:108CC000FFE740F6F020C2F20000B0F88A00042866
:108CD00008DCFFE740F6F020C2F200005021A0F8C7
:108CE0008A10FFE740F6F020C2F20000B0F88C00D6
:108CF000B0F57A7F09DAFFE740F6F020C2F2000013
:108D0000B0F88C00002808DCFFE740F6F020C2F243
:108D100000001E21A0F88C10FFE740F6F020C2F200
:108D20000000B0F88E00B0F5FA7F09DCFFE740F6EE
:108D3000F020C2F20000B0F88E00632808DCFFE7E4
:108D400040F6F020C2F200006421A0F88E10FFE788
:108D500040F6F020C2F20000B0F89000C82809DC0C
:108D6000FFE740F6F020C2F20000B0F890000428BF
:108D700008DCFFE740F6F020C2F200001421A0F862
:108D80009010FFE740F6F020C2F20000B0F8920029
:108D9000B0F57A7F09DAFFE740F6F020C2F2000072
:108DA000B0F89200002808DCFFE740F6F020C2F29D
:108DB00000003C21A0F89210FFE740F6F020C2F23C
:108DC0000000B0F89400B0F5FA7F09DCFFE740F648
:108DD000F020C2F20000B0F89400632808DCFFE73E
:108DE00040F6F020C2F200006421A0F89410FFE7E2
:108DF00040F6F020C2F20000B0F89600C82809DC66
:108E0000FFE740F6F020C2F20000B0F89600042818
:108E100008DCFFE740F6F020C2F200001421A0F8C1
:108E20009610FFE740F6F020C2F20000B0F898007C
:108E3000B0F57A7F09DAFFE740F6F020C2F20000D1
:108E4000B0F89800002808DCFFE740F6F020C2F2F6
:108E500000003C21A0F89810FFE740F6F020C2F295
:108E60000000B0F89A00B0F5FA7F09DCFFE740F6A1
:108E7000F020C2F20000B0F89A00632808DCFFE797
:108E800040F6F020C2F200006421A0F89A10FFE73B
:108E900040F6F020C2F20000B0F89C00C82809DCBF
:108EA000FFE740F6F020C2F20000B0F89C00042872
:108EB00008DCFFE740F6F020C2F200001421A0F821
:108EC0009C10FFE740F6F020C2F20000B0F89E00D0
:108ED000B0F57A7F09DAFFE740F6F020C2F2000031
:108EE000B0F89E00002808DCFFE740F6F020C2F250
:108EF00000003C21A0F89E10FFE740F6F020C2F2EF
:108F00000000B0F8A000B0F5FA7F09DCFFE740F6FA
:108F1000F020C2F20000B0F8A000632808DCFFE7F0
:108F200040F6F020C2F200006421A0F8A010FFE794
:108F300040F6F020C2F20000B0F8A200C82809DC18
:108F4000FFE740F6F020C2F20000B0F8A2000428CB
:108F500008DCFFE740F6F020C2F200001421A0F880
:108F6000A210FFE740F6F020C2F20000B0F8A40023
:108F7000B0F57A7F09DAFFE740F6F020C2F2000090
:108F8000B0F8A400002808DCFFE740F6F020C2F2A9
:108F900000003C21A0F8A410FFE740F6F020C2F248
:108FA0000000B0F8A600B0F5FA7F09DCFFE740F654
:108FB000F020C2F20000B0F8A600632808DCFFE74A
:108FC00040F6F020C2F200006421A0F8A610FFE7EE
:108FD00040F6F020C2F20000B0F8A800C82809DC72
:108FE000FFE740F6F020C2F20000B0F8A800042825
:108FF00008DCFFE740F6F020C2F200001421A0F8E0
:10900000A810FFE740F6F020C2F20000B0F8AA0076
:10901000B0F57A7F09DAFFE740F6F020C2F20000EF
:10902000B0F8AA00002808DCFFE740F6F020C2F202
:1090300000003C21A0F8AA10FFE740F6F020C2F2A1
:109040000000B0F8AC00B0F5FA7F09DCFFE740F6AD
:10905000F020C2F20000B0F8AC00632808DCFFE7A3
:1090600040F6F020C2F200006421A0F8AC10FFE747
:1090700040F6F020C2F20000B0F8AE00C82809DCCB
:10908000FFE740F6F020C2F20000B0F8AE0004287E
:1090900008DCFFE740F6F020C2F200001421A0F83F
:1090A000AE10FFE740F6F020C2F20000B0F8B000CA
:1090B000B0F57A7F09DAFFE740F6F020C2F200004F
:1090C000B0F8B000002808DCFFE740F6F020C2F25C
:1090D00000003C21A0F8B010FFE740F6F020C2F2FB
:1090E0000000B0F8B200B0F5FA7F09DCFFE740F607
:1090F000F020C2F20000B0F8B200632808DCFFE7FD
:1091000040F6F020C2F200006421A0F8B210FFE7A0
:1091100040F6F020C2F20000B0F8B400C82809DC24
:10912000FFE740F6F020C2F20000B0F8B4000428D7
:1091300008DCFFE740F6F020C2F200001421A0F89E
:10914000B410FFE740F6F020C2F20000B0F8B6001D
:10915000B0F57A7F09DAFFE740F6F020C2F20000AE
:10916000B0F8B600002808DCFFE740F6F020C2F2B5
:1091700000003C21A0F8B610FFE740F6F020C2F254
:109180000000B0F8B800B0F5FA7F09DCFFE740F660
:10919000F020C2F20000B0F8B800632808DCFFE756
:1091A00040F6F020C2F200006421A0F8B810FFE7FA
:1091B00040F6F020C2F20000B0F8BA00C82809DC7E
:1091C000FFE740F6F020C2F20000B0F8BA00042831
:1091D00008DCFFE740F6F020C2F200001421A0F8FE
:1091E000BA10FFE740F6F020C2F20000B0F8BC0071
:1091F000B0F57A7F09DAFFE740F6F020C2F200000E
:10920000B0F8BC00002808DCFFE740F6F020C2F20E
:1092100000003C21A0F8BC10FFE740F6F020C2F2AD
:109220000000B0F8BE00B0F5FA7F09DCFFE740F6B9
:10923000F020C2F20000B0F8BE00632808DCFFE7AF
:1092400040F6F020C2F200006421A0F8BE10FFE753
:1092500040F6F020C2F20000B0F8C000C82809DCD7
:10926000FFE740F6F020C2F20000B0F8C00004288A
:1092700008DCFFE740F6F020C2F200001421A0F85D
:10928000C010FFE740F6F020C2F20000B0F8C200C4
:10929000B0F57A7F09DAFFE740F6F020C2F200006D
:1092A000B0F8C200002808DCFFE740F6F020C2F268
:1092B00000003C21A0F8C210FFE740F6F020C2F207
:1092C0000000B0F8C400B0F5FA7F09DCFFE740F613
:1092D000F020C2F20000B0F8C400632808DCFFE709
:1092E00040F6F020C2F200006421A0F8C410FFE7AD
:1092F00040F6F020C2F20000B0F8C600C82809DC31
:10930000FFE740F6F020C2F20000B0F8C6000428E3
:1093100008DCFFE740F6F020C2F200001421A0F8BC
:10932000C610FFE740F6F020C2F20000B0F8C80017
:10933000B0F57A7F09DAFFE740F6F020C2F20000CC
:10934000B0F8C800002808DCFFE740F6F020C2F2C1
:1093500000003C21A0F8C810FFE740F6F020C2F260
:109360000000B0F8CA00B0F5FA7F09DCFFE740F66C
:10937000F020C2F20000B0F8CA00632808DCFFE762
:1093800040F6F020C2F200006421A0F8CA10FFE706
:1093900040F6F020C2F20000B0F8CC00C82809DC8A
:1093A000FFE740F6F020C2F20000B0F8CC0004283D
:1093B00008DCFFE740F6F020C2F200001421A0F81C
:1093C000CC10FFE740F6F020C2F20000B0F8CE006B
:1093D000B0F57A7F09DAFFE740F6F020C2F200002C
:1093E000B0F8CE00002808DCFFE740F6F020C2F21B
:1093F00000003C21A0F8CE10FFE740F6F020C2F2BA
:109400000000B0F8D000B0F5FA7F09DCFFE740F6C5
:10941000F020C2F20000B0F8D000632808DCFFE7BB
:1094200040F6F020C2F200006421A0F8D010FFE75F
:1094300040F6F020C2F20000B0F8D200C82809DCE3
:10944000FFE740F6F020C2F20000B0F8D200042896
:1094500008DCFFE740F6F020C2F200001421A0F87B
:10946000D210FFE740F6F020C2F20000B0F8D400BE
:10947000B0F57A7F09DAFFE740F6F020C2F200008B
:10948000B0F8D400002808DCFFE740F6F020C2F274
:1094900000003C21A0F8D410FFE740F6F020C2F213
:1094A0000000B0F8D600B0F5FA7F09DCFFE740F61F
:1094B000F020C2F20000B0F8D600632808DCFFE715
:1094C00040F6F020C2F200006421A0F8D610FFE7B9
:1094D00040F6F020C2F20000B0F8D800C82809DC3D
:1094E000FFE740F6F020C2F20000B0F8D8000428F0
:1094F00008DCFFE740F6F020C2F200001421A0F8DB
:10950000D810FFE740F6F020C2F20000B0F8DA0011
:10951000B0F57A7F09DAFFE740F6F020C2F20000EA
:10952000B0F8D400002808DCFFE740F6F020C2F2D3
:1095300000003C21A0F8DA10FFE740F6F020C2F26C
:109540000000B0F8DC00B0F5FA7F09DCFFE740F678
:10955000F020C2F20000B0F8DC00632808DCFFE76E
:1095600040F6F020C2F200006421A0F8DC10FFE712
:1095700040F6F020C2F20000B0F8DE00C82809DC96
:10958000FFE740F6F020C2F20000B0F8DE00042849
:1095900008DCFFE740F6F020C2F200001421A0F83A
:1095A000DE10FFE740F6F020C2F20000B0F8E00065
:1095B000B0F57A7F09DAFFE740F6F020C2F200004A
:1095C000B0F8E000002808DCFFE740F6F020C2F227
:1095D00000003C21A0F8E010FFE740F6F020C2F2C6
:1095E0000000B0F8E200B0F5FA7F09DCFFE740F6D2
:1095F000F020C2F20000B0F8E200632808DCFFE7C8
:1096000040F6F020C2F200006421A0F8E210FFE76B
:1096100040F6F020C2F20000B0F8E400C82809DCEF
:10962000FFE740F6F020C2F20000B0F8E4000428A2
:1096300008DCFFE740F6F020C2F200001421A0F899
:10964000E410FFE740F6F020C2F20000B0F8E600B8
:10965000B0F57A7F09DAFFE740F6F020C2F20000A9
:10966000B0F8E600002808DCFFE740F6F020C2F280
:1096700000003C21A0F8E610FFE740F6F020C2F21F
:109680000000B0F8E800B0F5FA7F09DCFFE740F62B
:10969000F020C2F20000B0F8E800632808DCFFE721
:1096A00040F6F020C2F200006421A0F8E810FFE7C5
:1096B00040F6F020C2F20000B0F8EA00C82809DC49
:1096C000FFE740F6F020C2F20000B0F8EA000428FC
:1096D00008DCFFE740F6F020C2F200001421A0F8F9
:1096E000EA10FFE740F6F020C2F20000B0F8EC000C
:1096F000B0F57A7F09DAFFE740F6F020C2F2000009
:10970000B0F8EC00002808DCFFE740F6F020C2F2D9
:1097100000003C21A0F8EC10FFE740F6F020C2F278
:109720000000B0F8EE00B0F5FA7F09DCFFE740F684
:10973000F020C2F20000B0F8EE00632808DCFFE77A
:1097400040F6F020C2F200006421A0F8EE10FFE71E
:1097500040F6F020C2F20000B0F8F000C82809DCA2
:10976000FFE740F6F020C2F20000B0F8F000042855
:1097700008DCFFE740F6F020C2F200001421A0F858
:10978000F010FFE740F6F020C2F20000B0F8F2005F
:10979000B0F57A7F09DAFFE740F6F020C2F2000068
:1097A000B0F8F200002808DCFFE740F6F020C2F233
:1097B00000003C21A0F8F210FFE740F6F020C2F2D2
:1097C0000000B0F8F400B0F5FA7F09DCFFE740F6DE
:1097D000F020C2F20000B0F8F400632808DCFFE7D4
:1097E00040F6F020C2F200006421A0F8F410FFE778
:1097F00040F6F020C2F20000B0F8F600C82809DCFC
:10980000FFE740F6F020C2F20000B0F8F6000428AE
:1098100008DCFFE740F6F020C2F200001421A0F8B7
:10982000F610FFE740F6F020C2F20000B0F8F800B2
:10983000B0F57A7F09DAFFE740F6F020C2F20000C7
:10984000B0F8F800002808DCFFE740F6F020C2F28C
:1098500000003C21A0F8F810FFE740F6F020C2F22B
:109860000000B0F8FA00B0F5FA7F09DCFFE740F637
:10987000F020C2F20000B0F8FA00632808DCFFE72D
:1098800040F6F020C2F200006421A0F8FA10FFE7D1
:1098900040F6F020C2F20000B0F8FC00C82809DC55
:1098A000FFE740F6F020C2F20000B0F8FC00042808
:1098B00008DCFFE740F6F020C2F200001421A0F817
:1098C000FC10FFE740F6F020C2F20000B0F8FE0006
:1098D000B0F57A7F09DAFFE740F6F020C2F2000027
:1098E000B0F8FE00002808DCFFE740F6F020C2F2E6
:1098F00000003C21A0F8FE10FFE740F6F020C2F285
:109900000000B0F80001B0F5FA7F09DCFFE740F68F
:10991000F020C2F20000B0F80001632808DCFFE785
:1099200040F6F020C2F200006421A0F80011FFE729
:1099300040F6F020C2F20000B0F80201C82809DCAD
:10994000FFE740F6F020C2F20000B0F80201042860
:1099500008DCFFE740F6F020C2F200001421A0F876
:109960000211FFE740F6F020C2F20000B0F8040157
:10997000B0F57A7F09DAFFE740F6F020C2F2000086
:10998000B0F80401002808DCFFE740F6F020C2F23E
:1099900000003C21A0F80411FFE740F6F020C2F2DD
:1099A0000000B0F80601B0F5FA7F09DCFFE740F6E9
:1099B000F020C2F20000B0F80601632808DCFFE7DF
:1099C00040F6F020C2F200006421A0F80611FFE783
:1099D00040F6F020C2F20000B0F80801C82809DC07
:1099E000FFE740F6F020C2F20000B0F808010428BA
:1099F00008DCFFE740F6F020C2F200001421A0F8D6
:109A00000811FFE740F6F020C2F20000B0F80A01AA
:109A1000B0F57A7F09DAFFE740F6F020C2F20000E5
:109A2000B0F80A01002808DCFFE740F6F020C2F297
:109A300000003C21A0F80A11FFE740F6F020C2F236
:109A40000000B0F80C01B0F5FA7F09DCFFE740F642
:109A5000F020C2F20000B0F80C01632808DCFFE738
:109A600040F6F020C2F200006421A0F80C11FFE7DC
:109A700040F6F020C2F20000B0F80E01C82809DC60
:109A8000FFE740F6F020C2F20000B0F80E01042813
:109A900008DCFFE740F6F020C2F200001421A0F835
:109AA0000E11FFE740F6F020C2F20000B0F81001FE
:109AB000B0F57A7F09DAFFE740F6F020C2F2000045
:109AC000B0F81001002808DCFFE740F6F020C2F2F1
:109AD00000003C21A0F81011FFE740F6F020C2F290
