:020000040800F2
:104000006819002085410008C5C5000871BA00087C
:10401000C1C50008394C0008812B010800000000D0
:1040200000000000000000000000000075280108EA
:104030003D4C000800000000450C010879280108EB
:104040009F4100089F4100089F4100089F410008D0
:104050009F4100089F4100089F4100089F410008C0
:104060009F4100089F4100089F4100089F410008B0
:104070009F4100089F4100089F4100089F410008A0
:104080009F4100089F4100089F4100089F41000890
:104090009F4100089F4100089F4100089F41000880
:1040A0009F4100089F4100089F4100089F41000870
:1040B0009F410008A92901089F4100089F4100086D
:1040C0009F4100089F4100089F4100089F41000850
:1040D0009F410008C92901089F410008492A010899
:1040E000F55A00089F4100089F41000800000000A9
:1040F00000000000000000000000000000000000C0
:10410000000000009F4100089F41000800000000DF
:104110009F4100089F4100080000000000000000CF
:104120009F4100089F4100089F4100089F410008EF
:10413000000000000000000000000000000000007F
:104140000000000000000000000000009F41000887
:1041500000000000000000009F4100089F4100088F
:104160000000000000000000000000009F41000867
:10417000DFF80CD000F018FA004800475969010830
:10418000681900200648804706480047FEE7FEE71A
:10419000FEE7FEE7FEE7FEE7FEE7FEE7FEE7FEE7F7
:1041A000D92801087141000830B50B4601460020AE
:1041B0002022012409E021FA02F59D4205D303FAE9
:1041C00002F5491B04FA02F52844151EA2F101026A
:1041D000F1DC30BD2DE9F05F0546002092469B469C
:1041E00088460646814640241BE02846414647460D
:1041F000224600F0FAF953465A46C01A914110D3AC
:1042000011461846224600F0E1F92D1A67EB010825
:104210004F4622460120002100F0D8F917EB000993
:104220004E41201EA4F10104DFDC484631462A46F7
:104230004346BDE8F09F2DE9FE4F804681EA03002A
:10424000C00F0C46009021F0004123F00045B8EB70
:104250000200A94105D24046214690461C460B4625
:10426000024623F00040104347D0270DC7F30A0051
:10427000C3F30A510290401A019040286BDAC3F34D
:10428000130040F4801B0098924620B10023D2EB2B
:10429000030A63EB0B0B01985946C0F140025046EC
:1042A00000F094F906460D4650465946019A00F032
:1042B000ACF910EB08006141002487EA115284EA4E
:1042C000E7731A4340D0009A62B3019A012A4FEA79
:1042D000075215DC001B61EB02014FF0004202EABD
:1042E0000752CDE90042001C41F5801132462B46B1
:1042F00000F0ACF903B0BDE8F08F40462146F9E785
:10430000001B61EB0201001C41F5801300185B41AA
:104310002018A2F5001747EB030140EAD570B61943
:104320006D4111E06D084FEA360645EAC0754FEA67
:104330000752001B61EB0201001C41F58011490886
:104340004FEA30000019514132462B4603B0BDE818
:10435000F04F00F06CB90098012240000023D0EB30
:10436000020263EBE073009821464FEAE074B8EB79
:10437000000061EB0401E9E783F000435BE781F0B3
:10438000004158E72DE9FE4F81EA030404F00044A0
:1043900021F0004100944FF0000B23F0004350EA5D
:1043A00001045ED052EA03045BD0C3F30A54C1F3A4
:1043B0000A552C44A4F2F3340194A0FB0254C1F337
:1043C000130141F48011C3F3130343F4801301FB81
:1043D000024400FB034E840A970A44EA815447EAE8
:1043E0008357A4FB076802958D0A05FB07854FEAF2
:1043F000932C04FB0C542705029D4FEA065847EA0C
:104400001637B5EB08056EEB070C870E920E47EAE0
:10441000811742EA8312A7FB0201B6EB0B0164EBA2
:1044200000042B0D43EA0C335E1844EB1C50DA46B3
:104430005146E7FB0201C5F313044FEA0B3343EA8D
:1044400014534FEA0432019C43EA0603A4F10C041E
:104450000294009CCDE900B400F0F8F803B0BDE888
:10446000F08F00200146F9E72DE9F04D81EA0304C1
:1044700004F0004B21F0004514464FF0000A23F0F1
:10448000004150EA050220D054EA01021DD0C5F3D4
:104490000A570246C5F31303C1F31300C1F30A56CA
:1044A00040F4801543F48013A7EB0608101BD64692
:1044B00008F2FD3873EB050002D308F1010801E0B2
:1044C00092185B41B8F1000F03DA00200146BDE805
:1044D000F08D00204FF48011064684460EE0171B35
:1044E00073EB050705D3121B63EB050306434CEA88
:1044F000010C49084FEA300092185B4150EA01076D
:10450000EDD152EA030012D082EA040083EA0501E9
:10451000084305D0101BAB4106D20122002306E060
:1045200000224FF0004302E06FF0010253101AEB3B
:1045300006004CEB085110EB0A0041EB0B01BDE803
:10454000F04D00F074B8C1F30A52C1F3130140F208
:10455000FF3341F480119A4202DA0020014670478D
:1045600040F233439A42A2F2334202DC524200F05C
:104570003CB800F02BB8000030B5041E71F1000407
:1045800004DB4FF00044404264EB0101141E73F160
:10459000000405DB1C464FF00043524263EB04036A
:1045A000994208BF904230BD064C074D06E0E068D6
:1045B00040F0010394E8070098471034AC42F6D36A
:1045C000FFF7DAFD5C9901087C990108202A04DBD9
:1045D000203A00FA02F1002070479140C2F1200316
:1045E00020FA03F3194390407047202A04DB203A55
:1045F00021FA02F00021704721FA02F3D040C2F103
:1046000020029140084319467047202A06DBCB1749
:10461000203A41FA02F043EAE07306E041FA02F37D
:10462000D040C2F12002914008431946704710B5AE
:10463000141E73F1000408DA401C41F100019218C5
:104640005B411A4301D120F0010010BD2DE9F04D6E
:1046500092469B4611B1B1FA81F202E0B0FA80F2C3
:1046600020329046FFF7B2FF04460F4640EA0A00A8
:1046700041EA0B0153465A46084313D0114653EA08
:10468000010019D0C8F140025046FFF7AEFF0546C1
:104690000E46504659464246FFF798FF084305D05C
:1046A000012004E020463946BDE8F08D0020054396
:1046B00046EAE0762C4337430A986305E40AA0EB08
:1046C00008000022FD0A44EA47540A3002D50020BF
:1046D0000146E9E7010510196941DDE908450019BE
:1046E0006941BDE8F04DA2E740EA01039B0703D012
:1046F00009E008C9121F08C0042AFAD203E011F821
:10470000013B00F8013B521EF9D27047D2B201E0E2
:1047100000F8012B491EFBD270470022F6E710B5C6
:1047200013460A4604461946FFF7F0FF204610BD1F
:10473000F0B480EA0102D40F4200B2EB410F02D282
:104740000246084611464A0042D0C30DDDB2C1F30D
:10475000C752AD1A202D35DAC1F3160141F400021B
:1047600004B15242C5F1200602FA06F12A41104472
:10477000B3EBD05F23D0C4B1012DA0EBC35009DC53
:10478000F0BC4FF0004202EAC352DBB200F5000079
:1047900000F068B9400000F1807000EBC350A0F158
:1047A000807040EAD170490009E0490841EAC071CF
:1047B000A0EBC35000F50000400800EBC350F0BC74
:1047C00000F047B96142012202EB4101001BF6E70C
:1047D000F0BC704781F00041AAE780F00040A7E7F5
:1047E00080EA010210B502F00043400022D04A00E6
:1047F0001FD0010E01EB1261C0F35600C2F3560246
:1048000040F4000042F40002A0FB022000047F39C3
:10481000140400D0401C50EA124001D44000491E4C
:10482000C2B20C0604EBD010401C4008802A02D013
:1048300003E0002010BD20F00100002900DA002074
:10484000184310BD30B480EA010202F0004530F098
:10485000004221F0004013D090B1C30DD40DC2F33B
:104860001601C0F31600E41A41F4000140F40002FE
:104870007D34914201D3641C00E04900002C02DA2F
:1048800030BC002070474FF400000023914201D358
:10489000891A034340084FEA4101F7D151B19142CF
:1048A00002D14FF0004105E002D24FF0010101E0DA
:1048B0006FF0010103EBC450284430BC00F0C9B8CC
:1048C000002801DBC0F10040002901DBC1F10041FB
:1048D000814201D80120704700207047002801DB89
:1048E000C0F10040002901DBC1F10041814201D249
:1048F0000120704700207047002801DBC0F1004014
:10490000002901DBC1F10041814201D30120704740
:1049100000207047002801DBC0F10040002901DBC6
:10492000C1F10041814201D9012070470020704748
:10493000C10F80EAE0700844CA079623002100F006
:1049400091B896230022114600F08CB80EB5C10F25
:1049500080EAE0700844CA07002140F233438DE842
:104960000E000A460B46FFF771FE03B000BD0EB500
:1049700040F2334102910021CDE900110A460B4675
:10498000FFF764FE03B000BD00F0004220F00040DD
:10499000C10DC0F3160040F400007F2901DA0020A9
:1049A0007047962903DCC1F19601C84001E09639B1
:1049B0008840002AF4D04042704720F00040C10DEA
:1049C000C0F3160040F400007F2901DA0020704790
:1049D000962903DCC1F19601C8407047963988409A
:1049E000704770B5C1F30A5201F000450024C1F3CD
:1049F000130140F2FF3341F480119A4201DA0020A2
:104A000070BD40F233439A42A2F2334203DC524279
:104A1000FFF7EBFD00E090402C43F1D0404270BD29
:104A2000C1F30A5210B5C1F3130140F2FF3341F450
:104A300080119A4201DA002010BD40F233439A42BD
:104A4000A2F2334203DC5242FFF7CFFD10BD90408B
:104A500010BD0029A8BF7047401C490008BF20F0C6
:104A60000100704710B4B0FA80FC00FA0CF050EA74
:104A7000010404BF10BC704749B1CCF1200421FAF5
:104A800004F411FA0CF118BF012121430843A3EBF0
:104A90000C01CB1D4FEA00614FEA102042BF0020FD
:104AA00010BC704700EBC35010440029A4BF10BCD9
:104AB0007047401C490008BF20F0010010BC70473F
:104AC00010B540F6E834C2F20004204612F01AF89D
:104AD00004F1100012F016F844F60000C4F20000D1
:104AE000206210BD80B582B040F25000C2F20000DA
:104AF000019001980078002840F09180FFE740F293
:104B00009810C2F200000078042800F28780DFE8E5
:104B100000F00324315776000198007A012807D16C
:104B2000FFE740F29810C2F200000121017013E08B
:104B30000198007A022807D1FFE740F29810C2F2EC
:104B400000000221017006E040F29810C2F200005D
:104B500000210170FFE7FFE760E040F25000C2F281
:104B60000000C068804740F29810C2F200000321A4
:104B7000017053E040F25000C2F20000C06880476C
:104B800040F2A010C2F2000001684268013142F117
:104B9000000201604260B1F1140072F100000ED316
:104BA000FFE740F29810C2F200000421017040F2C9
:104BB000A010C2F20000002141600160FFE72DE07B
:104BC00040F2A010C2F2000001684268013142F1D7
:104BD000000201604260881E72F100000ED3FFE700
:104BE00040F2A010C2F2000000214160016040F2DA
:104BF0009810C2F2000004210170FFE70EE040F2BD
:104C00005000C2F200000069804701980021017243
:104C100040F29810C2F200000170FFE709E040F294
:104C20005000C2F200000069804701980021017223
:104C3000FFE702B080BD0000FFE7FEE7704700001D
:104C4000B0B540F6C020C2F2000090F83000002855
:104C500040F02E82FFE740F6C020C2F2000090F83C
:104C60002F00002840F00481FFE740F6C020C2F288
:104C7000000090F82D00002840F0CF80FFE740F6BC
:104C8000C020C2F2000090F84000C007002800F0E9
:104C9000C380FFE740F2CC00C2F20000007838B9D0
:104CA000FFE740F2CC00C2F2000001210170FFE7F3
:104CB00012F03AFB40F6C021C2F20001B1F87220B6
:104CC0001044486040F2CE00C2F200000088098A19
:104CD000884222D0FFE740F2CE00C2F200000088F6
:104CE00040F6C021C2F20001098A401A1E2809DBE1
:104CF000FFE707F0CDFC49F63910C0F6010014F0CB
:104D00007DF9FFE740F6C020C2F20000008A40F2C1
:104D1000CE01C2F200010880FFE740F6C020C2F2D7
:104D200000004168B0F92820891A008A5038814271
:104D30000AD2FFE740F6A420C2F2000045F6007157
:104D4000C4F26A71016043E040F6C020C2F2000084
:104D500090F83A00012819D1FFE740F6C025C2F2C9
:104D60000005288AFFF7EDFD04466868B5F92810AC
:104D7000401A3238FFF7E5FD0146204607F0CCFC2B
:104D800040F6A421C2F20001086020E040F6C020F5
:104D9000C2F2000090F83A00C0B9FFE740F6C02523
:104DA000C2F20005288AFFF7CCFD04466868B5F911
:104DB0002810401AFFF7C5FD0146204607F0ACFC5D
:104DC00040F6A421C2F200010860FFE7FFE7FFE719
:104DD00040F6A420C2F2000000680021FFF79AFD0F
:104DE00038B9FFE740F6A420C2F2000000210160BC
:104DF000FFE740F6A420C2F200000068FFF7DDFDE7
:104E000002464FF08040002112F0ACFA4FF0804093
:104E1000012112F0F1FAFFE729E040F6C020C2F2CA
:104E2000000090F82D00012820D1FFE70A2010F0A3
:104E30000FFD40F6C021C2F20001B1F8722002EB72
:104E40009000486040F2CC00C2F2000000210170E6
:104E500040F6A420C2F2000001604FF08040002123
:104E6000002212F07FFA07F013FCFFE7FFE71EE1D4
:104E700040F6C020C2F2000090F82F00032820D195
:104E8000FFE70A2010F0E4FC40F6C021C2F2000166
:104E9000B1F8722002EB9000486040F2CC00C2F200
:104EA00000000021017040F6A420C2F20000016061
:104EB0004FF080400021002212F054FA07F0E8FB86
:104EC000F4E040F6C020C2F2000090F82F00022863
:104ED00040F0EB80FFE740F6C020C2F2000090F8FF
:104EE0002D00002840F0B680FFE740F6C020C2F257
:104EF000000090F84000C007002800F0AA80FFE7FB
:104F000040F2CC00C2F20000007838B9FFE740F26E
:104F1000CC00C2F2000001210170FFE712F004FA98
:104F200040F6C021C2F20001B1F87220104448607E
:104F300040F2CE00C2F200000088098A884222D0E6
:104F4000FFE740F2CE00C2F20000008840F6C02128
:104F5000C2F20001098A401A1E2809DBFFE707F0A8
:104F600097FB49F63910C0F6010014F047F8FFE747
:104F700040F6C020C2F20000008A40F2CE01C2F228
:104F800000010880FFE740F6C020C2F2000041683F
:104F9000028A408C10441E30814207D9FFE740F658
:104FA000A420C2F20000002101602EE040F6C020E3
:104FB000C2F200004168008A503881420AD2FFE7FD
:104FC00040F6A420C2F2000045F60071C4F26A71F6
:104FD000016019E040F6C025C2F20005288A698CFC
:104FE0000844FFF7A5FC04466868B5F92810401A84
:104FF000FFF7A7FC0146204607F08EFB40F6A421F0
:10500000C2F200010860FFE7FFE740F6A420C2F209
:10501000000000680021FFF77DFC38B9FFE740F68B
:10502000A420C2F2000000210160FFE740F6A420A6
:10503000C2F200000068FFF7C0FC02464FF080405B
:10504000002112F08FF94FF08040012112F0D4F9C5
:10505000FFE729E040F6C020C2F2000090F82D00E2
:10506000012820D1FFE70A2010F0F2FB40F6C02112
:10507000C2F20001B1F8722002EB9000486040F2E9
:10508000CC00C2F200000021017040F6A420C2F260
:10509000000001604FF080400021002212F062F910
:1050A00007F0F6FAFFE7FFE7FFE7FFE7FFE711E3A7
:1050B00040F6C020C2F2000090F83000012840F015
:1050C0000883FFE740F6C020C2F2000090F83E00DF
:1050D000002840F0FD82FFE740F6C020C2F2000049
:1050E00090F83D00012840F0CE82FFE740F2D0006A
:1050F000C2F20000007840F6C021C2F2000191F82F
:105100003C1088420ED0FFE740F6C020C2F20000FB
:1051100090F83C0040F2D001C2F20001087007F0A4
:10512000B7FAFFE740F6C020C2F2000090F8400056
:10513000C007002800F0A682FFE712F0F5F840F65D
:10514000C021C2F20001B1F872201044486091F809
:105150006A00002840F09580FFE740F6C020C2F2C8
:10516000000090F83C00012816D1FFE740F6C0256A
:10517000C2F20005B5F88C00FFF7E3FB044668684F
:10518000FFF7DFFB0146204607F0C6FA40F6A421F0
:10519000C2F20001086073E040F6C020C2F20000D5
:1051A00090F83C00022816D1FFE740F6C025C2F275
:1051B0000005B5F89200FFF7C4FB04466868FFF7E6
:1051C000C0FB0146204607F0A7FA40F6A421C2F230
:1051D0000001086053E040F6C020C2F2000090F8E1
:1051E0003C00032816D1FFE740F6C025C2F20005B7
:1051F000B5F89800FFF7A5FB04466868FFF7A1FB28
:105200000146204607F088FA40F6A421C2F20001C8
:10521000086033E040F6C020C2F2000090F83C0085
:10522000042816D1FFE740F6C025C2F20005B5F804
:105230009E00FFF786FB04466868FFF782FB014685
:10524000204607F069FA40F6A421C2F20001086086
:1052500013E040F6C020C2F2000090F83C000528A0
:105260000AD1FFE740F6C020C2F20000002180F81A
:105270003D1080F83C10FFE7FFE7FFE7FFE7FFE79F
:10528000DCE140F6C020C2F2000090F86A0001287C
:1052900040F09580FFE740F6C020C2F2000090F891
:1052A0003C00012816D1FFE740F6C025C2F20005F8
:1052B000B5F8AA00FFF745FB04466868FFF741FB15
:1052C0000146204607F028FA40F6A421C2F2000168
:1052D000086073E040F6C020C2F2000090F83C0085
:1052E000022816D1FFE740F6C025C2F20005B5F846
:1052F000B000FFF726FB04466868FFF722FB014673
:10530000204607F009FA40F6A421C2F20001086025
:1053100053E040F6C020C2F2000090F83C000328A1
:1053200016D1FFE740F6C025C2F20005B5F8B60079
:10533000FFF707FB04466868FFF703FB01462046BA
:1053400007F0EAF940F6A421C2F20001086033E058
:1053500040F6C020C2F2000090F83C00042816D1AC
:10536000FFE740F6C025C2F20005B5F8BC00FFF724
:10537000E8FA04466868FFF7E4FA0146204607F0B9
:10538000CBF940F6A421C2F20001086013E040F618
:10539000C020C2F2000090F83C0005280AD1FFE7C7
:1053A00040F6C020C2F20000002180F83D1080F8D5
:1053B0003C10FFE7FFE7FFE7FFE7FFE73DE140F6CF
:1053C000C020C2F2000090F86A00022840F09580E8
:1053D000FFE740F6C020C2F2000090F83C00012830
:1053E00016D1FFE740F6C025C2F20005B5F8C800A7
:1053F000FFF7A7FA04466868FFF7A3FA01462046BC
:1054000007F08AF940F6A421C2F20001086073E0B7
:1054100040F6C020C2F2000090F83C00022816D1ED
:10542000FFE740F6C025C2F20005B5F8CE00FFF751
:1054300088FA04466868FFF784FA0146204607F0B8
:105440006BF940F6A421C2F20001086053E040F677
:10545000C020C2F2000090F83C00032816D1FFE7FC
:1054600040F6C025C2F20005B5F8D400FFF769FA8E
:1054700004466868FFF765FA0146204607F04CF9D4
:1054800040F6A421C2F20001086033E040F6C020DB
:10549000C2F2000090F83C00042816D1FFE740F665
:1054A000C025C2F20005B5F8DA00FFF74AFA044653
:1054B0006868FFF746FA0146204607F02DF940F6E6
:1054C000A421C2F20001086013E040F6C020C2F23D
:1054D000000090F83C0005280AD1FFE740F6C02004
:1054E000C2F20000002180F83D1080F83C10FFE778
:1054F000FFE7FFE7FFE7FFE79EE040F6C020C2F2CC
:10550000000090F86A00032840F09580FFE740F61D
:10551000C020C2F2000090F83C00012816D1FFE73D
:1055200040F6C025C2F20005B5F8E600FFF709FA1B
:1055300004466868FFF705FA0146204607F0ECF8D4
:1055400040F6A421C2F20001086073E040F6C020DA
:10555000C2F2000090F83C00022816D1FFE740F6A6
:10556000C025C2F20005B5F8EC00FFF7EAF90446E1
:105570006868FFF7E6F90146204607F0CDF840F6E7
:10558000A421C2F20001086053E040F6C020C2F23C
:10559000000090F83C00032816D1FFE740F6C02534
:1055A000C2F20005B5F8F200FFF7CBF904466868CF
:1055B000FFF7C7F90146204607F0AEF840F6A421F0
:1055C000C2F20001086033E040F6C020C2F20000E1
:1055D00090F83C00042816D1FFE740F6C025C2F23F
:1055E0000005B5F8F800FFF7ACF904466868FFF766
:1055F000A8F90146204607F08FF840F6A421C2F230
:105600000001086013E040F6C020C2F2000090F8EC
:105610003C0005280AD1FFE740F6C020C2F2000096
:10562000002180F83D1080F83C10FFE7FFE7FFE71E
:10563000FFE7FFE7FFE7FFE7FFE7FFE740F6A4200C
:10564000C2F2000000680021FFF764F938B9FFE7F3
:1056500040F6A420C2F2000000210160FFE740F6FE
:10566000A420C2F200000068FFF7A7F902464FF03D
:105670008040002111F076FE4FF08040012111F0B2
:10568000BBFEFFE723E040F6C020C2F2000090F826
:105690003D00D8B9FFE706F0FBFF0A2010F0D8F86C
:1056A00040F6C021C2F20001B1F8722002EB900076
:1056B000486040F6A420C2F20000002101604FF0D3
:1056C00080400021002211F04DFEFFE7FFE7FFE7D9
:1056D000FFE7FFE7B0BD000080B50DF045FE40F6E6
:1056E000C020C2F2000090F83000002840F0158180
:1056F000FFE740F6C020C2F2000090F82C0018B17D
:10570000FFE7012821D007E140F6C020C2F20000E7
:1057100090F82D0040B9FFE740F6C020C2F200002B
:10572000012180F82C1007E040F6C020C2F20000F2
:10573000002180F82C10FFE740F6C020C2F20000E4
:10574000002180F82010C183E6E040F6C020C2F2BC
:10575000000090F82F0050B1FFE740F6C020C2F2E1
:10576000000090F82F00022840F0CA80FFE740F6C2
:10577000C020C2F2000090F82F00022811D1FFE7EC
:1057800040F6C020C2F2000090F82D00012808D198
:10579000FFE740F6C020C2F20000002180F82F1081
:1057A000FFE740F6C020C2F2000040682E280AD36E
:1057B000FFE740F6C020C2F20000406840F28A21B4
:1057C000884265D3FFE740F6C020C2F2000090F89F
:1057D0002D0000285CD1FFE740F6C020C2F2000097
:1057E000C18B0131C183C08B4B2818DBFFE740F62A
:1057F000C020C2F20000406840F28A2188420DD3E6
:10580000FFE740F6C020C2F20000032180F82E100E
:10581000012180F820100021C1837DE0FFE740F6E0
:10582000C020C2F20000C08B962830DBFFE740F6B4
:10583000C020C2F2000040682D280DD8FFE740F6D6
:10584000C020C2F20000022180F82E10012180F851
:1058500020100021C1835FE040F6C020C2F20000AA
:10586000C068952808D8FFE740F6C020C2F20000C3
:10587000012180F82E10FFE7FFE740F6C020C2F2BA
:105880000000012180F820100021C18344E006E0DF
:1058900040F6C020C2F200000021C183FFE740F6BD
:1058A000C020C2F2000090F82D00012827D1FFE7A8
:1058B00040F6C020C2F20000406846281ED8FFE72C
:1058C00040F6C020C2F20000818B01318183808BC1
:1058D000652812DBFFE740F6C020C2F2000000217D
:1058E00080F82C10818340F25001C2F200010222A4
:1058F0000A72012180F820100EE0FFE7FFE70AE0BE
:1059000040F6C020C2F2000090F82F00032801D119
:10591000FFE7FFE7FFE7FFE7B7E040F6C020C2F28E
:10592000000090F83000012840F0AE80FFE740F61C
:10593000C020C2F2000090F83D00012840F0A38092
:10594000FFE740F6C020C2F2000090F83E000028B9
:1059500040F09880FFE740F6C020C2F200004068A7
:105960002E2812D3FFE740F6C020C2F200004068A4
:1059700040F28921884208D8FFE740F6C020C2F2F1
:105980000000C068952875D8FFE740F6C020C2F235
:10599000000090F82D0000286CD1FFE740F6C020F1
:1059A000C2F20000C18B0131C183C08B4B2820DBC8
:1059B000FFE740F6C020C2F20000406840F28A21B2
:1059C000884215D3FFE740F6C020C2F20000C0684D
:1059D00096280DD3FFE740F6C020C2F20000032155
:1059E00080F82E10012180F820100021C183FFE7EC
:1059F000FFE740F6C020C2F20000C08B962838DBDB
:105A0000FFE740F6C020C2F2000040682D2815D8FC
:105A1000FFE740F6C020C2F20000C06896280DD310
:105A2000FFE740F6C020C2F20000022180F82E10ED
:105A3000012180F820100021C18310E040F6C02031
:105A4000C2F20000C068952808D8FFE740F6C020E1
:105A5000C2F20000012180F82E10FFE7FFE740F6B8
:105A6000C020C2F20000012180F820100021C18373
:105A7000FFE706E040F6C020C2F200000021C1832B
:105A8000FFE7FFE7FFE7FFE7FFE780BD82B0019098
:105A9000019808B9FFE72BE00198002101700198F7
:105AA00042F68532C0F60102C0F80428019840F69B
:105AB0004942C0F60102C0F808280091FFE70098AB
:105AC000B0F5806F0FDAFFE70198009908440021D4
:105AD00080F802140198009A10444170FFE7009882
:105AE00001300090EBE70198002180F80114FFE7F6
:105AF00002B0704780B50EF0B1FF28B1FFE70EF09D
:105B0000A1FFFFF79DF8FFE780BD000082B0019084
:105B100041F24050C2F20000007818B9FFE70020BF
:105B200000900FE00198C0F3C62141F2C042C2F2DA
:105B30000002515CC0F3022021FA00F000F00100E5
:105B40000090FFE7009802B07047000080B586B073
:105B500041F24050C2F2000080690390FFE700F07C
:105B6000BFFA04900498039988422CD2FFE7EFF320
:105B7000108005900598029072B641F24050C2F232
:105B80000000806901900198039988420ED1FFE7D7
:105B9000049841F24051C2F2000188610869013065
:105BA0000861BFF35F8F0120009002E000200090A9
:105BB000FFE7029810B9FFE762B6FFE7009808B95F
:105BC000FFE701E008E0FFE7049903A80DF034FBCC
:105BD0000028C4D0FFE7FFE7049806B080BD0000AE
:105BE00080B58CB04FF60061C0F20201099141F21C
:105BF0007C01C2F2000108910790089820B1FFE7EC
:105C00000798812803D3FFE700200A90AEE00998A7
:105C1000FFF77CFF18B9FFE701200A90A6E0FFF725
:105C200095FF0590BDF824000990EFF305800B90D7
:105C30000B98099941F40022002818BF11460991D8
:105C400008980690079850B9FFE70998059900222F
:105C5000002300F08DF8019001980A9086E00798E3
:105C600008281BD8FFE70020029003900699079AA6
:105C700002A8FEF739FD079800F00700099941EAEC
:105C800000400990099840F040700599029A039BE2
:105C900000F06EF8019001980A9067E005F0DAFED6
:105CA0004FF4E02101EA0040049006980168406842
:105CB00003900291069808300690079808380790DC
:105CC0000498099908430990099840F08070059953
:105CD000029A039B00F04CF80190019818B9FFE775
:105CE00000200A9042E004984FF6017108430990A1
:105CF000FFE7079809281CD3FFE70698016840686A
:105D0000039002910698083006900798083807908B
:105D100009980599029A039B00F02AF801900998C6
:105D200001300990019818B9FFE700200A901DE0A2
:105D3000DFE70020029003900699079A02A8FEF779
:105D4000D3FC099820F47F4009900798099941EA0B
:105D500000200990099840F000700599029A039B71
:105D600000F006F8019001980A90FFE70CB080BDA2
:105D700080B58CB00A90099108920793072005908E
:105D8000FFE70598002863D0FFE705F067FE049061
:105D9000049800F03F0041F2C001C2F2000101EBA3
:105DA0000010069004984FF4700101EA80300190D1
:105DB0000A980199084309994FF0805202EAD101EB
:105DC000084308994FF0005202EA910108430799ED
:105DD0004FF0804202EA5101084340F00060039016
:105DE00006980C30039906F0A3FB03909DF80F0072
:105DF0004007002827D5FFE7039880F00040039074
:105E0000039800F000400290099820F000400299A9
:105E1000084306990860089820F00040029908435A
:105E200006994860079820F00040029908430699B7
:105E3000886006980C3003990CF08AFE05F024FE69
:105E400001200B9009E0FFE705980138059098E7DD
:105E500005F010FE00200B90FFE70B980CB080BD02
:105E600087B00590049103920498FE2804D8FFE7B8
:105E70000398FF2803D3FFE70020069036E00020B8
:105E800002900190FFE7019803282CD8FFE70598BE
:105E90000199C840C007F0B1FFE704980090FFE700
:105EA00000980399884215D8FFE7009800F0070191
:105EB000012202FA01F1029A02EBD00041F2C04243
:105EC000C2F20002135C19431154FFE7009801303D
:105ED0000090E5E7FFE7029820300290FFE7019885
:105EE00001300190CFE701200690FFE707B070472F
:105EF00010B588B0002007900121069141F240546E
:105F0000C2F20004207041F2C040C2F200008021C1
:105F1000FEF703FC0DF0C0FFADF81200206A42F25C
:105F20006B71CEF2A51188420FD0FFE741F24050CD
:105F3000C2F2000042F26B71CEF2A5110162BDF80F
:105F4000121041800121C1611CE041F24050C2F2B7
:105F500000004088BDF8121088420AD0FFE7BDF863
:105F6000120041F24051C2F2000148800120C86194
:105F700007E041F24050C2F20000C1690131C16145
:105F8000FFE7FFE741F24050C2F20000C06901287C
:105F900012D1FFE741F24050C2F2000000214170EF
:105FA00041608160C16041F2C000C2F200004FF464
:105FB0008061FEF7B2FB20E000200090FFE7009830
:105FC0003F2819D8FFE7009841F2C001C2F2000152
:105FD00001EB001005900598C07B4007002806D50E
:105FE000FFE70598C16821F04061C160FFE7FFE766
:105FF000009801300090E2E7FFE741F24050C2F222
:106000000000C069012818D1FFE700F075F80120F1
:106010000290029820B1FFE700F068F8039002E0D8
:1060200000200390FFE7039841F24051C2F20001C3
:10603000486100208861086104E000F05DF80120FB
:106040000290FFE7029830B3FFE707980021FE2295
:10605000FFF706FF0F20EF21EF22FFF701FF0420DB
:10606000FE21FE22FFF7FCFEFFF770FD0190019973
:1060700041F24050C2F200004369C2694FF600701D
:10608000C0F20030FFF774FE069818B1FFE700F089
:1060900005F8FFE7FFE708B010BD000010B582B0BB
:1060A00041F24050C2F20000007818B1FFE7012031
:1060B000019013E041F24050C2F20000012404704C
:1060C000FFF744FD009000994FF60170C0F20030D8
:1060D00000220023FFF74CFE0194FFE702B010BD41
:1060E00041F20400CEF200000068704740F29C00CC
:1060F000C2F20000006870474EF6FC50CEF200007D
:10610000016841F08071016041F20000CEF20000B0
:10611000016841F0010101607047000070B581B075
:1061200040F6C020C2F200000090009900200870E4
:10613000009948600099C860009AC8211182009BAC
:1061400032229A75009B1A76009B4FF0280EA3F816
:106150001AE0009B9883009BD883009B83F8200063
:10616000009B012483F82C40009B83F82D00009BAA
:1061700083F82E00009B5A84009B4FF03C0CA3F840
:1061800024C0009BD884009B83F83B40009B83F88D
:106190003C40009B83F83000009B83F83100009B5B
:1061A00083F83240009B83F83300009B83F834402F
:1061B000009B022483F83640009B83F83700009B45
:1061C00083F83800009B83F83900009B83F83F0078
:1061D000009B83F84000009B83F84100009B312422
:1061E00083F84240009B2E2583F84350009B3026C5
:1061F00083F84460009B83F84550009B83F8466019
:10620000009B83F85640009B83F85750009B83F80F
:106210005860009B83F85950009B83F85A60009B9C
:1062200083F86A00009B83F86B00009C0A23A4F8A3
:106230006C30009CA4F87200009C4FF49675A4F892
:106240007450009CA4F876E0009C1E25A4F87850B9
:10625000009C4FF4A075A4F87A50009CA4F87C2010
:10626000009CA4F87EE0009E4FF4AF75A6F8805025
:10627000009EA6F882C0009EA6F88420009E4FF4DF
:10628000BE75A6F88650009E5025A6F88850009E40
:10629000A6F88AC0009C4FF0640EA4F88CE0009D24
:1062A0001424A5F88E40009DA5F890C0009DA5F887
:1062B0009210009DA5F89420009DA5F89630009DB1
:1062C000A5F89810009DA5F89A20009DA5F89C308F
:1062D000009DA5F89E10009DA5F8A020009DA5F8A2
:1062E000A230009DA5F8A410009DA5F8A620009D51
:1062F000A5F8A830009DA5F8AAE0009DA5F8AC403F
:10630000009DA5F8AEC0009DA5F8B010009DA5F8B1
:10631000B220009DA5F8B430009DA5F8B610009DF0
:10632000A5F8B820009DA5F8BA30009DA5F8BC10CE
:10633000009DA5F8BE20009DA5F8C030009DA5F8E1
:10634000C210009DA5F8C420009DA5F8C630009D90
:10635000A5F8C8E0009DA5F8CA40009DA5F8CCC0EE
:10636000009DA5F8CE10009DA5F8D020009DA5F8B1
:10637000D230009DA5F8D410009DA5F8D620009D30
:10638000A5F8D830009DA5F8DA10009DA5F8DC200E
:10639000009DA5F8DE30009DA5F8E010009DA5F851
:1063A000E220009DA5F8E430009DA5F8E6E0009D00
:1063B000A5F8E840009DA5F8EAC0009DA5F8EC10FE
:1063C000009DA5F8EE20009DA5F8F030009DA5F8F1
:1063D000F210009DA5F8F420009DA5F8F630009D70
:1063E000A5F8F810009DA5F8FA20009DA5F8FC304E
:1063F000009DA5F8FE10009DA5F80021009DA5F8C0
:106400000231009DA5F804E1009EA6F80641009E19
:10641000A6F808C1009EA6F80A11009EA6F80C2155
:10642000009EA6F80E31009EA6F81011009EA6F858
:106430001221009EA6F81431009EA6F81611009EA7
:10644000A6F81821009EA6F81A31009EA6F81C1185
:106450000099A1F81E210099A1F820310099A1F816
:10646000220101B070BD0000B0B540F2A810C2F228
:10647000000000780A2805F2EC82DFE810F00B003B
:106480007C1ADD201D225123CA244326BB27332931
:10649000AB2AD32A40F27320C2F200000078002811
:1064A00043F05F82FFE74EF20000C0F601000EF0FD
:1064B0008BF84FF6FF71884200F08B86FFE74FF2B2
:1064C0000040C0F601000EF07FF84FF6FF718842E1
:1064D00000F07F86FFE74EF2CE00C0F601000FF01D
:1064E00085F940F27424C2F2000420804FF2D040BB
:1064F000C0F601000FF07AF940F27621C2F20001F5
:10650000088020880988884240F33083FFE74EF2F4
:106510000000C0F601000FF069F940F6C025C2F294
:10652000000528824EF20200C0F601000FF05EF96D
:10653000A8754EF20400C0F601000FF057F9287656
:106540004EF20600C0F601000FF050F928854EF219
:106550000800C0F601000FF049F968844EF20A0005
:10656000C0F601000FF042F9A8844EF2CA00C0F64E
:1065700001000FF03BF985F830004EF20C04C0F634
:10658000010420460FF032F9A5F86C0020460FF008
:106590002DF985F831004EF20E00C0F601000FF023
:1065A00025F985F832004EF21000C0F601000FF018
:1065B0001DF985F833004EF21200C0F601000FF00D
:1065C00015F985F834004EF21400C0F601000FF002
:1065D0000DF985F835004EF21600C0F601000FF0F7
:1065E00005F985F837004EF21800C0F601000FF0EB
:1065F000FDF885F838004EF21A00C0F601000FF0E1
:10660000F5F885F839004EF21C00C0F601000FF0D5
:10661000EDF8A5F874004EF21E00C0F601000FF070
:10662000E5F8A5F876004EF22000C0F601000FF064
:10663000DDF8A5F878004EF22200C0F601000FF058
:10664000D5F8A5F87A004EF22400C0F601000FF04C
:10665000CDF8A5F87C004EF22600C0F601000FF040
:10666000C5F8A5F87E004EF22800C0F601000FF034
:10667000BDF8A5F880004EF22A00C0F601000FF028
:10668000B5F8A5F882004EF22C00C0F601000FF01C
:10669000ADF8A5F884004EF22E00C0F601000FF010
:1066A000A5F8A5F886004EF23000C0F601000FF004
:1066B0009DF8A5F888004EF23200C0F601000FF0F8
:1066C00095F8A5F88A004EF23400C0F601000FF0EC
:1066D0008DF8A5F88C004EF23600C0F601000FF0E0
:1066E00085F8A5F88E004EF23800C0F601000FF0D4
:1066F0007DF8A5F890004EF23A00C0F601000FF0C8
:1067000075F8A5F892004EF23C00C0F601000FF0BB
:106710006DF8A5F894004EF23E00C0F601000FF0AF
:1067200065F8A5F896004EF24000C0F601000FF0A3
:106730005DF8A5F898004EF24200C0F601000FF097
:1067400055F8A5F89A004EF24400C0F601000FF08B
:106750004DF8A5F89C004EF24600C0F601000FF07F
:1067600045F8A5F89E004EF24800C0F601000FF073
:106770003DF8A5F8A0004EF24A00C0F601000FF067
:1067800035F8A5F8A2004EF24C00C0F601000FF05B
:106790002DF8A5F8A4004EF24E00C0F601000FF04F
:1067A00025F8A5F8A6004EF25000C0F601000FF043
:1067B0001DF8A5F8A8004EF25200C0F601000FF037
:1067C00015F8A5F8AA004EF25400C0F601000FF02B
:1067D0000DF8A5F8AC004EF25600C0F601000FF01F
:1067E00005F8A5F8AE004EF25800C0F601000EF014
:1067F000FDFFA5F8B0004EF25A00C0F601000EF001
:10680000F5FFA5F8B2004EF25C00C0F601000EF0F4
:10681000EDFFA5F8B4004EF25E00C0F601000EF0E8
:10682000E5FFA5F8B6004EF26000C0F601000EF0DC
:10683000DDFFA5F8B8004EF26200C0F601000EF0D0
:10684000D5FFA5F8BA004EF26400C0F601000EF0C4
:10685000CDFFA5F8BC004EF26600C0F601000EF0B8
:10686000C5FFA5F8BE004EF26800C0F601000EF0AC
:10687000BDFFA5F8C0004EF26A00C0F601000EF0A0
:10688000B5FFA5F8C2004EF26C00C0F601000EF094
:10689000ADFFA5F8C4004EF26E00C0F601000EF088
:1068A000A5FFA5F8C6004EF27204C0F6010420460A
:1068B0000EF09CFFA5F8C80020460EF097FFA5F843
:1068C000CA004EF27400C0F601000EF08FFFA5F86A
:1068D000CC004EF27600C0F601000EF087FFA5F85E
:1068E000CE004EF27800C0F601000EF07FFFA5F852
:1068F000D0004EF27A00C0F601000EF077FFA5F846
:10690000D2004EF27C00C0F601000EF06FFFA5F839
:10691000D4004EF27E00C0F601000EF067FFA5F82D
:10692000D6004EF28000C0F601000EF05FFFA5F821
:10693000D8004EF28200C0F601000EF057FFA5F815
:10694000DA004EF28400C0F601000EF04FFFA5F809
:10695000DC004EF28600C0F601000EF047FFA5F8FD
:10696000DE004EF28800C0F601000EF03FFFA5F8F1
:10697000E0004EF28A00C0F601000EF037FFA5F8E5
:10698000E2004EF28C00C0F601000EF02FFFA5F8D9
:10699000E4004EF29004C0F6010420460EF026FFFB
:1069A000A5F8E60020460EF021FFA5F8E8004EF21B
:1069B0009200C0F601000EF019FFA5F8EA004EF2B1
:1069C0009400C0F601000EF011FFA5F8EC004EF2A5
:1069D0009600C0F601000EF009FFA5F8EE004EF299
:1069E0009800C0F601000EF001FFA5F8F0004EF28D
:1069F0009A00C0F601000EF0F9FEA5F8F2004EF282
:106A00009C00C0F601000EF0F1FEA5F8F4004EF275
:106A10009E00C0F601000EF0E9FEA5F8F6004EF269
:106A2000A000C0F601000EF0E1FEA5F8F8004EF25D
:106A3000A200C0F601000EF0D9FEA5F8FA004EF251
:106A4000A400C0F601000EF0D1FEA5F8FC004EF245
:106A5000A600C0F601000EF0C9FEA5F8FE004EF239
:106A6000A800C0F601000EF0C1FEA5F800014EF22C
:106A7000AA00C0F601000EF0B9FEA5F802014EF220
:106A8000AE04C0F6010420460EF0B0FEA5F80401E5
:106A900020460EF0ABFEA5F806014EF2B000C0F69F
:106AA00001000EF0A3FEA5F808014EF2B200C0F6F8
:106AB00001000EF09BFEA5F80A014EF2B400C0F6EC
:106AC00001000EF093FEA5F80C014EF2B600C0F6E0
:106AD00001000EF08BFEA5F80E014EF2B800C0F6D4
:106AE00001000EF083FEA5F810014EF2BA00C0F6C8
:106AF00001000EF07BFEA5F812014EF2BC00C0F6BC
:106B000001000EF073FEA5F814014EF2BE00C0F6AF
:106B100001000EF06BFEA5F816014EF2C000C0F6A3
:106B200001000EF063FEA5F818014EF2C200C0F697
:106B300001000EF05BFEA5F81A014EF2C400C0F68B
:106B400001000EF053FEA5F81C014EF2C600C0F67F
:106B500001000EF04BFEA5F81E014EF2C800C0F673
:106B600001000EF043FEA5F8200130E34FF2004093
:106B7000C0F601000EF03AFE40F6C025C2F2000554
:106B800028824FF20240C0F601000EF02FFEA875D9
:106B90004FF20440C0F601000EF028FE28764FF2B6
:106BA0000640C0F601000EF021FE28854FF2084095
:106BB000C0F601000EF01AFE68844FF20A40C0F6DB
:106BC00001000EF013FEA8844FF2CC40C0F6010085
:106BD0000EF00CFE85F830004FF20C40C0F60100BC
:106BE0000EF004FEA5F86C004FF20E40C0F6010056
:106BF0000EF0FCFD85F831004FF21040C0F60100A8
:106C00000EF0F4FD85F832004FF21240C0F601009C
:106C10000EF0ECFD85F833004FF21440C0F6010091
:106C20000EF0E4FD85F834004FF21640C0F6010086
:106C30000EF0DCFD85F835004FF21840C0F601007B
:106C40000EF0D4FD85F837004FF21A40C0F601006F
:106C50000EF0CCFD85F838004FF21C40C0F6010064
:106C60000EF0C4FD85F839004FF21E40C0F6010059
:106C70000EF0BCFDA5F874004FF22040C0F60100F4
:106C80000EF0B4FDA5F876004FF22240C0F60100E8
:106C90000EF0ACFDA5F878004FF22440C0F60100DC
:106CA0000EF0A4FDA5F87A004FF22640C0F60100D0
:106CB0000EF09CFDA5F87C004FF22840C0F60100C4
:106CC0000EF094FDA5F87E004FF22A40C0F60100B8
:106CD0000EF08CFDA5F880004FF22C40C0F60100AC
:106CE0000EF084FDA5F882004FF22E40C0F60100A0
:106CF0000EF07CFDA5F884004FF23040C0F6010094
:106D00000EF074FDA5F886004FF23240C0F6010087
:106D10000EF06CFDA5F888004FF23440C0F601007B
:106D20000EF064FDA5F88A004FF23640C0F601006F
:106D30000EF05CFDA5F88C004FF23840C0F6010063
:106D40000EF054FDA5F88E004FF23A40C0F6010057
:106D50000EF04CFDA5F890004FF23C40C0F601004B
:106D60000EF044FDA5F892004FF23E40C0F601003F
:106D70000EF03CFDA5F894004FF24040C0F6010033
:106D80000EF034FDA5F896004FF24240C0F6010027
:106D90000EF02CFDA5F898004FF24440C0F601001B
:106DA0000EF024FDA5F89A004FF24640C0F601000F
:106DB0000EF01CFDA5F89C004FF24840C0F6010003
:106DC0000EF014FDA5F89E004FF24A40C0F60100F7
:106DD0000EF00CFDA5F8A0004FF24C40C0F60100EB
:106DE0000EF004FDA5F8A2004FF24E40C0F60100DF
:106DF0000EF0FCFCA5F8A4004FF25040C0F60100D4
:106E00000EF0F4FCA5F8A6004FF25240C0F60100C7
:106E10000EF0ECFCA5F8A8004FF25440C0F60100BB
:106E20000EF0E4FCA5F8AA004FF25640C0F60100AF
:106E30000EF0DCFCA5F8AC004FF25840C0F60100A3
:106E40000EF0D4FCA5F8AE004FF25A40C0F6010097
:106E50000EF0CCFCA5F8B0004FF25C40C0F601008B
:106E60000EF0C4FCA5F8B2004FF25E40C0F601007F
:106E70000EF0BCFCA5F8B4004FF26040C0F6010073
:106E80000EF0B4FCA5F8B6004FF26240C0F6010067
:106E90000EF0ACFCA5F8B8004FF26440C0F601005B
:106EA0000EF0A4FCA5F8BA004FF26640C0F601004F
:106EB0000EF09CFCA5F8BC004FF26840C0F6010043
:106EC0000EF094FCA5F8BE004FF26A40C0F6010037
:106ED0000EF08CFCA5F8C0004FF26C40C0F601002B
:106EE0000EF084FCA5F8C2004FF26E40C0F601001F
:106EF0000EF07CFCA5F8C4004FF27040C0F6010013
:106F00000EF074FCA5F8C6004FF27444C0F60104FC
:106F100020460EF06BFCA5F8C80020460EF066FC7B
:106F2000A5F8CA004FF27640C0F601000EF05EFCF4
:106F3000A5F8CC004FF27840C0F601000EF056FCE8
:106F4000A5F8CE004FF27A40C0F601000EF04EFCDC
:106F5000A5F8D0004FF27C40C0F601000EF046FCD0
:106F6000A5F8D2004FF27E40C0F601000EF03EFCC4
:106F7000A5F8D4004FF28040C0F601000EF036FCB8
:106F8000A5F8D6004FF28240C0F601000EF02EFCAC
:106F9000A5F8D8004FF28440C0F601000EF026FCA0
:106FA000A5F8DA004FF28640C0F601000EF01EFC94
:106FB000A5F8DC004FF28840C0F601000EF016FC88
:106FC000A5F8DE004FF28A40C0F601000EF00EFC7C
:106FD000A5F8E0004FF28C40C0F601000EF006FC70
:106FE000A5F8E2004FF28E40C0F601000EF0FEFB65
:106FF000A5F8E4004FF29244C0F6010420460EF0DA
:10700000F5FBA5F8E60020460EF0F0FBA5F8E80039
:107010004FF29440C0F601000EF0E8FBA5F8EA003C
:107020004FF29640C0F601000EF0E0FBA5F8EC0030
:107030004FF29840C0F601000EF0D8FBA5F8EE0024
:107040004FF29A40C0F601000EF0D0FBA5F8F00018
:107050004FF29C40C0F601000EF0C8FBA5F8F2000C
:107060004FF29E40C0F601000EF0C0FBA5F8F40000
:107070004FF2A040C0F601000EF0B8FBA5F8F600F4
:107080004FF2A240C0F601000EF0B0FBA5F8F800E8
:107090004FF2A440C0F601000EF0A8FBA5F8FA00DC
:1070A0004FF2A640C0F601000EF0A0FBA5F8FC00D0
:1070B0004FF2A840C0F601000EF098FBA5F8FE00C4
:1070C0004FF2AA40C0F601000EF090FBA5F80001B7
:1070D0004FF2AC40C0F601000EF088FBA5F80201AB
:1070E0004FF2B044C0F6010420460EF07FFBA5F835
:1070F000040120460EF07AFBA5F806014FF2B240DB
:10710000C0F601000EF072FBA5F808014FF2B44082
:10711000C0F601000EF06AFBA5F80A014FF2B64076
:10712000C0F601000EF062FBA5F80C014FF2B8406A
:10713000C0F601000EF05AFBA5F80E014FF2BA405E
:10714000C0F601000EF052FBA5F810014FF2BC4052
:10715000C0F601000EF04AFBA5F812014FF2BE4046
:10716000C0F601000EF042FBA5F814014FF2C0403A
:10717000C0F601000EF03AFBA5F816014FF2C2402E
:10718000C0F601000EF032FBA5F818014FF2C44022
:10719000C0F601000EF02AFBA5F81A014FF2C64016
:1071A000C0F601000EF022FBA5F81C014FF2C8400A
:1071B000C0F601000EF01AFBA5F81E014FF2CA40FE
:1071C000C0F601000EF012FBA5F82001FFE700F069
:1071D0005EBF4EF20000C0F601000DF0F5F94FF66B
:1071E000FF71884200F03183FFE74EF20000C0F6E5
:1071F00001000EF0FBFA40F6C025C2F2000528821D
:107200004EF20200C0F601000EF0F0FAA8754EF240
:107210000400C0F601000EF0E9FA28764EF20600EE
:10722000C0F601000EF0E2FA28854EF20800C0F622
:1072300001000EF0DBFA68844EF20A00C0F601008D
:107240000EF0D4FAA8844EF2CA00C0F601000EF087
:10725000CDFA85F830004EF20C04C0F60104204649
:107260000EF0C4FAA5F86C0020460EF0BFFA85F8BF
:1072700031004EF20E00C0F601000EF0B7FA85F8AC
:1072800032004EF21000C0F601000EF0AFFA85F8A1
:1072900033004EF21200C0F601000EF0A7FA85F896
:1072A00034004EF21400C0F601000EF09FFA85F88B
:1072B00035004EF21600C0F601000EF097FA85F880
:1072C00037004EF21800C0F601000EF08FFA85F874
:1072D00038004EF21A00C0F601000EF087FA85F869
:1072E00039004EF21C00C0F601000EF07FFAA5F83E
:1072F00074004EF21E00C0F601000EF077FAA5F8F9
:1073000076004EF22000C0F601000EF06FFAA5F8EC
:1073100078004EF22200C0F601000EF067FAA5F8E0
:107320007A004EF22400C0F601000EF05FFAA5F8D4
:107330007C004EF22600C0F601000EF057FAA5F8C8
:107340007E004EF22800C0F601000EF04FFAA5F8BC
:1073500080004EF22A00C0F601000EF047FAA5F8B0
:1073600082004EF22C00C0F601000EF03FFAA5F8A4
:1073700084004EF22E00C0F601000EF037FAA5F898
:1073800086004EF23000C0F601000EF02FFAA5F88C
:1073900088004EF23200C0F601000EF027FAA5F880
:1073A0008A004EF23400C0F601000EF01FFAA5F874
:1073B0008C004EF23600C0F601000EF017FAA5F868
:1073C0008E004EF23800C0F601000EF00FFAA5F85C
:1073D00090004EF23A00C0F601000EF007FAA5F850
:1073E00092004EF23C00C0F601000EF0FFF9A5F845
:1073F00094004EF23E00C0F601000EF0F7F9A5F839
:1074000096004EF24000C0F601000EF0EFF9A5F82C
:1074100098004EF24200C0F601000EF0E7F9A5F820
:107420009A004EF24400C0F601000EF0DFF9A5F814
:107430009C004EF24600C0F601000EF0D7F9A5F808
:107440009E004EF24800C0F601000EF0CFF9A5F8FC
:10745000A0004EF24A00C0F601000EF0C7F9A5F8F0
:10746000A2004EF24C00C0F601000EF0BFF9A5F8E4
:10747000A4004EF24E00C0F601000EF0B7F9A5F8D8
:10748000A6004EF25000C0F601000EF0AFF9A5F8CC
:10749000A8004EF25200C0F601000EF0A7F9A5F8C0
:1074A000AA004EF25400C0F601000EF09FF9A5F8B4
:1074B000AC004EF25600C0F601000EF097F9A5F8A8
:1074C000AE004EF25800C0F601000EF08FF9A5F89C
:1074D000B0004EF25A00C0F601000EF087F9A5F890
:1074E000B2004EF25C00C0F601000EF07FF9A5F884
:1074F000B4004EF25E00C0F601000EF077F9A5F878
:10750000B6004EF26000C0F601000EF06FF9A5F86B
:10751000B8004EF26200C0F601000EF067F9A5F85F
:10752000BA004EF26400C0F601000EF05FF9A5F853
:10753000BC004EF26600C0F601000EF057F9A5F847
:10754000BE004EF26800C0F601000EF04FF9A5F83B
:10755000C0004EF26A00C0F601000EF047F9A5F82F
:10756000C2004EF26C00C0F601000EF03FF9A5F823
:10757000C4004EF26E00C0F601000EF037F9A5F817
:10758000C6004EF27204C0F6010420460EF02EF939
:10759000A5F8C80020460EF029F9A5F8CA004EF259
:1075A0007400C0F601000EF021F9A5F8CC004EF2EF
:1075B0007600C0F601000EF019F9A5F8CE004EF2E3
:1075C0007800C0F601000EF011F9A5F8D0004EF2D7
:1075D0007A00C0F601000EF009F9A5F8D2004EF2CB
:1075E0007C00C0F601000EF001F9A5F8D4004EF2BF
:1075F0007E00C0F601000EF0F9F8A5F8D6004EF2B4
:107600008000C0F601000EF0F1F8A5F8D8004EF2A7
:107610008200C0F601000EF0E9F8A5F8DA004EF29B
:107620008400C0F601000EF0E1F8A5F8DC004EF28F
:107630008600C0F601000EF0D9F8A5F8DE004EF283
:107640008800C0F601000EF0D1F8A5F8E0004EF277
:107650008A00C0F601000EF0C9F8A5F8E2004EF26B
:107660008C00C0F601000EF0C1F8A5F8E4004EF25F
:107670009004C0F6010420460EF0B8F8A5F8E60024
:1076800020460EF0B3F8A5F8E8004EF29200C0F6DE
:1076900001000EF0ABF8A5F8EA004EF29400C0F637
:1076A00001000EF0A3F8A5F8EC004EF29600C0F62B
:1076B00001000EF09BF8A5F8EE004EF29800C0F61F
:1076C00001000EF093F8A5F8F0004EF29A00C0F613
:1076D00001000EF08BF8A5F8F2004EF29C00C0F607
:1076E00001000EF083F8A5F8F4004EF29E00C0F6FB
:1076F00001000EF07BF8A5F8F6004EF2A000C0F6EF
:1077000001000EF073F8A5F8F8004EF2A200C0F6E2
:1077100001000EF06BF8A5F8FA004EF2A400C0F6D6
:1077200001000EF063F8A5F8FC004EF2A600C0F6CA
:1077300001000EF05BF8A5F8FE004EF2A800C0F6BE
:1077400001000EF053F8A5F800014EF2AA00C0F6B1
:1077500001000EF04BF8A5F802014EF2AE04C0F69F
:10776000010420460EF042F8A5F8040120460EF070
:107770003DF8A5F806014EF2B000C0F601000EF08B
:1077800035F8A5F808014EF2B200C0F601000EF07F
:107790002DF8A5F80A014EF2B400C0F601000EF073
:1077A00025F8A5F80C014EF2B600C0F601000EF067
:1077B0001DF8A5F80E014EF2B800C0F601000EF05B
:1077C00015F8A5F810014EF2BA00C0F601000EF04F
:1077D0000DF8A5F812014EF2BC00C0F601000EF043
:1077E00005F8A5F814014EF2BE00C0F601000DF038
:1077F000FDFFA5F816014EF2C000C0F601000DF025
:10780000F5FFA5F818014EF2C200C0F601000DF018
:10781000EDFFA5F81A014EF2C400C0F601000DF00C
:10782000E5FFA5F81C014EF2C600C0F601000DF000
:10783000DDFFA5F81E014EF2C800C0F601000DF0F4
:10784000D5FFA5F8200100F021BC4FF20040C0F6A2
:1078500001000CF0B9FE4FF6FF71884200F0328350
:10786000FFE74FF20040C0F601000DF0BFFF40F609
:10787000C025C2F2000528824FF20240C0F6010086
:107880000DF0B4FFA8754FF20440C0F601000DF0F2
:10789000ADFF28764FF20640C0F601000DF0A6FFBE
:1078A00028854FF20840C0F601000DF09FFF688464
:1078B0004FF20A40C0F601000DF098FFA8844FF285
:1078C000CC40C0F601000DF091FF85F830004FF27A
:1078D0000C40C0F601000DF089FFA5F86C004FF2D6
:1078E0000E40C0F601000DF081FF85F831004FF227
:1078F0001040C0F601000DF079FF85F832004FF21C
:107900001240C0F601000DF071FF85F833004FF210
:107910001440C0F601000DF069FF85F834004FF205
:107920001640C0F601000DF061FF85F835004FF2FA
:107930001840C0F601000DF059FF85F837004FF2EE
:107940001A40C0F601000DF051FF85F838004FF2E3
:107950001C40C0F601000DF049FF85F839004FF2D8
:107960001E40C0F601000DF041FFA5F874004FF273
:107970002040C0F601000DF039FFA5F876004FF267
:107980002240C0F601000DF031FFA5F878004FF25B
:107990002440C0F601000DF029FFA5F87A004FF24F
:1079A0002640C0F601000DF021FFA5F87C004FF243
:1079B0002840C0F601000DF019FFA5F87E004FF237
:1079C0002A40C0F601000DF011FFA5F880004FF22B
:1079D0002C40C0F601000DF009FFA5F882004FF21F
:1079E0002E40C0F601000DF001FFA5F884004FF213
:1079F0003040C0F601000DF0F9FEA5F886004FF208
:107A00003240C0F601000DF0F1FEA5F888004FF2FB
:107A10003440C0F601000DF0E9FEA5F88A004FF2EF
:107A20003640C0F601000DF0E1FEA5F88C004FF2E3
:107A30003840C0F601000DF0D9FEA5F88E004FF2D7
:107A40003A40C0F601000DF0D1FEA5F890004FF2CB
:107A50003C40C0F601000DF0C9FEA5F892004FF2BF
:107A60003E40C0F601000DF0C1FEA5F894004FF2B3
:107A70004040C0F601000DF0B9FEA5F896004FF2A7
:107A80004240C0F601000DF0B1FEA5F898004FF29B
:107A90004440C0F601000DF0A9FEA5F89A004FF28F
:107AA0004640C0F601000DF0A1FEA5F89C004FF283
:107AB0004840C0F601000DF099FEA5F89E004FF277
:107AC0004A40C0F601000DF091FEA5F8A0004FF26B
:107AD0004C40C0F601000DF089FEA5F8A2004FF25F
:107AE0004E40C0F601000DF081FEA5F8A4004FF253
:107AF0005040C0F601000DF079FEA5F8A6004FF247
:107B00005240C0F601000DF071FEA5F8A8004FF23A
:107B10005440C0F601000DF069FEA5F8AA004FF22E
:107B20005640C0F601000DF061FEA5F8AC004FF222
:107B30005840C0F601000DF059FEA5F8AE004FF216
:107B40005A40C0F601000DF051FEA5F8B0004FF20A
:107B50005C40C0F601000DF049FEA5F8B2004FF2FE
:107B60005E40C0F601000DF041FEA5F8B4004FF2F2
:107B70006040C0F601000DF039FEA5F8B6004FF2E6
:107B80006240C0F601000DF031FEA5F8B8004FF2DA
:107B90006440C0F601000DF029FEA5F8BA004FF2CE
:107BA0006640C0F601000DF021FEA5F8BC004FF2C2
:107BB0006840C0F601000DF019FEA5F8BE004FF2B6
:107BC0006A40C0F601000DF011FEA5F8C0004FF2AA
:107BD0006C40C0F601000DF009FEA5F8C2004FF29E
:107BE0006E40C0F601000DF001FEA5F8C4004FF292
:107BF0007040C0F601000DF0F9FDA5F8C6004FF287
:107C00007444C0F6010420460DF0F0FDA5F8C8004C
:107C100020460DF0EBFDA5F8CA004FF27640C0F605
:107C200001000DF0E3FDA5F8CC004FF27840C0F65E
:107C300001000DF0DBFDA5F8CE004FF27A40C0F652
:107C400001000DF0D3FDA5F8D0004FF27C40C0F646
:107C500001000DF0CBFDA5F8D2004FF27E40C0F63A
:107C600001000DF0C3FDA5F8D4004FF28040C0F62E
:107C700001000DF0BBFDA5F8D6004FF28240C0F622
:107C800001000DF0B3FDA5F8D8004FF28440C0F616
:107C900001000DF0ABFDA5F8DA004FF28640C0F60A
:107CA00001000DF0A3FDA5F8DC004FF28840C0F6FE
:107CB00001000DF09BFDA5F8DE004FF28A40C0F6F2
:107CC00001000DF093FDA5F8E0004FF28C40C0F6E6
:107CD00001000DF08BFDA5F8E2004FF28E40C0F6DA
:107CE00001000DF083FDA5F8E4004FF29244C0F6C8
:107CF000010420460DF07AFDA5F8E60020460DF0BF
:107D000075FDA5F8E8004FF29440C0F601000DF0B3
:107D10006DFDA5F8EA004FF29640C0F601000DF0A7
:107D200065FDA5F8EC004FF29840C0F601000DF09B
:107D30005DFDA5F8EE004FF29A40C0F601000DF08F
:107D400055FDA5F8F0004FF29C40C0F601000DF083
:107D50004DFDA5F8F2004FF29E40C0F601000DF077
:107D600045FDA5F8F4004FF2A040C0F601000DF06B
:107D70003DFDA5F8F6004FF2A240C0F601000DF05F
:107D800035FDA5F8F8004FF2A440C0F601000DF053
:107D90002DFDA5F8FA004FF2A640C0F601000DF047
:107DA00025FDA5F8FC004FF2A840C0F601000DF03B
:107DB0001DFDA5F8FE004FF2AA40C0F601000DF02F
:107DC00015FDA5F800014FF2AC40C0F601000DF022
:107DD0000DFDA5F802014FF2B044C0F601042046A3
:107DE0000DF004FDA5F8040120460DF0FFFCA5F8F8
:107DF00006014FF2B240C0F601000DF0F7FCA5F805
:107E000008014FF2B440C0F601000DF0EFFCA5F8F8
:107E10000A014FF2B640C0F601000DF0E7FCA5F8EC
:107E20000C014FF2B840C0F601000DF0DFFCA5F8E0
:107E30000E014FF2BA40C0F601000DF0D7FCA5F8D4
:107E400010014FF2BC40C0F601000DF0CFFCA5F8C8
:107E500012014FF2BE40C0F601000DF0C7FCA5F8BC
:107E600014014FF2C040C0F601000DF0BFFCA5F8B0
:107E700016014FF2C240C0F601000DF0B7FCA5F8A4
:107E800018014FF2C440C0F601000DF0AFFCA5F898
:107E90001A014FF2C640C0F601000DF0A7FCA5F88C
:107EA0001C014FF2C840C0F601000DF09FFCA5F880
:107EB0001E014FF2CA40C0F601000DF097FCA5F874
:107EC0002001E2E040F6C020C2F20000DC21018285
:107ED0003C2282756421017600230385322141848E
:107EE000828480F830304FF0140CA0F86CC080F819
:107EF0003130012580F8325080F8335080F834500A
:107F000080F8353080F8373080F8383080F83930F4
:107F10004FF49673A0F874302823A0F876301E250D
:107F2000A0F878504FF4A075A0F87A50A0F87C1013
:107F3000A0F87E304FF4AF73A0F88030A0F8822014
:107F4000A0F884104FF4BE73A0F886305023A0F838
:107F50008830A0F88A206E23A0F88C30A0F88EC05C
:107F6000A0F89020C825A0F89250A0F894100A24F8
:107F7000A0F89640A0F89850A0F89A10A0F89C405D
:107F8000A0F89E50A0F8A010A0F8A240A0F8A4501D
:107F9000A0F8A610A0F8A840A0F8AA30A0F8ACC09D
:107FA000A0F8AE20A0F8B050A0F8B210A0F8B440ED
:107FB000A0F8B650A0F8B810A0F8BA40A0F8BC508D
:107FC000A0F8BE10A0F8C040A0F8C250A0F8C4109D
:107FD000A0F8C640A0F8C830A0F8CAC0A0F8CC20CD
:107FE000A0F8CE50A0F8D010A0F8D240A0F8D450FD
:107FF000A0F8D610A0F8D840A0F8DA50A0F8DC100D
:10800000A0F8DE40A0F8E050A0F8E210A0F8E440AC
:10801000A0F8E630A0F8E8C0A0F8EA20A0F8EC50FC
:10802000A0F8EE10A0F8F040A0F8F250A0F8F4107C
:10803000A0F8F640A0F8F850A0F8FA10A0F8FC401C
:10804000A0F8FE50A0F80011A0F80241A0F80431F9
:10805000A0F806C1A0F80821A0F80A51A0F80C1158
:10806000A0F80E41A0F81051A0F81211A0F8144188
:10807000A0F81651A0F81811A0F81A41A0F81C5148
:10808000A0F81E11A0F82041FFE7FFE7FFE740F648
:10809000C020C2F20000008AB0F5FA7F08DCFFE7DA
:1080A00040F6C020C2F20000008A632808DCFFE727
:1080B00040F6C020C2F200004FF496710182FFE743
:1080C00040F6C020C2F20000807DC82808DCFFE72F
:1080D00040F6C020C2F20000807D002807DCFFE7E8
:1080E00040F6C020C2F2000050218175FFE740F643
:1080F000C020C2F20000408C642807DBFFE740F696
:10810000C020C2F2000032214184FFE7FFE740F6C1
:10811000C020C2F20000808C40F2E731884207DBC9
:10812000FFE740F6C020C2F200003C218184FFE757
:10813000FFE740F6C020C2F2000090F8300088B19E
:10814000FFE740F6C020C2F2000090F8300001289E
:1081500008D0FFE740F6C020C2F20000002180F8FE
:108160003010FFE740F6C020C2F2000090F8310066
:1081700088B1FFE740F6C020C2F2000090F831005D
:10818000012808D0FFE740F6C020C2F2000000211D
:1081900080F83110FFE740F6C020C2F2000090F8EE
:1081A0003200012810D0FFE740F6C020C2F20000E4
:1081B00090F8320040B1FFE740F6C020C2F2000064
:1081C000012180F83210FFE740F6C020C2F2000023
:1081D00090F8330088B1FFE740F6C020C2F20000FB
:1081E00090F83300012808D0FFE740F6C020C2F223
:1081F0000000012180F83310FFE740F6C020C2F2F2
:10820000000090F83400012819D0FFE740F6C020A4
:10821000C2F2000090F8340088B1FFE740F6C020B9
:10822000C2F2000090F83400022808D0FFE740F6C0
:10823000C020C2F20000012180F83410FFE740F6B0
:10824000C020C2F2000090F8350088B1FFE740F688
:10825000C020C2F2000090F83500012808D0FFE7E6
:1082600040F6C020C2F20000002180F83510FFE780
:1082700040F6C020C2F2000090F8370088B1FFE756
:1082800040F6C020C2F2000090F83700012808D064
:10829000FFE740F6C020C2F20000002180F837104E
:1082A000FFE740F6C020C2F2000090F8380080B12D
:1082B000FFE740F6C020C2F2000090F8380040B15D
:1082C000FFE740F6C020C2F20000012180F838101C
:1082D000FFE740F6C020C2F2000090F8390080B1FC
:1082E000FFE740F6C020C2F2000090F8390040B12C
:1082F000FFE740F6C020C2F20000002180F83910EC
:10830000FFE740F6C020C2F20000B0F92800322892
:108310000ADCFFE740F6C020C2F20000B0F92800F6
:1083200010F1330F07DCFFE740F6C020C2F2000077
:1083300000210185FFE740F6C020C2F20000B0F83E
:108340006C00B0F57A7F01DAFFE707E040F6C02065
:10835000C2F200001421A0F86C10FFE740F6C02024
:10836000C2F20000B0F87400B0F5FA7F09DCFFE754
:1083700040F6C020C2F20000B0F87400632809DCA7
:10838000FFE740F6C020C2F200004FF49671A0F85B
:108390007410FFE740F6C020C2F20000B0F876008B
:1083A000C82809DCFFE740F6C020C2F20000B0F8A0
:1083B0007600002808DCFFE740F6C020C2F200008B
:1083C0005021A0F87610FFE740F6C020C2F200006E
:1083D000B0F87800B0F57A7F01DAFFE707E040F601
:1083E000C020C2F200001E21A0F87810FFE740F67E
:1083F000C020C2F20000B0F87A00B0F5FA7F09DCC4
:10840000FFE740F6C020C2F20000B0F87A0063280F
:1084100009DCFFE740F6C020C2F200004FF496717D
:10842000A0F87A10FFE740F6C020C2F20000B0F8D2
:108430007C00C82809DCFFE740F6C020C2F200003B
:10844000B0F87C00002808DCFFE740F6C020C2F24C
:1084500000005021A0F87C10FFE740F6C020C2F2D7
:108460000000B0F87E00B0F57A7F01DAFFE707E0A0
:1084700040F6C020C2F200001E21A0F87E10FFE7E7
:1084800040F6C020C2F20000B0F88000B0F5FA7FDC
:1084900009DCFFE740F6C020C2F20000B0F880001F
:1084A000632809DCFFE740F6C020C2F200004FF469
:1084B0009671A0F88010FFE740F6C020C2F20000DD
:1084C000B0F88200C82809DCFFE740F6C020C2F2FD
:1084D0000000B0F88200002808DCFFE740F6C0206A
:1084E000C2F200005021A0F88210FFE740F6C02041
:1084F000C2F20000B0F88400B0F57A7F01DAFFE73D
:1085000007E040F6C020C2F200001E21A0F884104F
:10851000FFE740F6C020C2F20000B0F88600B0F5D8
:10852000FA7F09DCFFE740F6C020C2F20000B0F895
:108530008600632809DCFFE740F6C020C2F2000095
:108540004FF49671A0F88610FFE740F6C020C2F203
:108550000000B0F88800C82809DCFFE740F6C0201A
:10856000C2F20000B0F88800002808DCFFE740F6FF
:10857000C020C2F200005021A0F88810FFE740F6AA
:10858000C020C2F20000B0F88A00B0F57A7F01DAAC
:10859000FFE707E040F6C020C2F200001E21A0F86D
:1085A0008A10FFE740F6C020C2F20000B0F88C004D
:1085B000B0F5FA7F09DCFFE740F6C020C2F2000008
:1085C000B0F88C00632808DCFFE740F6C020C2F258
:1085D00000006421A0F88C10FFE740F6C020C2F232
:1085E0000000B0F88E00C82809DCFFE740F6C02084
:1085F000C2F20000B0F88E00002808DCFFE740F669
:10860000C020C2F200001421A0F88E10FFE740F64F
:10861000C020C2F20000B0F89000B0F57A7F01DA15
:10862000FFE707E040F6C020C2F200003C21A0F8BE
:108630009010FFE740F6C020C2F20000B0F89200B0
:10864000B0F5FA7F09DCFFE740F6C020C2F2000077
:10865000B0F89200632808DCFFE740F6C020C2F2C1
:1086600000006421A0F89210FFE740F6C020C2F29B
:108670000000B0F89400C82809DCFFE740F6C020ED
:10868000C2F20000B0F89400002808DCFFE740F6D2
:10869000C020C2F200001421A0F89410FFE740F6B9
:1086A000C020C2F20000B0F89600B0F57A7F01DA7F
:1086B000FFE707E040F6C020C2F200003C21A0F82E
:1086C0009610FFE740F6C020C2F20000B0F8980014
:1086D000B0F5FA7F09DCFFE740F6C020C2F20000E7
:1086E000B0F89800632808DCFFE740F6C020C2F22B
:1086F00000006421A0F89810FFE740F6C020C2F205
:108700000000B0F89A00C82809DCFFE740F6C02056
:10871000C2F20000B0F89A00002808DCFFE740F63B
:10872000C020C2F200001421A0F89A10FFE740F622
:10873000C020C2F20000B0F89C00B0F57A7F01DAE8
:10874000FFE707E040F6C020C2F200003C21A0F89D
:108750009C10FFE740F6C020C2F20000B0F89E0077
:10876000B0F5FA7F09DCFFE740F6C020C2F2000056
:10877000B0F89E00632808DCFFE740F6C020C2F294
:1087800000006421A0F89E10FFE740F6C020C2F26E
:108790000000B0F8A000C82809DCFFE740F6C020C0
:1087A000C2F20000B0F8A000002808DCFFE740F6A5
:1087B000C020C2F200001421A0F8A010FFE740F68C
:1087C000C020C2F20000B0F8A200B0F57A7F01DA52
:1087D000FFE707E040F6C020C2F200003C21A0F80D
:1087E000A210FFE740F6C020C2F20000B0F8A400DB
:1087F000B0F5FA7F09DCFFE740F6C020C2F20000C6
:10880000B0F8A400632808DCFFE740F6C020C2F2FD
:1088100000006421A0F8A410FFE740F6C020C2F2D7
:108820000000B0F8A600C82809DCFFE740F6C02029
:10883000C2F20000B0F8A600002808DCFFE740F60E
:10884000C020C2F200001421A0F8A610FFE740F6F5
:10885000C020C2F20000B0F8A800B0F57A7F01DABB
:10886000FFE707E040F6C020C2F200003C21A0F87C
:10887000A810FFE740F6C020C2F20000B0F8AA003E
:10888000B0F5FA7F09DCFFE740F6C020C2F2000035
:10889000B0F8AA00632808DCFFE740F6C020C2F267
:1088A00000006421A0F8AA10FFE740F6C020C2F241
:1088B0000000B0F8AC00C82809DCFFE740F6C02093
:1088C000C2F20000B0F8AC00002808DCFFE740F678
:1088D000C020C2F200001421A0F8AC10FFE740F65F
:1088E000C020C2F20000B0F8AE00B0F57A7F01DA25
:1088F000FFE707E040F6C020C2F200003C21A0F8EC
:10890000AE10FFE740F6C020C2F20000B0F8B000A1
:10891000B0F5FA7F09DCFFE740F6C020C2F20000A4
:10892000B0F8B000632808DCFFE740F6C020C2F2D0
:1089300000006421A0F8B010FFE740F6C020C2F2AA
:108940000000B0F8B200C82809DCFFE740F6C020FC
:10895000C2F20000B0F8B200002808DCFFE740F6E1
:10896000C020C2F200001421A0F8B210FFE740F6C8
:10897000C020C2F20000B0F8B400B0F57A7F01DA8E
:10898000FFE707E040F6C020C2F200003C21A0F85B
:10899000B410FFE740F6C020C2F20000B0F8B60005
:1089A000B0F5FA7F09DCFFE740F6C020C2F2000014
:1089B000B0F8B600632808DCFFE740F6C020C2F23A
:1089C00000006421A0F8B610FFE740F6C020C2F214
:1089D0000000B0F8B800C82809DCFFE740F6C02066
:1089E000C2F20000B0F8B800002808DCFFE740F64B
:1089F000C020C2F200001421A0F8B810FFE740F632
:108A0000C020C2F20000B0F8BA00B0F57A7F01DAF7
:108A1000FFE707E040F6C020C2F200003C21A0F8CA
:108A2000BA10FFE740F6C020C2F20000B0F8BC0068
:108A3000B0F5FA7F09DCFFE740F6C020C2F2000083
:108A4000B0F8BC00632808DCFFE740F6C020C2F2A3
:108A500000006421A0F8BC10FFE740F6C020C2F27D
:108A60000000B0F8BE00C82809DCFFE740F6C020CF
:108A7000C2F20000B0F8BE00002808DCFFE740F6B4
:108A8000C020C2F200001421A0F8BE10FFE740F69B
:108A9000C020C2F20000B0F8C000B0F57A7F01DA61
:108AA000FFE707E040F6C020C2F200003C21A0F83A
:108AB000C010FFE740F6C020C2F20000B0F8C200CC
:108AC000B0F5FA7F09DCFFE740F6C020C2F20000F3
:108AD000B0F8C200632808DCFFE740F6C020C2F20D
:108AE00000006421A0F8C210FFE740F6C020C2F2E7
:108AF0000000B0F8C400C82809DCFFE740F6C02039
:108B0000C2F20000B0F8C400002808DCFFE740F61D
:108B1000C020C2F200001421A0F8C410FFE740F604
:108B2000C020C2F20000B0F8C600B0F57A7F01DACA
:108B3000FFE707E040F6C020C2F200003C21A0F8A9
:108B4000C610FFE740F6C020C2F20000B0F8C8002F
:108B5000B0F5FA7F09DCFFE740F6C020C2F2000062
:108B6000B0F8C800632808DCFFE740F6C020C2F276
:108B700000006421A0F8C810FFE740F6C020C2F250
:108B80000000B0F8CA00C82809DCFFE740F6C020A2
:108B9000C2F20000B0F8CA00002808DCFFE740F687
:108BA000C020C2F200001421A0F8CA10FFE740F66E
:108BB000C020C2F20000B0F8CC00B0F57A7F01DA34
:108BC000FFE707E040F6C020C2F200003C21A0F819
:108BD000CC10FFE740F6C020C2F20000B0F8CE0093
:108BE000B0F5FA7F09DCFFE740F6C020C2F20000D2
:108BF000B0F8CE00632808DCFFE740F6C020C2F2E0
:108C000000006421A0F8CE10FFE740F6C020C2F2B9
:108C10000000B0F8D000C82809DCFFE740F6C0200B
:108C2000C2F20000B0F8D000002808DCFFE740F6F0
:108C3000C020C2F200001421A0F8D010FFE740F6D7
:108C4000C020C2F20000B0F8D200B0F57A7F01DA9D
:108C5000FFE707E040F6C020C2F200003C21A0F888
:108C6000D210FFE740F6C020C2F20000B0F8D400F6
:108C7000B0F5FA7F09DCFFE740F6C020C2F2000041
:108C8000B0F8D400632808DCFFE740F6C020C2F249
:108C900000006421A0F8D410FFE740F6C020C2F223
:108CA0000000B0F8D600C82809DCFFE740F6C02075
:108CB000C2F20000B0F8D600002808DCFFE740F65A
:108CC000C020C2F200001421A0F8D610FFE740F641
:108CD000C020C2F20000B0F8D800B0F57A7F01DA07
:108CE000FFE707E040F6C020C2F200003C21A0F8F8
:108CF000D810FFE740F6C020C2F20000B0F8DA005A
:108D0000B0F5FA7F09DCFFE740F6C020C2F20000B0
:108D1000B0F8DA00632808DCFFE740F6C020C2F2B2
:108D200000006421A0F8DA10FFE740F6C020C2F28C
:108D30000000B0F8DC00C82809DCFFE740F6C020DE
:108D4000C2F20000B0F8DC00002808DCFFE740F6C3
:108D5000C020C2F200001421A0F8DC10FFE740F6AA
:108D6000C020C2F20000B0F8DE00B0F57A7F01DA70
:108D7000FFE707E040F6C020C2F200003C21A0F867
:108D8000DE10FFE740F6C020C2F20000B0F8E000BD
:108D9000B0F5FA7F09DCFFE740F6C020C2F2000020
:108DA000B0F8E000632808DCFFE740F6C020C2F21C
:108DB00000006421A0F8E010FFE740F6C020C2F2F6
:108DC0000000B0F8E200C82809DCFFE740F6C02048
:108DD000C2F20000B0F8E200002808DCFFE740F62D
:108DE000C020C2F200001421A0F8E210FFE740F614
:108DF000C020C2F20000B0F8E400B0F57A7F01DADA
:108E0000FFE707E040F6C020C2F200003C21A0F8D6
:108E1000E410FFE740F6C020C2F20000B0F8E60020
:108E2000B0F5FA7F09DCFFE740F6C020C2F200008F
:108E3000B0F8E600632808DCFFE740F6C020C2F285
:108E400000006421A0F8E610FFE740F6C020C2F25F
:108E50000000B0F8E800C82809DCFFE740F6C020B1
:108E6000C2F20000B0F8E800002808DCFFE740F696
:108E7000C020C2F200001421A0F8E810FFE740F67D
:108E8000C020C2F20000B0F8EA00B0F57A7F01DA43
:108E9000FFE707E040F6C020C2F200003C21A0F846
:108EA000EA10FFE740F6C020C2F20000B0F8EC0084
:108EB000B0F5FA7F09DCFFE740F6C020C2F20000FF
:108EC000B0F8EC00632808DCFFE740F6C020C2F2EF
:108ED00000006421A0F8EC10FFE740F6C020C2F2C9
:108EE0000000B0F8EE00C82809DCFFE740F6C0201B
:108EF000C2F20000B0F8EE00002808DCFFE740F600
:108F0000C020C2F200001421A0F8EE10FFE740F6E6
:108F1000C020C2F20000B0F8F000B0F57A7F01DAAC
:108F2000FFE707E040F6C020C2F200003C21A0F8B5
:108F3000F010FFE740F6C020C2F20000B0F8F200E7
:108F4000B0F5FA7F09DCFFE740F6C020C2F200006E
:108F5000B0F8F200632808DCFFE740F6C020C2F258
:108F600000006421A0F8F210FFE740F6C020C2F232
:108F70000000B0F8F400C82809DCFFE740F6C02084
:108F8000C2F20000B0F8F400002808DCFFE740F669
:108F9000C020C2F200001421A0F8F410FFE740F650
:108FA000C020C2F20000B0F8F600B0F57A7F01DA16
:108FB000FFE707E040F6C020C2F200003C21A0F825
:108FC000F610FFE740F6C020C2F20000B0F8F8004B
:108FD000B0F5FA7F09DCFFE740F6C020C2F20000DE
:108FE000B0F8F800632808DCFFE740F6C020C2F2C2
:108FF00000006421A0F8F810FFE740F6C020C2F29C
:109000000000B0F8FA00C82809DCFFE740F6C020ED
:10901000C2F20000B0F8FA00002808DCFFE740F6D2
:10902000C020C2F200001421A0F8FA10FFE740F6B9
:10903000C020C2F20000B0F8FC00B0F57A7F01DA7F
:10904000FFE707E040F6C020C2F200003C21A0F894
:10905000FC10FFE740F6C020C2F20000B0F8FE00AE
:10906000B0F5FA7F09DCFFE740F6C020C2F200004D
:10907000B0F8FE00632808DCFFE740F6C020C2F22B
:1090800000006421A0F8FE10FFE740F6C020C2F205
:109090000000B0F80001C82809DCFFE740F6C02056
:1090A000C2F20000B0F80001002808DCFFE740F63B
:1090B000C020C2F200001421A0F80011FFE740F622
:1090C000C020C2F20000B0F80201B0F57A7F01DAE8
:1090D000FFE707E040F6C020C2F200003C21A0F804
:1090E0000211FFE740F6C020C2F20000B0F8040110
:1090F000B0F5FA7F09DCFFE740F6C020C2F20000BD
:10910000B0F80401632808DCFFE740F6C020C2F293
:1091100000006421A0F80411FFE740F6C020C2F26D
:109120000000B0F80601C82809DCFFE740F6C020BF
:10913000C2F20000B0F80601002808DCFFE740F6A4
:10914000C020C2F200001421A0F80611FFE740F68B
:10915000C020C2F20000B0F80801B0F57A7F01DA51
:10916000FFE707E040F6C020C2F200003C21A0F873
:109170000811FFE740F6C020C2F20000B0F80A0173
:10918000B0F5FA7F09DCFFE740F6C020C2F200002C
:10919000B0F80A01632808DCFFE740F6C020C2F2FD
:1091A00000006421A0F80A11FFE740F6C020C2F2D7
:1091B0000000B0F80C01C82809DCFFE740F6C02029
:1091C000C2F20000B0F80C01002808DCFFE740F60E
:1091D000C020C2F200001421A0F80C11FFE740F6F5
:1091E000C020C2F20000B0F80E01B0F57A7F01DABB
:1091F000FFE707E040F6C020C2F200003C21A0F8E3
:109200000E11FFE740F6C020C2F20000B0F81001D6
:10921000B0F5FA7F09DCFFE740F6C020C2F200009B
:10922000B0F81001632808DCFFE740F6C020C2F266
:1092300000006421A0F81011FFE740F6C020C2F240
:109240000000B0F81201C82809DCFFE740F6C02092
:10925000C2F20000B0F81201002808DCFFE740F677
:10926000C020C2F200001421A0F81211FFE740F65E
:10927000C020C2F20000B0F81401B0F57A7F01DA24
:10928000FFE707E040F6C020C2F200003C21A0F852
:109290001411FFE740F6C020C2F20000B0F816013A
:1092A000B0F5FA7F09DCFFE740F6C020C2F200000B
:1092B000B0F81601632808DCFFE740F6C020C2F2D0
:1092C00000006421A0F81611FFE740F6C020C2F2AA
:1092D0000000B0F81801C82809DCFFE740F6C020FC
:1092E000C2F20000B0F81801002808DCFFE740F6E1
:1092F000C020C2F200001421A0F81811FFE740F6C8
:10930000C020C2F20000B0F81A01B0F57A7F01DA8D
:10931000FFE707E040F6C020C2F200003C21A0F8C1
:109320001A11FFE740F6C020C2F20000B0F81C019D
:10933000B0F5FA7F09DCFFE740F6C020C2F200007A
:10934000B0F81C01632808DCFFE740F6C020C2F239
:1093500000006421A0F81C11FFE740F6C020C2F213
:109360000000B0F81E01C82809DCFFE740F6C02065
:10937000C2F20000B0F81E01002808DCFFE740F64A
:10938000C020C2F200001421A0F81E11FFE740F631
:10939000C020C2F20000B0F82001B0F57A7F01DAF7
:1093A000FFE707E040F6C020C2F200003C21A0F831
:1093B0002011FFE740F6C020C2F20000018A40F20F
:1093C000AA12C2F200021180817D40F2AC12C2F2F8
:1093D00000021180017E40F2AE12C2F20002118042
:1093E000018D40F2B012C2F200021180418C40F2B5
:1093F000B212C2F200021180818C40F2B412C2F2A9
:1094000000021180B0F86C1040F2B612C2F20002F5
:10941000118090F8301040F2B812C2F200021170C0
:1094200090F8311040F2B912C2F20002117090F8B7
:10943000321040F2BA12C2F20002117090F83310EA
:1094400040F2BB12C2F20002117090F8341040F2E8
:10945000BC12C2F20002117090F8351040F2BD1239
:10946000C2F20002117090F8371040F2BE12C2F240
:109470000002117090F8381040F2BF12C2F20002E0
:10948000117090F8391040F2C012C2F2000211704F
:10949000B0F8741040F2C212C2F200021180B0F8AB
:1094A000761040F2C412C2F200021180B0F87810B7
:1094B00040F2C612C2F200021180B0F87A1040F2F7
:1094C000C812C2F200021180B0F87C1040F2CA1239
:1094D000C2F200021180B0F87E1040F2CC12C2F24B
:1094E00000021180B0F8801040F2CE12C2F20002E9
:1094F0001180B0F8821040F2D012C2F20002118046
:10950000B0F8841040F2D212C2F200021180B0F81A
:10951000861040F2D412C2F200021180B0F8881016
:1095200040F2D612C2F200021180B0F88A1040F266
:10953000D812C2F200021180B0F88C1040F2DA1298
:10954000C2F200021180B0F88E1040F2DC12C2F2BA
:1095500000021180B0F8901040F2DE12C2F2000258
:109560001180B0F8921040F2E012C2F200021180B5
:10957000B0F8941040F2E212C2F200021180B0F88A
:10958000961040F2E412C2F200021180B0F8981076
:1095900040F2E612C2F200021180B0F89A1040F2D6
:1095A000E812C2F200021180B0F89C1040F2EA12F8
:1095B000C2F200021180B0F89E1040F2EC12C2F22A
:1095C00000021180B0F8A01040F2EE12C2F20002C8
:1095D0001180B0F8A21040F2F012C2F20002118025
:1095E000B0F8A41040F2F212C2F200021180B0F8FA
:1095F000A61040F2F412C2F200021180B0F8A810D6
:1096000040F2F612C2F200021180B0F8AA1040F245
:10961000F812C2F200021180B0F8AC1040F2FA1257
:10962000C2F200021180B0F8AE1040F2FC12C2F299
:1096300000021180B0F8B01040F2FE12C2F2000237
:109640001180B0F8B21040F20022C2F20002118084
:10965000B0F8B41040F20222C2F200021180B0F859
:10966000B61040F20422C2F200021180B0F8B81025
:1096700040F20622C2F200021180B0F8BA1040F2A5
:109680000822C2F200021180B0F8BC1040F20A2297
:10969000C2F200021180B0F8BE1040F20C22C2F2F9
:1096A00000021180B0F8C01040F20E22C2F2000297
:1096B0001180B0F8C21040F21022C2F200021180F4
:1096C000B0F8C41040F21222C2F200021180B0F8C9
:1096D000C61040F21422C2F200021180B0F8C81085
:1096E00040F21622C2F200021180B0F8CA1040F215
:1096F0001822C2F200021180B0F8CC1040F21A22F7
:10970000C2F200021180B0F8CE1040F21C22C2F268
:1097100000021180B0F8D01040F21E22C2F2000206
:109720001180B0F8D21040F22022C2F20002118063
:10973000B0F8D41040F22222C2F200021180B0F838
:10974000D61040F22422C2F200021180B0F8D810E4
:1097500040F22622C2F200021180B0F8DA1040F284
:109760002822C2F200021180B0F8DC1040F22A2256
:10977000C2F200021180B0F8DE1040F22C22C2F2D8
:1097800000021180B0F8E01040F22E22C2F2000276
:109790001180B0F8E21040F23022C2F200021180D3
:1097A000B0F8E41040F23222C2F200021180B0F8A8
:1097B000E61040F23422C2F200021180B0F8E81044
:1097C00040F23622C2F200021180B0F8EA1040F2F4
:1097D0003822C2F200021180B0F8EC1040F23A22B6
:1097E000C2F200021180B0F8EE1040F23C22C2F248
:1097F00000021180B0F8F01040F23E22C2F20002E6
:109800001180B0F8F21040F24022C2F20002118042
:10981000B0F8F41040F24222C2F200021180B0F817
:10982000F61040F24422C2F200021180B0F8F810A3
:1098300040F24622C2F200021180B0F8FA1040F263
:109840004822C2F200021180B0F8FC1040F24A2215
:10985000C2F200021180B0F8FE1040F24C22C2F2B7
:1098600000021180B0F8001140F24E22C2F2000254
:109870001180B0F8021140F25022C2F200021180B1
:10988000B0F8041140F25222C2F200021180B0F886
:10989000061140F25422C2F200021180B0F8081101
:1098A00040F25622C2F200021180B0F80A1140F2D2
:1098B0005822C2F200021180B0F80C1140F25A2274
:1098C000C2F200021180B0F80E1140F25C22C2F226
:1098D00000021180B0F8101140F25E22C2F20002C4
:1098E0001180B0F8121140F26022C2F20002118021
:1098F000B0F8141140F26222C2F200021180B0F8F6
:10990000161140F26422C2F200021180B0F8181160
:1099100040F26622C2F200021180B0F81A1140F241
:109920006822C2F200021180B0F81C1140F26A22D3
:10993000C2F200021180B0F81E1140F26C22C2F295
:1099400000021180B0F8201140F26E22C2F2000233
:10995000118040F27321C2F2000101220A700270EC
:1099600007E040F2A810C2F200000121017002F0ED
:1099700070B802F06EB840F2AA10C2F2000000887F
:1099800040F6C021C2F20001098A884240F0ED850C
:10999000FFE740F2AC10C2F20000008840F6C021A0
:1099A000C2F20001897D884240F0DF85FFE740F286
:1099B000AE10C2F20000008840F6C021C2F20001E1
:1099C000097E884240F0D185FFE740F2B010C2F234
:1099D0000000008840F6C021C2F20001B1F9281051
:1099E000884240F0C285FFE740F2B210C2F20000A8
:1099F000008840F6C021C2F20001498C884240F044
:109A0000B485FFE740F2B410C2F20000008840F6CF
:109A1000C021C2F20001898C884240F0A685FFE790
:109A200040F2B610C2F20000008840F6C021C2F237
:109A30000001B1F86C10884240F09785FFE740F2D2
:109A4000B810C2F20000007840F6C021C2F2000156
:109A500091F83010884240F08885FFE740F2B91055
:109A6000C2F20000007840F6C021C2F2000191F875
:109A70003110884240F07985FFE740F2BA10C2F217
:109A80000000007840F6C021C2F2000191F83210C7
:109A9000884240F06A85FFE740F2BB10C2F2000046
:109AA000007840F6C021C2F2000191F833108842DC
:109AB00040F05B85FFE740F2BC10C2F20000007886
:109AC00040F6C021C2F2000191F83410884240F003
:109AD0004C85FFE740F2BD10C2F20000007840F66E
