:020000040800F2
:10400000681900208541000879C4000825B9000816
:1040100075C40008394C00088D2801080000000014
:1040200000000000000000000000000081250108E1
:104030003D4C000800000000750A010885250108B4
:104040009F4100089F4100089F4100089F410008D0
:104050009F4100089F4100089F4100089F410008C0
:104060009F4100089F4100089F4100089F410008B0
:104070009F4100089F4100089F4100089F410008A0
:104080009F4100089F4100089F4100089F41000890
:104090009F4100089F4100089F4100089F41000880
:1040A0009F4100089F4100089F4100089F41000870
:1040B0009F410008B52601089F4100089F41000864
:1040C0009F4100089F4100089F4100089F41000850
:1040D0009F410008D52601089F4100085527010887
:1040E000F55A00089F4100089F41000800000000A9
:1040F00000000000000000000000000000000000C0
:10410000000000009F4100089F41000800000000DF
:104110009F4100089F4100080000000000000000CF
:104120009F4100089F4100089F4100089F410008EF
:10413000000000000000000000000000000000007F
:104140000000000000000000000000009F41000887
:1041500000000000000000009F4100089F4100088F
:104160000000000000000000000000009F41000867
:10417000DFF80CD000F018FA00480047AD650108E0
:10418000681900200648804706480047FEE7FEE71A
:10419000FEE7FEE7FEE7FEE7FEE7FEE7FEE7FEE7F7
:1041A000E52501087141000830B50B4601460020A5
:1041B0002022012409E021FA02F59D4205D303FAE9
:1041C00002F5491B04FA02F52844151EA2F101026A
:1041D000F1DC30BD2DE9F05F0546002092469B469C
:1041E00088460646814640241BE02846414647460D
:1041F000224600F0FAF953465A46C01A914110D3AC
:1042000011461846224600F0E1F92D1A67EB010825
:104210004F4622460120002100F0D8F917EB000993
:104220004E41201EA4F10104DFDC484631462A46F7
:104230004346BDE8F09F2DE9FE4F804681EA03002A
:10424000C00F0C46009021F0004123F00045B8EB70
:104250000200A94105D24046214690461C460B4625
:10426000024623F00040104347D0270DC7F30A0051
:10427000C3F30A510290401A019040286BDAC3F34D
:10428000130040F4801B0098924620B10023D2EB2B
:10429000030A63EB0B0B01985946C0F140025046EC
:1042A00000F094F906460D4650465946019A00F032
:1042B000ACF910EB08006141002487EA115284EA4E
:1042C000E7731A4340D0009A62B3019A012A4FEA79
:1042D000075215DC001B61EB02014FF0004202EABD
:1042E0000752CDE90042001C41F5801132462B46B1
:1042F00000F0ACF903B0BDE8F08F40462146F9E785
:10430000001B61EB0201001C41F5801300185B41AA
:104310002018A2F5001747EB030140EAD570B61943
:104320006D4111E06D084FEA360645EAC0754FEA67
:104330000752001B61EB0201001C41F58011490886
:104340004FEA30000019514132462B4603B0BDE818
:10435000F04F00F06CB90098012240000023D0EB30
:10436000020263EBE073009821464FEAE074B8EB79
:10437000000061EB0401E9E783F000435BE781F0B3
:10438000004158E72DE9FE4F81EA030404F00044A0
:1043900021F0004100944FF0000B23F0004350EA5D
:1043A00001045ED052EA03045BD0C3F30A54C1F3A4
:1043B0000A552C44A4F2F3340194A0FB0254C1F337
:1043C000130141F48011C3F3130343F4801301FB81
:1043D000024400FB034E840A970A44EA815447EAE8
:1043E0008357A4FB076802958D0A05FB07854FEAF2
:1043F000932C04FB0C542705029D4FEA065847EA0C
:104400001637B5EB08056EEB070C870E920E47EAE0
:10441000811742EA8312A7FB0201B6EB0B0164EBA2
:1044200000042B0D43EA0C335E1844EB1C50DA46B3
:104430005146E7FB0201C5F313044FEA0B3343EA8D
:1044400014534FEA0432019C43EA0603A4F10C041E
:104450000294009CCDE900B400F0F8F803B0BDE888
:10446000F08F00200146F9E72DE9F04D81EA0304C1
:1044700004F0004B21F0004514464FF0000A23F0F1
:10448000004150EA050220D054EA01021DD0C5F3D4
:104490000A570246C5F31303C1F31300C1F30A56CA
:1044A00040F4801543F48013A7EB0608101BD64692
:1044B00008F2FD3873EB050002D308F1010801E0B2
:1044C00092185B41B8F1000F03DA00200146BDE805
:1044D000F08D00204FF48011064684460EE0171B35
:1044E00073EB050705D3121B63EB050306434CEA88
:1044F000010C49084FEA300092185B4150EA01076D
:10450000EDD152EA030012D082EA040083EA0501E9
:10451000084305D0101BAB4106D20122002306E060
:1045200000224FF0004302E06FF0010253101AEB3B
:1045300006004CEB085110EB0A0041EB0B01BDE803
:10454000F04D00F074B8C1F30A52C1F3130140F208
:10455000FF3341F480119A4202DA0020014670478D
:1045600040F233439A42A2F2334202DC524200F05C
:104570003CB800F02BB8000030B5041E71F1000407
:1045800004DB4FF00044404264EB0101141E73F160
:10459000000405DB1C464FF00043524263EB04036A
:1045A000994208BF904230BD064C074D06E0E068D6
:1045B00040F0010394E8070098471034AC42F6D36A
:1045C000FFF7DAFD80960108A0960108202A04DB97
:1045D000203A00FA02F1002070479140C2F1200316
:1045E00020FA03F3194390407047202A04DB203A55
:1045F00021FA02F00021704721FA02F3D040C2F103
:1046000020029140084319467047202A06DBCB1749
:10461000203A41FA02F043EAE07306E041FA02F37D
:10462000D040C2F12002914008431946704710B5AE
:10463000141E73F1000408DA401C41F100019218C5
:104640005B411A4301D120F0010010BD2DE9F04D6E
:1046500092469B4611B1B1FA81F202E0B0FA80F2C3
:1046600020329046FFF7B2FF04460F4640EA0A00A8
:1046700041EA0B0153465A46084313D0114653EA08
:10468000010019D0C8F140025046FFF7AEFF0546C1
:104690000E46504659464246FFF798FF084305D05C
:1046A000012004E020463946BDE8F08D0020054396
:1046B00046EAE0762C4337430A986305E40AA0EB08
:1046C00008000022FD0A44EA47540A3002D50020BF
:1046D0000146E9E7010510196941DDE908450019BE
:1046E0006941BDE8F04DA2E740EA01039B0703D012
:1046F00009E008C9121F08C0042AFAD203E011F821
:10470000013B00F8013B521EF9D27047D2B201E0E2
:1047100000F8012B491EFBD270470022F6E710B5C6
:1047200013460A4604461946FFF7F0FF204610BD1F
:10473000F0B480EA0102D40F4200B2EB410F02D282
:104740000246084611464A0042D0C30DDDB2C1F30D
:10475000C752AD1A202D35DAC1F3160141F400021B
:1047600004B15242C5F1200602FA06F12A41104472
:10477000B3EBD05F23D0C4B1012DA0EBC35009DC53
:10478000F0BC4FF0004202EAC352DBB200F5000079
:1047900000F068B9400000F1807000EBC350A0F158
:1047A000807040EAD170490009E0490841EAC071CF
:1047B000A0EBC35000F50000400800EBC350F0BC74
:1047C00000F047B96142012202EB4101001BF6E70C
:1047D000F0BC704781F00041AAE780F00040A7E7F5
:1047E00080EA010210B502F00043400022D04A00E6
:1047F0001FD0010E01EB1261C0F35600C2F3560246
:1048000040F4000042F40002A0FB022000047F39C3
:10481000140400D0401C50EA124001D44000491E4C
:10482000C2B20C0604EBD010401C4008802A02D013
:1048300003E0002010BD20F00100002900DA002074
:10484000184310BD30B480EA010202F0004530F098
:10485000004221F0004013D090B1C30DD40DC2F33B
:104860001601C0F31600E41A41F4000140F40002FE
:104870007D34914201D3641C00E04900002C02DA2F
:1048800030BC002070474FF400000023914201D358
:10489000891A034340084FEA4101F7D151B19142CF
:1048A00002D14FF0004105E002D24FF0010101E0DA
:1048B0006FF0010103EBC450284430BC00F0C9B8CC
:1048C000002801DBC0F10040002901DBC1F10041FB
:1048D000814201D80120704700207047002801DB89
:1048E000C0F10040002901DBC1F10041814201D249
:1048F0000120704700207047002801DBC0F1004014
:10490000002901DBC1F10041814201D30120704740
:1049100000207047002801DBC0F10040002901DBC6
:10492000C1F10041814201D9012070470020704748
:10493000C10F80EAE0700844CA079623002100F006
:1049400091B896230022114600F08CB80EB5C10F25
:1049500080EAE0700844CA07002140F233438DE842
:104960000E000A460B46FFF771FE03B000BD0EB500
:1049700040F2334102910021CDE900110A460B4675
:10498000FFF764FE03B000BD00F0004220F00040DD
:10499000C10DC0F3160040F400007F2901DA0020A9
:1049A0007047962903DCC1F19601C84001E09639B1
:1049B0008840002AF4D04042704720F00040C10DEA
:1049C000C0F3160040F400007F2901DA0020704790
:1049D000962903DCC1F19601C8407047963988409A
:1049E000704770B5C1F30A5201F000450024C1F3CD
:1049F000130140F2FF3341F480119A4201DA0020A2
:104A000070BD40F233439A42A2F2334203DC524279
:104A1000FFF7EBFD00E090402C43F1D0404270BD29
:104A2000C1F30A5210B5C1F3130140F2FF3341F450
:104A300080119A4201DA002010BD40F233439A42BD
:104A4000A2F2334203DC5242FFF7CFFD10BD90408B
:104A500010BD0029A8BF7047401C490008BF20F0C6
:104A60000100704710B4B0FA80FC00FA0CF050EA74
:104A7000010404BF10BC704749B1CCF1200421FAF5
:104A800004F411FA0CF118BF012121430843A3EBF0
:104A90000C01CB1D4FEA00614FEA102042BF0020FD
:104AA00010BC704700EBC35010440029A4BF10BCD9
:104AB0007047401C490008BF20F0010010BC70473F
:104AC00010B540F6E434C2F20004204611F094FE22
:104AD00004F1100011F090FE44F60000C4F2000052
:104AE000206210BD80B582B040F25000C2F20000DA
:104AF000019001980078002840F09180FFE740F293
:104B00009810C2F200000078042800F28780DFE8E5
:104B100000F00324315776000198007A012807D16C
:104B2000FFE740F29810C2F200000121017013E08B
:104B30000198007A022807D1FFE740F29810C2F2EC
:104B400000000221017006E040F29810C2F200005D
:104B500000210170FFE7FFE760E040F25000C2F281
:104B60000000C068804740F29810C2F200000321A4
:104B7000017053E040F25000C2F20000C06880476C
:104B800040F2A010C2F2000001684268013142F117
:104B9000000201604260B1F1140072F100000ED316
:104BA000FFE740F29810C2F200000421017040F2C9
:104BB000A010C2F20000002141600160FFE72DE07B
:104BC00040F2A010C2F2000001684268013142F1D7
:104BD000000201604260881E72F100000ED3FFE700
:104BE00040F2A010C2F2000000214160016040F2DA
:104BF0009810C2F2000004210170FFE70EE040F2BD
:104C00005000C2F200000069804701980021017243
:104C100040F29810C2F200000170FFE709E040F294
:104C20005000C2F200000069804701980021017223
:104C3000FFE702B080BD0000FFE7FEE7704700001D
:104C4000B0B540F6BC20C2F2000090F83000002859
:104C500040F02E82FFE740F6BC20C2F2000090F840
:104C60002F00002840F00481FFE740F6BC20C2F28C
:104C7000000090F82D00002840F0CF80FFE740F6BC
:104C8000BC20C2F2000090F84000C007002800F0ED
:104C9000C380FFE740F2CC00C2F20000007838B9D0
:104CA000FFE740F2CC00C2F2000001210170FFE7F3
:104CB00012F0B4F940F6BC21C2F20001B1F8722042
:104CC0001044486040F2CE00C2F200000088098A19
:104CD000884222D0FFE740F2CE00C2F200000088F6
:104CE00040F6BC21C2F20001098A401A1E2809DBE5
:104CF000FFE707F027FC49F25D60C0F6010014F001
:104D00000FF8FFE740F6BC20C2F20000008A40F234
:104D1000CE01C2F200010880FFE740F6BC20C2F2DB
:104D200000004168B0F92820891A008A5038814271
:104D30000AD2FFE740F6A020C2F2000045F600715B
:104D4000C4F26A71016043E040F6BC20C2F2000088
:104D500090F83A00012819D1FFE740F6BC25C2F2CD
:104D60000005288AFFF7EDFD04466868B5F92810AC
:104D7000401A3238FFF7E5FD0146204607F026FCD1
:104D800040F6A021C2F20001086020E040F6BC20FD
:104D9000C2F2000090F83A00C0B9FFE740F6BC2527
:104DA000C2F20005288AFFF7CCFD04466868B5F911
:104DB0002810401AFFF7C5FD0146204607F006FC03
:104DC00040F6A021C2F200010860FFE7FFE7FFE71D
:104DD00040F6A020C2F2000000680021FFF79AFD13
:104DE00038B9FFE740F6A020C2F2000000210160C0
:104DF000FFE740F6A020C2F200000068FFF7DDFDEB
:104E000002464FF08040002112F03EF94FF0804002
:104E1000012112F083F9FFE729E040F6BC20C2F23D
:104E2000000090F82D00012820D1FFE70A2010F0A3
:104E300095FB40F6BC21C2F20001B1F8722002EBF2
:104E40009000486040F2CC00C2F2000000210170E6
:104E500040F6A020C2F2000001604FF08040002127
:104E6000002212F011F907F06DFBFFE7FFE71EE1EA
:104E700040F6BC20C2F2000090F82F00032820D199
:104E8000FFE70A2010F06AFB40F6BC21C2F20001E5
:104E9000B1F8722002EB9000486040F2CC00C2F200
:104EA00000000021017040F6A020C2F20000016065
:104EB0004FF080400021002212F0E6F807F042FB9C
:104EC000F4E040F6BC20C2F2000090F82F00022867
:104ED00040F0EB80FFE740F6BC20C2F2000090F803
:104EE0002D00002840F0B680FFE740F6BC20C2F25B
:104EF000000090F84000C007002800F0AA80FFE7FB
:104F000040F2CC00C2F20000007838B9FFE740F26E
:104F1000CC00C2F2000001210170FFE712F07EF820
:104F200040F6BC21C2F20001B1F872201044486082
:104F300040F2CE00C2F200000088098A884222D0E6
:104F4000FFE740F2CE00C2F20000008840F6BC212C
:104F5000C2F20001098A401A1E2809DBFFE707F0A8
:104F6000F1FA49F25D60C0F6010013F0D9FEFFE7E7
:104F700040F6BC20C2F20000008A40F2CE01C2F22C
:104F800000010880FFE740F6BC20C2F20000416843
:104F9000028A408C10441E30814207D9FFE740F658
:104FA000A020C2F20000002101602EE040F6BC20EB
:104FB000C2F200004168008A503881420AD2FFE7FD
:104FC00040F6A020C2F2000045F60071C4F26A71FA
:104FD000016019E040F6BC25C2F20005288A698C00
:104FE0000844FFF7A5FC04466868B5F92810401A84
:104FF000FFF7A7FC0146204607F0E8FA40F6A0219B
:10500000C2F200010860FFE7FFE740F6A020C2F20D
:10501000000000680021FFF77DFC38B9FFE740F68B
:10502000A020C2F2000000210160FFE740F6A020AE
:10503000C2F200000068FFF7C0FC02464FF080405B
:10504000002112F021F84FF08040012112F066F8A3
:10505000FFE729E040F6BC20C2F2000090F82D00E6
:10506000012820D1FFE70A2010F078FA40F6BC2191
:10507000C2F20001B1F8722002EB9000486040F2E9
:10508000CC00C2F200000021017040F6A020C2F264
:10509000000001604FF080400021002211F0F4FF79
:1050A00007F050FAFFE7FFE7FFE7FFE7FFE711E34D
:1050B00040F6BC20C2F2000090F83000012840F019
:1050C0000883FFE740F6BC20C2F2000090F83E00E3
:1050D000002840F0FD82FFE740F6BC20C2F200004D
:1050E00090F83D00012840F0CE82FFE740F2D0006A
:1050F000C2F20000007840F6BC21C2F2000191F833
:105100003C1088420ED0FFE740F6BC20C2F20000FF
:1051100090F83C0040F2D001C2F20001087007F0A4
:1051200011FAFFE740F6BC20C2F2000090F8400000
:10513000C007002800F0A682FFE711F06FFF40F6DD
:10514000BC21C2F20001B1F872201044486091F80D
:105150006A00002840F09580FFE740F6BC20C2F2CC
:10516000000090F83C00012816D1FFE740F6BC256E
:10517000C2F20005B5F88C00FFF7E3FB044668684F
:10518000FFF7DFFB0146204607F020FA40F6A0219A
:10519000C2F20001086073E040F6BC20C2F20000D9
:1051A00090F83C00022816D1FFE740F6BC25C2F279
:1051B0000005B5F89200FFF7C4FB04466868FFF7E6
:1051C000C0FB0146204607F001FA40F6A021C2F2DA
:1051D0000001086053E040F6BC20C2F2000090F8E5
:1051E0003C00032816D1FFE740F6BC25C2F20005BB
:1051F000B5F89800FFF7A5FB04466868FFF7A1FB28
:105200000146204607F0E2F940F6A021C2F2000173
:10521000086033E040F6BC20C2F2000090F83C0089
:10522000042816D1FFE740F6BC25C2F20005B5F808
:105230009E00FFF786FB04466868FFF782FB014685
:10524000204607F0C3F940F6A021C2F20001086031
:1052500013E040F6BC20C2F2000090F83C000528A4
:105260000AD1FFE740F6BC20C2F20000002180F81E
:105270003D1080F83C10FFE7FFE7FFE7FFE7FFE79F
:10528000DCE140F6BC20C2F2000090F86A00012880
:1052900040F09580FFE740F6BC20C2F2000090F895
:1052A0003C00012816D1FFE740F6BC25C2F20005FC
:1052B000B5F8AA00FFF745FB04466868FFF741FB15
:1052C0000146204607F082F940F6A021C2F2000113
:1052D000086073E040F6BC20C2F2000090F83C0089
:1052E000022816D1FFE740F6BC25C2F20005B5F84A
:1052F000B000FFF726FB04466868FFF722FB014673
:10530000204607F063F940F6A021C2F200010860D0
:1053100053E040F6BC20C2F2000090F83C000328A5
:1053200016D1FFE740F6BC25C2F20005B5F8B6007D
:10533000FFF707FB04466868FFF703FB01462046BA
:1053400007F044F940F6A021C2F20001086033E002
:1053500040F6BC20C2F2000090F83C00042816D1B0
:10536000FFE740F6BC25C2F20005B5F8BC00FFF728
:10537000E8FA04466868FFF7E4FA0146204607F0B9
:1053800025F940F6A021C2F20001086013E040F6C2
:10539000BC20C2F2000090F83C0005280AD1FFE7CB
:1053A00040F6BC20C2F20000002180F83D1080F8D9
:1053B0003C10FFE7FFE7FFE7FFE7FFE73DE140F6CF
:1053C000BC20C2F2000090F86A00022840F09580EC
:1053D000FFE740F6BC20C2F2000090F83C00012834
:1053E00016D1FFE740F6BC25C2F20005B5F8C800AB
:1053F000FFF7A7FA04466868FFF7A3FA01462046BC
:1054000007F0E4F840F6A021C2F20001086073E062
:1054100040F6BC20C2F2000090F83C00022816D1F1
:10542000FFE740F6BC25C2F20005B5F8CE00FFF755
:1054300088FA04466868FFF784FA0146204607F0B8
:10544000C5F840F6A021C2F20001086053E040F622
:10545000BC20C2F2000090F83C00032816D1FFE700
:1054600040F6BC25C2F20005B5F8D400FFF769FA92
:1054700004466868FFF765FA0146204607F0A6F87B
:1054800040F6A021C2F20001086033E040F6BC20E3
:10549000C2F2000090F83C00042816D1FFE740F665
:1054A000BC25C2F20005B5F8DA00FFF74AFA044657
:1054B0006868FFF746FA0146204607F087F840F68D
:1054C000A021C2F20001086013E040F6BC20C2F245
:1054D000000090F83C0005280AD1FFE740F6BC2008
:1054E000C2F20000002180F83D1080F83C10FFE778
:1054F000FFE7FFE7FFE7FFE79EE040F6BC20C2F2D0
:10550000000090F86A00032840F09580FFE740F61D
:10551000BC20C2F2000090F83C00012816D1FFE741
:1055200040F6BC25C2F20005B5F8E600FFF709FA1F
:1055300004466868FFF705FA0146204607F046F87A
:1055400040F6A021C2F20001086073E040F6BC20E2
:10555000C2F2000090F83C00022816D1FFE740F6A6
:10556000BC25C2F20005B5F8EC00FFF7EAF90446E5
:105570006868FFF7E6F90146204607F027F840F68D
:10558000A021C2F20001086053E040F6BC20C2F244
:10559000000090F83C00032816D1FFE740F6BC2538
:1055A000C2F20005B5F8F200FFF7CBF904466868CF
:1055B000FFF7C7F90146204607F008F840F6A0219A
:1055C000C2F20001086033E040F6BC20C2F20000E5
:1055D00090F83C00042816D1FFE740F6BC25C2F243
:1055E0000005B5F8F800FFF7ACF904466868FFF766
:1055F000A8F90146204606F0E9FF40F6A021C2F2D4
:105600000001086013E040F6BC20C2F2000090F8F0
:105610003C0005280AD1FFE740F6BC20C2F200009A
:10562000002180F83D1080F83C10FFE7FFE7FFE71E
:10563000FFE7FFE7FFE7FFE7FFE7FFE740F6A02010
:10564000C2F2000000680021FFF764F938B9FFE7F3
:1056500040F6A020C2F2000000210160FFE740F602
:10566000A020C2F200000068FFF7A7F902464FF041
:105670008040002111F008FD4FF08040012111F021
:105680004DFDFFE723E040F6BC20C2F2000090F899
:105690003D00D8B9FFE706F055FF0A200FF05EFF86
:1056A00040F6BC21C2F20001B1F8722002EB90007A
:1056B000486040F6A020C2F20000002101604FF0D7
:1056C00080400021002211F0DFFCFFE7FFE7FFE749
:1056D000FFE7FFE7B0BD000080B50DF0CBFC40F662
:1056E000BC20C2F2000090F83000002840F0158184
:1056F000FFE740F6BC20C2F2000090F82C0018B181
:10570000FFE7012821D007E140F6BC20C2F20000EB
:1057100090F82D0040B9FFE740F6BC20C2F200002F
:10572000012180F82C1007E040F6BC20C2F20000F6
:10573000002180F82C10FFE740F6BC20C2F20000E8
:10574000002180F82010C183E6E040F6BC20C2F2C0
:10575000000090F82F0050B1FFE740F6BC20C2F2E5
:10576000000090F82F00022840F0CA80FFE740F6C2
:10577000BC20C2F2000090F82F00022811D1FFE7F0
:1057800040F6BC20C2F2000090F82D00012808D19C
:10579000FFE740F6BC20C2F20000002180F82F1085
:1057A000FFE740F6BC20C2F2000040682E280AD372
:1057B000FFE740F6BC20C2F20000406840F28A21B8
:1057C000884265D3FFE740F6BC20C2F2000090F8A3
:1057D0002D0000285CD1FFE740F6BC20C2F200009B
:1057E000C18B0131C183C08B4B2818DBFFE740F62A
:1057F000BC20C2F20000406840F28A2188420DD3EA
:10580000FFE740F6BC20C2F20000032180F82E1012
:10581000012180F820100021C1837DE0FFE740F6E0
:10582000BC20C2F20000C08B962830DBFFE740F6B8
:10583000BC20C2F2000040682D280DD8FFE740F6DA
:10584000BC20C2F20000022180F82E10012180F855
:1058500020100021C1835FE040F6BC20C2F20000AE
:10586000C068952808D8FFE740F6BC20C2F20000C7
:10587000012180F82E10FFE7FFE740F6BC20C2F2BE
:105880000000012180F820100021C18344E006E0DF
:1058900040F6BC20C2F200000021C183FFE740F6C1
:1058A000BC20C2F2000090F82D00012827D1FFE7AC
:1058B00040F6BC20C2F20000406846281ED8FFE730
:1058C00040F6BC20C2F20000818B01318183808BC5
:1058D000652812DBFFE740F6BC20C2F20000002181
:1058E00080F82C10818340F25001C2F200010222A4
:1058F0000A72012180F820100EE0FFE7FFE70AE0BE
:1059000040F6BC20C2F2000090F82F00032801D11D
:10591000FFE7FFE7FFE7FFE7B7E040F6BC20C2F292
:10592000000090F83000012840F0AE80FFE740F61C
:10593000BC20C2F2000090F83D00012840F0A38096
:10594000FFE740F6BC20C2F2000090F83E000028BD
:1059500040F09880FFE740F6BC20C2F200004068AB
:105960002E2812D3FFE740F6BC20C2F200004068A8
:1059700040F28921884208D8FFE740F6BC20C2F2F5
:105980000000C068952875D8FFE740F6BC20C2F239
:10599000000090F82D0000286CD1FFE740F6BC20F5
:1059A000C2F20000C18B0131C183C08B4B2820DBC8
:1059B000FFE740F6BC20C2F20000406840F28A21B6
:1059C000884215D3FFE740F6BC20C2F20000C06851
:1059D00096280DD3FFE740F6BC20C2F20000032159
:1059E00080F82E10012180F820100021C183FFE7EC
:1059F000FFE740F6BC20C2F20000C08B962838DBDF
:105A0000FFE740F6BC20C2F2000040682D2815D800
:105A1000FFE740F6BC20C2F20000C06896280DD314
:105A2000FFE740F6BC20C2F20000022180F82E10F1
:105A3000012180F820100021C18310E040F6BC2035
:105A4000C2F20000C068952808D8FFE740F6BC20E5
:105A5000C2F20000012180F82E10FFE7FFE740F6B8
:105A6000BC20C2F20000012180F820100021C18377
:105A7000FFE706E040F6BC20C2F200000021C1832F
:105A8000FFE7FFE7FFE7FFE7FFE780BD82B0019098
:105A9000019808B9FFE72BE00198002101700198F7
:105AA00042F69102C0F60102C0F80428019840F6BF
:105AB0007922C0F60102C0F808280091FFE700989B
:105AC000B0F5806F0FDAFFE70198009908440021D4
:105AD00080F802140198009A10444170FFE7009882
:105AE00001300090EBE70198002180F80114FFE7F6
:105AF00002B0704780B50EF037FE28B1FFE70EF018
:105B000027FEFFF79DF8FFE780BD000082B00190FF
:105B100041F24050C2F20000007818B9FFE70020BF
:105B200000900FE00198C0F3C62141F2C042C2F2DA
:105B30000002515CC0F3022021FA00F000F00100E5
:105B40000090FFE7009802B07047000080B586B073
:105B500041F24050C2F2000080690390FFE700F07C
:105B6000BFFA04900498039988422CD2FFE7EFF320
:105B7000108005900598029072B641F24050C2F232
:105B80000000806901900198039988420ED1FFE7D7
:105B9000049841F24051C2F2000188610869013065
:105BA0000861BFF35F8F0120009002E000200090A9
:105BB000FFE7029810B9FFE762B6FFE7009808B95F
:105BC000FFE701E008E0FFE7049903A80DF0BAF948
:105BD0000028C4D0FFE7FFE7049806B080BD0000AE
:105BE00080B58CB04FF60061C0F20201099141F21C
:105BF000B001C2F2000108910790089820B1FFE7B8
:105C00000798812803D3FFE700200A90AEE00998A7
:105C1000FFF77CFF18B9FFE701200A90A6E0FFF725
:105C200095FF0590BDF824000990EFF305800B90D7
:105C30000B98099941F40022002818BF11460991D8
:105C400008980690079850B9FFE70998059900222F
:105C5000002300F08DF8019001980A9086E00798E3
:105C600008281BD8FFE70020029003900699079AA6
:105C700002A8FEF739FD079800F00700099941EAEC
:105C800000400990099840F040700599029A039BE2
:105C900000F06EF8019001980A9067E005F034FE7C
:105CA0004FF4E02101EA0040049006980168406842
:105CB00003900291069808300690079808380790DC
:105CC0000498099908430990099840F08070059953
:105CD000029A039B00F04CF80190019818B9FFE775
:105CE00000200A9042E004984FF6017108430990A1
:105CF000FFE7079809281CD3FFE70698016840686A
:105D0000039002910698083006900798083807908B
:105D100009980599029A039B00F02AF801900998C6
:105D200001300990019818B9FFE700200A901DE0A2
:105D3000DFE70020029003900699079A02A8FEF779
:105D4000D3FC099820F47F4009900798099941EA0B
:105D500000200990099840F000700599029A039B71
:105D600000F006F8019001980A90FFE70CB080BDA2
:105D700080B58CB00A90099108920793072005908E
:105D8000FFE70598002863D0FFE705F0C1FD049008
:105D9000049800F03F0041F2C001C2F2000101EBA3
:105DA0000010069004984FF4700101EA80300190D1
:105DB0000A980199084309994FF0805202EAD101EB
:105DC000084308994FF0005202EA910108430799ED
:105DD0004FF0804202EA5101084340F00060039016
:105DE00006980C30039906F0FDFA03909DF80F0019
:105DF0004007002827D5FFE7039880F00040039074
:105E0000039800F000400290099820F000400299A9
:105E1000084306990860089820F00040029908435A
:105E200006994860079820F00040029908430699B7
:105E3000886006980C3003990CF010FD05F07EFD8B
:105E400001200B9009E0FFE705980138059098E7DD
:105E500005F06AFD00200B90FFE70B980CB080BDA9
:105E600087B00590049103920498FE2804D8FFE7B8
:105E70000398FF2803D3FFE70020069036E00020B8
:105E800002900190FFE7019803282CD8FFE70598BE
:105E90000199C840C007F0B1FFE704980090FFE700
:105EA00000980399884215D8FFE7009800F0070191
:105EB000012202FA01F1029A02EBD00041F2C04243
:105EC000C2F20002135C19431154FFE7009801303D
:105ED0000090E5E7FFE7029820300290FFE7019885
:105EE00001300190CFE701200690FFE707B070472F
:105EF00010B588B0002007900121069141F240546E
:105F0000C2F20004207041F2C040C2F200008021C1
:105F1000FEF703FC0DF046FEADF81200206A42F2D7
:105F20006B71CEF2A51188420FD0FFE741F24050CD
:105F3000C2F2000042F26B71CEF2A5110162BDF80F
:105F4000121041800121C1611CE041F24050C2F2B7
:105F500000004088BDF8121088420AD0FFE7BDF863
:105F6000120041F24051C2F2000148800120C86194
:105F700007E041F24050C2F20000C1690131C16145
:105F8000FFE7FFE741F24050C2F20000C06901287C
:105F900012D1FFE741F24050C2F2000000214170EF
:105FA00041608160C16041F2C000C2F200004FF464
:105FB0008061FEF7B2FB20E000200090FFE7009830
:105FC0003F2819D8FFE7009841F2C001C2F2000152
:105FD00001EB001005900598C07B4007002806D50E
:105FE000FFE70598C16821F04061C160FFE7FFE766
:105FF000009801300090E2E7FFE741F24050C2F222
:106000000000C069012818D1FFE700F075F80120F1
:106010000290029820B1FFE700F068F8039002E0D8
:1060200000200390FFE7039841F24051C2F20001C3
:10603000486100208861086104E000F05DF80120FB
:106040000290FFE7029830B3FFE707980021FE2295
:10605000FFF706FF0F20EF21EF22FFF701FF0420DB
:10606000FE21FE22FFF7FCFEFFF770FD0190019973
:1060700041F24050C2F200004369C2694FF600701D
:10608000C0F20030FFF774FE069818B1FFE700F089
:1060900005F8FFE7FFE708B010BD000010B582B0BB
:1060A00041F24050C2F20000007818B1FFE7012031
:1060B000019013E041F24050C2F20000012404704C
:1060C000FFF744FD009000994FF60170C0F20030D8
:1060D00000220023FFF74CFE0194FFE702B010BD41
:1060E00041F20400CEF200000068704740F29000D8
:1060F000C2F20000006870474EF6FC50CEF200007D
:10610000016841F08071016041F20000CEF20000B0
:10611000016841F0010101607047000070B581B075
:1061200040F6BC20C2F200000090009900200870E8
:10613000009948600099C860009AC8211182009BAC
:1061400032229A75009B1A76009B4FF0280EA3F816
:106150001AE0009B9883009BD883009B83F8200063
:10616000009B012483F82C40009B83F82D00009BAA
:1061700083F82E00009B5A84009B4FF03C0CA3F840
:1061800024C0009BD884009B83F83B40009B83F88D
:106190003C40009B83F83000009B83F83100009B5B
:1061A00083F83240009B83F83300009B83F834402F
:1061B000009B022483F83640009B83F83700009B45
:1061C00083F83800009B83F83900009B83F83F0078
:1061D000009B83F84000009B83F84100009B312422
:1061E00083F84240009B2E2583F84350009B3026C5
:1061F00083F84460009B83F84550009B83F8466019
:10620000009B83F85640009B83F85750009B83F80F
:106210005860009B83F85950009B83F85A60009B9C
:1062200083F86A00009B83F86B00009C0A23A4F8A3
:106230006C30009CA4F87200009C4FF49675A4F892
:106240007450009CA4F876E0009C1E25A4F87850B9
:10625000009C4FF4A075A4F87A50009CA4F87C2010
:10626000009CA4F87EE0009E4FF4AF75A6F8805025
:10627000009EA6F882C0009EA6F88420009E4FF4DF
:10628000BE75A6F88650009E5025A6F88850009E40
:10629000A6F88AC0009C4FF0640EA4F88CE0009D24
:1062A0001424A5F88E40009DA5F890C0009DA5F887
:1062B0009210009DA5F89420009DA5F89630009DB1
:1062C000A5F89810009DA5F89A20009DA5F89C308F
:1062D000009DA5F89E10009DA5F8A020009DA5F8A2
:1062E000A230009DA5F8A410009DA5F8A620009D51
:1062F000A5F8A830009DA5F8AAE0009DA5F8AC403F
:10630000009DA5F8AEC0009DA5F8B010009DA5F8B1
:10631000B220009DA5F8B430009DA5F8B610009DF0
:10632000A5F8B820009DA5F8BA30009DA5F8BC10CE
:10633000009DA5F8BE20009DA5F8C030009DA5F8E1
:10634000C210009DA5F8C420009DA5F8C630009D90
:10635000A5F8C8E0009DA5F8CA40009DA5F8CCC0EE
:10636000009DA5F8CE10009DA5F8D020009DA5F8B1
:10637000D230009DA5F8D410009DA5F8D620009D30
:10638000A5F8D830009DA5F8DA10009DA5F8DC200E
:10639000009DA5F8DE30009DA5F8E010009DA5F851
:1063A000E220009DA5F8E430009DA5F8E6E0009D00
:1063B000A5F8E840009DA5F8EAC0009DA5F8EC10FE
:1063C000009DA5F8EE20009DA5F8F030009DA5F8F1
:1063D000F210009DA5F8F420009DA5F8F630009D70
:1063E000A5F8F810009DA5F8FA20009DA5F8FC304E
:1063F000009DA5F8FE10009DA5F80021009DA5F8C0
:106400000231009DA5F804E1009EA6F80641009E19
:10641000A6F808C1009EA6F80A11009EA6F80C2155
:10642000009EA6F80E31009EA6F81011009EA6F858
:106430001221009EA6F81431009EA6F81611009EA7
:10644000A6F81821009EA6F81A31009EA6F81C1185
:106450000099A1F81E210099A1F820310099A1F816
:10646000220101B070BD0000B0B540F2A810C2F228
:10647000000000780A2805F24682DFE810F00B00E1
:10648000181A5D207721AB2224249D2515278D28FD
:10649000052A2D2A40F26F20C2F200000078002861
:1064A00043F0FB81FFE74EF20000C0F601000DF063
:1064B00011FF4FF6FF71884200F07186FFE74FF23F
:1064C0000040C0F601000DF005FF4FF6FF71884255
:1064D00000F06586FFE74EF2CC00C0F601000FF039
:1064E0000BF840F27024C2F2000420804FF2CC403E
:1064F000C0F601000FF000F840F27221C2F2000174
:10650000088020880988884240F32483FFE74EF200
:106510000000C0F601000EF0EFFF40F6BC25C2F20D
:10652000000528824EF20200C0F601000EF0E4FFE2
:10653000A8754EF20400C0F601000EF0DDFF2876CB
:106540004EF20600C0F601000EF0D6FF28854EF28E
:10655000C800C0F601000EF0CFFF85F830004EF203
:106560000800C0F601000EF0C7FFA5F86C004EF25F
:106570000A00C0F601000EF0BFFF85F831004EF2B0
:106580000C00C0F601000EF0B7FF85F832004EF2A5
:106590000E00C0F601000EF0AFFF85F833004EF29A
:1065A0001000C0F601000EF0A7FF85F834004EF28F
:1065B0001200C0F601000EF09FFF85F835004EF284
:1065C0001400C0F601000EF097FF85F837004EF278
:1065D0001600C0F601000EF08FFF85F838004EF26D
:1065E0001800C0F601000EF087FF85F839004EF262
:1065F0001A00C0F601000EF07FFFA5F874004EF2FD
:106600001C00C0F601000EF077FFA5F876004EF2F0
:106610001E00C0F601000EF06FFFA5F878004EF2E4
:106620002000C0F601000EF067FFA5F87A004EF2D8
:106630002200C0F601000EF05FFFA5F87C004EF2CC
:106640002400C0F601000EF057FFA5F87E004EF2C0
:106650002600C0F601000EF04FFFA5F880004EF2B4
:106660002800C0F601000EF047FFA5F882004EF2A8
:106670002A00C0F601000EF03FFFA5F884004EF29C
:106680002C00C0F601000EF037FFA5F886004EF290
:106690002E00C0F601000EF02FFFA5F888004EF284
:1066A0003000C0F601000EF027FFA5F88A004EF278
:1066B0003200C0F601000EF01FFFA5F88C004EF26C
:1066C0003400C0F601000EF017FFA5F88E004EF260
:1066D0003600C0F601000EF00FFFA5F890004EF254
:1066E0003800C0F601000EF007FFA5F892004EF248
:1066F0003A00C0F601000EF0FFFEA5F894004EF23D
:106700003C00C0F601000EF0F7FEA5F896004EF230
:106710003E00C0F601000EF0EFFEA5F898004EF224
:106720004000C0F601000EF0E7FEA5F89A004EF218
:106730004200C0F601000EF0DFFEA5F89C004EF20C
:106740004400C0F601000EF0D7FEA5F89E004EF200
:106750004600C0F601000EF0CFFEA5F8A0004EF2F4
:106760004800C0F601000EF0C7FEA5F8A2004EF2E8
:106770004A00C0F601000EF0BFFEA5F8A4004EF2DC
:106780004C00C0F601000EF0B7FEA5F8A6004EF2D0
:106790004E00C0F601000EF0AFFEA5F8A8004EF2C4
:1067A0005000C0F601000EF0A7FEA5F8AA004EF2B8
:1067B0005200C0F601000EF09FFEA5F8AC004EF2AC
:1067C0005400C0F601000EF097FEA5F8AE004EF2A0
:1067D0005600C0F601000EF08FFEA5F8B0004EF294
:1067E0005800C0F601000EF087FEA5F8B2004EF288
:1067F0005A00C0F601000EF07FFEA5F8B4004EF27C
:106800005C00C0F601000EF077FEA5F8B6004EF26F
:106810005E00C0F601000EF06FFEA5F8B8004EF263
:106820006000C0F601000EF067FEA5F8BA004EF257
:106830006200C0F601000EF05FFEA5F8BC004EF24B
:106840006400C0F601000EF057FEA5F8BE004EF23F
:106850006600C0F601000EF04FFEA5F8C0004EF233
:106860006800C0F601000EF047FEA5F8C2004EF227
:106870006A00C0F601000EF03FFEA5F8C4004EF21B
:106880006C00C0F601000EF037FEA5F8C6004EF20F
:106890007004C0F6010420460EF02EFEA5F8C800D4
:1068A00020460EF029FEA5F8CA004EF27200C0F68E
:1068B00001000EF021FEA5F8CC004EF27400C0F6E7
:1068C00001000EF019FEA5F8CE004EF27600C0F6DB
:1068D00001000EF011FEA5F8D0004EF27800C0F6CF
:1068E00001000EF009FEA5F8D2004EF27A00C0F6C3
:1068F00001000EF001FEA5F8D4004EF27C00C0F6B7
:1069000001000EF0F9FDA5F8D6004EF27E00C0F6AB
:1069100001000EF0F1FDA5F8D8004EF28000C0F69F
:1069200001000EF0E9FDA5F8DA004EF28200C0F693
:1069300001000EF0E1FDA5F8DC004EF28400C0F687
:1069400001000EF0D9FDA5F8DE004EF28600C0F67B
:1069500001000EF0D1FDA5F8E0004EF28800C0F66F
:1069600001000EF0C9FDA5F8E2004EF28A00C0F663
:1069700001000EF0C1FDA5F8E4004EF28E04C0F651
:10698000010420460EF0B8FDA5F8E60020460EF002
:10699000B3FDA5F8E8004EF29000C0F601000EF03D
:1069A000ABFDA5F8EA004EF29200C0F601000EF031
:1069B000A3FDA5F8EC004EF29400C0F601000EF025
:1069C0009BFDA5F8EE004EF29600C0F601000EF019
:1069D00093FDA5F8F0004EF29800C0F601000EF00D
:1069E0008BFDA5F8F2004EF29A00C0F601000EF001
:1069F00083FDA5F8F4004EF29C00C0F601000EF0F5
:106A00007BFDA5F8F6004EF29E00C0F601000EF0E8
:106A100073FDA5F8F8004EF2A000C0F601000EF0DC
:106A20006BFDA5F8FA004EF2A200C0F601000EF0D0
:106A300063FDA5F8FC004EF2A400C0F601000EF0C4
:106A40005BFDA5F8FE004EF2A600C0F601000EF0B8
:106A500053FDA5F800014EF2A800C0F601000EF0AB
:106A60004BFDA5F802014EF2AC04C0F6010420462D
:106A70000EF042FDA5F8040120460EF03DFDA5F8FC
:106A800006014EF2AE00C0F601000EF035FDA5F88D
:106A900008014EF2B000C0F601000EF02DFDA5F881
:106AA0000A014EF2B200C0F601000EF025FDA5F875
:106AB0000C014EF2B400C0F601000EF01DFDA5F869
:106AC0000E014EF2B600C0F601000EF015FDA5F85D
:106AD00010014EF2B800C0F601000EF00DFDA5F851
:106AE00012014EF2BA00C0F601000EF005FDA5F845
:106AF00014014EF2BC00C0F601000EF0FDFCA5F83A
:106B000016014EF2BE00C0F601000EF0F5FCA5F82D
:106B100018014EF2C000C0F601000EF0EDFCA5F821
:106B20001A014EF2C200C0F601000EF0E5FCA5F815
:106B30001C014EF2C400C0F601000EF0DDFCA5F809
:106B40001E014EF2C600C0F601000EF0D5FCA5F8FD
:106B5000200122E34FF20040C0F601000EF0CCFC11
:106B600040F6BC25C2F2000528824FF20240C0F672
:106B700001000EF0C1FCA8754FF20440C0F6010000
:106B80000EF0BAFC28764FF20640C0F601000EF077
:106B9000B3FC28854FF2C840C0F601000EF0ACFCF3
:106BA00085F830004FF20840C0F601000EF0A4FC5A
:106BB000A5F86C004FF20A40C0F601000EF09CFCF4
:106BC00085F831004FF20C40C0F601000EF094FC45
:106BD00085F832004FF20E40C0F601000EF08CFC3A
:106BE00085F833004FF21040C0F601000EF084FC2F
:106BF00085F834004FF21240C0F601000EF07CFC24
:106C000085F835004FF21440C0F601000EF074FC18
:106C100085F837004FF21640C0F601000EF06CFC0C
:106C200085F838004FF21840C0F601000EF064FC01
:106C300085F839004FF21A40C0F601000EF05CFCF6
:106C4000A5F874004FF21C40C0F601000EF054FC91
:106C5000A5F876004FF21E40C0F601000EF04CFC85
:106C6000A5F878004FF22040C0F601000EF044FC79
:106C7000A5F87A004FF22240C0F601000EF03CFC6D
:106C8000A5F87C004FF22440C0F601000EF034FC61
:106C9000A5F87E004FF22640C0F601000EF02CFC55
:106CA000A5F880004FF22840C0F601000EF024FC49
:106CB000A5F882004FF22A40C0F601000EF01CFC3D
:106CC000A5F884004FF22C40C0F601000EF014FC31
:106CD000A5F886004FF22E40C0F601000EF00CFC25
:106CE000A5F888004FF23040C0F601000EF004FC19
:106CF000A5F88A004FF23240C0F601000EF0FCFB0E
:106D0000A5F88C004FF23440C0F601000EF0F4FB01
:106D1000A5F88E004FF23640C0F601000EF0ECFBF5
:106D2000A5F890004FF23840C0F601000EF0E4FBE9
:106D3000A5F892004FF23A40C0F601000EF0DCFBDD
:106D4000A5F894004FF23C40C0F601000EF0D4FBD1
:106D5000A5F896004FF23E40C0F601000EF0CCFBC5
:106D6000A5F898004FF24040C0F601000EF0C4FBB9
:106D7000A5F89A004FF24240C0F601000EF0BCFBAD
:106D8000A5F89C004FF24440C0F601000EF0B4FBA1
:106D9000A5F89E004FF24640C0F601000EF0ACFB95
:106DA000A5F8A0004FF24840C0F601000EF0A4FB89
:106DB000A5F8A2004FF24A40C0F601000EF09CFB7D
:106DC000A5F8A4004FF24C40C0F601000EF094FB71
:106DD000A5F8A6004FF24E40C0F601000EF08CFB65
:106DE000A5F8A8004FF25040C0F601000EF084FB59
:106DF000A5F8AA004FF25240C0F601000EF07CFB4D
:106E0000A5F8AC004FF25440C0F601000EF074FB40
:106E1000A5F8AE004FF25640C0F601000EF06CFB34
:106E2000A5F8B0004FF25840C0F601000EF064FB28
:106E3000A5F8B2004FF25A40C0F601000EF05CFB1C
:106E4000A5F8B4004FF25C40C0F601000EF054FB10
:106E5000A5F8B6004FF25E40C0F601000EF04CFB04
:106E6000A5F8B8004FF26040C0F601000EF044FBF8
:106E7000A5F8BA004FF26240C0F601000EF03CFBEC
:106E8000A5F8BC004FF26440C0F601000EF034FBE0
:106E9000A5F8BE004FF26640C0F601000EF02CFBD4
:106EA000A5F8C0004FF26840C0F601000EF024FBC8
:106EB000A5F8C2004FF26A40C0F601000EF01CFBBC
:106EC000A5F8C4004FF26C40C0F601000EF014FBB0
:106ED000A5F8C6004FF27044C0F6010420460EF03B
:106EE0000BFBA5F8C80020460EF006FBA5F8CA006B
:106EF0004FF27240C0F601000EF0FEFAA5F8CC0089
:106F00004FF27440C0F601000EF0F6FAA5F8CE007C
:106F10004FF27640C0F601000EF0EEFAA5F8D00070
:106F20004FF27840C0F601000EF0E6FAA5F8D20064
:106F30004FF27A40C0F601000EF0DEFAA5F8D40058
:106F40004FF27C40C0F601000EF0D6FAA5F8D6004C
:106F50004FF27E40C0F601000EF0CEFAA5F8D80040
:106F60004FF28040C0F601000EF0C6FAA5F8DA0034
:106F70004FF28240C0F601000EF0BEFAA5F8DC0028
:106F80004FF28440C0F601000EF0B6FAA5F8DE001C
:106F90004FF28640C0F601000EF0AEFAA5F8E00010
:106FA0004FF28840C0F601000EF0A6FAA5F8E20004
:106FB0004FF28A40C0F601000EF09EFAA5F8E400F8
:106FC0004FF28E44C0F6010420460EF095FAA5F863
:106FD000E60020460EF090FAA5F8E8004FF2904047
:106FE000C0F601000EF088FAA5F8EA004FF29240D0
:106FF000C0F601000EF080FAA5F8EC004FF29440C4
:10700000C0F601000EF078FAA5F8EE004FF29640B7
:10701000C0F601000EF070FAA5F8F0004FF29840AB
:10702000C0F601000EF068FAA5F8F2004FF29A409F
:10703000C0F601000EF060FAA5F8F4004FF29C4093
:10704000C0F601000EF058FAA5F8F6004FF29E4087
:10705000C0F601000EF050FAA5F8F8004FF2A0407B
:10706000C0F601000EF048FAA5F8FA004FF2A2406F
:10707000C0F601000EF040FAA5F8FC004FF2A44063
:10708000C0F601000EF038FAA5F8FE004FF2A64057
:10709000C0F601000EF030FAA5F800014FF2A8404A
:1070A000C0F601000EF028FAA5F802014FF2AC4438
:1070B000C0F6010420460EF01FFAA5F80401204690
:1070C0000EF01AFAA5F806014FF2AE40C0F6010024
:1070D0000EF012FAA5F808014FF2B040C0F6010018
:1070E0000EF00AFAA5F80A014FF2B240C0F601000C
:1070F0000EF002FAA5F80C014FF2B440C0F6010000
:107100000EF0FAF9A5F80E014FF2B640C0F60100F4
:107110000EF0F2F9A5F810014FF2B840C0F60100E8
:107120000EF0EAF9A5F812014FF2BA40C0F60100DC
:107130000EF0E2F9A5F814014FF2BC40C0F60100D0
:107140000EF0DAF9A5F816014FF2BE40C0F60100C4
:107150000EF0D2F9A5F818014FF2C040C0F60100B8
:107160000EF0CAF9A5F81A014FF2C240C0F60100AC
:107170000EF0C2F9A5F81C014FF2C440C0F60100A0
:107180000EF0BAF9A5F81E014FF2C640C0F6010094
:107190000EF0B2F9A5F82001FFE700F042BF4EF271
:1071A0000000C0F601000DF095F84FF6FF7188421F
:1071B00000F02583FFE74EF20000C0F601000EF05C
:1071C0009BF940F6BC25C2F2000528824EF202006F
:1071D000C0F601000EF090F9A8754EF20400C0F65A
:1071E00001000EF089F928764EF20600C0F6010083
:1071F0000EF082F928854EF2C800C0F601000EF0AC
:107200007BF985F830004EF20800C0F601000EF060
:1072100073F9A5F86C004EF20A00C0F601000EF0FA
:107220006BF985F831004EF20C00C0F601000EF04B
:1072300063F985F832004EF20E00C0F601000EF040
:107240005BF985F833004EF21000C0F601000EF035
:1072500053F985F834004EF21200C0F601000EF02A
:107260004BF985F835004EF21400C0F601000EF01F
:1072700043F985F837004EF21600C0F601000EF013
:107280003BF985F838004EF21800C0F601000EF008
:1072900033F985F839004EF21A00C0F601000EF0FD
:1072A0002BF9A5F874004EF21C00C0F601000EF098
:1072B00023F9A5F876004EF21E00C0F601000EF08C
:1072C0001BF9A5F878004EF22000C0F601000EF080
:1072D00013F9A5F87A004EF22200C0F601000EF074
:1072E0000BF9A5F87C004EF22400C0F601000EF068
:1072F00003F9A5F87E004EF22600C0F601000EF05C
:10730000FBF8A5F880004EF22800C0F601000EF050
:10731000F3F8A5F882004EF22A00C0F601000EF044
:10732000EBF8A5F884004EF22C00C0F601000EF038
:10733000E3F8A5F886004EF22E00C0F601000EF02C
:10734000DBF8A5F888004EF23000C0F601000EF020
:10735000D3F8A5F88A004EF23200C0F601000EF014
:10736000CBF8A5F88C004EF23400C0F601000EF008
:10737000C3F8A5F88E004EF23600C0F601000EF0FC
:10738000BBF8A5F890004EF23800C0F601000EF0F0
:10739000B3F8A5F892004EF23A00C0F601000EF0E4
:1073A000ABF8A5F894004EF23C00C0F601000EF0D8
:1073B000A3F8A5F896004EF23E00C0F601000EF0CC
:1073C0009BF8A5F898004EF24000C0F601000EF0C0
:1073D00093F8A5F89A004EF24200C0F601000EF0B4
:1073E0008BF8A5F89C004EF24400C0F601000EF0A8
:1073F00083F8A5F89E004EF24600C0F601000EF09C
:107400007BF8A5F8A0004EF24800C0F601000EF08F
:1074100073F8A5F8A2004EF24A00C0F601000EF083
:107420006BF8A5F8A4004EF24C00C0F601000EF077
:1074300063F8A5F8A6004EF24E00C0F601000EF06B
:107440005BF8A5F8A8004EF25000C0F601000EF05F
:1074500053F8A5F8AA004EF25200C0F601000EF053
:107460004BF8A5F8AC004EF25400C0F601000EF047
:1074700043F8A5F8AE004EF25600C0F601000EF03B
:107480003BF8A5F8B0004EF25800C0F601000EF02F
:1074900033F8A5F8B2004EF25A00C0F601000EF023
:1074A0002BF8A5F8B4004EF25C00C0F601000EF017
:1074B00023F8A5F8B6004EF25E00C0F601000EF00B
:1074C0001BF8A5F8B8004EF26000C0F601000EF0FF
:1074D00013F8A5F8BA004EF26200C0F601000EF0F3
:1074E0000BF8A5F8BC004EF26400C0F601000EF0E7
:1074F00003F8A5F8BE004EF26600C0F601000DF0DC
:10750000FBFFA5F8C0004EF26800C0F601000DF0C8
:10751000F3FFA5F8C2004EF26A00C0F601000DF0BC
:10752000EBFFA5F8C4004EF26C00C0F601000DF0B0
:10753000E3FFA5F8C6004EF27004C0F60104204631
:107540000DF0DAFFA5F8C80020460DF0D5FFA5F82C
:10755000CA004EF27200C0F601000DF0CDFFA5F892
:10756000CC004EF27400C0F601000DF0C5FFA5F886
:10757000CE004EF27600C0F601000DF0BDFFA5F87A
:10758000D0004EF27800C0F601000DF0B5FFA5F86E
:10759000D2004EF27A00C0F601000DF0ADFFA5F862
:1075A000D4004EF27C00C0F601000DF0A5FFA5F856
:1075B000D6004EF27E00C0F601000DF09DFFA5F84A
:1075C000D8004EF28000C0F601000DF095FFA5F83E
:1075D000DA004EF28200C0F601000DF08DFFA5F832
:1075E000DC004EF28400C0F601000DF085FFA5F826
:1075F000DE004EF28600C0F601000DF07DFFA5F81A
:10760000E0004EF28800C0F601000DF075FFA5F80D
:10761000E2004EF28A00C0F601000DF06DFFA5F801
:10762000E4004EF28E04C0F6010420460DF064FF23
:10763000A5F8E60020460DF05FFFA5F8E8004EF241
:107640009000C0F601000DF057FFA5F8EA004EF2D9
:107650009200C0F601000DF04FFFA5F8EC004EF2CD
:107660009400C0F601000DF047FFA5F8EE004EF2C1
:107670009600C0F601000DF03FFFA5F8F0004EF2B5
:107680009800C0F601000DF037FFA5F8F2004EF2A9
:107690009A00C0F601000DF02FFFA5F8F4004EF29D
:1076A0009C00C0F601000DF027FFA5F8F6004EF291
:1076B0009E00C0F601000DF01FFFA5F8F8004EF285
:1076C000A000C0F601000DF017FFA5F8FA004EF279
:1076D000A200C0F601000DF00FFFA5F8FC004EF26D
:1076E000A400C0F601000DF007FFA5F8FE004EF261
:1076F000A600C0F601000DF0FFFEA5F800014EF255
:10770000A800C0F601000DF0F7FEA5F802014EF248
:10771000AC04C0F6010420460DF0EEFEA5F804010D
:1077200020460DF0E9FEA5F806014EF2AE00C0F6C7
:1077300001000DF0E1FEA5F808014EF2B000C0F620
:1077400001000DF0D9FEA5F80A014EF2B200C0F614
:1077500001000DF0D1FEA5F80C014EF2B400C0F608
:1077600001000DF0C9FEA5F80E014EF2B600C0F6FC
:1077700001000DF0C1FEA5F810014EF2B800C0F6F0
:1077800001000DF0B9FEA5F812014EF2BA00C0F6E4
:1077900001000DF0B1FEA5F814014EF2BC00C0F6D8
:1077A00001000DF0A9FEA5F816014EF2BE00C0F6CC
:1077B00001000DF0A1FEA5F818014EF2C000C0F6C0
:1077C00001000DF099FEA5F81A014EF2C200C0F6B4
:1077D00001000DF091FEA5F81C014EF2C400C0F6A8
:1077E00001000DF089FEA5F81E014EF2C600C0F69C
:1077F00001000DF081FEA5F8200100F011BC4FF250
:107800000040C0F601000CF065FD4FF6FF718842A4
:1078100000F02483FFE74FF20040C0F601000DF0B6
:107820006BFE40F6BC25C2F2000528824FF20240F2
:10783000C0F601000DF060FEA8754FF20440C0F6DE
:1078400001000DF059FE28764FF20640C0F6010007
:107850000DF052FE28854FF2C840C0F601000DF031
:107860004BFE85F830004FF20840C0F601000DF0E5
:1078700043FEA5F86C004FF20A40C0F601000DF07F
:107880003BFE85F831004FF20C40C0F601000DF0D0
:1078900033FE85F832004FF20E40C0F601000DF0C5
:1078A0002BFE85F833004FF21040C0F601000DF0BA
:1078B00023FE85F834004FF21240C0F601000DF0AF
:1078C0001BFE85F835004FF21440C0F601000DF0A4
:1078D00013FE85F837004FF21640C0F601000DF098
:1078E0000BFE85F838004FF21840C0F601000DF08D
:1078F00003FE85F839004FF21A40C0F601000DF082
:10790000FBFDA5F874004FF21C40C0F601000DF01D
:10791000F3FDA5F876004FF21E40C0F601000DF011
:10792000EBFDA5F878004FF22040C0F601000DF005
:10793000E3FDA5F87A004FF22240C0F601000DF0F9
:10794000DBFDA5F87C004FF22440C0F601000DF0ED
:10795000D3FDA5F87E004FF22640C0F601000DF0E1
:10796000CBFDA5F880004FF22840C0F601000DF0D5
:10797000C3FDA5F882004FF22A40C0F601000DF0C9
:10798000BBFDA5F884004FF22C40C0F601000DF0BD
:10799000B3FDA5F886004FF22E40C0F601000DF0B1
:1079A000ABFDA5F888004FF23040C0F601000DF0A5
:1079B000A3FDA5F88A004FF23240C0F601000DF099
:1079C0009BFDA5F88C004FF23440C0F601000DF08D
:1079D00093FDA5F88E004FF23640C0F601000DF081
:1079E0008BFDA5F890004FF23840C0F601000DF075
:1079F00083FDA5F892004FF23A40C0F601000DF069
:107A00007BFDA5F894004FF23C40C0F601000DF05C
:107A100073FDA5F896004FF23E40C0F601000DF050
:107A20006BFDA5F898004FF24040C0F601000DF044
:107A300063FDA5F89A004FF24240C0F601000DF038
:107A40005BFDA5F89C004FF24440C0F601000DF02C
:107A500053FDA5F89E004FF24640C0F601000DF020
:107A60004BFDA5F8A0004FF24840C0F601000DF014
:107A700043FDA5F8A2004FF24A40C0F601000DF008
:107A80003BFDA5F8A4004FF24C40C0F601000DF0FC
:107A900033FDA5F8A6004FF24E40C0F601000DF0F0
:107AA0002BFDA5F8A8004FF25040C0F601000DF0E4
:107AB00023FDA5F8AA004FF25240C0F601000DF0D8
:107AC0001BFDA5F8AC004FF25440C0F601000DF0CC
:107AD00013FDA5F8AE004FF25640C0F601000DF0C0
:107AE0000BFDA5F8B0004FF25840C0F601000DF0B4
:107AF00003FDA5F8B2004FF25A40C0F601000DF0A8
:107B0000FBFCA5F8B4004FF25C40C0F601000DF09C
:107B1000F3FCA5F8B6004FF25E40C0F601000DF090
:107B2000EBFCA5F8B8004FF26040C0F601000DF084
:107B3000E3FCA5F8BA004FF26240C0F601000DF078
:107B4000DBFCA5F8BC004FF26440C0F601000DF06C
:107B5000D3FCA5F8BE004FF26640C0F601000DF060
:107B6000CBFCA5F8C0004FF26840C0F601000DF054
:107B7000C3FCA5F8C2004FF26A40C0F601000DF048
:107B8000BBFCA5F8C4004FF26C40C0F601000DF03C
:107B9000B3FCA5F8C6004FF27044C0F601042046BD
:107BA0000DF0AAFCA5F8C80020460DF0A5FCA5F82C
:107BB000CA004FF27240C0F601000DF09DFCA5F81E
:107BC000CC004FF27440C0F601000DF095FCA5F812
:107BD000CE004FF27640C0F601000DF08DFCA5F806
:107BE000D0004FF27840C0F601000DF085FCA5F8FA
:107BF000D2004FF27A40C0F601000DF07DFCA5F8EE
:107C0000D4004FF27C40C0F601000DF075FCA5F8E1
:107C1000D6004FF27E40C0F601000DF06DFCA5F8D5
:107C2000D8004FF28040C0F601000DF065FCA5F8C9
:107C3000DA004FF28240C0F601000DF05DFCA5F8BD
:107C4000DC004FF28440C0F601000DF055FCA5F8B1
:107C5000DE004FF28640C0F601000DF04DFCA5F8A5
:107C6000E0004FF28840C0F601000DF045FCA5F899
:107C7000E2004FF28A40C0F601000DF03DFCA5F88D
:107C8000E4004FF28E44C0F6010420460DF034FCAF
:107C9000A5F8E60020460DF02FFCA5F8E8004FF20D
:107CA0009040C0F601000DF027FCA5F8EA004FF265
:107CB0009240C0F601000DF01FFCA5F8EC004FF259
:107CC0009440C0F601000DF017FCA5F8EE004FF24D
:107CD0009640C0F601000DF00FFCA5F8F0004FF241
:107CE0009840C0F601000DF007FCA5F8F2004FF235
:107CF0009A40C0F601000DF0FFFBA5F8F4004FF22A
:107D00009C40C0F601000DF0F7FBA5F8F6004FF21D
:107D10009E40C0F601000DF0EFFBA5F8F8004FF211
:107D2000A040C0F601000DF0E7FBA5F8FA004FF205
:107D3000A240C0F601000DF0DFFBA5F8FC004FF2F9
:107D4000A440C0F601000DF0D7FBA5F8FE004FF2ED
:107D5000A640C0F601000DF0CFFBA5F800014FF2E0
:107D6000A840C0F601000DF0C7FBA5F802014FF2D4
:107D7000AC44C0F6010420460DF0BEFBA5F804019A
:107D800020460DF0B9FBA5F806014FF2AE40C0F653
:107D900001000DF0B1FBA5F808014FF2B040C0F6AC
:107DA00001000DF0A9FBA5F80A014FF2B240C0F6A0
:107DB00001000DF0A1FBA5F80C014FF2B440C0F694
:107DC00001000DF099FBA5F80E014FF2B640C0F688
:107DD00001000DF091FBA5F810014FF2B840C0F67C
:107DE00001000DF089FBA5F812014FF2BA40C0F670
:107DF00001000DF081FBA5F814014FF2BC40C0F664
:107E000001000DF079FBA5F816014FF2BE40C0F657
:107E100001000DF071FBA5F818014FF2C040C0F64B
:107E200001000DF069FBA5F81A014FF2C240C0F63F
:107E300001000DF061FBA5F81C014FF2C440C0F633
:107E400001000DF059FBA5F81E014FF2C640C0F627
:107E500001000DF051FBA5F82001E0E040F6BC2048
:107E6000C2F20000DC2101823C218175642202768D
:107E70000022028580F830204FF0140CA0F86CC06E
:107E800080F83120012380F8323080F8333080F8D8
:107E9000343080F8352080F8372080F8382080F89A
:107EA00039204FF49672A0F874202822A0F876208A
:107EB0001E23A0F878304FF4A073A0F87A30322354
:107EC000A0F87C30A0F87E204FF4AF72A0F880209C
:107ED000A0F88210A0F884304FF4BE72A0F886207B
:107EE0005022A0F88820A0F88A106E22A0F88C20DA
:107EF000A0F88EC0A0F89010C825A0F89250A0F865
:107F000094300A24A0F89640A0F89850A0F89A302F
:107F1000A0F89C40A0F89E50A0F8A030A0F8A24085
:107F2000A0F8A450A0F8A630A0F8A840A0F8AA2075
:107F3000A0F8ACC0A0F8AE10A0F8B050A0F8B230D5
:107F4000A0F8B440A0F8B650A0F8B830A0F8BA40F5
:107F5000A0F8BC50A0F8BE30A0F8C040A0F8C250B5
:107F6000A0F8C430A0F8C640A0F8C820A0F8CAC045
:107F7000A0F8CC10A0F8CE50A0F8D030A0F8D24095
:107F8000A0F8D450A0F8D630A0F8D840A0F8DA5025
:107F9000A0F8DC30A0F8DE40A0F8E050A0F8E23015
:107FA000A0F8E440A0F8E620A0F8E8C0A0F8EA10A5
:107FB000A0F8EC50A0F8EE30A0F8F040A0F8F25095
:107FC000A0F8F430A0F8F640A0F8F850A0F8FA3085
:107FD000A0F8FC40A0F8FE50A0F80031A0F8024143
:107FE000A0F80421A0F806C1A0F80811A0F80A51D1
:107FF000A0F80C31A0F80E41A0F81051A0F81231F1
:10800000A0F81441A0F81651A0F81831A0F81A41B0
:10801000A0F81C51A0F81E31A0F82041FFE7FFE7AF
:10802000FFE740F6BC20C2F20000008AB0F5FA7FFC
:1080300008DCFFE740F6BC20C2F20000008A63289B
:1080400008DCFFE740F6BC20C2F200004FF4967156
:108050000182FFE740F6BC20C2F20000807DC82804
:1080600008DCFFE740F6BC20C2F20000807D00285B
:1080700007DCFFE740F6BC20C2F20000502181750A
:10808000FFE740F6BC20C2F2000090F8300088B153
:10809000FFE740F6BC20C2F2000090F83000012853
:1080A00008D0FFE740F6BC20C2F20000002180F8B3
:1080B0003010FFE740F6BC20C2F2000090F831001B
:1080C00088B1FFE740F6BC20C2F2000090F8310012
:1080D000012808D0FFE740F6BC20C2F200000021D2
:1080E00080F83110FFE740F6BC20C2F2000090F8A3
:1080F0003200012810D0FFE740F6BC20C2F2000099
:1081000090F8320040B1FFE740F6BC20C2F2000018
:10811000012180F83210FFE740F6BC20C2F20000D7
:1081200090F8330088B1FFE740F6BC20C2F20000AF
:1081300090F83300012808D0FFE740F6BC20C2F2D7
:108140000000012180F83310FFE740F6BC20C2F2A6
:10815000000090F83400012819D0FFE740F6BC2059
:10816000C2F2000090F8340088B1FFE740F6BC206E
:10817000C2F2000090F83400022808D0FFE740F671
:10818000BC20C2F20000012180F83410FFE740F665
:10819000BC20C2F2000090F8350088B1FFE740F63D
:1081A000BC20C2F2000090F83500012808D0FFE79B
:1081B00040F6BC20C2F20000002180F83510FFE735
:1081C00040F6BC20C2F2000090F8370088B1FFE70B
:1081D00040F6BC20C2F2000090F83700012808D019
:1081E000FFE740F6BC20C2F20000002180F8371003
:1081F000FFE740F6BC20C2F2000090F8380080B1E2
:10820000FFE740F6BC20C2F2000090F8380040B111
:10821000FFE740F6BC20C2F20000012180F83810D0
:10822000FFE740F6BC20C2F2000090F8390080B1B0
:10823000FFE740F6BC20C2F2000090F8390040B1E0
:10824000FFE740F6BC20C2F20000002180F83910A0
:10825000FFE740F6BC20C2F20000B0F92800322847
:108260000ADCFFE740F6BC20C2F20000B0F92800AB
:1082700010F1330F07DCFFE740F6BC20C2F200002C
:1082800000210185FFE740F6BC20C2F20000B0F8F3
:108290006C00B0F57A7F01DAFFE707E040F6BC201A
:1082A000C2F200001421A0F86C10FFE740F6BC20D9
:1082B000C2F20000B0F87400B0F5FA7F09DCFFE705
:1082C00040F6BC20C2F20000B0F87400632809DC5C
:1082D000FFE740F6BC20C2F200004FF49671A0F810
:1082E0007410FFE740F6BC20C2F20000B0F8760040
:1082F000C82809DCFFE740F6BC20C2F20000B0F855
:108300007600002808DCFFE740F6BC20C2F200003F
:108310005021A0F87610FFE740F6BC20C2F2000022
:10832000B0F87800B0F57A7F01DAFFE707E040F6B1
:10833000BC20C2F200001E21A0F87810FFE740F632
:10834000BC20C2F20000B0F87A00B0F5FA7F09DC78
:10835000FFE740F6BC20C2F20000B0F87A006328C4
:1083600009DCFFE740F6BC20C2F200004FF4967132
:10837000A0F87A10FFE740F6BC20C2F20000B0F887
:108380007C00C82809DCFFE740F6BC20C2F20000F0
:10839000B0F87C00002808DCFFE740F6BC20C2F201
:1083A00000005021A0F87C10FFE740F6BC20C2F28C
:1083B0000000B0F87E00B0F57A7F01DAFFE707E051
:1083C00040F6BC20C2F200001E21A0F87E10FFE79C
:1083D00040F6BC20C2F20000B0F88000B0F5FA7F91
:1083E00009DCFFE740F6BC20C2F20000B0F88000D4
:1083F000632809DCFFE740F6BC20C2F200004FF41E
:108400009671A0F88010FFE740F6BC20C2F2000091
:10841000B0F88200C82809DCFFE740F6BC20C2F2B1
:108420000000B0F88200002808DCFFE740F6BC201E
:10843000C2F200005021A0F88210FFE740F6BC20F5
:10844000C2F20000B0F88400B0F57A7F01DAFFE7ED
:1084500007E040F6BC20C2F200001E21A0F8841004
:10846000FFE740F6BC20C2F20000B0F88600B0F58D
:10847000FA7F09DCFFE740F6BC20C2F20000B0F84A
:108480008600632809DCFFE740F6BC20C2F200004A
:108490004FF49671A0F88610FFE740F6BC20C2F2B8
:1084A0000000B0F88800C82809DCFFE740F6BC20CF
:1084B000C2F20000B0F88800002808DCFFE740F6B0
:1084C000BC20C2F200005021A0F88810FFE740F65F
:1084D000BC20C2F20000B0F88A00B0F57A7F01DA61
:1084E000FFE707E040F6BC20C2F200001E21A0F822
:1084F0008A10FFE740F6BC20C2F20000B0F88C0002
:10850000B0F5FA7F09DCFFE740F6BC20C2F20000BC
:10851000B0F88C00632808DCFFE740F6BC20C2F20C
:1085200000006421A0F88C10FFE740F6BC20C2F2E6
:108530000000B0F88E00C82809DCFFE740F6BC2038
:10854000C2F20000B0F88E00002808DCFFE740F619
:10855000BC20C2F200001421A0F88E10FFE740F604
:10856000BC20C2F20000B0F89000B0F57A7F01DACA
:10857000FFE707E040F6BC20C2F200003C21A0F873
:108580009010FFE740F6BC20C2F20000B0F8920065
:10859000B0F5FA7F09DCFFE740F6BC20C2F200002C
:1085A000B0F89200632808DCFFE740F6BC20C2F276
:1085B00000006421A0F89210FFE740F6BC20C2F250
:1085C0000000B0F89400C82809DCFFE740F6BC20A2
:1085D000C2F20000B0F89400002808DCFFE740F683
:1085E000BC20C2F200001421A0F89410FFE740F66E
:1085F000BC20C2F20000B0F89600B0F57A7F01DA34
:10860000FFE707E040F6BC20C2F200003C21A0F8E2
:108610009610FFE740F6BC20C2F20000B0F89800C8
:10862000B0F5FA7F09DCFFE740F6BC20C2F200009B
:10863000B0F89800632808DCFFE740F6BC20C2F2DF
:1086400000006421A0F89810FFE740F6BC20C2F2B9
:108650000000B0F89A00C82809DCFFE740F6BC200B
:10866000C2F20000B0F89A00002808DCFFE740F6EC
:10867000BC20C2F200001421A0F89A10FFE740F6D7
:10868000BC20C2F20000B0F89C00B0F57A7F01DA9D
:10869000FFE707E040F6BC20C2F200003C21A0F852
:1086A0009C10FFE740F6BC20C2F20000B0F89E002C
:1086B000B0F5FA7F09DCFFE740F6BC20C2F200000B
:1086C000B0F89E00632808DCFFE740F6BC20C2F249
:1086D00000006421A0F89E10FFE740F6BC20C2F223
:1086E0000000B0F8A000C82809DCFFE740F6BC2075
:1086F000C2F20000B0F8A000002808DCFFE740F656
:10870000BC20C2F200001421A0F8A010FFE740F640
:10871000BC20C2F20000B0F8A200B0F57A7F01DA06
:10872000FFE707E040F6BC20C2F200003C21A0F8C1
:10873000A210FFE740F6BC20C2F20000B0F8A4008F
:10874000B0F5FA7F09DCFFE740F6BC20C2F200007A
:10875000B0F8A400632808DCFFE740F6BC20C2F2B2
:1087600000006421A0F8A410FFE740F6BC20C2F28C
:108770000000B0F8A600C82809DCFFE740F6BC20DE
:10878000C2F20000B0F8A600002808DCFFE740F6BF
:10879000BC20C2F200001421A0F8A610FFE740F6AA
:1087A000BC20C2F20000B0F8A800B0F57A7F01DA70
:1087B000FFE707E040F6BC20C2F200003C21A0F831
:1087C000A810FFE740F6BC20C2F20000B0F8AA00F3
:1087D000B0F5FA7F09DCFFE740F6BC20C2F20000EA
:1087E000B0F8AA00632808DCFFE740F6BC20C2F21C
:1087F00000006421A0F8AA10FFE740F6BC20C2F2F6
:108800000000B0F8AC00C82809DCFFE740F6BC2047
:10881000C2F20000B0F8AC00002808DCFFE740F628
:10882000BC20C2F200001421A0F8AC10FFE740F613
:10883000BC20C2F20000B0F8AE00B0F57A7F01DAD9
:10884000FFE707E040F6BC20C2F200003C21A0F8A0
:10885000AE10FFE740F6BC20C2F20000B0F8B00056
:10886000B0F5FA7F09DCFFE740F6BC20C2F2000059
:10887000B0F8B000632808DCFFE740F6BC20C2F285
:1088800000006421A0F8B010FFE740F6BC20C2F25F
:108890000000B0F8B200C82809DCFFE740F6BC20B1
:1088A000C2F20000B0F8B200002808DCFFE740F692
:1088B000BC20C2F200001421A0F8B210FFE740F67D
:1088C000BC20C2F20000B0F8B400B0F57A7F01DA43
:1088D000FFE707E040F6BC20C2F200003C21A0F810
:1088E000B410FFE740F6BC20C2F20000B0F8B600BA
:1088F000B0F5FA7F09DCFFE740F6BC20C2F20000C9
:10890000B0F8B600632808DCFFE740F6BC20C2F2EE
:1089100000006421A0F8B610FFE740F6BC20C2F2C8
:108920000000B0F8B800C82809DCFFE740F6BC201A
:10893000C2F20000B0F8B800002808DCFFE740F6FB
:10894000BC20C2F200001421A0F8B810FFE740F6E6
:10895000BC20C2F20000B0F8BA00B0F57A7F01DAAC
:10896000FFE707E040F6BC20C2F200003C21A0F87F
:10897000BA10FFE740F6BC20C2F20000B0F8BC001D
:10898000B0F5FA7F09DCFFE740F6BC20C2F2000038
:10899000B0F8BC00632808DCFFE740F6BC20C2F258
:1089A00000006421A0F8BC10FFE740F6BC20C2F232
:1089B0000000B0F8BE00C82809DCFFE740F6BC2084
:1089C000C2F20000B0F8BE00002808DCFFE740F665
:1089D000BC20C2F200001421A0F8BE10FFE740F650
:1089E000BC20C2F20000B0F8C000B0F57A7F01DA16
:1089F000FFE707E040F6BC20C2F200003C21A0F8EF
:108A0000C010FFE740F6BC20C2F20000B0F8C20080
:108A1000B0F5FA7F09DCFFE740F6BC20C2F20000A7
:108A2000B0F8C200632808DCFFE740F6BC20C2F2C1
:108A300000006421A0F8C210FFE740F6BC20C2F29B
:108A40000000B0F8C400C82809DCFFE740F6BC20ED
:108A5000C2F20000B0F8C400002808DCFFE740F6CE
:108A6000BC20C2F200001421A0F8C410FFE740F6B9
:108A7000BC20C2F20000B0F8C600B0F57A7F01DA7F
:108A8000FFE707E040F6BC20C2F200003C21A0F85E
:108A9000C610FFE740F6BC20C2F20000B0F8C800E4
:108AA000B0F5FA7F09DCFFE740F6BC20C2F2000017
:108AB000B0F8C800632808DCFFE740F6BC20C2F22B
:108AC00000006421A0F8C810FFE740F6BC20C2F205
:108AD0000000B0F8CA00C82809DCFFE740F6BC2057
:108AE000C2F20000B0F8CA00002808DCFFE740F638
:108AF000BC20C2F200001421A0F8CA10FFE740F623
:108B0000BC20C2F20000B0F8CC00B0F57A7F01DAE8
:108B1000FFE707E040F6BC20C2F200003C21A0F8CD
:108B2000CC10FFE740F6BC20C2F20000B0F8CE0047
:108B3000B0F5FA7F09DCFFE740F6BC20C2F2000086
:108B4000B0F8CE00632808DCFFE740F6BC20C2F294
:108B500000006421A0F8CE10FFE740F6BC20C2F26E
:108B60000000B0F8D000C82809DCFFE740F6BC20C0
:108B7000C2F20000B0F8D000002808DCFFE740F6A1
:108B8000BC20C2F200001421A0F8D010FFE740F68C
:108B9000BC20C2F20000B0F8D200B0F57A7F01DA52
:108BA000FFE707E040F6BC20C2F200003C21A0F83D
:108BB000D210FFE740F6BC20C2F20000B0F8D400AB
:108BC000B0F5FA7F09DCFFE740F6BC20C2F20000F6
:108BD000B0F8D400632808DCFFE740F6BC20C2F2FE
:108BE00000006421A0F8D410FFE740F6BC20C2F2D8
:108BF0000000B0F8D600C82809DCFFE740F6BC202A
:108C0000C2F20000B0F8D600002808DCFFE740F60A
:108C1000BC20C2F200001421A0F8D610FFE740F6F5
:108C2000BC20C2F20000B0F8D800B0F57A7F01DABB
:108C3000FFE707E040F6BC20C2F200003C21A0F8AC
:108C4000D810FFE740F6BC20C2F20000B0F8DA000E
:108C5000B0F5FA7F09DCFFE740F6BC20C2F2000065
:108C6000B0F8DA00632808DCFFE740F6BC20C2F267
:108C700000006421A0F8DA10FFE740F6BC20C2F241
:108C80000000B0F8DC00C82809DCFFE740F6BC2093
:108C9000C2F20000B0F8DC00002808DCFFE740F674
:108CA000BC20C2F200001421A0F8DC10FFE740F65F
:108CB000BC20C2F20000B0F8DE00B0F57A7F01DA25
:108CC000FFE707E040F6BC20C2F200003C21A0F81C
:108CD000DE10FFE740F6BC20C2F20000B0F8E00072
:108CE000B0F5FA7F09DCFFE740F6BC20C2F20000D5
:108CF000B0F8E000632808DCFFE740F6BC20C2F2D1
:108D000000006421A0F8E010FFE740F6BC20C2F2AA
:108D10000000B0F8E200C82809DCFFE740F6BC20FC
:108D2000C2F20000B0F8E200002808DCFFE740F6DD
:108D3000BC20C2F200001421A0F8E210FFE740F6C8
:108D4000BC20C2F20000B0F8E400B0F57A7F01DA8E
:108D5000FFE707E040F6BC20C2F200003C21A0F88B
:108D6000E410FFE740F6BC20C2F20000B0F8E600D5
:108D7000B0F5FA7F09DCFFE740F6BC20C2F2000044
:108D8000B0F8E600632808DCFFE740F6BC20C2F23A
:108D900000006421A0F8E610FFE740F6BC20C2F214
:108DA0000000B0F8E800C82809DCFFE740F6BC2066
:108DB000C2F20000B0F8E800002808DCFFE740F647
:108DC000BC20C2F200001421A0F8E810FFE740F632
:108DD000BC20C2F20000B0F8EA00B0F57A7F01DAF8
:108DE000FFE707E040F6BC20C2F200003C21A0F8FB
:108DF000EA10FFE740F6BC20C2F20000B0F8EC0039
:108E0000B0F5FA7F09DCFFE740F6BC20C2F20000B3
:108E1000B0F8EC00632808DCFFE740F6BC20C2F2A3
:108E200000006421A0F8EC10FFE740F6BC20C2F27D
:108E30000000B0F8EE00C82809DCFFE740F6BC20CF
:108E4000C2F20000B0F8EE00002808DCFFE740F6B0
:108E5000BC20C2F200001421A0F8EE10FFE740F69B
:108E6000BC20C2F20000B0F8F000B0F57A7F01DA61
:108E7000FFE707E040F6BC20C2F200003C21A0F86A
:108E8000F010FFE740F6BC20C2F20000B0F8F2009C
:108E9000B0F5FA7F09DCFFE740F6BC20C2F2000023
:108EA000B0F8F200632808DCFFE740F6BC20C2F20D
:108EB00000006421A0F8F210FFE740F6BC20C2F2E7
:108EC0000000B0F8F400C82809DCFFE740F6BC2039
:108ED000C2F20000B0F8F400002808DCFFE740F61A
:108EE000BC20C2F200001421A0F8F410FFE740F605
:108EF000BC20C2F20000B0F8F600B0F57A7F01DACB
:108F0000FFE707E040F6BC20C2F200003C21A0F8D9
:108F1000F610FFE740F6BC20C2F20000B0F8F800FF
:108F2000B0F5FA7F09DCFFE740F6BC20C2F2000092
:108F3000B0F8F800632808DCFFE740F6BC20C2F276
:108F400000006421A0F8F810FFE740F6BC20C2F250
:108F50000000B0F8FA00C82809DCFFE740F6BC20A2
:108F6000C2F20000B0F8FA00002808DCFFE740F683
:108F7000BC20C2F200001421A0F8FA10FFE740F66E
:108F8000BC20C2F20000B0F8FC00B0F57A7F01DA34
:108F9000FFE707E040F6BC20C2F200003C21A0F849
:108FA000FC10FFE740F6BC20C2F20000B0F8FE0063
:108FB000B0F5FA7F09DCFFE740F6BC20C2F2000002
:108FC000B0F8FE00632808DCFFE740F6BC20C2F2E0
:108FD00000006421A0F8FE10FFE740F6BC20C2F2BA
:108FE0000000B0F80001C82809DCFFE740F6BC200B
:108FF000C2F20000B0F80001002808DCFFE740F6EC
:10900000BC20C2F200001421A0F80011FFE740F6D6
:10901000BC20C2F20000B0F80201B0F57A7F01DA9C
:10902000FFE707E040F6BC20C2F200003C21A0F8B8
:109030000211FFE740F6BC20C2F20000B0F80401C4
:10904000B0F5FA7F09DCFFE740F6BC20C2F2000071
:10905000B0F80401632808DCFFE740F6BC20C2F248
:1090600000006421A0F80411FFE740F6BC20C2F222
:109070000000B0F80601C82809DCFFE740F6BC2074
:10908000C2F20000B0F80601002808DCFFE740F655
:10909000BC20C2F200001421A0F80611FFE740F640
:1090A000BC20C2F20000B0F80801B0F57A7F01DA06
:1090B000FFE707E040F6BC20C2F200003C21A0F828
:1090C0000811FFE740F6BC20C2F20000B0F80A0128
:1090D000B0F5FA7F09DCFFE740F6BC20C2F20000E1
:1090E000B0F80A01632808DCFFE740F6BC20C2F2B2
:1090F00000006421A0F80A11FFE740F6BC20C2F28C
:109100000000B0F80C01C82809DCFFE740F6BC20DD
:10911000C2F20000B0F80C01002808DCFFE740F6BE
:10912000BC20C2F200001421A0F80C11FFE740F6A9
:10913000BC20C2F20000B0F80E01B0F57A7F01DA6F
:10914000FFE707E040F6BC20C2F200003C21A0F897
:109150000E11FFE740F6BC20C2F20000B0F810018B
:10916000B0F5FA7F09DCFFE740F6BC20C2F2000050
:10917000B0F81001632808DCFFE740F6BC20C2F21B
:1091800000006421A0F81011FFE740F6BC20C2F2F5
:109190000000B0F81201C82809DCFFE740F6BC2047
:1091A000C2F20000B0F81201002808DCFFE740F628
:1091B000BC20C2F200001421A0F81211FFE740F613
:1091C000BC20C2F20000B0F81401B0F57A7F01DAD9
:1091D000FFE707E040F6BC20C2F200003C21A0F807
:1091E0001411FFE740F6BC20C2F20000B0F81601EF
:1091F000B0F5FA7F09DCFFE740F6BC20C2F20000C0
:10920000B0F81601632808DCFFE740F6BC20C2F284
:1092100000006421A0F81611FFE740F6BC20C2F25E
:109220000000B0F81801C82809DCFFE740F6BC20B0
:10923000C2F20000B0F81801002808DCFFE740F691
:10924000BC20C2F200001421A0F81811FFE740F67C
:10925000BC20C2F20000B0F81A01B0F57A7F01DA42
:10926000FFE707E040F6BC20C2F200003C21A0F876
:109270001A11FFE740F6BC20C2F20000B0F81C0152
:10928000B0F5FA7F09DCFFE740F6BC20C2F200002F
:10929000B0F81C01632808DCFFE740F6BC20C2F2EE
:1092A00000006421A0F81C11FFE740F6BC20C2F2C8
:1092B0000000B0F81E01C82809DCFFE740F6BC201A
:1092C000C2F20000B0F81E01002808DCFFE740F6FB
:1092D000BC20C2F200001421A0F81E11FFE740F6E6
:1092E000BC20C2F20000B0F82001B0F57A7F01DAAC
:1092F000FFE707E040F6BC20C2F200003C21A0F8E6
:109300002011FFE740F6BC20C2F20000018A40F2C3
:10931000AA12C2F200021180817D40F2AC12C2F2A8
:1093200000021180017E40F2AE12C2F200021180F2
:10933000018D40F2B012C2F200021180B0F86C1040
:1093400040F2B212C2F20002118090F8301040F2E6
:10935000B412C2F20002117090F8311040F2B5124E
:10936000C2F20002117090F8321040F2B612C2F24E
:109370000002117090F8331040F2B712C2F20002EE
:10938000117090F8341040F2B812C2F2000211705D
:1093900090F8351040F2B912C2F20002117090F844
:1093A000371040F2BA12C2F20002117090F8381071
:1093B00040F2BB12C2F20002117090F8391040F274
:1093C000BC12C2F200021170B0F8741040F2BE126A
:1093D000C2F200021180B0F8761040F2C012C2F260
:1093E00000021180B0F8781040F2C212C2F20002FE
:1093F0001180B0F87A1040F2C412C2F2000211805B
:10940000B0F87C1040F2C612C2F200021180B0F82F
:109410007E1040F2C812C2F200021180B0F8801033
:1094200040F2CA12C2F200021180B0F8821040F27B
:10943000CC12C2F200021180B0F8841040F2CE12B9
:10944000C2F200021180B0F8861040F2D012C2F2CF
:1094500000021180B0F8881040F2D212C2F200026D
:109460001180B0F88A1040F2D412C2F200021180CA
:10947000B0F88C1040F2D612C2F200021180B0F89F
:109480008E1040F2D812C2F200021180B0F8901093
:1094900040F2DA12C2F200021180B0F8921040F2EB
:1094A000DC12C2F200021180B0F8941040F2DE1219
:1094B000C2F200021180B0F8961040F2E012C2F23F
:1094C00000021180B0F8981040F2E212C2F20002DD
:1094D0001180B0F89A1040F2E412C2F2000211803A
:1094E000B0F89C1040F2E612C2F200021180B0F80F
:1094F0009E1040F2E812C2F200021180B0F8A010F3
:1095000040F2EA12C2F200021180B0F8A21040F25A
:10951000EC12C2F200021180B0F8A41040F2EE1278
:10952000C2F200021180B0F8A61040F2F012C2F2AE
:1095300000021180B0F8A81040F2F212C2F200024C
:109540001180B0F8AA1040F2F412C2F200021180A9
:10955000B0F8AC1040F2F612C2F200021180B0F87E
:10956000AE1040F2F812C2F200021180B0F8B01052
:1095700040F2FA12C2F200021180B0F8B21040F2CA
:10958000FC12C2F200021180B0F8B41040F2FE12D8
:10959000C2F200021180B0F8B61040F20022C2F20E
:1095A00000021180B0F8B81040F20222C2F20002AC
:1095B0001180B0F8BA1040F20422C2F20002118009
:1095C000B0F8BC1040F20622C2F200021180B0F8DE
:1095D000BE1040F20822C2F200021180B0F8C010A2
:1095E00040F20A22C2F200021180B0F8C21040F22A
:1095F0000C22C2F200021180B0F8C41040F20E2218
:10960000C2F200021180B0F8C61040F21022C2F27D
:1096100000021180B0F8C81040F21222C2F200021B
:109620001180B0F8CA1040F21422C2F20002118078
:10963000B0F8CC1040F21622C2F200021180B0F84D
:10964000CE1040F21822C2F200021180B0F8D01001
:1096500040F21A22C2F200021180B0F8D21040F299
:109660001C22C2F200021180B0F8D41040F21E2277
:10967000C2F200021180B0F8D61040F22022C2F2ED
:1096800000021180B0F8D81040F22222C2F200028B
:109690001180B0F8DA1040F22422C2F200021180E8
:1096A000B0F8DC1040F22622C2F200021180B0F8BD
:1096B000DE1040F22822C2F200021180B0F8E01061
:1096C00040F22A22C2F200021180B0F8E21040F209
:1096D0002C22C2F200021180B0F8E41040F22E22D7
:1096E000C2F200021180B0F8E61040F23022C2F25D
:1096F00000021180B0F8E81040F23222C2F20002FB
:109700001180B0F8EA1040F23422C2F20002118057
:10971000B0F8EC1040F23622C2F200021180B0F82C
:10972000EE1040F23822C2F200021180B0F8F010C0
:1097300040F23A22C2F200021180B0F8F21040F278
:109740003C22C2F200021180B0F8F41040F23E2236
:10975000C2F200021180B0F8F61040F24022C2F2CC
:1097600000021180B0F8F81040F24222C2F200026A
:109770001180B0F8FA1040F24422C2F200021180C7
:10978000B0F8FC1040F24622C2F200021180B0F89C
:10979000FE1040F24822C2F200021180B0F800111F
:1097A00040F24A22C2F200021180B0F8021140F2E7
:1097B0004C22C2F200021180B0F8041140F24E2295
:1097C000C2F200021180B0F8061140F25022C2F23B
:1097D00000021180B0F8081140F25222C2F20002D9
:1097E0001180B0F80A1140F25422C2F20002118036
:1097F000B0F80C1140F25622C2F200021180B0F80B
:109800000E1140F25822C2F200021180B0F810117D
:1098100040F25A22C2F200021180B0F8121140F256
:109820005C22C2F200021180B0F8141140F25E22F4
:10983000C2F200021180B0F8161140F26022C2F2AA
:1098400000021180B0F8181140F26222C2F2000248
:109850001180B0F81A1140F26422C2F200021180A5
:10986000B0F81C1140F26622C2F200021180B0F87A
:109870001E1140F26822C2F200021180B0F82011DD
:1098800040F26A22C2F20002118040F26F21C2F25D
:10989000000101220A70027007E040F2A810C2F233
:1098A00000000121017002F02EB802F02CB840F245
:1098B000AA10C2F20000008840F6BC21C2F20001EA
:1098C000098A884240F0D185FFE740F2AC10C2F22D
:1098D0000000008840F6BC21C2F20001897D884268
:1098E00040F0C385FFE740F2AE10C2F200000088EE
:1098F00040F6BC21C2F20001097E884240F0B585E5
:10990000FFE740F2B010C2F20000008840F6BC2130
:10991000C2F20001B1F92810884240F0A685FFE7A5
:1099200040F2B210C2F20000008840F6BC21C2F240
:109930000001B1F86C10884240F09785FFE740F2D3
:10994000B410C2F20000007840F6BC21C2F200015F
:1099500091F83010884240F08885FFE740F2B5105A
:10996000C2F20000007840F6BC21C2F2000191F87A
:109970003110884240F07985FFE740F2B610C2F21C
:109980000000007840F6BC21C2F2000191F83210CC
:10999000884240F06A85FFE740F2B710C2F200004B
:1099A000007840F6BC21C2F2000191F833108842E1
:1099B00040F05B85FFE740F2B810C2F2000000788B
:1099C00040F6BC21C2F2000191F83410884240F008
:1099D0004C85FFE740F2B910C2F20000007840F673
:1099E000BC21C2F2000191F83510884240F03D855B
:1099F000FFE740F2BA10C2F20000007840F6BC2146
:109A0000C2F2000191F83710884240F02E85FFE73E
:109A100040F2BB10C2F20000007840F6BC21C2F256
:109A2000000191F83810884240F01F85FFE740F2AE
:109A3000BC10C2F20000007840F6BC21C2F2000166
:109A400091F83910884240F01085FFE740F2BE10CF
:109A5000C2F20000008840F6BC21C2F20001B1F859
:109A60007410884240F00185FFE740F2C010C2F256
:109A70000000008840F6BC21C2F20001B1F8761067
:109A8000884240F0F284FFE740F2C210C2F20000C8
:109A9000008840F6BC21C2F20001B1F8781088427B
:109AA00040F0E384FFE740F2C410C2F200000088F7
:109AB00040F6BC21C2F20001B1F87A10884240F0B1
:109AC000D484FFE740F2C610C2F20000008840F6DE
:109AD000BC21C2F20001B1F87C10884240F0C5847C
